{
  "_format": "hh3-artifact-1",
  "contractName": "ShXRPVault",
  "sourceName": "contracts/ShXRPVault.sol",
  "abi": [
    {
      "inputs": [
        {
          "internalType": "contract IERC20",
          "name": "_fxrpToken",
          "type": "address"
        },
        {
          "internalType": "string",
          "name": "_name",
          "type": "string"
        },
        {
          "internalType": "string",
          "name": "_symbol",
          "type": "string"
        },
        {
          "internalType": "address",
          "name": "_revenueRouter",
          "type": "address"
        }
      ],
      "stateMutability": "nonpayable",
      "type": "constructor"
    },
    {
      "inputs": [
        {
          "internalType": "address",
          "name": "spender",
          "type": "address"
        },
        {
          "internalType": "uint256",
          "name": "allowance",
          "type": "uint256"
        },
        {
          "internalType": "uint256",
          "name": "needed",
          "type": "uint256"
        }
      ],
      "name": "ERC20InsufficientAllowance",
      "type": "error"
    },
    {
      "inputs": [
        {
          "internalType": "address",
          "name": "sender",
          "type": "address"
        },
        {
          "internalType": "uint256",
          "name": "balance",
          "type": "uint256"
        },
        {
          "internalType": "uint256",
          "name": "needed",
          "type": "uint256"
        }
      ],
      "name": "ERC20InsufficientBalance",
      "type": "error"
    },
    {
      "inputs": [
        {
          "internalType": "address",
          "name": "approver",
          "type": "address"
        }
      ],
      "name": "ERC20InvalidApprover",
      "type": "error"
    },
    {
      "inputs": [
        {
          "internalType": "address",
          "name": "receiver",
          "type": "address"
        }
      ],
      "name": "ERC20InvalidReceiver",
      "type": "error"
    },
    {
      "inputs": [
        {
          "internalType": "address",
          "name": "sender",
          "type": "address"
        }
      ],
      "name": "ERC20InvalidSender",
      "type": "error"
    },
    {
      "inputs": [
        {
          "internalType": "address",
          "name": "spender",
          "type": "address"
        }
      ],
      "name": "ERC20InvalidSpender",
      "type": "error"
    },
    {
      "inputs": [
        {
          "internalType": "address",
          "name": "receiver",
          "type": "address"
        },
        {
          "internalType": "uint256",
          "name": "assets",
          "type": "uint256"
        },
        {
          "internalType": "uint256",
          "name": "max",
          "type": "uint256"
        }
      ],
      "name": "ERC4626ExceededMaxDeposit",
      "type": "error"
    },
    {
      "inputs": [
        {
          "internalType": "address",
          "name": "receiver",
          "type": "address"
        },
        {
          "internalType": "uint256",
          "name": "shares",
          "type": "uint256"
        },
        {
          "internalType": "uint256",
          "name": "max",
          "type": "uint256"
        }
      ],
      "name": "ERC4626ExceededMaxMint",
      "type": "error"
    },
    {
      "inputs": [
        {
          "internalType": "address",
          "name": "owner",
          "type": "address"
        },
        {
          "internalType": "uint256",
          "name": "shares",
          "type": "uint256"
        },
        {
          "internalType": "uint256",
          "name": "max",
          "type": "uint256"
        }
      ],
      "name": "ERC4626ExceededMaxRedeem",
      "type": "error"
    },
    {
      "inputs": [
        {
          "internalType": "address",
          "name": "owner",
          "type": "address"
        },
        {
          "internalType": "uint256",
          "name": "assets",
          "type": "uint256"
        },
        {
          "internalType": "uint256",
          "name": "max",
          "type": "uint256"
        }
      ],
      "name": "ERC4626ExceededMaxWithdraw",
      "type": "error"
    },
    {
      "inputs": [],
      "name": "EnforcedPause",
      "type": "error"
    },
    {
      "inputs": [],
      "name": "ExpectedPause",
      "type": "error"
    },
    {
      "inputs": [
        {
          "internalType": "address",
          "name": "owner",
          "type": "address"
        }
      ],
      "name": "OwnableInvalidOwner",
      "type": "error"
    },
    {
      "inputs": [
        {
          "internalType": "address",
          "name": "account",
          "type": "address"
        }
      ],
      "name": "OwnableUnauthorizedAccount",
      "type": "error"
    },
    {
      "inputs": [],
      "name": "ReentrancyGuardReentrantCall",
      "type": "error"
    },
    {
      "inputs": [
        {
          "internalType": "address",
          "name": "token",
          "type": "address"
        }
      ],
      "name": "SafeERC20FailedOperation",
      "type": "error"
    },
    {
      "anonymous": false,
      "inputs": [
        {
          "indexed": true,
          "internalType": "address",
          "name": "owner",
          "type": "address"
        },
        {
          "indexed": true,
          "internalType": "address",
          "name": "spender",
          "type": "address"
        },
        {
          "indexed": false,
          "internalType": "uint256",
          "name": "value",
          "type": "uint256"
        }
      ],
      "name": "Approval",
      "type": "event"
    },
    {
      "anonymous": false,
      "inputs": [
        {
          "indexed": false,
          "internalType": "uint256",
          "name": "newTargetBps",
          "type": "uint256"
        }
      ],
      "name": "BufferTargetUpdated",
      "type": "event"
    },
    {
      "anonymous": false,
      "inputs": [
        {
          "indexed": true,
          "internalType": "address",
          "name": "strategy",
          "type": "address"
        },
        {
          "indexed": false,
          "internalType": "uint256",
          "name": "amount",
          "type": "uint256"
        }
      ],
      "name": "DeployedToStrategy",
      "type": "event"
    },
    {
      "anonymous": false,
      "inputs": [
        {
          "indexed": true,
          "internalType": "address",
          "name": "sender",
          "type": "address"
        },
        {
          "indexed": true,
          "internalType": "address",
          "name": "owner",
          "type": "address"
        },
        {
          "indexed": false,
          "internalType": "uint256",
          "name": "assets",
          "type": "uint256"
        },
        {
          "indexed": false,
          "internalType": "uint256",
          "name": "shares",
          "type": "uint256"
        }
      ],
      "name": "Deposit",
      "type": "event"
    },
    {
      "anonymous": false,
      "inputs": [
        {
          "indexed": false,
          "internalType": "uint256",
          "name": "newDepositLimit",
          "type": "uint256"
        }
      ],
      "name": "DepositLimitUpdated",
      "type": "event"
    },
    {
      "anonymous": false,
      "inputs": [
        {
          "indexed": true,
          "internalType": "string",
          "name": "feeType",
          "type": "string"
        },
        {
          "indexed": false,
          "internalType": "uint256",
          "name": "amount",
          "type": "uint256"
        },
        {
          "indexed": true,
          "internalType": "address",
          "name": "recipient",
          "type": "address"
        }
      ],
      "name": "FeeTransferred",
      "type": "event"
    },
    {
      "anonymous": false,
      "inputs": [
        {
          "indexed": false,
          "internalType": "uint256",
          "name": "newMinDeposit",
          "type": "uint256"
        }
      ],
      "name": "MinDepositUpdated",
      "type": "event"
    },
    {
      "anonymous": false,
      "inputs": [
        {
          "indexed": true,
          "internalType": "address",
          "name": "operator",
          "type": "address"
        }
      ],
      "name": "OperatorAdded",
      "type": "event"
    },
    {
      "anonymous": false,
      "inputs": [
        {
          "indexed": true,
          "internalType": "address",
          "name": "operator",
          "type": "address"
        }
      ],
      "name": "OperatorRemoved",
      "type": "event"
    },
    {
      "anonymous": false,
      "inputs": [
        {
          "indexed": true,
          "internalType": "address",
          "name": "previousOwner",
          "type": "address"
        },
        {
          "indexed": true,
          "internalType": "address",
          "name": "newOwner",
          "type": "address"
        }
      ],
      "name": "OwnershipTransferred",
      "type": "event"
    },
    {
      "anonymous": false,
      "inputs": [
        {
          "indexed": false,
          "internalType": "address",
          "name": "account",
          "type": "address"
        }
      ],
      "name": "Paused",
      "type": "event"
    },
    {
      "anonymous": false,
      "inputs": [
        {
          "indexed": true,
          "internalType": "address",
          "name": "strategy",
          "type": "address"
        },
        {
          "indexed": false,
          "internalType": "uint256",
          "name": "targetBps",
          "type": "uint256"
        }
      ],
      "name": "StrategyAdded",
      "type": "event"
    },
    {
      "anonymous": false,
      "inputs": [
        {
          "indexed": true,
          "internalType": "address",
          "name": "strategy",
          "type": "address"
        },
        {
          "indexed": false,
          "internalType": "uint256",
          "name": "newTargetBps",
          "type": "uint256"
        }
      ],
      "name": "StrategyAllocationUpdated",
      "type": "event"
    },
    {
      "anonymous": false,
      "inputs": [
        {
          "indexed": true,
          "internalType": "address",
          "name": "strategy",
          "type": "address"
        }
      ],
      "name": "StrategyRemoved",
      "type": "event"
    },
    {
      "anonymous": false,
      "inputs": [
        {
          "indexed": true,
          "internalType": "address",
          "name": "strategy",
          "type": "address"
        },
        {
          "indexed": false,
          "internalType": "uint256",
          "name": "profit",
          "type": "uint256"
        },
        {
          "indexed": false,
          "internalType": "uint256",
          "name": "loss",
          "type": "uint256"
        },
        {
          "indexed": false,
          "internalType": "uint256",
          "name": "totalAssets",
          "type": "uint256"
        }
      ],
      "name": "StrategyReported",
      "type": "event"
    },
    {
      "anonymous": false,
      "inputs": [
        {
          "indexed": true,
          "internalType": "address",
          "name": "strategy",
          "type": "address"
        },
        {
          "indexed": false,
          "internalType": "enum ShXRPVault.StrategyStatus",
          "name": "newStatus",
          "type": "uint8"
        }
      ],
      "name": "StrategyStatusUpdated",
      "type": "event"
    },
    {
      "anonymous": false,
      "inputs": [
        {
          "indexed": true,
          "internalType": "address",
          "name": "from",
          "type": "address"
        },
        {
          "indexed": true,
          "internalType": "address",
          "name": "to",
          "type": "address"
        },
        {
          "indexed": false,
          "internalType": "uint256",
          "name": "value",
          "type": "uint256"
        }
      ],
      "name": "Transfer",
      "type": "event"
    },
    {
      "anonymous": false,
      "inputs": [
        {
          "indexed": false,
          "internalType": "address",
          "name": "account",
          "type": "address"
        }
      ],
      "name": "Unpaused",
      "type": "event"
    },
    {
      "anonymous": false,
      "inputs": [
        {
          "indexed": true,
          "internalType": "address",
          "name": "sender",
          "type": "address"
        },
        {
          "indexed": true,
          "internalType": "address",
          "name": "receiver",
          "type": "address"
        },
        {
          "indexed": true,
          "internalType": "address",
          "name": "owner",
          "type": "address"
        },
        {
          "indexed": false,
          "internalType": "uint256",
          "name": "assets",
          "type": "uint256"
        },
        {
          "indexed": false,
          "internalType": "uint256",
          "name": "shares",
          "type": "uint256"
        }
      ],
      "name": "Withdraw",
      "type": "event"
    },
    {
      "anonymous": false,
      "inputs": [
        {
          "indexed": true,
          "internalType": "address",
          "name": "strategy",
          "type": "address"
        },
        {
          "indexed": false,
          "internalType": "uint256",
          "name": "amount",
          "type": "uint256"
        },
        {
          "indexed": false,
          "internalType": "uint256",
          "name": "actualAmount",
          "type": "uint256"
        }
      ],
      "name": "WithdrawnFromStrategy",
      "type": "event"
    },
    {
      "anonymous": false,
      "inputs": [
        {
          "indexed": false,
          "internalType": "uint256",
          "name": "newFeeBps",
          "type": "uint256"
        }
      ],
      "name": "YieldRoutingFeeUpdated",
      "type": "event"
    },
    {
      "inputs": [],
      "name": "DEPOSIT_FEE_BPS",
      "outputs": [
        {
          "internalType": "uint256",
          "name": "",
          "type": "uint256"
        }
      ],
      "stateMutability": "view",
      "type": "function"
    },
    {
      "inputs": [],
      "name": "WITHDRAW_FEE_BPS",
      "outputs": [
        {
          "internalType": "uint256",
          "name": "",
          "type": "uint256"
        }
      ],
      "stateMutability": "view",
      "type": "function"
    },
    {
      "inputs": [
        {
          "internalType": "address",
          "name": "strategy",
          "type": "address"
        }
      ],
      "name": "activateStrategy",
      "outputs": [],
      "stateMutability": "nonpayable",
      "type": "function"
    },
    {
      "inputs": [
        {
          "internalType": "address",
          "name": "operator",
          "type": "address"
        }
      ],
      "name": "addOperator",
      "outputs": [],
      "stateMutability": "nonpayable",
      "type": "function"
    },
    {
      "inputs": [
        {
          "internalType": "address",
          "name": "strategy",
          "type": "address"
        },
        {
          "internalType": "uint256",
          "name": "targetBps",
          "type": "uint256"
        }
      ],
      "name": "addStrategy",
      "outputs": [],
      "stateMutability": "nonpayable",
      "type": "function"
    },
    {
      "inputs": [
        {
          "internalType": "address",
          "name": "owner",
          "type": "address"
        },
        {
          "internalType": "address",
          "name": "spender",
          "type": "address"
        }
      ],
      "name": "allowance",
      "outputs": [
        {
          "internalType": "uint256",
          "name": "",
          "type": "uint256"
        }
      ],
      "stateMutability": "view",
      "type": "function"
    },
    {
      "inputs": [
        {
          "internalType": "address",
          "name": "spender",
          "type": "address"
        },
        {
          "internalType": "uint256",
          "name": "value",
          "type": "uint256"
        }
      ],
      "name": "approve",
      "outputs": [
        {
          "internalType": "bool",
          "name": "",
          "type": "bool"
        }
      ],
      "stateMutability": "nonpayable",
      "type": "function"
    },
    {
      "inputs": [],
      "name": "asset",
      "outputs": [
        {
          "internalType": "address",
          "name": "",
          "type": "address"
        }
      ],
      "stateMutability": "view",
      "type": "function"
    },
    {
      "inputs": [
        {
          "internalType": "address",
          "name": "account",
          "type": "address"
        }
      ],
      "name": "balanceOf",
      "outputs": [
        {
          "internalType": "uint256",
          "name": "",
          "type": "uint256"
        }
      ],
      "stateMutability": "view",
      "type": "function"
    },
    {
      "inputs": [],
      "name": "bufferTargetBps",
      "outputs": [
        {
          "internalType": "uint256",
          "name": "",
          "type": "uint256"
        }
      ],
      "stateMutability": "view",
      "type": "function"
    },
    {
      "inputs": [
        {
          "internalType": "uint256",
          "name": "shares",
          "type": "uint256"
        }
      ],
      "name": "convertToAssets",
      "outputs": [
        {
          "internalType": "uint256",
          "name": "",
          "type": "uint256"
        }
      ],
      "stateMutability": "view",
      "type": "function"
    },
    {
      "inputs": [
        {
          "internalType": "uint256",
          "name": "assets",
          "type": "uint256"
        }
      ],
      "name": "convertToShares",
      "outputs": [
        {
          "internalType": "uint256",
          "name": "",
          "type": "uint256"
        }
      ],
      "stateMutability": "view",
      "type": "function"
    },
    {
      "inputs": [],
      "name": "decimals",
      "outputs": [
        {
          "internalType": "uint8",
          "name": "",
          "type": "uint8"
        }
      ],
      "stateMutability": "view",
      "type": "function"
    },
    {
      "inputs": [
        {
          "internalType": "address",
          "name": "strategy",
          "type": "address"
        },
        {
          "internalType": "uint256",
          "name": "amount",
          "type": "uint256"
        }
      ],
      "name": "deployToStrategy",
      "outputs": [],
      "stateMutability": "nonpayable",
      "type": "function"
    },
    {
      "inputs": [
        {
          "internalType": "uint256",
          "name": "assets",
          "type": "uint256"
        },
        {
          "internalType": "address",
          "name": "receiver",
          "type": "address"
        }
      ],
      "name": "deposit",
      "outputs": [
        {
          "internalType": "uint256",
          "name": "",
          "type": "uint256"
        }
      ],
      "stateMutability": "nonpayable",
      "type": "function"
    },
    {
      "inputs": [],
      "name": "depositLimit",
      "outputs": [
        {
          "internalType": "uint256",
          "name": "",
          "type": "uint256"
        }
      ],
      "stateMutability": "view",
      "type": "function"
    },
    {
      "inputs": [],
      "name": "getActiveStrategies",
      "outputs": [
        {
          "internalType": "address[]",
          "name": "",
          "type": "address[]"
        }
      ],
      "stateMutability": "view",
      "type": "function"
    },
    {
      "inputs": [],
      "name": "getAllStrategies",
      "outputs": [
        {
          "internalType": "address[]",
          "name": "",
          "type": "address[]"
        }
      ],
      "stateMutability": "view",
      "type": "function"
    },
    {
      "inputs": [],
      "name": "getBufferBalance",
      "outputs": [
        {
          "internalType": "uint256",
          "name": "",
          "type": "uint256"
        }
      ],
      "stateMutability": "view",
      "type": "function"
    },
    {
      "inputs": [],
      "name": "getBufferStatus",
      "outputs": [
        {
          "internalType": "uint256",
          "name": "current",
          "type": "uint256"
        },
        {
          "internalType": "uint256",
          "name": "target",
          "type": "uint256"
        },
        {
          "internalType": "uint256",
          "name": "deficit",
          "type": "uint256"
        },
        {
          "internalType": "uint256",
          "name": "surplus",
          "type": "uint256"
        },
        {
          "internalType": "uint256",
          "name": "targetBps",
          "type": "uint256"
        }
      ],
      "stateMutability": "view",
      "type": "function"
    },
    {
      "inputs": [],
      "name": "getBufferTarget",
      "outputs": [
        {
          "internalType": "uint256",
          "name": "",
          "type": "uint256"
        }
      ],
      "stateMutability": "view",
      "type": "function"
    },
    {
      "inputs": [],
      "name": "getCurrentAllocations",
      "outputs": [
        {
          "internalType": "address[]",
          "name": "strategies_",
          "type": "address[]"
        },
        {
          "internalType": "uint256[]",
          "name": "allocations",
          "type": "uint256[]"
        },
        {
          "internalType": "uint256[]",
          "name": "targets",
          "type": "uint256[]"
        }
      ],
      "stateMutability": "view",
      "type": "function"
    },
    {
      "inputs": [
        {
          "internalType": "address",
          "name": "strategy",
          "type": "address"
        }
      ],
      "name": "getStrategyInfo",
      "outputs": [
        {
          "components": [
            {
              "internalType": "address",
              "name": "strategyAddress",
              "type": "address"
            },
            {
              "internalType": "uint256",
              "name": "targetBps",
              "type": "uint256"
            },
            {
              "internalType": "enum ShXRPVault.StrategyStatus",
              "name": "status",
              "type": "uint8"
            },
            {
              "internalType": "uint256",
              "name": "totalDeployed",
              "type": "uint256"
            },
            {
              "internalType": "uint256",
              "name": "lastReportTimestamp",
              "type": "uint256"
            }
          ],
          "internalType": "struct ShXRPVault.StrategyInfo",
          "name": "info",
          "type": "tuple"
        }
      ],
      "stateMutability": "view",
      "type": "function"
    },
    {
      "inputs": [],
      "name": "getTotalDeployed",
      "outputs": [
        {
          "internalType": "uint256",
          "name": "",
          "type": "uint256"
        }
      ],
      "stateMutability": "view",
      "type": "function"
    },
    {
      "inputs": [
        {
          "internalType": "address",
          "name": "",
          "type": "address"
        }
      ],
      "name": "maxDeposit",
      "outputs": [
        {
          "internalType": "uint256",
          "name": "",
          "type": "uint256"
        }
      ],
      "stateMutability": "view",
      "type": "function"
    },
    {
      "inputs": [
        {
          "internalType": "address",
          "name": "",
          "type": "address"
        }
      ],
      "name": "maxMint",
      "outputs": [
        {
          "internalType": "uint256",
          "name": "",
          "type": "uint256"
        }
      ],
      "stateMutability": "view",
      "type": "function"
    },
    {
      "inputs": [
        {
          "internalType": "address",
          "name": "owner",
          "type": "address"
        }
      ],
      "name": "maxRedeem",
      "outputs": [
        {
          "internalType": "uint256",
          "name": "",
          "type": "uint256"
        }
      ],
      "stateMutability": "view",
      "type": "function"
    },
    {
      "inputs": [
        {
          "internalType": "address",
          "name": "owner",
          "type": "address"
        }
      ],
      "name": "maxWithdraw",
      "outputs": [
        {
          "internalType": "uint256",
          "name": "",
          "type": "uint256"
        }
      ],
      "stateMutability": "view",
      "type": "function"
    },
    {
      "inputs": [],
      "name": "minDeposit",
      "outputs": [
        {
          "internalType": "uint256",
          "name": "",
          "type": "uint256"
        }
      ],
      "stateMutability": "view",
      "type": "function"
    },
    {
      "inputs": [
        {
          "internalType": "uint256",
          "name": "shares",
          "type": "uint256"
        },
        {
          "internalType": "address",
          "name": "receiver",
          "type": "address"
        }
      ],
      "name": "mint",
      "outputs": [
        {
          "internalType": "uint256",
          "name": "",
          "type": "uint256"
        }
      ],
      "stateMutability": "nonpayable",
      "type": "function"
    },
    {
      "inputs": [],
      "name": "name",
      "outputs": [
        {
          "internalType": "string",
          "name": "",
          "type": "string"
        }
      ],
      "stateMutability": "view",
      "type": "function"
    },
    {
      "inputs": [
        {
          "internalType": "address",
          "name": "",
          "type": "address"
        }
      ],
      "name": "operators",
      "outputs": [
        {
          "internalType": "bool",
          "name": "",
          "type": "bool"
        }
      ],
      "stateMutability": "view",
      "type": "function"
    },
    {
      "inputs": [],
      "name": "owner",
      "outputs": [
        {
          "internalType": "address",
          "name": "",
          "type": "address"
        }
      ],
      "stateMutability": "view",
      "type": "function"
    },
    {
      "inputs": [],
      "name": "pause",
      "outputs": [],
      "stateMutability": "nonpayable",
      "type": "function"
    },
    {
      "inputs": [
        {
          "internalType": "address",
          "name": "strategy",
          "type": "address"
        }
      ],
      "name": "pauseStrategy",
      "outputs": [],
      "stateMutability": "nonpayable",
      "type": "function"
    },
    {
      "inputs": [],
      "name": "paused",
      "outputs": [
        {
          "internalType": "bool",
          "name": "",
          "type": "bool"
        }
      ],
      "stateMutability": "view",
      "type": "function"
    },
    {
      "inputs": [
        {
          "internalType": "uint256",
          "name": "assets",
          "type": "uint256"
        }
      ],
      "name": "previewDeposit",
      "outputs": [
        {
          "internalType": "uint256",
          "name": "",
          "type": "uint256"
        }
      ],
      "stateMutability": "view",
      "type": "function"
    },
    {
      "inputs": [
        {
          "internalType": "uint256",
          "name": "shares",
          "type": "uint256"
        }
      ],
      "name": "previewMint",
      "outputs": [
        {
          "internalType": "uint256",
          "name": "",
          "type": "uint256"
        }
      ],
      "stateMutability": "view",
      "type": "function"
    },
    {
      "inputs": [
        {
          "internalType": "uint256",
          "name": "shares",
          "type": "uint256"
        }
      ],
      "name": "previewRedeem",
      "outputs": [
        {
          "internalType": "uint256",
          "name": "",
          "type": "uint256"
        }
      ],
      "stateMutability": "view",
      "type": "function"
    },
    {
      "inputs": [
        {
          "internalType": "uint256",
          "name": "assets",
          "type": "uint256"
        }
      ],
      "name": "previewWithdraw",
      "outputs": [
        {
          "internalType": "uint256",
          "name": "",
          "type": "uint256"
        }
      ],
      "stateMutability": "view",
      "type": "function"
    },
    {
      "inputs": [
        {
          "internalType": "uint256",
          "name": "shares",
          "type": "uint256"
        },
        {
          "internalType": "address",
          "name": "receiver",
          "type": "address"
        },
        {
          "internalType": "address",
          "name": "owner",
          "type": "address"
        }
      ],
      "name": "redeem",
      "outputs": [
        {
          "internalType": "uint256",
          "name": "",
          "type": "uint256"
        }
      ],
      "stateMutability": "nonpayable",
      "type": "function"
    },
    {
      "inputs": [
        {
          "internalType": "address",
          "name": "operator",
          "type": "address"
        }
      ],
      "name": "removeOperator",
      "outputs": [],
      "stateMutability": "nonpayable",
      "type": "function"
    },
    {
      "inputs": [
        {
          "internalType": "address",
          "name": "strategy",
          "type": "address"
        }
      ],
      "name": "removeStrategy",
      "outputs": [],
      "stateMutability": "nonpayable",
      "type": "function"
    },
    {
      "inputs": [],
      "name": "renounceOwnership",
      "outputs": [],
      "stateMutability": "nonpayable",
      "type": "function"
    },
    {
      "inputs": [
        {
          "internalType": "address",
          "name": "strategy",
          "type": "address"
        }
      ],
      "name": "reportStrategy",
      "outputs": [],
      "stateMutability": "nonpayable",
      "type": "function"
    },
    {
      "inputs": [
        {
          "internalType": "address",
          "name": "strategy",
          "type": "address"
        }
      ],
      "name": "resumeStrategy",
      "outputs": [],
      "stateMutability": "nonpayable",
      "type": "function"
    },
    {
      "inputs": [],
      "name": "revenueRouter",
      "outputs": [
        {
          "internalType": "address",
          "name": "",
          "type": "address"
        }
      ],
      "stateMutability": "view",
      "type": "function"
    },
    {
      "inputs": [
        {
          "internalType": "uint256",
          "name": "newTargetBps",
          "type": "uint256"
        }
      ],
      "name": "setBufferTarget",
      "outputs": [],
      "stateMutability": "nonpayable",
      "type": "function"
    },
    {
      "inputs": [
        {
          "internalType": "uint256",
          "name": "newDepositLimit",
          "type": "uint256"
        }
      ],
      "name": "setDepositLimit",
      "outputs": [],
      "stateMutability": "nonpayable",
      "type": "function"
    },
    {
      "inputs": [
        {
          "internalType": "uint256",
          "name": "newMinDeposit",
          "type": "uint256"
        }
      ],
      "name": "setMinDeposit",
      "outputs": [],
      "stateMutability": "nonpayable",
      "type": "function"
    },
    {
      "inputs": [
        {
          "internalType": "uint256",
          "name": "newFeeBps",
          "type": "uint256"
        }
      ],
      "name": "setYieldRoutingFeeBps",
      "outputs": [],
      "stateMutability": "nonpayable",
      "type": "function"
    },
    {
      "inputs": [
        {
          "internalType": "address",
          "name": "",
          "type": "address"
        }
      ],
      "name": "strategies",
      "outputs": [
        {
          "internalType": "address",
          "name": "strategyAddress",
          "type": "address"
        },
        {
          "internalType": "uint256",
          "name": "targetBps",
          "type": "uint256"
        },
        {
          "internalType": "enum ShXRPVault.StrategyStatus",
          "name": "status",
          "type": "uint8"
        },
        {
          "internalType": "uint256",
          "name": "totalDeployed",
          "type": "uint256"
        },
        {
          "internalType": "uint256",
          "name": "lastReportTimestamp",
          "type": "uint256"
        }
      ],
      "stateMutability": "view",
      "type": "function"
    },
    {
      "inputs": [
        {
          "internalType": "uint256",
          "name": "",
          "type": "uint256"
        }
      ],
      "name": "strategyList",
      "outputs": [
        {
          "internalType": "address",
          "name": "",
          "type": "address"
        }
      ],
      "stateMutability": "view",
      "type": "function"
    },
    {
      "inputs": [],
      "name": "symbol",
      "outputs": [
        {
          "internalType": "string",
          "name": "",
          "type": "string"
        }
      ],
      "stateMutability": "view",
      "type": "function"
    },
    {
      "inputs": [],
      "name": "totalAssets",
      "outputs": [
        {
          "internalType": "uint256",
          "name": "",
          "type": "uint256"
        }
      ],
      "stateMutability": "view",
      "type": "function"
    },
    {
      "inputs": [],
      "name": "totalStrategyTargetBps",
      "outputs": [
        {
          "internalType": "uint256",
          "name": "",
          "type": "uint256"
        }
      ],
      "stateMutability": "view",
      "type": "function"
    },
    {
      "inputs": [],
      "name": "totalSupply",
      "outputs": [
        {
          "internalType": "uint256",
          "name": "",
          "type": "uint256"
        }
      ],
      "stateMutability": "view",
      "type": "function"
    },
    {
      "inputs": [
        {
          "internalType": "address",
          "name": "to",
          "type": "address"
        },
        {
          "internalType": "uint256",
          "name": "value",
          "type": "uint256"
        }
      ],
      "name": "transfer",
      "outputs": [
        {
          "internalType": "bool",
          "name": "",
          "type": "bool"
        }
      ],
      "stateMutability": "nonpayable",
      "type": "function"
    },
    {
      "inputs": [
        {
          "internalType": "address",
          "name": "from",
          "type": "address"
        },
        {
          "internalType": "address",
          "name": "to",
          "type": "address"
        },
        {
          "internalType": "uint256",
          "name": "value",
          "type": "uint256"
        }
      ],
      "name": "transferFrom",
      "outputs": [
        {
          "internalType": "bool",
          "name": "",
          "type": "bool"
        }
      ],
      "stateMutability": "nonpayable",
      "type": "function"
    },
    {
      "inputs": [
        {
          "internalType": "address",
          "name": "newOwner",
          "type": "address"
        }
      ],
      "name": "transferOwnership",
      "outputs": [],
      "stateMutability": "nonpayable",
      "type": "function"
    },
    {
      "inputs": [],
      "name": "unpause",
      "outputs": [],
      "stateMutability": "nonpayable",
      "type": "function"
    },
    {
      "inputs": [
        {
          "internalType": "address",
          "name": "strategy",
          "type": "address"
        },
        {
          "internalType": "uint256",
          "name": "newTargetBps",
          "type": "uint256"
        }
      ],
      "name": "updateAllocation",
      "outputs": [],
      "stateMutability": "nonpayable",
      "type": "function"
    },
    {
      "inputs": [
        {
          "internalType": "uint256",
          "name": "assets",
          "type": "uint256"
        },
        {
          "internalType": "address",
          "name": "receiver",
          "type": "address"
        },
        {
          "internalType": "address",
          "name": "owner",
          "type": "address"
        }
      ],
      "name": "withdraw",
      "outputs": [
        {
          "internalType": "uint256",
          "name": "",
          "type": "uint256"
        }
      ],
      "stateMutability": "nonpayable",
      "type": "function"
    },
    {
      "inputs": [
        {
          "internalType": "address",
          "name": "strategy",
          "type": "address"
        },
        {
          "internalType": "uint256",
          "name": "amount",
          "type": "uint256"
        }
      ],
      "name": "withdrawFromStrategy",
      "outputs": [],
      "stateMutability": "nonpayable",
      "type": "function"
    },
    {
      "inputs": [],
      "name": "yieldRoutingFeeBps",
      "outputs": [
        {
          "internalType": "uint256",
          "name": "",
          "type": "uint256"
        }
      ],
      "stateMutability": "view",
      "type": "function"
    }
  ],
  "bytecode": "0x60e0604052600a600855612710600a5564e8d4a51000600b556103e8600f553480156200002a575f80fd5b50604051620051dc380380620051dc8339810160408190526200004d91620003fa565b3384848460036200005f838262000515565b5060046200006e828262000515565b5050505f806200008483620001ec60201b60201c565b91509150816200009657601262000098565b805b60ff1660a05250506001600160a01b039081166080528116620000d557604051631e4fbdf760e01b81525f60048201526024015b60405180910390fd5b620000e081620002cb565b5060016006556001600160a01b0384166200013e5760405162461bcd60e51b815260206004820152601a60248201527f496e76616c6964204658525020746f6b656e20616464726573730000000000006044820152606401620000cc565b6001600160a01b038116620001965760405162461bcd60e51b815260206004820152601e60248201527f496e76616c696420726576656e756520726f75746572206164647265737300006044820152606401620000cc565b6001600160a01b03811660c052335f81815260096020526040808220805460ff19166001179055517fac6fa858e9350a46cec16539926e0fde25b7629f84b5a72bffaae4df888ae86d9190a25050505062000612565b60408051600481526024810182526020810180516001600160e01b031663313ce56760e01b17905290515f918291829182916001600160a01b038716916200023491620005dd565b5f60405180830381855afa9150503d805f81146200026e576040519150601f19603f3d011682016040523d82523d5f602084013e62000273565b606091505b50915091508180156200028857506020815110155b15620002bf575f81806020019051810190620002a59190620005fa565b905060ff8111620002bd576001969095509350505050565b505b505f9485945092505050565b600580546001600160a01b038381166001600160a01b0319831681179093556040519116919082907f8be0079c531659141344cd1fd0a4f28419497f9722a3daafe3b4186f6b6457e0905f90a35050565b6001600160a01b038116811462000331575f80fd5b50565b634e487b7160e01b5f52604160045260245ffd5b5f5b83811015620003645781810151838201526020016200034a565b50505f910152565b5f82601f8301126200037c575f80fd5b81516001600160401b038082111562000399576200039962000334565b604051601f8301601f19908116603f01168101908282118183101715620003c457620003c462000334565b81604052838152866020858801011115620003dd575f80fd5b620003f084602083016020890162000348565b9695505050505050565b5f805f80608085870312156200040e575f80fd5b84516200041b816200031c565b60208601519094506001600160401b038082111562000438575f80fd5b62000446888389016200036c565b945060408701519150808211156200045c575f80fd5b506200046b878288016200036c565b92505060608501516200047e816200031c565b939692955090935050565b600181811c908216806200049e57607f821691505b602082108103620004bd57634e487b7160e01b5f52602260045260245ffd5b50919050565b601f82111562000510575f81815260208120601f850160051c81016020861015620004eb5750805b601f850160051c820191505b818110156200050c57828155600101620004f7565b5050505b505050565b81516001600160401b0381111562000531576200053162000334565b620005498162000542845462000489565b84620004c3565b602080601f8311600181146200057f575f8415620005675750858301515b5f19600386901b1c1916600185901b1785556200050c565b5f85815260208120601f198616915b82811015620005af578886015182559484019460019091019084016200058e565b5085821015620005cd57878501515f19600388901b60f8161c191681555b5050505050600190811b01905550565b5f8251620005f081846020870162000348565b9190910192915050565b5f602082840312156200060b575f80fd5b5051919050565b60805160a05160c051614b0f620006cd5f395f818161089f015281816129ee01528181612a2b015281816138a1015281816138e001528181613a0201528181613a4201528181613b9d0152613bdd01525f50505f81816104c80152818161090701528181610f2501528181611d9701528181611e94015281816123c30152818161291701528181612b2b01528181612d3c015281816138520152818161393601528181613d8301528181613e3501526140260152614b0f5ff3fe608060405234801561000f575f80fd5b50600436106103ca575f3560e01c80638da5cb5b11610200578063c3b288641161011f578063d905777e116100b4578063e885581211610084578063e88558121461089a578063ecf70858146108c1578063ef8b30f7146108ca578063f2fde38b146108dd578063f6c00db9146108f0575f80fd5b8063d905777e14610834578063d9aba11114610847578063dc24fc071461085a578063dd62ed3e14610862575f80fd5b8063ce96cb77116100ef578063ce96cb77146107e8578063d3f6b598146107fb578063d80ea5a01461080e578063d823a72e14610821575f80fd5b8063c3b28864146107a7578063c63d75b6146107af578063c6e6f592146107c2578063c9411e22146107d5575f80fd5b8063ac8a584a11610195578063b460af9411610165578063b460af941461075b578063b53d09581461076e578063ba08765214610781578063bdc8144b14610794575f80fd5b8063ac8a584a14610724578063acd17d5d14610737578063af56b69f1461073f578063b3d7f6b914610748575f80fd5b80639870d7fe116101d05780639870d7fe146106bb578063a267526b146106ce578063a3603bca146106e1578063a9059cbb14610711575f80fd5b80638da5cb5b1461067c5780638fcc9cfb1461068d57806394bf804d146106a057806395d89b41146106b3575f80fd5b8063402d267d116102ec5780635c975abb1161028157806370a082311161025157806370a082311461063b578063715018a6146106635780637b320da61461066b5780638456cb5914610674575f80fd5b80635c975abb1461060a5780636bbf758d146105875780636e553f65146106155780637085170314610628575f80fd5b80634cdad506116102bc5780634cdad506146105af5780634e423181146105c257806354192ad5146105d5578063587436e4146105f5575f80fd5b8063402d267d146105745780634082fa9b1461058757806341826c2d1461058f57806341b3d185146105a6575f80fd5b806323b872dd1161036257806338f0ede91161033257806338f0ede91461050057806339ebf823146105085780633ede66f7146105635780633f4ba83a1461056c575f80fd5b806323b872dd146104865780632a058cac14610499578063313ce567146104ac57806338d52e0f146104c6575f80fd5b80630a28a4771161039d5780630a28a4771461043457806313e7c9d814610447578063175188e81461046957806318160ddd1461047e575f80fd5b806301e1d114146103ce57806306fdde03146103e957806307a2d13a146103fe578063095ea7b314610411575b5f80fd5b6103d6610903565b6040519081526020015b60405180910390f35b6103f1610a9a565b6040516103e091906143dd565b6103d661040c366004614428565b610b2a565b61042461041f366004614453565b610b3b565b60405190151581526020016103e0565b6103d6610442366004614428565b610b52565b61042461045536600461447d565b60096020525f908152604090205460ff1681565b61047c61047736600461447d565b610b8c565b005b6002546103d6565b610424610494366004614498565b610de9565b61047c6104a736600461447d565b610e0e565b6104b4610f22565b60405160ff90911681526020016103e0565b7f00000000000000000000000000000000000000000000000000000000000000005b6040516001600160a01b0390911681526020016103e0565b6103d6610fa8565b61055261051636600461447d565b600c6020525f9081526040902080546001820154600283015460038401546004909401546001600160a01b0390931693919260ff909116919085565b6040516103e095949392919061450a565b6103d6600e5481565b61047c611011565b6103d661058236600461447d565b611023565b6103d6601481565b610597611066565b6040516103e0939291906145b1565b6103d6600a5481565b6103d66105bd366004614428565b61140a565b61047c6105d0366004614428565b61143c565b6105e86105e336600461447d565b6114d5565b6040516103e091906145f3565b6105fd6115be565b6040516103e0919061463c565b60075460ff16610424565b6103d661062336600461464e565b611772565b61047c610636366004614453565b6117e3565b6103d661064936600461447d565b6001600160a01b03165f9081526020819052604090205490565b61047c611925565b6103d660085481565b61047c611936565b6005546001600160a01b03166104e8565b61047c61069b366004614428565b611946565b6103d66106ae36600461464e565b6119d9565b6103f1611a57565b61047c6106c936600461447d565b611a66565b6104e86106dc366004614428565b611b0f565b6106e9611b37565b604080519586526020860194909452928401919091526060830152608082015260a0016103e0565b61042461071f366004614453565b611b88565b61047c61073236600461447d565b611b95565b6103d6611be5565b6103d6600f5481565b6103d6610756366004614428565b611c08565b6103d661076936600461467c565b611c38565b61047c61077c366004614453565b611c60565b6103d661078f36600461467c565b612092565b61047c6107a2366004614428565b6120ae565b6105fd61213a565b6103d66107bd36600461447d565b612199565b6103d66107d0366004614428565b6121e9565b61047c6107e3366004614453565b6121f4565b6103d66107f636600461447d565b612588565b61047c61080936600461447d565b6125aa565b61047c61081c36600461447d565b6126c6565b61047c61082f366004614428565b612778565b6103d661084236600461447d565b612806565b61047c61085536600461447d565b612823565b6103d6612b28565b6103d66108703660046146bb565b6001600160a01b039182165f90815260016020908152604080832093909416825291909152205490565b6104e87f000000000000000000000000000000000000000000000000000000000000000081565b6103d6600b5481565b6103d66108d8366004614428565b612bb2565b61047c6108eb36600461447d565b612be4565b61047c6108fe366004614453565b612c21565b5f807f00000000000000000000000000000000000000000000000000000000000000006040516370a0823160e01b81523060048201526001600160a01b0391909116906370a0823190602401602060405180830381865afa15801561096a573d5f803e3d5ffd5b505050506040513d601f19601f8201168201806040525081019061098e91906146e7565b90505f5b600d54811015610a94575f600d82815481106109b0576109b06146fe565b5f9182526020808320909101546001600160a01b0316808352600c90915260409091209091506001600282015460ff1660038111156109f1576109f16144d6565b146109fd575050610a82565b816001600160a01b03166301e1d1146040518163ffffffff1660e01b8152600401602060405180830381865afa925050508015610a57575060408051601f3d908101601f19168201909252610a54918101906146e7565b60015b610a71576003810154610a6a9085614726565b9350610a7f565b610a7b8186614726565b9450505b50505b80610a8c81614739565b915050610992565b50919050565b606060038054610aa990614751565b80601f0160208091040260200160405190810160405280929190818152602001828054610ad590614751565b8015610b205780601f10610af757610100808354040283529160200191610b20565b820191905f5260205f20905b815481529060010190602001808311610b0357829003601f168201915b5050505050905090565b5f610b35825f613151565b92915050565b5f33610b48818585613189565b5060019392505050565b5f80612710610b62601485614783565b610b6c91906147ae565b90505f610b798285614726565b9050610b848161319b565b949350505050565b610b946131a7565b6001600160a01b038181165f908152600c602052604090205416610bd35760405162461bcd60e51b8152600401610bca906147c1565b60405180910390fd5b6001600160a01b0381165f908152600c602052604090206003015415610c3b5760405162461bcd60e51b815260206004820152601860248201527f5374726174656779207374696c6c206861732066756e647300000000000000006044820152606401610bca565b6001600160a01b0381165f908152600c6020526040812060010154600e805491929091610c699084906147f8565b90915550506001600160a01b0381165f908152600c6020526040812080546001600160a01b03191681556001810182905560028101805460ff19169055600381018290556004018190555b600d54811015610db257816001600160a01b0316600d8281548110610cdb57610cdb6146fe565b5f918252602090912001546001600160a01b031603610da057600d8054610d04906001906147f8565b81548110610d1457610d146146fe565b5f91825260209091200154600d80546001600160a01b039092169183908110610d3f57610d3f6146fe565b905f5260205f20015f6101000a8154816001600160a01b0302191690836001600160a01b03160217905550600d805480610d7b57610d7b61480b565b5f8281526020902081015f1990810180546001600160a01b0319169055019055610db2565b80610daa81614739565b915050610cb4565b506040516001600160a01b038216907f09a1db4b80c32706328728508c941a6b954f31eb5affd32f236c1fd405f8fea4905f90a250565b5f33610df68582856131d4565b610e0185858561323d565b60019150505b9392505050565b610e166131a7565b6001600160a01b038181165f908152600c602052604090205416610e4c5760405162461bcd60e51b8152600401610bca906147c1565b60026001600160a01b0382165f908152600c602052604090206002015460ff166003811115610e7d57610e7d6144d6565b14610ec05760405162461bcd60e51b815260206004820152601360248201527214dd1c985d1959de481b9bdd081c185d5cd959606a1b6044820152606401610bca565b6001600160a01b0381165f818152600c602052604090819020600201805460ff1916600190811790915590517f71e4d9fadf21bb369876cebbd9192d4d84150c2fb6d208d5d68d6fbdf0aabf7691610f179161481f565b60405180910390a250565b5f7f00000000000000000000000000000000000000000000000000000000000000006001600160a01b031663313ce5676040518163ffffffff1660e01b8152600401602060405180830381865afa158015610f7f573d5f803e3d5ffd5b505050506040513d601f19601f82011682018060405250810190610fa3919061482d565b905090565b5f80805b600d54811015610a9457600c5f600d8381548110610fcc57610fcc6146fe565b5f9182526020808320909101546001600160a01b03168352820192909252604001902060030154610ffd9083614726565b91508061100981614739565b915050610fac565b6110196131a7565b61102161329a565b565b5f61103060075460ff1690565b1561103c57505f919050565b5f611045610903565b9050600b54811061105857505f92915050565b80600b54610e0791906147f8565b60608060605f611074610903565b600d54909150611085816001614726565b67ffffffffffffffff81111561109d5761109d61484d565b6040519080825280602002602001820160405280156110c6578160200160208202803683370190505b5094506110d4816001614726565b67ffffffffffffffff8111156110ec576110ec61484d565b604051908082528060200260200182016040528015611115578160200160208202803683370190505b509350611123816001614726565b67ffffffffffffffff81111561113b5761113b61484d565b604051908082528060200260200182016040528015611164578160200160208202803683370190505b5092505f855f8151811061117a5761117a6146fe565b6001600160a01b039092166020928302919091019091015281156111d657816111a1612b28565b6111ad90612710614783565b6111b791906147ae565b845f815181106111c9576111c96146fe565b6020026020010181815250505b600f54835f815181106111eb576111eb6146fe565b6020026020010181815250505f5b81811015611402575f600d8281548110611215576112156146fe565b5f918252602090912001546001600160a01b031690508087611238846001614726565b81518110611248576112486146fe565b60200260200101906001600160a01b031690816001600160a01b0316815250505f841180156112a5575060016001600160a01b0382165f908152600c602052604090206002015460ff1660038111156112a3576112a36144d6565b145b156113a957806001600160a01b03166301e1d1146040518163ffffffff1660e01b8152600401602060405180830381865afa925050508015611304575060408051601f3d908101601f19168201909252611301918101906146e7565b60015b611368576001600160a01b0381165f908152600c6020526040902060030154849061133190612710614783565b61133b91906147ae565b86611347846001614726565b81518110611357576113576146fe565b6020026020010181815250506113a9565b8461137582612710614783565b61137f91906147ae565b8761138b856001614726565b8151811061139b5761139b6146fe565b602002602001018181525050505b6001600160a01b0381165f908152600c602052604090206001908101549086906113d4908590614726565b815181106113e4576113e46146fe565b602090810291909101015250806113fa81614739565b9150506111f9565b505050909192565b5f8061141583610b2a565b90505f612710611426601484614783565b61143091906147ae565b9050610b8481836147f8565b6114446131a7565b6127108111156114665760405162461bcd60e51b8152600401610bca90614861565b5f81600e546114759190614726565b90506127108111156114995760405162461bcd60e51b8152600401610bca90614898565b600f8290556040518281527f25d100bf71ce70005705f0f63e93ddd517f408c8fad360538d0ae1f2204029a89060200160405180910390a15050565b6115046040805160a0810182525f80825260208201819052909182019081526020015f81526020015f81525090565b6001600160a01b038281165f908152600c60205260409020541661153a5760405162461bcd60e51b8152600401610bca906147c1565b6001600160a01b038083165f908152600c6020908152604091829020825160a081018452815490941684526001810154918401919091526002810154909183019060ff16600381111561158f5761158f6144d6565b60038111156115a0576115a06144d6565b81526003820154602082015260049091015460409091015292915050565b60605f805b600d54811015611645576001600c5f600d84815481106115e5576115e56146fe565b5f9182526020808320909101546001600160a01b0316835282019290925260400190206002015460ff166003811115611620576116206144d6565b03611633578161162f81614739565b9250505b8061163d81614739565b9150506115c3565b505f8167ffffffffffffffff8111156116605761166061484d565b604051908082528060200260200182016040528015611689578160200160208202803683370190505b5090505f805b600d54811015611769576001600c5f600d84815481106116b1576116b16146fe565b5f9182526020808320909101546001600160a01b0316835282019290925260400190206002015460ff1660038111156116ec576116ec6144d6565b0361175757600d8181548110611704576117046146fe565b905f5260205f20015f9054906101000a90046001600160a01b0316838381518110611731576117316146fe565b6001600160a01b03909216602092830291909101909101528161175381614739565b9250505b8061176181614739565b91505061168f565b50909392505050565b5f61177b6132ec565b611783613316565b600a548310156117cd5760405162461bcd60e51b815260206004820152601560248201527410995b1bddc81b5a5b9a5b5d5b4819195c1bdcda5d605a1b6044820152606401610bca565b6117d7838361333a565b9050610b356001600655565b6117eb6131a7565b6001600160a01b038281165f908152600c6020526040902054166118215760405162461bcd60e51b8152600401610bca906147c1565b6127108111156118435760405162461bcd60e51b8152600401610bca90614861565b6001600160a01b0382165f908152600c6020526040812060010154600f54600e5491929184906118749085906147f8565b61187e9190614726565b6118889190614726565b90506127108111156118ac5760405162461bcd60e51b8152600401610bca90614898565b8282600e546118bb91906147f8565b6118c59190614726565b600e556001600160a01b0384165f818152600c602052604090819020600101859055517feda1127dbe257a768246136b79de9d901a2a66b37e0197435f9b4c2e499095c4906119179086815260200190565b60405180910390a250505050565b61192d6131a7565b6110215f613386565b61193e6131a7565b6110216133d7565b61194e6131a7565b5f811161199d5760405162461bcd60e51b815260206004820152601c60248201527f4d696e206465706f736974206d75737420626520706f736974697665000000006044820152606401610bca565b600a8190556040518181527f96a008f96f1c0ab9fa3d9ddd43cdfc614848c4d054d51f43662ed900e9d094c8906020015b60405180910390a150565b5f6119e26132ec565b6119ea613316565b5f6119f484611c08565b9050600a54811015611a405760405162461bcd60e51b815260206004820152601560248201527410995b1bddc81b5a5b9a5b5d5b4819195c1bdcda5d605a1b6044820152606401610bca565b611a4a8484613414565b915050610b356001600655565b606060048054610aa990614751565b611a6e6131a7565b6001600160a01b038116611ac45760405162461bcd60e51b815260206004820152601860248201527f496e76616c6964206f70657261746f72206164647265737300000000000000006044820152606401610bca565b6001600160a01b0381165f81815260096020526040808220805460ff19166001179055517fac6fa858e9350a46cec16539926e0fde25b7629f84b5a72bffaae4df888ae86d9190a250565b600d8181548110611b1e575f80fd5b5f918252602090912001546001600160a01b0316905081565b5f805f805f611b44612b28565b9450611b4e611be5565b9350600f54905083851015611b7157611b6785856147f8565b92505f9150611b81565b5f9250611b7e84866147f8565b91505b9091929394565b5f33610b4881858561323d565b611b9d6131a7565b6001600160a01b0381165f81815260096020526040808220805460ff19169055517f80c0b871b97b595b16a7741c1b06fed0c6f6f558639f18ccbce50724325dc40d9190a250565b5f612710600f54611bf4610903565b611bfe9190614783565b610fa391906147ae565b5f80611c1383613460565b9050611c2260146127106147f8565b611c2e82612710614783565b610e0791906147ae565b5f611c416132ec565b611c49613316565b611c5484848461346c565b9050610e076001600655565b335f9081526009602052604090205460ff1680611c8757506005546001600160a01b031633145b611ca35760405162461bcd60e51b8152600401610bca906148cf565b611cab6132ec565b6001600160a01b038281165f908152600c602052604090205416611ce15760405162461bcd60e51b8152600401610bca906147c1565b5f8111611d2a5760405162461bcd60e51b8152602060048201526017602482015276416d6f756e74206d75737420626520706f73697469766560481b6044820152606401610bca565b6001600160a01b0382165f908152600c6020526040902060030154811115611d945760405162461bcd60e51b815260206004820152601960248201527f57697468647261772065786365656473206465706c6f796564000000000000006044820152606401610bca565b5f7f00000000000000000000000000000000000000000000000000000000000000006040516370a0823160e01b81523060048201526001600160a01b0391909116906370a0823190602401602060405180830381865afa158015611dfa573d5f803e3d5ffd5b505050506040513d601f19601f82011682018060405250810190611e1e91906146e7565b604051627b8a6760e11b8152600481018490523060248201529091505f906001600160a01b0385169062f714ce906044016020604051808303815f875af1158015611e6b573d5f803e3d5ffd5b505050506040513d601f19601f82011682018060405250810190611e8f91906146e7565b90505f7f00000000000000000000000000000000000000000000000000000000000000006040516370a0823160e01b81523060048201526001600160a01b0391909116906370a0823190602401602060405180830381865afa158015611ef7573d5f803e3d5ffd5b505050506040513d601f19601f82011682018060405250810190611f1b91906146e7565b905082811015611f6d5760405162461bcd60e51b815260206004820152601760248201527f5661756c742062616c616e6365206465637265617365640000000000000000006044820152606401610bca565b5f611f7884836147f8565b90505f8111611fc95760405162461bcd60e51b815260206004820152601f60248201527f4e6f2066756e64732072656365697665642066726f6d207374726174656779006044820152606401610bca565b6001600160a01b0386165f908152600c6020526040902060030154811161201f576001600160a01b0386165f908152600c6020526040812060030180548392906120149084906147f8565b9091555061203b9050565b6001600160a01b0386165f908152600c60205260408120600301555b60408051868152602081018590526001600160a01b038816917f490dfb4ce52333704763aee75edba596ceaab548bccafc900f79c2b9f6381b0891015b60405180910390a25050505061208e6001600655565b5050565b5f61209b6132ec565b6120a3613316565b611c548484846134c2565b6120b66131a7565b5f81116121055760405162461bcd60e51b815260206004820152601e60248201527f4465706f736974206c696d6974206d75737420626520706f73697469766500006044820152606401610bca565b600b8190556040518181527fc512617347fd848ec9d7347c99c10e4fa7059132c92d0445930a7fb0c8252ff5906020016119ce565b6060600d805480602002602001604051908101604052809291908181526020018280548015610b2057602002820191905f5260205f20905b81546001600160a01b03168152600190910190602001808311612172575050505050905090565b5f6121a660075460ff1690565b156121b257505f919050565b5f6121bb610903565b9050600b5481106121ce57505f92915050565b5f81600b546121dd91906147f8565b9050610b84815f61350f565b5f610b35825f61350f565b6121fc6131a7565b6001600160a01b0382166122525760405162461bcd60e51b815260206004820152601860248201527f496e76616c6964207374726174656779206164647265737300000000000000006044820152606401610bca565b6001600160a01b038281165f908152600c602052604090205416156122b95760405162461bcd60e51b815260206004820152601760248201527f537472617465677920616c7265616479206578697374730000000000000000006044820152606401610bca565b6127108111156122db5760405162461bcd60e51b8152600401610bca90614861565b5f600f5482600e546122ed9190614726565b6122f79190614726565b905061271081111561231b5760405162461bcd60e51b8152600401610bca90614898565b826001600160a01b03166338d52e0f6040518163ffffffff1660e01b8152600401602060405180830381865afa925050508015612375575060408051601f3d908101601f19168201909252612372918101906148f7565b60015b6123c15760405162461bcd60e51b815260206004820152601960248201527f496e76616c696420737472617465677920636f6e7472616374000000000000006044820152606401610bca565b7f00000000000000000000000000000000000000000000000000000000000000006001600160a01b0316816001600160a01b0316146124425760405162461bcd60e51b815260206004820152601760248201527f5374726174656779206173736574206d69736d617463680000000000000000006044820152606401610bca565b506040805160a0810182526001600160a01b0385811680835260208084018781525f85870181815260608701829052426080880152938152600c909252949020835181546001600160a01b031916931692909217825592516001808301919091559251600282018054939492939192909160ff1916908360038111156124ca576124ca6144d6565b021790555060608201516003820155608090910151600490910155600d80546001810182555f9182527fd7b6990105719101dabeb77144f2a3385c8033acd3af97e9423a695e81ad1eb50180546001600160a01b0319166001600160a01b038616179055600e8054849290612540908490614726565b90915550506040518281526001600160a01b038416907f2f564a83158ad1831793ad3e69257b52f39ece5d49cb0d8746708ecb9ef964da9060200160405180910390a2505050565b6001600160a01b0381165f90815260208190526040812054610b35905f613151565b335f9081526009602052604090205460ff16806125d157506005546001600160a01b031633145b6125ed5760405162461bcd60e51b8152600401610bca906148cf565b6001600160a01b038181165f908152600c6020526040902054166126235760405162461bcd60e51b8152600401610bca906147c1565b60016001600160a01b0382165f908152600c602052604090206002015460ff166003811115612654576126546144d6565b146126715760405162461bcd60e51b8152600401610bca90614912565b6001600160a01b0381165f818152600c6020526040908190206002908101805460ff19168217905590517f71e4d9fadf21bb369876cebbd9192d4d84150c2fb6d208d5d68d6fbdf0aabf7691610f179161481f565b6126ce6131a7565b6001600160a01b038181165f908152600c6020526040902054166127045760405162461bcd60e51b8152600401610bca906147c1565b6001600160a01b0381165f908152600c602052604081206002015460ff166003811115612733576127336144d6565b14610ec05760405162461bcd60e51b81526020600482015260156024820152745374726174656779206e6f7420696e61637469766560581b6044820152606401610bca565b6127806131a7565b60648111156127d15760405162461bcd60e51b815260206004820152601a60248201527f5969656c64206665652063616e6e6f74206578636565642031250000000000006044820152606401610bca565b60088190556040518181527f54c0c8fda5359e8d65b518fb6ab2ec65baa3f117413529440640475e1e4ca2bd906020016119ce565b6001600160a01b0381165f90815260208190526040812054610b35565b6001600160a01b038181165f908152600c6020526040902054166128595760405162461bcd60e51b8152600401610bca906147c1565b60016001600160a01b0382165f908152600c602052604090206002015460ff16600381111561288a5761288a6144d6565b146128a75760405162461bcd60e51b8152600401610bca90614912565b5f805f836001600160a01b0316632606a10b6040518163ffffffff1660e01b81526004016060604051808303815f875af11580156128e7573d5f803e3d5ffd5b505050506040513d601f19601f8201168201806040525081019061290b919061493f565b9250925092505f6129397f000000000000000000000000000000000000000000000000000000000000000090565b90505f8411801561294b57505f600854115b15612aa3575f612710600854866129629190614783565b61296c91906147ae565b604051627b8a6760e11b8152600481018290523060248201529091505f906001600160a01b0388169062f714ce906044016020604051808303815f875af11580156129b9573d5f803e3d5ffd5b505050506040513d601f19601f820116820180604052508101906129dd91906146e7565b9050612a136001600160a01b0384167f00000000000000000000000000000000000000000000000000000000000000008361353e565b604051641e5a595b1960da1b81526001600160a01b037f00000000000000000000000000000000000000000000000000000000000000001690600501604051908190038120838252905f80516020614aba8339815191529060200160405180910390a3612a8081856147f8565b6001600160a01b0388165f908152600c602052604090206003015550612ac19050565b6001600160a01b0385165f908152600c602052604090206003018290555b6001600160a01b0385165f818152600c60209081526040918290204260048201556003015482518881529182018790528183015290517f6fbdf847c78f04eac7a7a77e1073af6eeec604ee0b495240579dccf57fcf2d889181900360600190a25050505050565b5f7f00000000000000000000000000000000000000000000000000000000000000006040516370a0823160e01b81523060048201526001600160a01b0391909116906370a0823190602401602060405180830381865afa158015612b8e573d5f803e3d5ffd5b505050506040513d601f19601f82011682018060405250810190610fa391906146e7565b5f80612710612bc2601485614783565b612bcc91906147ae565b90505f612bd982856147f8565b9050610b84816121e9565b612bec6131a7565b6001600160a01b038116612c1557604051631e4fbdf760e01b81525f6004820152602401610bca565b612c1e81613386565b50565b335f9081526009602052604090205460ff1680612c4857506005546001600160a01b031633145b612c645760405162461bcd60e51b8152600401610bca906148cf565b612c6c6132ec565b6001600160a01b038281165f908152600c602052604090205416612ca25760405162461bcd60e51b8152600401610bca906147c1565b60016001600160a01b0383165f908152600c602052604090206002015460ff166003811115612cd357612cd36144d6565b14612cf05760405162461bcd60e51b8152600401610bca90614912565b5f8111612d395760405162461bcd60e51b8152602060048201526017602482015276416d6f756e74206d75737420626520706f73697469766560481b6044820152606401610bca565b5f7f00000000000000000000000000000000000000000000000000000000000000006040516370a0823160e01b81523060048201529091505f906001600160a01b038316906370a0823190602401602060405180830381865afa158015612da2573d5f803e3d5ffd5b505050506040513d601f19601f82011682018060405250810190612dc691906146e7565b905082811015612e185760405162461bcd60e51b815260206004820152601a60248201527f496e73756666696369656e74207661756c742062616c616e63650000000000006044820152606401610bca565b60405163095ea7b360e01b81526001600160a01b0385811660048301526024820185905283169063095ea7b3906044016020604051808303815f875af1158015612e64573d5f803e3d5ffd5b505050506040513d601f19601f82011682018060405250810190612e88919061496a565b5060405163a5e3875160e01b8152600481018490526001600160a01b0385169063a5e38751906024015f604051808303815f87803b158015612ec8575f80fd5b505af1158015612eda573d5f803e3d5ffd5b50506040516370a0823160e01b81523060048201525f92506001600160a01b03851691506370a0823190602401602060405180830381865afa158015612f22573d5f803e3d5ffd5b505050506040513d601f19601f82011682018060405250810190612f4691906146e7565b90505f612f5382846147f8565b90505f8111612fa45760405162461bcd60e51b815260206004820152601b60248201527f537472617465677920646964206e6f742070756c6c2066756e647300000000006044820152606401610bca565b84811115612fff5760405162461bcd60e51b815260206004820152602260248201527f53747261746567792070756c6c6564206d6f7265207468616e20617070726f76604482015261195960f21b6064820152608401610bca565b6001600160a01b0386165f908152600c602052604081206003018054839290613029908490614726565b9091555050604051636eb1769f60e11b81523060048201526001600160a01b0387811660248301525f919086169063dd62ed3e90604401602060405180830381865afa15801561307b573d5f803e3d5ffd5b505050506040513d601f19601f8201168201806040525081019061309f91906146e7565b11156131165760405163095ea7b360e01b81526001600160a01b0387811660048301525f602483015285169063095ea7b3906044016020604051808303815f875af11580156130f0573d5f803e3d5ffd5b505050506040513d601f19601f82011682018060405250810190613114919061496a565b505b856001600160a01b03167f118140c5f65d2d1239952f9fed523588c6b439a75344ee43cf01f74fbee5e41f8260405161207891815260200190565b5f610e0761315d610903565b613168906001614726565b6131735f600a614a69565b6002546131809190614726565b8591908561359d565b61319683838360016135df565b505050565b5f610b3582600161350f565b6005546001600160a01b031633146110215760405163118cdaa760e01b8152336004820152602401610bca565b6001600160a01b038381165f908152600160209081526040808320938616835292905220545f19811015613237578181101561322957828183604051637dc7a0d960e11b8152600401610bca93929190614a77565b61323784848484035f6135df565b50505050565b6001600160a01b03831661326657604051634b637e8f60e11b81525f6004820152602401610bca565b6001600160a01b03821661328f5760405163ec442f0560e01b81525f6004820152602401610bca565b6131968383836136b1565b6132a26137c4565b6007805460ff191690557f5db9ee0a495bf2e6ff9c91a7834c1ba4fdd244a5e8aa4e537bd38aeae4b073aa335b6040516001600160a01b03909116815260200160405180910390a1565b60026006540361330f57604051633ee5aeb560e01b815260040160405180910390fd5b6002600655565b60075460ff16156110215760405163d93c066560e01b815260040160405180910390fd5b5f8061334583611023565b90508084111561336e57828482604051633c8097d960e11b8152600401610bca93929190614a77565b5f61337885612bb2565b9050610b84338587846137e7565b600580546001600160a01b038381166001600160a01b0319831681179093556040519116919082907f8be0079c531659141344cd1fd0a4f28419497f9722a3daafe3b4186f6b6457e0905f90a35050565b6133df613316565b6007805460ff191660011790557f62e78cea01bee320cd4e420270b5ea74000d11b0c9f74754ebdbfc544b05a2586132cf3390565b5f8061341f83612199565b9050808411156134485782848260405163284ff66760e01b8152600401610bca93929190614a77565b5f61345285611c08565b9050610b84338583886137e7565b5f610b35826001613151565b5f8061347783612588565b9050808511156134a057828582604051633fa733bb60e21b8152600401610bca93929190614a77565b5f6134aa86610b52565b90506134b93386868985613934565b95945050505050565b5f806134cd83612806565b9050808511156134f657828582604051632e52afbb60e21b8152600401610bca93929190614a77565b5f6135008661140a565b90506134b9338686848a613934565b5f610e0761351e82600a614a69565b60025461352b9190614726565b613533610903565b613180906001614726565b6040516001600160a01b0383811660248301526044820183905261319691859182169063a9059cbb906064015b604051602081830303815290604052915060e01b6020820180516001600160e01b038381831617835250505050613c36565b5f6135ca6135aa83613ca2565b80156135c557505f84806135c0576135c061479a565b868809115b151590565b6135d5868686613cce565b6134b99190614726565b6001600160a01b0384166136085760405163e602df0560e01b81525f6004820152602401610bca565b6001600160a01b03831661363157604051634a1406b160e11b81525f6004820152602401610bca565b6001600160a01b038085165f908152600160209081526040808320938716835292905220829055801561323757826001600160a01b0316846001600160a01b03167f8c5be1e5ebec7d5bd14f71427d1e84f3dd0314c0f7b2291e5b200ac8c7c3b925846040516136a391815260200190565b60405180910390a350505050565b6001600160a01b0383166136db578060025f8282546136d09190614726565b909155506137389050565b6001600160a01b0383165f908152602081905260409020548181101561371a5783818360405163391434e360e21b8152600401610bca93929190614a77565b6001600160a01b0384165f9081526020819052604090209082900390555b6001600160a01b03821661375457600280548290039055613772565b6001600160a01b0382165f9081526020819052604090208054820190555b816001600160a01b0316836001600160a01b03167fddf252ad1be2c89b69c2b068fc378daa952ba7f163c4a11628f55a4df523b3ef836040516137b791815260200190565b60405180910390a3505050565b60075460ff1661102157604051638dfc202b60e01b815260040160405180910390fd5b600b54826137f3610903565b6137fd9190614726565b11156138445760405162461bcd60e51b815260206004820152601660248201527511195c1bdcda5d081b1a5b5a5d08195e18d95959195960521b6044820152606401610bca565b61385084848484613d7e565b7f00000000000000000000000000000000000000000000000000000000000000005f612710613880601486614783565b61388a91906147ae565b9050801561392c576138c66001600160a01b0383167f00000000000000000000000000000000000000000000000000000000000000008361353e565b6040516619195c1bdcda5d60ca1b81526001600160a01b037f00000000000000000000000000000000000000000000000000000000000000001690600701604051908190038120838252905f80516020614aba8339815191529060200160405180910390a35b505050505050565b7f00000000000000000000000000000000000000000000000000000000000000005f61395f83610b2a565b90505f61396c85836147f8565b6040516370a0823160e01b81523060048201529091505f906001600160a01b038516906370a0823190602401602060405180830381865afa1580156139b3573d5f803e3d5ffd5b505050506040513d601f19601f820116820180604052508101906139d791906146e7565b9050828110613a97576139ed8989898989613e02565b8115613a8e57613a276001600160a01b0385167f00000000000000000000000000000000000000000000000000000000000000008461353e565b60405167776974686472617760c01b81526001600160a01b037f00000000000000000000000000000000000000000000000000000000000000001690600801604051908190038120848252905f80516020614aba8339815191529060200160405180910390a35b50505050613c2f565b5f613aa282856147f8565b9050613aad81613ec2565b506040516370a0823160e01b815230600482015284906001600160a01b038716906370a0823190602401602060405180830381865afa158015613af2573d5f803e3d5ffd5b505050506040513d601f19601f82011682018060405250810190613b1691906146e7565b1015613b7b5760405162461bcd60e51b815260206004820152602e60248201527f496e73756666696369656e74206c697175696469747920696e207661756c742060448201526d616e64207374726174656769657360901b6064820152608401610bca565b613b888a8a8a8a8a613e02565b8215613c2957613bc26001600160a01b0386167f00000000000000000000000000000000000000000000000000000000000000008561353e565b60405167776974686472617760c01b81526001600160a01b037f00000000000000000000000000000000000000000000000000000000000000001690600801604051908190038120858252905f80516020614aba8339815191529060200160405180910390a35b50505050505b5050505050565b5f8060205f8451602086015f885af180613c55576040513d5f823e3d81fd5b50505f513d91508115613c6c578060011415613c79565b6001600160a01b0384163b155b1561323757604051635274afe760e01b81526001600160a01b0385166004820152602401610bca565b5f6002826003811115613cb757613cb76144d6565b613cc19190614a98565b60ff166001149050919050565b5f805f613cdb868661430f565b91509150815f03613cff57838181613cf557613cf561479a565b0492505050610e07565b818411613d1657613d16600385150260111861432b565b5f848688095f868103871696879004966002600389028118808a02820302808a02820302808a02820302808a02820302808a02820302808a02909103029181900381900460010185841190960395909502919093039390930492909217029150509392505050565b613daa7f000000000000000000000000000000000000000000000000000000000000000085308561433c565b613db48382614375565b826001600160a01b0316846001600160a01b03167fdcbc1c05240f31ff3ad067ef1ee35ce4997762752e3a095284754544f4c709d784846040516136a3929190918252602082015260400190565b826001600160a01b0316856001600160a01b031614613e2657613e268386836131d4565b613e3083826143a9565b613e5b7f0000000000000000000000000000000000000000000000000000000000000000858461353e565b826001600160a01b0316846001600160a01b0316866001600160a01b03167ffbde797d201c681b91056529119e0b02407c7bb96a4a2c75c01fc9667232c8db8585604051613eb3929190918252602082015260400190565b60405180910390a45050505050565b600d545f908190819067ffffffffffffffff811115613ee357613ee361484d565b604051908082528060200260200182016040528015613f0c578160200160208202803683370190505b5090505f805b600d54811015614007575f600d8281548110613f3057613f306146fe565b5f9182526020808320909101546001600160a01b0316808352600c90915260409091209091506001600282015460ff166003811115613f7157613f716144d6565b1480613f94575060028082015460ff166003811115613f9257613f926144d6565b145b8015613fa357505f8160030154115b15613ff2576003810154613fb79087614726565b955081858581518110613fcc57613fcc6146fe565b6001600160a01b039092166020928302919091019091015283613fee81614739565b9450505b50508080613fff90614739565b915050613f12565b50821580614013575080155b1561402257505f949350505050565b5f857f0000000000000000000000000000000000000000000000000000000000000000825b84811015614302575f868281518110614062576140626146fe565b6020908102919091018101516001600160a01b0381165f908152600c90925260408220909250906140946001896147f8565b84036140a15750846140bf565b898c83600301546140b29190614783565b6140bc91906147ae565b90505b81600301548111156140d2575060038101545b8015806140dd575085155b156140ea575050506142f0565b6040516370a0823160e01b81523060048201525f906001600160a01b038716906370a0823190602401602060405180830381865afa15801561412e573d5f803e3d5ffd5b505050506040513d601f19601f8201168201806040525081019061415291906146e7565b604051627b8a6760e11b8152600481018490523060248201529091506001600160a01b0385169062f714ce906044016020604051808303815f875af19250505080156141bb575060408051601f3d908101601f191682019092526141b8918101906146e7565b60015b6141c857505050506142f0565b6040516370a0823160e01b81523060048201525f906001600160a01b038916906370a0823190602401602060405180830381865afa15801561420c573d5f803e3d5ffd5b505050506040513d601f19601f8201168201806040525081019061423091906146e7565b9050828111156142e9575f61424584836147f8565b9050808660030154106142705780866003015f82825461426591906147f8565b909155506142779050565b5f60038701555b614281818c614726565b9a505f8a8210614291578a614293565b815b905061429f818c6147f8565b6040805188815260208101879052919c506001600160a01b038a16917f490dfb4ce52333704763aee75edba596ceaab548bccafc900f79c2b9f6381b08910160405180910390a250505b5050505050505b806142fa81614739565b915050614047565b5091979650505050505050565b5f805f1983850993909202808410938190039390930393915050565b634e487b715f52806020526024601cfd5b6040516001600160a01b0384811660248301528381166044830152606482018390526132379186918216906323b872dd9060840161356b565b6001600160a01b03821661439e5760405163ec442f0560e01b81525f6004820152602401610bca565b61208e5f83836136b1565b6001600160a01b0382166143d257604051634b637e8f60e11b81525f6004820152602401610bca565b61208e825f836136b1565b5f6020808352835180828501525f5b81811015614408578581018301518582016040015282016143ec565b505f604082860101526040601f19601f8301168501019250505092915050565b5f60208284031215614438575f80fd5b5035919050565b6001600160a01b0381168114612c1e575f80fd5b5f8060408385031215614464575f80fd5b823561446f8161443f565b946020939093013593505050565b5f6020828403121561448d575f80fd5b8135610e078161443f565b5f805f606084860312156144aa575f80fd5b83356144b58161443f565b925060208401356144c58161443f565b929592945050506040919091013590565b634e487b7160e01b5f52602160045260245ffd5b6004811061450657634e487b7160e01b5f52602160045260245ffd5b9052565b6001600160a01b03861681526020810185905260a0810161452e60408301866144ea565b6060820193909352608001529392505050565b5f8151808452602080850194508084015f5b838110156145785781516001600160a01b031687529582019590820190600101614553565b509495945050505050565b5f8151808452602080850194508084015f5b8381101561457857815187529582019590820190600101614595565b606081525f6145c36060830186614541565b82810360208401526145d58186614583565b905082810360408401526145e98185614583565b9695505050505050565b81516001600160a01b031681526020808301519082015260408083015160a0830191614621908401826144ea565b50606083015160608301526080830151608083015292915050565b602081525f610e076020830184614541565b5f806040838503121561465f575f80fd5b8235915060208301356146718161443f565b809150509250929050565b5f805f6060848603121561468e575f80fd5b8335925060208401356146a08161443f565b915060408401356146b08161443f565b809150509250925092565b5f80604083850312156146cc575f80fd5b82356146d78161443f565b915060208301356146718161443f565b5f602082840312156146f7575f80fd5b5051919050565b634e487b7160e01b5f52603260045260245ffd5b634e487b7160e01b5f52601160045260245ffd5b80820180821115610b3557610b35614712565b5f6001820161474a5761474a614712565b5060010190565b600181811c9082168061476557607f821691505b602082108103610a9457634e487b7160e01b5f52602260045260245ffd5b8082028115828204841417610b3557610b35614712565b634e487b7160e01b5f52601260045260245ffd5b5f826147bc576147bc61479a565b500490565b60208082526017908201527f537472617465677920646f6573206e6f74206578697374000000000000000000604082015260600190565b81810381811115610b3557610b35614712565b634e487b7160e01b5f52603160045260245ffd5b60208101610b3582846144ea565b5f6020828403121561483d575f80fd5b815160ff81168114610e07575f80fd5b634e487b7160e01b5f52604160045260245ffd5b60208082526019908201527f5461726765742063616e6e6f7420657863656564203130302500000000000000604082015260600190565b60208082526019908201527f546f74616c207461726765747320657863656564203130302500000000000000604082015260600190565b6020808252600e908201526d139bdd08185d5d1a1bdc9a5e995960921b604082015260600190565b5f60208284031215614907575f80fd5b8151610e078161443f565b6020808252601390820152725374726174656779206e6f742061637469766560681b604082015260600190565b5f805f60608486031215614951575f80fd5b8351925060208401519150604084015190509250925092565b5f6020828403121561497a575f80fd5b81518015158114610e07575f80fd5b600181815b808511156149c357815f19048211156149a9576149a9614712565b808516156149b657918102915b93841c939080029061498e565b509250929050565b5f826149d957506001610b35565b816149e557505f610b35565b81600181146149fb5760028114614a0557614a21565b6001915050610b35565b60ff841115614a1657614a16614712565b50506001821b610b35565b5060208310610133831016604e8410600b8410161715614a44575081810a610b35565b614a4e8383614989565b805f1904821115614a6157614a61614712565b029392505050565b5f610e0760ff8416836149cb565b6001600160a01b039390931683526020830191909152604082015260600190565b5f60ff831680614aaa57614aaa61479a565b8060ff8416069150509291505056fec97e37a3ee882461168e30abda52997d9f4a6bf67a405b01c1a39a5cdeb3f0dfa2646970667358221220970d9cbc3b7227dda34cd6584334f0fd9dbbf531f10b07fd89f0ae86452521e764736f6c63430008140033",
  "linkReferences": {},
  "deployedLinkReferences": {},
  "immutableReferences": {
    "1540": [
      {
        "length": 32,
        "start": 1224
      },
      {
        "length": 32,
        "start": 2311
      },
      {
        "length": 32,
        "start": 3877
      },
      {
        "length": 32,
        "start": 7575
      },
      {
        "length": 32,
        "start": 7828
      },
      {
        "length": 32,
        "start": 9155
      },
      {
        "length": 32,
        "start": 10519
      },
      {
        "length": 32,
        "start": 11051
      },
      {
        "length": 32,
        "start": 11580
      },
      {
        "length": 32,
        "start": 14418
      },
      {
        "length": 32,
        "start": 14646
      },
      {
        "length": 32,
        "start": 15747
      },
      {
        "length": 32,
        "start": 15925
      },
      {
        "length": 32,
        "start": 16422
      }
    ],
    "6426": [
      {
        "length": 32,
        "start": 2207
      },
      {
        "length": 32,
        "start": 10734
      },
      {
        "length": 32,
        "start": 10795
      },
      {
        "length": 32,
        "start": 14497
      },
      {
        "length": 32,
        "start": 14560
      },
      {
        "length": 32,
        "start": 14850
      },
      {
        "length": 32,
        "start": 14914
      },
      {
        "length": 32,
        "start": 15261
      },
      {
        "length": 32,
        "start": 15325
      }
    ]
  },
  "inputSourceName": "project/contracts/ShXRPVault.sol",
  "buildInfoId": "solc-0_8_20-2477238081b184613fd4dd106663b06c39256850"
}