{
  "_format": "hh3-artifact-1",
  "contractName": "ShXRPVault",
  "sourceName": "contracts/ShXRPVault.sol",
  "abi": [
    {
      "inputs": [
        {
          "internalType": "address",
          "name": "_fxrpToken",
          "type": "address"
        },
        {
          "internalType": "address",
          "name": "_sparkRouter",
          "type": "address"
        },
        {
          "internalType": "address",
          "name": "_wflrToken",
          "type": "address"
        }
      ],
      "stateMutability": "nonpayable",
      "type": "constructor"
    },
    {
      "inputs": [
        {
          "internalType": "address",
          "name": "spender",
          "type": "address"
        },
        {
          "internalType": "uint256",
          "name": "allowance",
          "type": "uint256"
        },
        {
          "internalType": "uint256",
          "name": "needed",
          "type": "uint256"
        }
      ],
      "name": "ERC20InsufficientAllowance",
      "type": "error"
    },
    {
      "inputs": [
        {
          "internalType": "address",
          "name": "sender",
          "type": "address"
        },
        {
          "internalType": "uint256",
          "name": "balance",
          "type": "uint256"
        },
        {
          "internalType": "uint256",
          "name": "needed",
          "type": "uint256"
        }
      ],
      "name": "ERC20InsufficientBalance",
      "type": "error"
    },
    {
      "inputs": [
        {
          "internalType": "address",
          "name": "approver",
          "type": "address"
        }
      ],
      "name": "ERC20InvalidApprover",
      "type": "error"
    },
    {
      "inputs": [
        {
          "internalType": "address",
          "name": "receiver",
          "type": "address"
        }
      ],
      "name": "ERC20InvalidReceiver",
      "type": "error"
    },
    {
      "inputs": [
        {
          "internalType": "address",
          "name": "sender",
          "type": "address"
        }
      ],
      "name": "ERC20InvalidSender",
      "type": "error"
    },
    {
      "inputs": [
        {
          "internalType": "address",
          "name": "spender",
          "type": "address"
        }
      ],
      "name": "ERC20InvalidSpender",
      "type": "error"
    },
    {
      "inputs": [
        {
          "internalType": "address",
          "name": "owner",
          "type": "address"
        }
      ],
      "name": "OwnableInvalidOwner",
      "type": "error"
    },
    {
      "inputs": [
        {
          "internalType": "address",
          "name": "account",
          "type": "address"
        }
      ],
      "name": "OwnableUnauthorizedAccount",
      "type": "error"
    },
    {
      "inputs": [],
      "name": "ReentrancyGuardReentrantCall",
      "type": "error"
    },
    {
      "anonymous": false,
      "inputs": [
        {
          "indexed": true,
          "internalType": "address",
          "name": "owner",
          "type": "address"
        },
        {
          "indexed": true,
          "internalType": "address",
          "name": "spender",
          "type": "address"
        },
        {
          "indexed": false,
          "internalType": "uint256",
          "name": "value",
          "type": "uint256"
        }
      ],
      "name": "Approval",
      "type": "event"
    },
    {
      "anonymous": false,
      "inputs": [
        {
          "indexed": false,
          "internalType": "uint256",
          "name": "newRate",
          "type": "uint256"
        }
      ],
      "name": "ExchangeRateUpdated",
      "type": "event"
    },
    {
      "anonymous": false,
      "inputs": [
        {
          "indexed": true,
          "internalType": "address",
          "name": "operator",
          "type": "address"
        },
        {
          "indexed": false,
          "internalType": "uint256",
          "name": "amount",
          "type": "uint256"
        }
      ],
      "name": "FXRPDeposited",
      "type": "event"
    },
    {
      "anonymous": false,
      "inputs": [
        {
          "indexed": false,
          "internalType": "uint256",
          "name": "fxrpAmount",
          "type": "uint256"
        },
        {
          "indexed": false,
          "internalType": "uint256",
          "name": "flrAmount",
          "type": "uint256"
        }
      ],
      "name": "FXRPStaked",
      "type": "event"
    },
    {
      "anonymous": false,
      "inputs": [
        {
          "indexed": false,
          "internalType": "uint256",
          "name": "newMinDeposit",
          "type": "uint256"
        }
      ],
      "name": "MinDepositUpdated",
      "type": "event"
    },
    {
      "anonymous": false,
      "inputs": [
        {
          "indexed": true,
          "internalType": "address",
          "name": "operator",
          "type": "address"
        }
      ],
      "name": "OperatorAdded",
      "type": "event"
    },
    {
      "anonymous": false,
      "inputs": [
        {
          "indexed": true,
          "internalType": "address",
          "name": "operator",
          "type": "address"
        }
      ],
      "name": "OperatorRemoved",
      "type": "event"
    },
    {
      "anonymous": false,
      "inputs": [
        {
          "indexed": true,
          "internalType": "address",
          "name": "previousOwner",
          "type": "address"
        },
        {
          "indexed": true,
          "internalType": "address",
          "name": "newOwner",
          "type": "address"
        }
      ],
      "name": "OwnershipTransferred",
      "type": "event"
    },
    {
      "anonymous": false,
      "inputs": [
        {
          "indexed": false,
          "internalType": "uint256",
          "name": "rewardAmount",
          "type": "uint256"
        },
        {
          "indexed": false,
          "internalType": "uint256",
          "name": "newExchangeRate",
          "type": "uint256"
        }
      ],
      "name": "RewardsCompounded",
      "type": "event"
    },
    {
      "anonymous": false,
      "inputs": [
        {
          "indexed": false,
          "internalType": "uint256",
          "name": "rewardAmount",
          "type": "uint256"
        },
        {
          "indexed": false,
          "internalType": "uint256",
          "name": "newExchangeRate",
          "type": "uint256"
        }
      ],
      "name": "RewardsDistributed",
      "type": "event"
    },
    {
      "anonymous": false,
      "inputs": [
        {
          "indexed": true,
          "internalType": "address",
          "name": "user",
          "type": "address"
        },
        {
          "indexed": false,
          "internalType": "uint256",
          "name": "shXRPAmount",
          "type": "uint256"
        },
        {
          "indexed": false,
          "internalType": "uint256",
          "name": "xrpAmount",
          "type": "uint256"
        }
      ],
      "name": "ShXRPBurned",
      "type": "event"
    },
    {
      "anonymous": false,
      "inputs": [
        {
          "indexed": true,
          "internalType": "address",
          "name": "user",
          "type": "address"
        },
        {
          "indexed": false,
          "internalType": "uint256",
          "name": "xrpAmount",
          "type": "uint256"
        },
        {
          "indexed": false,
          "internalType": "uint256",
          "name": "shXRPAmount",
          "type": "uint256"
        },
        {
          "indexed": false,
          "internalType": "string",
          "name": "xrplTxHash",
          "type": "string"
        }
      ],
      "name": "ShXRPMinted",
      "type": "event"
    },
    {
      "anonymous": false,
      "inputs": [
        {
          "indexed": true,
          "internalType": "address",
          "name": "from",
          "type": "address"
        },
        {
          "indexed": true,
          "internalType": "address",
          "name": "to",
          "type": "address"
        },
        {
          "indexed": false,
          "internalType": "uint256",
          "name": "value",
          "type": "uint256"
        }
      ],
      "name": "Transfer",
      "type": "event"
    },
    {
      "anonymous": false,
      "inputs": [
        {
          "indexed": false,
          "internalType": "bool",
          "name": "enabled",
          "type": "bool"
        }
      ],
      "name": "YieldEnabledUpdated",
      "type": "event"
    },
    {
      "inputs": [
        {
          "internalType": "address",
          "name": "operator",
          "type": "address"
        }
      ],
      "name": "addOperator",
      "outputs": [],
      "stateMutability": "nonpayable",
      "type": "function"
    },
    {
      "inputs": [
        {
          "internalType": "address",
          "name": "owner",
          "type": "address"
        },
        {
          "internalType": "address",
          "name": "spender",
          "type": "address"
        }
      ],
      "name": "allowance",
      "outputs": [
        {
          "internalType": "uint256",
          "name": "",
          "type": "uint256"
        }
      ],
      "stateMutability": "view",
      "type": "function"
    },
    {
      "inputs": [
        {
          "internalType": "address",
          "name": "spender",
          "type": "address"
        },
        {
          "internalType": "uint256",
          "name": "value",
          "type": "uint256"
        }
      ],
      "name": "approve",
      "outputs": [
        {
          "internalType": "bool",
          "name": "",
          "type": "bool"
        }
      ],
      "stateMutability": "nonpayable",
      "type": "function"
    },
    {
      "inputs": [
        {
          "internalType": "address",
          "name": "account",
          "type": "address"
        }
      ],
      "name": "balanceOf",
      "outputs": [
        {
          "internalType": "uint256",
          "name": "",
          "type": "uint256"
        }
      ],
      "stateMutability": "view",
      "type": "function"
    },
    {
      "inputs": [
        {
          "internalType": "uint256",
          "name": "value",
          "type": "uint256"
        }
      ],
      "name": "burn",
      "outputs": [],
      "stateMutability": "nonpayable",
      "type": "function"
    },
    {
      "inputs": [
        {
          "internalType": "address",
          "name": "account",
          "type": "address"
        },
        {
          "internalType": "uint256",
          "name": "value",
          "type": "uint256"
        }
      ],
      "name": "burnFrom",
      "outputs": [],
      "stateMutability": "nonpayable",
      "type": "function"
    },
    {
      "inputs": [
        {
          "internalType": "uint256",
          "name": "shXRPAmount",
          "type": "uint256"
        }
      ],
      "name": "burnShXRP",
      "outputs": [
        {
          "internalType": "uint256",
          "name": "xrpAmount",
          "type": "uint256"
        }
      ],
      "stateMutability": "nonpayable",
      "type": "function"
    },
    {
      "inputs": [
        {
          "internalType": "uint256",
          "name": "xrpAmount",
          "type": "uint256"
        }
      ],
      "name": "calculateShXRPAmount",
      "outputs": [
        {
          "internalType": "uint256",
          "name": "",
          "type": "uint256"
        }
      ],
      "stateMutability": "view",
      "type": "function"
    },
    {
      "inputs": [
        {
          "internalType": "uint256",
          "name": "shXRPAmount",
          "type": "uint256"
        }
      ],
      "name": "calculateXRPAmount",
      "outputs": [
        {
          "internalType": "uint256",
          "name": "",
          "type": "uint256"
        }
      ],
      "stateMutability": "view",
      "type": "function"
    },
    {
      "inputs": [],
      "name": "claimAndCompound",
      "outputs": [],
      "stateMutability": "nonpayable",
      "type": "function"
    },
    {
      "inputs": [],
      "name": "decimals",
      "outputs": [
        {
          "internalType": "uint8",
          "name": "",
          "type": "uint8"
        }
      ],
      "stateMutability": "pure",
      "type": "function"
    },
    {
      "inputs": [
        {
          "internalType": "uint256",
          "name": "amount",
          "type": "uint256"
        }
      ],
      "name": "depositFXRP",
      "outputs": [],
      "stateMutability": "nonpayable",
      "type": "function"
    },
    {
      "inputs": [
        {
          "internalType": "uint256",
          "name": "rewardAmount",
          "type": "uint256"
        }
      ],
      "name": "distributeRewards",
      "outputs": [],
      "stateMutability": "nonpayable",
      "type": "function"
    },
    {
      "inputs": [],
      "name": "exchangeRate",
      "outputs": [
        {
          "internalType": "uint256",
          "name": "",
          "type": "uint256"
        }
      ],
      "stateMutability": "view",
      "type": "function"
    },
    {
      "inputs": [],
      "name": "fxrpToken",
      "outputs": [
        {
          "internalType": "contract IERC20",
          "name": "",
          "type": "address"
        }
      ],
      "stateMutability": "view",
      "type": "function"
    },
    {
      "inputs": [],
      "name": "getExchangeRate",
      "outputs": [
        {
          "internalType": "uint256",
          "name": "",
          "type": "uint256"
        }
      ],
      "stateMutability": "view",
      "type": "function"
    },
    {
      "inputs": [],
      "name": "minDeposit",
      "outputs": [
        {
          "internalType": "uint256",
          "name": "",
          "type": "uint256"
        }
      ],
      "stateMutability": "view",
      "type": "function"
    },
    {
      "inputs": [
        {
          "internalType": "address",
          "name": "user",
          "type": "address"
        },
        {
          "internalType": "uint256",
          "name": "xrpAmount",
          "type": "uint256"
        },
        {
          "internalType": "string",
          "name": "xrplTxHash",
          "type": "string"
        }
      ],
      "name": "mintShXRP",
      "outputs": [],
      "stateMutability": "nonpayable",
      "type": "function"
    },
    {
      "inputs": [],
      "name": "name",
      "outputs": [
        {
          "internalType": "string",
          "name": "",
          "type": "string"
        }
      ],
      "stateMutability": "view",
      "type": "function"
    },
    {
      "inputs": [
        {
          "internalType": "address",
          "name": "",
          "type": "address"
        }
      ],
      "name": "operators",
      "outputs": [
        {
          "internalType": "bool",
          "name": "",
          "type": "bool"
        }
      ],
      "stateMutability": "view",
      "type": "function"
    },
    {
      "inputs": [],
      "name": "owner",
      "outputs": [
        {
          "internalType": "address",
          "name": "",
          "type": "address"
        }
      ],
      "stateMutability": "view",
      "type": "function"
    },
    {
      "inputs": [
        {
          "internalType": "address",
          "name": "operator",
          "type": "address"
        }
      ],
      "name": "removeOperator",
      "outputs": [],
      "stateMutability": "nonpayable",
      "type": "function"
    },
    {
      "inputs": [],
      "name": "renounceOwnership",
      "outputs": [],
      "stateMutability": "nonpayable",
      "type": "function"
    },
    {
      "inputs": [
        {
          "internalType": "uint256",
          "name": "newMinDeposit",
          "type": "uint256"
        }
      ],
      "name": "setMinDeposit",
      "outputs": [],
      "stateMutability": "nonpayable",
      "type": "function"
    },
    {
      "inputs": [
        {
          "internalType": "bool",
          "name": "enabled",
          "type": "bool"
        }
      ],
      "name": "setYieldEnabled",
      "outputs": [],
      "stateMutability": "nonpayable",
      "type": "function"
    },
    {
      "inputs": [],
      "name": "sparkRouter",
      "outputs": [
        {
          "internalType": "address",
          "name": "",
          "type": "address"
        }
      ],
      "stateMutability": "view",
      "type": "function"
    },
    {
      "inputs": [
        {
          "internalType": "uint256",
          "name": "fxrpAmount",
          "type": "uint256"
        },
        {
          "internalType": "uint256",
          "name": "flrAmount",
          "type": "uint256"
        }
      ],
      "name": "stakeInDeFi",
      "outputs": [],
      "stateMutability": "nonpayable",
      "type": "function"
    },
    {
      "inputs": [],
      "name": "symbol",
      "outputs": [
        {
          "internalType": "string",
          "name": "",
          "type": "string"
        }
      ],
      "stateMutability": "view",
      "type": "function"
    },
    {
      "inputs": [],
      "name": "totalFXRPDeposited",
      "outputs": [
        {
          "internalType": "uint256",
          "name": "",
          "type": "uint256"
        }
      ],
      "stateMutability": "view",
      "type": "function"
    },
    {
      "inputs": [],
      "name": "totalSupply",
      "outputs": [
        {
          "internalType": "uint256",
          "name": "",
          "type": "uint256"
        }
      ],
      "stateMutability": "view",
      "type": "function"
    },
    {
      "inputs": [],
      "name": "totalXRPLocked",
      "outputs": [
        {
          "internalType": "uint256",
          "name": "",
          "type": "uint256"
        }
      ],
      "stateMutability": "view",
      "type": "function"
    },
    {
      "inputs": [
        {
          "internalType": "address",
          "name": "to",
          "type": "address"
        },
        {
          "internalType": "uint256",
          "name": "value",
          "type": "uint256"
        }
      ],
      "name": "transfer",
      "outputs": [
        {
          "internalType": "bool",
          "name": "",
          "type": "bool"
        }
      ],
      "stateMutability": "nonpayable",
      "type": "function"
    },
    {
      "inputs": [
        {
          "internalType": "address",
          "name": "from",
          "type": "address"
        },
        {
          "internalType": "address",
          "name": "to",
          "type": "address"
        },
        {
          "internalType": "uint256",
          "name": "value",
          "type": "uint256"
        }
      ],
      "name": "transferFrom",
      "outputs": [
        {
          "internalType": "bool",
          "name": "",
          "type": "bool"
        }
      ],
      "stateMutability": "nonpayable",
      "type": "function"
    },
    {
      "inputs": [
        {
          "internalType": "address",
          "name": "newOwner",
          "type": "address"
        }
      ],
      "name": "transferOwnership",
      "outputs": [],
      "stateMutability": "nonpayable",
      "type": "function"
    },
    {
      "inputs": [],
      "name": "wflrToken",
      "outputs": [
        {
          "internalType": "address",
          "name": "",
          "type": "address"
        }
      ],
      "stateMutability": "view",
      "type": "function"
    },
    {
      "inputs": [],
      "name": "yieldEnabled",
      "outputs": [
        {
          "internalType": "bool",
          "name": "",
          "type": "bool"
        }
      ],
      "stateMutability": "view",
      "type": "function"
    }
  ],
  "bytecode": "0x6080604052662386f26fc10000600855670de0b6b3a7640000600a5534801562000027575f80fd5b5060405162001f3738038062001f378339810160408190526200004a91620002f8565b336040518060400160405280600a8152602001690536869656c64205852560b41b81525060405180604001604052806005815260200164073685852560dc1b81525081600390816200009d9190620003df565b506004620000ac8282620003df565b5050506001600160a01b038116620000de57604051631e4fbdf760e01b81525f60048201526024015b60405180910390fd5b620000e9816200028b565b5060016006556001600160a01b038316620001475760405162461bcd60e51b815260206004820152601a60248201527f496e76616c6964204658525020746f6b656e20616464726573730000000000006044820152606401620000d5565b6001600160a01b0382166200019f5760405162461bcd60e51b815260206004820152601b60248201527f496e76616c696420537061726b526f75746572206164647265737300000000006044820152606401620000d5565b6001600160a01b038116620001f75760405162461bcd60e51b815260206004820152601a60248201527f496e76616c69642057464c5220746f6b656e20616464726573730000000000006044820152606401620000d5565b600b80546001600160a01b038086166001600160a01b031992831617909255600c8054858416908316179055600d805492841692909116919091179055600f805460ff19908116909155335f818152600760205260408082208054909416600117909355915190917fac6fa858e9350a46cec16539926e0fde25b7629f84b5a72bffaae4df888ae86d91a2505050620004a7565b600580546001600160a01b038381166001600160a01b0319831681179093556040519116919082907f8be0079c531659141344cd1fd0a4f28419497f9722a3daafe3b4186f6b6457e0905f90a35050565b80516001600160a01b0381168114620002f3575f80fd5b919050565b5f805f606084860312156200030b575f80fd5b6200031684620002dc565b92506200032660208501620002dc565b91506200033660408501620002dc565b90509250925092565b634e487b7160e01b5f52604160045260245ffd5b600181811c908216806200036857607f821691505b6020821081036200038757634e487b7160e01b5f52602260045260245ffd5b50919050565b601f821115620003da575f81815260208120601f850160051c81016020861015620003b55750805b601f850160051c820191505b81811015620003d657828155600101620003c1565b5050505b505050565b81516001600160401b03811115620003fb57620003fb6200033f565b62000413816200040c845462000353565b846200038d565b602080601f83116001811462000449575f8415620004315750858301515b5f19600386901b1c1916600185901b178555620003d6565b5f85815260208120601f198616915b82811015620004795788860151825594840194600190910190840162000458565b50858210156200049757878501515f19600388901b60f8161c191681555b5050505050600190811b01905550565b611a8280620004b55f395ff3fe608060405234801561000f575f80fd5b5060043610610213575f3560e01c8063715018a61161011f578063a9059cbb116100a9578063dd62ed3e11610079578063dd62ed3e1461046b578063e6aa216c146104a3578063f2fde38b146104ab578063f734bd6e146104be578063fd0a4875146104d1575f80fd5b8063a9059cbb1461042f578063ac8a584a14610442578063c2752e4314610455578063d5fc617e14610462575f80fd5b80638fcc9cfb116100ef5780638fcc9cfb146103e657806395d89b41146103f95780639870d7fe146104015780639b1650e314610414578063a5854a3e1461041c575f80fd5b8063715018a6146103a757806379cc6790146103af57806388342673146103c25780638da5cb5b146103d5575f80fd5b8063326bf23f116101a057806341b3d1851161017057806341b3d1851461033d57806342966c681461034657806359974e38146103595780636e131a7c1461036c57806370a082311461037f575f80fd5b8063326bf23f14610305578063346fe52c1461031857806339129162146103215780633ba0b9a914610334575f80fd5b806313e7c9d8116101e657806313e7c9d81461028e57806318160ddd146102b057806323b872dd146102b8578063313ce567146102cb57806332609af5146102da575f80fd5b806306fdde0314610217578063095ea7b3146102355780631358bc8214610258578063135986b414610279575b5f80fd5b61021f6104e4565b60405161022c91906116f0565b60405180910390f35b610248610243366004611751565b610574565b604051901515815260200161022c565b61026b610266366004611779565b61058d565b60405190815260200161022c565b61028c61028736600461179d565b6105ae565b005b61024861029c3660046117bf565b60076020525f908152604090205460ff1681565b60025461026b565b6102486102c63660046117d8565b6105fe565b6040516012815260200161022c565b600c546102ed906001600160a01b031681565b6040516001600160a01b03909116815260200161022c565b61028c610313366004611779565b610621565b61026b600e5481565b61026b61032f366004611779565b6107c0565b61026b600a5481565b61026b60085481565b61028c610354366004611779565b610956565b61028c610367366004611779565b610963565b600b546102ed906001600160a01b031681565b61026b61038d3660046117bf565b6001600160a01b03165f9081526020819052604090205490565b61028c610ab6565b61028c6103bd366004611751565b610ac9565b61028c6103d0366004611811565b610ae2565b6005546001600160a01b03166102ed565b61028c6103f4366004611779565b610ded565b61021f610e79565b61028c61040f3660046117bf565b610e88565b61028c610f31565b61028c61042a366004611831565b61108a565b61024861043d366004611751565b611254565b61028c6104503660046117bf565b611261565b600f546102489060ff1681565b61026b60095481565b61026b6104793660046118b1565b6001600160a01b039182165f90815260016020908152604080832093909416825291909152205490565b600a5461026b565b61028c6104b93660046117bf565b6112b1565b61026b6104cc366004611779565b6112eb565b600d546102ed906001600160a01b031681565b6060600380546104f3906118e2565b80601f016020809104026020016040519081016040528092919081815260200182805461051f906118e2565b801561056a5780601f106105415761010080835404028352916020019161056a565b820191905f5260205f20905b81548152906001019060200180831161054d57829003601f168201915b5050505050905090565b5f33610581818585611303565b60019150505b92915050565b600a545f906105a483670de0b6b3a764000061192e565b6105879190611945565b6105b6611315565b600f805460ff19168215159081179091556040519081527f8c4947dd3dc73344e27124f38de946c5fe5a4b59b8c9259241bc11376140267b906020015b60405180910390a150565b5f3361060b858285611342565b6106168585856113b8565b506001949350505050565b335f9081526007602052604090205460ff168061064857506005546001600160a01b031633145b61066d5760405162461bcd60e51b815260040161066490611964565b60405180910390fd5b5f81116106bc5760405162461bcd60e51b815260206004820152601760248201527f416d6f756e74206d75737420626520706f7369746976650000000000000000006044820152606401610664565b600b546040516323b872dd60e01b8152336004820152306024820152604481018390526001600160a01b03909116906323b872dd906064016020604051808303815f875af1158015610710573d5f803e3d5ffd5b505050506040513d601f19601f82011682018060405250810190610734919061198d565b6107725760405162461bcd60e51b815260206004820152600f60248201526e151c985b9cd9995c8819985a5b1959608a1b6044820152606401610664565b80600e5f82825461078391906119a8565b909155505060405181815233907f9face92c6813909d4c19d9f5ec41f2a1e6a7020bc7f39fcd129da46dd63d53d39060200160405180910390a250565b5f6107c9611415565b5f82116108185760405162461bcd60e51b815260206004820152601760248201527f43616e6e6f74206275726e207a65726f20616d6f756e740000000000000000006044820152606401610664565b335f908152602081905260409020548211156108765760405162461bcd60e51b815260206004820152601a60248201527f496e73756666696369656e742073685852502062616c616e63650000000000006044820152606401610664565b670de0b6b3a7640000600a548361088d919061192e565b6108979190611945565b90508060095410156108eb5760405162461bcd60e51b815260206004820152601760248201527f496e73756666696369656e7420585250206c6f636b65640000000000000000006044820152606401610664565b8060095f8282546108fc91906119bb565b9091555061090c9050338361143f565b604080518381526020810183905233917f3687d72e72fd694708710d576afa7f8afe38a09a6812c73c5f94c97b605507ff910160405180910390a26109516001600655565b919050565b610960338261143f565b50565b335f9081526007602052604090205460ff168061098a57506005546001600160a01b031633145b6109a65760405162461bcd60e51b815260040161066490611964565b5f81116109f55760405162461bcd60e51b815260206004820152601e60248201527f52657761726420616d6f756e74206d75737420626520706f73697469766500006044820152606401610664565b5f6109ff60025490565b11610a425760405162461bcd60e51b8152602060048201526013602482015272139bc81cda161494081b5a5b9d1959081e595d606a1b6044820152606401610664565b8060095f828254610a5391906119a8565b9091555050600254600954610a7090670de0b6b3a764000061192e565b610a7a9190611945565b600a8190556040805183815260208101929092527f29e98ba00d07f171959c4ddcd2f3020debc7c52cf537a034d7e664340d098c6c91016105f3565b610abe611315565b610ac75f611473565b565b610ad4823383611342565b610ade828261143f565b5050565b335f9081526007602052604090205460ff1680610b0957506005546001600160a01b031633145b610b255760405162461bcd60e51b815260040161066490611964565b600f5460ff16610b6b5760405162461bcd60e51b8152602060048201526011602482015270165a595b19081b9bdd08195b98589b1959607a1b6044820152606401610664565b5f82118015610b7957505f81115b610bc55760405162461bcd60e51b815260206004820152601860248201527f416d6f756e7473206d75737420626520706f73697469766500000000000000006044820152606401610664565b600b54600c5460405163095ea7b360e01b81526001600160a01b0391821660048201526024810185905291169063095ea7b3906044016020604051808303815f875af1158015610c17573d5f803e3d5ffd5b505050506040513d601f19601f82011682018060405250810190610c3b919061198d565b50600d54600c5460405163095ea7b360e01b81526001600160a01b0391821660048201526024810184905291169063095ea7b3906044016020604051808303815f875af1158015610c8e573d5f803e3d5ffd5b505050506040513d601f19601f82011682018060405250810190610cb2919061198d565b50600c54600b54600d546001600160a01b039283169263e8e33700928116911685856064610ce183605f61192e565b610ceb9190611945565b6064610cf889605f61192e565b610d029190611945565b30610d0f4261012c6119a8565b60405160e08a901b6001600160e01b03191681526001600160a01b039889166004820152968816602488015260448701959095526064860193909352608485019190915260a484015290921660c482015260e4810191909152610104016060604051808303815f875af1158015610d88573d5f803e3d5ffd5b505050506040513d601f19601f82011682018060405250810190610dac91906119ce565b505060408051848152602081018490527f019ff3cea6eed4d938e6c1c8be4a0758dd399aeb7fc8ee638784e1d4c224bfe69250015b60405180910390a15050565b610df5611315565b5f8111610e445760405162461bcd60e51b815260206004820152601c60248201527f4d696e206465706f736974206d75737420626520706f736974697665000000006044820152606401610664565b60088190556040518181527f96a008f96f1c0ab9fa3d9ddd43cdfc614848c4d054d51f43662ed900e9d094c8906020016105f3565b6060600480546104f3906118e2565b610e90611315565b6001600160a01b038116610ee65760405162461bcd60e51b815260206004820152601860248201527f496e76616c6964206f70657261746f72206164647265737300000000000000006044820152606401610664565b6001600160a01b0381165f81815260076020526040808220805460ff19166001179055517fac6fa858e9350a46cec16539926e0fde25b7629f84b5a72bffaae4df888ae86d9190a250565b335f9081526007602052604090205460ff1680610f5857506005546001600160a01b031633145b610f745760405162461bcd60e51b815260040161066490611964565b600b546040516370a0823160e01b81523060048201525f916001600160a01b0316906370a0823190602401602060405180830381865afa158015610fba573d5f803e3d5ffd5b505050506040513d601f19601f82011682018060405250810190610fde91906119f9565b9050600e54811115610960575f600e5482610ff991906119bb565b90505f8111801561101157505f61100f60025490565b115b15610ade578060095f82825461102791906119a8565b909155505060025460095461104490670de0b6b3a764000061192e565b61104e9190611945565b600a8190556040805183815260208101929092527faffc64dd767dc9d20ee587a46cfdd6a221c4fef6b51ae557b3ad7dfe82dc503a9101610de1565b335f9081526007602052604090205460ff16806110b157506005546001600160a01b031633145b6110cd5760405162461bcd60e51b815260040161066490611964565b6110d5611415565b6001600160a01b0384166111225760405162461bcd60e51b8152602060048201526014602482015273496e76616c69642075736572206164647265737360601b6044820152606401610664565b6008548310156111745760405162461bcd60e51b815260206004820152601c60248201527f416d6f756e742062656c6f77206d696e696d756d206465706f736974000000006044820152606401610664565b806111b85760405162461bcd60e51b8152602060048201526014602482015273092dcecc2d8d2c840b0a4a09840e8f040d0c2e6d60631b6044820152606401610664565b600a545f906111cf85670de0b6b3a764000061192e565b6111d99190611945565b90508360095f8282546111ec91906119a8565b909155506111fc905085826114c4565b846001600160a01b03167f5dc23eace1418c630429a4639fadf2bd4b20187833ad6968b869e9e9be652e338583868660405161123b9493929190611a10565b60405180910390a25061124e6001600655565b50505050565b5f336105818185856113b8565b611269611315565b6001600160a01b0381165f81815260076020526040808220805460ff19169055517f80c0b871b97b595b16a7741c1b06fed0c6f6f558639f18ccbce50724325dc40d9190a250565b6112b9611315565b6001600160a01b0381166112e257604051631e4fbdf760e01b81525f6004820152602401610664565b61096081611473565b5f670de0b6b3a7640000600a54836105a4919061192e565b61131083838360016114f8565b505050565b6005546001600160a01b03163314610ac75760405163118cdaa760e01b8152336004820152602401610664565b6001600160a01b038381165f908152600160209081526040808320938616835292905220545f1981101561124e57818110156113aa57604051637dc7a0d960e11b81526001600160a01b03841660048201526024810182905260448101839052606401610664565b61124e84848484035f6114f8565b6001600160a01b0383166113e157604051634b637e8f60e11b81525f6004820152602401610664565b6001600160a01b03821661140a5760405163ec442f0560e01b81525f6004820152602401610664565b6113108383836115ca565b60026006540361143857604051633ee5aeb560e01b815260040160405180910390fd5b6002600655565b6001600160a01b03821661146857604051634b637e8f60e11b81525f6004820152602401610664565b610ade825f836115ca565b600580546001600160a01b038381166001600160a01b0319831681179093556040519116919082907f8be0079c531659141344cd1fd0a4f28419497f9722a3daafe3b4186f6b6457e0905f90a35050565b6001600160a01b0382166114ed5760405163ec442f0560e01b81525f6004820152602401610664565b610ade5f83836115ca565b6001600160a01b0384166115215760405163e602df0560e01b81525f6004820152602401610664565b6001600160a01b03831661154a57604051634a1406b160e11b81525f6004820152602401610664565b6001600160a01b038085165f908152600160209081526040808320938716835292905220829055801561124e57826001600160a01b0316846001600160a01b03167f8c5be1e5ebec7d5bd14f71427d1e84f3dd0314c0f7b2291e5b200ac8c7c3b925846040516115bc91815260200190565b60405180910390a350505050565b6001600160a01b0383166115f4578060025f8282546115e991906119a8565b909155506116649050565b6001600160a01b0383165f90815260208190526040902054818110156116465760405163391434e360e21b81526001600160a01b03851660048201526024810182905260448101839052606401610664565b6001600160a01b0384165f9081526020819052604090209082900390555b6001600160a01b0382166116805760028054829003905561169e565b6001600160a01b0382165f9081526020819052604090208054820190555b816001600160a01b0316836001600160a01b03167fddf252ad1be2c89b69c2b068fc378daa952ba7f163c4a11628f55a4df523b3ef836040516116e391815260200190565b60405180910390a3505050565b5f6020808352835180828501525f5b8181101561171b578581018301518582016040015282016116ff565b505f604082860101526040601f19601f8301168501019250505092915050565b80356001600160a01b0381168114610951575f80fd5b5f8060408385031215611762575f80fd5b61176b8361173b565b946020939093013593505050565b5f60208284031215611789575f80fd5b5035919050565b8015158114610960575f80fd5b5f602082840312156117ad575f80fd5b81356117b881611790565b9392505050565b5f602082840312156117cf575f80fd5b6117b88261173b565b5f805f606084860312156117ea575f80fd5b6117f38461173b565b92506118016020850161173b565b9150604084013590509250925092565b5f8060408385031215611822575f80fd5b50508035926020909101359150565b5f805f8060608587031215611844575f80fd5b61184d8561173b565b935060208501359250604085013567ffffffffffffffff80821115611870575f80fd5b818701915087601f830112611883575f80fd5b813581811115611891575f80fd5b8860208285010111156118a2575f80fd5b95989497505060200194505050565b5f80604083850312156118c2575f80fd5b6118cb8361173b565b91506118d96020840161173b565b90509250929050565b600181811c908216806118f657607f821691505b60208210810361191457634e487b7160e01b5f52602260045260245ffd5b50919050565b634e487b7160e01b5f52601160045260245ffd5b80820281158282048414176105875761058761191a565b5f8261195f57634e487b7160e01b5f52601260045260245ffd5b500490565b6020808252600f908201526e2737ba1030b71037b832b930ba37b960891b604082015260600190565b5f6020828403121561199d575f80fd5b81516117b881611790565b808201808211156105875761058761191a565b818103818111156105875761058761191a565b5f805f606084860312156119e0575f80fd5b8351925060208401519150604084015190509250925092565b5f60208284031215611a09575f80fd5b5051919050565b84815283602082015260606040820152816060820152818360808301375f818301608090810191909152601f909201601f19160101939250505056fea2646970667358221220760471948b005897f93e55c24122a4c49b273fbc3756b102e70b229f1f5b0f4264736f6c63430008140033",
  "linkReferences": {},
  "deployedLinkReferences": {},
  "immutableReferences": {},
  "inputSourceName": "project/contracts/ShXRPVault.sol",
  "buildInfoId": "solc-0_8_20-70490222e026d6881cc6039d89cf8422b72412d6"
}