{
  "_format": "hh3-artifact-1",
  "contractName": "ShXRPVault",
  "sourceName": "contracts/ShXRPVault.sol",
  "abi": [
    {
      "inputs": [
        {
          "internalType": "address",
          "name": "_fxrpToken",
          "type": "address"
        },
        {
          "internalType": "address",
          "name": "_sparkRouter",
          "type": "address"
        },
        {
          "internalType": "address",
          "name": "_wflrToken",
          "type": "address"
        }
      ],
      "stateMutability": "nonpayable",
      "type": "constructor"
    },
    {
      "inputs": [
        {
          "internalType": "address",
          "name": "spender",
          "type": "address"
        },
        {
          "internalType": "uint256",
          "name": "allowance",
          "type": "uint256"
        },
        {
          "internalType": "uint256",
          "name": "needed",
          "type": "uint256"
        }
      ],
      "name": "ERC20InsufficientAllowance",
      "type": "error"
    },
    {
      "inputs": [
        {
          "internalType": "address",
          "name": "sender",
          "type": "address"
        },
        {
          "internalType": "uint256",
          "name": "balance",
          "type": "uint256"
        },
        {
          "internalType": "uint256",
          "name": "needed",
          "type": "uint256"
        }
      ],
      "name": "ERC20InsufficientBalance",
      "type": "error"
    },
    {
      "inputs": [
        {
          "internalType": "address",
          "name": "approver",
          "type": "address"
        }
      ],
      "name": "ERC20InvalidApprover",
      "type": "error"
    },
    {
      "inputs": [
        {
          "internalType": "address",
          "name": "receiver",
          "type": "address"
        }
      ],
      "name": "ERC20InvalidReceiver",
      "type": "error"
    },
    {
      "inputs": [
        {
          "internalType": "address",
          "name": "sender",
          "type": "address"
        }
      ],
      "name": "ERC20InvalidSender",
      "type": "error"
    },
    {
      "inputs": [
        {
          "internalType": "address",
          "name": "spender",
          "type": "address"
        }
      ],
      "name": "ERC20InvalidSpender",
      "type": "error"
    },
    {
      "inputs": [
        {
          "internalType": "address",
          "name": "owner",
          "type": "address"
        }
      ],
      "name": "OwnableInvalidOwner",
      "type": "error"
    },
    {
      "inputs": [
        {
          "internalType": "address",
          "name": "account",
          "type": "address"
        }
      ],
      "name": "OwnableUnauthorizedAccount",
      "type": "error"
    },
    {
      "inputs": [],
      "name": "ReentrancyGuardReentrantCall",
      "type": "error"
    },
    {
      "inputs": [
        {
          "internalType": "address",
          "name": "token",
          "type": "address"
        }
      ],
      "name": "SafeERC20FailedOperation",
      "type": "error"
    },
    {
      "anonymous": false,
      "inputs": [
        {
          "indexed": true,
          "internalType": "address",
          "name": "owner",
          "type": "address"
        },
        {
          "indexed": true,
          "internalType": "address",
          "name": "spender",
          "type": "address"
        },
        {
          "indexed": false,
          "internalType": "uint256",
          "name": "value",
          "type": "uint256"
        }
      ],
      "name": "Approval",
      "type": "event"
    },
    {
      "anonymous": false,
      "inputs": [
        {
          "indexed": false,
          "internalType": "uint256",
          "name": "newRate",
          "type": "uint256"
        }
      ],
      "name": "ExchangeRateUpdated",
      "type": "event"
    },
    {
      "anonymous": false,
      "inputs": [
        {
          "indexed": true,
          "internalType": "address",
          "name": "operator",
          "type": "address"
        },
        {
          "indexed": false,
          "internalType": "uint256",
          "name": "amount",
          "type": "uint256"
        }
      ],
      "name": "FXRPDeposited",
      "type": "event"
    },
    {
      "anonymous": false,
      "inputs": [
        {
          "indexed": false,
          "internalType": "uint256",
          "name": "fxrpAmount",
          "type": "uint256"
        },
        {
          "indexed": false,
          "internalType": "uint256",
          "name": "flrAmount",
          "type": "uint256"
        },
        {
          "indexed": false,
          "internalType": "uint256",
          "name": "lpTokens",
          "type": "uint256"
        }
      ],
      "name": "FXRPStaked",
      "type": "event"
    },
    {
      "anonymous": false,
      "inputs": [
        {
          "indexed": true,
          "internalType": "address",
          "name": "lpToken",
          "type": "address"
        }
      ],
      "name": "LPTokenSet",
      "type": "event"
    },
    {
      "anonymous": false,
      "inputs": [
        {
          "indexed": false,
          "internalType": "uint256",
          "name": "newMinDeposit",
          "type": "uint256"
        }
      ],
      "name": "MinDepositUpdated",
      "type": "event"
    },
    {
      "anonymous": false,
      "inputs": [
        {
          "indexed": true,
          "internalType": "address",
          "name": "operator",
          "type": "address"
        }
      ],
      "name": "OperatorAdded",
      "type": "event"
    },
    {
      "anonymous": false,
      "inputs": [
        {
          "indexed": true,
          "internalType": "address",
          "name": "operator",
          "type": "address"
        }
      ],
      "name": "OperatorRemoved",
      "type": "event"
    },
    {
      "anonymous": false,
      "inputs": [
        {
          "indexed": true,
          "internalType": "address",
          "name": "previousOwner",
          "type": "address"
        },
        {
          "indexed": true,
          "internalType": "address",
          "name": "newOwner",
          "type": "address"
        }
      ],
      "name": "OwnershipTransferred",
      "type": "event"
    },
    {
      "anonymous": false,
      "inputs": [
        {
          "indexed": false,
          "internalType": "uint256",
          "name": "rewardAmount",
          "type": "uint256"
        },
        {
          "indexed": false,
          "internalType": "uint256",
          "name": "newExchangeRate",
          "type": "uint256"
        }
      ],
      "name": "RewardsCompounded",
      "type": "event"
    },
    {
      "anonymous": false,
      "inputs": [
        {
          "indexed": false,
          "internalType": "uint256",
          "name": "rewardAmount",
          "type": "uint256"
        },
        {
          "indexed": false,
          "internalType": "uint256",
          "name": "newExchangeRate",
          "type": "uint256"
        }
      ],
      "name": "RewardsDistributed",
      "type": "event"
    },
    {
      "anonymous": false,
      "inputs": [
        {
          "indexed": true,
          "internalType": "address",
          "name": "user",
          "type": "address"
        },
        {
          "indexed": false,
          "internalType": "uint256",
          "name": "shXRPAmount",
          "type": "uint256"
        },
        {
          "indexed": false,
          "internalType": "uint256",
          "name": "xrpAmount",
          "type": "uint256"
        }
      ],
      "name": "ShXRPBurned",
      "type": "event"
    },
    {
      "anonymous": false,
      "inputs": [
        {
          "indexed": true,
          "internalType": "address",
          "name": "user",
          "type": "address"
        },
        {
          "indexed": false,
          "internalType": "uint256",
          "name": "xrpAmount",
          "type": "uint256"
        },
        {
          "indexed": false,
          "internalType": "uint256",
          "name": "shXRPAmount",
          "type": "uint256"
        },
        {
          "indexed": false,
          "internalType": "string",
          "name": "xrplTxHash",
          "type": "string"
        }
      ],
      "name": "ShXRPMinted",
      "type": "event"
    },
    {
      "anonymous": false,
      "inputs": [
        {
          "indexed": true,
          "internalType": "address",
          "name": "from",
          "type": "address"
        },
        {
          "indexed": true,
          "internalType": "address",
          "name": "to",
          "type": "address"
        },
        {
          "indexed": false,
          "internalType": "uint256",
          "name": "value",
          "type": "uint256"
        }
      ],
      "name": "Transfer",
      "type": "event"
    },
    {
      "anonymous": false,
      "inputs": [
        {
          "indexed": false,
          "internalType": "bool",
          "name": "enabled",
          "type": "bool"
        }
      ],
      "name": "YieldEnabledUpdated",
      "type": "event"
    },
    {
      "inputs": [
        {
          "internalType": "address",
          "name": "operator",
          "type": "address"
        }
      ],
      "name": "addOperator",
      "outputs": [],
      "stateMutability": "nonpayable",
      "type": "function"
    },
    {
      "inputs": [
        {
          "internalType": "address",
          "name": "owner",
          "type": "address"
        },
        {
          "internalType": "address",
          "name": "spender",
          "type": "address"
        }
      ],
      "name": "allowance",
      "outputs": [
        {
          "internalType": "uint256",
          "name": "",
          "type": "uint256"
        }
      ],
      "stateMutability": "view",
      "type": "function"
    },
    {
      "inputs": [
        {
          "internalType": "address",
          "name": "spender",
          "type": "address"
        },
        {
          "internalType": "uint256",
          "name": "value",
          "type": "uint256"
        }
      ],
      "name": "approve",
      "outputs": [
        {
          "internalType": "bool",
          "name": "",
          "type": "bool"
        }
      ],
      "stateMutability": "nonpayable",
      "type": "function"
    },
    {
      "inputs": [
        {
          "internalType": "address",
          "name": "account",
          "type": "address"
        }
      ],
      "name": "balanceOf",
      "outputs": [
        {
          "internalType": "uint256",
          "name": "",
          "type": "uint256"
        }
      ],
      "stateMutability": "view",
      "type": "function"
    },
    {
      "inputs": [
        {
          "internalType": "uint256",
          "name": "value",
          "type": "uint256"
        }
      ],
      "name": "burn",
      "outputs": [],
      "stateMutability": "nonpayable",
      "type": "function"
    },
    {
      "inputs": [
        {
          "internalType": "address",
          "name": "account",
          "type": "address"
        },
        {
          "internalType": "uint256",
          "name": "value",
          "type": "uint256"
        }
      ],
      "name": "burnFrom",
      "outputs": [],
      "stateMutability": "nonpayable",
      "type": "function"
    },
    {
      "inputs": [
        {
          "internalType": "uint256",
          "name": "shXRPAmount",
          "type": "uint256"
        }
      ],
      "name": "burnShXRP",
      "outputs": [
        {
          "internalType": "uint256",
          "name": "xrpAmount",
          "type": "uint256"
        }
      ],
      "stateMutability": "nonpayable",
      "type": "function"
    },
    {
      "inputs": [
        {
          "internalType": "uint256",
          "name": "xrpAmount",
          "type": "uint256"
        }
      ],
      "name": "calculateShXRPAmount",
      "outputs": [
        {
          "internalType": "uint256",
          "name": "",
          "type": "uint256"
        }
      ],
      "stateMutability": "view",
      "type": "function"
    },
    {
      "inputs": [
        {
          "internalType": "uint256",
          "name": "shXRPAmount",
          "type": "uint256"
        }
      ],
      "name": "calculateXRPAmount",
      "outputs": [
        {
          "internalType": "uint256",
          "name": "",
          "type": "uint256"
        }
      ],
      "stateMutability": "view",
      "type": "function"
    },
    {
      "inputs": [],
      "name": "claimAndCompound",
      "outputs": [],
      "stateMutability": "nonpayable",
      "type": "function"
    },
    {
      "inputs": [],
      "name": "decimals",
      "outputs": [
        {
          "internalType": "uint8",
          "name": "",
          "type": "uint8"
        }
      ],
      "stateMutability": "pure",
      "type": "function"
    },
    {
      "inputs": [
        {
          "internalType": "uint256",
          "name": "amount",
          "type": "uint256"
        }
      ],
      "name": "depositFXRP",
      "outputs": [],
      "stateMutability": "nonpayable",
      "type": "function"
    },
    {
      "inputs": [
        {
          "internalType": "uint256",
          "name": "rewardAmount",
          "type": "uint256"
        }
      ],
      "name": "distributeRewards",
      "outputs": [],
      "stateMutability": "nonpayable",
      "type": "function"
    },
    {
      "inputs": [],
      "name": "exchangeRate",
      "outputs": [
        {
          "internalType": "uint256",
          "name": "",
          "type": "uint256"
        }
      ],
      "stateMutability": "view",
      "type": "function"
    },
    {
      "inputs": [],
      "name": "fxrpToken",
      "outputs": [
        {
          "internalType": "contract IERC20",
          "name": "",
          "type": "address"
        }
      ],
      "stateMutability": "view",
      "type": "function"
    },
    {
      "inputs": [],
      "name": "getExchangeRate",
      "outputs": [
        {
          "internalType": "uint256",
          "name": "",
          "type": "uint256"
        }
      ],
      "stateMutability": "view",
      "type": "function"
    },
    {
      "inputs": [],
      "name": "lpToken",
      "outputs": [
        {
          "internalType": "address",
          "name": "",
          "type": "address"
        }
      ],
      "stateMutability": "view",
      "type": "function"
    },
    {
      "inputs": [],
      "name": "minDeposit",
      "outputs": [
        {
          "internalType": "uint256",
          "name": "",
          "type": "uint256"
        }
      ],
      "stateMutability": "view",
      "type": "function"
    },
    {
      "inputs": [
        {
          "internalType": "address",
          "name": "user",
          "type": "address"
        },
        {
          "internalType": "uint256",
          "name": "xrpAmount",
          "type": "uint256"
        },
        {
          "internalType": "string",
          "name": "xrplTxHash",
          "type": "string"
        }
      ],
      "name": "mintShXRP",
      "outputs": [],
      "stateMutability": "nonpayable",
      "type": "function"
    },
    {
      "inputs": [],
      "name": "name",
      "outputs": [
        {
          "internalType": "string",
          "name": "",
          "type": "string"
        }
      ],
      "stateMutability": "view",
      "type": "function"
    },
    {
      "inputs": [
        {
          "internalType": "address",
          "name": "",
          "type": "address"
        }
      ],
      "name": "operators",
      "outputs": [
        {
          "internalType": "bool",
          "name": "",
          "type": "bool"
        }
      ],
      "stateMutability": "view",
      "type": "function"
    },
    {
      "inputs": [],
      "name": "owner",
      "outputs": [
        {
          "internalType": "address",
          "name": "",
          "type": "address"
        }
      ],
      "stateMutability": "view",
      "type": "function"
    },
    {
      "inputs": [
        {
          "internalType": "address",
          "name": "operator",
          "type": "address"
        }
      ],
      "name": "removeOperator",
      "outputs": [],
      "stateMutability": "nonpayable",
      "type": "function"
    },
    {
      "inputs": [],
      "name": "renounceOwnership",
      "outputs": [],
      "stateMutability": "nonpayable",
      "type": "function"
    },
    {
      "inputs": [
        {
          "internalType": "address",
          "name": "_lpToken",
          "type": "address"
        }
      ],
      "name": "setLPToken",
      "outputs": [],
      "stateMutability": "nonpayable",
      "type": "function"
    },
    {
      "inputs": [
        {
          "internalType": "uint256",
          "name": "newMinDeposit",
          "type": "uint256"
        }
      ],
      "name": "setMinDeposit",
      "outputs": [],
      "stateMutability": "nonpayable",
      "type": "function"
    },
    {
      "inputs": [
        {
          "internalType": "bool",
          "name": "enabled",
          "type": "bool"
        }
      ],
      "name": "setYieldEnabled",
      "outputs": [],
      "stateMutability": "nonpayable",
      "type": "function"
    },
    {
      "inputs": [],
      "name": "sparkRouter",
      "outputs": [
        {
          "internalType": "address",
          "name": "",
          "type": "address"
        }
      ],
      "stateMutability": "view",
      "type": "function"
    },
    {
      "inputs": [
        {
          "internalType": "uint256",
          "name": "fxrpAmount",
          "type": "uint256"
        },
        {
          "internalType": "uint256",
          "name": "flrAmount",
          "type": "uint256"
        }
      ],
      "name": "stakeInDeFi",
      "outputs": [],
      "stateMutability": "nonpayable",
      "type": "function"
    },
    {
      "inputs": [],
      "name": "symbol",
      "outputs": [
        {
          "internalType": "string",
          "name": "",
          "type": "string"
        }
      ],
      "stateMutability": "view",
      "type": "function"
    },
    {
      "inputs": [],
      "name": "totalFXRPDeposited",
      "outputs": [
        {
          "internalType": "uint256",
          "name": "",
          "type": "uint256"
        }
      ],
      "stateMutability": "view",
      "type": "function"
    },
    {
      "inputs": [],
      "name": "totalFXRPInVault",
      "outputs": [
        {
          "internalType": "uint256",
          "name": "",
          "type": "uint256"
        }
      ],
      "stateMutability": "view",
      "type": "function"
    },
    {
      "inputs": [],
      "name": "totalLPStaked",
      "outputs": [
        {
          "internalType": "uint256",
          "name": "",
          "type": "uint256"
        }
      ],
      "stateMutability": "view",
      "type": "function"
    },
    {
      "inputs": [],
      "name": "totalSupply",
      "outputs": [
        {
          "internalType": "uint256",
          "name": "",
          "type": "uint256"
        }
      ],
      "stateMutability": "view",
      "type": "function"
    },
    {
      "inputs": [],
      "name": "totalXRPLocked",
      "outputs": [
        {
          "internalType": "uint256",
          "name": "",
          "type": "uint256"
        }
      ],
      "stateMutability": "view",
      "type": "function"
    },
    {
      "inputs": [
        {
          "internalType": "address",
          "name": "to",
          "type": "address"
        },
        {
          "internalType": "uint256",
          "name": "value",
          "type": "uint256"
        }
      ],
      "name": "transfer",
      "outputs": [
        {
          "internalType": "bool",
          "name": "",
          "type": "bool"
        }
      ],
      "stateMutability": "nonpayable",
      "type": "function"
    },
    {
      "inputs": [
        {
          "internalType": "address",
          "name": "from",
          "type": "address"
        },
        {
          "internalType": "address",
          "name": "to",
          "type": "address"
        },
        {
          "internalType": "uint256",
          "name": "value",
          "type": "uint256"
        }
      ],
      "name": "transferFrom",
      "outputs": [
        {
          "internalType": "bool",
          "name": "",
          "type": "bool"
        }
      ],
      "stateMutability": "nonpayable",
      "type": "function"
    },
    {
      "inputs": [
        {
          "internalType": "address",
          "name": "newOwner",
          "type": "address"
        }
      ],
      "name": "transferOwnership",
      "outputs": [],
      "stateMutability": "nonpayable",
      "type": "function"
    },
    {
      "inputs": [],
      "name": "wflrToken",
      "outputs": [
        {
          "internalType": "address",
          "name": "",
          "type": "address"
        }
      ],
      "stateMutability": "view",
      "type": "function"
    },
    {
      "inputs": [],
      "name": "yieldEnabled",
      "outputs": [
        {
          "internalType": "bool",
          "name": "",
          "type": "bool"
        }
      ],
      "stateMutability": "view",
      "type": "function"
    }
  ],
  "bytecode": "0x6080604052662386f26fc10000600855670de0b6b3a7640000600a5534801562000027575f80fd5b50604051620021c1380380620021c18339810160408190526200004a91620002f8565b336040518060400160405280600a8152602001690536869656c64205852560b41b81525060405180604001604052806005815260200164073685852560dc1b81525081600390816200009d9190620003df565b506004620000ac8282620003df565b5050506001600160a01b038116620000de57604051631e4fbdf760e01b81525f60048201526024015b60405180910390fd5b620000e9816200028b565b5060016006556001600160a01b038316620001475760405162461bcd60e51b815260206004820152601a60248201527f496e76616c6964204658525020746f6b656e20616464726573730000000000006044820152606401620000d5565b6001600160a01b0382166200019f5760405162461bcd60e51b815260206004820152601b60248201527f496e76616c696420537061726b526f75746572206164647265737300000000006044820152606401620000d5565b6001600160a01b038116620001f75760405162461bcd60e51b815260206004820152601a60248201527f496e76616c69642057464c5220746f6b656e20616464726573730000000000006044820152606401620000d5565b600b80546001600160a01b038086166001600160a01b031992831617909255600c8054858416908316179055600d8054928416929091169190911790556012805460ff19908116909155335f818152600760205260408082208054909416600117909355915190917fac6fa858e9350a46cec16539926e0fde25b7629f84b5a72bffaae4df888ae86d91a2505050620004a7565b600580546001600160a01b038381166001600160a01b0319831681179093556040519116919082907f8be0079c531659141344cd1fd0a4f28419497f9722a3daafe3b4186f6b6457e0905f90a35050565b80516001600160a01b0381168114620002f3575f80fd5b919050565b5f805f606084860312156200030b575f80fd5b6200031684620002dc565b92506200032660208501620002dc565b91506200033660408501620002dc565b90509250925092565b634e487b7160e01b5f52604160045260245ffd5b600181811c908216806200036857607f821691505b6020821081036200038757634e487b7160e01b5f52602260045260245ffd5b50919050565b601f821115620003da575f81815260208120601f850160051c81016020861015620003b55750805b601f850160051c820191505b81811015620003d657828155600101620003c1565b5050505b505050565b81516001600160401b03811115620003fb57620003fb6200033f565b62000413816200040c845462000353565b846200038d565b602080601f83116001811462000449575f8415620004315750858301515b5f19600386901b1c1916600185901b178555620003d6565b5f85815260208120601f198616915b82811015620004795788860151825594840194600190910190840162000458565b50858210156200049757878501515f19600388901b60f8161c191681555b5050505050600190811b01905550565b611d0c80620004b55f395ff3fe608060405234801561000f575f80fd5b506004361061023f575f3560e01c8063715018a611610135578063a9059cbb116100b4578063dd62ed3e11610079578063dd62ed3e146104cf578063e6aa216c14610507578063f2fde38b1461050f578063f734bd6e14610522578063fd0a487514610535575f80fd5b8063a9059cbb1461048a578063ac8a584a1461049d578063c2752e43146104b0578063d33a5088146104bd578063d5fc617e146104c6575f80fd5b80638fcc9cfb116100fa5780638fcc9cfb1461044157806395d89b41146104545780639870d7fe1461045c5780639b1650e31461046f578063a5854a3e14610477575f80fd5b8063715018a6146103f957806379cc6790146104015780638575837c14610414578063883426731461041d5780638da5cb5b14610430575f80fd5b8063346fe52c116101c157806359974e381161018657806359974e38146103855780635fcbd285146103985780636a678a9c146103ab5780636e131a7c146103be57806370a08231146103d1575f80fd5b8063346fe52c14610344578063391291621461034d5780633ba0b9a91461036057806341b3d1851461036957806342966c6814610372575f80fd5b806318160ddd1161020757806318160ddd146102dc57806323b872dd146102e4578063313ce567146102f757806332609af514610306578063326bf23f14610331575f80fd5b806306fdde0314610243578063095ea7b3146102615780631358bc8214610284578063135986b4146102a557806313e7c9d8146102ba575b5f80fd5b61024b610548565b604051610258919061199e565b60405180910390f35b61027461026f3660046119ff565b6105d8565b6040519015158152602001610258565b610297610292366004611a27565b6105f1565b604051908152602001610258565b6102b86102b3366004611a3e565b610612565b005b6102746102c8366004611a64565b60076020525f908152604090205460ff1681565b600254610297565b6102746102f2366004611a7d565b610662565b60405160128152602001610258565b600c54610319906001600160a01b031681565b6040516001600160a01b039091168152602001610258565b6102b861033f366004611a27565b610685565b610297600e5481565b61029761035b366004611a27565b61079e565b610297600a5481565b61029760085481565b6102b8610380366004611a27565b610934565b6102b8610393366004611a27565b610941565b601054610319906001600160a01b031681565b6102b86103b9366004611a64565b610a94565b600b54610319906001600160a01b031681565b6102976103df366004611a64565b6001600160a01b03165f9081526020819052604090205490565b6102b8610b7e565b6102b861040f3660046119ff565b610b91565b61029760115481565b6102b861042b366004611ab6565b610baa565b6005546001600160a01b0316610319565b6102b861044f366004611a27565b610f28565b61024b610fb4565b6102b861046a366004611a64565b610fc3565b6102b861106c565b6102b8610485366004611ad6565b61118d565b6102746104983660046119ff565b611357565b6102b86104ab366004611a64565b611364565b6012546102749060ff1681565b610297600f5481565b61029760095481565b6102976104dd366004611b56565b6001600160a01b039182165f90815260016020908152604080832093909416825291909152205490565b600a54610297565b6102b861051d366004611a64565b6113b4565b610297610530366004611a27565b6113ee565b600d54610319906001600160a01b031681565b60606003805461055790611b87565b80601f016020809104026020016040519081016040528092919081815260200182805461058390611b87565b80156105ce5780601f106105a5576101008083540402835291602001916105ce565b820191905f5260205f20905b8154815290600101906020018083116105b157829003601f168201915b5050505050905090565b5f336105e5818585611406565b60019150505b92915050565b600a545f9061060883670de0b6b3a7640000611bd3565b6105eb9190611bea565b61061a611418565b6012805460ff19168215159081179091556040519081527f8c4947dd3dc73344e27124f38de946c5fe5a4b59b8c9259241bc11376140267b906020015b60405180910390a150565b5f3361066f858285611445565b61067a8585856114bb565b506001949350505050565b335f9081526007602052604090205460ff16806106ac57506005546001600160a01b031633145b6106d15760405162461bcd60e51b81526004016106c890611c09565b60405180910390fd5b5f81116107205760405162461bcd60e51b815260206004820152601760248201527f416d6f756e74206d75737420626520706f73697469766500000000000000000060448201526064016106c8565b600b54610738906001600160a01b0316333084611518565b80600f5f8282546107499190611c32565b9250508190555080600e5f8282546107619190611c32565b909155505060405181815233907f9face92c6813909d4c19d9f5ec41f2a1e6a7020bc7f39fcd129da46dd63d53d39060200160405180910390a250565b5f6107a761157f565b5f82116107f65760405162461bcd60e51b815260206004820152601760248201527f43616e6e6f74206275726e207a65726f20616d6f756e7400000000000000000060448201526064016106c8565b335f908152602081905260409020548211156108545760405162461bcd60e51b815260206004820152601a60248201527f496e73756666696369656e742073685852502062616c616e636500000000000060448201526064016106c8565b670de0b6b3a7640000600a548361086b9190611bd3565b6108759190611bea565b90508060095410156108c95760405162461bcd60e51b815260206004820152601760248201527f496e73756666696369656e7420585250206c6f636b656400000000000000000060448201526064016106c8565b8060095f8282546108da9190611c45565b909155506108ea905033836115a9565b604080518381526020810183905233917f3687d72e72fd694708710d576afa7f8afe38a09a6812c73c5f94c97b605507ff910160405180910390a261092f6001600655565b919050565b61093e33826115a9565b50565b335f9081526007602052604090205460ff168061096857506005546001600160a01b031633145b6109845760405162461bcd60e51b81526004016106c890611c09565b5f81116109d35760405162461bcd60e51b815260206004820152601e60248201527f52657761726420616d6f756e74206d75737420626520706f736974697665000060448201526064016106c8565b5f6109dd60025490565b11610a205760405162461bcd60e51b8152602060048201526013602482015272139bc81cda161494081b5a5b9d1959081e595d606a1b60448201526064016106c8565b8060095f828254610a319190611c32565b9091555050600254600954610a4e90670de0b6b3a7640000611bd3565b610a589190611bea565b600a8190556040805183815260208101929092527f29e98ba00d07f171959c4ddcd2f3020debc7c52cf537a034d7e664340d098c6c9101610657565b610a9c611418565b6001600160a01b038116610ae55760405162461bcd60e51b815260206004820152601060248201526f24b73b30b634b2102628103a37b5b2b760811b60448201526064016106c8565b6010546001600160a01b031615610b355760405162461bcd60e51b81526020600482015260146024820152731314081d1bdad95b88185b1c9958591e481cd95d60621b60448201526064016106c8565b601080546001600160a01b0319166001600160a01b0383169081179091556040517fc905967aaba4b9e1a69c16183e43f35d63ca99daf679be5e45512688ebdbd86a905f90a250565b610b86611418565b610b8f5f6115dd565b565b610b9c823383611445565b610ba682826115a9565b5050565b335f9081526007602052604090205460ff1680610bd157506005546001600160a01b031633145b610bed5760405162461bcd60e51b81526004016106c890611c09565b60125460ff16610c335760405162461bcd60e51b8152602060048201526011602482015270165a595b19081b9bdd08195b98589b1959607a1b60448201526064016106c8565b5f82118015610c4157505f81115b610c8d5760405162461bcd60e51b815260206004820152601860248201527f416d6f756e7473206d75737420626520706f736974697665000000000000000060448201526064016106c8565b600b546040516370a0823160e01b815230600482015283916001600160a01b0316906370a0823190602401602060405180830381865afa158015610cd3573d5f803e3d5ffd5b505050506040513d601f19601f82011682018060405250810190610cf79190611c58565b1015610d395760405162461bcd60e51b81526020600482015260116024820152700496e73756666696369656e74204658525607c1b60448201526064016106c8565b600c54600b54610d56916001600160a01b0391821691168461162e565b600c54600d54610d73916001600160a01b0391821691168361162e565b600c54600b54600d545f92839283926001600160a01b039283169263e8e33700928116911688886064610da783605f611bd3565b610db19190611bea565b6064610dbe8c605f611bd3565b610dc89190611bea565b30610dd54261012c611c32565b60405160e08a901b6001600160e01b03191681526001600160a01b039889166004820152968816602488015260448701959095526064860193909352608485019190915260a484015290921660c482015260e4810191909152610104016060604051808303815f875af1158015610e4e573d5f803e3d5ffd5b505050506040513d601f19601f82011682018060405250810190610e729190611c6f565b9250925092508060115f828254610e899190611c32565b9250508190555082600f5f828254610ea19190611c45565b9091555050600c54600b54610ec3916001600160a01b0391821691165f61162e565b600c54600d54610ee0916001600160a01b0391821691165f61162e565b60408051848152602081018490529081018290527fa77184af3f44664d41c8d355f6d43d20dda9b5d7887d239bd304eff8117303739060600160405180910390a15050505050565b610f30611418565b5f8111610f7f5760405162461bcd60e51b815260206004820152601c60248201527f4d696e206465706f736974206d75737420626520706f7369746976650000000060448201526064016106c8565b60088190556040518181527f96a008f96f1c0ab9fa3d9ddd43cdfc614848c4d054d51f43662ed900e9d094c890602001610657565b60606004805461055790611b87565b610fcb611418565b6001600160a01b0381166110215760405162461bcd60e51b815260206004820152601860248201527f496e76616c6964206f70657261746f722061646472657373000000000000000060448201526064016106c8565b6001600160a01b0381165f81815260076020526040808220805460ff19166001179055517fac6fa858e9350a46cec16539926e0fde25b7629f84b5a72bffaae4df888ae86d9190a250565b335f9081526007602052604090205460ff168061109357506005546001600160a01b031633145b6110af5760405162461bcd60e51b81526004016106c890611c09565b600b546040516370a0823160e01b81523060048201525f916001600160a01b0316906370a0823190602401602060405180830381865afa1580156110f5573d5f803e3d5ffd5b505050506040513d601f19601f820116820180604052508101906111199190611c58565b9050600f5481111561093e575f600f54826111349190611c45565b905080600f5f8282546111479190611c32565b9091555050600a546040805183815260208101929092527faffc64dd767dc9d20ee587a46cfdd6a221c4fef6b51ae557b3ad7dfe82dc503a910160405180910390a15050565b335f9081526007602052604090205460ff16806111b457506005546001600160a01b031633145b6111d05760405162461bcd60e51b81526004016106c890611c09565b6111d861157f565b6001600160a01b0384166112255760405162461bcd60e51b8152602060048201526014602482015273496e76616c69642075736572206164647265737360601b60448201526064016106c8565b6008548310156112775760405162461bcd60e51b815260206004820152601c60248201527f416d6f756e742062656c6f77206d696e696d756d206465706f7369740000000060448201526064016106c8565b806112bb5760405162461bcd60e51b8152602060048201526014602482015273092dcecc2d8d2c840b0a4a09840e8f040d0c2e6d60631b60448201526064016106c8565b600a545f906112d285670de0b6b3a7640000611bd3565b6112dc9190611bea565b90508360095f8282546112ef9190611c32565b909155506112ff905085826116bd565b846001600160a01b03167f5dc23eace1418c630429a4639fadf2bd4b20187833ad6968b869e9e9be652e338583868660405161133e9493929190611c9a565b60405180910390a2506113516001600655565b50505050565b5f336105e58185856114bb565b61136c611418565b6001600160a01b0381165f81815260076020526040808220805460ff19169055517f80c0b871b97b595b16a7741c1b06fed0c6f6f558639f18ccbce50724325dc40d9190a250565b6113bc611418565b6001600160a01b0381166113e557604051631e4fbdf760e01b81525f60048201526024016106c8565b61093e816115dd565b5f670de0b6b3a7640000600a54836106089190611bd3565b61141383838360016116f1565b505050565b6005546001600160a01b03163314610b8f5760405163118cdaa760e01b81523360048201526024016106c8565b6001600160a01b038381165f908152600160209081526040808320938616835292905220545f1981101561135157818110156114ad57604051637dc7a0d960e11b81526001600160a01b038416600482015260248101829052604481018390526064016106c8565b61135184848484035f6116f1565b6001600160a01b0383166114e457604051634b637e8f60e11b81525f60048201526024016106c8565b6001600160a01b03821661150d5760405163ec442f0560e01b81525f60048201526024016106c8565b6114138383836117c3565b6040516001600160a01b0384811660248301528381166044830152606482018390526113519186918216906323b872dd906084015b604051602081830303815290604052915060e01b6020820180516001600160e01b0383818316178352505050506118e9565b6002600654036115a257604051633ee5aeb560e01b815260040160405180910390fd5b6002600655565b6001600160a01b0382166115d257604051634b637e8f60e11b81525f60048201526024016106c8565b610ba6825f836117c3565b600580546001600160a01b038381166001600160a01b0319831681179093556040519116919082907f8be0079c531659141344cd1fd0a4f28419497f9722a3daafe3b4186f6b6457e0905f90a35050565b604080516001600160a01b038416602482015260448082018490528251808303909101815260649091019091526020810180516001600160e01b031663095ea7b360e01b17905261167f8482611955565b611351576040516001600160a01b0384811660248301525f60448301526116b391869182169063095ea7b39060640161154d565b61135184826118e9565b6001600160a01b0382166116e65760405163ec442f0560e01b81525f60048201526024016106c8565b610ba65f83836117c3565b6001600160a01b03841661171a5760405163e602df0560e01b81525f60048201526024016106c8565b6001600160a01b03831661174357604051634a1406b160e11b81525f60048201526024016106c8565b6001600160a01b038085165f908152600160209081526040808320938716835292905220829055801561135157826001600160a01b0316846001600160a01b03167f8c5be1e5ebec7d5bd14f71427d1e84f3dd0314c0f7b2291e5b200ac8c7c3b925846040516117b591815260200190565b60405180910390a350505050565b6001600160a01b0383166117ed578060025f8282546117e29190611c32565b9091555061185d9050565b6001600160a01b0383165f908152602081905260409020548181101561183f5760405163391434e360e21b81526001600160a01b038516600482015260248101829052604481018390526064016106c8565b6001600160a01b0384165f9081526020819052604090209082900390555b6001600160a01b03821661187957600280548290039055611897565b6001600160a01b0382165f9081526020819052604090208054820190555b816001600160a01b0316836001600160a01b03167fddf252ad1be2c89b69c2b068fc378daa952ba7f163c4a11628f55a4df523b3ef836040516118dc91815260200190565b60405180910390a3505050565b5f8060205f8451602086015f885af180611908576040513d5f823e3d81fd5b50505f513d9150811561191f57806001141561192c565b6001600160a01b0384163b155b1561135157604051635274afe760e01b81526001600160a01b03851660048201526024016106c8565b5f805f8060205f8651602088015f8a5af192503d91505f519050828015611994575081156119865780600114611994565b5f866001600160a01b03163b115b9695505050505050565b5f6020808352835180828501525f5b818110156119c9578581018301518582016040015282016119ad565b505f604082860101526040601f19601f8301168501019250505092915050565b80356001600160a01b038116811461092f575f80fd5b5f8060408385031215611a10575f80fd5b611a19836119e9565b946020939093013593505050565b5f60208284031215611a37575f80fd5b5035919050565b5f60208284031215611a4e575f80fd5b81358015158114611a5d575f80fd5b9392505050565b5f60208284031215611a74575f80fd5b611a5d826119e9565b5f805f60608486031215611a8f575f80fd5b611a98846119e9565b9250611aa6602085016119e9565b9150604084013590509250925092565b5f8060408385031215611ac7575f80fd5b50508035926020909101359150565b5f805f8060608587031215611ae9575f80fd5b611af2856119e9565b935060208501359250604085013567ffffffffffffffff80821115611b15575f80fd5b818701915087601f830112611b28575f80fd5b813581811115611b36575f80fd5b886020828501011115611b47575f80fd5b95989497505060200194505050565b5f8060408385031215611b67575f80fd5b611b70836119e9565b9150611b7e602084016119e9565b90509250929050565b600181811c90821680611b9b57607f821691505b602082108103611bb957634e487b7160e01b5f52602260045260245ffd5b50919050565b634e487b7160e01b5f52601160045260245ffd5b80820281158282048414176105eb576105eb611bbf565b5f82611c0457634e487b7160e01b5f52601260045260245ffd5b500490565b6020808252600f908201526e2737ba1030b71037b832b930ba37b960891b604082015260600190565b808201808211156105eb576105eb611bbf565b818103818111156105eb576105eb611bbf565b5f60208284031215611c68575f80fd5b5051919050565b5f805f60608486031215611c81575f80fd5b8351925060208401519150604084015190509250925092565b84815283602082015260606040820152816060820152818360808301375f818301608090810191909152601f909201601f19160101939250505056fea26469706673582212205019773ef1c66efed68451138e8fece6406beea6bebd9874b91b6224c6d2046764736f6c63430008140033",
  "linkReferences": {},
  "deployedLinkReferences": {},
  "immutableReferences": {},
  "inputSourceName": "project/contracts/ShXRPVault.sol",
  "buildInfoId": "solc-0_8_20-8e4651789228c571f1b5c149235593ce6b7a8934"
}