{
  "_format": "hh3-artifact-1",
  "contractName": "ShXRPVault",
  "sourceName": "contracts/ShXRPVault.sol",
  "abi": [
    {
      "inputs": [
        {
          "internalType": "contract IERC20",
          "name": "_fxrpToken",
          "type": "address"
        },
        {
          "internalType": "string",
          "name": "_name",
          "type": "string"
        },
        {
          "internalType": "string",
          "name": "_symbol",
          "type": "string"
        }
      ],
      "stateMutability": "nonpayable",
      "type": "constructor"
    },
    {
      "inputs": [
        {
          "internalType": "address",
          "name": "spender",
          "type": "address"
        },
        {
          "internalType": "uint256",
          "name": "allowance",
          "type": "uint256"
        },
        {
          "internalType": "uint256",
          "name": "needed",
          "type": "uint256"
        }
      ],
      "name": "ERC20InsufficientAllowance",
      "type": "error"
    },
    {
      "inputs": [
        {
          "internalType": "address",
          "name": "sender",
          "type": "address"
        },
        {
          "internalType": "uint256",
          "name": "balance",
          "type": "uint256"
        },
        {
          "internalType": "uint256",
          "name": "needed",
          "type": "uint256"
        }
      ],
      "name": "ERC20InsufficientBalance",
      "type": "error"
    },
    {
      "inputs": [
        {
          "internalType": "address",
          "name": "approver",
          "type": "address"
        }
      ],
      "name": "ERC20InvalidApprover",
      "type": "error"
    },
    {
      "inputs": [
        {
          "internalType": "address",
          "name": "receiver",
          "type": "address"
        }
      ],
      "name": "ERC20InvalidReceiver",
      "type": "error"
    },
    {
      "inputs": [
        {
          "internalType": "address",
          "name": "sender",
          "type": "address"
        }
      ],
      "name": "ERC20InvalidSender",
      "type": "error"
    },
    {
      "inputs": [
        {
          "internalType": "address",
          "name": "spender",
          "type": "address"
        }
      ],
      "name": "ERC20InvalidSpender",
      "type": "error"
    },
    {
      "inputs": [
        {
          "internalType": "address",
          "name": "receiver",
          "type": "address"
        },
        {
          "internalType": "uint256",
          "name": "assets",
          "type": "uint256"
        },
        {
          "internalType": "uint256",
          "name": "max",
          "type": "uint256"
        }
      ],
      "name": "ERC4626ExceededMaxDeposit",
      "type": "error"
    },
    {
      "inputs": [
        {
          "internalType": "address",
          "name": "receiver",
          "type": "address"
        },
        {
          "internalType": "uint256",
          "name": "shares",
          "type": "uint256"
        },
        {
          "internalType": "uint256",
          "name": "max",
          "type": "uint256"
        }
      ],
      "name": "ERC4626ExceededMaxMint",
      "type": "error"
    },
    {
      "inputs": [
        {
          "internalType": "address",
          "name": "owner",
          "type": "address"
        },
        {
          "internalType": "uint256",
          "name": "shares",
          "type": "uint256"
        },
        {
          "internalType": "uint256",
          "name": "max",
          "type": "uint256"
        }
      ],
      "name": "ERC4626ExceededMaxRedeem",
      "type": "error"
    },
    {
      "inputs": [
        {
          "internalType": "address",
          "name": "owner",
          "type": "address"
        },
        {
          "internalType": "uint256",
          "name": "assets",
          "type": "uint256"
        },
        {
          "internalType": "uint256",
          "name": "max",
          "type": "uint256"
        }
      ],
      "name": "ERC4626ExceededMaxWithdraw",
      "type": "error"
    },
    {
      "inputs": [
        {
          "internalType": "address",
          "name": "owner",
          "type": "address"
        }
      ],
      "name": "OwnableInvalidOwner",
      "type": "error"
    },
    {
      "inputs": [
        {
          "internalType": "address",
          "name": "account",
          "type": "address"
        }
      ],
      "name": "OwnableUnauthorizedAccount",
      "type": "error"
    },
    {
      "inputs": [],
      "name": "ReentrancyGuardReentrantCall",
      "type": "error"
    },
    {
      "inputs": [
        {
          "internalType": "address",
          "name": "token",
          "type": "address"
        }
      ],
      "name": "SafeERC20FailedOperation",
      "type": "error"
    },
    {
      "anonymous": false,
      "inputs": [
        {
          "indexed": true,
          "internalType": "address",
          "name": "owner",
          "type": "address"
        },
        {
          "indexed": true,
          "internalType": "address",
          "name": "spender",
          "type": "address"
        },
        {
          "indexed": false,
          "internalType": "uint256",
          "name": "value",
          "type": "uint256"
        }
      ],
      "name": "Approval",
      "type": "event"
    },
    {
      "anonymous": false,
      "inputs": [
        {
          "indexed": true,
          "internalType": "address",
          "name": "sender",
          "type": "address"
        },
        {
          "indexed": true,
          "internalType": "address",
          "name": "owner",
          "type": "address"
        },
        {
          "indexed": false,
          "internalType": "uint256",
          "name": "assets",
          "type": "uint256"
        },
        {
          "indexed": false,
          "internalType": "uint256",
          "name": "shares",
          "type": "uint256"
        }
      ],
      "name": "Deposit",
      "type": "event"
    },
    {
      "anonymous": false,
      "inputs": [
        {
          "indexed": false,
          "internalType": "uint256",
          "name": "fxrpAmount",
          "type": "uint256"
        },
        {
          "indexed": false,
          "internalType": "uint256",
          "name": "stXRPReceived",
          "type": "uint256"
        }
      ],
      "name": "FirelightDeposit",
      "type": "event"
    },
    {
      "anonymous": false,
      "inputs": [
        {
          "indexed": true,
          "internalType": "address",
          "name": "firelightVault",
          "type": "address"
        }
      ],
      "name": "FirelightVaultSet",
      "type": "event"
    },
    {
      "anonymous": false,
      "inputs": [
        {
          "indexed": false,
          "internalType": "uint256",
          "name": "stXRPAmount",
          "type": "uint256"
        },
        {
          "indexed": false,
          "internalType": "uint256",
          "name": "fxrpReceived",
          "type": "uint256"
        }
      ],
      "name": "FirelightWithdraw",
      "type": "event"
    },
    {
      "anonymous": false,
      "inputs": [
        {
          "indexed": false,
          "internalType": "uint256",
          "name": "newMinDeposit",
          "type": "uint256"
        }
      ],
      "name": "MinDepositUpdated",
      "type": "event"
    },
    {
      "anonymous": false,
      "inputs": [
        {
          "indexed": true,
          "internalType": "address",
          "name": "operator",
          "type": "address"
        }
      ],
      "name": "OperatorAdded",
      "type": "event"
    },
    {
      "anonymous": false,
      "inputs": [
        {
          "indexed": true,
          "internalType": "address",
          "name": "operator",
          "type": "address"
        }
      ],
      "name": "OperatorRemoved",
      "type": "event"
    },
    {
      "anonymous": false,
      "inputs": [
        {
          "indexed": true,
          "internalType": "address",
          "name": "previousOwner",
          "type": "address"
        },
        {
          "indexed": true,
          "internalType": "address",
          "name": "newOwner",
          "type": "address"
        }
      ],
      "name": "OwnershipTransferred",
      "type": "event"
    },
    {
      "anonymous": false,
      "inputs": [
        {
          "indexed": true,
          "internalType": "address",
          "name": "from",
          "type": "address"
        },
        {
          "indexed": true,
          "internalType": "address",
          "name": "to",
          "type": "address"
        },
        {
          "indexed": false,
          "internalType": "uint256",
          "name": "value",
          "type": "uint256"
        }
      ],
      "name": "Transfer",
      "type": "event"
    },
    {
      "anonymous": false,
      "inputs": [
        {
          "indexed": true,
          "internalType": "address",
          "name": "sender",
          "type": "address"
        },
        {
          "indexed": true,
          "internalType": "address",
          "name": "receiver",
          "type": "address"
        },
        {
          "indexed": true,
          "internalType": "address",
          "name": "owner",
          "type": "address"
        },
        {
          "indexed": false,
          "internalType": "uint256",
          "name": "assets",
          "type": "uint256"
        },
        {
          "indexed": false,
          "internalType": "uint256",
          "name": "shares",
          "type": "uint256"
        }
      ],
      "name": "Withdraw",
      "type": "event"
    },
    {
      "inputs": [
        {
          "internalType": "address",
          "name": "operator",
          "type": "address"
        }
      ],
      "name": "addOperator",
      "outputs": [],
      "stateMutability": "nonpayable",
      "type": "function"
    },
    {
      "inputs": [
        {
          "internalType": "address",
          "name": "owner",
          "type": "address"
        },
        {
          "internalType": "address",
          "name": "spender",
          "type": "address"
        }
      ],
      "name": "allowance",
      "outputs": [
        {
          "internalType": "uint256",
          "name": "",
          "type": "uint256"
        }
      ],
      "stateMutability": "view",
      "type": "function"
    },
    {
      "inputs": [
        {
          "internalType": "address",
          "name": "spender",
          "type": "address"
        },
        {
          "internalType": "uint256",
          "name": "value",
          "type": "uint256"
        }
      ],
      "name": "approve",
      "outputs": [
        {
          "internalType": "bool",
          "name": "",
          "type": "bool"
        }
      ],
      "stateMutability": "nonpayable",
      "type": "function"
    },
    {
      "inputs": [],
      "name": "asset",
      "outputs": [
        {
          "internalType": "address",
          "name": "",
          "type": "address"
        }
      ],
      "stateMutability": "view",
      "type": "function"
    },
    {
      "inputs": [
        {
          "internalType": "address",
          "name": "account",
          "type": "address"
        }
      ],
      "name": "balanceOf",
      "outputs": [
        {
          "internalType": "uint256",
          "name": "",
          "type": "uint256"
        }
      ],
      "stateMutability": "view",
      "type": "function"
    },
    {
      "inputs": [
        {
          "internalType": "uint256",
          "name": "shares",
          "type": "uint256"
        }
      ],
      "name": "convertToAssets",
      "outputs": [
        {
          "internalType": "uint256",
          "name": "",
          "type": "uint256"
        }
      ],
      "stateMutability": "view",
      "type": "function"
    },
    {
      "inputs": [
        {
          "internalType": "uint256",
          "name": "assets",
          "type": "uint256"
        }
      ],
      "name": "convertToShares",
      "outputs": [
        {
          "internalType": "uint256",
          "name": "",
          "type": "uint256"
        }
      ],
      "stateMutability": "view",
      "type": "function"
    },
    {
      "inputs": [],
      "name": "decimals",
      "outputs": [
        {
          "internalType": "uint8",
          "name": "",
          "type": "uint8"
        }
      ],
      "stateMutability": "view",
      "type": "function"
    },
    {
      "inputs": [
        {
          "internalType": "uint256",
          "name": "assets",
          "type": "uint256"
        },
        {
          "internalType": "address",
          "name": "receiver",
          "type": "address"
        }
      ],
      "name": "deposit",
      "outputs": [
        {
          "internalType": "uint256",
          "name": "",
          "type": "uint256"
        }
      ],
      "stateMutability": "nonpayable",
      "type": "function"
    },
    {
      "inputs": [],
      "name": "firelightVault",
      "outputs": [
        {
          "internalType": "address",
          "name": "",
          "type": "address"
        }
      ],
      "stateMutability": "view",
      "type": "function"
    },
    {
      "inputs": [
        {
          "internalType": "address",
          "name": "",
          "type": "address"
        }
      ],
      "name": "maxDeposit",
      "outputs": [
        {
          "internalType": "uint256",
          "name": "",
          "type": "uint256"
        }
      ],
      "stateMutability": "view",
      "type": "function"
    },
    {
      "inputs": [
        {
          "internalType": "address",
          "name": "",
          "type": "address"
        }
      ],
      "name": "maxMint",
      "outputs": [
        {
          "internalType": "uint256",
          "name": "",
          "type": "uint256"
        }
      ],
      "stateMutability": "view",
      "type": "function"
    },
    {
      "inputs": [
        {
          "internalType": "address",
          "name": "owner",
          "type": "address"
        }
      ],
      "name": "maxRedeem",
      "outputs": [
        {
          "internalType": "uint256",
          "name": "",
          "type": "uint256"
        }
      ],
      "stateMutability": "view",
      "type": "function"
    },
    {
      "inputs": [
        {
          "internalType": "address",
          "name": "owner",
          "type": "address"
        }
      ],
      "name": "maxWithdraw",
      "outputs": [
        {
          "internalType": "uint256",
          "name": "",
          "type": "uint256"
        }
      ],
      "stateMutability": "view",
      "type": "function"
    },
    {
      "inputs": [],
      "name": "minDeposit",
      "outputs": [
        {
          "internalType": "uint256",
          "name": "",
          "type": "uint256"
        }
      ],
      "stateMutability": "view",
      "type": "function"
    },
    {
      "inputs": [
        {
          "internalType": "uint256",
          "name": "shares",
          "type": "uint256"
        },
        {
          "internalType": "address",
          "name": "receiver",
          "type": "address"
        }
      ],
      "name": "mint",
      "outputs": [
        {
          "internalType": "uint256",
          "name": "",
          "type": "uint256"
        }
      ],
      "stateMutability": "nonpayable",
      "type": "function"
    },
    {
      "inputs": [],
      "name": "name",
      "outputs": [
        {
          "internalType": "string",
          "name": "",
          "type": "string"
        }
      ],
      "stateMutability": "view",
      "type": "function"
    },
    {
      "inputs": [
        {
          "internalType": "address",
          "name": "",
          "type": "address"
        }
      ],
      "name": "operators",
      "outputs": [
        {
          "internalType": "bool",
          "name": "",
          "type": "bool"
        }
      ],
      "stateMutability": "view",
      "type": "function"
    },
    {
      "inputs": [],
      "name": "owner",
      "outputs": [
        {
          "internalType": "address",
          "name": "",
          "type": "address"
        }
      ],
      "stateMutability": "view",
      "type": "function"
    },
    {
      "inputs": [
        {
          "internalType": "uint256",
          "name": "assets",
          "type": "uint256"
        }
      ],
      "name": "previewDeposit",
      "outputs": [
        {
          "internalType": "uint256",
          "name": "",
          "type": "uint256"
        }
      ],
      "stateMutability": "view",
      "type": "function"
    },
    {
      "inputs": [
        {
          "internalType": "uint256",
          "name": "shares",
          "type": "uint256"
        }
      ],
      "name": "previewMint",
      "outputs": [
        {
          "internalType": "uint256",
          "name": "",
          "type": "uint256"
        }
      ],
      "stateMutability": "view",
      "type": "function"
    },
    {
      "inputs": [
        {
          "internalType": "uint256",
          "name": "shares",
          "type": "uint256"
        }
      ],
      "name": "previewRedeem",
      "outputs": [
        {
          "internalType": "uint256",
          "name": "",
          "type": "uint256"
        }
      ],
      "stateMutability": "view",
      "type": "function"
    },
    {
      "inputs": [
        {
          "internalType": "uint256",
          "name": "assets",
          "type": "uint256"
        }
      ],
      "name": "previewWithdraw",
      "outputs": [
        {
          "internalType": "uint256",
          "name": "",
          "type": "uint256"
        }
      ],
      "stateMutability": "view",
      "type": "function"
    },
    {
      "inputs": [
        {
          "internalType": "uint256",
          "name": "shares",
          "type": "uint256"
        },
        {
          "internalType": "address",
          "name": "receiver",
          "type": "address"
        },
        {
          "internalType": "address",
          "name": "owner",
          "type": "address"
        }
      ],
      "name": "redeem",
      "outputs": [
        {
          "internalType": "uint256",
          "name": "",
          "type": "uint256"
        }
      ],
      "stateMutability": "nonpayable",
      "type": "function"
    },
    {
      "inputs": [
        {
          "internalType": "address",
          "name": "operator",
          "type": "address"
        }
      ],
      "name": "removeOperator",
      "outputs": [],
      "stateMutability": "nonpayable",
      "type": "function"
    },
    {
      "inputs": [],
      "name": "renounceOwnership",
      "outputs": [],
      "stateMutability": "nonpayable",
      "type": "function"
    },
    {
      "inputs": [
        {
          "internalType": "address",
          "name": "_firelightVault",
          "type": "address"
        }
      ],
      "name": "setFirelightVault",
      "outputs": [],
      "stateMutability": "nonpayable",
      "type": "function"
    },
    {
      "inputs": [
        {
          "internalType": "uint256",
          "name": "newMinDeposit",
          "type": "uint256"
        }
      ],
      "name": "setMinDeposit",
      "outputs": [],
      "stateMutability": "nonpayable",
      "type": "function"
    },
    {
      "inputs": [],
      "name": "symbol",
      "outputs": [
        {
          "internalType": "string",
          "name": "",
          "type": "string"
        }
      ],
      "stateMutability": "view",
      "type": "function"
    },
    {
      "inputs": [],
      "name": "totalAssets",
      "outputs": [
        {
          "internalType": "uint256",
          "name": "",
          "type": "uint256"
        }
      ],
      "stateMutability": "view",
      "type": "function"
    },
    {
      "inputs": [],
      "name": "totalStXRPDeposited",
      "outputs": [
        {
          "internalType": "uint256",
          "name": "",
          "type": "uint256"
        }
      ],
      "stateMutability": "view",
      "type": "function"
    },
    {
      "inputs": [],
      "name": "totalSupply",
      "outputs": [
        {
          "internalType": "uint256",
          "name": "",
          "type": "uint256"
        }
      ],
      "stateMutability": "view",
      "type": "function"
    },
    {
      "inputs": [
        {
          "internalType": "address",
          "name": "to",
          "type": "address"
        },
        {
          "internalType": "uint256",
          "name": "value",
          "type": "uint256"
        }
      ],
      "name": "transfer",
      "outputs": [
        {
          "internalType": "bool",
          "name": "",
          "type": "bool"
        }
      ],
      "stateMutability": "nonpayable",
      "type": "function"
    },
    {
      "inputs": [
        {
          "internalType": "address",
          "name": "from",
          "type": "address"
        },
        {
          "internalType": "address",
          "name": "to",
          "type": "address"
        },
        {
          "internalType": "uint256",
          "name": "value",
          "type": "uint256"
        }
      ],
      "name": "transferFrom",
      "outputs": [
        {
          "internalType": "bool",
          "name": "",
          "type": "bool"
        }
      ],
      "stateMutability": "nonpayable",
      "type": "function"
    },
    {
      "inputs": [
        {
          "internalType": "address",
          "name": "newOwner",
          "type": "address"
        }
      ],
      "name": "transferOwnership",
      "outputs": [],
      "stateMutability": "nonpayable",
      "type": "function"
    },
    {
      "inputs": [
        {
          "internalType": "uint256",
          "name": "assets",
          "type": "uint256"
        },
        {
          "internalType": "address",
          "name": "receiver",
          "type": "address"
        },
        {
          "internalType": "address",
          "name": "owner",
          "type": "address"
        }
      ],
      "name": "withdraw",
      "outputs": [
        {
          "internalType": "uint256",
          "name": "",
          "type": "uint256"
        }
      ],
      "stateMutability": "nonpayable",
      "type": "function"
    }
  ],
  "bytecode": "0x60c0604052662386f26fc100006008553480156200001b575f80fd5b5060405162001d5338038062001d538339810160408190526200003e916200036d565b3383838360036200005083826200047d565b5060046200005f82826200047d565b5050505f8062000075836200017760201b60201c565b91509150816200008757601262000089565b805b60ff1660a05250506001600160a01b039081166080528116620000c657604051631e4fbdf760e01b81525f60048201526024015b60405180910390fd5b620000d18162000256565b5060016006556001600160a01b0383166200012f5760405162461bcd60e51b815260206004820152601a60248201527f496e76616c6964204658525020746f6b656e20616464726573730000000000006044820152606401620000bd565b335f81815260076020526040808220805460ff19166001179055517fac6fa858e9350a46cec16539926e0fde25b7629f84b5a72bffaae4df888ae86d9190a25050506200057a565b60408051600481526024810182526020810180516001600160e01b031663313ce56760e01b17905290515f918291829182916001600160a01b03871691620001bf9162000545565b5f60405180830381855afa9150503d805f8114620001f9576040519150601f19603f3d011682016040523d82523d5f602084013e620001fe565b606091505b50915091508180156200021357506020815110155b156200024a575f8180602001905181019062000230919062000562565b905060ff811162000248576001969095509350505050565b505b505f9485945092505050565b600580546001600160a01b038381166001600160a01b0319831681179093556040519116919082907f8be0079c531659141344cd1fd0a4f28419497f9722a3daafe3b4186f6b6457e0905f90a35050565b634e487b7160e01b5f52604160045260245ffd5b5f5b83811015620002d7578181015183820152602001620002bd565b50505f910152565b5f82601f830112620002ef575f80fd5b81516001600160401b03808211156200030c576200030c620002a7565b604051601f8301601f19908116603f01168101908282118183101715620003375762000337620002a7565b8160405283815286602085880101111562000350575f80fd5b62000363846020830160208901620002bb565b9695505050505050565b5f805f6060848603121562000380575f80fd5b83516001600160a01b038116811462000397575f80fd5b60208501519093506001600160401b0380821115620003b4575f80fd5b620003c287838801620002df565b93506040860151915080821115620003d8575f80fd5b50620003e786828701620002df565b9150509250925092565b600181811c908216806200040657607f821691505b6020821081036200042557634e487b7160e01b5f52602260045260245ffd5b50919050565b601f82111562000478575f81815260208120601f850160051c81016020861015620004535750805b601f850160051c820191505b8181101562000474578281556001016200045f565b5050505b505050565b81516001600160401b03811115620004995762000499620002a7565b620004b181620004aa8454620003f1565b846200042b565b602080601f831160018114620004e7575f8415620004cf5750858301515b5f19600386901b1c1916600185901b17855562000474565b5f85815260208120601f198616915b828110156200051757888601518255948401946001909101908401620004f6565b50858210156200053557878501515f19600388901b60f8161c191681555b5050505050600190811b01905550565b5f825162000558818460208701620002bb565b9190910192915050565b5f6020828403121562000573575f80fd5b5051919050565b60805160a0516117a2620005b15f395f61071b01525f8181610314015281816104ef0152818161104401526110f601526117a25ff3fe608060405234801561000f575f80fd5b5060043610610213575f3560e01c80638c7fb1481161011f578063b460af94116100a9578063ce96cb7711610079578063ce96cb771461047a578063d905777e1461048d578063dd62ed3e146104a0578063ef8b30f714610467578063f2fde38b146104d8575f80fd5b8063b460af9414610441578063ba08765214610454578063c63d75b614610338578063c6e6f59214610467575f80fd5b806395d89b41116100ef57806395d89b41146103ed5780639870d7fe146103f5578063a9059cbb14610408578063ac8a584a1461041b578063b3d7f6b91461042e575f80fd5b80638c7fb148146103a35780638da5cb5b146103b65780638fcc9cfb146103c757806394bf804d146103da575f80fd5b8063313ce567116101a05780634cdad506116101705780634cdad5061461024757806361bd63a2146103555780636e553f651461035e57806370a0823114610371578063715018a614610399575f80fd5b8063313ce567146102f857806338d52e0f14610312578063402d267d1461033857806341b3d1851461034c575f80fd5b80630a28a477116101e65780630a28a4771461027d57806313e7c9d81461029057806317167e64146102b257806318160ddd146102dd57806323b872dd146102e5575f80fd5b806301e1d1141461021757806306fdde031461023257806307a2d13a14610247578063095ea7b31461025a575b5f80fd5b61021f6104eb565b6040519081526020015b60405180910390f35b61023a610631565b60405161022991906113fc565b61021f610255366004611447565b6106c1565b61026d610268366004611474565b6106cc565b6040519015158152602001610229565b61021f61028b366004611447565b6106e3565b61026d61029e36600461149c565b60076020525f908152604090205460ff1681565b6009546102c5906001600160a01b031681565b6040516001600160a01b039091168152602001610229565b60025461021f565b61026d6102f33660046114b5565b6106ef565b610300610714565b60405160ff9091168152602001610229565b7f00000000000000000000000000000000000000000000000000000000000000006102c5565b61021f61034636600461149c565b505f1990565b61021f60085481565b61021f600a5481565b61021f61036c3660046114ee565b610744565b61021f61037f36600461149c565b6001600160a01b03165f9081526020819052604090205490565b6103a16107b2565b005b6103a16103b136600461149c565b6107c5565b6005546001600160a01b03166102c5565b6103a16103d5366004611447565b61086c565b61021f6103e83660046114ee565b6108fe565b61023a610974565b6103a161040336600461149c565b610983565b61026d610416366004611474565b610a2c565b6103a161042936600461149c565b610a39565b61021f61043c366004611447565b610a89565b61021f61044f366004611518565b610a95565b61021f610462366004611518565b610ab5565b61021f610475366004611447565b610ac9565b61021f61048836600461149c565b610ad4565b61021f61049b36600461149c565b610af6565b61021f6104ae366004611551565b6001600160a01b039182165f90815260016020908152604080832093909416825291909152205490565b6103a16104e636600461149c565b610b13565b5f807f00000000000000000000000000000000000000000000000000000000000000006040516370a0823160e01b81523060048201526001600160a01b0391909116906370a0823190602401602060405180830381865afa158015610552573d5f803e3d5ffd5b505050506040513d601f19601f820116820180604052508101906105769190611579565b6009549091506001600160a01b03161580159061059457505f600a54115b1561062c57600954600a546040516303d1689d60e11b81526001600160a01b03909216916307a2d13a916105ce9160040190815260200190565b602060405180830381865afa925050508015610607575060408051601f3d908101601f1916820190925261060491810190611579565b60015b61061e57600a5461061890826115a4565b92915050565b61062881836115a4565b9150505b919050565b606060038054610640906115b7565b80601f016020809104026020016040519081016040528092919081815260200182805461066c906115b7565b80156106b75780601f1061068e576101008083540402835291602001916106b7565b820191905f5260205f20905b81548152906001019060200180831161069a57829003601f168201915b5050505050905090565b5f610618825f610b50565b5f336106d9818585610b88565b5060019392505050565b5f610618826001610b9a565b5f336106fc858285610bc9565b610707858585610c32565b60019150505b9392505050565b5f61073f817f00000000000000000000000000000000000000000000000000000000000000006115ef565b905090565b5f61074d610c8f565b60085483101561079c5760405162461bcd60e51b815260206004820152601560248201527410995b1bddc81b5a5b9a5b5d5b4819195c1bdcda5d605a1b60448201526064015b60405180910390fd5b6107a68383610cb9565b90506106186001600655565b6107ba610cdc565b6107c35f610d09565b565b6107cd610cdc565b6001600160a01b0381166108235760405162461bcd60e51b815260206004820152601760248201527f496e76616c696420466972656c69676874207661756c740000000000000000006044820152606401610793565b600980546001600160a01b0319166001600160a01b0383169081179091556040517f14450eee6c339481f8271167fe83be76f78a19ee0773c874ae262dcfe35edf9a905f90a250565b610874610cdc565b5f81116108c35760405162461bcd60e51b815260206004820152601c60248201527f4d696e206465706f736974206d75737420626520706f736974697665000000006044820152606401610793565b60088190556040518181527f96a008f96f1c0ab9fa3d9ddd43cdfc614848c4d054d51f43662ed900e9d094c89060200160405180910390a150565b5f610907610c8f565b5f61091184610a89565b905060085481101561095d5760405162461bcd60e51b815260206004820152601560248201527410995b1bddc81b5a5b9a5b5d5b4819195c1bdcda5d605a1b6044820152606401610793565b6109678484610d5a565b9150506106186001600655565b606060048054610640906115b7565b61098b610cdc565b6001600160a01b0381166109e15760405162461bcd60e51b815260206004820152601860248201527f496e76616c6964206f70657261746f72206164647265737300000000000000006044820152606401610793565b6001600160a01b0381165f81815260076020526040808220805460ff19166001179055517fac6fa858e9350a46cec16539926e0fde25b7629f84b5a72bffaae4df888ae86d9190a250565b5f336106d9818585610c32565b610a41610cdc565b6001600160a01b0381165f81815260076020526040808220805460ff19169055517f80c0b871b97b595b16a7741c1b06fed0c6f6f558639f18ccbce50724325dc40d9190a250565b5f610618826001610b50565b5f610a9e610c8f565b610aa9848484610d75565b905061070d6001600655565b5f610abe610c8f565b610aa9848484610dcb565b5f610618825f610b9a565b6001600160a01b0381165f90815260208190526040812054610618905f610b50565b6001600160a01b0381165f90815260208190526040812054610618565b610b1b610cdc565b6001600160a01b038116610b4457604051631e4fbdf760e01b81525f6004820152602401610793565b610b4d81610d09565b50565b5f61070d610b5c6104eb565b610b679060016115a4565b610b725f600a6116e8565b600254610b7f91906115a4565b85919085610e18565b610b958383836001610e5a565b505050565b5f61070d610ba982600a6116e8565b600254610bb691906115a4565b610bbe6104eb565b610b7f9060016115a4565b6001600160a01b038381165f908152600160209081526040808320938616835292905220545f19811015610c2c5781811015610c1e57828183604051637dc7a0d960e11b8152600401610793939291906116f6565b610c2c84848484035f610e5a565b50505050565b6001600160a01b038316610c5b57604051634b637e8f60e11b81525f6004820152602401610793565b6001600160a01b038216610c845760405163ec442f0560e01b81525f6004820152602401610793565b610b95838383610f2c565b600260065403610cb257604051633ee5aeb560e01b815260040160405180910390fd5b6002600655565b5f5f195f610cc685610ac9565b9050610cd43385878461103f565b949350505050565b6005546001600160a01b031633146107c35760405163118cdaa760e01b8152336004820152602401610793565b600580546001600160a01b038381166001600160a01b0319831681179093556040519116919082907f8be0079c531659141344cd1fd0a4f28419497f9722a3daafe3b4186f6b6457e0905f90a35050565b5f5f195f610d6785610a89565b9050610cd43385838861103f565b5f80610d8083610ad4565b905080851115610da957828582604051633fa733bb60e21b8152600401610793939291906116f6565b5f610db3866106e3565b9050610dc233868689856110c3565b95945050505050565b5f80610dd683610af6565b905080851115610dff57828582604051632e52afbb60e21b8152600401610793939291906116f6565b5f610e09866106c1565b9050610dc2338686848a6110c3565b5f610e45610e2583611183565b8015610e4057505f8480610e3b57610e3b611717565b868809115b151590565b610e508686866111af565b610dc291906115a4565b6001600160a01b038416610e835760405163e602df0560e01b81525f6004820152602401610793565b6001600160a01b038316610eac57604051634a1406b160e11b81525f6004820152602401610793565b6001600160a01b038085165f9081526001602090815260408083209387168352929052208290558015610c2c57826001600160a01b0316846001600160a01b03167f8c5be1e5ebec7d5bd14f71427d1e84f3dd0314c0f7b2291e5b200ac8c7c3b92584604051610f1e91815260200190565b60405180910390a350505050565b6001600160a01b038316610f56578060025f828254610f4b91906115a4565b90915550610fb39050565b6001600160a01b0383165f9081526020819052604090205481811015610f955783818360405163391434e360e21b8152600401610793939291906116f6565b6001600160a01b0384165f9081526020819052604090209082900390555b6001600160a01b038216610fcf57600280548290039055610fed565b6001600160a01b0382165f9081526020819052604090208054820190555b816001600160a01b0316836001600160a01b03167fddf252ad1be2c89b69c2b068fc378daa952ba7f163c4a11628f55a4df523b3ef8360405161103291815260200190565b60405180910390a3505050565b61106b7f000000000000000000000000000000000000000000000000000000000000000085308561125f565b61107583826112c6565b826001600160a01b0316846001600160a01b03167fdcbc1c05240f31ff3ad067ef1ee35ce4997762752e3a095284754544f4c709d78484604051610f1e929190918252602082015260400190565b826001600160a01b0316856001600160a01b0316146110e7576110e7838683610bc9565b6110f183826112fe565b61111c7f00000000000000000000000000000000000000000000000000000000000000008584611332565b826001600160a01b0316846001600160a01b0316866001600160a01b03167ffbde797d201c681b91056529119e0b02407c7bb96a4a2c75c01fc9667232c8db8585604051611174929190918252602082015260400190565b60405180910390a45050505050565b5f60028260038111156111985761119861172b565b6111a2919061173f565b60ff166001149050919050565b5f805f6111bc8686611363565b91509150815f036111e0578381816111d6576111d6611717565b049250505061070d565b8184116111f7576111f7600385150260111861137f565b5f848688095f868103871696879004966002600389028118808a02820302808a02820302808a02820302808a02820302808a02820302808a02909103029181900381900460010185841190960395909502919093039390930492909217029150509392505050565b6040516001600160a01b038481166024830152838116604483015260648201839052610c2c9186918216906323b872dd906084015b604051602081830303815290604052915060e01b6020820180516001600160e01b038381831617835250505050611390565b6001600160a01b0382166112ef5760405163ec442f0560e01b81525f6004820152602401610793565b6112fa5f8383610f2c565b5050565b6001600160a01b03821661132757604051634b637e8f60e11b81525f6004820152602401610793565b6112fa825f83610f2c565b6040516001600160a01b03838116602483015260448201839052610b9591859182169063a9059cbb90606401611294565b5f805f1983850993909202808410938190039390930393915050565b634e487b715f52806020526024601cfd5b5f8060205f8451602086015f885af1806113af576040513d5f823e3d81fd5b50505f513d915081156113c65780600114156113d3565b6001600160a01b0384163b155b15610c2c57604051635274afe760e01b81526001600160a01b0385166004820152602401610793565b5f6020808352835180828501525f5b818110156114275785810183015185820160400152820161140b565b505f604082860101526040601f19601f8301168501019250505092915050565b5f60208284031215611457575f80fd5b5035919050565b80356001600160a01b038116811461062c575f80fd5b5f8060408385031215611485575f80fd5b61148e8361145e565b946020939093013593505050565b5f602082840312156114ac575f80fd5b61070d8261145e565b5f805f606084860312156114c7575f80fd5b6114d08461145e565b92506114de6020850161145e565b9150604084013590509250925092565b5f80604083850312156114ff575f80fd5b8235915061150f6020840161145e565b90509250929050565b5f805f6060848603121561152a575f80fd5b8335925061153a6020850161145e565b91506115486040850161145e565b90509250925092565b5f8060408385031215611562575f80fd5b61156b8361145e565b915061150f6020840161145e565b5f60208284031215611589575f80fd5b5051919050565b634e487b7160e01b5f52601160045260245ffd5b8082018082111561061857610618611590565b600181811c908216806115cb57607f821691505b6020821081036115e957634e487b7160e01b5f52602260045260245ffd5b50919050565b60ff818116838216019081111561061857610618611590565b600181815b8085111561164257815f190482111561162857611628611590565b8085161561163557918102915b93841c939080029061160d565b509250929050565b5f8261165857506001610618565b8161166457505f610618565b816001811461167a5760028114611684576116a0565b6001915050610618565b60ff84111561169557611695611590565b50506001821b610618565b5060208310610133831016604e8410600b84101617156116c3575081810a610618565b6116cd8383611608565b805f19048211156116e0576116e0611590565b029392505050565b5f61070d60ff84168361164a565b6001600160a01b039390931683526020830191909152604082015260600190565b634e487b7160e01b5f52601260045260245ffd5b634e487b7160e01b5f52602160045260245ffd5b5f60ff83168061175d57634e487b7160e01b5f52601260045260245ffd5b8060ff8416069150509291505056fea2646970667358221220fd426f2ca1a26da4508023d715aba887edcb058f7ecb9e1871409bcf6f42bddb64736f6c63430008140033",
  "linkReferences": {},
  "deployedLinkReferences": {},
  "immutableReferences": {
    "1586": [
      {
        "length": 32,
        "start": 788
      },
      {
        "length": 32,
        "start": 1263
      },
      {
        "length": 32,
        "start": 4164
      },
      {
        "length": 32,
        "start": 4342
      }
    ],
    "1588": [
      {
        "length": 32,
        "start": 1819
      }
    ]
  },
  "inputSourceName": "project/contracts/ShXRPVault.sol",
  "buildInfoId": "solc-0_8_20-1aaf3880db6eca878528ec1ad07ad3696ef0b901"
}