{"project/contracts/ShXRPVault.sol":{"ShXRPVault":{"abi":[{"inputs":[{"internalType":"contract IERC20","name":"_fxrpToken","type":"address"},{"internalType":"string","name":"_name","type":"string"},{"internalType":"string","name":"_symbol","type":"string"}],"stateMutability":"nonpayable","type":"constructor"},{"inputs":[{"internalType":"address","name":"spender","type":"address"},{"internalType":"uint256","name":"allowance","type":"uint256"},{"internalType":"uint256","name":"needed","type":"uint256"}],"name":"ERC20InsufficientAllowance","type":"error"},{"inputs":[{"internalType":"address","name":"sender","type":"address"},{"internalType":"uint256","name":"balance","type":"uint256"},{"internalType":"uint256","name":"needed","type":"uint256"}],"name":"ERC20InsufficientBalance","type":"error"},{"inputs":[{"internalType":"address","name":"approver","type":"address"}],"name":"ERC20InvalidApprover","type":"error"},{"inputs":[{"internalType":"address","name":"receiver","type":"address"}],"name":"ERC20InvalidReceiver","type":"error"},{"inputs":[{"internalType":"address","name":"sender","type":"address"}],"name":"ERC20InvalidSender","type":"error"},{"inputs":[{"internalType":"address","name":"spender","type":"address"}],"name":"ERC20InvalidSpender","type":"error"},{"inputs":[{"internalType":"address","name":"receiver","type":"address"},{"internalType":"uint256","name":"assets","type":"uint256"},{"internalType":"uint256","name":"max","type":"uint256"}],"name":"ERC4626ExceededMaxDeposit","type":"error"},{"inputs":[{"internalType":"address","name":"receiver","type":"address"},{"internalType":"uint256","name":"shares","type":"uint256"},{"internalType":"uint256","name":"max","type":"uint256"}],"name":"ERC4626ExceededMaxMint","type":"error"},{"inputs":[{"internalType":"address","name":"owner","type":"address"},{"internalType":"uint256","name":"shares","type":"uint256"},{"internalType":"uint256","name":"max","type":"uint256"}],"name":"ERC4626ExceededMaxRedeem","type":"error"},{"inputs":[{"internalType":"address","name":"owner","type":"address"},{"internalType":"uint256","name":"assets","type":"uint256"},{"internalType":"uint256","name":"max","type":"uint256"}],"name":"ERC4626ExceededMaxWithdraw","type":"error"},{"inputs":[{"internalType":"address","name":"owner","type":"address"}],"name":"OwnableInvalidOwner","type":"error"},{"inputs":[{"internalType":"address","name":"account","type":"address"}],"name":"OwnableUnauthorizedAccount","type":"error"},{"inputs":[],"name":"ReentrancyGuardReentrantCall","type":"error"},{"inputs":[{"internalType":"address","name":"token","type":"address"}],"name":"SafeERC20FailedOperation","type":"error"},{"anonymous":false,"inputs":[{"indexed":true,"internalType":"address","name":"owner","type":"address"},{"indexed":true,"internalType":"address","name":"spender","type":"address"},{"indexed":false,"internalType":"uint256","name":"value","type":"uint256"}],"name":"Approval","type":"event"},{"anonymous":false,"inputs":[{"indexed":true,"internalType":"address","name":"sender","type":"address"},{"indexed":true,"internalType":"address","name":"owner","type":"address"},{"indexed":false,"internalType":"uint256","name":"assets","type":"uint256"},{"indexed":false,"internalType":"uint256","name":"shares","type":"uint256"}],"name":"Deposit","type":"event"},{"anonymous":false,"inputs":[{"indexed":false,"internalType":"uint256","name":"fxrpAmount","type":"uint256"},{"indexed":false,"internalType":"uint256","name":"stXRPReceived","type":"uint256"}],"name":"FirelightDeposit","type":"event"},{"anonymous":false,"inputs":[{"indexed":true,"internalType":"address","name":"firelightVault","type":"address"}],"name":"FirelightVaultSet","type":"event"},{"anonymous":false,"inputs":[{"indexed":false,"internalType":"uint256","name":"stXRPAmount","type":"uint256"},{"indexed":false,"internalType":"uint256","name":"fxrpReceived","type":"uint256"}],"name":"FirelightWithdraw","type":"event"},{"anonymous":false,"inputs":[{"indexed":false,"internalType":"uint256","name":"newMinDeposit","type":"uint256"}],"name":"MinDepositUpdated","type":"event"},{"anonymous":false,"inputs":[{"indexed":true,"internalType":"address","name":"operator","type":"address"}],"name":"OperatorAdded","type":"event"},{"anonymous":false,"inputs":[{"indexed":true,"internalType":"address","name":"operator","type":"address"}],"name":"OperatorRemoved","type":"event"},{"anonymous":false,"inputs":[{"indexed":true,"internalType":"address","name":"previousOwner","type":"address"},{"indexed":true,"internalType":"address","name":"newOwner","type":"address"}],"name":"OwnershipTransferred","type":"event"},{"anonymous":false,"inputs":[{"indexed":true,"internalType":"address","name":"from","type":"address"},{"indexed":true,"internalType":"address","name":"to","type":"address"},{"indexed":false,"internalType":"uint256","name":"value","type":"uint256"}],"name":"Transfer","type":"event"},{"anonymous":false,"inputs":[{"indexed":true,"internalType":"address","name":"sender","type":"address"},{"indexed":true,"internalType":"address","name":"receiver","type":"address"},{"indexed":true,"internalType":"address","name":"owner","type":"address"},{"indexed":false,"internalType":"uint256","name":"assets","type":"uint256"},{"indexed":false,"internalType":"uint256","name":"shares","type":"uint256"}],"name":"Withdraw","type":"event"},{"inputs":[{"internalType":"address","name":"operator","type":"address"}],"name":"addOperator","outputs":[],"stateMutability":"nonpayable","type":"function"},{"inputs":[{"internalType":"address","name":"owner","type":"address"},{"internalType":"address","name":"spender","type":"address"}],"name":"allowance","outputs":[{"internalType":"uint256","name":"","type":"uint256"}],"stateMutability":"view","type":"function"},{"inputs":[{"internalType":"address","name":"spender","type":"address"},{"internalType":"uint256","name":"value","type":"uint256"}],"name":"approve","outputs":[{"internalType":"bool","name":"","type":"bool"}],"stateMutability":"nonpayable","type":"function"},{"inputs":[],"name":"asset","outputs":[{"internalType":"address","name":"","type":"address"}],"stateMutability":"view","type":"function"},{"inputs":[{"internalType":"address","name":"account","type":"address"}],"name":"balanceOf","outputs":[{"internalType":"uint256","name":"","type":"uint256"}],"stateMutability":"view","type":"function"},{"inputs":[{"internalType":"uint256","name":"shares","type":"uint256"}],"name":"convertToAssets","outputs":[{"internalType":"uint256","name":"","type":"uint256"}],"stateMutability":"view","type":"function"},{"inputs":[{"internalType":"uint256","name":"assets","type":"uint256"}],"name":"convertToShares","outputs":[{"internalType":"uint256","name":"","type":"uint256"}],"stateMutability":"view","type":"function"},{"inputs":[],"name":"decimals","outputs":[{"internalType":"uint8","name":"","type":"uint8"}],"stateMutability":"view","type":"function"},{"inputs":[{"internalType":"uint256","name":"assets","type":"uint256"},{"internalType":"address","name":"receiver","type":"address"}],"name":"deposit","outputs":[{"internalType":"uint256","name":"","type":"uint256"}],"stateMutability":"nonpayable","type":"function"},{"inputs":[],"name":"firelightVault","outputs":[{"internalType":"address","name":"","type":"address"}],"stateMutability":"view","type":"function"},{"inputs":[{"internalType":"address","name":"","type":"address"}],"name":"maxDeposit","outputs":[{"internalType":"uint256","name":"","type":"uint256"}],"stateMutability":"view","type":"function"},{"inputs":[{"internalType":"address","name":"","type":"address"}],"name":"maxMint","outputs":[{"internalType":"uint256","name":"","type":"uint256"}],"stateMutability":"view","type":"function"},{"inputs":[{"internalType":"address","name":"owner","type":"address"}],"name":"maxRedeem","outputs":[{"internalType":"uint256","name":"","type":"uint256"}],"stateMutability":"view","type":"function"},{"inputs":[{"internalType":"address","name":"owner","type":"address"}],"name":"maxWithdraw","outputs":[{"internalType":"uint256","name":"","type":"uint256"}],"stateMutability":"view","type":"function"},{"inputs":[],"name":"minDeposit","outputs":[{"internalType":"uint256","name":"","type":"uint256"}],"stateMutability":"view","type":"function"},{"inputs":[{"internalType":"uint256","name":"shares","type":"uint256"},{"internalType":"address","name":"receiver","type":"address"}],"name":"mint","outputs":[{"internalType":"uint256","name":"","type":"uint256"}],"stateMutability":"nonpayable","type":"function"},{"inputs":[],"name":"name","outputs":[{"internalType":"string","name":"","type":"string"}],"stateMutability":"view","type":"function"},{"inputs":[{"internalType":"address","name":"","type":"address"}],"name":"operators","outputs":[{"internalType":"bool","name":"","type":"bool"}],"stateMutability":"view","type":"function"},{"inputs":[],"name":"owner","outputs":[{"internalType":"address","name":"","type":"address"}],"stateMutability":"view","type":"function"},{"inputs":[{"internalType":"uint256","name":"assets","type":"uint256"}],"name":"previewDeposit","outputs":[{"internalType":"uint256","name":"","type":"uint256"}],"stateMutability":"view","type":"function"},{"inputs":[{"internalType":"uint256","name":"shares","type":"uint256"}],"name":"previewMint","outputs":[{"internalType":"uint256","name":"","type":"uint256"}],"stateMutability":"view","type":"function"},{"inputs":[{"internalType":"uint256","name":"shares","type":"uint256"}],"name":"previewRedeem","outputs":[{"internalType":"uint256","name":"","type":"uint256"}],"stateMutability":"view","type":"function"},{"inputs":[{"internalType":"uint256","name":"assets","type":"uint256"}],"name":"previewWithdraw","outputs":[{"internalType":"uint256","name":"","type":"uint256"}],"stateMutability":"view","type":"function"},{"inputs":[{"internalType":"uint256","name":"shares","type":"uint256"},{"internalType":"address","name":"receiver","type":"address"},{"internalType":"address","name":"owner","type":"address"}],"name":"redeem","outputs":[{"internalType":"uint256","name":"","type":"uint256"}],"stateMutability":"nonpayable","type":"function"},{"inputs":[{"internalType":"address","name":"operator","type":"address"}],"name":"removeOperator","outputs":[],"stateMutability":"nonpayable","type":"function"},{"inputs":[],"name":"renounceOwnership","outputs":[],"stateMutability":"nonpayable","type":"function"},{"inputs":[{"internalType":"address","name":"_firelightVault","type":"address"}],"name":"setFirelightVault","outputs":[],"stateMutability":"nonpayable","type":"function"},{"inputs":[{"internalType":"uint256","name":"newMinDeposit","type":"uint256"}],"name":"setMinDeposit","outputs":[],"stateMutability":"nonpayable","type":"function"},{"inputs":[],"name":"symbol","outputs":[{"internalType":"string","name":"","type":"string"}],"stateMutability":"view","type":"function"},{"inputs":[],"name":"totalAssets","outputs":[{"internalType":"uint256","name":"","type":"uint256"}],"stateMutability":"view","type":"function"},{"inputs":[],"name":"totalStXRPDeposited","outputs":[{"internalType":"uint256","name":"","type":"uint256"}],"stateMutability":"view","type":"function"},{"inputs":[],"name":"totalSupply","outputs":[{"internalType":"uint256","name":"","type":"uint256"}],"stateMutability":"view","type":"function"},{"inputs":[{"internalType":"address","name":"to","type":"address"},{"internalType":"uint256","name":"value","type":"uint256"}],"name":"transfer","outputs":[{"internalType":"bool","name":"","type":"bool"}],"stateMutability":"nonpayable","type":"function"},{"inputs":[{"internalType":"address","name":"from","type":"address"},{"internalType":"address","name":"to","type":"address"},{"internalType":"uint256","name":"value","type":"uint256"}],"name":"transferFrom","outputs":[{"internalType":"bool","name":"","type":"bool"}],"stateMutability":"nonpayable","type":"function"},{"inputs":[{"internalType":"address","name":"newOwner","type":"address"}],"name":"transferOwnership","outputs":[],"stateMutability":"nonpayable","type":"function"},{"inputs":[{"internalType":"uint256","name":"assets","type":"uint256"},{"internalType":"address","name":"receiver","type":"address"},{"internalType":"address","name":"owner","type":"address"}],"name":"withdraw","outputs":[{"internalType":"uint256","name":"","type":"uint256"}],"stateMutability":"nonpayable","type":"function"}],"evm":{"bytecode":{"linkReferences":{},"object":"60c0604052662386f26fc100006008553480156200001b575f80fd5b5060405162001d5338038062001d538339810160408190526200003e916200036d565b3383838360036200005083826200047d565b5060046200005f82826200047d565b5050505f8062000075836200017760201b60201c565b91509150816200008757601262000089565b805b60ff1660a05250506001600160a01b039081166080528116620000c657604051631e4fbdf760e01b81525f60048201526024015b60405180910390fd5b620000d18162000256565b5060016006556001600160a01b0383166200012f5760405162461bcd60e51b815260206004820152601a60248201527f496e76616c6964204658525020746f6b656e20616464726573730000000000006044820152606401620000bd565b335f81815260076020526040808220805460ff19166001179055517fac6fa858e9350a46cec16539926e0fde25b7629f84b5a72bffaae4df888ae86d9190a25050506200057a565b60408051600481526024810182526020810180516001600160e01b031663313ce56760e01b17905290515f918291829182916001600160a01b03871691620001bf9162000545565b5f60405180830381855afa9150503d805f8114620001f9576040519150601f19603f3d011682016040523d82523d5f602084013e620001fe565b606091505b50915091508180156200021357506020815110155b156200024a575f8180602001905181019062000230919062000562565b905060ff811162000248576001969095509350505050565b505b505f9485945092505050565b600580546001600160a01b038381166001600160a01b0319831681179093556040519116919082907f8be0079c531659141344cd1fd0a4f28419497f9722a3daafe3b4186f6b6457e0905f90a35050565b634e487b7160e01b5f52604160045260245ffd5b5f5b83811015620002d7578181015183820152602001620002bd565b50505f910152565b5f82601f830112620002ef575f80fd5b81516001600160401b03808211156200030c576200030c620002a7565b604051601f8301601f19908116603f01168101908282118183101715620003375762000337620002a7565b8160405283815286602085880101111562000350575f80fd5b62000363846020830160208901620002bb565b9695505050505050565b5f805f6060848603121562000380575f80fd5b83516001600160a01b038116811462000397575f80fd5b60208501519093506001600160401b0380821115620003b4575f80fd5b620003c287838801620002df565b93506040860151915080821115620003d8575f80fd5b50620003e786828701620002df565b9150509250925092565b600181811c908216806200040657607f821691505b6020821081036200042557634e487b7160e01b5f52602260045260245ffd5b50919050565b601f82111562000478575f81815260208120601f850160051c81016020861015620004535750805b601f850160051c820191505b8181101562000474578281556001016200045f565b5050505b505050565b81516001600160401b03811115620004995762000499620002a7565b620004b181620004aa8454620003f1565b846200042b565b602080601f831160018114620004e7575f8415620004cf5750858301515b5f19600386901b1c1916600185901b17855562000474565b5f85815260208120601f198616915b828110156200051757888601518255948401946001909101908401620004f6565b50858210156200053557878501515f19600388901b60f8161c191681555b5050505050600190811b01905550565b5f825162000558818460208701620002bb565b9190910192915050565b5f6020828403121562000573575f80fd5b5051919050565b60805160a0516117a2620005b15f395f61071b01525f8181610314015281816104ef0152818161104401526110f601526117a25ff3fe608060405234801561000f575f80fd5b5060043610610213575f3560e01c80638c7fb1481161011f578063b460af94116100a9578063ce96cb7711610079578063ce96cb771461047a578063d905777e1461048d578063dd62ed3e146104a0578063ef8b30f714610467578063f2fde38b146104d8575f80fd5b8063b460af9414610441578063ba08765214610454578063c63d75b614610338578063c6e6f59214610467575f80fd5b806395d89b41116100ef57806395d89b41146103ed5780639870d7fe146103f5578063a9059cbb14610408578063ac8a584a1461041b578063b3d7f6b91461042e575f80fd5b80638c7fb148146103a35780638da5cb5b146103b65780638fcc9cfb146103c757806394bf804d146103da575f80fd5b8063313ce567116101a05780634cdad506116101705780634cdad5061461024757806361bd63a2146103555780636e553f651461035e57806370a0823114610371578063715018a614610399575f80fd5b8063313ce567146102f857806338d52e0f14610312578063402d267d1461033857806341b3d1851461034c575f80fd5b80630a28a477116101e65780630a28a4771461027d57806313e7c9d81461029057806317167e64146102b257806318160ddd146102dd57806323b872dd146102e5575f80fd5b806301e1d1141461021757806306fdde031461023257806307a2d13a14610247578063095ea7b31461025a575b5f80fd5b61021f6104eb565b6040519081526020015b60405180910390f35b61023a610631565b60405161022991906113fc565b61021f610255366004611447565b6106c1565b61026d610268366004611474565b6106cc565b6040519015158152602001610229565b61021f61028b366004611447565b6106e3565b61026d61029e36600461149c565b60076020525f908152604090205460ff1681565b6009546102c5906001600160a01b031681565b6040516001600160a01b039091168152602001610229565b60025461021f565b61026d6102f33660046114b5565b6106ef565b610300610714565b60405160ff9091168152602001610229565b7f00000000000000000000000000000000000000000000000000000000000000006102c5565b61021f61034636600461149c565b505f1990565b61021f60085481565b61021f600a5481565b61021f61036c3660046114ee565b610744565b61021f61037f36600461149c565b6001600160a01b03165f9081526020819052604090205490565b6103a16107b2565b005b6103a16103b136600461149c565b6107c5565b6005546001600160a01b03166102c5565b6103a16103d5366004611447565b61086c565b61021f6103e83660046114ee565b6108fe565b61023a610974565b6103a161040336600461149c565b610983565b61026d610416366004611474565b610a2c565b6103a161042936600461149c565b610a39565b61021f61043c366004611447565b610a89565b61021f61044f366004611518565b610a95565b61021f610462366004611518565b610ab5565b61021f610475366004611447565b610ac9565b61021f61048836600461149c565b610ad4565b61021f61049b36600461149c565b610af6565b61021f6104ae366004611551565b6001600160a01b039182165f90815260016020908152604080832093909416825291909152205490565b6103a16104e636600461149c565b610b13565b5f807f00000000000000000000000000000000000000000000000000000000000000006040516370a0823160e01b81523060048201526001600160a01b0391909116906370a0823190602401602060405180830381865afa158015610552573d5f803e3d5ffd5b505050506040513d601f19601f820116820180604052508101906105769190611579565b6009549091506001600160a01b03161580159061059457505f600a54115b1561062c57600954600a546040516303d1689d60e11b81526001600160a01b03909216916307a2d13a916105ce9160040190815260200190565b602060405180830381865afa925050508015610607575060408051601f3d908101601f1916820190925261060491810190611579565b60015b61061e57600a5461061890826115a4565b92915050565b61062881836115a4565b9150505b919050565b606060038054610640906115b7565b80601f016020809104026020016040519081016040528092919081815260200182805461066c906115b7565b80156106b75780601f1061068e576101008083540402835291602001916106b7565b820191905f5260205f20905b81548152906001019060200180831161069a57829003601f168201915b5050505050905090565b5f610618825f610b50565b5f336106d9818585610b88565b5060019392505050565b5f610618826001610b9a565b5f336106fc858285610bc9565b610707858585610c32565b60019150505b9392505050565b5f61073f817f00000000000000000000000000000000000000000000000000000000000000006115ef565b905090565b5f61074d610c8f565b60085483101561079c5760405162461bcd60e51b815260206004820152601560248201527410995b1bddc81b5a5b9a5b5d5b4819195c1bdcda5d605a1b60448201526064015b60405180910390fd5b6107a68383610cb9565b90506106186001600655565b6107ba610cdc565b6107c35f610d09565b565b6107cd610cdc565b6001600160a01b0381166108235760405162461bcd60e51b815260206004820152601760248201527f496e76616c696420466972656c69676874207661756c740000000000000000006044820152606401610793565b600980546001600160a01b0319166001600160a01b0383169081179091556040517f14450eee6c339481f8271167fe83be76f78a19ee0773c874ae262dcfe35edf9a905f90a250565b610874610cdc565b5f81116108c35760405162461bcd60e51b815260206004820152601c60248201527f4d696e206465706f736974206d75737420626520706f736974697665000000006044820152606401610793565b60088190556040518181527f96a008f96f1c0ab9fa3d9ddd43cdfc614848c4d054d51f43662ed900e9d094c89060200160405180910390a150565b5f610907610c8f565b5f61091184610a89565b905060085481101561095d5760405162461bcd60e51b815260206004820152601560248201527410995b1bddc81b5a5b9a5b5d5b4819195c1bdcda5d605a1b6044820152606401610793565b6109678484610d5a565b9150506106186001600655565b606060048054610640906115b7565b61098b610cdc565b6001600160a01b0381166109e15760405162461bcd60e51b815260206004820152601860248201527f496e76616c6964206f70657261746f72206164647265737300000000000000006044820152606401610793565b6001600160a01b0381165f81815260076020526040808220805460ff19166001179055517fac6fa858e9350a46cec16539926e0fde25b7629f84b5a72bffaae4df888ae86d9190a250565b5f336106d9818585610c32565b610a41610cdc565b6001600160a01b0381165f81815260076020526040808220805460ff19169055517f80c0b871b97b595b16a7741c1b06fed0c6f6f558639f18ccbce50724325dc40d9190a250565b5f610618826001610b50565b5f610a9e610c8f565b610aa9848484610d75565b905061070d6001600655565b5f610abe610c8f565b610aa9848484610dcb565b5f610618825f610b9a565b6001600160a01b0381165f90815260208190526040812054610618905f610b50565b6001600160a01b0381165f90815260208190526040812054610618565b610b1b610cdc565b6001600160a01b038116610b4457604051631e4fbdf760e01b81525f6004820152602401610793565b610b4d81610d09565b50565b5f61070d610b5c6104eb565b610b679060016115a4565b610b725f600a6116e8565b600254610b7f91906115a4565b85919085610e18565b610b958383836001610e5a565b505050565b5f61070d610ba982600a6116e8565b600254610bb691906115a4565b610bbe6104eb565b610b7f9060016115a4565b6001600160a01b038381165f908152600160209081526040808320938616835292905220545f19811015610c2c5781811015610c1e57828183604051637dc7a0d960e11b8152600401610793939291906116f6565b610c2c84848484035f610e5a565b50505050565b6001600160a01b038316610c5b57604051634b637e8f60e11b81525f6004820152602401610793565b6001600160a01b038216610c845760405163ec442f0560e01b81525f6004820152602401610793565b610b95838383610f2c565b600260065403610cb257604051633ee5aeb560e01b815260040160405180910390fd5b6002600655565b5f5f195f610cc685610ac9565b9050610cd43385878461103f565b949350505050565b6005546001600160a01b031633146107c35760405163118cdaa760e01b8152336004820152602401610793565b600580546001600160a01b038381166001600160a01b0319831681179093556040519116919082907f8be0079c531659141344cd1fd0a4f28419497f9722a3daafe3b4186f6b6457e0905f90a35050565b5f5f195f610d6785610a89565b9050610cd43385838861103f565b5f80610d8083610ad4565b905080851115610da957828582604051633fa733bb60e21b8152600401610793939291906116f6565b5f610db3866106e3565b9050610dc233868689856110c3565b95945050505050565b5f80610dd683610af6565b905080851115610dff57828582604051632e52afbb60e21b8152600401610793939291906116f6565b5f610e09866106c1565b9050610dc2338686848a6110c3565b5f610e45610e2583611183565b8015610e4057505f8480610e3b57610e3b611717565b868809115b151590565b610e508686866111af565b610dc291906115a4565b6001600160a01b038416610e835760405163e602df0560e01b81525f6004820152602401610793565b6001600160a01b038316610eac57604051634a1406b160e11b81525f6004820152602401610793565b6001600160a01b038085165f9081526001602090815260408083209387168352929052208290558015610c2c57826001600160a01b0316846001600160a01b03167f8c5be1e5ebec7d5bd14f71427d1e84f3dd0314c0f7b2291e5b200ac8c7c3b92584604051610f1e91815260200190565b60405180910390a350505050565b6001600160a01b038316610f56578060025f828254610f4b91906115a4565b90915550610fb39050565b6001600160a01b0383165f9081526020819052604090205481811015610f955783818360405163391434e360e21b8152600401610793939291906116f6565b6001600160a01b0384165f9081526020819052604090209082900390555b6001600160a01b038216610fcf57600280548290039055610fed565b6001600160a01b0382165f9081526020819052604090208054820190555b816001600160a01b0316836001600160a01b03167fddf252ad1be2c89b69c2b068fc378daa952ba7f163c4a11628f55a4df523b3ef8360405161103291815260200190565b60405180910390a3505050565b61106b7f000000000000000000000000000000000000000000000000000000000000000085308561125f565b61107583826112c6565b826001600160a01b0316846001600160a01b03167fdcbc1c05240f31ff3ad067ef1ee35ce4997762752e3a095284754544f4c709d78484604051610f1e929190918252602082015260400190565b826001600160a01b0316856001600160a01b0316146110e7576110e7838683610bc9565b6110f183826112fe565b61111c7f00000000000000000000000000000000000000000000000000000000000000008584611332565b826001600160a01b0316846001600160a01b0316866001600160a01b03167ffbde797d201c681b91056529119e0b02407c7bb96a4a2c75c01fc9667232c8db8585604051611174929190918252602082015260400190565b60405180910390a45050505050565b5f60028260038111156111985761119861172b565b6111a2919061173f565b60ff166001149050919050565b5f805f6111bc8686611363565b91509150815f036111e0578381816111d6576111d6611717565b049250505061070d565b8184116111f7576111f7600385150260111861137f565b5f848688095f868103871696879004966002600389028118808a02820302808a02820302808a02820302808a02820302808a02820302808a02909103029181900381900460010185841190960395909502919093039390930492909217029150509392505050565b6040516001600160a01b038481166024830152838116604483015260648201839052610c2c9186918216906323b872dd906084015b604051602081830303815290604052915060e01b6020820180516001600160e01b038381831617835250505050611390565b6001600160a01b0382166112ef5760405163ec442f0560e01b81525f6004820152602401610793565b6112fa5f8383610f2c565b5050565b6001600160a01b03821661132757604051634b637e8f60e11b81525f6004820152602401610793565b6112fa825f83610f2c565b6040516001600160a01b03838116602483015260448201839052610b9591859182169063a9059cbb90606401611294565b5f805f1983850993909202808410938190039390930393915050565b634e487b715f52806020526024601cfd5b5f8060205f8451602086015f885af1806113af576040513d5f823e3d81fd5b50505f513d915081156113c65780600114156113d3565b6001600160a01b0384163b155b15610c2c57604051635274afe760e01b81526001600160a01b0385166004820152602401610793565b5f6020808352835180828501525f5b818110156114275785810183015185820160400152820161140b565b505f604082860101526040601f19601f8301168501019250505092915050565b5f60208284031215611457575f80fd5b5035919050565b80356001600160a01b038116811461062c575f80fd5b5f8060408385031215611485575f80fd5b61148e8361145e565b946020939093013593505050565b5f602082840312156114ac575f80fd5b61070d8261145e565b5f805f606084860312156114c7575f80fd5b6114d08461145e565b92506114de6020850161145e565b9150604084013590509250925092565b5f80604083850312156114ff575f80fd5b8235915061150f6020840161145e565b90509250929050565b5f805f6060848603121561152a575f80fd5b8335925061153a6020850161145e565b91506115486040850161145e565b90509250925092565b5f8060408385031215611562575f80fd5b61156b8361145e565b915061150f6020840161145e565b5f60208284031215611589575f80fd5b5051919050565b634e487b7160e01b5f52601160045260245ffd5b8082018082111561061857610618611590565b600181811c908216806115cb57607f821691505b6020821081036115e957634e487b7160e01b5f52602260045260245ffd5b50919050565b60ff818116838216019081111561061857610618611590565b600181815b8085111561164257815f190482111561162857611628611590565b8085161561163557918102915b93841c939080029061160d565b509250929050565b5f8261165857506001610618565b8161166457505f610618565b816001811461167a5760028114611684576116a0565b6001915050610618565b60ff84111561169557611695611590565b50506001821b610618565b5060208310610133831016604e8410600b84101617156116c3575081810a610618565b6116cd8383611608565b805f19048211156116e0576116e0611590565b029392505050565b5f61070d60ff84168361164a565b6001600160a01b039390931683526020830191909152604082015260600190565b634e487b7160e01b5f52601260045260245ffd5b634e487b7160e01b5f52602160045260245ffd5b5f60ff83168061175d57634e487b7160e01b5f52601260045260245ffd5b8060ff8416069150509291505056fea2646970667358221220fd426f2ca1a26da4508023d715aba887edcb058f7ecb9e1871409bcf6f42bddb64736f6c63430008140033","opcodes":"PUSH1 0xC0 PUSH1 0x40 MSTORE PUSH7 0x2386F26FC10000 PUSH1 0x8 SSTORE CALLVALUE DUP1 ISZERO PUSH3 0x1B JUMPI PUSH0 DUP1 REVERT JUMPDEST POP PUSH1 0x40 MLOAD PUSH3 0x1D53 CODESIZE SUB DUP1 PUSH3 0x1D53 DUP4 CODECOPY DUP2 ADD PUSH1 0x40 DUP2 SWAP1 MSTORE PUSH3 0x3E SWAP2 PUSH3 0x36D JUMP JUMPDEST CALLER DUP4 DUP4 DUP4 PUSH1 0x3 PUSH3 0x50 DUP4 DUP3 PUSH3 0x47D JUMP JUMPDEST POP PUSH1 0x4 PUSH3 0x5F DUP3 DUP3 PUSH3 0x47D JUMP JUMPDEST POP POP POP PUSH0 DUP1 PUSH3 0x75 DUP4 PUSH3 0x177 PUSH1 0x20 SHL PUSH1 0x20 SHR JUMP JUMPDEST SWAP2 POP SWAP2 POP DUP2 PUSH3 0x87 JUMPI PUSH1 0x12 PUSH3 0x89 JUMP JUMPDEST DUP1 JUMPDEST PUSH1 0xFF AND PUSH1 0xA0 MSTORE POP POP PUSH1 0x1 PUSH1 0x1 PUSH1 0xA0 SHL SUB SWAP1 DUP2 AND PUSH1 0x80 MSTORE DUP2 AND PUSH3 0xC6 JUMPI PUSH1 0x40 MLOAD PUSH4 0x1E4FBDF7 PUSH1 0xE0 SHL DUP2 MSTORE PUSH0 PUSH1 0x4 DUP3 ADD MSTORE PUSH1 0x24 ADD JUMPDEST PUSH1 0x40 MLOAD DUP1 SWAP2 SUB SWAP1 REVERT JUMPDEST PUSH3 0xD1 DUP2 PUSH3 0x256 JUMP JUMPDEST POP PUSH1 0x1 PUSH1 0x6 SSTORE PUSH1 0x1 PUSH1 0x1 PUSH1 0xA0 SHL SUB DUP4 AND PUSH3 0x12F JUMPI PUSH1 0x40 MLOAD PUSH3 0x461BCD PUSH1 0xE5 SHL DUP2 MSTORE PUSH1 0x20 PUSH1 0x4 DUP3 ADD MSTORE PUSH1 0x1A PUSH1 0x24 DUP3 ADD MSTORE PUSH32 0x496E76616C6964204658525020746F6B656E2061646472657373000000000000 PUSH1 0x44 DUP3 ADD MSTORE PUSH1 0x64 ADD PUSH3 0xBD JUMP JUMPDEST CALLER PUSH0 DUP2 DUP2 MSTORE PUSH1 0x7 PUSH1 0x20 MSTORE PUSH1 0x40 DUP1 DUP3 KECCAK256 DUP1 SLOAD PUSH1 0xFF NOT AND PUSH1 0x1 OR SWAP1 SSTORE MLOAD PUSH32 0xAC6FA858E9350A46CEC16539926E0FDE25B7629F84B5A72BFFAAE4DF888AE86D SWAP2 SWAP1 LOG2 POP POP POP PUSH3 0x57A JUMP JUMPDEST PUSH1 0x40 DUP1 MLOAD PUSH1 0x4 DUP2 MSTORE PUSH1 0x24 DUP2 ADD DUP3 MSTORE PUSH1 0x20 DUP2 ADD DUP1 MLOAD PUSH1 0x1 PUSH1 0x1 PUSH1 0xE0 SHL SUB AND PUSH4 0x313CE567 PUSH1 0xE0 SHL OR SWAP1 MSTORE SWAP1 MLOAD PUSH0 SWAP2 DUP3 SWAP2 DUP3 SWAP2 DUP3 SWAP2 PUSH1 0x1 PUSH1 0x1 PUSH1 0xA0 SHL SUB DUP8 AND SWAP2 PUSH3 0x1BF SWAP2 PUSH3 0x545 JUMP JUMPDEST PUSH0 PUSH1 0x40 MLOAD DUP1 DUP4 SUB DUP2 DUP6 GAS STATICCALL SWAP2 POP POP RETURNDATASIZE DUP1 PUSH0 DUP2 EQ PUSH3 0x1F9 JUMPI PUSH1 0x40 MLOAD SWAP2 POP PUSH1 0x1F NOT PUSH1 0x3F RETURNDATASIZE ADD AND DUP3 ADD PUSH1 0x40 MSTORE RETURNDATASIZE DUP3 MSTORE RETURNDATASIZE PUSH0 PUSH1 0x20 DUP5 ADD RETURNDATACOPY PUSH3 0x1FE JUMP JUMPDEST PUSH1 0x60 SWAP2 POP JUMPDEST POP SWAP2 POP SWAP2 POP DUP2 DUP1 ISZERO PUSH3 0x213 JUMPI POP PUSH1 0x20 DUP2 MLOAD LT ISZERO JUMPDEST ISZERO PUSH3 0x24A JUMPI PUSH0 DUP2 DUP1 PUSH1 0x20 ADD SWAP1 MLOAD DUP2 ADD SWAP1 PUSH3 0x230 SWAP2 SWAP1 PUSH3 0x562 JUMP JUMPDEST SWAP1 POP PUSH1 0xFF DUP2 GT PUSH3 0x248 JUMPI PUSH1 0x1 SWAP7 SWAP1 SWAP6 POP SWAP4 POP POP POP POP JUMP JUMPDEST POP JUMPDEST POP PUSH0 SWAP5 DUP6 SWAP5 POP SWAP3 POP POP POP JUMP JUMPDEST PUSH1 0x5 DUP1 SLOAD PUSH1 0x1 PUSH1 0x1 PUSH1 0xA0 SHL SUB DUP4 DUP2 AND PUSH1 0x1 PUSH1 0x1 PUSH1 0xA0 SHL SUB NOT DUP4 AND DUP2 OR SWAP1 SWAP4 SSTORE PUSH1 0x40 MLOAD SWAP2 AND SWAP2 SWAP1 DUP3 SWAP1 PUSH32 0x8BE0079C531659141344CD1FD0A4F28419497F9722A3DAAFE3B4186F6B6457E0 SWAP1 PUSH0 SWAP1 LOG3 POP POP JUMP JUMPDEST PUSH4 0x4E487B71 PUSH1 0xE0 SHL PUSH0 MSTORE PUSH1 0x41 PUSH1 0x4 MSTORE PUSH1 0x24 PUSH0 REVERT JUMPDEST PUSH0 JUMPDEST DUP4 DUP2 LT ISZERO PUSH3 0x2D7 JUMPI DUP2 DUP2 ADD MLOAD DUP4 DUP3 ADD MSTORE PUSH1 0x20 ADD PUSH3 0x2BD JUMP JUMPDEST POP POP PUSH0 SWAP2 ADD MSTORE JUMP JUMPDEST PUSH0 DUP3 PUSH1 0x1F DUP4 ADD SLT PUSH3 0x2EF JUMPI PUSH0 DUP1 REVERT JUMPDEST DUP2 MLOAD PUSH1 0x1 PUSH1 0x1 PUSH1 0x40 SHL SUB DUP1 DUP3 GT ISZERO PUSH3 0x30C JUMPI PUSH3 0x30C PUSH3 0x2A7 JUMP JUMPDEST PUSH1 0x40 MLOAD PUSH1 0x1F DUP4 ADD PUSH1 0x1F NOT SWAP1 DUP2 AND PUSH1 0x3F ADD AND DUP2 ADD SWAP1 DUP3 DUP3 GT DUP2 DUP4 LT OR ISZERO PUSH3 0x337 JUMPI PUSH3 0x337 PUSH3 0x2A7 JUMP JUMPDEST DUP2 PUSH1 0x40 MSTORE DUP4 DUP2 MSTORE DUP7 PUSH1 0x20 DUP6 DUP9 ADD ADD GT ISZERO PUSH3 0x350 JUMPI PUSH0 DUP1 REVERT JUMPDEST PUSH3 0x363 DUP5 PUSH1 0x20 DUP4 ADD PUSH1 0x20 DUP10 ADD PUSH3 0x2BB JUMP JUMPDEST SWAP7 SWAP6 POP POP POP POP POP POP JUMP JUMPDEST PUSH0 DUP1 PUSH0 PUSH1 0x60 DUP5 DUP7 SUB SLT ISZERO PUSH3 0x380 JUMPI PUSH0 DUP1 REVERT JUMPDEST DUP4 MLOAD PUSH1 0x1 PUSH1 0x1 PUSH1 0xA0 SHL SUB DUP2 AND DUP2 EQ PUSH3 0x397 JUMPI PUSH0 DUP1 REVERT JUMPDEST PUSH1 0x20 DUP6 ADD MLOAD SWAP1 SWAP4 POP PUSH1 0x1 PUSH1 0x1 PUSH1 0x40 SHL SUB DUP1 DUP3 GT ISZERO PUSH3 0x3B4 JUMPI PUSH0 DUP1 REVERT JUMPDEST PUSH3 0x3C2 DUP8 DUP4 DUP9 ADD PUSH3 0x2DF JUMP JUMPDEST SWAP4 POP PUSH1 0x40 DUP7 ADD MLOAD SWAP2 POP DUP1 DUP3 GT ISZERO PUSH3 0x3D8 JUMPI PUSH0 DUP1 REVERT JUMPDEST POP PUSH3 0x3E7 DUP7 DUP3 DUP8 ADD PUSH3 0x2DF JUMP JUMPDEST SWAP2 POP POP SWAP3 POP SWAP3 POP SWAP3 JUMP JUMPDEST PUSH1 0x1 DUP2 DUP2 SHR SWAP1 DUP3 AND DUP1 PUSH3 0x406 JUMPI PUSH1 0x7F DUP3 AND SWAP2 POP JUMPDEST PUSH1 0x20 DUP3 LT DUP2 SUB PUSH3 0x425 JUMPI PUSH4 0x4E487B71 PUSH1 0xE0 SHL PUSH0 MSTORE PUSH1 0x22 PUSH1 0x4 MSTORE PUSH1 0x24 PUSH0 REVERT JUMPDEST POP SWAP2 SWAP1 POP JUMP JUMPDEST PUSH1 0x1F DUP3 GT ISZERO PUSH3 0x478 JUMPI PUSH0 DUP2 DUP2 MSTORE PUSH1 0x20 DUP2 KECCAK256 PUSH1 0x1F DUP6 ADD PUSH1 0x5 SHR DUP2 ADD PUSH1 0x20 DUP7 LT ISZERO PUSH3 0x453 JUMPI POP DUP1 JUMPDEST PUSH1 0x1F DUP6 ADD PUSH1 0x5 SHR DUP3 ADD SWAP2 POP JUMPDEST DUP2 DUP2 LT ISZERO PUSH3 0x474 JUMPI DUP3 DUP2 SSTORE PUSH1 0x1 ADD PUSH3 0x45F JUMP JUMPDEST POP POP POP JUMPDEST POP POP POP JUMP JUMPDEST DUP2 MLOAD PUSH1 0x1 PUSH1 0x1 PUSH1 0x40 SHL SUB DUP2 GT ISZERO PUSH3 0x499 JUMPI PUSH3 0x499 PUSH3 0x2A7 JUMP JUMPDEST PUSH3 0x4B1 DUP2 PUSH3 0x4AA DUP5 SLOAD PUSH3 0x3F1 JUMP JUMPDEST DUP5 PUSH3 0x42B JUMP JUMPDEST PUSH1 0x20 DUP1 PUSH1 0x1F DUP4 GT PUSH1 0x1 DUP2 EQ PUSH3 0x4E7 JUMPI PUSH0 DUP5 ISZERO PUSH3 0x4CF JUMPI POP DUP6 DUP4 ADD MLOAD JUMPDEST PUSH0 NOT PUSH1 0x3 DUP7 SWAP1 SHL SHR NOT AND PUSH1 0x1 DUP6 SWAP1 SHL OR DUP6 SSTORE PUSH3 0x474 JUMP JUMPDEST PUSH0 DUP6 DUP2 MSTORE PUSH1 0x20 DUP2 KECCAK256 PUSH1 0x1F NOT DUP7 AND SWAP2 JUMPDEST DUP3 DUP2 LT ISZERO PUSH3 0x517 JUMPI DUP9 DUP7 ADD MLOAD DUP3 SSTORE SWAP5 DUP5 ADD SWAP5 PUSH1 0x1 SWAP1 SWAP2 ADD SWAP1 DUP5 ADD PUSH3 0x4F6 JUMP JUMPDEST POP DUP6 DUP3 LT ISZERO PUSH3 0x535 JUMPI DUP8 DUP6 ADD MLOAD PUSH0 NOT PUSH1 0x3 DUP9 SWAP1 SHL PUSH1 0xF8 AND SHR NOT AND DUP2 SSTORE JUMPDEST POP POP POP POP POP PUSH1 0x1 SWAP1 DUP2 SHL ADD SWAP1 SSTORE POP JUMP JUMPDEST PUSH0 DUP3 MLOAD PUSH3 0x558 DUP2 DUP5 PUSH1 0x20 DUP8 ADD PUSH3 0x2BB JUMP JUMPDEST SWAP2 SWAP1 SWAP2 ADD SWAP3 SWAP2 POP POP JUMP JUMPDEST PUSH0 PUSH1 0x20 DUP3 DUP5 SUB SLT ISZERO PUSH3 0x573 JUMPI PUSH0 DUP1 REVERT JUMPDEST POP MLOAD SWAP2 SWAP1 POP JUMP JUMPDEST PUSH1 0x80 MLOAD PUSH1 0xA0 MLOAD PUSH2 0x17A2 PUSH3 0x5B1 PUSH0 CODECOPY PUSH0 PUSH2 0x71B ADD MSTORE PUSH0 DUP2 DUP2 PUSH2 0x314 ADD MSTORE DUP2 DUP2 PUSH2 0x4EF ADD MSTORE DUP2 DUP2 PUSH2 0x1044 ADD MSTORE PUSH2 0x10F6 ADD MSTORE PUSH2 0x17A2 PUSH0 RETURN INVALID PUSH1 0x80 PUSH1 0x40 MSTORE CALLVALUE DUP1 ISZERO PUSH2 0xF JUMPI PUSH0 DUP1 REVERT JUMPDEST POP PUSH1 0x4 CALLDATASIZE LT PUSH2 0x213 JUMPI PUSH0 CALLDATALOAD PUSH1 0xE0 SHR DUP1 PUSH4 0x8C7FB148 GT PUSH2 0x11F JUMPI DUP1 PUSH4 0xB460AF94 GT PUSH2 0xA9 JUMPI DUP1 PUSH4 0xCE96CB77 GT PUSH2 0x79 JUMPI DUP1 PUSH4 0xCE96CB77 EQ PUSH2 0x47A JUMPI DUP1 PUSH4 0xD905777E EQ PUSH2 0x48D JUMPI DUP1 PUSH4 0xDD62ED3E EQ PUSH2 0x4A0 JUMPI DUP1 PUSH4 0xEF8B30F7 EQ PUSH2 0x467 JUMPI DUP1 PUSH4 0xF2FDE38B EQ PUSH2 0x4D8 JUMPI PUSH0 DUP1 REVERT JUMPDEST DUP1 PUSH4 0xB460AF94 EQ PUSH2 0x441 JUMPI DUP1 PUSH4 0xBA087652 EQ PUSH2 0x454 JUMPI DUP1 PUSH4 0xC63D75B6 EQ PUSH2 0x338 JUMPI DUP1 PUSH4 0xC6E6F592 EQ PUSH2 0x467 JUMPI PUSH0 DUP1 REVERT JUMPDEST DUP1 PUSH4 0x95D89B41 GT PUSH2 0xEF JUMPI DUP1 PUSH4 0x95D89B41 EQ PUSH2 0x3ED JUMPI DUP1 PUSH4 0x9870D7FE EQ PUSH2 0x3F5 JUMPI DUP1 PUSH4 0xA9059CBB EQ PUSH2 0x408 JUMPI DUP1 PUSH4 0xAC8A584A EQ PUSH2 0x41B JUMPI DUP1 PUSH4 0xB3D7F6B9 EQ PUSH2 0x42E JUMPI PUSH0 DUP1 REVERT JUMPDEST DUP1 PUSH4 0x8C7FB148 EQ PUSH2 0x3A3 JUMPI DUP1 PUSH4 0x8DA5CB5B EQ PUSH2 0x3B6 JUMPI DUP1 PUSH4 0x8FCC9CFB EQ PUSH2 0x3C7 JUMPI DUP1 PUSH4 0x94BF804D EQ PUSH2 0x3DA JUMPI PUSH0 DUP1 REVERT JUMPDEST DUP1 PUSH4 0x313CE567 GT PUSH2 0x1A0 JUMPI DUP1 PUSH4 0x4CDAD506 GT PUSH2 0x170 JUMPI DUP1 PUSH4 0x4CDAD506 EQ PUSH2 0x247 JUMPI DUP1 PUSH4 0x61BD63A2 EQ PUSH2 0x355 JUMPI DUP1 PUSH4 0x6E553F65 EQ PUSH2 0x35E JUMPI DUP1 PUSH4 0x70A08231 EQ PUSH2 0x371 JUMPI DUP1 PUSH4 0x715018A6 EQ PUSH2 0x399 JUMPI PUSH0 DUP1 REVERT JUMPDEST DUP1 PUSH4 0x313CE567 EQ PUSH2 0x2F8 JUMPI DUP1 PUSH4 0x38D52E0F EQ PUSH2 0x312 JUMPI DUP1 PUSH4 0x402D267D EQ PUSH2 0x338 JUMPI DUP1 PUSH4 0x41B3D185 EQ PUSH2 0x34C JUMPI PUSH0 DUP1 REVERT JUMPDEST DUP1 PUSH4 0xA28A477 GT PUSH2 0x1E6 JUMPI DUP1 PUSH4 0xA28A477 EQ PUSH2 0x27D JUMPI DUP1 PUSH4 0x13E7C9D8 EQ PUSH2 0x290 JUMPI DUP1 PUSH4 0x17167E64 EQ PUSH2 0x2B2 JUMPI DUP1 PUSH4 0x18160DDD EQ PUSH2 0x2DD JUMPI DUP1 PUSH4 0x23B872DD EQ PUSH2 0x2E5 JUMPI PUSH0 DUP1 REVERT JUMPDEST DUP1 PUSH4 0x1E1D114 EQ PUSH2 0x217 JUMPI DUP1 PUSH4 0x6FDDE03 EQ PUSH2 0x232 JUMPI DUP1 PUSH4 0x7A2D13A EQ PUSH2 0x247 JUMPI DUP1 PUSH4 0x95EA7B3 EQ PUSH2 0x25A JUMPI JUMPDEST PUSH0 DUP1 REVERT JUMPDEST PUSH2 0x21F PUSH2 0x4EB JUMP JUMPDEST PUSH1 0x40 MLOAD SWAP1 DUP2 MSTORE PUSH1 0x20 ADD JUMPDEST PUSH1 0x40 MLOAD DUP1 SWAP2 SUB SWAP1 RETURN JUMPDEST PUSH2 0x23A PUSH2 0x631 JUMP JUMPDEST PUSH1 0x40 MLOAD PUSH2 0x229 SWAP2 SWAP1 PUSH2 0x13FC JUMP JUMPDEST PUSH2 0x21F PUSH2 0x255 CALLDATASIZE PUSH1 0x4 PUSH2 0x1447 JUMP JUMPDEST PUSH2 0x6C1 JUMP JUMPDEST PUSH2 0x26D PUSH2 0x268 CALLDATASIZE PUSH1 0x4 PUSH2 0x1474 JUMP JUMPDEST PUSH2 0x6CC JUMP JUMPDEST PUSH1 0x40 MLOAD SWAP1 ISZERO ISZERO DUP2 MSTORE PUSH1 0x20 ADD PUSH2 0x229 JUMP JUMPDEST PUSH2 0x21F PUSH2 0x28B CALLDATASIZE PUSH1 0x4 PUSH2 0x1447 JUMP JUMPDEST PUSH2 0x6E3 JUMP JUMPDEST PUSH2 0x26D PUSH2 0x29E CALLDATASIZE PUSH1 0x4 PUSH2 0x149C JUMP JUMPDEST PUSH1 0x7 PUSH1 0x20 MSTORE PUSH0 SWAP1 DUP2 MSTORE PUSH1 0x40 SWAP1 KECCAK256 SLOAD PUSH1 0xFF AND DUP2 JUMP JUMPDEST PUSH1 0x9 SLOAD PUSH2 0x2C5 SWAP1 PUSH1 0x1 PUSH1 0x1 PUSH1 0xA0 SHL SUB AND DUP2 JUMP JUMPDEST PUSH1 0x40 MLOAD PUSH1 0x1 PUSH1 0x1 PUSH1 0xA0 SHL SUB SWAP1 SWAP2 AND DUP2 MSTORE PUSH1 0x20 ADD PUSH2 0x229 JUMP JUMPDEST PUSH1 0x2 SLOAD PUSH2 0x21F JUMP JUMPDEST PUSH2 0x26D PUSH2 0x2F3 CALLDATASIZE PUSH1 0x4 PUSH2 0x14B5 JUMP JUMPDEST PUSH2 0x6EF JUMP JUMPDEST PUSH2 0x300 PUSH2 0x714 JUMP JUMPDEST PUSH1 0x40 MLOAD PUSH1 0xFF SWAP1 SWAP2 AND DUP2 MSTORE PUSH1 0x20 ADD PUSH2 0x229 JUMP JUMPDEST PUSH32 0x0 PUSH2 0x2C5 JUMP JUMPDEST PUSH2 0x21F PUSH2 0x346 CALLDATASIZE PUSH1 0x4 PUSH2 0x149C JUMP JUMPDEST POP PUSH0 NOT SWAP1 JUMP JUMPDEST PUSH2 0x21F PUSH1 0x8 SLOAD DUP2 JUMP JUMPDEST PUSH2 0x21F PUSH1 0xA SLOAD DUP2 JUMP JUMPDEST PUSH2 0x21F PUSH2 0x36C CALLDATASIZE PUSH1 0x4 PUSH2 0x14EE JUMP JUMPDEST PUSH2 0x744 JUMP JUMPDEST PUSH2 0x21F PUSH2 0x37F CALLDATASIZE PUSH1 0x4 PUSH2 0x149C JUMP JUMPDEST PUSH1 0x1 PUSH1 0x1 PUSH1 0xA0 SHL SUB AND PUSH0 SWAP1 DUP2 MSTORE PUSH1 0x20 DUP2 SWAP1 MSTORE PUSH1 0x40 SWAP1 KECCAK256 SLOAD SWAP1 JUMP JUMPDEST PUSH2 0x3A1 PUSH2 0x7B2 JUMP JUMPDEST STOP JUMPDEST PUSH2 0x3A1 PUSH2 0x3B1 CALLDATASIZE PUSH1 0x4 PUSH2 0x149C JUMP JUMPDEST PUSH2 0x7C5 JUMP JUMPDEST PUSH1 0x5 SLOAD PUSH1 0x1 PUSH1 0x1 PUSH1 0xA0 SHL SUB AND PUSH2 0x2C5 JUMP JUMPDEST PUSH2 0x3A1 PUSH2 0x3D5 CALLDATASIZE PUSH1 0x4 PUSH2 0x1447 JUMP JUMPDEST PUSH2 0x86C JUMP JUMPDEST PUSH2 0x21F PUSH2 0x3E8 CALLDATASIZE PUSH1 0x4 PUSH2 0x14EE JUMP JUMPDEST PUSH2 0x8FE JUMP JUMPDEST PUSH2 0x23A PUSH2 0x974 JUMP JUMPDEST PUSH2 0x3A1 PUSH2 0x403 CALLDATASIZE PUSH1 0x4 PUSH2 0x149C JUMP JUMPDEST PUSH2 0x983 JUMP JUMPDEST PUSH2 0x26D PUSH2 0x416 CALLDATASIZE PUSH1 0x4 PUSH2 0x1474 JUMP JUMPDEST PUSH2 0xA2C JUMP JUMPDEST PUSH2 0x3A1 PUSH2 0x429 CALLDATASIZE PUSH1 0x4 PUSH2 0x149C JUMP JUMPDEST PUSH2 0xA39 JUMP JUMPDEST PUSH2 0x21F PUSH2 0x43C CALLDATASIZE PUSH1 0x4 PUSH2 0x1447 JUMP JUMPDEST PUSH2 0xA89 JUMP JUMPDEST PUSH2 0x21F PUSH2 0x44F CALLDATASIZE PUSH1 0x4 PUSH2 0x1518 JUMP JUMPDEST PUSH2 0xA95 JUMP JUMPDEST PUSH2 0x21F PUSH2 0x462 CALLDATASIZE PUSH1 0x4 PUSH2 0x1518 JUMP JUMPDEST PUSH2 0xAB5 JUMP JUMPDEST PUSH2 0x21F PUSH2 0x475 CALLDATASIZE PUSH1 0x4 PUSH2 0x1447 JUMP JUMPDEST PUSH2 0xAC9 JUMP JUMPDEST PUSH2 0x21F PUSH2 0x488 CALLDATASIZE PUSH1 0x4 PUSH2 0x149C JUMP JUMPDEST PUSH2 0xAD4 JUMP JUMPDEST PUSH2 0x21F PUSH2 0x49B CALLDATASIZE PUSH1 0x4 PUSH2 0x149C JUMP JUMPDEST PUSH2 0xAF6 JUMP JUMPDEST PUSH2 0x21F PUSH2 0x4AE CALLDATASIZE PUSH1 0x4 PUSH2 0x1551 JUMP JUMPDEST PUSH1 0x1 PUSH1 0x1 PUSH1 0xA0 SHL SUB SWAP2 DUP3 AND PUSH0 SWAP1 DUP2 MSTORE PUSH1 0x1 PUSH1 0x20 SWAP1 DUP2 MSTORE PUSH1 0x40 DUP1 DUP4 KECCAK256 SWAP4 SWAP1 SWAP5 AND DUP3 MSTORE SWAP2 SWAP1 SWAP2 MSTORE KECCAK256 SLOAD SWAP1 JUMP JUMPDEST PUSH2 0x3A1 PUSH2 0x4E6 CALLDATASIZE PUSH1 0x4 PUSH2 0x149C JUMP JUMPDEST PUSH2 0xB13 JUMP JUMPDEST PUSH0 DUP1 PUSH32 0x0 PUSH1 0x40 MLOAD PUSH4 0x70A08231 PUSH1 0xE0 SHL DUP2 MSTORE ADDRESS PUSH1 0x4 DUP3 ADD MSTORE PUSH1 0x1 PUSH1 0x1 PUSH1 0xA0 SHL SUB SWAP2 SWAP1 SWAP2 AND SWAP1 PUSH4 0x70A08231 SWAP1 PUSH1 0x24 ADD PUSH1 0x20 PUSH1 0x40 MLOAD DUP1 DUP4 SUB DUP2 DUP7 GAS STATICCALL ISZERO DUP1 ISZERO PUSH2 0x552 JUMPI RETURNDATASIZE PUSH0 DUP1 RETURNDATACOPY RETURNDATASIZE PUSH0 REVERT JUMPDEST POP POP POP POP PUSH1 0x40 MLOAD RETURNDATASIZE PUSH1 0x1F NOT PUSH1 0x1F DUP3 ADD AND DUP3 ADD DUP1 PUSH1 0x40 MSTORE POP DUP2 ADD SWAP1 PUSH2 0x576 SWAP2 SWAP1 PUSH2 0x1579 JUMP JUMPDEST PUSH1 0x9 SLOAD SWAP1 SWAP2 POP PUSH1 0x1 PUSH1 0x1 PUSH1 0xA0 SHL SUB AND ISZERO DUP1 ISZERO SWAP1 PUSH2 0x594 JUMPI POP PUSH0 PUSH1 0xA SLOAD GT JUMPDEST ISZERO PUSH2 0x62C JUMPI PUSH1 0x9 SLOAD PUSH1 0xA SLOAD PUSH1 0x40 MLOAD PUSH4 0x3D1689D PUSH1 0xE1 SHL DUP2 MSTORE PUSH1 0x1 PUSH1 0x1 PUSH1 0xA0 SHL SUB SWAP1 SWAP3 AND SWAP2 PUSH4 0x7A2D13A SWAP2 PUSH2 0x5CE SWAP2 PUSH1 0x4 ADD SWAP1 DUP2 MSTORE PUSH1 0x20 ADD SWAP1 JUMP JUMPDEST PUSH1 0x20 PUSH1 0x40 MLOAD DUP1 DUP4 SUB DUP2 DUP7 GAS STATICCALL SWAP3 POP POP POP DUP1 ISZERO PUSH2 0x607 JUMPI POP PUSH1 0x40 DUP1 MLOAD PUSH1 0x1F RETURNDATASIZE SWAP1 DUP2 ADD PUSH1 0x1F NOT AND DUP3 ADD SWAP1 SWAP3 MSTORE PUSH2 0x604 SWAP2 DUP2 ADD SWAP1 PUSH2 0x1579 JUMP JUMPDEST PUSH1 0x1 JUMPDEST PUSH2 0x61E JUMPI PUSH1 0xA SLOAD PUSH2 0x618 SWAP1 DUP3 PUSH2 0x15A4 JUMP JUMPDEST SWAP3 SWAP2 POP POP JUMP JUMPDEST PUSH2 0x628 DUP2 DUP4 PUSH2 0x15A4 JUMP JUMPDEST SWAP2 POP POP JUMPDEST SWAP2 SWAP1 POP JUMP JUMPDEST PUSH1 0x60 PUSH1 0x3 DUP1 SLOAD PUSH2 0x640 SWAP1 PUSH2 0x15B7 JUMP JUMPDEST DUP1 PUSH1 0x1F ADD PUSH1 0x20 DUP1 SWAP2 DIV MUL PUSH1 0x20 ADD PUSH1 0x40 MLOAD SWAP1 DUP2 ADD PUSH1 0x40 MSTORE DUP1 SWAP3 SWAP2 SWAP1 DUP2 DUP2 MSTORE PUSH1 0x20 ADD DUP3 DUP1 SLOAD PUSH2 0x66C SWAP1 PUSH2 0x15B7 JUMP JUMPDEST DUP1 ISZERO PUSH2 0x6B7 JUMPI DUP1 PUSH1 0x1F LT PUSH2 0x68E JUMPI PUSH2 0x100 DUP1 DUP4 SLOAD DIV MUL DUP4 MSTORE SWAP2 PUSH1 0x20 ADD SWAP2 PUSH2 0x6B7 JUMP JUMPDEST DUP3 ADD SWAP2 SWAP1 PUSH0 MSTORE PUSH1 0x20 PUSH0 KECCAK256 SWAP1 JUMPDEST DUP2 SLOAD DUP2 MSTORE SWAP1 PUSH1 0x1 ADD SWAP1 PUSH1 0x20 ADD DUP1 DUP4 GT PUSH2 0x69A JUMPI DUP3 SWAP1 SUB PUSH1 0x1F AND DUP3 ADD SWAP2 JUMPDEST POP POP POP POP POP SWAP1 POP SWAP1 JUMP JUMPDEST PUSH0 PUSH2 0x618 DUP3 PUSH0 PUSH2 0xB50 JUMP JUMPDEST PUSH0 CALLER PUSH2 0x6D9 DUP2 DUP6 DUP6 PUSH2 0xB88 JUMP JUMPDEST POP PUSH1 0x1 SWAP4 SWAP3 POP POP POP JUMP JUMPDEST PUSH0 PUSH2 0x618 DUP3 PUSH1 0x1 PUSH2 0xB9A JUMP JUMPDEST PUSH0 CALLER PUSH2 0x6FC DUP6 DUP3 DUP6 PUSH2 0xBC9 JUMP JUMPDEST PUSH2 0x707 DUP6 DUP6 DUP6 PUSH2 0xC32 JUMP JUMPDEST PUSH1 0x1 SWAP2 POP POP JUMPDEST SWAP4 SWAP3 POP POP POP JUMP JUMPDEST PUSH0 PUSH2 0x73F DUP2 PUSH32 0x0 PUSH2 0x15EF JUMP JUMPDEST SWAP1 POP SWAP1 JUMP JUMPDEST PUSH0 PUSH2 0x74D PUSH2 0xC8F JUMP JUMPDEST PUSH1 0x8 SLOAD DUP4 LT ISZERO PUSH2 0x79C JUMPI PUSH1 0x40 MLOAD PUSH3 0x461BCD PUSH1 0xE5 SHL DUP2 MSTORE PUSH1 0x20 PUSH1 0x4 DUP3 ADD MSTORE PUSH1 0x15 PUSH1 0x24 DUP3 ADD MSTORE PUSH21 0x10995B1BDDC81B5A5B9A5B5D5B4819195C1BDCDA5D PUSH1 0x5A SHL PUSH1 0x44 DUP3 ADD MSTORE PUSH1 0x64 ADD JUMPDEST PUSH1 0x40 MLOAD DUP1 SWAP2 SUB SWAP1 REVERT JUMPDEST PUSH2 0x7A6 DUP4 DUP4 PUSH2 0xCB9 JUMP JUMPDEST SWAP1 POP PUSH2 0x618 PUSH1 0x1 PUSH1 0x6 SSTORE JUMP JUMPDEST PUSH2 0x7BA PUSH2 0xCDC JUMP JUMPDEST PUSH2 0x7C3 PUSH0 PUSH2 0xD09 JUMP JUMPDEST JUMP JUMPDEST PUSH2 0x7CD PUSH2 0xCDC JUMP JUMPDEST PUSH1 0x1 PUSH1 0x1 PUSH1 0xA0 SHL SUB DUP2 AND PUSH2 0x823 JUMPI PUSH1 0x40 MLOAD PUSH3 0x461BCD PUSH1 0xE5 SHL DUP2 MSTORE PUSH1 0x20 PUSH1 0x4 DUP3 ADD MSTORE PUSH1 0x17 PUSH1 0x24 DUP3 ADD MSTORE PUSH32 0x496E76616C696420466972656C69676874207661756C74000000000000000000 PUSH1 0x44 DUP3 ADD MSTORE PUSH1 0x64 ADD PUSH2 0x793 JUMP JUMPDEST PUSH1 0x9 DUP1 SLOAD PUSH1 0x1 PUSH1 0x1 PUSH1 0xA0 SHL SUB NOT AND PUSH1 0x1 PUSH1 0x1 PUSH1 0xA0 SHL SUB DUP4 AND SWAP1 DUP2 OR SWAP1 SWAP2 SSTORE PUSH1 0x40 MLOAD PUSH32 0x14450EEE6C339481F8271167FE83BE76F78A19EE0773C874AE262DCFE35EDF9A SWAP1 PUSH0 SWAP1 LOG2 POP JUMP JUMPDEST PUSH2 0x874 PUSH2 0xCDC JUMP JUMPDEST PUSH0 DUP2 GT PUSH2 0x8C3 JUMPI PUSH1 0x40 MLOAD PUSH3 0x461BCD PUSH1 0xE5 SHL DUP2 MSTORE PUSH1 0x20 PUSH1 0x4 DUP3 ADD MSTORE PUSH1 0x1C PUSH1 0x24 DUP3 ADD MSTORE PUSH32 0x4D696E206465706F736974206D75737420626520706F73697469766500000000 PUSH1 0x44 DUP3 ADD MSTORE PUSH1 0x64 ADD PUSH2 0x793 JUMP JUMPDEST PUSH1 0x8 DUP2 SWAP1 SSTORE PUSH1 0x40 MLOAD DUP2 DUP2 MSTORE PUSH32 0x96A008F96F1C0AB9FA3D9DDD43CDFC614848C4D054D51F43662ED900E9D094C8 SWAP1 PUSH1 0x20 ADD PUSH1 0x40 MLOAD DUP1 SWAP2 SUB SWAP1 LOG1 POP JUMP JUMPDEST PUSH0 PUSH2 0x907 PUSH2 0xC8F JUMP JUMPDEST PUSH0 PUSH2 0x911 DUP5 PUSH2 0xA89 JUMP JUMPDEST SWAP1 POP PUSH1 0x8 SLOAD DUP2 LT ISZERO PUSH2 0x95D JUMPI PUSH1 0x40 MLOAD PUSH3 0x461BCD PUSH1 0xE5 SHL DUP2 MSTORE PUSH1 0x20 PUSH1 0x4 DUP3 ADD MSTORE PUSH1 0x15 PUSH1 0x24 DUP3 ADD MSTORE PUSH21 0x10995B1BDDC81B5A5B9A5B5D5B4819195C1BDCDA5D PUSH1 0x5A SHL PUSH1 0x44 DUP3 ADD MSTORE PUSH1 0x64 ADD PUSH2 0x793 JUMP JUMPDEST PUSH2 0x967 DUP5 DUP5 PUSH2 0xD5A JUMP JUMPDEST SWAP2 POP POP PUSH2 0x618 PUSH1 0x1 PUSH1 0x6 SSTORE JUMP JUMPDEST PUSH1 0x60 PUSH1 0x4 DUP1 SLOAD PUSH2 0x640 SWAP1 PUSH2 0x15B7 JUMP JUMPDEST PUSH2 0x98B PUSH2 0xCDC JUMP JUMPDEST PUSH1 0x1 PUSH1 0x1 PUSH1 0xA0 SHL SUB DUP2 AND PUSH2 0x9E1 JUMPI PUSH1 0x40 MLOAD PUSH3 0x461BCD PUSH1 0xE5 SHL DUP2 MSTORE PUSH1 0x20 PUSH1 0x4 DUP3 ADD MSTORE PUSH1 0x18 PUSH1 0x24 DUP3 ADD MSTORE PUSH32 0x496E76616C6964206F70657261746F7220616464726573730000000000000000 PUSH1 0x44 DUP3 ADD MSTORE PUSH1 0x64 ADD PUSH2 0x793 JUMP JUMPDEST PUSH1 0x1 PUSH1 0x1 PUSH1 0xA0 SHL SUB DUP2 AND PUSH0 DUP2 DUP2 MSTORE PUSH1 0x7 PUSH1 0x20 MSTORE PUSH1 0x40 DUP1 DUP3 KECCAK256 DUP1 SLOAD PUSH1 0xFF NOT AND PUSH1 0x1 OR SWAP1 SSTORE MLOAD PUSH32 0xAC6FA858E9350A46CEC16539926E0FDE25B7629F84B5A72BFFAAE4DF888AE86D SWAP2 SWAP1 LOG2 POP JUMP JUMPDEST PUSH0 CALLER PUSH2 0x6D9 DUP2 DUP6 DUP6 PUSH2 0xC32 JUMP JUMPDEST PUSH2 0xA41 PUSH2 0xCDC JUMP JUMPDEST PUSH1 0x1 PUSH1 0x1 PUSH1 0xA0 SHL SUB DUP2 AND PUSH0 DUP2 DUP2 MSTORE PUSH1 0x7 PUSH1 0x20 MSTORE PUSH1 0x40 DUP1 DUP3 KECCAK256 DUP1 SLOAD PUSH1 0xFF NOT AND SWAP1 SSTORE MLOAD PUSH32 0x80C0B871B97B595B16A7741C1B06FED0C6F6F558639F18CCBCE50724325DC40D SWAP2 SWAP1 LOG2 POP JUMP JUMPDEST PUSH0 PUSH2 0x618 DUP3 PUSH1 0x1 PUSH2 0xB50 JUMP JUMPDEST PUSH0 PUSH2 0xA9E PUSH2 0xC8F JUMP JUMPDEST PUSH2 0xAA9 DUP5 DUP5 DUP5 PUSH2 0xD75 JUMP JUMPDEST SWAP1 POP PUSH2 0x70D PUSH1 0x1 PUSH1 0x6 SSTORE JUMP JUMPDEST PUSH0 PUSH2 0xABE PUSH2 0xC8F JUMP JUMPDEST PUSH2 0xAA9 DUP5 DUP5 DUP5 PUSH2 0xDCB JUMP JUMPDEST PUSH0 PUSH2 0x618 DUP3 PUSH0 PUSH2 0xB9A JUMP JUMPDEST PUSH1 0x1 PUSH1 0x1 PUSH1 0xA0 SHL SUB DUP2 AND PUSH0 SWAP1 DUP2 MSTORE PUSH1 0x20 DUP2 SWAP1 MSTORE PUSH1 0x40 DUP2 KECCAK256 SLOAD PUSH2 0x618 SWAP1 PUSH0 PUSH2 0xB50 JUMP JUMPDEST PUSH1 0x1 PUSH1 0x1 PUSH1 0xA0 SHL SUB DUP2 AND PUSH0 SWAP1 DUP2 MSTORE PUSH1 0x20 DUP2 SWAP1 MSTORE PUSH1 0x40 DUP2 KECCAK256 SLOAD PUSH2 0x618 JUMP JUMPDEST PUSH2 0xB1B PUSH2 0xCDC JUMP JUMPDEST PUSH1 0x1 PUSH1 0x1 PUSH1 0xA0 SHL SUB DUP2 AND PUSH2 0xB44 JUMPI PUSH1 0x40 MLOAD PUSH4 0x1E4FBDF7 PUSH1 0xE0 SHL DUP2 MSTORE PUSH0 PUSH1 0x4 DUP3 ADD MSTORE PUSH1 0x24 ADD PUSH2 0x793 JUMP JUMPDEST PUSH2 0xB4D DUP2 PUSH2 0xD09 JUMP JUMPDEST POP JUMP JUMPDEST PUSH0 PUSH2 0x70D PUSH2 0xB5C PUSH2 0x4EB JUMP JUMPDEST PUSH2 0xB67 SWAP1 PUSH1 0x1 PUSH2 0x15A4 JUMP JUMPDEST PUSH2 0xB72 PUSH0 PUSH1 0xA PUSH2 0x16E8 JUMP JUMPDEST PUSH1 0x2 SLOAD PUSH2 0xB7F SWAP2 SWAP1 PUSH2 0x15A4 JUMP JUMPDEST DUP6 SWAP2 SWAP1 DUP6 PUSH2 0xE18 JUMP JUMPDEST PUSH2 0xB95 DUP4 DUP4 DUP4 PUSH1 0x1 PUSH2 0xE5A JUMP JUMPDEST POP POP POP JUMP JUMPDEST PUSH0 PUSH2 0x70D PUSH2 0xBA9 DUP3 PUSH1 0xA PUSH2 0x16E8 JUMP JUMPDEST PUSH1 0x2 SLOAD PUSH2 0xBB6 SWAP2 SWAP1 PUSH2 0x15A4 JUMP JUMPDEST PUSH2 0xBBE PUSH2 0x4EB JUMP JUMPDEST PUSH2 0xB7F SWAP1 PUSH1 0x1 PUSH2 0x15A4 JUMP JUMPDEST PUSH1 0x1 PUSH1 0x1 PUSH1 0xA0 SHL SUB DUP4 DUP2 AND PUSH0 SWAP1 DUP2 MSTORE PUSH1 0x1 PUSH1 0x20 SWAP1 DUP2 MSTORE PUSH1 0x40 DUP1 DUP4 KECCAK256 SWAP4 DUP7 AND DUP4 MSTORE SWAP3 SWAP1 MSTORE KECCAK256 SLOAD PUSH0 NOT DUP2 LT ISZERO PUSH2 0xC2C JUMPI DUP2 DUP2 LT ISZERO PUSH2 0xC1E JUMPI DUP3 DUP2 DUP4 PUSH1 0x40 MLOAD PUSH4 0x7DC7A0D9 PUSH1 0xE1 SHL DUP2 MSTORE PUSH1 0x4 ADD PUSH2 0x793 SWAP4 SWAP3 SWAP2 SWAP1 PUSH2 0x16F6 JUMP JUMPDEST PUSH2 0xC2C DUP5 DUP5 DUP5 DUP5 SUB PUSH0 PUSH2 0xE5A JUMP JUMPDEST POP POP POP POP JUMP JUMPDEST PUSH1 0x1 PUSH1 0x1 PUSH1 0xA0 SHL SUB DUP4 AND PUSH2 0xC5B JUMPI PUSH1 0x40 MLOAD PUSH4 0x4B637E8F PUSH1 0xE1 SHL DUP2 MSTORE PUSH0 PUSH1 0x4 DUP3 ADD MSTORE PUSH1 0x24 ADD PUSH2 0x793 JUMP JUMPDEST PUSH1 0x1 PUSH1 0x1 PUSH1 0xA0 SHL SUB DUP3 AND PUSH2 0xC84 JUMPI PUSH1 0x40 MLOAD PUSH4 0xEC442F05 PUSH1 0xE0 SHL DUP2 MSTORE PUSH0 PUSH1 0x4 DUP3 ADD MSTORE PUSH1 0x24 ADD PUSH2 0x793 JUMP JUMPDEST PUSH2 0xB95 DUP4 DUP4 DUP4 PUSH2 0xF2C JUMP JUMPDEST PUSH1 0x2 PUSH1 0x6 SLOAD SUB PUSH2 0xCB2 JUMPI PUSH1 0x40 MLOAD PUSH4 0x3EE5AEB5 PUSH1 0xE0 SHL DUP2 MSTORE PUSH1 0x4 ADD PUSH1 0x40 MLOAD DUP1 SWAP2 SUB SWAP1 REVERT JUMPDEST PUSH1 0x2 PUSH1 0x6 SSTORE JUMP JUMPDEST PUSH0 PUSH0 NOT PUSH0 PUSH2 0xCC6 DUP6 PUSH2 0xAC9 JUMP JUMPDEST SWAP1 POP PUSH2 0xCD4 CALLER DUP6 DUP8 DUP5 PUSH2 0x103F JUMP JUMPDEST SWAP5 SWAP4 POP POP POP POP JUMP JUMPDEST PUSH1 0x5 SLOAD PUSH1 0x1 PUSH1 0x1 PUSH1 0xA0 SHL SUB AND CALLER EQ PUSH2 0x7C3 JUMPI PUSH1 0x40 MLOAD PUSH4 0x118CDAA7 PUSH1 0xE0 SHL DUP2 MSTORE CALLER PUSH1 0x4 DUP3 ADD MSTORE PUSH1 0x24 ADD PUSH2 0x793 JUMP JUMPDEST PUSH1 0x5 DUP1 SLOAD PUSH1 0x1 PUSH1 0x1 PUSH1 0xA0 SHL SUB DUP4 DUP2 AND PUSH1 0x1 PUSH1 0x1 PUSH1 0xA0 SHL SUB NOT DUP4 AND DUP2 OR SWAP1 SWAP4 SSTORE PUSH1 0x40 MLOAD SWAP2 AND SWAP2 SWAP1 DUP3 SWAP1 PUSH32 0x8BE0079C531659141344CD1FD0A4F28419497F9722A3DAAFE3B4186F6B6457E0 SWAP1 PUSH0 SWAP1 LOG3 POP POP JUMP JUMPDEST PUSH0 PUSH0 NOT PUSH0 PUSH2 0xD67 DUP6 PUSH2 0xA89 JUMP JUMPDEST SWAP1 POP PUSH2 0xCD4 CALLER DUP6 DUP4 DUP9 PUSH2 0x103F JUMP JUMPDEST PUSH0 DUP1 PUSH2 0xD80 DUP4 PUSH2 0xAD4 JUMP JUMPDEST SWAP1 POP DUP1 DUP6 GT ISZERO PUSH2 0xDA9 JUMPI DUP3 DUP6 DUP3 PUSH1 0x40 MLOAD PUSH4 0x3FA733BB PUSH1 0xE2 SHL DUP2 MSTORE PUSH1 0x4 ADD PUSH2 0x793 SWAP4 SWAP3 SWAP2 SWAP1 PUSH2 0x16F6 JUMP JUMPDEST PUSH0 PUSH2 0xDB3 DUP7 PUSH2 0x6E3 JUMP JUMPDEST SWAP1 POP PUSH2 0xDC2 CALLER DUP7 DUP7 DUP10 DUP6 PUSH2 0x10C3 JUMP JUMPDEST SWAP6 SWAP5 POP POP POP POP POP JUMP JUMPDEST PUSH0 DUP1 PUSH2 0xDD6 DUP4 PUSH2 0xAF6 JUMP JUMPDEST SWAP1 POP DUP1 DUP6 GT ISZERO PUSH2 0xDFF JUMPI DUP3 DUP6 DUP3 PUSH1 0x40 MLOAD PUSH4 0x2E52AFBB PUSH1 0xE2 SHL DUP2 MSTORE PUSH1 0x4 ADD PUSH2 0x793 SWAP4 SWAP3 SWAP2 SWAP1 PUSH2 0x16F6 JUMP JUMPDEST PUSH0 PUSH2 0xE09 DUP7 PUSH2 0x6C1 JUMP JUMPDEST SWAP1 POP PUSH2 0xDC2 CALLER DUP7 DUP7 DUP5 DUP11 PUSH2 0x10C3 JUMP JUMPDEST PUSH0 PUSH2 0xE45 PUSH2 0xE25 DUP4 PUSH2 0x1183 JUMP JUMPDEST DUP1 ISZERO PUSH2 0xE40 JUMPI POP PUSH0 DUP5 DUP1 PUSH2 0xE3B JUMPI PUSH2 0xE3B PUSH2 0x1717 JUMP JUMPDEST DUP7 DUP9 MULMOD GT JUMPDEST ISZERO ISZERO SWAP1 JUMP JUMPDEST PUSH2 0xE50 DUP7 DUP7 DUP7 PUSH2 0x11AF JUMP JUMPDEST PUSH2 0xDC2 SWAP2 SWAP1 PUSH2 0x15A4 JUMP JUMPDEST PUSH1 0x1 PUSH1 0x1 PUSH1 0xA0 SHL SUB DUP5 AND PUSH2 0xE83 JUMPI PUSH1 0x40 MLOAD PUSH4 0xE602DF05 PUSH1 0xE0 SHL DUP2 MSTORE PUSH0 PUSH1 0x4 DUP3 ADD MSTORE PUSH1 0x24 ADD PUSH2 0x793 JUMP JUMPDEST PUSH1 0x1 PUSH1 0x1 PUSH1 0xA0 SHL SUB DUP4 AND PUSH2 0xEAC JUMPI PUSH1 0x40 MLOAD PUSH4 0x4A1406B1 PUSH1 0xE1 SHL DUP2 MSTORE PUSH0 PUSH1 0x4 DUP3 ADD MSTORE PUSH1 0x24 ADD PUSH2 0x793 JUMP JUMPDEST PUSH1 0x1 PUSH1 0x1 PUSH1 0xA0 SHL SUB DUP1 DUP6 AND PUSH0 SWAP1 DUP2 MSTORE PUSH1 0x1 PUSH1 0x20 SWAP1 DUP2 MSTORE PUSH1 0x40 DUP1 DUP4 KECCAK256 SWAP4 DUP8 AND DUP4 MSTORE SWAP3 SWAP1 MSTORE KECCAK256 DUP3 SWAP1 SSTORE DUP1 ISZERO PUSH2 0xC2C JUMPI DUP3 PUSH1 0x1 PUSH1 0x1 PUSH1 0xA0 SHL SUB AND DUP5 PUSH1 0x1 PUSH1 0x1 PUSH1 0xA0 SHL SUB AND PUSH32 0x8C5BE1E5EBEC7D5BD14F71427D1E84F3DD0314C0F7B2291E5B200AC8C7C3B925 DUP5 PUSH1 0x40 MLOAD PUSH2 0xF1E SWAP2 DUP2 MSTORE PUSH1 0x20 ADD SWAP1 JUMP JUMPDEST PUSH1 0x40 MLOAD DUP1 SWAP2 SUB SWAP1 LOG3 POP POP POP POP JUMP JUMPDEST PUSH1 0x1 PUSH1 0x1 PUSH1 0xA0 SHL SUB DUP4 AND PUSH2 0xF56 JUMPI DUP1 PUSH1 0x2 PUSH0 DUP3 DUP3 SLOAD PUSH2 0xF4B SWAP2 SWAP1 PUSH2 0x15A4 JUMP JUMPDEST SWAP1 SWAP2 SSTORE POP PUSH2 0xFB3 SWAP1 POP JUMP JUMPDEST PUSH1 0x1 PUSH1 0x1 PUSH1 0xA0 SHL SUB DUP4 AND PUSH0 SWAP1 DUP2 MSTORE PUSH1 0x20 DUP2 SWAP1 MSTORE PUSH1 0x40 SWAP1 KECCAK256 SLOAD DUP2 DUP2 LT ISZERO PUSH2 0xF95 JUMPI DUP4 DUP2 DUP4 PUSH1 0x40 MLOAD PUSH4 0x391434E3 PUSH1 0xE2 SHL DUP2 MSTORE PUSH1 0x4 ADD PUSH2 0x793 SWAP4 SWAP3 SWAP2 SWAP1 PUSH2 0x16F6 JUMP JUMPDEST PUSH1 0x1 PUSH1 0x1 PUSH1 0xA0 SHL SUB DUP5 AND PUSH0 SWAP1 DUP2 MSTORE PUSH1 0x20 DUP2 SWAP1 MSTORE PUSH1 0x40 SWAP1 KECCAK256 SWAP1 DUP3 SWAP1 SUB SWAP1 SSTORE JUMPDEST PUSH1 0x1 PUSH1 0x1 PUSH1 0xA0 SHL SUB DUP3 AND PUSH2 0xFCF JUMPI PUSH1 0x2 DUP1 SLOAD DUP3 SWAP1 SUB SWAP1 SSTORE PUSH2 0xFED JUMP JUMPDEST PUSH1 0x1 PUSH1 0x1 PUSH1 0xA0 SHL SUB DUP3 AND PUSH0 SWAP1 DUP2 MSTORE PUSH1 0x20 DUP2 SWAP1 MSTORE PUSH1 0x40 SWAP1 KECCAK256 DUP1 SLOAD DUP3 ADD SWAP1 SSTORE JUMPDEST DUP2 PUSH1 0x1 PUSH1 0x1 PUSH1 0xA0 SHL SUB AND DUP4 PUSH1 0x1 PUSH1 0x1 PUSH1 0xA0 SHL SUB AND PUSH32 0xDDF252AD1BE2C89B69C2B068FC378DAA952BA7F163C4A11628F55A4DF523B3EF DUP4 PUSH1 0x40 MLOAD PUSH2 0x1032 SWAP2 DUP2 MSTORE PUSH1 0x20 ADD SWAP1 JUMP JUMPDEST PUSH1 0x40 MLOAD DUP1 SWAP2 SUB SWAP1 LOG3 POP POP POP JUMP JUMPDEST PUSH2 0x106B PUSH32 0x0 DUP6 ADDRESS DUP6 PUSH2 0x125F JUMP JUMPDEST PUSH2 0x1075 DUP4 DUP3 PUSH2 0x12C6 JUMP JUMPDEST DUP3 PUSH1 0x1 PUSH1 0x1 PUSH1 0xA0 SHL SUB AND DUP5 PUSH1 0x1 PUSH1 0x1 PUSH1 0xA0 SHL SUB AND PUSH32 0xDCBC1C05240F31FF3AD067EF1EE35CE4997762752E3A095284754544F4C709D7 DUP5 DUP5 PUSH1 0x40 MLOAD PUSH2 0xF1E SWAP3 SWAP2 SWAP1 SWAP2 DUP3 MSTORE PUSH1 0x20 DUP3 ADD MSTORE PUSH1 0x40 ADD SWAP1 JUMP JUMPDEST DUP3 PUSH1 0x1 PUSH1 0x1 PUSH1 0xA0 SHL SUB AND DUP6 PUSH1 0x1 PUSH1 0x1 PUSH1 0xA0 SHL SUB AND EQ PUSH2 0x10E7 JUMPI PUSH2 0x10E7 DUP4 DUP7 DUP4 PUSH2 0xBC9 JUMP JUMPDEST PUSH2 0x10F1 DUP4 DUP3 PUSH2 0x12FE JUMP JUMPDEST PUSH2 0x111C PUSH32 0x0 DUP6 DUP5 PUSH2 0x1332 JUMP JUMPDEST DUP3 PUSH1 0x1 PUSH1 0x1 PUSH1 0xA0 SHL SUB AND DUP5 PUSH1 0x1 PUSH1 0x1 PUSH1 0xA0 SHL SUB AND DUP7 PUSH1 0x1 PUSH1 0x1 PUSH1 0xA0 SHL SUB AND PUSH32 0xFBDE797D201C681B91056529119E0B02407C7BB96A4A2C75C01FC9667232C8DB DUP6 DUP6 PUSH1 0x40 MLOAD PUSH2 0x1174 SWAP3 SWAP2 SWAP1 SWAP2 DUP3 MSTORE PUSH1 0x20 DUP3 ADD MSTORE PUSH1 0x40 ADD SWAP1 JUMP JUMPDEST PUSH1 0x40 MLOAD DUP1 SWAP2 SUB SWAP1 LOG4 POP POP POP POP POP JUMP JUMPDEST PUSH0 PUSH1 0x2 DUP3 PUSH1 0x3 DUP2 GT ISZERO PUSH2 0x1198 JUMPI PUSH2 0x1198 PUSH2 0x172B JUMP JUMPDEST PUSH2 0x11A2 SWAP2 SWAP1 PUSH2 0x173F JUMP JUMPDEST PUSH1 0xFF AND PUSH1 0x1 EQ SWAP1 POP SWAP2 SWAP1 POP JUMP JUMPDEST PUSH0 DUP1 PUSH0 PUSH2 0x11BC DUP7 DUP7 PUSH2 0x1363 JUMP JUMPDEST SWAP2 POP SWAP2 POP DUP2 PUSH0 SUB PUSH2 0x11E0 JUMPI DUP4 DUP2 DUP2 PUSH2 0x11D6 JUMPI PUSH2 0x11D6 PUSH2 0x1717 JUMP JUMPDEST DIV SWAP3 POP POP POP PUSH2 0x70D JUMP JUMPDEST DUP2 DUP5 GT PUSH2 0x11F7 JUMPI PUSH2 0x11F7 PUSH1 0x3 DUP6 ISZERO MUL PUSH1 0x11 XOR PUSH2 0x137F JUMP JUMPDEST PUSH0 DUP5 DUP7 DUP9 MULMOD PUSH0 DUP7 DUP2 SUB DUP8 AND SWAP7 DUP8 SWAP1 DIV SWAP7 PUSH1 0x2 PUSH1 0x3 DUP10 MUL DUP2 XOR DUP1 DUP11 MUL DUP3 SUB MUL DUP1 DUP11 MUL DUP3 SUB MUL DUP1 DUP11 MUL DUP3 SUB MUL DUP1 DUP11 MUL DUP3 SUB MUL DUP1 DUP11 MUL DUP3 SUB MUL DUP1 DUP11 MUL SWAP1 SWAP2 SUB MUL SWAP2 DUP2 SWAP1 SUB DUP2 SWAP1 DIV PUSH1 0x1 ADD DUP6 DUP5 GT SWAP1 SWAP7 SUB SWAP6 SWAP1 SWAP6 MUL SWAP2 SWAP1 SWAP4 SUB SWAP4 SWAP1 SWAP4 DIV SWAP3 SWAP1 SWAP3 OR MUL SWAP2 POP POP SWAP4 SWAP3 POP POP POP JUMP JUMPDEST PUSH1 0x40 MLOAD PUSH1 0x1 PUSH1 0x1 PUSH1 0xA0 SHL SUB DUP5 DUP2 AND PUSH1 0x24 DUP4 ADD MSTORE DUP4 DUP2 AND PUSH1 0x44 DUP4 ADD MSTORE PUSH1 0x64 DUP3 ADD DUP4 SWAP1 MSTORE PUSH2 0xC2C SWAP2 DUP7 SWAP2 DUP3 AND SWAP1 PUSH4 0x23B872DD SWAP1 PUSH1 0x84 ADD JUMPDEST PUSH1 0x40 MLOAD PUSH1 0x20 DUP2 DUP4 SUB SUB DUP2 MSTORE SWAP1 PUSH1 0x40 MSTORE SWAP2 POP PUSH1 0xE0 SHL PUSH1 0x20 DUP3 ADD DUP1 MLOAD PUSH1 0x1 PUSH1 0x1 PUSH1 0xE0 SHL SUB DUP4 DUP2 DUP4 AND OR DUP4 MSTORE POP POP POP POP PUSH2 0x1390 JUMP JUMPDEST PUSH1 0x1 PUSH1 0x1 PUSH1 0xA0 SHL SUB DUP3 AND PUSH2 0x12EF JUMPI PUSH1 0x40 MLOAD PUSH4 0xEC442F05 PUSH1 0xE0 SHL DUP2 MSTORE PUSH0 PUSH1 0x4 DUP3 ADD MSTORE PUSH1 0x24 ADD PUSH2 0x793 JUMP JUMPDEST PUSH2 0x12FA PUSH0 DUP4 DUP4 PUSH2 0xF2C JUMP JUMPDEST POP POP JUMP JUMPDEST PUSH1 0x1 PUSH1 0x1 PUSH1 0xA0 SHL SUB DUP3 AND PUSH2 0x1327 JUMPI PUSH1 0x40 MLOAD PUSH4 0x4B637E8F PUSH1 0xE1 SHL DUP2 MSTORE PUSH0 PUSH1 0x4 DUP3 ADD MSTORE PUSH1 0x24 ADD PUSH2 0x793 JUMP JUMPDEST PUSH2 0x12FA DUP3 PUSH0 DUP4 PUSH2 0xF2C JUMP JUMPDEST PUSH1 0x40 MLOAD PUSH1 0x1 PUSH1 0x1 PUSH1 0xA0 SHL SUB DUP4 DUP2 AND PUSH1 0x24 DUP4 ADD MSTORE PUSH1 0x44 DUP3 ADD DUP4 SWAP1 MSTORE PUSH2 0xB95 SWAP2 DUP6 SWAP2 DUP3 AND SWAP1 PUSH4 0xA9059CBB SWAP1 PUSH1 0x64 ADD PUSH2 0x1294 JUMP JUMPDEST PUSH0 DUP1 PUSH0 NOT DUP4 DUP6 MULMOD SWAP4 SWAP1 SWAP3 MUL DUP1 DUP5 LT SWAP4 DUP2 SWAP1 SUB SWAP4 SWAP1 SWAP4 SUB SWAP4 SWAP2 POP POP JUMP JUMPDEST PUSH4 0x4E487B71 PUSH0 MSTORE DUP1 PUSH1 0x20 MSTORE PUSH1 0x24 PUSH1 0x1C REVERT JUMPDEST PUSH0 DUP1 PUSH1 0x20 PUSH0 DUP5 MLOAD PUSH1 0x20 DUP7 ADD PUSH0 DUP9 GAS CALL DUP1 PUSH2 0x13AF JUMPI PUSH1 0x40 MLOAD RETURNDATASIZE PUSH0 DUP3 RETURNDATACOPY RETURNDATASIZE DUP2 REVERT JUMPDEST POP POP PUSH0 MLOAD RETURNDATASIZE SWAP2 POP DUP2 ISZERO PUSH2 0x13C6 JUMPI DUP1 PUSH1 0x1 EQ ISZERO PUSH2 0x13D3 JUMP JUMPDEST PUSH1 0x1 PUSH1 0x1 PUSH1 0xA0 SHL SUB DUP5 AND EXTCODESIZE ISZERO JUMPDEST ISZERO PUSH2 0xC2C JUMPI PUSH1 0x40 MLOAD PUSH4 0x5274AFE7 PUSH1 0xE0 SHL DUP2 MSTORE PUSH1 0x1 PUSH1 0x1 PUSH1 0xA0 SHL SUB DUP6 AND PUSH1 0x4 DUP3 ADD MSTORE PUSH1 0x24 ADD PUSH2 0x793 JUMP JUMPDEST PUSH0 PUSH1 0x20 DUP1 DUP4 MSTORE DUP4 MLOAD DUP1 DUP3 DUP6 ADD MSTORE PUSH0 JUMPDEST DUP2 DUP2 LT ISZERO PUSH2 0x1427 JUMPI DUP6 DUP2 ADD DUP4 ADD MLOAD DUP6 DUP3 ADD PUSH1 0x40 ADD MSTORE DUP3 ADD PUSH2 0x140B JUMP JUMPDEST POP PUSH0 PUSH1 0x40 DUP3 DUP7 ADD ADD MSTORE PUSH1 0x40 PUSH1 0x1F NOT PUSH1 0x1F DUP4 ADD AND DUP6 ADD ADD SWAP3 POP POP POP SWAP3 SWAP2 POP POP JUMP JUMPDEST PUSH0 PUSH1 0x20 DUP3 DUP5 SUB SLT ISZERO PUSH2 0x1457 JUMPI PUSH0 DUP1 REVERT JUMPDEST POP CALLDATALOAD SWAP2 SWAP1 POP JUMP JUMPDEST DUP1 CALLDATALOAD PUSH1 0x1 PUSH1 0x1 PUSH1 0xA0 SHL SUB DUP2 AND DUP2 EQ PUSH2 0x62C JUMPI PUSH0 DUP1 REVERT JUMPDEST PUSH0 DUP1 PUSH1 0x40 DUP4 DUP6 SUB SLT ISZERO PUSH2 0x1485 JUMPI PUSH0 DUP1 REVERT JUMPDEST PUSH2 0x148E DUP4 PUSH2 0x145E JUMP JUMPDEST SWAP5 PUSH1 0x20 SWAP4 SWAP1 SWAP4 ADD CALLDATALOAD SWAP4 POP POP POP JUMP JUMPDEST PUSH0 PUSH1 0x20 DUP3 DUP5 SUB SLT ISZERO PUSH2 0x14AC JUMPI PUSH0 DUP1 REVERT JUMPDEST PUSH2 0x70D DUP3 PUSH2 0x145E JUMP JUMPDEST PUSH0 DUP1 PUSH0 PUSH1 0x60 DUP5 DUP7 SUB SLT ISZERO PUSH2 0x14C7 JUMPI PUSH0 DUP1 REVERT JUMPDEST PUSH2 0x14D0 DUP5 PUSH2 0x145E JUMP JUMPDEST SWAP3 POP PUSH2 0x14DE PUSH1 0x20 DUP6 ADD PUSH2 0x145E JUMP JUMPDEST SWAP2 POP PUSH1 0x40 DUP5 ADD CALLDATALOAD SWAP1 POP SWAP3 POP SWAP3 POP SWAP3 JUMP JUMPDEST PUSH0 DUP1 PUSH1 0x40 DUP4 DUP6 SUB SLT ISZERO PUSH2 0x14FF JUMPI PUSH0 DUP1 REVERT JUMPDEST DUP3 CALLDATALOAD SWAP2 POP PUSH2 0x150F PUSH1 0x20 DUP5 ADD PUSH2 0x145E JUMP JUMPDEST SWAP1 POP SWAP3 POP SWAP3 SWAP1 POP JUMP JUMPDEST PUSH0 DUP1 PUSH0 PUSH1 0x60 DUP5 DUP7 SUB SLT ISZERO PUSH2 0x152A JUMPI PUSH0 DUP1 REVERT JUMPDEST DUP4 CALLDATALOAD SWAP3 POP PUSH2 0x153A PUSH1 0x20 DUP6 ADD PUSH2 0x145E JUMP JUMPDEST SWAP2 POP PUSH2 0x1548 PUSH1 0x40 DUP6 ADD PUSH2 0x145E JUMP JUMPDEST SWAP1 POP SWAP3 POP SWAP3 POP SWAP3 JUMP JUMPDEST PUSH0 DUP1 PUSH1 0x40 DUP4 DUP6 SUB SLT ISZERO PUSH2 0x1562 JUMPI PUSH0 DUP1 REVERT JUMPDEST PUSH2 0x156B DUP4 PUSH2 0x145E JUMP JUMPDEST SWAP2 POP PUSH2 0x150F PUSH1 0x20 DUP5 ADD PUSH2 0x145E JUMP JUMPDEST PUSH0 PUSH1 0x20 DUP3 DUP5 SUB SLT ISZERO PUSH2 0x1589 JUMPI PUSH0 DUP1 REVERT JUMPDEST POP MLOAD SWAP2 SWAP1 POP JUMP JUMPDEST PUSH4 0x4E487B71 PUSH1 0xE0 SHL PUSH0 MSTORE PUSH1 0x11 PUSH1 0x4 MSTORE PUSH1 0x24 PUSH0 REVERT JUMPDEST DUP1 DUP3 ADD DUP1 DUP3 GT ISZERO PUSH2 0x618 JUMPI PUSH2 0x618 PUSH2 0x1590 JUMP JUMPDEST PUSH1 0x1 DUP2 DUP2 SHR SWAP1 DUP3 AND DUP1 PUSH2 0x15CB JUMPI PUSH1 0x7F DUP3 AND SWAP2 POP JUMPDEST PUSH1 0x20 DUP3 LT DUP2 SUB PUSH2 0x15E9 JUMPI PUSH4 0x4E487B71 PUSH1 0xE0 SHL PUSH0 MSTORE PUSH1 0x22 PUSH1 0x4 MSTORE PUSH1 0x24 PUSH0 REVERT JUMPDEST POP SWAP2 SWAP1 POP JUMP JUMPDEST PUSH1 0xFF DUP2 DUP2 AND DUP4 DUP3 AND ADD SWAP1 DUP2 GT ISZERO PUSH2 0x618 JUMPI PUSH2 0x618 PUSH2 0x1590 JUMP JUMPDEST PUSH1 0x1 DUP2 DUP2 JUMPDEST DUP1 DUP6 GT ISZERO PUSH2 0x1642 JUMPI DUP2 PUSH0 NOT DIV DUP3 GT ISZERO PUSH2 0x1628 JUMPI PUSH2 0x1628 PUSH2 0x1590 JUMP JUMPDEST DUP1 DUP6 AND ISZERO PUSH2 0x1635 JUMPI SWAP2 DUP2 MUL SWAP2 JUMPDEST SWAP4 DUP5 SHR SWAP4 SWAP1 DUP1 MUL SWAP1 PUSH2 0x160D JUMP JUMPDEST POP SWAP3 POP SWAP3 SWAP1 POP JUMP JUMPDEST PUSH0 DUP3 PUSH2 0x1658 JUMPI POP PUSH1 0x1 PUSH2 0x618 JUMP JUMPDEST DUP2 PUSH2 0x1664 JUMPI POP PUSH0 PUSH2 0x618 JUMP JUMPDEST DUP2 PUSH1 0x1 DUP2 EQ PUSH2 0x167A JUMPI PUSH1 0x2 DUP2 EQ PUSH2 0x1684 JUMPI PUSH2 0x16A0 JUMP JUMPDEST PUSH1 0x1 SWAP2 POP POP PUSH2 0x618 JUMP JUMPDEST PUSH1 0xFF DUP5 GT ISZERO PUSH2 0x1695 JUMPI PUSH2 0x1695 PUSH2 0x1590 JUMP JUMPDEST POP POP PUSH1 0x1 DUP3 SHL PUSH2 0x618 JUMP JUMPDEST POP PUSH1 0x20 DUP4 LT PUSH2 0x133 DUP4 LT AND PUSH1 0x4E DUP5 LT PUSH1 0xB DUP5 LT AND OR ISZERO PUSH2 0x16C3 JUMPI POP DUP2 DUP2 EXP PUSH2 0x618 JUMP JUMPDEST PUSH2 0x16CD DUP4 DUP4 PUSH2 0x1608 JUMP JUMPDEST DUP1 PUSH0 NOT DIV DUP3 GT ISZERO PUSH2 0x16E0 JUMPI PUSH2 0x16E0 PUSH2 0x1590 JUMP JUMPDEST MUL SWAP4 SWAP3 POP POP POP JUMP JUMPDEST PUSH0 PUSH2 0x70D PUSH1 0xFF DUP5 AND DUP4 PUSH2 0x164A JUMP JUMPDEST PUSH1 0x1 PUSH1 0x1 PUSH1 0xA0 SHL SUB SWAP4 SWAP1 SWAP4 AND DUP4 MSTORE PUSH1 0x20 DUP4 ADD SWAP2 SWAP1 SWAP2 MSTORE PUSH1 0x40 DUP3 ADD MSTORE PUSH1 0x60 ADD SWAP1 JUMP JUMPDEST PUSH4 0x4E487B71 PUSH1 0xE0 SHL PUSH0 MSTORE PUSH1 0x12 PUSH1 0x4 MSTORE PUSH1 0x24 PUSH0 REVERT JUMPDEST PUSH4 0x4E487B71 PUSH1 0xE0 SHL PUSH0 MSTORE PUSH1 0x21 PUSH1 0x4 MSTORE PUSH1 0x24 PUSH0 REVERT JUMPDEST PUSH0 PUSH1 0xFF DUP4 AND DUP1 PUSH2 0x175D JUMPI PUSH4 0x4E487B71 PUSH1 0xE0 SHL PUSH0 MSTORE PUSH1 0x12 PUSH1 0x4 MSTORE PUSH1 0x24 PUSH0 REVERT JUMPDEST DUP1 PUSH1 0xFF DUP5 AND MOD SWAP2 POP POP SWAP3 SWAP2 POP POP JUMP INVALID LOG2 PUSH5 0x6970667358 0x22 SLT KECCAK256 REVERT TIMESTAMP PUSH16 0x2CA1A26DA4508023D715ABA887EDCB05 DUP16 PUSH31 0xCB9E1871409BCF6F42BDDB64736F6C63430008140033000000000000000000 "},"methodIdentifiers":{"addOperator(address)":"9870d7fe","allowance(address,address)":"dd62ed3e","approve(address,uint256)":"095ea7b3","asset()":"38d52e0f","balanceOf(address)":"70a08231","convertToAssets(uint256)":"07a2d13a","convertToShares(uint256)":"c6e6f592","decimals()":"313ce567","deposit(uint256,address)":"6e553f65","firelightVault()":"17167e64","maxDeposit(address)":"402d267d","maxMint(address)":"c63d75b6","maxRedeem(address)":"d905777e","maxWithdraw(address)":"ce96cb77","minDeposit()":"41b3d185","mint(uint256,address)":"94bf804d","name()":"06fdde03","operators(address)":"13e7c9d8","owner()":"8da5cb5b","previewDeposit(uint256)":"ef8b30f7","previewMint(uint256)":"b3d7f6b9","previewRedeem(uint256)":"4cdad506","previewWithdraw(uint256)":"0a28a477","redeem(uint256,address,address)":"ba087652","removeOperator(address)":"ac8a584a","renounceOwnership()":"715018a6","setFirelightVault(address)":"8c7fb148","setMinDeposit(uint256)":"8fcc9cfb","symbol()":"95d89b41","totalAssets()":"01e1d114","totalStXRPDeposited()":"61bd63a2","totalSupply()":"18160ddd","transfer(address,uint256)":"a9059cbb","transferFrom(address,address,uint256)":"23b872dd","transferOwnership(address)":"f2fde38b","withdraw(uint256,address,address)":"b460af94"}}}}}