{"project/contracts/VaultController.sol":{"VaultController":{"abi":[{"inputs":[],"stateMutability":"nonpayable","type":"constructor"},{"inputs":[],"name":"AccessControlBadConfirmation","type":"error"},{"inputs":[{"internalType":"address","name":"account","type":"address"},{"internalType":"bytes32","name":"neededRole","type":"bytes32"}],"name":"AccessControlUnauthorizedAccount","type":"error"},{"inputs":[],"name":"ReentrancyGuardReentrantCall","type":"error"},{"anonymous":false,"inputs":[{"indexed":true,"internalType":"bytes32","name":"requestId","type":"bytes32"},{"indexed":true,"internalType":"address","name":"user","type":"address"},{"indexed":false,"internalType":"uint256","name":"xrpAmount","type":"uint256"}],"name":"BridgeRequestCreated","type":"event"},{"anonymous":false,"inputs":[{"indexed":true,"internalType":"bytes32","name":"requestId","type":"bytes32"},{"indexed":false,"internalType":"enum VaultController.BridgeStatus","name":"newStatus","type":"uint8"}],"name":"BridgeStatusUpdated","type":"event"},{"anonymous":false,"inputs":[{"indexed":true,"internalType":"address","name":"vault","type":"address"},{"indexed":false,"internalType":"uint256","name":"yieldAmount","type":"uint256"}],"name":"CompoundExecuted","type":"event"},{"anonymous":false,"inputs":[{"indexed":true,"internalType":"address","name":"operator","type":"address"}],"name":"OperatorAdded","type":"event"},{"anonymous":false,"inputs":[{"indexed":true,"internalType":"address","name":"operator","type":"address"}],"name":"OperatorRemoved","type":"event"},{"anonymous":false,"inputs":[{"indexed":true,"internalType":"bytes32","name":"role","type":"bytes32"},{"indexed":true,"internalType":"bytes32","name":"previousAdminRole","type":"bytes32"},{"indexed":true,"internalType":"bytes32","name":"newAdminRole","type":"bytes32"}],"name":"RoleAdminChanged","type":"event"},{"anonymous":false,"inputs":[{"indexed":true,"internalType":"bytes32","name":"role","type":"bytes32"},{"indexed":true,"internalType":"address","name":"account","type":"address"},{"indexed":true,"internalType":"address","name":"sender","type":"address"}],"name":"RoleGranted","type":"event"},{"anonymous":false,"inputs":[{"indexed":true,"internalType":"bytes32","name":"role","type":"bytes32"},{"indexed":true,"internalType":"address","name":"account","type":"address"},{"indexed":true,"internalType":"address","name":"sender","type":"address"}],"name":"RoleRevoked","type":"event"},{"anonymous":false,"inputs":[{"indexed":true,"internalType":"address","name":"vault","type":"address"},{"indexed":true,"internalType":"address","name":"strategy","type":"address"},{"indexed":false,"internalType":"uint256","name":"amount","type":"uint256"}],"name":"StrategyDeployed","type":"event"},{"anonymous":false,"inputs":[{"indexed":true,"internalType":"address","name":"strategy","type":"address"}],"name":"StrategyDeregistered","type":"event"},{"anonymous":false,"inputs":[{"indexed":true,"internalType":"address","name":"strategy","type":"address"},{"indexed":false,"internalType":"string","name":"name","type":"string"}],"name":"StrategyRegistered","type":"event"},{"anonymous":false,"inputs":[{"indexed":true,"internalType":"address","name":"vault","type":"address"},{"indexed":true,"internalType":"address","name":"strategy","type":"address"},{"indexed":false,"internalType":"uint256","name":"amount","type":"uint256"}],"name":"StrategyWithdrawn","type":"event"},{"anonymous":false,"inputs":[{"indexed":true,"internalType":"address","name":"vault","type":"address"}],"name":"VaultDeregistered","type":"event"},{"anonymous":false,"inputs":[{"indexed":true,"internalType":"address","name":"vault","type":"address"},{"indexed":false,"internalType":"uint256","name":"bufferBefore","type":"uint256"},{"indexed":false,"internalType":"uint256","name":"bufferAfter","type":"uint256"},{"indexed":false,"internalType":"uint256","name":"kineticBefore","type":"uint256"},{"indexed":false,"internalType":"uint256","name":"kineticAfter","type":"uint256"},{"indexed":false,"internalType":"uint256","name":"firelightBefore","type":"uint256"},{"indexed":false,"internalType":"uint256","name":"firelightAfter","type":"uint256"}],"name":"VaultRebalanced","type":"event"},{"anonymous":false,"inputs":[{"indexed":true,"internalType":"address","name":"vault","type":"address"}],"name":"VaultRegistered","type":"event"},{"inputs":[],"name":"BUFFER_TARGET_BPS","outputs":[{"internalType":"uint256","name":"","type":"uint256"}],"stateMutability":"view","type":"function"},{"inputs":[],"name":"COMPOUNDER_ROLE","outputs":[{"internalType":"bytes32","name":"","type":"bytes32"}],"stateMutability":"view","type":"function"},{"inputs":[],"name":"DEFAULT_ADMIN_ROLE","outputs":[{"internalType":"bytes32","name":"","type":"bytes32"}],"stateMutability":"view","type":"function"},{"inputs":[],"name":"FIRELIGHT_TARGET_BPS","outputs":[{"internalType":"uint256","name":"","type":"uint256"}],"stateMutability":"view","type":"function"},{"inputs":[],"name":"KINETIC_TARGET_BPS","outputs":[{"internalType":"uint256","name":"","type":"uint256"}],"stateMutability":"view","type":"function"},{"inputs":[],"name":"OPERATOR_ROLE","outputs":[{"internalType":"bytes32","name":"","type":"bytes32"}],"stateMutability":"view","type":"function"},{"inputs":[{"internalType":"uint256","name":"deployableAmount","type":"uint256"},{"internalType":"uint256","name":"kineticCurrent","type":"uint256"},{"internalType":"uint256","name":"firelightCurrent","type":"uint256"},{"internalType":"uint256","name":"totalAssets","type":"uint256"}],"name":"_calculateDeploymentAmountsExternal","outputs":[{"internalType":"uint256","name":"kineticAmount","type":"uint256"},{"internalType":"uint256","name":"firelightAmount","type":"uint256"}],"stateMutability":"view","type":"function"},{"inputs":[{"internalType":"address","name":"compounder","type":"address"}],"name":"addCompounder","outputs":[],"stateMutability":"nonpayable","type":"function"},{"inputs":[{"internalType":"address","name":"operator","type":"address"}],"name":"addOperator","outputs":[],"stateMutability":"nonpayable","type":"function"},{"inputs":[{"internalType":"bytes32","name":"","type":"bytes32"}],"name":"bridgeRequests","outputs":[{"internalType":"address","name":"user","type":"address"},{"internalType":"address","name":"vault","type":"address"},{"internalType":"uint256","name":"xrpAmount","type":"uint256"},{"internalType":"uint256","name":"fxrpExpected","type":"uint256"},{"internalType":"uint256","name":"timestamp","type":"uint256"},{"internalType":"enum VaultController.BridgeStatus","name":"status","type":"uint8"},{"internalType":"string","name":"xrplTxHash","type":"string"},{"internalType":"string","name":"flareTxHash","type":"string"}],"stateMutability":"view","type":"function"},{"inputs":[{"internalType":"address","name":"user","type":"address"},{"internalType":"address","name":"vault","type":"address"},{"internalType":"uint256","name":"xrpAmount","type":"uint256"},{"internalType":"string","name":"xrplTxHash","type":"string"}],"name":"createBridgeRequest","outputs":[{"internalType":"bytes32","name":"","type":"bytes32"}],"stateMutability":"nonpayable","type":"function"},{"inputs":[{"internalType":"address","name":"vault","type":"address"},{"internalType":"uint256","name":"amount","type":"uint256"}],"name":"deployToStrategies","outputs":[],"stateMutability":"nonpayable","type":"function"},{"inputs":[{"internalType":"address","name":"strategy","type":"address"}],"name":"deregisterStrategy","outputs":[],"stateMutability":"nonpayable","type":"function"},{"inputs":[{"internalType":"address","name":"vault","type":"address"}],"name":"deregisterVault","outputs":[],"stateMutability":"nonpayable","type":"function"},{"inputs":[{"internalType":"address","name":"vault","type":"address"}],"name":"executeCompound","outputs":[],"stateMutability":"nonpayable","type":"function"},{"inputs":[{"internalType":"bytes32","name":"requestId","type":"bytes32"}],"name":"getBridgeRequest","outputs":[{"components":[{"internalType":"address","name":"user","type":"address"},{"internalType":"address","name":"vault","type":"address"},{"internalType":"uint256","name":"xrpAmount","type":"uint256"},{"internalType":"uint256","name":"fxrpExpected","type":"uint256"},{"internalType":"uint256","name":"timestamp","type":"uint256"},{"internalType":"enum VaultController.BridgeStatus","name":"status","type":"uint8"},{"internalType":"string","name":"xrplTxHash","type":"string"},{"internalType":"string","name":"flareTxHash","type":"string"}],"internalType":"struct VaultController.BridgeRequest","name":"","type":"tuple"}],"stateMutability":"view","type":"function"},{"inputs":[{"internalType":"address","name":"vault","type":"address"}],"name":"getCurrentAllocation","outputs":[{"internalType":"uint256","name":"bufferAmount","type":"uint256"},{"internalType":"uint256","name":"kineticAmount","type":"uint256"},{"internalType":"uint256","name":"firelightAmount","type":"uint256"},{"internalType":"uint256","name":"totalAssets","type":"uint256"}],"stateMutability":"view","type":"function"},{"inputs":[{"internalType":"bytes32","name":"role","type":"bytes32"}],"name":"getRoleAdmin","outputs":[{"internalType":"bytes32","name":"","type":"bytes32"}],"stateMutability":"view","type":"function"},{"inputs":[],"name":"getStrategyCount","outputs":[{"internalType":"uint256","name":"","type":"uint256"}],"stateMutability":"view","type":"function"},{"inputs":[{"internalType":"uint256","name":"totalAssets","type":"uint256"}],"name":"getTargetAllocation","outputs":[{"internalType":"uint256","name":"bufferTarget","type":"uint256"},{"internalType":"uint256","name":"kineticTarget","type":"uint256"},{"internalType":"uint256","name":"firelightTarget","type":"uint256"}],"stateMutability":"pure","type":"function"},{"inputs":[],"name":"getVaultCount","outputs":[{"internalType":"uint256","name":"","type":"uint256"}],"stateMutability":"view","type":"function"},{"inputs":[{"internalType":"bytes32","name":"role","type":"bytes32"},{"internalType":"address","name":"account","type":"address"}],"name":"grantRole","outputs":[],"stateMutability":"nonpayable","type":"function"},{"inputs":[{"internalType":"bytes32","name":"role","type":"bytes32"},{"internalType":"address","name":"account","type":"address"}],"name":"hasRole","outputs":[{"internalType":"bool","name":"","type":"bool"}],"stateMutability":"view","type":"function"},{"inputs":[{"internalType":"address","name":"","type":"address"}],"name":"lastCompoundTime","outputs":[{"internalType":"uint256","name":"","type":"uint256"}],"stateMutability":"view","type":"function"},{"inputs":[],"name":"minCompoundInterval","outputs":[{"internalType":"uint256","name":"","type":"uint256"}],"stateMutability":"view","type":"function"},{"inputs":[{"internalType":"address","name":"vault","type":"address"},{"internalType":"uint256","name":"thresholdBps","type":"uint256"}],"name":"needsRebalancing","outputs":[{"internalType":"bool","name":"","type":"bool"}],"stateMutability":"view","type":"function"},{"inputs":[{"internalType":"address","name":"vault","type":"address"}],"name":"rebalanceVault","outputs":[],"stateMutability":"nonpayable","type":"function"},{"inputs":[{"internalType":"address","name":"strategy","type":"address"},{"internalType":"string","name":"name","type":"string"}],"name":"registerStrategy","outputs":[],"stateMutability":"nonpayable","type":"function"},{"inputs":[{"internalType":"address","name":"vault","type":"address"}],"name":"registerVault","outputs":[],"stateMutability":"nonpayable","type":"function"},{"inputs":[{"internalType":"address","name":"","type":"address"}],"name":"registeredStrategies","outputs":[{"internalType":"bool","name":"","type":"bool"}],"stateMutability":"view","type":"function"},{"inputs":[{"internalType":"address","name":"","type":"address"}],"name":"registeredVaults","outputs":[{"internalType":"bool","name":"","type":"bool"}],"stateMutability":"view","type":"function"},{"inputs":[{"internalType":"address","name":"compounder","type":"address"}],"name":"removeCompounder","outputs":[],"stateMutability":"nonpayable","type":"function"},{"inputs":[{"internalType":"address","name":"operator","type":"address"}],"name":"removeOperator","outputs":[],"stateMutability":"nonpayable","type":"function"},{"inputs":[{"internalType":"bytes32","name":"role","type":"bytes32"},{"internalType":"address","name":"callerConfirmation","type":"address"}],"name":"renounceRole","outputs":[],"stateMutability":"nonpayable","type":"function"},{"inputs":[{"internalType":"bytes32","name":"role","type":"bytes32"},{"internalType":"address","name":"account","type":"address"}],"name":"revokeRole","outputs":[],"stateMutability":"nonpayable","type":"function"},{"inputs":[{"internalType":"uint256","name":"interval","type":"uint256"}],"name":"setMinCompoundInterval","outputs":[],"stateMutability":"nonpayable","type":"function"},{"inputs":[{"internalType":"uint256","name":"","type":"uint256"}],"name":"strategyList","outputs":[{"internalType":"address","name":"","type":"address"}],"stateMutability":"view","type":"function"},{"inputs":[{"internalType":"address","name":"","type":"address"}],"name":"strategyNames","outputs":[{"internalType":"string","name":"","type":"string"}],"stateMutability":"view","type":"function"},{"inputs":[{"internalType":"bytes4","name":"interfaceId","type":"bytes4"}],"name":"supportsInterface","outputs":[{"internalType":"bool","name":"","type":"bool"}],"stateMutability":"view","type":"function"},{"inputs":[{"internalType":"bytes32","name":"requestId","type":"bytes32"},{"internalType":"enum VaultController.BridgeStatus","name":"newStatus","type":"uint8"},{"internalType":"string","name":"flareTxHash","type":"string"}],"name":"updateBridgeStatus","outputs":[],"stateMutability":"nonpayable","type":"function"},{"inputs":[{"internalType":"uint256","name":"","type":"uint256"}],"name":"vaultList","outputs":[{"internalType":"address","name":"","type":"address"}],"stateMutability":"view","type":"function"},{"inputs":[{"internalType":"address","name":"vault","type":"address"},{"internalType":"uint256","name":"amount","type":"uint256"}],"name":"withdrawFromStrategies","outputs":[],"stateMutability":"nonpayable","type":"function"}],"evm":{"bytecode":{"linkReferences":{},"object":"6080604052610e1060075534801562000016575f80fd5b5060018055620000275f3362000088565b50620000547f97667070c54ef182b0f5858b034beac1b6f3089aa2d3188bb1e8929f4fa9b9293362000088565b50620000817f29944e936a0f6e1cbaa227df218d7d6025c2a2785db840e42a3425f24e9e68ac3362000088565b5062000134565b5f828152602081815260408083206001600160a01b038516845290915281205460ff166200012b575f838152602081815260408083206001600160a01b03861684529091529020805460ff19166001179055620000e23390565b6001600160a01b0316826001600160a01b0316847f2f8788117e7eff1d82e926ec794901d17c78024a50270940304540a733656f0d60405160405180910390a45060016200012e565b505f5b92915050565b6138ab80620001425f395ff3fe608060405234801561000f575f80fd5b5060043610610255575f3560e01c806388b0e1fc11610140578063bb9dd1e3116100bf578063e22486be11610084578063e22486be14610577578063ef0f0ec31461058a578063f1e4998d146105ac578063f5b541a6146105da578063fd35d886146105ee578063feb4a71d14610610575f80fd5b8063bb9dd1e31461050b578063cfd8b4921461051e578063d4b5bbc814610531578063d547741f14610551578063e0b625f514610564575f80fd5b8063a267526b11610105578063a267526b146104a9578063aa121dcb146104bc578063ac3fea33146104c5578063ac8a584a146104e5578063b17e6e23146104f8575f80fd5b806388b0e1fc1461044057806391d148541461047357806393a2a108146104865780639870d7fe1461048f578063a217fddf146104a2575f80fd5b80633e32e7ea116101d7578063684cb2741161019c578063684cb274146103d857806370ae305b146103ec578063738d2e89146103ff57806374d4e491146104125780637f17c58f1461041a57806384824d761461042d575f80fd5b80633e32e7ea1461036f578063530409601461038257806360b4141114610395578063656ae5eb146103bc57806367ccd1cb146103c5575f80fd5b80632d8efbc51161021d5780632d8efbc5146103015780632f2ff15d1461032c57806331e19cfa1461034157806336568abe1461034957806338e270ed1461035c575f80fd5b806301ffc9a7146102595780630ec280ba146102815780631995ee8514610298578063248a9ca3146102c0578063277d3d54146102e2575b5f80fd5b61026c610267366004612fa7565b610623565b60405190151581526020015b60405180910390f35b61028a61138881565b604051908152602001610278565b6102ab6102a6366004612fce565b610659565b60408051928352602083019190915201610278565b61028a6102ce366004612ffd565b5f9081526020819052604090206001015490565b61028a6102f0366004613028565b60086020525f908152604090205481565b61031461030f366004612ffd565b610674565b6040516001600160a01b039091168152602001610278565b61033f61033a366004613043565b61069c565b005b60055461028a565b61033f610357366004613043565b6106c6565b61033f61036a366004613028565b6106fe565b61033f61037d366004613028565b610791565b61033f610390366004612ffd565b610a11565b6103a86103a3366004612ffd565b610a21565b6040516102789897969594939291906130e8565b61028a610fa081565b61033f6103d3366004613028565b610b82565b61028a5f8051602061385683398151915281565b61033f6103fa366004613028565b610c80565b61033f61040d366004613028565b610ca1565b60035461028a565b61033f61042836600461319c565b610cc2565b61028a61043b3660046131ed565b610e4a565b61045361044e366004613028565b611055565b604080519485526020850193909352918301526060820152608001610278565b61026c610481366004613043565b61139d565b61028a6103e881565b61033f61049d366004613028565b6113c5565b61028a5f81565b6103146104b7366004612ffd565b61141d565b61028a60075481565b6104d86104d3366004613028565b61142c565b604051610278919061325b565b61033f6104f3366004613028565b6114c3565b61033f61050636600461326d565b61151b565b61026c61051936600461326d565b6119f4565b61033f61052c366004613297565b611b5a565b61054461053f366004612ffd565b611c40565b60405161027891906132f2565b61033f61055f366004613043565b611e3a565b61033f610572366004613028565b611e5e565b61033f61058536600461326d565b611f7d565b61026c610598366004613028565b60026020525f908152604090205460ff1681565b6105bf6105ba366004612ffd565b61245a565b60408051938452602084019290925290820152606001610278565b61028a5f8051602061383683398151915281565b61026c6105fc366004613028565b60046020525f908152604090205460ff1681565b61033f61061e366004613028565b6124b4565b5f6001600160e01b03198216637965db0b60e01b148061065357506301ffc9a760e01b6001600160e01b03198316145b92915050565b5f806106678686868661258e565b9150915094509492505050565b60038181548110610683575f80fd5b5f918252602090912001546001600160a01b0316905081565b5f828152602081905260409020600101546106b681612729565b6106c08383612736565b50505050565b6001600160a01b03811633146106ef5760405163334bd91960e11b815260040160405180910390fd5b6106f982826127c5565b505050565b5f61070881612729565b6001600160a01b0382165f9081526002602052604090205460ff166107485760405162461bcd60e51b815260040161073f90613394565b60405180910390fd5b6001600160a01b0382165f81815260026020526040808220805460ff19169055517ff8769b01493238f5c26a42a7b690cb1ff2b53a7d89d9a57e6332458703db8b049190a25050565b5f805160206138368339815191526107a881612729565b6107b061282e565b6001600160a01b0382165f9081526002602052604090205460ff166107e75760405162461bcd60e51b815260040161073f90613394565b60405163222c387f60e21b81526001600160a01b03831660048201525f9081908190819030906388b0e1fc90602401608060405180830381865afa158015610831573d5f803e3d5ffd5b505050506040513d601f19601f8201168201806040525081019061085591906133c2565b9350935093509350805f0361086d5750505050610a04565b5f61271061087d6103e884613409565b6108879190613420565b90505f6108b2604051806040016040528060078152602001664b696e6574696360c81b815250612858565b90505f6108df60405180604001604052806009815260200168119a5c995b1a59da1d60ba1b815250612858565b905082871115610903576108fe896108f7858a61343f565b8484612950565b610923565b828710156109235761092389610919898661343f565b888886868a612cbd565b60405163222c387f60e21b81526001600160a01b038a1660048201525f908190819030906388b0e1fc90602401608060405180830381865afa15801561096b573d5f803e3d5ffd5b505050506040513d601f19601f8201168201806040525081019061098f91906133c2565b50604080518e8152602081018590529081018d905260608101839052608081018c905260a0810182905292955090935091506001600160a01b038d16907fc7b04f8103feca14b7d0c3e7a285d289e882cadb1ff9506dce5ee59ec8b3110d9060c00160405180910390a2505050505050505050505b610a0d60018055565b5050565b5f610a1b81612729565b50600755565b60096020525f908152604090208054600182015460028301546003840154600485015460058601546006870180546001600160a01b0397881698969097169694959394929360ff90921692610a7590613452565b80601f0160208091040260200160405190810160405280929190818152602001828054610aa190613452565b8015610aec5780601f10610ac357610100808354040283529160200191610aec565b820191905f5260205f20905b815481529060010190602001808311610acf57829003601f168201915b505050505090806007018054610b0190613452565b80601f0160208091040260200160405190810160405280929190818152602001828054610b2d90613452565b8015610b785780601f10610b4f57610100808354040283529160200191610b78565b820191905f5260205f20905b815481529060010190602001808311610b5b57829003601f168201915b5050505050905088565b5f610b8c81612729565b6001600160a01b0382165f9081526002602052604090205460ff1615610bf45760405162461bcd60e51b815260206004820152601860248201527f5661756c7420616c726561647920726567697374657265640000000000000000604482015260640161073f565b6001600160a01b0382165f81815260026020526040808220805460ff1916600190811790915560038054918201815583527fc2575a0e9e593c00f959f8c92f12db2869c3395a3b0502d05e2516446f71f85b0180546001600160a01b03191684179055517f8e0930709528779f1112249aac8fcca15dbb9c595db31092c7bc7f954b5679339190a25050565b5f610c8a81612729565b610a0d5f8051602061385683398151915283611e3a565b5f610cab81612729565b610a0d5f805160206138568339815191528361069c565b5f610ccc81612729565b6001600160a01b038416610d225760405162461bcd60e51b815260206004820152601860248201527f496e76616c696420737472617465677920616464726573730000000000000000604482015260640161073f565b6001600160a01b0384165f9081526004602052604090205460ff1615610d8a5760405162461bcd60e51b815260206004820152601b60248201527f537472617465677920616c726561647920726567697374657265640000000000604482015260640161073f565b6001600160a01b0384165f818152600460209081526040808320805460ff191660019081179091556005805491820190557f036b6384b5eca791c62761152d0c79bb0604c104a5fb6f4eb0703f3154bb3db00180546001600160a01b031916851790559282526006905220610e008385836134eb565b50836001600160a01b03167f10f21c9cf836093601e448ac3b2a1a0814d1b9251b2e30c7a50dc261449517488484604051610e3c9291906135a7565b60405180910390a250505050565b5f5f80516020613836833981519152610e6281612729565b6040516bffffffffffffffffffffffff19606089811b8216602084015288901b166034820152604881018690524260688201525f90608801604051602081830303815290604052805190602001209050604051806101000160405280896001600160a01b03168152602001886001600160a01b031681526020018781526020018781526020014281526020015f6006811115610f0057610f00613071565b815260200186868080601f0160208091040260200160405190810160405280939291908181526020018383808284375f92018290525093855250506040805160208181018352848252948501528583526009845291829020845181546001600160a01b039182166001600160a01b03199182161783559486015160018084018054929093169190961617905591840151600283015550606083015160038201556080830151600482015560a083015160058201805492939192909160ff1990911690836006811115610fd457610fd4613071565b021790555060c08201516006820190610fed90826135d5565b5060e0820151600782019061100290826135d5565b50905050876001600160a01b0316817f1f0060bef00d471c887f1108b9bded19641191671c6b6dc19eb8103bce17f6fa8860405161104291815260200190565b60405180910390a3979650505050505050565b6001600160a01b0381165f9081526002602052604081205481908190819060ff166110925760405162461bcd60e51b815260040161073f90613394565b5f8590505f816001600160a01b03166338d52e0f6040518163ffffffff1660e01b8152600401602060405180830381865afa1580156110d3573d5f803e3d5ffd5b505050506040513d601f19601f820116820180604052508101906110f79190613691565b6040516370a0823160e01b81526001600160a01b038481166004830152919250908216906370a0823190602401602060405180830381865afa15801561113f573d5f803e3d5ffd5b505050506040513d601f19601f8201168201806040525081019061116391906136ac565b95505f5b60055481101561137c575f60058281548110611185576111856136c3565b5f9182526020808320909101546001600160a01b0316808352600490915260409091205490915060ff166111b9575061136a565b6001600160a01b0381165f90815260066020526040812080546111db90613452565b80601f016020809104026020016040519081016040528092919081815260200182805461120790613452565b80156112525780601f1061122957610100808354040283529160200191611252565b820191905f5260205f20905b81548152906001019060200180831161123557829003601f168201915b505050505090505f826001600160a01b03166301e1d1146040518163ffffffff1660e01b8152600401602060405180830381865afa9250505080156112b4575060408051601f3d908101601f191682019092526112b1918101906136ac565b60015b6112bf57505f6112c2565b90505b6040805180820190915260078152664b696e6574696360c81b6020918201528251908301207f803b973cde83d6b3fff0d52604b8c3080aa09a2cd882b962dd02b56167c1b7cf0161131557809850611366565b604080518082019091526009815268119a5c995b1a59da1d60ba1b6020918201528251908301207f9c8f4823b09f1db4212dd7d528b5c908da85f6e7320b005572ddca34a89f874c01611366578097505b5050505b80611374816136d7565b915050611167565b508361138886886136ef565b61139291906136ef565b925050509193509193565b5f918252602082815260408084206001600160a01b0393909316845291905290205460ff1690565b5f6113cf81612729565b6113e65f805160206138368339815191528361069c565b6040516001600160a01b038316907fac6fa858e9350a46cec16539926e0fde25b7629f84b5a72bffaae4df888ae86d905f90a25050565b60058181548110610683575f80fd5b60066020525f90815260409020805461144490613452565b80601f016020809104026020016040519081016040528092919081815260200182805461147090613452565b80156114bb5780601f10611492576101008083540402835291602001916114bb565b820191905f5260205f20905b81548152906001019060200180831161149e57829003601f168201915b505050505081565b5f6114cd81612729565b6114e45f8051602061383683398151915283611e3a565b6040516001600160a01b038316907f80c0b871b97b595b16a7741c1b06fed0c6f6f558639f18ccbce50724325dc40d905f90a25050565b5f8051602061383683398151915261153281612729565b61153a61282e565b6001600160a01b0383165f9081526002602052604090205460ff166115715760405162461bcd60e51b815260040161073f90613394565b5f82116115c05760405162461bcd60e51b815260206004820152601d60248201527f416d6f756e74206d7573742062652067726561746572207468616e2030000000604482015260640161073f565b5f6115e9604051806040016040528060078152602001664b696e6574696360c81b815250612858565b90505f61161660405180604001604052806009815260200168119a5c995b1a59da1d60ba1b815250612858565b90506001600160a01b03821615158061163757506001600160a01b03811615155b6116835760405162461bcd60e51b815260206004820152601860248201527f4e6f207374726174656769657320726567697374657265640000000000000000604482015260640161073f565b5f806001600160a01b038416156116f657836001600160a01b03166301e1d1146040518163ffffffff1660e01b8152600401602060405180830381865afa9250505080156116ee575060408051601f3d908101601f191682019092526116eb918101906136ac565b60015b156116f65791505b6001600160a01b0383161561176757826001600160a01b03166301e1d1146040518163ffffffff1660e01b8152600401602060405180830381865afa92505050801561175f575060408051601f3d908101601f1916820190925261175c918101906136ac565b60015b156117675790505b5f61177282846136ef565b9050868110156117c45760405162461bcd60e51b815260206004820152601f60248201527f496e73756666696369656e74207374726174656779206c697175696469747900604482015260640161073f565b87876001600160a01b038616158015906117dd57505f81115b156118a35783156118a3575f8482116117f657816117f8565b845b6040516316a7a12b60e31b81526001600160a01b038981166004830152602482018390529192509084169063b53d0958906044015f604051808303815f87803b158015611843575f80fd5b505af1158015611855573d5f803e3d5ffd5b505050508082611865919061343f565b9150866001600160a01b03168b6001600160a01b03165f805160206137f68339815191528360405161189991815260200190565b60405180910390a3505b6001600160a01b038716158015906118ba57505f81115b15611980578415611980575f8582116118d357816118d5565b855b6040516316a7a12b60e31b81526001600160a01b038a81166004830152602482018390529192509084169063b53d0958906044015f604051808303815f87803b158015611920575f80fd5b505af1158015611932573d5f803e3d5ffd5b505050508082611942919061343f565b9150876001600160a01b03168b6001600160a01b03165f805160206137f68339815191528360405161197691815260200190565b60405180910390a3505b80158061198c57508881105b6119e45760405162461bcd60e51b8152602060048201526024808201527f496e73756666696369656e74206c697175696469747920696e207374726174656044820152636769657360e01b606482015260840161073f565b505050505050506106f960018055565b6001600160a01b0382165f9081526002602052604081205460ff16611a2b5760405162461bcd60e51b815260040161073f90613394565b60405163222c387f60e21b81526001600160a01b03841660048201525f9081908190819030906388b0e1fc90602401608060405180830381865afa158015611a75573d5f803e3d5ffd5b505050506040513d601f19601f82011682018060405250810190611a9991906133c2565b9350935093509350805f03611ab4575f945050505050610653565b5f612710611ac46103e884613409565b611ace9190613420565b90505f612710611ae0610fa085613409565b611aea9190613420565b90505f612710611afc61138886613409565b611b069190613420565b90505f611b14888587612eb5565b90505f611b22888588612eb5565b90505f611b30888589612eb5565b90508b831180611b3f57508b82115b80611b4957508b81115b9d9c50505050505050505050505050565b5f80516020613836833981519152611b7181612729565b5f8581526009602052604090206004810154611bc35760405162461bcd60e51b815260206004820152601160248201527014995c5d595cdd081b9bdd08199bdd5b99607a1b604482015260640161073f565b60058101805486919060ff19166001836006811115611be457611be4613071565b02179055508215611c005760078101611bfe8486836134eb565b505b857f97ed9d84b17cab14ff4200e765d9126d7274000fa00bbbac0621925331bc4abf86604051611c309190613702565b60405180910390a2505050505050565b611c8760408051610100810182525f8082526020820181905291810182905260608101829052608081018290529060a0820190815260200160608152602001606081525090565b5f8281526009602090815260409182902082516101008101845281546001600160a01b039081168252600183015416928101929092526002810154928201929092526003820154606082015260048201546080820152600582015490919060a083019060ff166006811115611cfe57611cfe613071565b6006811115611d0f57611d0f613071565b8152602001600682018054611d2390613452565b80601f0160208091040260200160405190810160405280929190818152602001828054611d4f90613452565b8015611d9a5780601f10611d7157610100808354040283529160200191611d9a565b820191905f5260205f20905b815481529060010190602001808311611d7d57829003601f168201915b50505050508152602001600782018054611db390613452565b80601f0160208091040260200160405190810160405280929190818152602001828054611ddf90613452565b8015611e2a5780601f10611e0157610100808354040283529160200191611e2a565b820191905f5260205f20905b815481529060010190602001808311611e0d57829003601f168201915b5050505050815250509050919050565b5f82815260208190526040902060010154611e5481612729565b6106c083836127c5565b5f80516020613856833981519152611e7581612729565b611e7d61282e565b6001600160a01b0382165f9081526002602052604090205460ff16611eb45760405162461bcd60e51b815260040161073f90613394565b6007546001600160a01b0383165f90815260086020526040902054611ed991906136ef565b421015611f285760405162461bcd60e51b815260206004820152601d60248201527f436f6d706f756e6420696e74657276616c206e6f742072656163686564000000604482015260640161073f565b6001600160a01b0382165f818152600860209081526040808320429055519182527fca542b171f04023bc049135ad0197f67f934173e08a75e9a19fd920097428baf910160405180910390a2610a0d60018055565b5f80516020613836833981519152611f9481612729565b611f9c61282e565b6001600160a01b0383165f9081526002602052604090205460ff16611fd35760405162461bcd60e51b815260040161073f90613394565b60405163222c387f60e21b81526001600160a01b03841660048201525f9081908190819030906388b0e1fc90602401608060405180830381865afa15801561201d573d5f803e3d5ffd5b505050506040513d601f19601f8201168201806040525081019061204191906133c2565b60405163f1e4998d60e01b815260048101829052939750919550935091505f90309063f1e4998d90602401606060405180830381865afa158015612087573d5f803e3d5ffd5b505050506040513d601f19601f820116820180604052508101906120ab9190613710565b505090505f818611156120c9576120c2828761343f565b905061212b565b60405162461bcd60e51b815260206004820152603160248201527f42756666657220616c7265616479206174206f722062656c6f7720746172676560448201527074202d2063616e6e6f74206465706c6f7960781b606482015260840161073f565b5f8811801561213957508088105b156121415750865b5f811161219a5760405162461bcd60e51b815260206004820152602160248201527f4e6f2066756e647320617661696c61626c6520666f72206465706c6f796d656e6044820152601d60fa1b606482015260840161073f565b808610156121ea5760405162461bcd60e51b815260206004820152601c60248201527f496e73756666696369656e74207661756c74206c697175696469747900000000604482015260640161073f565b5f612213604051806040016040528060078152602001664b696e6574696360c81b815250612858565b90505f61224060405180604001604052806009815260200168119a5c995b1a59da1d60ba1b815250612858565b90506001600160a01b0382166122985760405162461bcd60e51b815260206004820152601f60248201527f4b696e65746963207374726174656779206e6f74207265676973746572656400604482015260640161073f565b6001600160a01b0381166122f85760405162461bcd60e51b815260206004820152602160248201527f466972656c69676874207374726174656779206e6f74207265676973746572656044820152601960fa1b606482015260840161073f565b5f80612306858a8a8a61258e565b909250905081156123a95760405163f6c00db960e01b81526001600160a01b038581166004830152602482018490528e169063f6c00db9906044015f604051808303815f87803b158015612358575f80fd5b505af115801561236a573d5f803e3d5ffd5b50505050836001600160a01b03168d6001600160a01b03165f80516020613816833981519152846040516123a091815260200190565b60405180910390a35b80156124475760405163f6c00db960e01b81526001600160a01b038481166004830152602482018390528e169063f6c00db9906044015f604051808303815f87803b1580156123f6575f80fd5b505af1158015612408573d5f803e3d5ffd5b50505050826001600160a01b03168d6001600160a01b03165f805160206138168339815191528360405161243e91815260200190565b60405180910390a35b505050505050505050506106f960018055565b5f808061271061246c6103e886613409565b6124769190613420565b9250612710612487610fa086613409565b6124919190613420565b91506127106124a261138886613409565b6124ac9190613420565b929491935050565b5f6124be81612729565b6001600160a01b0382165f9081526004602052604090205460ff166125255760405162461bcd60e51b815260206004820152601760248201527f5374726174656779206e6f742072656769737465726564000000000000000000604482015260640161073f565b6001600160a01b0382165f908152600460209081526040808320805460ff191690556006909152812061255791612f5d565b6040516001600160a01b038316907fe06c76aaa899d6e50c29b6042203fd0da283c14440160adca192e845196a0419905f90a25050565b60405163f1e4998d60e01b8152600481018290525f90819081908190309063f1e4998d90602401606060405180830381865afa1580156125d0573d5f803e3d5ffd5b505050506040513d601f19601f820116820180604052508101906125f49190613710565b92509250505f8783612606919061373b565b90505f612613888461373b565b90505f8213801561262357505f81135b156126755781815f61263582846136ef565b9050808d106126495782985081975061266d565b80612654848f613409565b61265e9190613420565b985061266a898e61343f565b97505b50505061271c565b5f8213156126985781808b1061268b578061268d565b8a5b96505f95505061271c565b5f8113156126bb575f955080808b106126b157806126b3565b8a5b95505061271c565b60405162461bcd60e51b815260206004820152603060248201527f5374726174656769657320616c7265616479206174206f722061626f7665207460448201526f30b933b2ba1030b63637b1b0ba34b7b760811b606482015260840161073f565b5050505094509492505050565b6127338133612f24565b50565b5f612741838361139d565b6127be575f838152602081815260408083206001600160a01b03861684529091529020805460ff191660011790556127763390565b6001600160a01b0316826001600160a01b0316847f2f8788117e7eff1d82e926ec794901d17c78024a50270940304540a733656f0d60405160405180910390a4506001610653565b505f610653565b5f6127d0838361139d565b156127be575f838152602081815260408083206001600160a01b0386168085529252808320805460ff1916905551339286917ff6391f5c32d9c69d2a47ea670b442974b53935d1edc7fd64eb21e047a839171b9190a4506001610653565b60026001540361285157604051633ee5aeb560e01b815260040160405180910390fd5b6002600155565b5f805b6005548110156129485760045f6005838154811061287b5761287b6136c3565b5f9182526020808320909101546001600160a01b0316835282019290925260400190205460ff1680156129035750828051906020012060065f600584815481106128c7576128c76136c3565b5f9182526020808320909101546001600160a01b03168352820192909252604090810190912090516128f99190613761565b6040518091039020145b15612936576005818154811061291b5761291b6136c3565b5f918252602090912001546001600160a01b03169392505050565b80612940816136d7565b91505061285b565b505f92915050565b60405163222c387f60e21b81526001600160a01b03851660048201525f9081908190819030906388b0e1fc90602401608060405180830381865afa15801561299a573d5f803e3d5ffd5b505050506040513d601f19601f820116820180604052508101906129be91906133c2565b60405163f1e4998d60e01b815260048101829052939750919550935091505f90309063f1e4998d90602401606060405180830381865afa158015612a04573d5f803e3d5ffd5b505050506040513d601f19601f82011682018060405250810190612a289190613710565b505090505f81861115612a4657612a3f828761343f565b9050612a51565b5050505050506106c0565b80891015612a5c5750875b80861015612ac15760405162461bcd60e51b815260206004820152602c60248201527f496e73756666696369656e74207661756c74206c697175696469747920666f7260448201526b20726562616c616e63696e6760a01b606482015260840161073f565b604051631995ee8560e01b8152600481018290526024810186905260448101859052606481018490525f9081903090631995ee85906084016040805180830381865afa925050508015612b31575060408051601f3d908101601f19168201909252612b2e918101906137d3565b60015b612b425750505050505050506106c0565b90925090506001600160a01b038a1615801590612b5e57505f82115b15612bfb5760405163f6c00db960e01b81526001600160a01b038b81166004830152602482018490528d169063f6c00db9906044015f604051808303815f87803b158015612baa575f80fd5b505af1158015612bbc573d5f803e3d5ffd5b50505050896001600160a01b03168c6001600160a01b03165f8051602061381683398151915284604051612bf291815260200190565b60405180910390a35b6001600160a01b03891615801590612c1257505f81115b15612caf5760405163f6c00db960e01b81526001600160a01b038a81166004830152602482018390528d169063f6c00db9906044015f604051808303815f87803b158015612c5e575f80fd5b505af1158015612c70573d5f803e3d5ffd5b50505050886001600160a01b03168c6001600160a01b03165f8051602061381683398151915283604051612ca691815260200190565b60405180910390a35b505050505050505050505050565b865f612710612cce610fa085613409565b612cd89190613420565b90505f612710612cea61138886613409565b612cf49190613420565b90506001600160a01b03851615801590612d0d57508087115b15612dd1575f612d1d828961343f565b905089811115612d2a5750885b6040516316a7a12b60e31b81526001600160a01b0387811660048301526024820183905285169063b53d0958906044015f604051808303815f87803b158015612d71575f80fd5b505af1158015612d83573d5f803e3d5ffd5b50505050808a612d93919061343f565b9950856001600160a01b03168b6001600160a01b03165f805160206137f683398151915283604051612dc791815260200190565b60405180910390a3505b6001600160a01b03861615801590612de857505f89115b8015612df357508188115b15612ea9575f612e03838a61343f565b905089811115612e105750885b6040516316a7a12b60e31b81526001600160a01b0388811660048301526024820183905285169063b53d0958906044015f604051808303815f87803b158015612e57575f80fd5b505af1158015612e69573d5f803e3d5ffd5b50505050866001600160a01b03168b6001600160a01b03165f805160206137f683398151915283604051612e9f91815260200190565b60405180910390a3505b50505050505050505050565b5f815f03612ec457505f612f1d565b5f82612ed286612710613409565b612edc9190613420565b90505f83612eec86612710613409565b612ef69190613420565b905080821115612f1357612f0a818361343f565b92505050612f1d565b612f0a828261343f565b9392505050565b612f2e828261139d565b610a0d5760405163e2517d3f60e01b81526001600160a01b03821660048201526024810183905260440161073f565b508054612f6990613452565b5f825580601f10612f78575050565b601f0160209004905f5260205f209081019061273391905b80821115612fa3575f8155600101612f90565b5090565b5f60208284031215612fb7575f80fd5b81356001600160e01b031981168114612f1d575f80fd5b5f805f8060808587031215612fe1575f80fd5b5050823594602084013594506040840135936060013592509050565b5f6020828403121561300d575f80fd5b5035919050565b6001600160a01b0381168114612733575f80fd5b5f60208284031215613038575f80fd5b8135612f1d81613014565b5f8060408385031215613054575f80fd5b82359150602083013561306681613014565b809150509250929050565b634e487b7160e01b5f52602160045260245ffd5b600781106130a157634e487b7160e01b5f52602160045260245ffd5b9052565b5f81518084525f5b818110156130c9576020818501810151868301820152016130ad565b505f602082860101526020601f19601f83011685010191505092915050565b6001600160a01b038981168252881660208201526040810187905260608101869052608081018590525f61010061312260a0840187613085565b8060c0840152613134818401866130a5565b905082810360e084015261314881856130a5565b9b9a5050505050505050505050565b5f8083601f840112613167575f80fd5b50813567ffffffffffffffff81111561317e575f80fd5b602083019150836020828501011115613195575f80fd5b9250929050565b5f805f604084860312156131ae575f80fd5b83356131b981613014565b9250602084013567ffffffffffffffff8111156131d4575f80fd5b6131e086828701613157565b9497909650939450505050565b5f805f805f60808688031215613201575f80fd5b853561320c81613014565b9450602086013561321c81613014565b935060408601359250606086013567ffffffffffffffff81111561323e575f80fd5b61324a88828901613157565b969995985093965092949392505050565b602081525f612f1d60208301846130a5565b5f806040838503121561327e575f80fd5b823561328981613014565b946020939093013593505050565b5f805f80606085870312156132aa575f80fd5b843593506020850135600781106132bf575f80fd5b9250604085013567ffffffffffffffff8111156132da575f80fd5b6132e687828801613157565b95989497509550505050565b602080825282516001600160a01b0316828201528201515f9061332060408401826001600160a01b03169052565b506040830151606083015260608301516080830152608083015160a083015260a083015161335160c0840182613085565b5060c08301516101008060e085015261336e6101208501836130a5565b915060e0850151601f19858403018286015261338a83826130a5565b9695505050505050565b60208082526014908201527315985d5b1d081b9bdd081c9959da5cdd195c995960621b604082015260600190565b5f805f80608085870312156133d5575f80fd5b505082516020840151604085015160609095015191969095509092509050565b634e487b7160e01b5f52601160045260245ffd5b8082028115828204841417610653576106536133f5565b5f8261343a57634e487b7160e01b5f52601260045260245ffd5b500490565b81810381811115610653576106536133f5565b600181811c9082168061346657607f821691505b60208210810361348457634e487b7160e01b5f52602260045260245ffd5b50919050565b634e487b7160e01b5f52604160045260245ffd5b601f8211156106f9575f81815260208120601f850160051c810160208610156134c45750805b601f850160051c820191505b818110156134e3578281556001016134d0565b505050505050565b67ffffffffffffffff8311156135035761350361348a565b613517836135118354613452565b8361349e565b5f601f841160018114613548575f85156135315750838201355b5f19600387901b1c1916600186901b1783556135a0565b5f83815260209020601f19861690835b828110156135785786850135825560209485019460019092019101613558565b5086821015613594575f1960f88860031b161c19848701351681555b505060018560011b0183555b5050505050565b60208152816020820152818360408301375f818301604090810191909152601f909201601f19160101919050565b815167ffffffffffffffff8111156135ef576135ef61348a565b613603816135fd8454613452565b8461349e565b602080601f831160018114613636575f841561361f5750858301515b5f19600386901b1c1916600185901b1785556134e3565b5f85815260208120601f198616915b8281101561366457888601518255948401946001909101908401613645565b508582101561368157878501515f19600388901b60f8161c191681555b5050505050600190811b01905550565b5f602082840312156136a1575f80fd5b8151612f1d81613014565b5f602082840312156136bc575f80fd5b5051919050565b634e487b7160e01b5f52603260045260245ffd5b5f600182016136e8576136e86133f5565b5060010190565b80820180821115610653576106536133f5565b602081016106538284613085565b5f805f60608486031215613722575f80fd5b8351925060208401519150604084015190509250925092565b8181035f83128015838313168383128216171561375a5761375a6133f5565b5092915050565b5f80835461376e81613452565b60018281168015613786576001811461379b576137c7565b60ff19841687528215158302870194506137c7565b875f526020805f205f5b858110156137be5781548a8201529084019082016137a5565b50505082870194505b50929695505050505050565b5f80604083850312156137e4575f80fd5b50508051602090910151909290915056febabc8124ddaa11119abddcffd699924f857c9a15f1fc50be38069e96a47ae8c0b7ac28ede4873dc81919ca509f636bd6abb29ad51243fae38a59aea768729dde97667070c54ef182b0f5858b034beac1b6f3089aa2d3188bb1e8929f4fa9b92929944e936a0f6e1cbaa227df218d7d6025c2a2785db840e42a3425f24e9e68aca2646970667358221220f600b22b005149729ef73c7489f8b6b5de9d9116b2c883afad52910fe606904f64736f6c63430008140033","opcodes":"PUSH1 0x80 PUSH1 0x40 MSTORE PUSH2 0xE10 PUSH1 0x7 SSTORE CALLVALUE DUP1 ISZERO PUSH3 0x16 JUMPI PUSH0 DUP1 REVERT JUMPDEST POP PUSH1 0x1 DUP1 SSTORE PUSH3 0x27 PUSH0 CALLER PUSH3 0x88 JUMP JUMPDEST POP PUSH3 0x54 PUSH32 0x97667070C54EF182B0F5858B034BEAC1B6F3089AA2D3188BB1E8929F4FA9B929 CALLER PUSH3 0x88 JUMP JUMPDEST POP PUSH3 0x81 PUSH32 0x29944E936A0F6E1CBAA227DF218D7D6025C2A2785DB840E42A3425F24E9E68AC CALLER PUSH3 0x88 JUMP JUMPDEST POP PUSH3 0x134 JUMP JUMPDEST PUSH0 DUP3 DUP2 MSTORE PUSH1 0x20 DUP2 DUP2 MSTORE PUSH1 0x40 DUP1 DUP4 KECCAK256 PUSH1 0x1 PUSH1 0x1 PUSH1 0xA0 SHL SUB DUP6 AND DUP5 MSTORE SWAP1 SWAP2 MSTORE DUP2 KECCAK256 SLOAD PUSH1 0xFF AND PUSH3 0x12B JUMPI PUSH0 DUP4 DUP2 MSTORE PUSH1 0x20 DUP2 DUP2 MSTORE PUSH1 0x40 DUP1 DUP4 KECCAK256 PUSH1 0x1 PUSH1 0x1 PUSH1 0xA0 SHL SUB DUP7 AND DUP5 MSTORE SWAP1 SWAP2 MSTORE SWAP1 KECCAK256 DUP1 SLOAD PUSH1 0xFF NOT AND PUSH1 0x1 OR SWAP1 SSTORE PUSH3 0xE2 CALLER SWAP1 JUMP JUMPDEST PUSH1 0x1 PUSH1 0x1 PUSH1 0xA0 SHL SUB AND DUP3 PUSH1 0x1 PUSH1 0x1 PUSH1 0xA0 SHL SUB AND DUP5 PUSH32 0x2F8788117E7EFF1D82E926EC794901D17C78024A50270940304540A733656F0D PUSH1 0x40 MLOAD PUSH1 0x40 MLOAD DUP1 SWAP2 SUB SWAP1 LOG4 POP PUSH1 0x1 PUSH3 0x12E JUMP JUMPDEST POP PUSH0 JUMPDEST SWAP3 SWAP2 POP POP JUMP JUMPDEST PUSH2 0x38AB DUP1 PUSH3 0x142 PUSH0 CODECOPY PUSH0 RETURN INVALID PUSH1 0x80 PUSH1 0x40 MSTORE CALLVALUE DUP1 ISZERO PUSH2 0xF JUMPI PUSH0 DUP1 REVERT JUMPDEST POP PUSH1 0x4 CALLDATASIZE LT PUSH2 0x255 JUMPI PUSH0 CALLDATALOAD PUSH1 0xE0 SHR DUP1 PUSH4 0x88B0E1FC GT PUSH2 0x140 JUMPI DUP1 PUSH4 0xBB9DD1E3 GT PUSH2 0xBF JUMPI DUP1 PUSH4 0xE22486BE GT PUSH2 0x84 JUMPI DUP1 PUSH4 0xE22486BE EQ PUSH2 0x577 JUMPI DUP1 PUSH4 0xEF0F0EC3 EQ PUSH2 0x58A JUMPI DUP1 PUSH4 0xF1E4998D EQ PUSH2 0x5AC JUMPI DUP1 PUSH4 0xF5B541A6 EQ PUSH2 0x5DA JUMPI DUP1 PUSH4 0xFD35D886 EQ PUSH2 0x5EE JUMPI DUP1 PUSH4 0xFEB4A71D EQ PUSH2 0x610 JUMPI PUSH0 DUP1 REVERT JUMPDEST DUP1 PUSH4 0xBB9DD1E3 EQ PUSH2 0x50B JUMPI DUP1 PUSH4 0xCFD8B492 EQ PUSH2 0x51E JUMPI DUP1 PUSH4 0xD4B5BBC8 EQ PUSH2 0x531 JUMPI DUP1 PUSH4 0xD547741F EQ PUSH2 0x551 JUMPI DUP1 PUSH4 0xE0B625F5 EQ PUSH2 0x564 JUMPI PUSH0 DUP1 REVERT JUMPDEST DUP1 PUSH4 0xA267526B GT PUSH2 0x105 JUMPI DUP1 PUSH4 0xA267526B EQ PUSH2 0x4A9 JUMPI DUP1 PUSH4 0xAA121DCB EQ PUSH2 0x4BC JUMPI DUP1 PUSH4 0xAC3FEA33 EQ PUSH2 0x4C5 JUMPI DUP1 PUSH4 0xAC8A584A EQ PUSH2 0x4E5 JUMPI DUP1 PUSH4 0xB17E6E23 EQ PUSH2 0x4F8 JUMPI PUSH0 DUP1 REVERT JUMPDEST DUP1 PUSH4 0x88B0E1FC EQ PUSH2 0x440 JUMPI DUP1 PUSH4 0x91D14854 EQ PUSH2 0x473 JUMPI DUP1 PUSH4 0x93A2A108 EQ PUSH2 0x486 JUMPI DUP1 PUSH4 0x9870D7FE EQ PUSH2 0x48F JUMPI DUP1 PUSH4 0xA217FDDF EQ PUSH2 0x4A2 JUMPI PUSH0 DUP1 REVERT JUMPDEST DUP1 PUSH4 0x3E32E7EA GT PUSH2 0x1D7 JUMPI DUP1 PUSH4 0x684CB274 GT PUSH2 0x19C JUMPI DUP1 PUSH4 0x684CB274 EQ PUSH2 0x3D8 JUMPI DUP1 PUSH4 0x70AE305B EQ PUSH2 0x3EC JUMPI DUP1 PUSH4 0x738D2E89 EQ PUSH2 0x3FF JUMPI DUP1 PUSH4 0x74D4E491 EQ PUSH2 0x412 JUMPI DUP1 PUSH4 0x7F17C58F EQ PUSH2 0x41A JUMPI DUP1 PUSH4 0x84824D76 EQ PUSH2 0x42D JUMPI PUSH0 DUP1 REVERT JUMPDEST DUP1 PUSH4 0x3E32E7EA EQ PUSH2 0x36F JUMPI DUP1 PUSH4 0x53040960 EQ PUSH2 0x382 JUMPI DUP1 PUSH4 0x60B41411 EQ PUSH2 0x395 JUMPI DUP1 PUSH4 0x656AE5EB EQ PUSH2 0x3BC JUMPI DUP1 PUSH4 0x67CCD1CB EQ PUSH2 0x3C5 JUMPI PUSH0 DUP1 REVERT JUMPDEST DUP1 PUSH4 0x2D8EFBC5 GT PUSH2 0x21D JUMPI DUP1 PUSH4 0x2D8EFBC5 EQ PUSH2 0x301 JUMPI DUP1 PUSH4 0x2F2FF15D EQ PUSH2 0x32C JUMPI DUP1 PUSH4 0x31E19CFA EQ PUSH2 0x341 JUMPI DUP1 PUSH4 0x36568ABE EQ PUSH2 0x349 JUMPI DUP1 PUSH4 0x38E270ED EQ PUSH2 0x35C JUMPI PUSH0 DUP1 REVERT JUMPDEST DUP1 PUSH4 0x1FFC9A7 EQ PUSH2 0x259 JUMPI DUP1 PUSH4 0xEC280BA EQ PUSH2 0x281 JUMPI DUP1 PUSH4 0x1995EE85 EQ PUSH2 0x298 JUMPI DUP1 PUSH4 0x248A9CA3 EQ PUSH2 0x2C0 JUMPI DUP1 PUSH4 0x277D3D54 EQ PUSH2 0x2E2 JUMPI JUMPDEST PUSH0 DUP1 REVERT JUMPDEST PUSH2 0x26C PUSH2 0x267 CALLDATASIZE PUSH1 0x4 PUSH2 0x2FA7 JUMP JUMPDEST PUSH2 0x623 JUMP JUMPDEST PUSH1 0x40 MLOAD SWAP1 ISZERO ISZERO DUP2 MSTORE PUSH1 0x20 ADD JUMPDEST PUSH1 0x40 MLOAD DUP1 SWAP2 SUB SWAP1 RETURN JUMPDEST PUSH2 0x28A PUSH2 0x1388 DUP2 JUMP JUMPDEST PUSH1 0x40 MLOAD SWAP1 DUP2 MSTORE PUSH1 0x20 ADD PUSH2 0x278 JUMP JUMPDEST PUSH2 0x2AB PUSH2 0x2A6 CALLDATASIZE PUSH1 0x4 PUSH2 0x2FCE JUMP JUMPDEST PUSH2 0x659 JUMP JUMPDEST PUSH1 0x40 DUP1 MLOAD SWAP3 DUP4 MSTORE PUSH1 0x20 DUP4 ADD SWAP2 SWAP1 SWAP2 MSTORE ADD PUSH2 0x278 JUMP JUMPDEST PUSH2 0x28A PUSH2 0x2CE CALLDATASIZE PUSH1 0x4 PUSH2 0x2FFD JUMP JUMPDEST PUSH0 SWAP1 DUP2 MSTORE PUSH1 0x20 DUP2 SWAP1 MSTORE PUSH1 0x40 SWAP1 KECCAK256 PUSH1 0x1 ADD SLOAD SWAP1 JUMP JUMPDEST PUSH2 0x28A PUSH2 0x2F0 CALLDATASIZE PUSH1 0x4 PUSH2 0x3028 JUMP JUMPDEST PUSH1 0x8 PUSH1 0x20 MSTORE PUSH0 SWAP1 DUP2 MSTORE PUSH1 0x40 SWAP1 KECCAK256 SLOAD DUP2 JUMP JUMPDEST PUSH2 0x314 PUSH2 0x30F CALLDATASIZE PUSH1 0x4 PUSH2 0x2FFD JUMP JUMPDEST PUSH2 0x674 JUMP JUMPDEST PUSH1 0x40 MLOAD PUSH1 0x1 PUSH1 0x1 PUSH1 0xA0 SHL SUB SWAP1 SWAP2 AND DUP2 MSTORE PUSH1 0x20 ADD PUSH2 0x278 JUMP JUMPDEST PUSH2 0x33F PUSH2 0x33A CALLDATASIZE PUSH1 0x4 PUSH2 0x3043 JUMP JUMPDEST PUSH2 0x69C JUMP JUMPDEST STOP JUMPDEST PUSH1 0x5 SLOAD PUSH2 0x28A JUMP JUMPDEST PUSH2 0x33F PUSH2 0x357 CALLDATASIZE PUSH1 0x4 PUSH2 0x3043 JUMP JUMPDEST PUSH2 0x6C6 JUMP JUMPDEST PUSH2 0x33F PUSH2 0x36A CALLDATASIZE PUSH1 0x4 PUSH2 0x3028 JUMP JUMPDEST PUSH2 0x6FE JUMP JUMPDEST PUSH2 0x33F PUSH2 0x37D CALLDATASIZE PUSH1 0x4 PUSH2 0x3028 JUMP JUMPDEST PUSH2 0x791 JUMP JUMPDEST PUSH2 0x33F PUSH2 0x390 CALLDATASIZE PUSH1 0x4 PUSH2 0x2FFD JUMP JUMPDEST PUSH2 0xA11 JUMP JUMPDEST PUSH2 0x3A8 PUSH2 0x3A3 CALLDATASIZE PUSH1 0x4 PUSH2 0x2FFD JUMP JUMPDEST PUSH2 0xA21 JUMP JUMPDEST PUSH1 0x40 MLOAD PUSH2 0x278 SWAP9 SWAP8 SWAP7 SWAP6 SWAP5 SWAP4 SWAP3 SWAP2 SWAP1 PUSH2 0x30E8 JUMP JUMPDEST PUSH2 0x28A PUSH2 0xFA0 DUP2 JUMP JUMPDEST PUSH2 0x33F PUSH2 0x3D3 CALLDATASIZE PUSH1 0x4 PUSH2 0x3028 JUMP JUMPDEST PUSH2 0xB82 JUMP JUMPDEST PUSH2 0x28A PUSH0 DUP1 MLOAD PUSH1 0x20 PUSH2 0x3856 DUP4 CODECOPY DUP2 MLOAD SWAP2 MSTORE DUP2 JUMP JUMPDEST PUSH2 0x33F PUSH2 0x3FA CALLDATASIZE PUSH1 0x4 PUSH2 0x3028 JUMP JUMPDEST PUSH2 0xC80 JUMP JUMPDEST PUSH2 0x33F PUSH2 0x40D CALLDATASIZE PUSH1 0x4 PUSH2 0x3028 JUMP JUMPDEST PUSH2 0xCA1 JUMP JUMPDEST PUSH1 0x3 SLOAD PUSH2 0x28A JUMP JUMPDEST PUSH2 0x33F PUSH2 0x428 CALLDATASIZE PUSH1 0x4 PUSH2 0x319C JUMP JUMPDEST PUSH2 0xCC2 JUMP JUMPDEST PUSH2 0x28A PUSH2 0x43B CALLDATASIZE PUSH1 0x4 PUSH2 0x31ED JUMP JUMPDEST PUSH2 0xE4A JUMP JUMPDEST PUSH2 0x453 PUSH2 0x44E CALLDATASIZE PUSH1 0x4 PUSH2 0x3028 JUMP JUMPDEST PUSH2 0x1055 JUMP JUMPDEST PUSH1 0x40 DUP1 MLOAD SWAP5 DUP6 MSTORE PUSH1 0x20 DUP6 ADD SWAP4 SWAP1 SWAP4 MSTORE SWAP2 DUP4 ADD MSTORE PUSH1 0x60 DUP3 ADD MSTORE PUSH1 0x80 ADD PUSH2 0x278 JUMP JUMPDEST PUSH2 0x26C PUSH2 0x481 CALLDATASIZE PUSH1 0x4 PUSH2 0x3043 JUMP JUMPDEST PUSH2 0x139D JUMP JUMPDEST PUSH2 0x28A PUSH2 0x3E8 DUP2 JUMP JUMPDEST PUSH2 0x33F PUSH2 0x49D CALLDATASIZE PUSH1 0x4 PUSH2 0x3028 JUMP JUMPDEST PUSH2 0x13C5 JUMP JUMPDEST PUSH2 0x28A PUSH0 DUP2 JUMP JUMPDEST PUSH2 0x314 PUSH2 0x4B7 CALLDATASIZE PUSH1 0x4 PUSH2 0x2FFD JUMP JUMPDEST PUSH2 0x141D JUMP JUMPDEST PUSH2 0x28A PUSH1 0x7 SLOAD DUP2 JUMP JUMPDEST PUSH2 0x4D8 PUSH2 0x4D3 CALLDATASIZE PUSH1 0x4 PUSH2 0x3028 JUMP JUMPDEST PUSH2 0x142C JUMP JUMPDEST PUSH1 0x40 MLOAD PUSH2 0x278 SWAP2 SWAP1 PUSH2 0x325B JUMP JUMPDEST PUSH2 0x33F PUSH2 0x4F3 CALLDATASIZE PUSH1 0x4 PUSH2 0x3028 JUMP JUMPDEST PUSH2 0x14C3 JUMP JUMPDEST PUSH2 0x33F PUSH2 0x506 CALLDATASIZE PUSH1 0x4 PUSH2 0x326D JUMP JUMPDEST PUSH2 0x151B JUMP JUMPDEST PUSH2 0x26C PUSH2 0x519 CALLDATASIZE PUSH1 0x4 PUSH2 0x326D JUMP JUMPDEST PUSH2 0x19F4 JUMP JUMPDEST PUSH2 0x33F PUSH2 0x52C CALLDATASIZE PUSH1 0x4 PUSH2 0x3297 JUMP JUMPDEST PUSH2 0x1B5A JUMP JUMPDEST PUSH2 0x544 PUSH2 0x53F CALLDATASIZE PUSH1 0x4 PUSH2 0x2FFD JUMP JUMPDEST PUSH2 0x1C40 JUMP JUMPDEST PUSH1 0x40 MLOAD PUSH2 0x278 SWAP2 SWAP1 PUSH2 0x32F2 JUMP JUMPDEST PUSH2 0x33F PUSH2 0x55F CALLDATASIZE PUSH1 0x4 PUSH2 0x3043 JUMP JUMPDEST PUSH2 0x1E3A JUMP JUMPDEST PUSH2 0x33F PUSH2 0x572 CALLDATASIZE PUSH1 0x4 PUSH2 0x3028 JUMP JUMPDEST PUSH2 0x1E5E JUMP JUMPDEST PUSH2 0x33F PUSH2 0x585 CALLDATASIZE PUSH1 0x4 PUSH2 0x326D JUMP JUMPDEST PUSH2 0x1F7D JUMP JUMPDEST PUSH2 0x26C PUSH2 0x598 CALLDATASIZE PUSH1 0x4 PUSH2 0x3028 JUMP JUMPDEST PUSH1 0x2 PUSH1 0x20 MSTORE PUSH0 SWAP1 DUP2 MSTORE PUSH1 0x40 SWAP1 KECCAK256 SLOAD PUSH1 0xFF AND DUP2 JUMP JUMPDEST PUSH2 0x5BF PUSH2 0x5BA CALLDATASIZE PUSH1 0x4 PUSH2 0x2FFD JUMP JUMPDEST PUSH2 0x245A JUMP JUMPDEST PUSH1 0x40 DUP1 MLOAD SWAP4 DUP5 MSTORE PUSH1 0x20 DUP5 ADD SWAP3 SWAP1 SWAP3 MSTORE SWAP1 DUP3 ADD MSTORE PUSH1 0x60 ADD PUSH2 0x278 JUMP JUMPDEST PUSH2 0x28A PUSH0 DUP1 MLOAD PUSH1 0x20 PUSH2 0x3836 DUP4 CODECOPY DUP2 MLOAD SWAP2 MSTORE DUP2 JUMP JUMPDEST PUSH2 0x26C PUSH2 0x5FC CALLDATASIZE PUSH1 0x4 PUSH2 0x3028 JUMP JUMPDEST PUSH1 0x4 PUSH1 0x20 MSTORE PUSH0 SWAP1 DUP2 MSTORE PUSH1 0x40 SWAP1 KECCAK256 SLOAD PUSH1 0xFF AND DUP2 JUMP JUMPDEST PUSH2 0x33F PUSH2 0x61E CALLDATASIZE PUSH1 0x4 PUSH2 0x3028 JUMP JUMPDEST PUSH2 0x24B4 JUMP JUMPDEST PUSH0 PUSH1 0x1 PUSH1 0x1 PUSH1 0xE0 SHL SUB NOT DUP3 AND PUSH4 0x7965DB0B PUSH1 0xE0 SHL EQ DUP1 PUSH2 0x653 JUMPI POP PUSH4 0x1FFC9A7 PUSH1 0xE0 SHL PUSH1 0x1 PUSH1 0x1 PUSH1 0xE0 SHL SUB NOT DUP4 AND EQ JUMPDEST SWAP3 SWAP2 POP POP JUMP JUMPDEST PUSH0 DUP1 PUSH2 0x667 DUP7 DUP7 DUP7 DUP7 PUSH2 0x258E JUMP JUMPDEST SWAP2 POP SWAP2 POP SWAP5 POP SWAP5 SWAP3 POP POP POP JUMP JUMPDEST PUSH1 0x3 DUP2 DUP2 SLOAD DUP2 LT PUSH2 0x683 JUMPI PUSH0 DUP1 REVERT JUMPDEST PUSH0 SWAP2 DUP3 MSTORE PUSH1 0x20 SWAP1 SWAP2 KECCAK256 ADD SLOAD PUSH1 0x1 PUSH1 0x1 PUSH1 0xA0 SHL SUB AND SWAP1 POP DUP2 JUMP JUMPDEST PUSH0 DUP3 DUP2 MSTORE PUSH1 0x20 DUP2 SWAP1 MSTORE PUSH1 0x40 SWAP1 KECCAK256 PUSH1 0x1 ADD SLOAD PUSH2 0x6B6 DUP2 PUSH2 0x2729 JUMP JUMPDEST PUSH2 0x6C0 DUP4 DUP4 PUSH2 0x2736 JUMP JUMPDEST POP POP POP POP JUMP JUMPDEST PUSH1 0x1 PUSH1 0x1 PUSH1 0xA0 SHL SUB DUP2 AND CALLER EQ PUSH2 0x6EF JUMPI PUSH1 0x40 MLOAD PUSH4 0x334BD919 PUSH1 0xE1 SHL DUP2 MSTORE PUSH1 0x4 ADD PUSH1 0x40 MLOAD DUP1 SWAP2 SUB SWAP1 REVERT JUMPDEST PUSH2 0x6F9 DUP3 DUP3 PUSH2 0x27C5 JUMP JUMPDEST POP POP POP JUMP JUMPDEST PUSH0 PUSH2 0x708 DUP2 PUSH2 0x2729 JUMP JUMPDEST PUSH1 0x1 PUSH1 0x1 PUSH1 0xA0 SHL SUB DUP3 AND PUSH0 SWAP1 DUP2 MSTORE PUSH1 0x2 PUSH1 0x20 MSTORE PUSH1 0x40 SWAP1 KECCAK256 SLOAD PUSH1 0xFF AND PUSH2 0x748 JUMPI PUSH1 0x40 MLOAD PUSH3 0x461BCD PUSH1 0xE5 SHL DUP2 MSTORE PUSH1 0x4 ADD PUSH2 0x73F SWAP1 PUSH2 0x3394 JUMP JUMPDEST PUSH1 0x40 MLOAD DUP1 SWAP2 SUB SWAP1 REVERT JUMPDEST PUSH1 0x1 PUSH1 0x1 PUSH1 0xA0 SHL SUB DUP3 AND PUSH0 DUP2 DUP2 MSTORE PUSH1 0x2 PUSH1 0x20 MSTORE PUSH1 0x40 DUP1 DUP3 KECCAK256 DUP1 SLOAD PUSH1 0xFF NOT AND SWAP1 SSTORE MLOAD PUSH32 0xF8769B01493238F5C26A42A7B690CB1FF2B53A7D89D9A57E6332458703DB8B04 SWAP2 SWAP1 LOG2 POP POP JUMP JUMPDEST PUSH0 DUP1 MLOAD PUSH1 0x20 PUSH2 0x3836 DUP4 CODECOPY DUP2 MLOAD SWAP2 MSTORE PUSH2 0x7A8 DUP2 PUSH2 0x2729 JUMP JUMPDEST PUSH2 0x7B0 PUSH2 0x282E JUMP JUMPDEST PUSH1 0x1 PUSH1 0x1 PUSH1 0xA0 SHL SUB DUP3 AND PUSH0 SWAP1 DUP2 MSTORE PUSH1 0x2 PUSH1 0x20 MSTORE PUSH1 0x40 SWAP1 KECCAK256 SLOAD PUSH1 0xFF AND PUSH2 0x7E7 JUMPI PUSH1 0x40 MLOAD PUSH3 0x461BCD PUSH1 0xE5 SHL DUP2 MSTORE PUSH1 0x4 ADD PUSH2 0x73F SWAP1 PUSH2 0x3394 JUMP JUMPDEST PUSH1 0x40 MLOAD PUSH4 0x222C387F PUSH1 0xE2 SHL DUP2 MSTORE PUSH1 0x1 PUSH1 0x1 PUSH1 0xA0 SHL SUB DUP4 AND PUSH1 0x4 DUP3 ADD MSTORE PUSH0 SWAP1 DUP2 SWAP1 DUP2 SWAP1 DUP2 SWAP1 ADDRESS SWAP1 PUSH4 0x88B0E1FC SWAP1 PUSH1 0x24 ADD PUSH1 0x80 PUSH1 0x40 MLOAD DUP1 DUP4 SUB DUP2 DUP7 GAS STATICCALL ISZERO DUP1 ISZERO PUSH2 0x831 JUMPI RETURNDATASIZE PUSH0 DUP1 RETURNDATACOPY RETURNDATASIZE PUSH0 REVERT JUMPDEST POP POP POP POP PUSH1 0x40 MLOAD RETURNDATASIZE PUSH1 0x1F NOT PUSH1 0x1F DUP3 ADD AND DUP3 ADD DUP1 PUSH1 0x40 MSTORE POP DUP2 ADD SWAP1 PUSH2 0x855 SWAP2 SWAP1 PUSH2 0x33C2 JUMP JUMPDEST SWAP4 POP SWAP4 POP SWAP4 POP SWAP4 POP DUP1 PUSH0 SUB PUSH2 0x86D JUMPI POP POP POP POP PUSH2 0xA04 JUMP JUMPDEST PUSH0 PUSH2 0x2710 PUSH2 0x87D PUSH2 0x3E8 DUP5 PUSH2 0x3409 JUMP JUMPDEST PUSH2 0x887 SWAP2 SWAP1 PUSH2 0x3420 JUMP JUMPDEST SWAP1 POP PUSH0 PUSH2 0x8B2 PUSH1 0x40 MLOAD DUP1 PUSH1 0x40 ADD PUSH1 0x40 MSTORE DUP1 PUSH1 0x7 DUP2 MSTORE PUSH1 0x20 ADD PUSH7 0x4B696E65746963 PUSH1 0xC8 SHL DUP2 MSTORE POP PUSH2 0x2858 JUMP JUMPDEST SWAP1 POP PUSH0 PUSH2 0x8DF PUSH1 0x40 MLOAD DUP1 PUSH1 0x40 ADD PUSH1 0x40 MSTORE DUP1 PUSH1 0x9 DUP2 MSTORE PUSH1 0x20 ADD PUSH9 0x119A5C995B1A59DA1D PUSH1 0xBA SHL DUP2 MSTORE POP PUSH2 0x2858 JUMP JUMPDEST SWAP1 POP DUP3 DUP8 GT ISZERO PUSH2 0x903 JUMPI PUSH2 0x8FE DUP10 PUSH2 0x8F7 DUP6 DUP11 PUSH2 0x343F JUMP JUMPDEST DUP5 DUP5 PUSH2 0x2950 JUMP JUMPDEST PUSH2 0x923 JUMP JUMPDEST DUP3 DUP8 LT ISZERO PUSH2 0x923 JUMPI PUSH2 0x923 DUP10 PUSH2 0x919 DUP10 DUP7 PUSH2 0x343F JUMP JUMPDEST DUP9 DUP9 DUP7 DUP7 DUP11 PUSH2 0x2CBD JUMP JUMPDEST PUSH1 0x40 MLOAD PUSH4 0x222C387F PUSH1 0xE2 SHL DUP2 MSTORE PUSH1 0x1 PUSH1 0x1 PUSH1 0xA0 SHL SUB DUP11 AND PUSH1 0x4 DUP3 ADD MSTORE PUSH0 SWAP1 DUP2 SWAP1 DUP2 SWAP1 ADDRESS SWAP1 PUSH4 0x88B0E1FC SWAP1 PUSH1 0x24 ADD PUSH1 0x80 PUSH1 0x40 MLOAD DUP1 DUP4 SUB DUP2 DUP7 GAS STATICCALL ISZERO DUP1 ISZERO PUSH2 0x96B JUMPI RETURNDATASIZE PUSH0 DUP1 RETURNDATACOPY RETURNDATASIZE PUSH0 REVERT JUMPDEST POP POP POP POP PUSH1 0x40 MLOAD RETURNDATASIZE PUSH1 0x1F NOT PUSH1 0x1F DUP3 ADD AND DUP3 ADD DUP1 PUSH1 0x40 MSTORE POP DUP2 ADD SWAP1 PUSH2 0x98F SWAP2 SWAP1 PUSH2 0x33C2 JUMP JUMPDEST POP PUSH1 0x40 DUP1 MLOAD DUP15 DUP2 MSTORE PUSH1 0x20 DUP2 ADD DUP6 SWAP1 MSTORE SWAP1 DUP2 ADD DUP14 SWAP1 MSTORE PUSH1 0x60 DUP2 ADD DUP4 SWAP1 MSTORE PUSH1 0x80 DUP2 ADD DUP13 SWAP1 MSTORE PUSH1 0xA0 DUP2 ADD DUP3 SWAP1 MSTORE SWAP3 SWAP6 POP SWAP1 SWAP4 POP SWAP2 POP PUSH1 0x1 PUSH1 0x1 PUSH1 0xA0 SHL SUB DUP14 AND SWAP1 PUSH32 0xC7B04F8103FECA14B7D0C3E7A285D289E882CADB1FF9506DCE5EE59EC8B3110D SWAP1 PUSH1 0xC0 ADD PUSH1 0x40 MLOAD DUP1 SWAP2 SUB SWAP1 LOG2 POP POP POP POP POP POP POP POP POP POP JUMPDEST PUSH2 0xA0D PUSH1 0x1 DUP1 SSTORE JUMP JUMPDEST POP POP JUMP JUMPDEST PUSH0 PUSH2 0xA1B DUP2 PUSH2 0x2729 JUMP JUMPDEST POP PUSH1 0x7 SSTORE JUMP JUMPDEST PUSH1 0x9 PUSH1 0x20 MSTORE PUSH0 SWAP1 DUP2 MSTORE PUSH1 0x40 SWAP1 KECCAK256 DUP1 SLOAD PUSH1 0x1 DUP3 ADD SLOAD PUSH1 0x2 DUP4 ADD SLOAD PUSH1 0x3 DUP5 ADD SLOAD PUSH1 0x4 DUP6 ADD SLOAD PUSH1 0x5 DUP7 ADD SLOAD PUSH1 0x6 DUP8 ADD DUP1 SLOAD PUSH1 0x1 PUSH1 0x1 PUSH1 0xA0 SHL SUB SWAP8 DUP9 AND SWAP9 SWAP7 SWAP1 SWAP8 AND SWAP7 SWAP5 SWAP6 SWAP4 SWAP5 SWAP3 SWAP4 PUSH1 0xFF SWAP1 SWAP3 AND SWAP3 PUSH2 0xA75 SWAP1 PUSH2 0x3452 JUMP JUMPDEST DUP1 PUSH1 0x1F ADD PUSH1 0x20 DUP1 SWAP2 DIV MUL PUSH1 0x20 ADD PUSH1 0x40 MLOAD SWAP1 DUP2 ADD PUSH1 0x40 MSTORE DUP1 SWAP3 SWAP2 SWAP1 DUP2 DUP2 MSTORE PUSH1 0x20 ADD DUP3 DUP1 SLOAD PUSH2 0xAA1 SWAP1 PUSH2 0x3452 JUMP JUMPDEST DUP1 ISZERO PUSH2 0xAEC JUMPI DUP1 PUSH1 0x1F LT PUSH2 0xAC3 JUMPI PUSH2 0x100 DUP1 DUP4 SLOAD DIV MUL DUP4 MSTORE SWAP2 PUSH1 0x20 ADD SWAP2 PUSH2 0xAEC JUMP JUMPDEST DUP3 ADD SWAP2 SWAP1 PUSH0 MSTORE PUSH1 0x20 PUSH0 KECCAK256 SWAP1 JUMPDEST DUP2 SLOAD DUP2 MSTORE SWAP1 PUSH1 0x1 ADD SWAP1 PUSH1 0x20 ADD DUP1 DUP4 GT PUSH2 0xACF JUMPI DUP3 SWAP1 SUB PUSH1 0x1F AND DUP3 ADD SWAP2 JUMPDEST POP POP POP POP POP SWAP1 DUP1 PUSH1 0x7 ADD DUP1 SLOAD PUSH2 0xB01 SWAP1 PUSH2 0x3452 JUMP JUMPDEST DUP1 PUSH1 0x1F ADD PUSH1 0x20 DUP1 SWAP2 DIV MUL PUSH1 0x20 ADD PUSH1 0x40 MLOAD SWAP1 DUP2 ADD PUSH1 0x40 MSTORE DUP1 SWAP3 SWAP2 SWAP1 DUP2 DUP2 MSTORE PUSH1 0x20 ADD DUP3 DUP1 SLOAD PUSH2 0xB2D SWAP1 PUSH2 0x3452 JUMP JUMPDEST DUP1 ISZERO PUSH2 0xB78 JUMPI DUP1 PUSH1 0x1F LT PUSH2 0xB4F JUMPI PUSH2 0x100 DUP1 DUP4 SLOAD DIV MUL DUP4 MSTORE SWAP2 PUSH1 0x20 ADD SWAP2 PUSH2 0xB78 JUMP JUMPDEST DUP3 ADD SWAP2 SWAP1 PUSH0 MSTORE PUSH1 0x20 PUSH0 KECCAK256 SWAP1 JUMPDEST DUP2 SLOAD DUP2 MSTORE SWAP1 PUSH1 0x1 ADD SWAP1 PUSH1 0x20 ADD DUP1 DUP4 GT PUSH2 0xB5B JUMPI DUP3 SWAP1 SUB PUSH1 0x1F AND DUP3 ADD SWAP2 JUMPDEST POP POP POP POP POP SWAP1 POP DUP9 JUMP JUMPDEST PUSH0 PUSH2 0xB8C DUP2 PUSH2 0x2729 JUMP JUMPDEST PUSH1 0x1 PUSH1 0x1 PUSH1 0xA0 SHL SUB DUP3 AND PUSH0 SWAP1 DUP2 MSTORE PUSH1 0x2 PUSH1 0x20 MSTORE PUSH1 0x40 SWAP1 KECCAK256 SLOAD PUSH1 0xFF AND ISZERO PUSH2 0xBF4 JUMPI PUSH1 0x40 MLOAD PUSH3 0x461BCD PUSH1 0xE5 SHL DUP2 MSTORE PUSH1 0x20 PUSH1 0x4 DUP3 ADD MSTORE PUSH1 0x18 PUSH1 0x24 DUP3 ADD MSTORE PUSH32 0x5661756C7420616C726561647920726567697374657265640000000000000000 PUSH1 0x44 DUP3 ADD MSTORE PUSH1 0x64 ADD PUSH2 0x73F JUMP JUMPDEST PUSH1 0x1 PUSH1 0x1 PUSH1 0xA0 SHL SUB DUP3 AND PUSH0 DUP2 DUP2 MSTORE PUSH1 0x2 PUSH1 0x20 MSTORE PUSH1 0x40 DUP1 DUP3 KECCAK256 DUP1 SLOAD PUSH1 0xFF NOT AND PUSH1 0x1 SWAP1 DUP2 OR SWAP1 SWAP2 SSTORE PUSH1 0x3 DUP1 SLOAD SWAP2 DUP3 ADD DUP2 SSTORE DUP4 MSTORE PUSH32 0xC2575A0E9E593C00F959F8C92F12DB2869C3395A3B0502D05E2516446F71F85B ADD DUP1 SLOAD PUSH1 0x1 PUSH1 0x1 PUSH1 0xA0 SHL SUB NOT AND DUP5 OR SWAP1 SSTORE MLOAD PUSH32 0x8E0930709528779F1112249AAC8FCCA15DBB9C595DB31092C7BC7F954B567933 SWAP2 SWAP1 LOG2 POP POP JUMP JUMPDEST PUSH0 PUSH2 0xC8A DUP2 PUSH2 0x2729 JUMP JUMPDEST PUSH2 0xA0D PUSH0 DUP1 MLOAD PUSH1 0x20 PUSH2 0x3856 DUP4 CODECOPY DUP2 MLOAD SWAP2 MSTORE DUP4 PUSH2 0x1E3A JUMP JUMPDEST PUSH0 PUSH2 0xCAB DUP2 PUSH2 0x2729 JUMP JUMPDEST PUSH2 0xA0D PUSH0 DUP1 MLOAD PUSH1 0x20 PUSH2 0x3856 DUP4 CODECOPY DUP2 MLOAD SWAP2 MSTORE DUP4 PUSH2 0x69C JUMP JUMPDEST PUSH0 PUSH2 0xCCC DUP2 PUSH2 0x2729 JUMP JUMPDEST PUSH1 0x1 PUSH1 0x1 PUSH1 0xA0 SHL SUB DUP5 AND PUSH2 0xD22 JUMPI PUSH1 0x40 MLOAD PUSH3 0x461BCD PUSH1 0xE5 SHL DUP2 MSTORE PUSH1 0x20 PUSH1 0x4 DUP3 ADD MSTORE PUSH1 0x18 PUSH1 0x24 DUP3 ADD MSTORE PUSH32 0x496E76616C696420737472617465677920616464726573730000000000000000 PUSH1 0x44 DUP3 ADD MSTORE PUSH1 0x64 ADD PUSH2 0x73F JUMP JUMPDEST PUSH1 0x1 PUSH1 0x1 PUSH1 0xA0 SHL SUB DUP5 AND PUSH0 SWAP1 DUP2 MSTORE PUSH1 0x4 PUSH1 0x20 MSTORE PUSH1 0x40 SWAP1 KECCAK256 SLOAD PUSH1 0xFF AND ISZERO PUSH2 0xD8A JUMPI PUSH1 0x40 MLOAD PUSH3 0x461BCD PUSH1 0xE5 SHL DUP2 MSTORE PUSH1 0x20 PUSH1 0x4 DUP3 ADD MSTORE PUSH1 0x1B PUSH1 0x24 DUP3 ADD MSTORE PUSH32 0x537472617465677920616C726561647920726567697374657265640000000000 PUSH1 0x44 DUP3 ADD MSTORE PUSH1 0x64 ADD PUSH2 0x73F JUMP JUMPDEST PUSH1 0x1 PUSH1 0x1 PUSH1 0xA0 SHL SUB DUP5 AND PUSH0 DUP2 DUP2 MSTORE PUSH1 0x4 PUSH1 0x20 SWAP1 DUP2 MSTORE PUSH1 0x40 DUP1 DUP4 KECCAK256 DUP1 SLOAD PUSH1 0xFF NOT AND PUSH1 0x1 SWAP1 DUP2 OR SWAP1 SWAP2 SSTORE PUSH1 0x5 DUP1 SLOAD SWAP2 DUP3 ADD SWAP1 SSTORE PUSH32 0x36B6384B5ECA791C62761152D0C79BB0604C104A5FB6F4EB0703F3154BB3DB0 ADD DUP1 SLOAD PUSH1 0x1 PUSH1 0x1 PUSH1 0xA0 SHL SUB NOT AND DUP6 OR SWAP1 SSTORE SWAP3 DUP3 MSTORE PUSH1 0x6 SWAP1 MSTORE KECCAK256 PUSH2 0xE00 DUP4 DUP6 DUP4 PUSH2 0x34EB JUMP JUMPDEST POP DUP4 PUSH1 0x1 PUSH1 0x1 PUSH1 0xA0 SHL SUB AND PUSH32 0x10F21C9CF836093601E448AC3B2A1A0814D1B9251B2E30C7A50DC26144951748 DUP5 DUP5 PUSH1 0x40 MLOAD PUSH2 0xE3C SWAP3 SWAP2 SWAP1 PUSH2 0x35A7 JUMP JUMPDEST PUSH1 0x40 MLOAD DUP1 SWAP2 SUB SWAP1 LOG2 POP POP POP POP JUMP JUMPDEST PUSH0 PUSH0 DUP1 MLOAD PUSH1 0x20 PUSH2 0x3836 DUP4 CODECOPY DUP2 MLOAD SWAP2 MSTORE PUSH2 0xE62 DUP2 PUSH2 0x2729 JUMP JUMPDEST PUSH1 0x40 MLOAD PUSH12 0xFFFFFFFFFFFFFFFFFFFFFFFF NOT PUSH1 0x60 DUP10 DUP2 SHL DUP3 AND PUSH1 0x20 DUP5 ADD MSTORE DUP9 SWAP1 SHL AND PUSH1 0x34 DUP3 ADD MSTORE PUSH1 0x48 DUP2 ADD DUP7 SWAP1 MSTORE TIMESTAMP PUSH1 0x68 DUP3 ADD MSTORE PUSH0 SWAP1 PUSH1 0x88 ADD PUSH1 0x40 MLOAD PUSH1 0x20 DUP2 DUP4 SUB SUB DUP2 MSTORE SWAP1 PUSH1 0x40 MSTORE DUP1 MLOAD SWAP1 PUSH1 0x20 ADD KECCAK256 SWAP1 POP PUSH1 0x40 MLOAD DUP1 PUSH2 0x100 ADD PUSH1 0x40 MSTORE DUP1 DUP10 PUSH1 0x1 PUSH1 0x1 PUSH1 0xA0 SHL SUB AND DUP2 MSTORE PUSH1 0x20 ADD DUP9 PUSH1 0x1 PUSH1 0x1 PUSH1 0xA0 SHL SUB AND DUP2 MSTORE PUSH1 0x20 ADD DUP8 DUP2 MSTORE PUSH1 0x20 ADD DUP8 DUP2 MSTORE PUSH1 0x20 ADD TIMESTAMP DUP2 MSTORE PUSH1 0x20 ADD PUSH0 PUSH1 0x6 DUP2 GT ISZERO PUSH2 0xF00 JUMPI PUSH2 0xF00 PUSH2 0x3071 JUMP JUMPDEST DUP2 MSTORE PUSH1 0x20 ADD DUP7 DUP7 DUP1 DUP1 PUSH1 0x1F ADD PUSH1 0x20 DUP1 SWAP2 DIV MUL PUSH1 0x20 ADD PUSH1 0x40 MLOAD SWAP1 DUP2 ADD PUSH1 0x40 MSTORE DUP1 SWAP4 SWAP3 SWAP2 SWAP1 DUP2 DUP2 MSTORE PUSH1 0x20 ADD DUP4 DUP4 DUP1 DUP3 DUP5 CALLDATACOPY PUSH0 SWAP3 ADD DUP3 SWAP1 MSTORE POP SWAP4 DUP6 MSTORE POP POP PUSH1 0x40 DUP1 MLOAD PUSH1 0x20 DUP2 DUP2 ADD DUP4 MSTORE DUP5 DUP3 MSTORE SWAP5 DUP6 ADD MSTORE DUP6 DUP4 MSTORE PUSH1 0x9 DUP5 MSTORE SWAP2 DUP3 SWAP1 KECCAK256 DUP5 MLOAD DUP2 SLOAD PUSH1 0x1 PUSH1 0x1 PUSH1 0xA0 SHL SUB SWAP2 DUP3 AND PUSH1 0x1 PUSH1 0x1 PUSH1 0xA0 SHL SUB NOT SWAP2 DUP3 AND OR DUP4 SSTORE SWAP5 DUP7 ADD MLOAD PUSH1 0x1 DUP1 DUP5 ADD DUP1 SLOAD SWAP3 SWAP1 SWAP4 AND SWAP2 SWAP1 SWAP7 AND OR SWAP1 SSTORE SWAP2 DUP5 ADD MLOAD PUSH1 0x2 DUP4 ADD SSTORE POP PUSH1 0x60 DUP4 ADD MLOAD PUSH1 0x3 DUP3 ADD SSTORE PUSH1 0x80 DUP4 ADD MLOAD PUSH1 0x4 DUP3 ADD SSTORE PUSH1 0xA0 DUP4 ADD MLOAD PUSH1 0x5 DUP3 ADD DUP1 SLOAD SWAP3 SWAP4 SWAP2 SWAP3 SWAP1 SWAP2 PUSH1 0xFF NOT SWAP1 SWAP2 AND SWAP1 DUP4 PUSH1 0x6 DUP2 GT ISZERO PUSH2 0xFD4 JUMPI PUSH2 0xFD4 PUSH2 0x3071 JUMP JUMPDEST MUL OR SWAP1 SSTORE POP PUSH1 0xC0 DUP3 ADD MLOAD PUSH1 0x6 DUP3 ADD SWAP1 PUSH2 0xFED SWAP1 DUP3 PUSH2 0x35D5 JUMP JUMPDEST POP PUSH1 0xE0 DUP3 ADD MLOAD PUSH1 0x7 DUP3 ADD SWAP1 PUSH2 0x1002 SWAP1 DUP3 PUSH2 0x35D5 JUMP JUMPDEST POP SWAP1 POP POP DUP8 PUSH1 0x1 PUSH1 0x1 PUSH1 0xA0 SHL SUB AND DUP2 PUSH32 0x1F0060BEF00D471C887F1108B9BDED19641191671C6B6DC19EB8103BCE17F6FA DUP9 PUSH1 0x40 MLOAD PUSH2 0x1042 SWAP2 DUP2 MSTORE PUSH1 0x20 ADD SWAP1 JUMP JUMPDEST PUSH1 0x40 MLOAD DUP1 SWAP2 SUB SWAP1 LOG3 SWAP8 SWAP7 POP POP POP POP POP POP POP JUMP JUMPDEST PUSH1 0x1 PUSH1 0x1 PUSH1 0xA0 SHL SUB DUP2 AND PUSH0 SWAP1 DUP2 MSTORE PUSH1 0x2 PUSH1 0x20 MSTORE PUSH1 0x40 DUP2 KECCAK256 SLOAD DUP2 SWAP1 DUP2 SWAP1 DUP2 SWAP1 PUSH1 0xFF AND PUSH2 0x1092 JUMPI PUSH1 0x40 MLOAD PUSH3 0x461BCD PUSH1 0xE5 SHL DUP2 MSTORE PUSH1 0x4 ADD PUSH2 0x73F SWAP1 PUSH2 0x3394 JUMP JUMPDEST PUSH0 DUP6 SWAP1 POP PUSH0 DUP2 PUSH1 0x1 PUSH1 0x1 PUSH1 0xA0 SHL SUB AND PUSH4 0x38D52E0F PUSH1 0x40 MLOAD DUP2 PUSH4 0xFFFFFFFF AND PUSH1 0xE0 SHL DUP2 MSTORE PUSH1 0x4 ADD PUSH1 0x20 PUSH1 0x40 MLOAD DUP1 DUP4 SUB DUP2 DUP7 GAS STATICCALL ISZERO DUP1 ISZERO PUSH2 0x10D3 JUMPI RETURNDATASIZE PUSH0 DUP1 RETURNDATACOPY RETURNDATASIZE PUSH0 REVERT JUMPDEST POP POP POP POP PUSH1 0x40 MLOAD RETURNDATASIZE PUSH1 0x1F NOT PUSH1 0x1F DUP3 ADD AND DUP3 ADD DUP1 PUSH1 0x40 MSTORE POP DUP2 ADD SWAP1 PUSH2 0x10F7 SWAP2 SWAP1 PUSH2 0x3691 JUMP JUMPDEST PUSH1 0x40 MLOAD PUSH4 0x70A08231 PUSH1 0xE0 SHL DUP2 MSTORE PUSH1 0x1 PUSH1 0x1 PUSH1 0xA0 SHL SUB DUP5 DUP2 AND PUSH1 0x4 DUP4 ADD MSTORE SWAP2 SWAP3 POP SWAP1 DUP3 AND SWAP1 PUSH4 0x70A08231 SWAP1 PUSH1 0x24 ADD PUSH1 0x20 PUSH1 0x40 MLOAD DUP1 DUP4 SUB DUP2 DUP7 GAS STATICCALL ISZERO DUP1 ISZERO PUSH2 0x113F JUMPI RETURNDATASIZE PUSH0 DUP1 RETURNDATACOPY RETURNDATASIZE PUSH0 REVERT JUMPDEST POP POP POP POP PUSH1 0x40 MLOAD RETURNDATASIZE PUSH1 0x1F NOT PUSH1 0x1F DUP3 ADD AND DUP3 ADD DUP1 PUSH1 0x40 MSTORE POP DUP2 ADD SWAP1 PUSH2 0x1163 SWAP2 SWAP1 PUSH2 0x36AC JUMP JUMPDEST SWAP6 POP PUSH0 JUMPDEST PUSH1 0x5 SLOAD DUP2 LT ISZERO PUSH2 0x137C JUMPI PUSH0 PUSH1 0x5 DUP3 DUP2 SLOAD DUP2 LT PUSH2 0x1185 JUMPI PUSH2 0x1185 PUSH2 0x36C3 JUMP JUMPDEST PUSH0 SWAP2 DUP3 MSTORE PUSH1 0x20 DUP1 DUP4 KECCAK256 SWAP1 SWAP2 ADD SLOAD PUSH1 0x1 PUSH1 0x1 PUSH1 0xA0 SHL SUB AND DUP1 DUP4 MSTORE PUSH1 0x4 SWAP1 SWAP2 MSTORE PUSH1 0x40 SWAP1 SWAP2 KECCAK256 SLOAD SWAP1 SWAP2 POP PUSH1 0xFF AND PUSH2 0x11B9 JUMPI POP PUSH2 0x136A JUMP JUMPDEST PUSH1 0x1 PUSH1 0x1 PUSH1 0xA0 SHL SUB DUP2 AND PUSH0 SWAP1 DUP2 MSTORE PUSH1 0x6 PUSH1 0x20 MSTORE PUSH1 0x40 DUP2 KECCAK256 DUP1 SLOAD PUSH2 0x11DB SWAP1 PUSH2 0x3452 JUMP JUMPDEST DUP1 PUSH1 0x1F ADD PUSH1 0x20 DUP1 SWAP2 DIV MUL PUSH1 0x20 ADD PUSH1 0x40 MLOAD SWAP1 DUP2 ADD PUSH1 0x40 MSTORE DUP1 SWAP3 SWAP2 SWAP1 DUP2 DUP2 MSTORE PUSH1 0x20 ADD DUP3 DUP1 SLOAD PUSH2 0x1207 SWAP1 PUSH2 0x3452 JUMP JUMPDEST DUP1 ISZERO PUSH2 0x1252 JUMPI DUP1 PUSH1 0x1F LT PUSH2 0x1229 JUMPI PUSH2 0x100 DUP1 DUP4 SLOAD DIV MUL DUP4 MSTORE SWAP2 PUSH1 0x20 ADD SWAP2 PUSH2 0x1252 JUMP JUMPDEST DUP3 ADD SWAP2 SWAP1 PUSH0 MSTORE PUSH1 0x20 PUSH0 KECCAK256 SWAP1 JUMPDEST DUP2 SLOAD DUP2 MSTORE SWAP1 PUSH1 0x1 ADD SWAP1 PUSH1 0x20 ADD DUP1 DUP4 GT PUSH2 0x1235 JUMPI DUP3 SWAP1 SUB PUSH1 0x1F AND DUP3 ADD SWAP2 JUMPDEST POP POP POP POP POP SWAP1 POP PUSH0 DUP3 PUSH1 0x1 PUSH1 0x1 PUSH1 0xA0 SHL SUB AND PUSH4 0x1E1D114 PUSH1 0x40 MLOAD DUP2 PUSH4 0xFFFFFFFF AND PUSH1 0xE0 SHL DUP2 MSTORE PUSH1 0x4 ADD PUSH1 0x20 PUSH1 0x40 MLOAD DUP1 DUP4 SUB DUP2 DUP7 GAS STATICCALL SWAP3 POP POP POP DUP1 ISZERO PUSH2 0x12B4 JUMPI POP PUSH1 0x40 DUP1 MLOAD PUSH1 0x1F RETURNDATASIZE SWAP1 DUP2 ADD PUSH1 0x1F NOT AND DUP3 ADD SWAP1 SWAP3 MSTORE PUSH2 0x12B1 SWAP2 DUP2 ADD SWAP1 PUSH2 0x36AC JUMP JUMPDEST PUSH1 0x1 JUMPDEST PUSH2 0x12BF JUMPI POP PUSH0 PUSH2 0x12C2 JUMP JUMPDEST SWAP1 POP JUMPDEST PUSH1 0x40 DUP1 MLOAD DUP1 DUP3 ADD SWAP1 SWAP2 MSTORE PUSH1 0x7 DUP2 MSTORE PUSH7 0x4B696E65746963 PUSH1 0xC8 SHL PUSH1 0x20 SWAP2 DUP3 ADD MSTORE DUP3 MLOAD SWAP1 DUP4 ADD KECCAK256 PUSH32 0x803B973CDE83D6B3FFF0D52604B8C3080AA09A2CD882B962DD02B56167C1B7CF ADD PUSH2 0x1315 JUMPI DUP1 SWAP9 POP PUSH2 0x1366 JUMP JUMPDEST PUSH1 0x40 DUP1 MLOAD DUP1 DUP3 ADD SWAP1 SWAP2 MSTORE PUSH1 0x9 DUP2 MSTORE PUSH9 0x119A5C995B1A59DA1D PUSH1 0xBA SHL PUSH1 0x20 SWAP2 DUP3 ADD MSTORE DUP3 MLOAD SWAP1 DUP4 ADD KECCAK256 PUSH32 0x9C8F4823B09F1DB4212DD7D528B5C908DA85F6E7320B005572DDCA34A89F874C ADD PUSH2 0x1366 JUMPI DUP1 SWAP8 POP JUMPDEST POP POP POP JUMPDEST DUP1 PUSH2 0x1374 DUP2 PUSH2 0x36D7 JUMP JUMPDEST SWAP2 POP POP PUSH2 0x1167 JUMP JUMPDEST POP DUP4 PUSH2 0x1388 DUP7 DUP9 PUSH2 0x36EF JUMP JUMPDEST PUSH2 0x1392 SWAP2 SWAP1 PUSH2 0x36EF JUMP JUMPDEST SWAP3 POP POP POP SWAP2 SWAP4 POP SWAP2 SWAP4 JUMP JUMPDEST PUSH0 SWAP2 DUP3 MSTORE PUSH1 0x20 DUP3 DUP2 MSTORE PUSH1 0x40 DUP1 DUP5 KECCAK256 PUSH1 0x1 PUSH1 0x1 PUSH1 0xA0 SHL SUB SWAP4 SWAP1 SWAP4 AND DUP5 MSTORE SWAP2 SWAP1 MSTORE SWAP1 KECCAK256 SLOAD PUSH1 0xFF AND SWAP1 JUMP JUMPDEST PUSH0 PUSH2 0x13CF DUP2 PUSH2 0x2729 JUMP JUMPDEST PUSH2 0x13E6 PUSH0 DUP1 MLOAD PUSH1 0x20 PUSH2 0x3836 DUP4 CODECOPY DUP2 MLOAD SWAP2 MSTORE DUP4 PUSH2 0x69C JUMP JUMPDEST PUSH1 0x40 MLOAD PUSH1 0x1 PUSH1 0x1 PUSH1 0xA0 SHL SUB DUP4 AND SWAP1 PUSH32 0xAC6FA858E9350A46CEC16539926E0FDE25B7629F84B5A72BFFAAE4DF888AE86D SWAP1 PUSH0 SWAP1 LOG2 POP POP JUMP JUMPDEST PUSH1 0x5 DUP2 DUP2 SLOAD DUP2 LT PUSH2 0x683 JUMPI PUSH0 DUP1 REVERT JUMPDEST PUSH1 0x6 PUSH1 0x20 MSTORE PUSH0 SWAP1 DUP2 MSTORE PUSH1 0x40 SWAP1 KECCAK256 DUP1 SLOAD PUSH2 0x1444 SWAP1 PUSH2 0x3452 JUMP JUMPDEST DUP1 PUSH1 0x1F ADD PUSH1 0x20 DUP1 SWAP2 DIV MUL PUSH1 0x20 ADD PUSH1 0x40 MLOAD SWAP1 DUP2 ADD PUSH1 0x40 MSTORE DUP1 SWAP3 SWAP2 SWAP1 DUP2 DUP2 MSTORE PUSH1 0x20 ADD DUP3 DUP1 SLOAD PUSH2 0x1470 SWAP1 PUSH2 0x3452 JUMP JUMPDEST DUP1 ISZERO PUSH2 0x14BB JUMPI DUP1 PUSH1 0x1F LT PUSH2 0x1492 JUMPI PUSH2 0x100 DUP1 DUP4 SLOAD DIV MUL DUP4 MSTORE SWAP2 PUSH1 0x20 ADD SWAP2 PUSH2 0x14BB JUMP JUMPDEST DUP3 ADD SWAP2 SWAP1 PUSH0 MSTORE PUSH1 0x20 PUSH0 KECCAK256 SWAP1 JUMPDEST DUP2 SLOAD DUP2 MSTORE SWAP1 PUSH1 0x1 ADD SWAP1 PUSH1 0x20 ADD DUP1 DUP4 GT PUSH2 0x149E JUMPI DUP3 SWAP1 SUB PUSH1 0x1F AND DUP3 ADD SWAP2 JUMPDEST POP POP POP POP POP DUP2 JUMP JUMPDEST PUSH0 PUSH2 0x14CD DUP2 PUSH2 0x2729 JUMP JUMPDEST PUSH2 0x14E4 PUSH0 DUP1 MLOAD PUSH1 0x20 PUSH2 0x3836 DUP4 CODECOPY DUP2 MLOAD SWAP2 MSTORE DUP4 PUSH2 0x1E3A JUMP JUMPDEST PUSH1 0x40 MLOAD PUSH1 0x1 PUSH1 0x1 PUSH1 0xA0 SHL SUB DUP4 AND SWAP1 PUSH32 0x80C0B871B97B595B16A7741C1B06FED0C6F6F558639F18CCBCE50724325DC40D SWAP1 PUSH0 SWAP1 LOG2 POP POP JUMP JUMPDEST PUSH0 DUP1 MLOAD PUSH1 0x20 PUSH2 0x3836 DUP4 CODECOPY DUP2 MLOAD SWAP2 MSTORE PUSH2 0x1532 DUP2 PUSH2 0x2729 JUMP JUMPDEST PUSH2 0x153A PUSH2 0x282E JUMP JUMPDEST PUSH1 0x1 PUSH1 0x1 PUSH1 0xA0 SHL SUB DUP4 AND PUSH0 SWAP1 DUP2 MSTORE PUSH1 0x2 PUSH1 0x20 MSTORE PUSH1 0x40 SWAP1 KECCAK256 SLOAD PUSH1 0xFF AND PUSH2 0x1571 JUMPI PUSH1 0x40 MLOAD PUSH3 0x461BCD PUSH1 0xE5 SHL DUP2 MSTORE PUSH1 0x4 ADD PUSH2 0x73F SWAP1 PUSH2 0x3394 JUMP JUMPDEST PUSH0 DUP3 GT PUSH2 0x15C0 JUMPI PUSH1 0x40 MLOAD PUSH3 0x461BCD PUSH1 0xE5 SHL DUP2 MSTORE PUSH1 0x20 PUSH1 0x4 DUP3 ADD MSTORE PUSH1 0x1D PUSH1 0x24 DUP3 ADD MSTORE PUSH32 0x416D6F756E74206D7573742062652067726561746572207468616E2030000000 PUSH1 0x44 DUP3 ADD MSTORE PUSH1 0x64 ADD PUSH2 0x73F JUMP JUMPDEST PUSH0 PUSH2 0x15E9 PUSH1 0x40 MLOAD DUP1 PUSH1 0x40 ADD PUSH1 0x40 MSTORE DUP1 PUSH1 0x7 DUP2 MSTORE PUSH1 0x20 ADD PUSH7 0x4B696E65746963 PUSH1 0xC8 SHL DUP2 MSTORE POP PUSH2 0x2858 JUMP JUMPDEST SWAP1 POP PUSH0 PUSH2 0x1616 PUSH1 0x40 MLOAD DUP1 PUSH1 0x40 ADD PUSH1 0x40 MSTORE DUP1 PUSH1 0x9 DUP2 MSTORE PUSH1 0x20 ADD PUSH9 0x119A5C995B1A59DA1D PUSH1 0xBA SHL DUP2 MSTORE POP PUSH2 0x2858 JUMP JUMPDEST SWAP1 POP PUSH1 0x1 PUSH1 0x1 PUSH1 0xA0 SHL SUB DUP3 AND ISZERO ISZERO DUP1 PUSH2 0x1637 JUMPI POP PUSH1 0x1 PUSH1 0x1 PUSH1 0xA0 SHL SUB DUP2 AND ISZERO ISZERO JUMPDEST PUSH2 0x1683 JUMPI PUSH1 0x40 MLOAD PUSH3 0x461BCD PUSH1 0xE5 SHL DUP2 MSTORE PUSH1 0x20 PUSH1 0x4 DUP3 ADD MSTORE PUSH1 0x18 PUSH1 0x24 DUP3 ADD MSTORE PUSH32 0x4E6F207374726174656769657320726567697374657265640000000000000000 PUSH1 0x44 DUP3 ADD MSTORE PUSH1 0x64 ADD PUSH2 0x73F JUMP JUMPDEST PUSH0 DUP1 PUSH1 0x1 PUSH1 0x1 PUSH1 0xA0 SHL SUB DUP5 AND ISZERO PUSH2 0x16F6 JUMPI DUP4 PUSH1 0x1 PUSH1 0x1 PUSH1 0xA0 SHL SUB AND PUSH4 0x1E1D114 PUSH1 0x40 MLOAD DUP2 PUSH4 0xFFFFFFFF AND PUSH1 0xE0 SHL DUP2 MSTORE PUSH1 0x4 ADD PUSH1 0x20 PUSH1 0x40 MLOAD DUP1 DUP4 SUB DUP2 DUP7 GAS STATICCALL SWAP3 POP POP POP DUP1 ISZERO PUSH2 0x16EE JUMPI POP PUSH1 0x40 DUP1 MLOAD PUSH1 0x1F RETURNDATASIZE SWAP1 DUP2 ADD PUSH1 0x1F NOT AND DUP3 ADD SWAP1 SWAP3 MSTORE PUSH2 0x16EB SWAP2 DUP2 ADD SWAP1 PUSH2 0x36AC JUMP JUMPDEST PUSH1 0x1 JUMPDEST ISZERO PUSH2 0x16F6 JUMPI SWAP2 POP JUMPDEST PUSH1 0x1 PUSH1 0x1 PUSH1 0xA0 SHL SUB DUP4 AND ISZERO PUSH2 0x1767 JUMPI DUP3 PUSH1 0x1 PUSH1 0x1 PUSH1 0xA0 SHL SUB AND PUSH4 0x1E1D114 PUSH1 0x40 MLOAD DUP2 PUSH4 0xFFFFFFFF AND PUSH1 0xE0 SHL DUP2 MSTORE PUSH1 0x4 ADD PUSH1 0x20 PUSH1 0x40 MLOAD DUP1 DUP4 SUB DUP2 DUP7 GAS STATICCALL SWAP3 POP POP POP DUP1 ISZERO PUSH2 0x175F JUMPI POP PUSH1 0x40 DUP1 MLOAD PUSH1 0x1F RETURNDATASIZE SWAP1 DUP2 ADD PUSH1 0x1F NOT AND DUP3 ADD SWAP1 SWAP3 MSTORE PUSH2 0x175C SWAP2 DUP2 ADD SWAP1 PUSH2 0x36AC JUMP JUMPDEST PUSH1 0x1 JUMPDEST ISZERO PUSH2 0x1767 JUMPI SWAP1 POP JUMPDEST PUSH0 PUSH2 0x1772 DUP3 DUP5 PUSH2 0x36EF JUMP JUMPDEST SWAP1 POP DUP7 DUP2 LT ISZERO PUSH2 0x17C4 JUMPI PUSH1 0x40 MLOAD PUSH3 0x461BCD PUSH1 0xE5 SHL DUP2 MSTORE PUSH1 0x20 PUSH1 0x4 DUP3 ADD MSTORE PUSH1 0x1F PUSH1 0x24 DUP3 ADD MSTORE PUSH32 0x496E73756666696369656E74207374726174656779206C697175696469747900 PUSH1 0x44 DUP3 ADD MSTORE PUSH1 0x64 ADD PUSH2 0x73F JUMP JUMPDEST DUP8 DUP8 PUSH1 0x1 PUSH1 0x1 PUSH1 0xA0 SHL SUB DUP7 AND ISZERO DUP1 ISZERO SWAP1 PUSH2 0x17DD JUMPI POP PUSH0 DUP2 GT JUMPDEST ISZERO PUSH2 0x18A3 JUMPI DUP4 ISZERO PUSH2 0x18A3 JUMPI PUSH0 DUP5 DUP3 GT PUSH2 0x17F6 JUMPI DUP2 PUSH2 0x17F8 JUMP JUMPDEST DUP5 JUMPDEST PUSH1 0x40 MLOAD PUSH4 0x16A7A12B PUSH1 0xE3 SHL DUP2 MSTORE PUSH1 0x1 PUSH1 0x1 PUSH1 0xA0 SHL SUB DUP10 DUP2 AND PUSH1 0x4 DUP4 ADD MSTORE PUSH1 0x24 DUP3 ADD DUP4 SWAP1 MSTORE SWAP2 SWAP3 POP SWAP1 DUP5 AND SWAP1 PUSH4 0xB53D0958 SWAP1 PUSH1 0x44 ADD PUSH0 PUSH1 0x40 MLOAD DUP1 DUP4 SUB DUP2 PUSH0 DUP8 DUP1 EXTCODESIZE ISZERO DUP1 ISZERO PUSH2 0x1843 JUMPI PUSH0 DUP1 REVERT JUMPDEST POP GAS CALL ISZERO DUP1 ISZERO PUSH2 0x1855 JUMPI RETURNDATASIZE PUSH0 DUP1 RETURNDATACOPY RETURNDATASIZE PUSH0 REVERT JUMPDEST POP POP POP POP DUP1 DUP3 PUSH2 0x1865 SWAP2 SWAP1 PUSH2 0x343F JUMP JUMPDEST SWAP2 POP DUP7 PUSH1 0x1 PUSH1 0x1 PUSH1 0xA0 SHL SUB AND DUP12 PUSH1 0x1 PUSH1 0x1 PUSH1 0xA0 SHL SUB AND PUSH0 DUP1 MLOAD PUSH1 0x20 PUSH2 0x37F6 DUP4 CODECOPY DUP2 MLOAD SWAP2 MSTORE DUP4 PUSH1 0x40 MLOAD PUSH2 0x1899 SWAP2 DUP2 MSTORE PUSH1 0x20 ADD SWAP1 JUMP JUMPDEST PUSH1 0x40 MLOAD DUP1 SWAP2 SUB SWAP1 LOG3 POP JUMPDEST PUSH1 0x1 PUSH1 0x1 PUSH1 0xA0 SHL SUB DUP8 AND ISZERO DUP1 ISZERO SWAP1 PUSH2 0x18BA JUMPI POP PUSH0 DUP2 GT JUMPDEST ISZERO PUSH2 0x1980 JUMPI DUP5 ISZERO PUSH2 0x1980 JUMPI PUSH0 DUP6 DUP3 GT PUSH2 0x18D3 JUMPI DUP2 PUSH2 0x18D5 JUMP JUMPDEST DUP6 JUMPDEST PUSH1 0x40 MLOAD PUSH4 0x16A7A12B PUSH1 0xE3 SHL DUP2 MSTORE PUSH1 0x1 PUSH1 0x1 PUSH1 0xA0 SHL SUB DUP11 DUP2 AND PUSH1 0x4 DUP4 ADD MSTORE PUSH1 0x24 DUP3 ADD DUP4 SWAP1 MSTORE SWAP2 SWAP3 POP SWAP1 DUP5 AND SWAP1 PUSH4 0xB53D0958 SWAP1 PUSH1 0x44 ADD PUSH0 PUSH1 0x40 MLOAD DUP1 DUP4 SUB DUP2 PUSH0 DUP8 DUP1 EXTCODESIZE ISZERO DUP1 ISZERO PUSH2 0x1920 JUMPI PUSH0 DUP1 REVERT JUMPDEST POP GAS CALL ISZERO DUP1 ISZERO PUSH2 0x1932 JUMPI RETURNDATASIZE PUSH0 DUP1 RETURNDATACOPY RETURNDATASIZE PUSH0 REVERT JUMPDEST POP POP POP POP DUP1 DUP3 PUSH2 0x1942 SWAP2 SWAP1 PUSH2 0x343F JUMP JUMPDEST SWAP2 POP DUP8 PUSH1 0x1 PUSH1 0x1 PUSH1 0xA0 SHL SUB AND DUP12 PUSH1 0x1 PUSH1 0x1 PUSH1 0xA0 SHL SUB AND PUSH0 DUP1 MLOAD PUSH1 0x20 PUSH2 0x37F6 DUP4 CODECOPY DUP2 MLOAD SWAP2 MSTORE DUP4 PUSH1 0x40 MLOAD PUSH2 0x1976 SWAP2 DUP2 MSTORE PUSH1 0x20 ADD SWAP1 JUMP JUMPDEST PUSH1 0x40 MLOAD DUP1 SWAP2 SUB SWAP1 LOG3 POP JUMPDEST DUP1 ISZERO DUP1 PUSH2 0x198C JUMPI POP DUP9 DUP2 LT JUMPDEST PUSH2 0x19E4 JUMPI PUSH1 0x40 MLOAD PUSH3 0x461BCD PUSH1 0xE5 SHL DUP2 MSTORE PUSH1 0x20 PUSH1 0x4 DUP3 ADD MSTORE PUSH1 0x24 DUP1 DUP3 ADD MSTORE PUSH32 0x496E73756666696369656E74206C697175696469747920696E20737472617465 PUSH1 0x44 DUP3 ADD MSTORE PUSH4 0x67696573 PUSH1 0xE0 SHL PUSH1 0x64 DUP3 ADD MSTORE PUSH1 0x84 ADD PUSH2 0x73F JUMP JUMPDEST POP POP POP POP POP POP POP PUSH2 0x6F9 PUSH1 0x1 DUP1 SSTORE JUMP JUMPDEST PUSH1 0x1 PUSH1 0x1 PUSH1 0xA0 SHL SUB DUP3 AND PUSH0 SWAP1 DUP2 MSTORE PUSH1 0x2 PUSH1 0x20 MSTORE PUSH1 0x40 DUP2 KECCAK256 SLOAD PUSH1 0xFF AND PUSH2 0x1A2B JUMPI PUSH1 0x40 MLOAD PUSH3 0x461BCD PUSH1 0xE5 SHL DUP2 MSTORE PUSH1 0x4 ADD PUSH2 0x73F SWAP1 PUSH2 0x3394 JUMP JUMPDEST PUSH1 0x40 MLOAD PUSH4 0x222C387F PUSH1 0xE2 SHL DUP2 MSTORE PUSH1 0x1 PUSH1 0x1 PUSH1 0xA0 SHL SUB DUP5 AND PUSH1 0x4 DUP3 ADD MSTORE PUSH0 SWAP1 DUP2 SWAP1 DUP2 SWAP1 DUP2 SWAP1 ADDRESS SWAP1 PUSH4 0x88B0E1FC SWAP1 PUSH1 0x24 ADD PUSH1 0x80 PUSH1 0x40 MLOAD DUP1 DUP4 SUB DUP2 DUP7 GAS STATICCALL ISZERO DUP1 ISZERO PUSH2 0x1A75 JUMPI RETURNDATASIZE PUSH0 DUP1 RETURNDATACOPY RETURNDATASIZE PUSH0 REVERT JUMPDEST POP POP POP POP PUSH1 0x40 MLOAD RETURNDATASIZE PUSH1 0x1F NOT PUSH1 0x1F DUP3 ADD AND DUP3 ADD DUP1 PUSH1 0x40 MSTORE POP DUP2 ADD SWAP1 PUSH2 0x1A99 SWAP2 SWAP1 PUSH2 0x33C2 JUMP JUMPDEST SWAP4 POP SWAP4 POP SWAP4 POP SWAP4 POP DUP1 PUSH0 SUB PUSH2 0x1AB4 JUMPI PUSH0 SWAP5 POP POP POP POP POP PUSH2 0x653 JUMP JUMPDEST PUSH0 PUSH2 0x2710 PUSH2 0x1AC4 PUSH2 0x3E8 DUP5 PUSH2 0x3409 JUMP JUMPDEST PUSH2 0x1ACE SWAP2 SWAP1 PUSH2 0x3420 JUMP JUMPDEST SWAP1 POP PUSH0 PUSH2 0x2710 PUSH2 0x1AE0 PUSH2 0xFA0 DUP6 PUSH2 0x3409 JUMP JUMPDEST PUSH2 0x1AEA SWAP2 SWAP1 PUSH2 0x3420 JUMP JUMPDEST SWAP1 POP PUSH0 PUSH2 0x2710 PUSH2 0x1AFC PUSH2 0x1388 DUP7 PUSH2 0x3409 JUMP JUMPDEST PUSH2 0x1B06 SWAP2 SWAP1 PUSH2 0x3420 JUMP JUMPDEST SWAP1 POP PUSH0 PUSH2 0x1B14 DUP9 DUP6 DUP8 PUSH2 0x2EB5 JUMP JUMPDEST SWAP1 POP PUSH0 PUSH2 0x1B22 DUP9 DUP6 DUP9 PUSH2 0x2EB5 JUMP JUMPDEST SWAP1 POP PUSH0 PUSH2 0x1B30 DUP9 DUP6 DUP10 PUSH2 0x2EB5 JUMP JUMPDEST SWAP1 POP DUP12 DUP4 GT DUP1 PUSH2 0x1B3F JUMPI POP DUP12 DUP3 GT JUMPDEST DUP1 PUSH2 0x1B49 JUMPI POP DUP12 DUP2 GT JUMPDEST SWAP14 SWAP13 POP POP POP POP POP POP POP POP POP POP POP POP POP JUMP JUMPDEST PUSH0 DUP1 MLOAD PUSH1 0x20 PUSH2 0x3836 DUP4 CODECOPY DUP2 MLOAD SWAP2 MSTORE PUSH2 0x1B71 DUP2 PUSH2 0x2729 JUMP JUMPDEST PUSH0 DUP6 DUP2 MSTORE PUSH1 0x9 PUSH1 0x20 MSTORE PUSH1 0x40 SWAP1 KECCAK256 PUSH1 0x4 DUP2 ADD SLOAD PUSH2 0x1BC3 JUMPI PUSH1 0x40 MLOAD PUSH3 0x461BCD PUSH1 0xE5 SHL DUP2 MSTORE PUSH1 0x20 PUSH1 0x4 DUP3 ADD MSTORE PUSH1 0x11 PUSH1 0x24 DUP3 ADD MSTORE PUSH17 0x14995C5D595CDD081B9BDD08199BDD5B99 PUSH1 0x7A SHL PUSH1 0x44 DUP3 ADD MSTORE PUSH1 0x64 ADD PUSH2 0x73F JUMP JUMPDEST PUSH1 0x5 DUP2 ADD DUP1 SLOAD DUP7 SWAP2 SWAP1 PUSH1 0xFF NOT AND PUSH1 0x1 DUP4 PUSH1 0x6 DUP2 GT ISZERO PUSH2 0x1BE4 JUMPI PUSH2 0x1BE4 PUSH2 0x3071 JUMP JUMPDEST MUL OR SWAP1 SSTORE POP DUP3 ISZERO PUSH2 0x1C00 JUMPI PUSH1 0x7 DUP2 ADD PUSH2 0x1BFE DUP5 DUP7 DUP4 PUSH2 0x34EB JUMP JUMPDEST POP JUMPDEST DUP6 PUSH32 0x97ED9D84B17CAB14FF4200E765D9126D7274000FA00BBBAC0621925331BC4ABF DUP7 PUSH1 0x40 MLOAD PUSH2 0x1C30 SWAP2 SWAP1 PUSH2 0x3702 JUMP JUMPDEST PUSH1 0x40 MLOAD DUP1 SWAP2 SUB SWAP1 LOG2 POP POP POP POP POP POP JUMP JUMPDEST PUSH2 0x1C87 PUSH1 0x40 DUP1 MLOAD PUSH2 0x100 DUP2 ADD DUP3 MSTORE PUSH0 DUP1 DUP3 MSTORE PUSH1 0x20 DUP3 ADD DUP2 SWAP1 MSTORE SWAP2 DUP2 ADD DUP3 SWAP1 MSTORE PUSH1 0x60 DUP2 ADD DUP3 SWAP1 MSTORE PUSH1 0x80 DUP2 ADD DUP3 SWAP1 MSTORE SWAP1 PUSH1 0xA0 DUP3 ADD SWAP1 DUP2 MSTORE PUSH1 0x20 ADD PUSH1 0x60 DUP2 MSTORE PUSH1 0x20 ADD PUSH1 0x60 DUP2 MSTORE POP SWAP1 JUMP JUMPDEST PUSH0 DUP3 DUP2 MSTORE PUSH1 0x9 PUSH1 0x20 SWAP1 DUP2 MSTORE PUSH1 0x40 SWAP2 DUP3 SWAP1 KECCAK256 DUP3 MLOAD PUSH2 0x100 DUP2 ADD DUP5 MSTORE DUP2 SLOAD PUSH1 0x1 PUSH1 0x1 PUSH1 0xA0 SHL SUB SWAP1 DUP2 AND DUP3 MSTORE PUSH1 0x1 DUP4 ADD SLOAD AND SWAP3 DUP2 ADD SWAP3 SWAP1 SWAP3 MSTORE PUSH1 0x2 DUP2 ADD SLOAD SWAP3 DUP3 ADD SWAP3 SWAP1 SWAP3 MSTORE PUSH1 0x3 DUP3 ADD SLOAD PUSH1 0x60 DUP3 ADD MSTORE PUSH1 0x4 DUP3 ADD SLOAD PUSH1 0x80 DUP3 ADD MSTORE PUSH1 0x5 DUP3 ADD SLOAD SWAP1 SWAP2 SWAP1 PUSH1 0xA0 DUP4 ADD SWAP1 PUSH1 0xFF AND PUSH1 0x6 DUP2 GT ISZERO PUSH2 0x1CFE JUMPI PUSH2 0x1CFE PUSH2 0x3071 JUMP JUMPDEST PUSH1 0x6 DUP2 GT ISZERO PUSH2 0x1D0F JUMPI PUSH2 0x1D0F PUSH2 0x3071 JUMP JUMPDEST DUP2 MSTORE PUSH1 0x20 ADD PUSH1 0x6 DUP3 ADD DUP1 SLOAD PUSH2 0x1D23 SWAP1 PUSH2 0x3452 JUMP JUMPDEST DUP1 PUSH1 0x1F ADD PUSH1 0x20 DUP1 SWAP2 DIV MUL PUSH1 0x20 ADD PUSH1 0x40 MLOAD SWAP1 DUP2 ADD PUSH1 0x40 MSTORE DUP1 SWAP3 SWAP2 SWAP1 DUP2 DUP2 MSTORE PUSH1 0x20 ADD DUP3 DUP1 SLOAD PUSH2 0x1D4F SWAP1 PUSH2 0x3452 JUMP JUMPDEST DUP1 ISZERO PUSH2 0x1D9A JUMPI DUP1 PUSH1 0x1F LT PUSH2 0x1D71 JUMPI PUSH2 0x100 DUP1 DUP4 SLOAD DIV MUL DUP4 MSTORE SWAP2 PUSH1 0x20 ADD SWAP2 PUSH2 0x1D9A JUMP JUMPDEST DUP3 ADD SWAP2 SWAP1 PUSH0 MSTORE PUSH1 0x20 PUSH0 KECCAK256 SWAP1 JUMPDEST DUP2 SLOAD DUP2 MSTORE SWAP1 PUSH1 0x1 ADD SWAP1 PUSH1 0x20 ADD DUP1 DUP4 GT PUSH2 0x1D7D JUMPI DUP3 SWAP1 SUB PUSH1 0x1F AND DUP3 ADD SWAP2 JUMPDEST POP POP POP POP POP DUP2 MSTORE PUSH1 0x20 ADD PUSH1 0x7 DUP3 ADD DUP1 SLOAD PUSH2 0x1DB3 SWAP1 PUSH2 0x3452 JUMP JUMPDEST DUP1 PUSH1 0x1F ADD PUSH1 0x20 DUP1 SWAP2 DIV MUL PUSH1 0x20 ADD PUSH1 0x40 MLOAD SWAP1 DUP2 ADD PUSH1 0x40 MSTORE DUP1 SWAP3 SWAP2 SWAP1 DUP2 DUP2 MSTORE PUSH1 0x20 ADD DUP3 DUP1 SLOAD PUSH2 0x1DDF SWAP1 PUSH2 0x3452 JUMP JUMPDEST DUP1 ISZERO PUSH2 0x1E2A JUMPI DUP1 PUSH1 0x1F LT PUSH2 0x1E01 JUMPI PUSH2 0x100 DUP1 DUP4 SLOAD DIV MUL DUP4 MSTORE SWAP2 PUSH1 0x20 ADD SWAP2 PUSH2 0x1E2A JUMP JUMPDEST DUP3 ADD SWAP2 SWAP1 PUSH0 MSTORE PUSH1 0x20 PUSH0 KECCAK256 SWAP1 JUMPDEST DUP2 SLOAD DUP2 MSTORE SWAP1 PUSH1 0x1 ADD SWAP1 PUSH1 0x20 ADD DUP1 DUP4 GT PUSH2 0x1E0D JUMPI DUP3 SWAP1 SUB PUSH1 0x1F AND DUP3 ADD SWAP2 JUMPDEST POP POP POP POP POP DUP2 MSTORE POP POP SWAP1 POP SWAP2 SWAP1 POP JUMP JUMPDEST PUSH0 DUP3 DUP2 MSTORE PUSH1 0x20 DUP2 SWAP1 MSTORE PUSH1 0x40 SWAP1 KECCAK256 PUSH1 0x1 ADD SLOAD PUSH2 0x1E54 DUP2 PUSH2 0x2729 JUMP JUMPDEST PUSH2 0x6C0 DUP4 DUP4 PUSH2 0x27C5 JUMP JUMPDEST PUSH0 DUP1 MLOAD PUSH1 0x20 PUSH2 0x3856 DUP4 CODECOPY DUP2 MLOAD SWAP2 MSTORE PUSH2 0x1E75 DUP2 PUSH2 0x2729 JUMP JUMPDEST PUSH2 0x1E7D PUSH2 0x282E JUMP JUMPDEST PUSH1 0x1 PUSH1 0x1 PUSH1 0xA0 SHL SUB DUP3 AND PUSH0 SWAP1 DUP2 MSTORE PUSH1 0x2 PUSH1 0x20 MSTORE PUSH1 0x40 SWAP1 KECCAK256 SLOAD PUSH1 0xFF AND PUSH2 0x1EB4 JUMPI PUSH1 0x40 MLOAD PUSH3 0x461BCD PUSH1 0xE5 SHL DUP2 MSTORE PUSH1 0x4 ADD PUSH2 0x73F SWAP1 PUSH2 0x3394 JUMP JUMPDEST PUSH1 0x7 SLOAD PUSH1 0x1 PUSH1 0x1 PUSH1 0xA0 SHL SUB DUP4 AND PUSH0 SWAP1 DUP2 MSTORE PUSH1 0x8 PUSH1 0x20 MSTORE PUSH1 0x40 SWAP1 KECCAK256 SLOAD PUSH2 0x1ED9 SWAP2 SWAP1 PUSH2 0x36EF JUMP JUMPDEST TIMESTAMP LT ISZERO PUSH2 0x1F28 JUMPI PUSH1 0x40 MLOAD PUSH3 0x461BCD PUSH1 0xE5 SHL DUP2 MSTORE PUSH1 0x20 PUSH1 0x4 DUP3 ADD MSTORE PUSH1 0x1D PUSH1 0x24 DUP3 ADD MSTORE PUSH32 0x436F6D706F756E6420696E74657276616C206E6F742072656163686564000000 PUSH1 0x44 DUP3 ADD MSTORE PUSH1 0x64 ADD PUSH2 0x73F JUMP JUMPDEST PUSH1 0x1 PUSH1 0x1 PUSH1 0xA0 SHL SUB DUP3 AND PUSH0 DUP2 DUP2 MSTORE PUSH1 0x8 PUSH1 0x20 SWAP1 DUP2 MSTORE PUSH1 0x40 DUP1 DUP4 KECCAK256 TIMESTAMP SWAP1 SSTORE MLOAD SWAP2 DUP3 MSTORE PUSH32 0xCA542B171F04023BC049135AD0197F67F934173E08A75E9A19FD920097428BAF SWAP2 ADD PUSH1 0x40 MLOAD DUP1 SWAP2 SUB SWAP1 LOG2 PUSH2 0xA0D PUSH1 0x1 DUP1 SSTORE JUMP JUMPDEST PUSH0 DUP1 MLOAD PUSH1 0x20 PUSH2 0x3836 DUP4 CODECOPY DUP2 MLOAD SWAP2 MSTORE PUSH2 0x1F94 DUP2 PUSH2 0x2729 JUMP JUMPDEST PUSH2 0x1F9C PUSH2 0x282E JUMP JUMPDEST PUSH1 0x1 PUSH1 0x1 PUSH1 0xA0 SHL SUB DUP4 AND PUSH0 SWAP1 DUP2 MSTORE PUSH1 0x2 PUSH1 0x20 MSTORE PUSH1 0x40 SWAP1 KECCAK256 SLOAD PUSH1 0xFF AND PUSH2 0x1FD3 JUMPI PUSH1 0x40 MLOAD PUSH3 0x461BCD PUSH1 0xE5 SHL DUP2 MSTORE PUSH1 0x4 ADD PUSH2 0x73F SWAP1 PUSH2 0x3394 JUMP JUMPDEST PUSH1 0x40 MLOAD PUSH4 0x222C387F PUSH1 0xE2 SHL DUP2 MSTORE PUSH1 0x1 PUSH1 0x1 PUSH1 0xA0 SHL SUB DUP5 AND PUSH1 0x4 DUP3 ADD MSTORE PUSH0 SWAP1 DUP2 SWAP1 DUP2 SWAP1 DUP2 SWAP1 ADDRESS SWAP1 PUSH4 0x88B0E1FC SWAP1 PUSH1 0x24 ADD PUSH1 0x80 PUSH1 0x40 MLOAD DUP1 DUP4 SUB DUP2 DUP7 GAS STATICCALL ISZERO DUP1 ISZERO PUSH2 0x201D JUMPI RETURNDATASIZE PUSH0 DUP1 RETURNDATACOPY RETURNDATASIZE PUSH0 REVERT JUMPDEST POP POP POP POP PUSH1 0x40 MLOAD RETURNDATASIZE PUSH1 0x1F NOT PUSH1 0x1F DUP3 ADD AND DUP3 ADD DUP1 PUSH1 0x40 MSTORE POP DUP2 ADD SWAP1 PUSH2 0x2041 SWAP2 SWAP1 PUSH2 0x33C2 JUMP JUMPDEST PUSH1 0x40 MLOAD PUSH4 0xF1E4998D PUSH1 0xE0 SHL DUP2 MSTORE PUSH1 0x4 DUP2 ADD DUP3 SWAP1 MSTORE SWAP4 SWAP8 POP SWAP2 SWAP6 POP SWAP4 POP SWAP2 POP PUSH0 SWAP1 ADDRESS SWAP1 PUSH4 0xF1E4998D SWAP1 PUSH1 0x24 ADD PUSH1 0x60 PUSH1 0x40 MLOAD DUP1 DUP4 SUB DUP2 DUP7 GAS STATICCALL ISZERO DUP1 ISZERO PUSH2 0x2087 JUMPI RETURNDATASIZE PUSH0 DUP1 RETURNDATACOPY RETURNDATASIZE PUSH0 REVERT JUMPDEST POP POP POP POP PUSH1 0x40 MLOAD RETURNDATASIZE PUSH1 0x1F NOT PUSH1 0x1F DUP3 ADD AND DUP3 ADD DUP1 PUSH1 0x40 MSTORE POP DUP2 ADD SWAP1 PUSH2 0x20AB SWAP2 SWAP1 PUSH2 0x3710 JUMP JUMPDEST POP POP SWAP1 POP PUSH0 DUP2 DUP7 GT ISZERO PUSH2 0x20C9 JUMPI PUSH2 0x20C2 DUP3 DUP8 PUSH2 0x343F JUMP JUMPDEST SWAP1 POP PUSH2 0x212B JUMP JUMPDEST PUSH1 0x40 MLOAD PUSH3 0x461BCD PUSH1 0xE5 SHL DUP2 MSTORE PUSH1 0x20 PUSH1 0x4 DUP3 ADD MSTORE PUSH1 0x31 PUSH1 0x24 DUP3 ADD MSTORE PUSH32 0x42756666657220616C7265616479206174206F722062656C6F77207461726765 PUSH1 0x44 DUP3 ADD MSTORE PUSH17 0x74202D2063616E6E6F74206465706C6F79 PUSH1 0x78 SHL PUSH1 0x64 DUP3 ADD MSTORE PUSH1 0x84 ADD PUSH2 0x73F JUMP JUMPDEST PUSH0 DUP9 GT DUP1 ISZERO PUSH2 0x2139 JUMPI POP DUP1 DUP9 LT JUMPDEST ISZERO PUSH2 0x2141 JUMPI POP DUP7 JUMPDEST PUSH0 DUP2 GT PUSH2 0x219A JUMPI PUSH1 0x40 MLOAD PUSH3 0x461BCD PUSH1 0xE5 SHL DUP2 MSTORE PUSH1 0x20 PUSH1 0x4 DUP3 ADD MSTORE PUSH1 0x21 PUSH1 0x24 DUP3 ADD MSTORE PUSH32 0x4E6F2066756E647320617661696C61626C6520666F72206465706C6F796D656E PUSH1 0x44 DUP3 ADD MSTORE PUSH1 0x1D PUSH1 0xFA SHL PUSH1 0x64 DUP3 ADD MSTORE PUSH1 0x84 ADD PUSH2 0x73F JUMP JUMPDEST DUP1 DUP7 LT ISZERO PUSH2 0x21EA JUMPI PUSH1 0x40 MLOAD PUSH3 0x461BCD PUSH1 0xE5 SHL DUP2 MSTORE PUSH1 0x20 PUSH1 0x4 DUP3 ADD MSTORE PUSH1 0x1C PUSH1 0x24 DUP3 ADD MSTORE PUSH32 0x496E73756666696369656E74207661756C74206C697175696469747900000000 PUSH1 0x44 DUP3 ADD MSTORE PUSH1 0x64 ADD PUSH2 0x73F JUMP JUMPDEST PUSH0 PUSH2 0x2213 PUSH1 0x40 MLOAD DUP1 PUSH1 0x40 ADD PUSH1 0x40 MSTORE DUP1 PUSH1 0x7 DUP2 MSTORE PUSH1 0x20 ADD PUSH7 0x4B696E65746963 PUSH1 0xC8 SHL DUP2 MSTORE POP PUSH2 0x2858 JUMP JUMPDEST SWAP1 POP PUSH0 PUSH2 0x2240 PUSH1 0x40 MLOAD DUP1 PUSH1 0x40 ADD PUSH1 0x40 MSTORE DUP1 PUSH1 0x9 DUP2 MSTORE PUSH1 0x20 ADD PUSH9 0x119A5C995B1A59DA1D PUSH1 0xBA SHL DUP2 MSTORE POP PUSH2 0x2858 JUMP JUMPDEST SWAP1 POP PUSH1 0x1 PUSH1 0x1 PUSH1 0xA0 SHL SUB DUP3 AND PUSH2 0x2298 JUMPI PUSH1 0x40 MLOAD PUSH3 0x461BCD PUSH1 0xE5 SHL DUP2 MSTORE PUSH1 0x20 PUSH1 0x4 DUP3 ADD MSTORE PUSH1 0x1F PUSH1 0x24 DUP3 ADD MSTORE PUSH32 0x4B696E65746963207374726174656779206E6F74207265676973746572656400 PUSH1 0x44 DUP3 ADD MSTORE PUSH1 0x64 ADD PUSH2 0x73F JUMP JUMPDEST PUSH1 0x1 PUSH1 0x1 PUSH1 0xA0 SHL SUB DUP2 AND PUSH2 0x22F8 JUMPI PUSH1 0x40 MLOAD PUSH3 0x461BCD PUSH1 0xE5 SHL DUP2 MSTORE PUSH1 0x20 PUSH1 0x4 DUP3 ADD MSTORE PUSH1 0x21 PUSH1 0x24 DUP3 ADD MSTORE PUSH32 0x466972656C69676874207374726174656779206E6F7420726567697374657265 PUSH1 0x44 DUP3 ADD MSTORE PUSH1 0x19 PUSH1 0xFA SHL PUSH1 0x64 DUP3 ADD MSTORE PUSH1 0x84 ADD PUSH2 0x73F JUMP JUMPDEST PUSH0 DUP1 PUSH2 0x2306 DUP6 DUP11 DUP11 DUP11 PUSH2 0x258E JUMP JUMPDEST SWAP1 SWAP3 POP SWAP1 POP DUP2 ISZERO PUSH2 0x23A9 JUMPI PUSH1 0x40 MLOAD PUSH4 0xF6C00DB9 PUSH1 0xE0 SHL DUP2 MSTORE PUSH1 0x1 PUSH1 0x1 PUSH1 0xA0 SHL SUB DUP6 DUP2 AND PUSH1 0x4 DUP4 ADD MSTORE PUSH1 0x24 DUP3 ADD DUP5 SWAP1 MSTORE DUP15 AND SWAP1 PUSH4 0xF6C00DB9 SWAP1 PUSH1 0x44 ADD PUSH0 PUSH1 0x40 MLOAD DUP1 DUP4 SUB DUP2 PUSH0 DUP8 DUP1 EXTCODESIZE ISZERO DUP1 ISZERO PUSH2 0x2358 JUMPI PUSH0 DUP1 REVERT JUMPDEST POP GAS CALL ISZERO DUP1 ISZERO PUSH2 0x236A JUMPI RETURNDATASIZE PUSH0 DUP1 RETURNDATACOPY RETURNDATASIZE PUSH0 REVERT JUMPDEST POP POP POP POP DUP4 PUSH1 0x1 PUSH1 0x1 PUSH1 0xA0 SHL SUB AND DUP14 PUSH1 0x1 PUSH1 0x1 PUSH1 0xA0 SHL SUB AND PUSH0 DUP1 MLOAD PUSH1 0x20 PUSH2 0x3816 DUP4 CODECOPY DUP2 MLOAD SWAP2 MSTORE DUP5 PUSH1 0x40 MLOAD PUSH2 0x23A0 SWAP2 DUP2 MSTORE PUSH1 0x20 ADD SWAP1 JUMP JUMPDEST PUSH1 0x40 MLOAD DUP1 SWAP2 SUB SWAP1 LOG3 JUMPDEST DUP1 ISZERO PUSH2 0x2447 JUMPI PUSH1 0x40 MLOAD PUSH4 0xF6C00DB9 PUSH1 0xE0 SHL DUP2 MSTORE PUSH1 0x1 PUSH1 0x1 PUSH1 0xA0 SHL SUB DUP5 DUP2 AND PUSH1 0x4 DUP4 ADD MSTORE PUSH1 0x24 DUP3 ADD DUP4 SWAP1 MSTORE DUP15 AND SWAP1 PUSH4 0xF6C00DB9 SWAP1 PUSH1 0x44 ADD PUSH0 PUSH1 0x40 MLOAD DUP1 DUP4 SUB DUP2 PUSH0 DUP8 DUP1 EXTCODESIZE ISZERO DUP1 ISZERO PUSH2 0x23F6 JUMPI PUSH0 DUP1 REVERT JUMPDEST POP GAS CALL ISZERO DUP1 ISZERO PUSH2 0x2408 JUMPI RETURNDATASIZE PUSH0 DUP1 RETURNDATACOPY RETURNDATASIZE PUSH0 REVERT JUMPDEST POP POP POP POP DUP3 PUSH1 0x1 PUSH1 0x1 PUSH1 0xA0 SHL SUB AND DUP14 PUSH1 0x1 PUSH1 0x1 PUSH1 0xA0 SHL SUB AND PUSH0 DUP1 MLOAD PUSH1 0x20 PUSH2 0x3816 DUP4 CODECOPY DUP2 MLOAD SWAP2 MSTORE DUP4 PUSH1 0x40 MLOAD PUSH2 0x243E SWAP2 DUP2 MSTORE PUSH1 0x20 ADD SWAP1 JUMP JUMPDEST PUSH1 0x40 MLOAD DUP1 SWAP2 SUB SWAP1 LOG3 JUMPDEST POP POP POP POP POP POP POP POP POP POP PUSH2 0x6F9 PUSH1 0x1 DUP1 SSTORE JUMP JUMPDEST PUSH0 DUP1 DUP1 PUSH2 0x2710 PUSH2 0x246C PUSH2 0x3E8 DUP7 PUSH2 0x3409 JUMP JUMPDEST PUSH2 0x2476 SWAP2 SWAP1 PUSH2 0x3420 JUMP JUMPDEST SWAP3 POP PUSH2 0x2710 PUSH2 0x2487 PUSH2 0xFA0 DUP7 PUSH2 0x3409 JUMP JUMPDEST PUSH2 0x2491 SWAP2 SWAP1 PUSH2 0x3420 JUMP JUMPDEST SWAP2 POP PUSH2 0x2710 PUSH2 0x24A2 PUSH2 0x1388 DUP7 PUSH2 0x3409 JUMP JUMPDEST PUSH2 0x24AC SWAP2 SWAP1 PUSH2 0x3420 JUMP JUMPDEST SWAP3 SWAP5 SWAP2 SWAP4 POP POP JUMP JUMPDEST PUSH0 PUSH2 0x24BE DUP2 PUSH2 0x2729 JUMP JUMPDEST PUSH1 0x1 PUSH1 0x1 PUSH1 0xA0 SHL SUB DUP3 AND PUSH0 SWAP1 DUP2 MSTORE PUSH1 0x4 PUSH1 0x20 MSTORE PUSH1 0x40 SWAP1 KECCAK256 SLOAD PUSH1 0xFF AND PUSH2 0x2525 JUMPI PUSH1 0x40 MLOAD PUSH3 0x461BCD PUSH1 0xE5 SHL DUP2 MSTORE PUSH1 0x20 PUSH1 0x4 DUP3 ADD MSTORE PUSH1 0x17 PUSH1 0x24 DUP3 ADD MSTORE PUSH32 0x5374726174656779206E6F742072656769737465726564000000000000000000 PUSH1 0x44 DUP3 ADD MSTORE PUSH1 0x64 ADD PUSH2 0x73F JUMP JUMPDEST PUSH1 0x1 PUSH1 0x1 PUSH1 0xA0 SHL SUB DUP3 AND PUSH0 SWAP1 DUP2 MSTORE PUSH1 0x4 PUSH1 0x20 SWAP1 DUP2 MSTORE PUSH1 0x40 DUP1 DUP4 KECCAK256 DUP1 SLOAD PUSH1 0xFF NOT AND SWAP1 SSTORE PUSH1 0x6 SWAP1 SWAP2 MSTORE DUP2 KECCAK256 PUSH2 0x2557 SWAP2 PUSH2 0x2F5D JUMP JUMPDEST PUSH1 0x40 MLOAD PUSH1 0x1 PUSH1 0x1 PUSH1 0xA0 SHL SUB DUP4 AND SWAP1 PUSH32 0xE06C76AAA899D6E50C29B6042203FD0DA283C14440160ADCA192E845196A0419 SWAP1 PUSH0 SWAP1 LOG2 POP POP JUMP JUMPDEST PUSH1 0x40 MLOAD PUSH4 0xF1E4998D PUSH1 0xE0 SHL DUP2 MSTORE PUSH1 0x4 DUP2 ADD DUP3 SWAP1 MSTORE PUSH0 SWAP1 DUP2 SWAP1 DUP2 SWAP1 DUP2 SWAP1 ADDRESS SWAP1 PUSH4 0xF1E4998D SWAP1 PUSH1 0x24 ADD PUSH1 0x60 PUSH1 0x40 MLOAD DUP1 DUP4 SUB DUP2 DUP7 GAS STATICCALL ISZERO DUP1 ISZERO PUSH2 0x25D0 JUMPI RETURNDATASIZE PUSH0 DUP1 RETURNDATACOPY RETURNDATASIZE PUSH0 REVERT JUMPDEST POP POP POP POP PUSH1 0x40 MLOAD RETURNDATASIZE PUSH1 0x1F NOT PUSH1 0x1F DUP3 ADD AND DUP3 ADD DUP1 PUSH1 0x40 MSTORE POP DUP2 ADD SWAP1 PUSH2 0x25F4 SWAP2 SWAP1 PUSH2 0x3710 JUMP JUMPDEST SWAP3 POP SWAP3 POP POP PUSH0 DUP8 DUP4 PUSH2 0x2606 SWAP2 SWAP1 PUSH2 0x373B JUMP JUMPDEST SWAP1 POP PUSH0 PUSH2 0x2613 DUP9 DUP5 PUSH2 0x373B JUMP JUMPDEST SWAP1 POP PUSH0 DUP3 SGT DUP1 ISZERO PUSH2 0x2623 JUMPI POP PUSH0 DUP2 SGT JUMPDEST ISZERO PUSH2 0x2675 JUMPI DUP2 DUP2 PUSH0 PUSH2 0x2635 DUP3 DUP5 PUSH2 0x36EF JUMP JUMPDEST SWAP1 POP DUP1 DUP14 LT PUSH2 0x2649 JUMPI DUP3 SWAP9 POP DUP2 SWAP8 POP PUSH2 0x266D JUMP JUMPDEST DUP1 PUSH2 0x2654 DUP5 DUP16 PUSH2 0x3409 JUMP JUMPDEST PUSH2 0x265E SWAP2 SWAP1 PUSH2 0x3420 JUMP JUMPDEST SWAP9 POP PUSH2 0x266A DUP10 DUP15 PUSH2 0x343F JUMP JUMPDEST SWAP8 POP JUMPDEST POP POP POP PUSH2 0x271C JUMP JUMPDEST PUSH0 DUP3 SGT ISZERO PUSH2 0x2698 JUMPI DUP2 DUP1 DUP12 LT PUSH2 0x268B JUMPI DUP1 PUSH2 0x268D JUMP JUMPDEST DUP11 JUMPDEST SWAP7 POP PUSH0 SWAP6 POP POP PUSH2 0x271C JUMP JUMPDEST PUSH0 DUP2 SGT ISZERO PUSH2 0x26BB JUMPI PUSH0 SWAP6 POP DUP1 DUP1 DUP12 LT PUSH2 0x26B1 JUMPI DUP1 PUSH2 0x26B3 JUMP JUMPDEST DUP11 JUMPDEST SWAP6 POP POP PUSH2 0x271C JUMP JUMPDEST PUSH1 0x40 MLOAD PUSH3 0x461BCD PUSH1 0xE5 SHL DUP2 MSTORE PUSH1 0x20 PUSH1 0x4 DUP3 ADD MSTORE PUSH1 0x30 PUSH1 0x24 DUP3 ADD MSTORE PUSH32 0x5374726174656769657320616C7265616479206174206F722061626F76652074 PUSH1 0x44 DUP3 ADD MSTORE PUSH16 0x30B933B2BA1030B63637B1B0BA34B7B7 PUSH1 0x81 SHL PUSH1 0x64 DUP3 ADD MSTORE PUSH1 0x84 ADD PUSH2 0x73F JUMP JUMPDEST POP POP POP POP SWAP5 POP SWAP5 SWAP3 POP POP POP JUMP JUMPDEST PUSH2 0x2733 DUP2 CALLER PUSH2 0x2F24 JUMP JUMPDEST POP JUMP JUMPDEST PUSH0 PUSH2 0x2741 DUP4 DUP4 PUSH2 0x139D JUMP JUMPDEST PUSH2 0x27BE JUMPI PUSH0 DUP4 DUP2 MSTORE PUSH1 0x20 DUP2 DUP2 MSTORE PUSH1 0x40 DUP1 DUP4 KECCAK256 PUSH1 0x1 PUSH1 0x1 PUSH1 0xA0 SHL SUB DUP7 AND DUP5 MSTORE SWAP1 SWAP2 MSTORE SWAP1 KECCAK256 DUP1 SLOAD PUSH1 0xFF NOT AND PUSH1 0x1 OR SWAP1 SSTORE PUSH2 0x2776 CALLER SWAP1 JUMP JUMPDEST PUSH1 0x1 PUSH1 0x1 PUSH1 0xA0 SHL SUB AND DUP3 PUSH1 0x1 PUSH1 0x1 PUSH1 0xA0 SHL SUB AND DUP5 PUSH32 0x2F8788117E7EFF1D82E926EC794901D17C78024A50270940304540A733656F0D PUSH1 0x40 MLOAD PUSH1 0x40 MLOAD DUP1 SWAP2 SUB SWAP1 LOG4 POP PUSH1 0x1 PUSH2 0x653 JUMP JUMPDEST POP PUSH0 PUSH2 0x653 JUMP JUMPDEST PUSH0 PUSH2 0x27D0 DUP4 DUP4 PUSH2 0x139D JUMP JUMPDEST ISZERO PUSH2 0x27BE JUMPI PUSH0 DUP4 DUP2 MSTORE PUSH1 0x20 DUP2 DUP2 MSTORE PUSH1 0x40 DUP1 DUP4 KECCAK256 PUSH1 0x1 PUSH1 0x1 PUSH1 0xA0 SHL SUB DUP7 AND DUP1 DUP6 MSTORE SWAP3 MSTORE DUP1 DUP4 KECCAK256 DUP1 SLOAD PUSH1 0xFF NOT AND SWAP1 SSTORE MLOAD CALLER SWAP3 DUP7 SWAP2 PUSH32 0xF6391F5C32D9C69D2A47EA670B442974B53935D1EDC7FD64EB21E047A839171B SWAP2 SWAP1 LOG4 POP PUSH1 0x1 PUSH2 0x653 JUMP JUMPDEST PUSH1 0x2 PUSH1 0x1 SLOAD SUB PUSH2 0x2851 JUMPI PUSH1 0x40 MLOAD PUSH4 0x3EE5AEB5 PUSH1 0xE0 SHL DUP2 MSTORE PUSH1 0x4 ADD PUSH1 0x40 MLOAD DUP1 SWAP2 SUB SWAP1 REVERT JUMPDEST PUSH1 0x2 PUSH1 0x1 SSTORE JUMP JUMPDEST PUSH0 DUP1 JUMPDEST PUSH1 0x5 SLOAD DUP2 LT ISZERO PUSH2 0x2948 JUMPI PUSH1 0x4 PUSH0 PUSH1 0x5 DUP4 DUP2 SLOAD DUP2 LT PUSH2 0x287B JUMPI PUSH2 0x287B PUSH2 0x36C3 JUMP JUMPDEST PUSH0 SWAP2 DUP3 MSTORE PUSH1 0x20 DUP1 DUP4 KECCAK256 SWAP1 SWAP2 ADD SLOAD PUSH1 0x1 PUSH1 0x1 PUSH1 0xA0 SHL SUB AND DUP4 MSTORE DUP3 ADD SWAP3 SWAP1 SWAP3 MSTORE PUSH1 0x40 ADD SWAP1 KECCAK256 SLOAD PUSH1 0xFF AND DUP1 ISZERO PUSH2 0x2903 JUMPI POP DUP3 DUP1 MLOAD SWAP1 PUSH1 0x20 ADD KECCAK256 PUSH1 0x6 PUSH0 PUSH1 0x5 DUP5 DUP2 SLOAD DUP2 LT PUSH2 0x28C7 JUMPI PUSH2 0x28C7 PUSH2 0x36C3 JUMP JUMPDEST PUSH0 SWAP2 DUP3 MSTORE PUSH1 0x20 DUP1 DUP4 KECCAK256 SWAP1 SWAP2 ADD SLOAD PUSH1 0x1 PUSH1 0x1 PUSH1 0xA0 SHL SUB AND DUP4 MSTORE DUP3 ADD SWAP3 SWAP1 SWAP3 MSTORE PUSH1 0x40 SWAP1 DUP2 ADD SWAP1 SWAP2 KECCAK256 SWAP1 MLOAD PUSH2 0x28F9 SWAP2 SWAP1 PUSH2 0x3761 JUMP JUMPDEST PUSH1 0x40 MLOAD DUP1 SWAP2 SUB SWAP1 KECCAK256 EQ JUMPDEST ISZERO PUSH2 0x2936 JUMPI PUSH1 0x5 DUP2 DUP2 SLOAD DUP2 LT PUSH2 0x291B JUMPI PUSH2 0x291B PUSH2 0x36C3 JUMP JUMPDEST PUSH0 SWAP2 DUP3 MSTORE PUSH1 0x20 SWAP1 SWAP2 KECCAK256 ADD SLOAD PUSH1 0x1 PUSH1 0x1 PUSH1 0xA0 SHL SUB AND SWAP4 SWAP3 POP POP POP JUMP JUMPDEST DUP1 PUSH2 0x2940 DUP2 PUSH2 0x36D7 JUMP JUMPDEST SWAP2 POP POP PUSH2 0x285B JUMP JUMPDEST POP PUSH0 SWAP3 SWAP2 POP POP JUMP JUMPDEST PUSH1 0x40 MLOAD PUSH4 0x222C387F PUSH1 0xE2 SHL DUP2 MSTORE PUSH1 0x1 PUSH1 0x1 PUSH1 0xA0 SHL SUB DUP6 AND PUSH1 0x4 DUP3 ADD MSTORE PUSH0 SWAP1 DUP2 SWAP1 DUP2 SWAP1 DUP2 SWAP1 ADDRESS SWAP1 PUSH4 0x88B0E1FC SWAP1 PUSH1 0x24 ADD PUSH1 0x80 PUSH1 0x40 MLOAD DUP1 DUP4 SUB DUP2 DUP7 GAS STATICCALL ISZERO DUP1 ISZERO PUSH2 0x299A JUMPI RETURNDATASIZE PUSH0 DUP1 RETURNDATACOPY RETURNDATASIZE PUSH0 REVERT JUMPDEST POP POP POP POP PUSH1 0x40 MLOAD RETURNDATASIZE PUSH1 0x1F NOT PUSH1 0x1F DUP3 ADD AND DUP3 ADD DUP1 PUSH1 0x40 MSTORE POP DUP2 ADD SWAP1 PUSH2 0x29BE SWAP2 SWAP1 PUSH2 0x33C2 JUMP JUMPDEST PUSH1 0x40 MLOAD PUSH4 0xF1E4998D PUSH1 0xE0 SHL DUP2 MSTORE PUSH1 0x4 DUP2 ADD DUP3 SWAP1 MSTORE SWAP4 SWAP8 POP SWAP2 SWAP6 POP SWAP4 POP SWAP2 POP PUSH0 SWAP1 ADDRESS SWAP1 PUSH4 0xF1E4998D SWAP1 PUSH1 0x24 ADD PUSH1 0x60 PUSH1 0x40 MLOAD DUP1 DUP4 SUB DUP2 DUP7 GAS STATICCALL ISZERO DUP1 ISZERO PUSH2 0x2A04 JUMPI RETURNDATASIZE PUSH0 DUP1 RETURNDATACOPY RETURNDATASIZE PUSH0 REVERT JUMPDEST POP POP POP POP PUSH1 0x40 MLOAD RETURNDATASIZE PUSH1 0x1F NOT PUSH1 0x1F DUP3 ADD AND DUP3 ADD DUP1 PUSH1 0x40 MSTORE POP DUP2 ADD SWAP1 PUSH2 0x2A28 SWAP2 SWAP1 PUSH2 0x3710 JUMP JUMPDEST POP POP SWAP1 POP PUSH0 DUP2 DUP7 GT ISZERO PUSH2 0x2A46 JUMPI PUSH2 0x2A3F DUP3 DUP8 PUSH2 0x343F JUMP JUMPDEST SWAP1 POP PUSH2 0x2A51 JUMP JUMPDEST POP POP POP POP POP POP PUSH2 0x6C0 JUMP JUMPDEST DUP1 DUP10 LT ISZERO PUSH2 0x2A5C JUMPI POP DUP8 JUMPDEST DUP1 DUP7 LT ISZERO PUSH2 0x2AC1 JUMPI PUSH1 0x40 MLOAD PUSH3 0x461BCD PUSH1 0xE5 SHL DUP2 MSTORE PUSH1 0x20 PUSH1 0x4 DUP3 ADD MSTORE PUSH1 0x2C PUSH1 0x24 DUP3 ADD MSTORE PUSH32 0x496E73756666696369656E74207661756C74206C697175696469747920666F72 PUSH1 0x44 DUP3 ADD MSTORE PUSH12 0x20726562616C616E63696E67 PUSH1 0xA0 SHL PUSH1 0x64 DUP3 ADD MSTORE PUSH1 0x84 ADD PUSH2 0x73F JUMP JUMPDEST PUSH1 0x40 MLOAD PUSH4 0x1995EE85 PUSH1 0xE0 SHL DUP2 MSTORE PUSH1 0x4 DUP2 ADD DUP3 SWAP1 MSTORE PUSH1 0x24 DUP2 ADD DUP7 SWAP1 MSTORE PUSH1 0x44 DUP2 ADD DUP6 SWAP1 MSTORE PUSH1 0x64 DUP2 ADD DUP5 SWAP1 MSTORE PUSH0 SWAP1 DUP2 SWAP1 ADDRESS SWAP1 PUSH4 0x1995EE85 SWAP1 PUSH1 0x84 ADD PUSH1 0x40 DUP1 MLOAD DUP1 DUP4 SUB DUP2 DUP7 GAS STATICCALL SWAP3 POP POP POP DUP1 ISZERO PUSH2 0x2B31 JUMPI POP PUSH1 0x40 DUP1 MLOAD PUSH1 0x1F RETURNDATASIZE SWAP1 DUP2 ADD PUSH1 0x1F NOT AND DUP3 ADD SWAP1 SWAP3 MSTORE PUSH2 0x2B2E SWAP2 DUP2 ADD SWAP1 PUSH2 0x37D3 JUMP JUMPDEST PUSH1 0x1 JUMPDEST PUSH2 0x2B42 JUMPI POP POP POP POP POP POP POP POP PUSH2 0x6C0 JUMP JUMPDEST SWAP1 SWAP3 POP SWAP1 POP PUSH1 0x1 PUSH1 0x1 PUSH1 0xA0 SHL SUB DUP11 AND ISZERO DUP1 ISZERO SWAP1 PUSH2 0x2B5E JUMPI POP PUSH0 DUP3 GT JUMPDEST ISZERO PUSH2 0x2BFB JUMPI PUSH1 0x40 MLOAD PUSH4 0xF6C00DB9 PUSH1 0xE0 SHL DUP2 MSTORE PUSH1 0x1 PUSH1 0x1 PUSH1 0xA0 SHL SUB DUP12 DUP2 AND PUSH1 0x4 DUP4 ADD MSTORE PUSH1 0x24 DUP3 ADD DUP5 SWAP1 MSTORE DUP14 AND SWAP1 PUSH4 0xF6C00DB9 SWAP1 PUSH1 0x44 ADD PUSH0 PUSH1 0x40 MLOAD DUP1 DUP4 SUB DUP2 PUSH0 DUP8 DUP1 EXTCODESIZE ISZERO DUP1 ISZERO PUSH2 0x2BAA JUMPI PUSH0 DUP1 REVERT JUMPDEST POP GAS CALL ISZERO DUP1 ISZERO PUSH2 0x2BBC JUMPI RETURNDATASIZE PUSH0 DUP1 RETURNDATACOPY RETURNDATASIZE PUSH0 REVERT JUMPDEST POP POP POP POP DUP10 PUSH1 0x1 PUSH1 0x1 PUSH1 0xA0 SHL SUB AND DUP13 PUSH1 0x1 PUSH1 0x1 PUSH1 0xA0 SHL SUB AND PUSH0 DUP1 MLOAD PUSH1 0x20 PUSH2 0x3816 DUP4 CODECOPY DUP2 MLOAD SWAP2 MSTORE DUP5 PUSH1 0x40 MLOAD PUSH2 0x2BF2 SWAP2 DUP2 MSTORE PUSH1 0x20 ADD SWAP1 JUMP JUMPDEST PUSH1 0x40 MLOAD DUP1 SWAP2 SUB SWAP1 LOG3 JUMPDEST PUSH1 0x1 PUSH1 0x1 PUSH1 0xA0 SHL SUB DUP10 AND ISZERO DUP1 ISZERO SWAP1 PUSH2 0x2C12 JUMPI POP PUSH0 DUP2 GT JUMPDEST ISZERO PUSH2 0x2CAF JUMPI PUSH1 0x40 MLOAD PUSH4 0xF6C00DB9 PUSH1 0xE0 SHL DUP2 MSTORE PUSH1 0x1 PUSH1 0x1 PUSH1 0xA0 SHL SUB DUP11 DUP2 AND PUSH1 0x4 DUP4 ADD MSTORE PUSH1 0x24 DUP3 ADD DUP4 SWAP1 MSTORE DUP14 AND SWAP1 PUSH4 0xF6C00DB9 SWAP1 PUSH1 0x44 ADD PUSH0 PUSH1 0x40 MLOAD DUP1 DUP4 SUB DUP2 PUSH0 DUP8 DUP1 EXTCODESIZE ISZERO DUP1 ISZERO PUSH2 0x2C5E JUMPI PUSH0 DUP1 REVERT JUMPDEST POP GAS CALL ISZERO DUP1 ISZERO PUSH2 0x2C70 JUMPI RETURNDATASIZE PUSH0 DUP1 RETURNDATACOPY RETURNDATASIZE PUSH0 REVERT JUMPDEST POP POP POP POP DUP9 PUSH1 0x1 PUSH1 0x1 PUSH1 0xA0 SHL SUB AND DUP13 PUSH1 0x1 PUSH1 0x1 PUSH1 0xA0 SHL SUB AND PUSH0 DUP1 MLOAD PUSH1 0x20 PUSH2 0x3816 DUP4 CODECOPY DUP2 MLOAD SWAP2 MSTORE DUP4 PUSH1 0x40 MLOAD PUSH2 0x2CA6 SWAP2 DUP2 MSTORE PUSH1 0x20 ADD SWAP1 JUMP JUMPDEST PUSH1 0x40 MLOAD DUP1 SWAP2 SUB SWAP1 LOG3 JUMPDEST POP POP POP POP POP POP POP POP POP POP POP POP JUMP JUMPDEST DUP7 PUSH0 PUSH2 0x2710 PUSH2 0x2CCE PUSH2 0xFA0 DUP6 PUSH2 0x3409 JUMP JUMPDEST PUSH2 0x2CD8 SWAP2 SWAP1 PUSH2 0x3420 JUMP JUMPDEST SWAP1 POP PUSH0 PUSH2 0x2710 PUSH2 0x2CEA PUSH2 0x1388 DUP7 PUSH2 0x3409 JUMP JUMPDEST PUSH2 0x2CF4 SWAP2 SWAP1 PUSH2 0x3420 JUMP JUMPDEST SWAP1 POP PUSH1 0x1 PUSH1 0x1 PUSH1 0xA0 SHL SUB DUP6 AND ISZERO DUP1 ISZERO SWAP1 PUSH2 0x2D0D JUMPI POP DUP1 DUP8 GT JUMPDEST ISZERO PUSH2 0x2DD1 JUMPI PUSH0 PUSH2 0x2D1D DUP3 DUP10 PUSH2 0x343F JUMP JUMPDEST SWAP1 POP DUP10 DUP2 GT ISZERO PUSH2 0x2D2A JUMPI POP DUP9 JUMPDEST PUSH1 0x40 MLOAD PUSH4 0x16A7A12B PUSH1 0xE3 SHL DUP2 MSTORE PUSH1 0x1 PUSH1 0x1 PUSH1 0xA0 SHL SUB DUP8 DUP2 AND PUSH1 0x4 DUP4 ADD MSTORE PUSH1 0x24 DUP3 ADD DUP4 SWAP1 MSTORE DUP6 AND SWAP1 PUSH4 0xB53D0958 SWAP1 PUSH1 0x44 ADD PUSH0 PUSH1 0x40 MLOAD DUP1 DUP4 SUB DUP2 PUSH0 DUP8 DUP1 EXTCODESIZE ISZERO DUP1 ISZERO PUSH2 0x2D71 JUMPI PUSH0 DUP1 REVERT JUMPDEST POP GAS CALL ISZERO DUP1 ISZERO PUSH2 0x2D83 JUMPI RETURNDATASIZE PUSH0 DUP1 RETURNDATACOPY RETURNDATASIZE PUSH0 REVERT JUMPDEST POP POP POP POP DUP1 DUP11 PUSH2 0x2D93 SWAP2 SWAP1 PUSH2 0x343F JUMP JUMPDEST SWAP10 POP DUP6 PUSH1 0x1 PUSH1 0x1 PUSH1 0xA0 SHL SUB AND DUP12 PUSH1 0x1 PUSH1 0x1 PUSH1 0xA0 SHL SUB AND PUSH0 DUP1 MLOAD PUSH1 0x20 PUSH2 0x37F6 DUP4 CODECOPY DUP2 MLOAD SWAP2 MSTORE DUP4 PUSH1 0x40 MLOAD PUSH2 0x2DC7 SWAP2 DUP2 MSTORE PUSH1 0x20 ADD SWAP1 JUMP JUMPDEST PUSH1 0x40 MLOAD DUP1 SWAP2 SUB SWAP1 LOG3 POP JUMPDEST PUSH1 0x1 PUSH1 0x1 PUSH1 0xA0 SHL SUB DUP7 AND ISZERO DUP1 ISZERO SWAP1 PUSH2 0x2DE8 JUMPI POP PUSH0 DUP10 GT JUMPDEST DUP1 ISZERO PUSH2 0x2DF3 JUMPI POP DUP2 DUP9 GT JUMPDEST ISZERO PUSH2 0x2EA9 JUMPI PUSH0 PUSH2 0x2E03 DUP4 DUP11 PUSH2 0x343F JUMP JUMPDEST SWAP1 POP DUP10 DUP2 GT ISZERO PUSH2 0x2E10 JUMPI POP DUP9 JUMPDEST PUSH1 0x40 MLOAD PUSH4 0x16A7A12B PUSH1 0xE3 SHL DUP2 MSTORE PUSH1 0x1 PUSH1 0x1 PUSH1 0xA0 SHL SUB DUP9 DUP2 AND PUSH1 0x4 DUP4 ADD MSTORE PUSH1 0x24 DUP3 ADD DUP4 SWAP1 MSTORE DUP6 AND SWAP1 PUSH4 0xB53D0958 SWAP1 PUSH1 0x44 ADD PUSH0 PUSH1 0x40 MLOAD DUP1 DUP4 SUB DUP2 PUSH0 DUP8 DUP1 EXTCODESIZE ISZERO DUP1 ISZERO PUSH2 0x2E57 JUMPI PUSH0 DUP1 REVERT JUMPDEST POP GAS CALL ISZERO DUP1 ISZERO PUSH2 0x2E69 JUMPI RETURNDATASIZE PUSH0 DUP1 RETURNDATACOPY RETURNDATASIZE PUSH0 REVERT JUMPDEST POP POP POP POP DUP7 PUSH1 0x1 PUSH1 0x1 PUSH1 0xA0 SHL SUB AND DUP12 PUSH1 0x1 PUSH1 0x1 PUSH1 0xA0 SHL SUB AND PUSH0 DUP1 MLOAD PUSH1 0x20 PUSH2 0x37F6 DUP4 CODECOPY DUP2 MLOAD SWAP2 MSTORE DUP4 PUSH1 0x40 MLOAD PUSH2 0x2E9F SWAP2 DUP2 MSTORE PUSH1 0x20 ADD SWAP1 JUMP JUMPDEST PUSH1 0x40 MLOAD DUP1 SWAP2 SUB SWAP1 LOG3 POP JUMPDEST POP POP POP POP POP POP POP POP POP POP JUMP JUMPDEST PUSH0 DUP2 PUSH0 SUB PUSH2 0x2EC4 JUMPI POP PUSH0 PUSH2 0x2F1D JUMP JUMPDEST PUSH0 DUP3 PUSH2 0x2ED2 DUP7 PUSH2 0x2710 PUSH2 0x3409 JUMP JUMPDEST PUSH2 0x2EDC SWAP2 SWAP1 PUSH2 0x3420 JUMP JUMPDEST SWAP1 POP PUSH0 DUP4 PUSH2 0x2EEC DUP7 PUSH2 0x2710 PUSH2 0x3409 JUMP JUMPDEST PUSH2 0x2EF6 SWAP2 SWAP1 PUSH2 0x3420 JUMP JUMPDEST SWAP1 POP DUP1 DUP3 GT ISZERO PUSH2 0x2F13 JUMPI PUSH2 0x2F0A DUP2 DUP4 PUSH2 0x343F JUMP JUMPDEST SWAP3 POP POP POP PUSH2 0x2F1D JUMP JUMPDEST PUSH2 0x2F0A DUP3 DUP3 PUSH2 0x343F JUMP JUMPDEST SWAP4 SWAP3 POP POP POP JUMP JUMPDEST PUSH2 0x2F2E DUP3 DUP3 PUSH2 0x139D JUMP JUMPDEST PUSH2 0xA0D JUMPI PUSH1 0x40 MLOAD PUSH4 0xE2517D3F PUSH1 0xE0 SHL DUP2 MSTORE PUSH1 0x1 PUSH1 0x1 PUSH1 0xA0 SHL SUB DUP3 AND PUSH1 0x4 DUP3 ADD MSTORE PUSH1 0x24 DUP2 ADD DUP4 SWAP1 MSTORE PUSH1 0x44 ADD PUSH2 0x73F JUMP JUMPDEST POP DUP1 SLOAD PUSH2 0x2F69 SWAP1 PUSH2 0x3452 JUMP JUMPDEST PUSH0 DUP3 SSTORE DUP1 PUSH1 0x1F LT PUSH2 0x2F78 JUMPI POP POP JUMP JUMPDEST PUSH1 0x1F ADD PUSH1 0x20 SWAP1 DIV SWAP1 PUSH0 MSTORE PUSH1 0x20 PUSH0 KECCAK256 SWAP1 DUP2 ADD SWAP1 PUSH2 0x2733 SWAP2 SWAP1 JUMPDEST DUP1 DUP3 GT ISZERO PUSH2 0x2FA3 JUMPI PUSH0 DUP2 SSTORE PUSH1 0x1 ADD PUSH2 0x2F90 JUMP JUMPDEST POP SWAP1 JUMP JUMPDEST PUSH0 PUSH1 0x20 DUP3 DUP5 SUB SLT ISZERO PUSH2 0x2FB7 JUMPI PUSH0 DUP1 REVERT JUMPDEST DUP2 CALLDATALOAD PUSH1 0x1 PUSH1 0x1 PUSH1 0xE0 SHL SUB NOT DUP2 AND DUP2 EQ PUSH2 0x2F1D JUMPI PUSH0 DUP1 REVERT JUMPDEST PUSH0 DUP1 PUSH0 DUP1 PUSH1 0x80 DUP6 DUP8 SUB SLT ISZERO PUSH2 0x2FE1 JUMPI PUSH0 DUP1 REVERT JUMPDEST POP POP DUP3 CALLDATALOAD SWAP5 PUSH1 0x20 DUP5 ADD CALLDATALOAD SWAP5 POP PUSH1 0x40 DUP5 ADD CALLDATALOAD SWAP4 PUSH1 0x60 ADD CALLDATALOAD SWAP3 POP SWAP1 POP JUMP JUMPDEST PUSH0 PUSH1 0x20 DUP3 DUP5 SUB SLT ISZERO PUSH2 0x300D JUMPI PUSH0 DUP1 REVERT JUMPDEST POP CALLDATALOAD SWAP2 SWAP1 POP JUMP JUMPDEST PUSH1 0x1 PUSH1 0x1 PUSH1 0xA0 SHL SUB DUP2 AND DUP2 EQ PUSH2 0x2733 JUMPI PUSH0 DUP1 REVERT JUMPDEST PUSH0 PUSH1 0x20 DUP3 DUP5 SUB SLT ISZERO PUSH2 0x3038 JUMPI PUSH0 DUP1 REVERT JUMPDEST DUP2 CALLDATALOAD PUSH2 0x2F1D DUP2 PUSH2 0x3014 JUMP JUMPDEST PUSH0 DUP1 PUSH1 0x40 DUP4 DUP6 SUB SLT ISZERO PUSH2 0x3054 JUMPI PUSH0 DUP1 REVERT JUMPDEST DUP3 CALLDATALOAD SWAP2 POP PUSH1 0x20 DUP4 ADD CALLDATALOAD PUSH2 0x3066 DUP2 PUSH2 0x3014 JUMP JUMPDEST DUP1 SWAP2 POP POP SWAP3 POP SWAP3 SWAP1 POP JUMP JUMPDEST PUSH4 0x4E487B71 PUSH1 0xE0 SHL PUSH0 MSTORE PUSH1 0x21 PUSH1 0x4 MSTORE PUSH1 0x24 PUSH0 REVERT JUMPDEST PUSH1 0x7 DUP2 LT PUSH2 0x30A1 JUMPI PUSH4 0x4E487B71 PUSH1 0xE0 SHL PUSH0 MSTORE PUSH1 0x21 PUSH1 0x4 MSTORE PUSH1 0x24 PUSH0 REVERT JUMPDEST SWAP1 MSTORE JUMP JUMPDEST PUSH0 DUP2 MLOAD DUP1 DUP5 MSTORE PUSH0 JUMPDEST DUP2 DUP2 LT ISZERO PUSH2 0x30C9 JUMPI PUSH1 0x20 DUP2 DUP6 ADD DUP2 ADD MLOAD DUP7 DUP4 ADD DUP3 ADD MSTORE ADD PUSH2 0x30AD JUMP JUMPDEST POP PUSH0 PUSH1 0x20 DUP3 DUP7 ADD ADD MSTORE PUSH1 0x20 PUSH1 0x1F NOT PUSH1 0x1F DUP4 ADD AND DUP6 ADD ADD SWAP2 POP POP SWAP3 SWAP2 POP POP JUMP JUMPDEST PUSH1 0x1 PUSH1 0x1 PUSH1 0xA0 SHL SUB DUP10 DUP2 AND DUP3 MSTORE DUP9 AND PUSH1 0x20 DUP3 ADD MSTORE PUSH1 0x40 DUP2 ADD DUP8 SWAP1 MSTORE PUSH1 0x60 DUP2 ADD DUP7 SWAP1 MSTORE PUSH1 0x80 DUP2 ADD DUP6 SWAP1 MSTORE PUSH0 PUSH2 0x100 PUSH2 0x3122 PUSH1 0xA0 DUP5 ADD DUP8 PUSH2 0x3085 JUMP JUMPDEST DUP1 PUSH1 0xC0 DUP5 ADD MSTORE PUSH2 0x3134 DUP2 DUP5 ADD DUP7 PUSH2 0x30A5 JUMP JUMPDEST SWAP1 POP DUP3 DUP2 SUB PUSH1 0xE0 DUP5 ADD MSTORE PUSH2 0x3148 DUP2 DUP6 PUSH2 0x30A5 JUMP JUMPDEST SWAP12 SWAP11 POP POP POP POP POP POP POP POP POP POP POP JUMP JUMPDEST PUSH0 DUP1 DUP4 PUSH1 0x1F DUP5 ADD SLT PUSH2 0x3167 JUMPI PUSH0 DUP1 REVERT JUMPDEST POP DUP2 CALLDATALOAD PUSH8 0xFFFFFFFFFFFFFFFF DUP2 GT ISZERO PUSH2 0x317E JUMPI PUSH0 DUP1 REVERT JUMPDEST PUSH1 0x20 DUP4 ADD SWAP2 POP DUP4 PUSH1 0x20 DUP3 DUP6 ADD ADD GT ISZERO PUSH2 0x3195 JUMPI PUSH0 DUP1 REVERT JUMPDEST SWAP3 POP SWAP3 SWAP1 POP JUMP JUMPDEST PUSH0 DUP1 PUSH0 PUSH1 0x40 DUP5 DUP7 SUB SLT ISZERO PUSH2 0x31AE JUMPI PUSH0 DUP1 REVERT JUMPDEST DUP4 CALLDATALOAD PUSH2 0x31B9 DUP2 PUSH2 0x3014 JUMP JUMPDEST SWAP3 POP PUSH1 0x20 DUP5 ADD CALLDATALOAD PUSH8 0xFFFFFFFFFFFFFFFF DUP2 GT ISZERO PUSH2 0x31D4 JUMPI PUSH0 DUP1 REVERT JUMPDEST PUSH2 0x31E0 DUP7 DUP3 DUP8 ADD PUSH2 0x3157 JUMP JUMPDEST SWAP5 SWAP8 SWAP1 SWAP7 POP SWAP4 SWAP5 POP POP POP POP JUMP JUMPDEST PUSH0 DUP1 PUSH0 DUP1 PUSH0 PUSH1 0x80 DUP7 DUP9 SUB SLT ISZERO PUSH2 0x3201 JUMPI PUSH0 DUP1 REVERT JUMPDEST DUP6 CALLDATALOAD PUSH2 0x320C DUP2 PUSH2 0x3014 JUMP JUMPDEST SWAP5 POP PUSH1 0x20 DUP7 ADD CALLDATALOAD PUSH2 0x321C DUP2 PUSH2 0x3014 JUMP JUMPDEST SWAP4 POP PUSH1 0x40 DUP7 ADD CALLDATALOAD SWAP3 POP PUSH1 0x60 DUP7 ADD CALLDATALOAD PUSH8 0xFFFFFFFFFFFFFFFF DUP2 GT ISZERO PUSH2 0x323E JUMPI PUSH0 DUP1 REVERT JUMPDEST PUSH2 0x324A DUP9 DUP3 DUP10 ADD PUSH2 0x3157 JUMP JUMPDEST SWAP7 SWAP10 SWAP6 SWAP9 POP SWAP4 SWAP7 POP SWAP3 SWAP5 SWAP4 SWAP3 POP POP POP JUMP JUMPDEST PUSH1 0x20 DUP2 MSTORE PUSH0 PUSH2 0x2F1D PUSH1 0x20 DUP4 ADD DUP5 PUSH2 0x30A5 JUMP JUMPDEST PUSH0 DUP1 PUSH1 0x40 DUP4 DUP6 SUB SLT ISZERO PUSH2 0x327E JUMPI PUSH0 DUP1 REVERT JUMPDEST DUP3 CALLDATALOAD PUSH2 0x3289 DUP2 PUSH2 0x3014 JUMP JUMPDEST SWAP5 PUSH1 0x20 SWAP4 SWAP1 SWAP4 ADD CALLDATALOAD SWAP4 POP POP POP JUMP JUMPDEST PUSH0 DUP1 PUSH0 DUP1 PUSH1 0x60 DUP6 DUP8 SUB SLT ISZERO PUSH2 0x32AA JUMPI PUSH0 DUP1 REVERT JUMPDEST DUP5 CALLDATALOAD SWAP4 POP PUSH1 0x20 DUP6 ADD CALLDATALOAD PUSH1 0x7 DUP2 LT PUSH2 0x32BF JUMPI PUSH0 DUP1 REVERT JUMPDEST SWAP3 POP PUSH1 0x40 DUP6 ADD CALLDATALOAD PUSH8 0xFFFFFFFFFFFFFFFF DUP2 GT ISZERO PUSH2 0x32DA JUMPI PUSH0 DUP1 REVERT JUMPDEST PUSH2 0x32E6 DUP8 DUP3 DUP9 ADD PUSH2 0x3157 JUMP JUMPDEST SWAP6 SWAP9 SWAP5 SWAP8 POP SWAP6 POP POP POP POP JUMP JUMPDEST PUSH1 0x20 DUP1 DUP3 MSTORE DUP3 MLOAD PUSH1 0x1 PUSH1 0x1 PUSH1 0xA0 SHL SUB AND DUP3 DUP3 ADD MSTORE DUP3 ADD MLOAD PUSH0 SWAP1 PUSH2 0x3320 PUSH1 0x40 DUP5 ADD DUP3 PUSH1 0x1 PUSH1 0x1 PUSH1 0xA0 SHL SUB AND SWAP1 MSTORE JUMP JUMPDEST POP PUSH1 0x40 DUP4 ADD MLOAD PUSH1 0x60 DUP4 ADD MSTORE PUSH1 0x60 DUP4 ADD MLOAD PUSH1 0x80 DUP4 ADD MSTORE PUSH1 0x80 DUP4 ADD MLOAD PUSH1 0xA0 DUP4 ADD MSTORE PUSH1 0xA0 DUP4 ADD MLOAD PUSH2 0x3351 PUSH1 0xC0 DUP5 ADD DUP3 PUSH2 0x3085 JUMP JUMPDEST POP PUSH1 0xC0 DUP4 ADD MLOAD PUSH2 0x100 DUP1 PUSH1 0xE0 DUP6 ADD MSTORE PUSH2 0x336E PUSH2 0x120 DUP6 ADD DUP4 PUSH2 0x30A5 JUMP JUMPDEST SWAP2 POP PUSH1 0xE0 DUP6 ADD MLOAD PUSH1 0x1F NOT DUP6 DUP5 SUB ADD DUP3 DUP7 ADD MSTORE PUSH2 0x338A DUP4 DUP3 PUSH2 0x30A5 JUMP JUMPDEST SWAP7 SWAP6 POP POP POP POP POP POP JUMP JUMPDEST PUSH1 0x20 DUP1 DUP3 MSTORE PUSH1 0x14 SWAP1 DUP3 ADD MSTORE PUSH20 0x15985D5B1D081B9BDD081C9959DA5CDD195C9959 PUSH1 0x62 SHL PUSH1 0x40 DUP3 ADD MSTORE PUSH1 0x60 ADD SWAP1 JUMP JUMPDEST PUSH0 DUP1 PUSH0 DUP1 PUSH1 0x80 DUP6 DUP8 SUB SLT ISZERO PUSH2 0x33D5 JUMPI PUSH0 DUP1 REVERT JUMPDEST POP POP DUP3 MLOAD PUSH1 0x20 DUP5 ADD MLOAD PUSH1 0x40 DUP6 ADD MLOAD PUSH1 0x60 SWAP1 SWAP6 ADD MLOAD SWAP2 SWAP7 SWAP1 SWAP6 POP SWAP1 SWAP3 POP SWAP1 POP JUMP JUMPDEST PUSH4 0x4E487B71 PUSH1 0xE0 SHL PUSH0 MSTORE PUSH1 0x11 PUSH1 0x4 MSTORE PUSH1 0x24 PUSH0 REVERT JUMPDEST DUP1 DUP3 MUL DUP2 ISZERO DUP3 DUP3 DIV DUP5 EQ OR PUSH2 0x653 JUMPI PUSH2 0x653 PUSH2 0x33F5 JUMP JUMPDEST PUSH0 DUP3 PUSH2 0x343A JUMPI PUSH4 0x4E487B71 PUSH1 0xE0 SHL PUSH0 MSTORE PUSH1 0x12 PUSH1 0x4 MSTORE PUSH1 0x24 PUSH0 REVERT JUMPDEST POP DIV SWAP1 JUMP JUMPDEST DUP2 DUP2 SUB DUP2 DUP2 GT ISZERO PUSH2 0x653 JUMPI PUSH2 0x653 PUSH2 0x33F5 JUMP JUMPDEST PUSH1 0x1 DUP2 DUP2 SHR SWAP1 DUP3 AND DUP1 PUSH2 0x3466 JUMPI PUSH1 0x7F DUP3 AND SWAP2 POP JUMPDEST PUSH1 0x20 DUP3 LT DUP2 SUB PUSH2 0x3484 JUMPI PUSH4 0x4E487B71 PUSH1 0xE0 SHL PUSH0 MSTORE PUSH1 0x22 PUSH1 0x4 MSTORE PUSH1 0x24 PUSH0 REVERT JUMPDEST POP SWAP2 SWAP1 POP JUMP JUMPDEST PUSH4 0x4E487B71 PUSH1 0xE0 SHL PUSH0 MSTORE PUSH1 0x41 PUSH1 0x4 MSTORE PUSH1 0x24 PUSH0 REVERT JUMPDEST PUSH1 0x1F DUP3 GT ISZERO PUSH2 0x6F9 JUMPI PUSH0 DUP2 DUP2 MSTORE PUSH1 0x20 DUP2 KECCAK256 PUSH1 0x1F DUP6 ADD PUSH1 0x5 SHR DUP2 ADD PUSH1 0x20 DUP7 LT ISZERO PUSH2 0x34C4 JUMPI POP DUP1 JUMPDEST PUSH1 0x1F DUP6 ADD PUSH1 0x5 SHR DUP3 ADD SWAP2 POP JUMPDEST DUP2 DUP2 LT ISZERO PUSH2 0x34E3 JUMPI DUP3 DUP2 SSTORE PUSH1 0x1 ADD PUSH2 0x34D0 JUMP JUMPDEST POP POP POP POP POP POP JUMP JUMPDEST PUSH8 0xFFFFFFFFFFFFFFFF DUP4 GT ISZERO PUSH2 0x3503 JUMPI PUSH2 0x3503 PUSH2 0x348A JUMP JUMPDEST PUSH2 0x3517 DUP4 PUSH2 0x3511 DUP4 SLOAD PUSH2 0x3452 JUMP JUMPDEST DUP4 PUSH2 0x349E JUMP JUMPDEST PUSH0 PUSH1 0x1F DUP5 GT PUSH1 0x1 DUP2 EQ PUSH2 0x3548 JUMPI PUSH0 DUP6 ISZERO PUSH2 0x3531 JUMPI POP DUP4 DUP3 ADD CALLDATALOAD JUMPDEST PUSH0 NOT PUSH1 0x3 DUP8 SWAP1 SHL SHR NOT AND PUSH1 0x1 DUP7 SWAP1 SHL OR DUP4 SSTORE PUSH2 0x35A0 JUMP JUMPDEST PUSH0 DUP4 DUP2 MSTORE PUSH1 0x20 SWAP1 KECCAK256 PUSH1 0x1F NOT DUP7 AND SWAP1 DUP4 JUMPDEST DUP3 DUP2 LT ISZERO PUSH2 0x3578 JUMPI DUP7 DUP6 ADD CALLDATALOAD DUP3 SSTORE PUSH1 0x20 SWAP5 DUP6 ADD SWAP5 PUSH1 0x1 SWAP1 SWAP3 ADD SWAP2 ADD PUSH2 0x3558 JUMP JUMPDEST POP DUP7 DUP3 LT ISZERO PUSH2 0x3594 JUMPI PUSH0 NOT PUSH1 0xF8 DUP9 PUSH1 0x3 SHL AND SHR NOT DUP5 DUP8 ADD CALLDATALOAD AND DUP2 SSTORE JUMPDEST POP POP PUSH1 0x1 DUP6 PUSH1 0x1 SHL ADD DUP4 SSTORE JUMPDEST POP POP POP POP POP JUMP JUMPDEST PUSH1 0x20 DUP2 MSTORE DUP2 PUSH1 0x20 DUP3 ADD MSTORE DUP2 DUP4 PUSH1 0x40 DUP4 ADD CALLDATACOPY PUSH0 DUP2 DUP4 ADD PUSH1 0x40 SWAP1 DUP2 ADD SWAP2 SWAP1 SWAP2 MSTORE PUSH1 0x1F SWAP1 SWAP3 ADD PUSH1 0x1F NOT AND ADD ADD SWAP2 SWAP1 POP JUMP JUMPDEST DUP2 MLOAD PUSH8 0xFFFFFFFFFFFFFFFF DUP2 GT ISZERO PUSH2 0x35EF JUMPI PUSH2 0x35EF PUSH2 0x348A JUMP JUMPDEST PUSH2 0x3603 DUP2 PUSH2 0x35FD DUP5 SLOAD PUSH2 0x3452 JUMP JUMPDEST DUP5 PUSH2 0x349E JUMP JUMPDEST PUSH1 0x20 DUP1 PUSH1 0x1F DUP4 GT PUSH1 0x1 DUP2 EQ PUSH2 0x3636 JUMPI PUSH0 DUP5 ISZERO PUSH2 0x361F JUMPI POP DUP6 DUP4 ADD MLOAD JUMPDEST PUSH0 NOT PUSH1 0x3 DUP7 SWAP1 SHL SHR NOT AND PUSH1 0x1 DUP6 SWAP1 SHL OR DUP6 SSTORE PUSH2 0x34E3 JUMP JUMPDEST PUSH0 DUP6 DUP2 MSTORE PUSH1 0x20 DUP2 KECCAK256 PUSH1 0x1F NOT DUP7 AND SWAP2 JUMPDEST DUP3 DUP2 LT ISZERO PUSH2 0x3664 JUMPI DUP9 DUP7 ADD MLOAD DUP3 SSTORE SWAP5 DUP5 ADD SWAP5 PUSH1 0x1 SWAP1 SWAP2 ADD SWAP1 DUP5 ADD PUSH2 0x3645 JUMP JUMPDEST POP DUP6 DUP3 LT ISZERO PUSH2 0x3681 JUMPI DUP8 DUP6 ADD MLOAD PUSH0 NOT PUSH1 0x3 DUP9 SWAP1 SHL PUSH1 0xF8 AND SHR NOT AND DUP2 SSTORE JUMPDEST POP POP POP POP POP PUSH1 0x1 SWAP1 DUP2 SHL ADD SWAP1 SSTORE POP JUMP JUMPDEST PUSH0 PUSH1 0x20 DUP3 DUP5 SUB SLT ISZERO PUSH2 0x36A1 JUMPI PUSH0 DUP1 REVERT JUMPDEST DUP2 MLOAD PUSH2 0x2F1D DUP2 PUSH2 0x3014 JUMP JUMPDEST PUSH0 PUSH1 0x20 DUP3 DUP5 SUB SLT ISZERO PUSH2 0x36BC JUMPI PUSH0 DUP1 REVERT JUMPDEST POP MLOAD SWAP2 SWAP1 POP JUMP JUMPDEST PUSH4 0x4E487B71 PUSH1 0xE0 SHL PUSH0 MSTORE PUSH1 0x32 PUSH1 0x4 MSTORE PUSH1 0x24 PUSH0 REVERT JUMPDEST PUSH0 PUSH1 0x1 DUP3 ADD PUSH2 0x36E8 JUMPI PUSH2 0x36E8 PUSH2 0x33F5 JUMP JUMPDEST POP PUSH1 0x1 ADD SWAP1 JUMP JUMPDEST DUP1 DUP3 ADD DUP1 DUP3 GT ISZERO PUSH2 0x653 JUMPI PUSH2 0x653 PUSH2 0x33F5 JUMP JUMPDEST PUSH1 0x20 DUP2 ADD PUSH2 0x653 DUP3 DUP5 PUSH2 0x3085 JUMP JUMPDEST PUSH0 DUP1 PUSH0 PUSH1 0x60 DUP5 DUP7 SUB SLT ISZERO PUSH2 0x3722 JUMPI PUSH0 DUP1 REVERT JUMPDEST DUP4 MLOAD SWAP3 POP PUSH1 0x20 DUP5 ADD MLOAD SWAP2 POP PUSH1 0x40 DUP5 ADD MLOAD SWAP1 POP SWAP3 POP SWAP3 POP SWAP3 JUMP JUMPDEST DUP2 DUP2 SUB PUSH0 DUP4 SLT DUP1 ISZERO DUP4 DUP4 SGT AND DUP4 DUP4 SLT DUP3 AND OR ISZERO PUSH2 0x375A JUMPI PUSH2 0x375A PUSH2 0x33F5 JUMP JUMPDEST POP SWAP3 SWAP2 POP POP JUMP JUMPDEST PUSH0 DUP1 DUP4 SLOAD PUSH2 0x376E DUP2 PUSH2 0x3452 JUMP JUMPDEST PUSH1 0x1 DUP3 DUP2 AND DUP1 ISZERO PUSH2 0x3786 JUMPI PUSH1 0x1 DUP2 EQ PUSH2 0x379B JUMPI PUSH2 0x37C7 JUMP JUMPDEST PUSH1 0xFF NOT DUP5 AND DUP8 MSTORE DUP3 ISZERO ISZERO DUP4 MUL DUP8 ADD SWAP5 POP PUSH2 0x37C7 JUMP JUMPDEST DUP8 PUSH0 MSTORE PUSH1 0x20 DUP1 PUSH0 KECCAK256 PUSH0 JUMPDEST DUP6 DUP2 LT ISZERO PUSH2 0x37BE JUMPI DUP2 SLOAD DUP11 DUP3 ADD MSTORE SWAP1 DUP5 ADD SWAP1 DUP3 ADD PUSH2 0x37A5 JUMP JUMPDEST POP POP POP DUP3 DUP8 ADD SWAP5 POP JUMPDEST POP SWAP3 SWAP7 SWAP6 POP POP POP POP POP POP JUMP JUMPDEST PUSH0 DUP1 PUSH1 0x40 DUP4 DUP6 SUB SLT ISZERO PUSH2 0x37E4 JUMPI PUSH0 DUP1 REVERT JUMPDEST POP POP DUP1 MLOAD PUSH1 0x20 SWAP1 SWAP2 ADD MLOAD SWAP1 SWAP3 SWAP1 SWAP2 POP JUMP INVALID 0xBA 0xBC DUP2 0x24 0xDD 0xAA GT GT SWAP11 0xBD 0xDC SELFDESTRUCT 0xD6 SWAP10 SWAP3 0x4F DUP6 PUSH29 0x9A15F1FC50BE38069E96A47AE8C0B7AC28EDE4873DC81919CA509F636B 0xD6 0xAB 0xB2 SWAP11 0xD5 SLT NUMBER STATICCALL 0xE3 DUP11 MSIZE 0xAE 0xA7 PUSH9 0x729DDE97667070C54E CALL DUP3 0xB0 CREATE2 DUP6 DUP12 SUB 0x4B 0xEA 0xC1 0xB6 RETURN ADDMOD SWAP11 LOG2 0xD3 XOR DUP12 0xB1 0xE8 SWAP3 SWAP16 0x4F 0xA9 0xB9 0x29 0x29 SWAP5 0x4E SWAP4 PUSH11 0xF6E1CBAA227DF218D7D60 0x25 0xC2 LOG2 PUSH25 0x5DB840E42A3425F24E9E68ACA2646970667358221220F600B2 0x2B STOP MLOAD 0x49 PUSH19 0x9EF73C7489F8B6B5DE9D9116B2C883AFAD5291 0xF 0xE6 MOD SWAP1 0x4F PUSH5 0x736F6C6343 STOP ADDMOD EQ STOP CALLER "},"methodIdentifiers":{"BUFFER_TARGET_BPS()":"93a2a108","COMPOUNDER_ROLE()":"684cb274","DEFAULT_ADMIN_ROLE()":"a217fddf","FIRELIGHT_TARGET_BPS()":"0ec280ba","KINETIC_TARGET_BPS()":"656ae5eb","OPERATOR_ROLE()":"f5b541a6","_calculateDeploymentAmountsExternal(uint256,uint256,uint256,uint256)":"1995ee85","addCompounder(address)":"738d2e89","addOperator(address)":"9870d7fe","bridgeRequests(bytes32)":"60b41411","createBridgeRequest(address,address,uint256,string)":"84824d76","deployToStrategies(address,uint256)":"e22486be","deregisterStrategy(address)":"feb4a71d","deregisterVault(address)":"38e270ed","executeCompound(address)":"e0b625f5","getBridgeRequest(bytes32)":"d4b5bbc8","getCurrentAllocation(address)":"88b0e1fc","getRoleAdmin(bytes32)":"248a9ca3","getStrategyCount()":"31e19cfa","getTargetAllocation(uint256)":"f1e4998d","getVaultCount()":"74d4e491","grantRole(bytes32,address)":"2f2ff15d","hasRole(bytes32,address)":"91d14854","lastCompoundTime(address)":"277d3d54","minCompoundInterval()":"aa121dcb","needsRebalancing(address,uint256)":"bb9dd1e3","rebalanceVault(address)":"3e32e7ea","registerStrategy(address,string)":"7f17c58f","registerVault(address)":"67ccd1cb","registeredStrategies(address)":"fd35d886","registeredVaults(address)":"ef0f0ec3","removeCompounder(address)":"70ae305b","removeOperator(address)":"ac8a584a","renounceRole(bytes32,address)":"36568abe","revokeRole(bytes32,address)":"d547741f","setMinCompoundInterval(uint256)":"53040960","strategyList(uint256)":"a267526b","strategyNames(address)":"ac3fea33","supportsInterface(bytes4)":"01ffc9a7","updateBridgeStatus(bytes32,uint8,string)":"cfd8b492","vaultList(uint256)":"2d8efbc5","withdrawFromStrategies(address,uint256)":"b17e6e23"}}}}}