{"project/contracts/ShXRPVault.sol":{"ShXRPVault":{"abi":[{"inputs":[{"internalType":"contract IERC20","name":"_fxrpToken","type":"address"},{"internalType":"string","name":"_name","type":"string"},{"internalType":"string","name":"_symbol","type":"string"}],"stateMutability":"nonpayable","type":"constructor"},{"inputs":[{"internalType":"address","name":"spender","type":"address"},{"internalType":"uint256","name":"allowance","type":"uint256"},{"internalType":"uint256","name":"needed","type":"uint256"}],"name":"ERC20InsufficientAllowance","type":"error"},{"inputs":[{"internalType":"address","name":"sender","type":"address"},{"internalType":"uint256","name":"balance","type":"uint256"},{"internalType":"uint256","name":"needed","type":"uint256"}],"name":"ERC20InsufficientBalance","type":"error"},{"inputs":[{"internalType":"address","name":"approver","type":"address"}],"name":"ERC20InvalidApprover","type":"error"},{"inputs":[{"internalType":"address","name":"receiver","type":"address"}],"name":"ERC20InvalidReceiver","type":"error"},{"inputs":[{"internalType":"address","name":"sender","type":"address"}],"name":"ERC20InvalidSender","type":"error"},{"inputs":[{"internalType":"address","name":"spender","type":"address"}],"name":"ERC20InvalidSpender","type":"error"},{"inputs":[{"internalType":"address","name":"receiver","type":"address"},{"internalType":"uint256","name":"assets","type":"uint256"},{"internalType":"uint256","name":"max","type":"uint256"}],"name":"ERC4626ExceededMaxDeposit","type":"error"},{"inputs":[{"internalType":"address","name":"receiver","type":"address"},{"internalType":"uint256","name":"shares","type":"uint256"},{"internalType":"uint256","name":"max","type":"uint256"}],"name":"ERC4626ExceededMaxMint","type":"error"},{"inputs":[{"internalType":"address","name":"owner","type":"address"},{"internalType":"uint256","name":"shares","type":"uint256"},{"internalType":"uint256","name":"max","type":"uint256"}],"name":"ERC4626ExceededMaxRedeem","type":"error"},{"inputs":[{"internalType":"address","name":"owner","type":"address"},{"internalType":"uint256","name":"assets","type":"uint256"},{"internalType":"uint256","name":"max","type":"uint256"}],"name":"ERC4626ExceededMaxWithdraw","type":"error"},{"inputs":[{"internalType":"address","name":"owner","type":"address"}],"name":"OwnableInvalidOwner","type":"error"},{"inputs":[{"internalType":"address","name":"account","type":"address"}],"name":"OwnableUnauthorizedAccount","type":"error"},{"inputs":[],"name":"ReentrancyGuardReentrantCall","type":"error"},{"inputs":[{"internalType":"address","name":"token","type":"address"}],"name":"SafeERC20FailedOperation","type":"error"},{"anonymous":false,"inputs":[{"indexed":true,"internalType":"address","name":"owner","type":"address"},{"indexed":true,"internalType":"address","name":"spender","type":"address"},{"indexed":false,"internalType":"uint256","name":"value","type":"uint256"}],"name":"Approval","type":"event"},{"anonymous":false,"inputs":[{"indexed":false,"internalType":"uint256","name":"newTargetBps","type":"uint256"}],"name":"BufferTargetUpdated","type":"event"},{"anonymous":false,"inputs":[{"indexed":true,"internalType":"address","name":"strategy","type":"address"},{"indexed":false,"internalType":"uint256","name":"amount","type":"uint256"}],"name":"DeployedToStrategy","type":"event"},{"anonymous":false,"inputs":[{"indexed":true,"internalType":"address","name":"sender","type":"address"},{"indexed":true,"internalType":"address","name":"owner","type":"address"},{"indexed":false,"internalType":"uint256","name":"assets","type":"uint256"},{"indexed":false,"internalType":"uint256","name":"shares","type":"uint256"}],"name":"Deposit","type":"event"},{"anonymous":false,"inputs":[{"indexed":false,"internalType":"uint256","name":"newMinDeposit","type":"uint256"}],"name":"MinDepositUpdated","type":"event"},{"anonymous":false,"inputs":[{"indexed":true,"internalType":"address","name":"operator","type":"address"}],"name":"OperatorAdded","type":"event"},{"anonymous":false,"inputs":[{"indexed":true,"internalType":"address","name":"operator","type":"address"}],"name":"OperatorRemoved","type":"event"},{"anonymous":false,"inputs":[{"indexed":true,"internalType":"address","name":"previousOwner","type":"address"},{"indexed":true,"internalType":"address","name":"newOwner","type":"address"}],"name":"OwnershipTransferred","type":"event"},{"anonymous":false,"inputs":[{"indexed":true,"internalType":"address","name":"strategy","type":"address"},{"indexed":false,"internalType":"uint256","name":"targetBps","type":"uint256"}],"name":"StrategyAdded","type":"event"},{"anonymous":false,"inputs":[{"indexed":true,"internalType":"address","name":"strategy","type":"address"},{"indexed":false,"internalType":"uint256","name":"newTargetBps","type":"uint256"}],"name":"StrategyAllocationUpdated","type":"event"},{"anonymous":false,"inputs":[{"indexed":true,"internalType":"address","name":"strategy","type":"address"}],"name":"StrategyRemoved","type":"event"},{"anonymous":false,"inputs":[{"indexed":true,"internalType":"address","name":"strategy","type":"address"},{"indexed":false,"internalType":"uint256","name":"profit","type":"uint256"},{"indexed":false,"internalType":"uint256","name":"loss","type":"uint256"},{"indexed":false,"internalType":"uint256","name":"totalAssets","type":"uint256"}],"name":"StrategyReported","type":"event"},{"anonymous":false,"inputs":[{"indexed":true,"internalType":"address","name":"strategy","type":"address"},{"indexed":false,"internalType":"enum ShXRPVault.StrategyStatus","name":"newStatus","type":"uint8"}],"name":"StrategyStatusUpdated","type":"event"},{"anonymous":false,"inputs":[{"indexed":true,"internalType":"address","name":"from","type":"address"},{"indexed":true,"internalType":"address","name":"to","type":"address"},{"indexed":false,"internalType":"uint256","name":"value","type":"uint256"}],"name":"Transfer","type":"event"},{"anonymous":false,"inputs":[{"indexed":true,"internalType":"address","name":"sender","type":"address"},{"indexed":true,"internalType":"address","name":"receiver","type":"address"},{"indexed":true,"internalType":"address","name":"owner","type":"address"},{"indexed":false,"internalType":"uint256","name":"assets","type":"uint256"},{"indexed":false,"internalType":"uint256","name":"shares","type":"uint256"}],"name":"Withdraw","type":"event"},{"anonymous":false,"inputs":[{"indexed":true,"internalType":"address","name":"strategy","type":"address"},{"indexed":false,"internalType":"uint256","name":"amount","type":"uint256"},{"indexed":false,"internalType":"uint256","name":"actualAmount","type":"uint256"}],"name":"WithdrawnFromStrategy","type":"event"},{"inputs":[{"internalType":"address","name":"strategy","type":"address"}],"name":"activateStrategy","outputs":[],"stateMutability":"nonpayable","type":"function"},{"inputs":[{"internalType":"address","name":"operator","type":"address"}],"name":"addOperator","outputs":[],"stateMutability":"nonpayable","type":"function"},{"inputs":[{"internalType":"address","name":"strategy","type":"address"},{"internalType":"uint256","name":"targetBps","type":"uint256"}],"name":"addStrategy","outputs":[],"stateMutability":"nonpayable","type":"function"},{"inputs":[{"internalType":"address","name":"owner","type":"address"},{"internalType":"address","name":"spender","type":"address"}],"name":"allowance","outputs":[{"internalType":"uint256","name":"","type":"uint256"}],"stateMutability":"view","type":"function"},{"inputs":[{"internalType":"address","name":"spender","type":"address"},{"internalType":"uint256","name":"value","type":"uint256"}],"name":"approve","outputs":[{"internalType":"bool","name":"","type":"bool"}],"stateMutability":"nonpayable","type":"function"},{"inputs":[],"name":"asset","outputs":[{"internalType":"address","name":"","type":"address"}],"stateMutability":"view","type":"function"},{"inputs":[{"internalType":"address","name":"account","type":"address"}],"name":"balanceOf","outputs":[{"internalType":"uint256","name":"","type":"uint256"}],"stateMutability":"view","type":"function"},{"inputs":[],"name":"bufferTargetBps","outputs":[{"internalType":"uint256","name":"","type":"uint256"}],"stateMutability":"view","type":"function"},{"inputs":[{"internalType":"uint256","name":"shares","type":"uint256"}],"name":"convertToAssets","outputs":[{"internalType":"uint256","name":"","type":"uint256"}],"stateMutability":"view","type":"function"},{"inputs":[{"internalType":"uint256","name":"assets","type":"uint256"}],"name":"convertToShares","outputs":[{"internalType":"uint256","name":"","type":"uint256"}],"stateMutability":"view","type":"function"},{"inputs":[],"name":"decimals","outputs":[{"internalType":"uint8","name":"","type":"uint8"}],"stateMutability":"view","type":"function"},{"inputs":[{"internalType":"address","name":"strategy","type":"address"},{"internalType":"uint256","name":"amount","type":"uint256"}],"name":"deployToStrategy","outputs":[],"stateMutability":"nonpayable","type":"function"},{"inputs":[{"internalType":"uint256","name":"assets","type":"uint256"},{"internalType":"address","name":"receiver","type":"address"}],"name":"deposit","outputs":[{"internalType":"uint256","name":"","type":"uint256"}],"stateMutability":"nonpayable","type":"function"},{"inputs":[],"name":"getActiveStrategies","outputs":[{"internalType":"address[]","name":"","type":"address[]"}],"stateMutability":"view","type":"function"},{"inputs":[],"name":"getAllStrategies","outputs":[{"internalType":"address[]","name":"","type":"address[]"}],"stateMutability":"view","type":"function"},{"inputs":[],"name":"getBufferBalance","outputs":[{"internalType":"uint256","name":"","type":"uint256"}],"stateMutability":"view","type":"function"},{"inputs":[],"name":"getBufferStatus","outputs":[{"internalType":"uint256","name":"current","type":"uint256"},{"internalType":"uint256","name":"target","type":"uint256"},{"internalType":"uint256","name":"deficit","type":"uint256"},{"internalType":"uint256","name":"surplus","type":"uint256"},{"internalType":"uint256","name":"targetBps","type":"uint256"}],"stateMutability":"view","type":"function"},{"inputs":[],"name":"getBufferTarget","outputs":[{"internalType":"uint256","name":"","type":"uint256"}],"stateMutability":"view","type":"function"},{"inputs":[],"name":"getCurrentAllocations","outputs":[{"internalType":"address[]","name":"strategies_","type":"address[]"},{"internalType":"uint256[]","name":"allocations","type":"uint256[]"},{"internalType":"uint256[]","name":"targets","type":"uint256[]"}],"stateMutability":"view","type":"function"},{"inputs":[{"internalType":"address","name":"strategy","type":"address"}],"name":"getStrategyInfo","outputs":[{"components":[{"internalType":"address","name":"strategyAddress","type":"address"},{"internalType":"uint256","name":"targetBps","type":"uint256"},{"internalType":"enum ShXRPVault.StrategyStatus","name":"status","type":"uint8"},{"internalType":"uint256","name":"totalDeployed","type":"uint256"},{"internalType":"uint256","name":"lastReportTimestamp","type":"uint256"}],"internalType":"struct ShXRPVault.StrategyInfo","name":"info","type":"tuple"}],"stateMutability":"view","type":"function"},{"inputs":[],"name":"getTotalDeployed","outputs":[{"internalType":"uint256","name":"","type":"uint256"}],"stateMutability":"view","type":"function"},{"inputs":[{"internalType":"address","name":"","type":"address"}],"name":"maxDeposit","outputs":[{"internalType":"uint256","name":"","type":"uint256"}],"stateMutability":"view","type":"function"},{"inputs":[{"internalType":"address","name":"","type":"address"}],"name":"maxMint","outputs":[{"internalType":"uint256","name":"","type":"uint256"}],"stateMutability":"view","type":"function"},{"inputs":[{"internalType":"address","name":"owner","type":"address"}],"name":"maxRedeem","outputs":[{"internalType":"uint256","name":"","type":"uint256"}],"stateMutability":"view","type":"function"},{"inputs":[{"internalType":"address","name":"owner","type":"address"}],"name":"maxWithdraw","outputs":[{"internalType":"uint256","name":"","type":"uint256"}],"stateMutability":"view","type":"function"},{"inputs":[],"name":"minDeposit","outputs":[{"internalType":"uint256","name":"","type":"uint256"}],"stateMutability":"view","type":"function"},{"inputs":[{"internalType":"uint256","name":"shares","type":"uint256"},{"internalType":"address","name":"receiver","type":"address"}],"name":"mint","outputs":[{"internalType":"uint256","name":"","type":"uint256"}],"stateMutability":"nonpayable","type":"function"},{"inputs":[],"name":"name","outputs":[{"internalType":"string","name":"","type":"string"}],"stateMutability":"view","type":"function"},{"inputs":[{"internalType":"address","name":"","type":"address"}],"name":"operators","outputs":[{"internalType":"bool","name":"","type":"bool"}],"stateMutability":"view","type":"function"},{"inputs":[],"name":"owner","outputs":[{"internalType":"address","name":"","type":"address"}],"stateMutability":"view","type":"function"},{"inputs":[{"internalType":"address","name":"strategy","type":"address"}],"name":"pauseStrategy","outputs":[],"stateMutability":"nonpayable","type":"function"},{"inputs":[{"internalType":"uint256","name":"assets","type":"uint256"}],"name":"previewDeposit","outputs":[{"internalType":"uint256","name":"","type":"uint256"}],"stateMutability":"view","type":"function"},{"inputs":[{"internalType":"uint256","name":"shares","type":"uint256"}],"name":"previewMint","outputs":[{"internalType":"uint256","name":"","type":"uint256"}],"stateMutability":"view","type":"function"},{"inputs":[{"internalType":"uint256","name":"shares","type":"uint256"}],"name":"previewRedeem","outputs":[{"internalType":"uint256","name":"","type":"uint256"}],"stateMutability":"view","type":"function"},{"inputs":[{"internalType":"uint256","name":"assets","type":"uint256"}],"name":"previewWithdraw","outputs":[{"internalType":"uint256","name":"","type":"uint256"}],"stateMutability":"view","type":"function"},{"inputs":[{"internalType":"uint256","name":"shares","type":"uint256"},{"internalType":"address","name":"receiver","type":"address"},{"internalType":"address","name":"owner","type":"address"}],"name":"redeem","outputs":[{"internalType":"uint256","name":"","type":"uint256"}],"stateMutability":"nonpayable","type":"function"},{"inputs":[{"internalType":"address","name":"operator","type":"address"}],"name":"removeOperator","outputs":[],"stateMutability":"nonpayable","type":"function"},{"inputs":[{"internalType":"address","name":"strategy","type":"address"}],"name":"removeStrategy","outputs":[],"stateMutability":"nonpayable","type":"function"},{"inputs":[],"name":"renounceOwnership","outputs":[],"stateMutability":"nonpayable","type":"function"},{"inputs":[{"internalType":"address","name":"strategy","type":"address"}],"name":"reportStrategy","outputs":[],"stateMutability":"nonpayable","type":"function"},{"inputs":[{"internalType":"address","name":"strategy","type":"address"}],"name":"resumeStrategy","outputs":[],"stateMutability":"nonpayable","type":"function"},{"inputs":[{"internalType":"uint256","name":"newTargetBps","type":"uint256"}],"name":"setBufferTarget","outputs":[],"stateMutability":"nonpayable","type":"function"},{"inputs":[{"internalType":"uint256","name":"newMinDeposit","type":"uint256"}],"name":"setMinDeposit","outputs":[],"stateMutability":"nonpayable","type":"function"},{"inputs":[{"internalType":"address","name":"","type":"address"}],"name":"strategies","outputs":[{"internalType":"address","name":"strategyAddress","type":"address"},{"internalType":"uint256","name":"targetBps","type":"uint256"},{"internalType":"enum ShXRPVault.StrategyStatus","name":"status","type":"uint8"},{"internalType":"uint256","name":"totalDeployed","type":"uint256"},{"internalType":"uint256","name":"lastReportTimestamp","type":"uint256"}],"stateMutability":"view","type":"function"},{"inputs":[{"internalType":"uint256","name":"","type":"uint256"}],"name":"strategyList","outputs":[{"internalType":"address","name":"","type":"address"}],"stateMutability":"view","type":"function"},{"inputs":[],"name":"symbol","outputs":[{"internalType":"string","name":"","type":"string"}],"stateMutability":"view","type":"function"},{"inputs":[],"name":"totalAssets","outputs":[{"internalType":"uint256","name":"","type":"uint256"}],"stateMutability":"view","type":"function"},{"inputs":[],"name":"totalStrategyTargetBps","outputs":[{"internalType":"uint256","name":"","type":"uint256"}],"stateMutability":"view","type":"function"},{"inputs":[],"name":"totalSupply","outputs":[{"internalType":"uint256","name":"","type":"uint256"}],"stateMutability":"view","type":"function"},{"inputs":[{"internalType":"address","name":"to","type":"address"},{"internalType":"uint256","name":"value","type":"uint256"}],"name":"transfer","outputs":[{"internalType":"bool","name":"","type":"bool"}],"stateMutability":"nonpayable","type":"function"},{"inputs":[{"internalType":"address","name":"from","type":"address"},{"internalType":"address","name":"to","type":"address"},{"internalType":"uint256","name":"value","type":"uint256"}],"name":"transferFrom","outputs":[{"internalType":"bool","name":"","type":"bool"}],"stateMutability":"nonpayable","type":"function"},{"inputs":[{"internalType":"address","name":"newOwner","type":"address"}],"name":"transferOwnership","outputs":[],"stateMutability":"nonpayable","type":"function"},{"inputs":[{"internalType":"address","name":"strategy","type":"address"},{"internalType":"uint256","name":"newTargetBps","type":"uint256"}],"name":"updateAllocation","outputs":[],"stateMutability":"nonpayable","type":"function"},{"inputs":[{"internalType":"uint256","name":"assets","type":"uint256"},{"internalType":"address","name":"receiver","type":"address"},{"internalType":"address","name":"owner","type":"address"}],"name":"withdraw","outputs":[{"internalType":"uint256","name":"","type":"uint256"}],"stateMutability":"nonpayable","type":"function"},{"inputs":[{"internalType":"address","name":"strategy","type":"address"},{"internalType":"uint256","name":"amount","type":"uint256"}],"name":"withdrawFromStrategy","outputs":[],"stateMutability":"nonpayable","type":"function"}],"evm":{"bytecode":{"linkReferences":{},"object":"60c06040526127106008556103e8600c553480156200001c575f80fd5b5060405162004753380380620047538339810160408190526200003f916200036e565b3383838360036200005183826200047e565b5060046200006082826200047e565b5050505f8062000076836200017860201b60201c565b9150915081620000885760126200008a565b805b60ff1660a05250506001600160a01b039081166080528116620000c757604051631e4fbdf760e01b81525f60048201526024015b60405180910390fd5b620000d28162000257565b5060016006556001600160a01b038316620001305760405162461bcd60e51b815260206004820152601a60248201527f496e76616c6964204658525020746f6b656e20616464726573730000000000006044820152606401620000be565b335f81815260076020526040808220805460ff19166001179055517fac6fa858e9350a46cec16539926e0fde25b7629f84b5a72bffaae4df888ae86d9190a25050506200057b565b60408051600481526024810182526020810180516001600160e01b031663313ce56760e01b17905290515f918291829182916001600160a01b03871691620001c09162000546565b5f60405180830381855afa9150503d805f8114620001fa576040519150601f19603f3d011682016040523d82523d5f602084013e620001ff565b606091505b50915091508180156200021457506020815110155b156200024b575f8180602001905181019062000231919062000563565b905060ff811162000249576001969095509350505050565b505b505f9485945092505050565b600580546001600160a01b038381166001600160a01b0319831681179093556040519116919082907f8be0079c531659141344cd1fd0a4f28419497f9722a3daafe3b4186f6b6457e0905f90a35050565b634e487b7160e01b5f52604160045260245ffd5b5f5b83811015620002d8578181015183820152602001620002be565b50505f910152565b5f82601f830112620002f0575f80fd5b81516001600160401b03808211156200030d576200030d620002a8565b604051601f8301601f19908116603f01168101908282118183101715620003385762000338620002a8565b8160405283815286602085880101111562000351575f80fd5b62000364846020830160208901620002bc565b9695505050505050565b5f805f6060848603121562000381575f80fd5b83516001600160a01b038116811462000398575f80fd5b60208501519093506001600160401b0380821115620003b5575f80fd5b620003c387838801620002e0565b93506040860151915080821115620003d9575f80fd5b50620003e886828701620002e0565b9150509250925092565b600181811c908216806200040757607f821691505b6020821081036200042657634e487b7160e01b5f52602260045260245ffd5b50919050565b601f82111562000479575f81815260208120601f850160051c81016020861015620004545750805b601f850160051c820191505b81811015620004755782815560010162000460565b5050505b505050565b81516001600160401b038111156200049a576200049a620002a8565b620004b281620004ab8454620003f2565b846200042c565b602080601f831160018114620004e8575f8415620004d05750858301515b5f19600386901b1c1916600185901b17855562000475565b5f85815260208120601f198616915b828110156200051857888601518255948401946001909101908401620004f7565b50858210156200053657878501515f19600388901b60f8161c191681555b5050505050600190811b01905550565b5f825162000559818460208701620002bc565b9190910192915050565b5f6020828403121562000574575f80fd5b5051919050565b60805160a05161416c620005e75f395f50505f818161044b015281816107d001528181610dc001528181611b6001528181611c5d015281816120a8015281816125cb015281816127aa015281816130b301528181613135015281816134820152613673015261416c5ff3fe608060405234801561000f575f80fd5b506004361061034d575f3560e01c80638fcc9cfb116101c9578063c3b28864116100fe578063d905777e1161009e578063dd62ed3e11610079578063dd62ed3e1461076e578063ef8b30f7146106e1578063f2fde38b146107a6578063f6c00db9146107b9575f80fd5b8063d905777e14610740578063d9aba11114610753578063dc24fc0714610766575f80fd5b8063c9411e22116100d9578063c9411e22146106f4578063ce96cb7714610707578063d3f6b5981461071a578063d80ea5a01461072d575f80fd5b8063c3b28864146106d9578063c63d75b6146104ef578063c6e6f592146106e1575f80fd5b8063ac8a584a11610169578063b3d7f6b911610144578063b3d7f6b91461068d578063b460af94146106a0578063b53d0958146106b3578063ba087652146106c6575f80fd5b8063ac8a584a14610669578063acd17d5d1461067c578063af56b69f14610684575f80fd5b80639870d7fe116101a45780639870d7fe14610600578063a267526b14610613578063a3603bca14610626578063a9059cbb14610656575f80fd5b80638fcc9cfb146105d257806394bf804d146105e557806395d89b41146105f8575f80fd5b806339ebf8231161029f57806354192ad51161023f578063708517031161021a578063708517031461057e57806370a0823114610591578063715018a6146105b95780638da5cb5b146105c1575f80fd5b806354192ad514610536578063587436e4146105565780636e553f651461056b575f80fd5b806341826c2d1161027a57806341826c2d1461050357806341b3d1851461051a5780634cdad506146103815780634e42318114610523575f80fd5b806339ebf8231461048b5780633ede66f7146104e6578063402d267d146104ef575f80fd5b8063175188e81161030a5780632a058cac116102e55780632a058cac1461041c578063313ce5671461042f57806338d52e0f1461044957806338f0ede914610483575f80fd5b8063175188e8146103ec57806318160ddd1461040157806323b872dd14610409575f80fd5b806301e1d1141461035157806306fdde031461036c57806307a2d13a14610381578063095ea7b3146103945780630a28a477146103b757806313e7c9d8146103ca575b5f80fd5b6103596107cc565b6040519081526020015b60405180910390f35b610374610963565b6040516103639190613a5a565b61035961038f366004613aa5565b6109f3565b6103a76103a2366004613ad0565b610a04565b6040519015158152602001610363565b6103596103c5366004613aa5565b610a1b565b6103a76103d8366004613afa565b60076020525f908152604090205460ff1681565b6103ff6103fa366004613afa565b610a27565b005b600254610359565b6103a7610417366004613b15565b610c84565b6103ff61042a366004613afa565b610ca9565b610437610dbd565b60405160ff9091168152602001610363565b7f00000000000000000000000000000000000000000000000000000000000000005b6040516001600160a01b039091168152602001610363565b610359610e43565b6104d5610499366004613afa565b60096020525f9081526040902080546001820154600283015460038401546004909401546001600160a01b0390931693919260ff909116919085565b604051610363959493929190613b87565b610359600b5481565b6103596104fd366004613afa565b505f1990565b61050b610eac565b60405161036393929190613c2e565b61035960085481565b6103ff610531366004613aa5565b611250565b610549610544366004613afa565b6112e9565b6040516103639190613c70565b61055e6113d2565b6040516103639190613cb9565b610359610579366004613ccb565b611586565b6103ff61058c366004613ad0565b6115ef565b61035961059f366004613afa565b6001600160a01b03165f9081526020819052604090205490565b6103ff611731565b6005546001600160a01b031661046b565b6103ff6105e0366004613aa5565b611744565b6103596105f3366004613ccb565b6117d6565b61037461184c565b6103ff61060e366004613afa565b61185b565b61046b610621366004613aa5565b611904565b61062e61192c565b604080519586526020860194909452928401919091526060830152608082015260a001610363565b6103a7610664366004613ad0565b61197d565b6103ff610677366004613afa565b61198a565b6103596119da565b610359600c5481565b61035961069b366004613aa5565b6119fd565b6103596106ae366004613cf9565b611a09565b6103ff6106c1366004613ad0565b611a29565b6103596106d4366004613cf9565b611e5b565b61055e611e6f565b6103596106ef366004613aa5565b611ece565b6103ff610702366004613ad0565b611ed9565b610359610715366004613afa565b61226d565b6103ff610728366004613afa565b61228f565b6103ff61073b366004613afa565b6123ab565b61035961074e366004613afa565b61245d565b6103ff610761366004613afa565b61247a565b6103596125c8565b61035961077c366004613d38565b6001600160a01b039182165f90815260016020908152604080832093909416825291909152205490565b6103ff6107b4366004613afa565b612652565b6103ff6107c7366004613ad0565b61268f565b5f807f00000000000000000000000000000000000000000000000000000000000000006040516370a0823160e01b81523060048201526001600160a01b0391909116906370a0823190602401602060405180830381865afa158015610833573d5f803e3d5ffd5b505050506040513d601f19601f820116820180604052508101906108579190613d64565b90505f5b600a5481101561095d575f600a828154811061087957610879613d7b565b5f9182526020808320909101546001600160a01b0316808352600990915260409091209091506001600282015460ff1660038111156108ba576108ba613b53565b146108c657505061094b565b816001600160a01b03166301e1d1146040518163ffffffff1660e01b8152600401602060405180830381865afa925050508015610920575060408051601f3d908101601f1916820190925261091d91810190613d64565b60015b61093a5760038101546109339085613da3565b9350610948565b6109448186613da3565b9450505b50505b8061095581613db6565b91505061085b565b50919050565b60606003805461097290613dce565b80601f016020809104026020016040519081016040528092919081815260200182805461099e90613dce565b80156109e95780601f106109c0576101008083540402835291602001916109e9565b820191905f5260205f20905b8154815290600101906020018083116109cc57829003601f168201915b5050505050905090565b5f6109fe825f612bbf565b92915050565b5f33610a11818585612bf7565b5060019392505050565b5f6109fe826001612c09565b610a2f612c38565b6001600160a01b038181165f9081526009602052604090205416610a6e5760405162461bcd60e51b8152600401610a6590613e00565b60405180910390fd5b6001600160a01b0381165f9081526009602052604090206003015415610ad65760405162461bcd60e51b815260206004820152601860248201527f5374726174656779207374696c6c206861732066756e647300000000000000006044820152606401610a65565b6001600160a01b0381165f90815260096020526040812060010154600b805491929091610b04908490613e37565b90915550506001600160a01b0381165f90815260096020526040812080546001600160a01b03191681556001810182905560028101805460ff19169055600381018290556004018190555b600a54811015610c4d57816001600160a01b0316600a8281548110610b7657610b76613d7b565b5f918252602090912001546001600160a01b031603610c3b57600a8054610b9f90600190613e37565b81548110610baf57610baf613d7b565b5f91825260209091200154600a80546001600160a01b039092169183908110610bda57610bda613d7b565b905f5260205f20015f6101000a8154816001600160a01b0302191690836001600160a01b03160217905550600a805480610c1657610c16613e4a565b5f8281526020902081015f1990810180546001600160a01b0319169055019055610c4d565b80610c4581613db6565b915050610b4f565b506040516001600160a01b038216907f09a1db4b80c32706328728508c941a6b954f31eb5affd32f236c1fd405f8fea4905f90a250565b5f33610c91858285612c65565b610c9c858585612cce565b60019150505b9392505050565b610cb1612c38565b6001600160a01b038181165f9081526009602052604090205416610ce75760405162461bcd60e51b8152600401610a6590613e00565b60026001600160a01b0382165f9081526009602052604090206002015460ff166003811115610d1857610d18613b53565b14610d5b5760405162461bcd60e51b815260206004820152601360248201527214dd1c985d1959de481b9bdd081c185d5cd959606a1b6044820152606401610a65565b6001600160a01b0381165f8181526009602052604090819020600201805460ff1916600190811790915590517f71e4d9fadf21bb369876cebbd9192d4d84150c2fb6d208d5d68d6fbdf0aabf7691610db291613e5e565b60405180910390a250565b5f7f00000000000000000000000000000000000000000000000000000000000000006001600160a01b031663313ce5676040518163ffffffff1660e01b8152600401602060405180830381865afa158015610e1a573d5f803e3d5ffd5b505050506040513d601f19601f82011682018060405250810190610e3e9190613e6c565b905090565b5f80805b600a5481101561095d5760095f600a8381548110610e6757610e67613d7b565b5f9182526020808320909101546001600160a01b03168352820192909252604001902060030154610e989083613da3565b915080610ea481613db6565b915050610e47565b60608060605f610eba6107cc565b600a54909150610ecb816001613da3565b67ffffffffffffffff811115610ee357610ee3613e8c565b604051908082528060200260200182016040528015610f0c578160200160208202803683370190505b509450610f1a816001613da3565b67ffffffffffffffff811115610f3257610f32613e8c565b604051908082528060200260200182016040528015610f5b578160200160208202803683370190505b509350610f69816001613da3565b67ffffffffffffffff811115610f8157610f81613e8c565b604051908082528060200260200182016040528015610faa578160200160208202803683370190505b5092505f855f81518110610fc057610fc0613d7b565b6001600160a01b0390921660209283029190910190910152811561101c5781610fe76125c8565b610ff390612710613ea0565b610ffd9190613ecb565b845f8151811061100f5761100f613d7b565b6020026020010181815250505b600c54835f8151811061103157611031613d7b565b6020026020010181815250505f5b81811015611248575f600a828154811061105b5761105b613d7b565b5f918252602090912001546001600160a01b03169050808761107e846001613da3565b8151811061108e5761108e613d7b565b60200260200101906001600160a01b031690816001600160a01b0316815250505f841180156110eb575060016001600160a01b0382165f9081526009602052604090206002015460ff1660038111156110e9576110e9613b53565b145b156111ef57806001600160a01b03166301e1d1146040518163ffffffff1660e01b8152600401602060405180830381865afa92505050801561114a575060408051601f3d908101601f1916820190925261114791810190613d64565b60015b6111ae576001600160a01b0381165f90815260096020526040902060030154849061117790612710613ea0565b6111819190613ecb565b8661118d846001613da3565b8151811061119d5761119d613d7b565b6020026020010181815250506111ef565b846111bb82612710613ea0565b6111c59190613ecb565b876111d1856001613da3565b815181106111e1576111e1613d7b565b602002602001018181525050505b6001600160a01b0381165f90815260096020526040902060019081015490869061121a908590613da3565b8151811061122a5761122a613d7b565b6020908102919091010152508061124081613db6565b91505061103f565b505050909192565b611258612c38565b61271081111561127a5760405162461bcd60e51b8152600401610a6590613ede565b5f81600b546112899190613da3565b90506127108111156112ad5760405162461bcd60e51b8152600401610a6590613f15565b600c8290556040518281527f25d100bf71ce70005705f0f63e93ddd517f408c8fad360538d0ae1f2204029a89060200160405180910390a15050565b6113186040805160a0810182525f80825260208201819052909182019081526020015f81526020015f81525090565b6001600160a01b038281165f908152600960205260409020541661134e5760405162461bcd60e51b8152600401610a6590613e00565b6001600160a01b038083165f90815260096020908152604091829020825160a081018452815490941684526001810154918401919091526002810154909183019060ff1660038111156113a3576113a3613b53565b60038111156113b4576113b4613b53565b81526003820154602082015260049091015460409091015292915050565b60605f805b600a5481101561145957600160095f600a84815481106113f9576113f9613d7b565b5f9182526020808320909101546001600160a01b0316835282019290925260400190206002015460ff16600381111561143457611434613b53565b03611447578161144381613db6565b9250505b8061145181613db6565b9150506113d7565b505f8167ffffffffffffffff81111561147457611474613e8c565b60405190808252806020026020018201604052801561149d578160200160208202803683370190505b5090505f805b600a5481101561157d57600160095f600a84815481106114c5576114c5613d7b565b5f9182526020808320909101546001600160a01b0316835282019290925260400190206002015460ff16600381111561150057611500613b53565b0361156b57600a818154811061151857611518613d7b565b905f5260205f20015f9054906101000a90046001600160a01b031683838151811061154557611545613d7b565b6001600160a01b03909216602092830291909101909101528161156781613db6565b9250505b8061157581613db6565b9150506114a3565b50909392505050565b5f61158f612d2b565b6008548310156115d95760405162461bcd60e51b815260206004820152601560248201527410995b1bddc81b5a5b9a5b5d5b4819195c1bdcda5d605a1b6044820152606401610a65565b6115e38383612d55565b90506109fe6001600655565b6115f7612c38565b6001600160a01b038281165f908152600960205260409020541661162d5760405162461bcd60e51b8152600401610a6590613e00565b61271081111561164f5760405162461bcd60e51b8152600401610a6590613ede565b6001600160a01b0382165f90815260096020526040812060010154600c54600b549192918490611680908590613e37565b61168a9190613da3565b6116949190613da3565b90506127108111156116b85760405162461bcd60e51b8152600401610a6590613f15565b8282600b546116c79190613e37565b6116d19190613da3565b600b556001600160a01b0384165f8181526009602052604090819020600101859055517feda1127dbe257a768246136b79de9d901a2a66b37e0197435f9b4c2e499095c4906117239086815260200190565b60405180910390a250505050565b611739612c38565b6117425f612d78565b565b61174c612c38565b5f811161179b5760405162461bcd60e51b815260206004820152601c60248201527f4d696e206465706f736974206d75737420626520706f736974697665000000006044820152606401610a65565b60088190556040518181527f96a008f96f1c0ab9fa3d9ddd43cdfc614848c4d054d51f43662ed900e9d094c89060200160405180910390a150565b5f6117df612d2b565b5f6117e9846119fd565b90506008548110156118355760405162461bcd60e51b815260206004820152601560248201527410995b1bddc81b5a5b9a5b5d5b4819195c1bdcda5d605a1b6044820152606401610a65565b61183f8484612dc9565b9150506109fe6001600655565b60606004805461097290613dce565b611863612c38565b6001600160a01b0381166118b95760405162461bcd60e51b815260206004820152601860248201527f496e76616c6964206f70657261746f72206164647265737300000000000000006044820152606401610a65565b6001600160a01b0381165f81815260076020526040808220805460ff19166001179055517fac6fa858e9350a46cec16539926e0fde25b7629f84b5a72bffaae4df888ae86d9190a250565b600a8181548110611913575f80fd5b5f918252602090912001546001600160a01b0316905081565b5f805f805f6119396125c8565b94506119436119da565b9350600c549050838510156119665761195c8585613e37565b92505f9150611976565b5f92506119738486613e37565b91505b9091929394565b5f33610a11818585612cce565b611992612c38565b6001600160a01b0381165f81815260076020526040808220805460ff19169055517f80c0b871b97b595b16a7741c1b06fed0c6f6f558639f18ccbce50724325dc40d9190a250565b5f612710600c546119e96107cc565b6119f39190613ea0565b610e3e9190613ecb565b5f6109fe826001612bbf565b5f611a12612d2b565b611a1d848484612de4565b9050610ca26001600655565b335f9081526007602052604090205460ff1680611a5057506005546001600160a01b031633145b611a6c5760405162461bcd60e51b8152600401610a6590613f4c565b611a74612d2b565b6001600160a01b038281165f9081526009602052604090205416611aaa5760405162461bcd60e51b8152600401610a6590613e00565b5f8111611af35760405162461bcd60e51b8152602060048201526017602482015276416d6f756e74206d75737420626520706f73697469766560481b6044820152606401610a65565b6001600160a01b0382165f90815260096020526040902060030154811115611b5d5760405162461bcd60e51b815260206004820152601960248201527f57697468647261772065786365656473206465706c6f796564000000000000006044820152606401610a65565b5f7f00000000000000000000000000000000000000000000000000000000000000006040516370a0823160e01b81523060048201526001600160a01b0391909116906370a0823190602401602060405180830381865afa158015611bc3573d5f803e3d5ffd5b505050506040513d601f19601f82011682018060405250810190611be79190613d64565b604051627b8a6760e11b8152600481018490523060248201529091505f906001600160a01b0385169062f714ce906044016020604051808303815f875af1158015611c34573d5f803e3d5ffd5b505050506040513d601f19601f82011682018060405250810190611c589190613d64565b90505f7f00000000000000000000000000000000000000000000000000000000000000006040516370a0823160e01b81523060048201526001600160a01b0391909116906370a0823190602401602060405180830381865afa158015611cc0573d5f803e3d5ffd5b505050506040513d601f19601f82011682018060405250810190611ce49190613d64565b905082811015611d365760405162461bcd60e51b815260206004820152601760248201527f5661756c742062616c616e6365206465637265617365640000000000000000006044820152606401610a65565b5f611d418483613e37565b90505f8111611d925760405162461bcd60e51b815260206004820152601f60248201527f4e6f2066756e64732072656365697665642066726f6d207374726174656779006044820152606401610a65565b6001600160a01b0386165f908152600960205260409020600301548111611de8576001600160a01b0386165f9081526009602052604081206003018054839290611ddd908490613e37565b90915550611e049050565b6001600160a01b0386165f908152600960205260408120600301555b60408051868152602081018590526001600160a01b038816917f490dfb4ce52333704763aee75edba596ceaab548bccafc900f79c2b9f6381b0891015b60405180910390a250505050611e576001600655565b5050565b5f611e64612d2b565b611a1d848484612e3a565b6060600a8054806020026020016040519081016040528092919081815260200182805480156109e957602002820191905f5260205f20905b81546001600160a01b03168152600190910190602001808311611ea7575050505050905090565b5f6109fe825f612c09565b611ee1612c38565b6001600160a01b038216611f375760405162461bcd60e51b815260206004820152601860248201527f496e76616c6964207374726174656779206164647265737300000000000000006044820152606401610a65565b6001600160a01b038281165f908152600960205260409020541615611f9e5760405162461bcd60e51b815260206004820152601760248201527f537472617465677920616c7265616479206578697374730000000000000000006044820152606401610a65565b612710811115611fc05760405162461bcd60e51b8152600401610a6590613ede565b5f600c5482600b54611fd29190613da3565b611fdc9190613da3565b90506127108111156120005760405162461bcd60e51b8152600401610a6590613f15565b826001600160a01b03166338d52e0f6040518163ffffffff1660e01b8152600401602060405180830381865afa92505050801561205a575060408051601f3d908101601f1916820190925261205791810190613f74565b60015b6120a65760405162461bcd60e51b815260206004820152601960248201527f496e76616c696420737472617465677920636f6e7472616374000000000000006044820152606401610a65565b7f00000000000000000000000000000000000000000000000000000000000000006001600160a01b0316816001600160a01b0316146121275760405162461bcd60e51b815260206004820152601760248201527f5374726174656779206173736574206d69736d617463680000000000000000006044820152606401610a65565b506040805160a0810182526001600160a01b0385811680835260208084018781525f858701818152606087018290524260808801529381526009909252949020835181546001600160a01b031916931692909217825592516001808301919091559251600282018054939492939192909160ff1916908360038111156121af576121af613b53565b021790555060608201516003820155608090910151600490910155600a80546001810182555f9182527fc65a7bb8d6351c1cf70c95a316cc6a92839c986682d98bc35f958f4883f9d2a80180546001600160a01b0319166001600160a01b038616179055600b8054849290612225908490613da3565b90915550506040518281526001600160a01b038416907f2f564a83158ad1831793ad3e69257b52f39ece5d49cb0d8746708ecb9ef964da9060200160405180910390a2505050565b6001600160a01b0381165f908152602081905260408120546109fe905f612bbf565b335f9081526007602052604090205460ff16806122b657506005546001600160a01b031633145b6122d25760405162461bcd60e51b8152600401610a6590613f4c565b6001600160a01b038181165f90815260096020526040902054166123085760405162461bcd60e51b8152600401610a6590613e00565b60016001600160a01b0382165f9081526009602052604090206002015460ff16600381111561233957612339613b53565b146123565760405162461bcd60e51b8152600401610a6590613f8f565b6001600160a01b0381165f81815260096020526040908190206002908101805460ff19168217905590517f71e4d9fadf21bb369876cebbd9192d4d84150c2fb6d208d5d68d6fbdf0aabf7691610db291613e5e565b6123b3612c38565b6001600160a01b038181165f90815260096020526040902054166123e95760405162461bcd60e51b8152600401610a6590613e00565b6001600160a01b0381165f9081526009602052604081206002015460ff16600381111561241857612418613b53565b14610d5b5760405162461bcd60e51b81526020600482015260156024820152745374726174656779206e6f7420696e61637469766560581b6044820152606401610a65565b6001600160a01b0381165f908152602081905260408120546109fe565b6001600160a01b038181165f90815260096020526040902054166124b05760405162461bcd60e51b8152600401610a6590613e00565b60016001600160a01b0382165f9081526009602052604090206002015460ff1660038111156124e1576124e1613b53565b146124fe5760405162461bcd60e51b8152600401610a6590613f8f565b5f805f836001600160a01b0316632606a10b6040518163ffffffff1660e01b81526004016060604051808303815f875af115801561253e573d5f803e3d5ffd5b505050506040513d601f19601f820116820180604052508101906125629190613fbc565b6001600160a01b0387165f818152600960209081526040918290204260049091015581518681529081018590529081018390529396509194509250907f6fbdf847c78f04eac7a7a77e1073af6eeec604ee0b495240579dccf57fcf2d8890606001611723565b5f7f00000000000000000000000000000000000000000000000000000000000000006040516370a0823160e01b81523060048201526001600160a01b0391909116906370a0823190602401602060405180830381865afa15801561262e573d5f803e3d5ffd5b505050506040513d601f19601f82011682018060405250810190610e3e9190613d64565b61265a612c38565b6001600160a01b03811661268357604051631e4fbdf760e01b81525f6004820152602401610a65565b61268c81612d78565b50565b335f9081526007602052604090205460ff16806126b657506005546001600160a01b031633145b6126d25760405162461bcd60e51b8152600401610a6590613f4c565b6126da612d2b565b6001600160a01b038281165f90815260096020526040902054166127105760405162461bcd60e51b8152600401610a6590613e00565b60016001600160a01b0383165f9081526009602052604090206002015460ff16600381111561274157612741613b53565b1461275e5760405162461bcd60e51b8152600401610a6590613f8f565b5f81116127a75760405162461bcd60e51b8152602060048201526017602482015276416d6f756e74206d75737420626520706f73697469766560481b6044820152606401610a65565b5f7f00000000000000000000000000000000000000000000000000000000000000006040516370a0823160e01b81523060048201529091505f906001600160a01b038316906370a0823190602401602060405180830381865afa158015612810573d5f803e3d5ffd5b505050506040513d601f19601f820116820180604052508101906128349190613d64565b9050828110156128865760405162461bcd60e51b815260206004820152601a60248201527f496e73756666696369656e74207661756c742062616c616e63650000000000006044820152606401610a65565b60405163095ea7b360e01b81526001600160a01b0385811660048301526024820185905283169063095ea7b3906044016020604051808303815f875af11580156128d2573d5f803e3d5ffd5b505050506040513d601f19601f820116820180604052508101906128f69190613fe7565b5060405163a5e3875160e01b8152600481018490526001600160a01b0385169063a5e38751906024015f604051808303815f87803b158015612936575f80fd5b505af1158015612948573d5f803e3d5ffd5b50506040516370a0823160e01b81523060048201525f92506001600160a01b03851691506370a0823190602401602060405180830381865afa158015612990573d5f803e3d5ffd5b505050506040513d601f19601f820116820180604052508101906129b49190613d64565b90505f6129c18284613e37565b90505f8111612a125760405162461bcd60e51b815260206004820152601b60248201527f537472617465677920646964206e6f742070756c6c2066756e647300000000006044820152606401610a65565b84811115612a6d5760405162461bcd60e51b815260206004820152602260248201527f53747261746567792070756c6c6564206d6f7265207468616e20617070726f76604482015261195960f21b6064820152608401610a65565b6001600160a01b0386165f9081526009602052604081206003018054839290612a97908490613da3565b9091555050604051636eb1769f60e11b81523060048201526001600160a01b0387811660248301525f919086169063dd62ed3e90604401602060405180830381865afa158015612ae9573d5f803e3d5ffd5b505050506040513d601f19601f82011682018060405250810190612b0d9190613d64565b1115612b845760405163095ea7b360e01b81526001600160a01b0387811660048301525f602483015285169063095ea7b3906044016020604051808303815f875af1158015612b5e573d5f803e3d5ffd5b505050506040513d601f19601f82011682018060405250810190612b829190613fe7565b505b856001600160a01b03167f118140c5f65d2d1239952f9fed523588c6b439a75344ee43cf01f74fbee5e41f82604051611e4191815260200190565b5f610ca2612bcb6107cc565b612bd6906001613da3565b612be15f600a6140e6565b600254612bee9190613da3565b85919085612e87565b612c048383836001612ec9565b505050565b5f610ca2612c1882600a6140e6565b600254612c259190613da3565b612c2d6107cc565b612bee906001613da3565b6005546001600160a01b031633146117425760405163118cdaa760e01b8152336004820152602401610a65565b6001600160a01b038381165f908152600160209081526040808320938616835292905220545f19811015612cc85781811015612cba57828183604051637dc7a0d960e11b8152600401610a65939291906140f4565b612cc884848484035f612ec9565b50505050565b6001600160a01b038316612cf757604051634b637e8f60e11b81525f6004820152602401610a65565b6001600160a01b038216612d205760405163ec442f0560e01b81525f6004820152602401610a65565b612c04838383612f9b565b600260065403612d4e57604051633ee5aeb560e01b815260040160405180910390fd5b6002600655565b5f5f195f612d6285611ece565b9050612d70338587846130ae565b949350505050565b600580546001600160a01b038381166001600160a01b0319831681179093556040519116919082907f8be0079c531659141344cd1fd0a4f28419497f9722a3daafe3b4186f6b6457e0905f90a35050565b5f5f195f612dd6856119fd565b9050612d70338583886130ae565b5f80612def8361226d565b905080851115612e1857828582604051633fa733bb60e21b8152600401610a65939291906140f4565b5f612e2286610a1b565b9050612e313386868985613132565b95945050505050565b5f80612e458361245d565b905080851115612e6e57828582604051632e52afbb60e21b8152600401610a65939291906140f4565b5f612e78866109f3565b9050612e31338686848a613132565b5f612eb4612e94836132d8565b8015612eaf57505f8480612eaa57612eaa613eb7565b868809115b151590565b612ebf868686613304565b612e319190613da3565b6001600160a01b038416612ef25760405163e602df0560e01b81525f6004820152602401610a65565b6001600160a01b038316612f1b57604051634a1406b160e11b81525f6004820152602401610a65565b6001600160a01b038085165f9081526001602090815260408083209387168352929052208290558015612cc857826001600160a01b0316846001600160a01b03167f8c5be1e5ebec7d5bd14f71427d1e84f3dd0314c0f7b2291e5b200ac8c7c3b92584604051612f8d91815260200190565b60405180910390a350505050565b6001600160a01b038316612fc5578060025f828254612fba9190613da3565b909155506130229050565b6001600160a01b0383165f90815260208190526040902054818110156130045783818360405163391434e360e21b8152600401610a65939291906140f4565b6001600160a01b0384165f9081526020819052604090209082900390555b6001600160a01b03821661303e5760028054829003905561305c565b6001600160a01b0382165f9081526020819052604090208054820190555b816001600160a01b0316836001600160a01b03167fddf252ad1be2c89b69c2b068fc378daa952ba7f163c4a11628f55a4df523b3ef836040516130a191815260200190565b60405180910390a3505050565b6130da7f00000000000000000000000000000000000000000000000000000000000000008530856133b4565b6130e4838261341b565b826001600160a01b0316846001600160a01b03167fdcbc1c05240f31ff3ad067ef1ee35ce4997762752e3a095284754544f4c709d78484604051612f8d929190918252602082015260400190565b5f7f00000000000000000000000000000000000000000000000000000000000000006040516370a0823160e01b81523060048201529091505f906001600160a01b038316906370a0823190602401602060405180830381865afa15801561319b573d5f803e3d5ffd5b505050506040513d601f19601f820116820180604052508101906131bf9190613d64565b90508381106131dc576131d5878787878761344f565b50506132d1565b5f6131e78286613e37565b90506131f28161350f565b506040516370a0823160e01b815230600482015285906001600160a01b038516906370a0823190602401602060405180830381865afa158015613237573d5f803e3d5ffd5b505050506040513d601f19601f8201168201806040525081019061325b9190613d64565b10156132c05760405162461bcd60e51b815260206004820152602e60248201527f496e73756666696369656e74206c697175696469747920696e207661756c742060448201526d616e64207374726174656769657360901b6064820152608401610a65565b6132cd888888888861344f565b5050505b5050505050565b5f60028260038111156132ed576132ed613b53565b6132f79190614115565b60ff166001149050919050565b5f805f613311868661395c565b91509150815f036133355783818161332b5761332b613eb7565b0492505050610ca2565b81841161334c5761334c6003851502601118613978565b5f848688095f868103871696879004966002600389028118808a02820302808a02820302808a02820302808a02820302808a02820302808a02909103029181900381900460010185841190960395909502919093039390930492909217029150509392505050565b6040516001600160a01b038481166024830152838116604483015260648201839052612cc89186918216906323b872dd906084015b604051602081830303815290604052915060e01b6020820180516001600160e01b038381831617835250505050613989565b6001600160a01b0382166134445760405163ec442f0560e01b81525f6004820152602401610a65565b611e575f8383612f9b565b826001600160a01b0316856001600160a01b03161461347357613473838683612c65565b61347d83826139f5565b6134a87f00000000000000000000000000000000000000000000000000000000000000008584613a29565b826001600160a01b0316846001600160a01b0316866001600160a01b03167ffbde797d201c681b91056529119e0b02407c7bb96a4a2c75c01fc9667232c8db8585604051613500929190918252602082015260400190565b60405180910390a45050505050565b600a545f908190819067ffffffffffffffff81111561353057613530613e8c565b604051908082528060200260200182016040528015613559578160200160208202803683370190505b5090505f805b600a54811015613654575f600a828154811061357d5761357d613d7b565b5f9182526020808320909101546001600160a01b0316808352600990915260409091209091506001600282015460ff1660038111156135be576135be613b53565b14806135e1575060028082015460ff1660038111156135df576135df613b53565b145b80156135f057505f8160030154115b1561363f5760038101546136049087613da3565b95508185858151811061361957613619613d7b565b6001600160a01b03909216602092830291909101909101528361363b81613db6565b9450505b5050808061364c90613db6565b91505061355f565b50821580613660575080155b1561366f57505f949350505050565b5f857f0000000000000000000000000000000000000000000000000000000000000000825b8481101561394f575f8682815181106136af576136af613d7b565b6020908102919091018101516001600160a01b0381165f908152600990925260408220909250906136e1600189613e37565b84036136ee57508461370c565b898c83600301546136ff9190613ea0565b6137099190613ecb565b90505b816003015481111561371f575060038101545b80158061372a575085155b156137375750505061393d565b6040516370a0823160e01b81523060048201525f906001600160a01b038716906370a0823190602401602060405180830381865afa15801561377b573d5f803e3d5ffd5b505050506040513d601f19601f8201168201806040525081019061379f9190613d64565b604051627b8a6760e11b8152600481018490523060248201529091506001600160a01b0385169062f714ce906044016020604051808303815f875af1925050508015613808575060408051601f3d908101601f1916820190925261380591810190613d64565b60015b613815575050505061393d565b6040516370a0823160e01b81523060048201525f906001600160a01b038916906370a0823190602401602060405180830381865afa158015613859573d5f803e3d5ffd5b505050506040513d601f19601f8201168201806040525081019061387d9190613d64565b905082811115613936575f6138928483613e37565b9050808660030154106138bd5780866003015f8282546138b29190613e37565b909155506138c49050565b5f60038701555b6138ce818c613da3565b9a505f8a82106138de578a6138e0565b815b90506138ec818c613e37565b6040805188815260208101879052919c506001600160a01b038a16917f490dfb4ce52333704763aee75edba596ceaab548bccafc900f79c2b9f6381b08910160405180910390a250505b5050505050505b8061394781613db6565b915050613694565b5091979650505050505050565b5f805f1983850993909202808410938190039390930393915050565b634e487b715f52806020526024601cfd5b5f8060205f8451602086015f885af1806139a8576040513d5f823e3d81fd5b50505f513d915081156139bf5780600114156139cc565b6001600160a01b0384163b155b15612cc857604051635274afe760e01b81526001600160a01b0385166004820152602401610a65565b6001600160a01b038216613a1e57604051634b637e8f60e11b81525f6004820152602401610a65565b611e57825f83612f9b565b6040516001600160a01b03838116602483015260448201839052612c0491859182169063a9059cbb906064016133e9565b5f6020808352835180828501525f5b81811015613a8557858101830151858201604001528201613a69565b505f604082860101526040601f19601f8301168501019250505092915050565b5f60208284031215613ab5575f80fd5b5035919050565b6001600160a01b038116811461268c575f80fd5b5f8060408385031215613ae1575f80fd5b8235613aec81613abc565b946020939093013593505050565b5f60208284031215613b0a575f80fd5b8135610ca281613abc565b5f805f60608486031215613b27575f80fd5b8335613b3281613abc565b92506020840135613b4281613abc565b929592945050506040919091013590565b634e487b7160e01b5f52602160045260245ffd5b60048110613b8357634e487b7160e01b5f52602160045260245ffd5b9052565b6001600160a01b03861681526020810185905260a08101613bab6040830186613b67565b6060820193909352608001529392505050565b5f8151808452602080850194508084015f5b83811015613bf55781516001600160a01b031687529582019590820190600101613bd0565b509495945050505050565b5f8151808452602080850194508084015f5b83811015613bf557815187529582019590820190600101613c12565b606081525f613c406060830186613bbe565b8281036020840152613c528186613c00565b90508281036040840152613c668185613c00565b9695505050505050565b81516001600160a01b031681526020808301519082015260408083015160a0830191613c9e90840182613b67565b50606083015160608301526080830151608083015292915050565b602081525f610ca26020830184613bbe565b5f8060408385031215613cdc575f80fd5b823591506020830135613cee81613abc565b809150509250929050565b5f805f60608486031215613d0b575f80fd5b833592506020840135613d1d81613abc565b91506040840135613d2d81613abc565b809150509250925092565b5f8060408385031215613d49575f80fd5b8235613d5481613abc565b91506020830135613cee81613abc565b5f60208284031215613d74575f80fd5b5051919050565b634e487b7160e01b5f52603260045260245ffd5b634e487b7160e01b5f52601160045260245ffd5b808201808211156109fe576109fe613d8f565b5f60018201613dc757613dc7613d8f565b5060010190565b600181811c90821680613de257607f821691505b60208210810361095d57634e487b7160e01b5f52602260045260245ffd5b60208082526017908201527f537472617465677920646f6573206e6f74206578697374000000000000000000604082015260600190565b818103818111156109fe576109fe613d8f565b634e487b7160e01b5f52603160045260245ffd5b602081016109fe8284613b67565b5f60208284031215613e7c575f80fd5b815160ff81168114610ca2575f80fd5b634e487b7160e01b5f52604160045260245ffd5b80820281158282048414176109fe576109fe613d8f565b634e487b7160e01b5f52601260045260245ffd5b5f82613ed957613ed9613eb7565b500490565b60208082526019908201527f5461726765742063616e6e6f7420657863656564203130302500000000000000604082015260600190565b60208082526019908201527f546f74616c207461726765747320657863656564203130302500000000000000604082015260600190565b6020808252600e908201526d139bdd08185d5d1a1bdc9a5e995960921b604082015260600190565b5f60208284031215613f84575f80fd5b8151610ca281613abc565b6020808252601390820152725374726174656779206e6f742061637469766560681b604082015260600190565b5f805f60608486031215613fce575f80fd5b8351925060208401519150604084015190509250925092565b5f60208284031215613ff7575f80fd5b81518015158114610ca2575f80fd5b600181815b8085111561404057815f190482111561402657614026613d8f565b8085161561403357918102915b93841c939080029061400b565b509250929050565b5f82614056575060016109fe565b8161406257505f6109fe565b816001811461407857600281146140825761409e565b60019150506109fe565b60ff84111561409357614093613d8f565b50506001821b6109fe565b5060208310610133831016604e8410600b84101617156140c1575081810a6109fe565b6140cb8383614006565b805f19048211156140de576140de613d8f565b029392505050565b5f610ca260ff841683614048565b6001600160a01b039390931683526020830191909152604082015260600190565b5f60ff83168061412757614127613eb7565b8060ff8416069150509291505056fea2646970667358221220cefed62b1275bda01d94fb48a7113b648247cc8a2ebd1c39d5761e5244f6410f64736f6c63430008140033","opcodes":"PUSH1 0xC0 PUSH1 0x40 MSTORE PUSH2 0x2710 PUSH1 0x8 SSTORE PUSH2 0x3E8 PUSH1 0xC SSTORE CALLVALUE DUP1 ISZERO PUSH3 0x1C JUMPI PUSH0 DUP1 REVERT JUMPDEST POP PUSH1 0x40 MLOAD PUSH3 0x4753 CODESIZE SUB DUP1 PUSH3 0x4753 DUP4 CODECOPY DUP2 ADD PUSH1 0x40 DUP2 SWAP1 MSTORE PUSH3 0x3F SWAP2 PUSH3 0x36E JUMP JUMPDEST CALLER DUP4 DUP4 DUP4 PUSH1 0x3 PUSH3 0x51 DUP4 DUP3 PUSH3 0x47E JUMP JUMPDEST POP PUSH1 0x4 PUSH3 0x60 DUP3 DUP3 PUSH3 0x47E JUMP JUMPDEST POP POP POP PUSH0 DUP1 PUSH3 0x76 DUP4 PUSH3 0x178 PUSH1 0x20 SHL PUSH1 0x20 SHR JUMP JUMPDEST SWAP2 POP SWAP2 POP DUP2 PUSH3 0x88 JUMPI PUSH1 0x12 PUSH3 0x8A JUMP JUMPDEST DUP1 JUMPDEST PUSH1 0xFF AND PUSH1 0xA0 MSTORE POP POP PUSH1 0x1 PUSH1 0x1 PUSH1 0xA0 SHL SUB SWAP1 DUP2 AND PUSH1 0x80 MSTORE DUP2 AND PUSH3 0xC7 JUMPI PUSH1 0x40 MLOAD PUSH4 0x1E4FBDF7 PUSH1 0xE0 SHL DUP2 MSTORE PUSH0 PUSH1 0x4 DUP3 ADD MSTORE PUSH1 0x24 ADD JUMPDEST PUSH1 0x40 MLOAD DUP1 SWAP2 SUB SWAP1 REVERT JUMPDEST PUSH3 0xD2 DUP2 PUSH3 0x257 JUMP JUMPDEST POP PUSH1 0x1 PUSH1 0x6 SSTORE PUSH1 0x1 PUSH1 0x1 PUSH1 0xA0 SHL SUB DUP4 AND PUSH3 0x130 JUMPI PUSH1 0x40 MLOAD PUSH3 0x461BCD PUSH1 0xE5 SHL DUP2 MSTORE PUSH1 0x20 PUSH1 0x4 DUP3 ADD MSTORE PUSH1 0x1A PUSH1 0x24 DUP3 ADD MSTORE PUSH32 0x496E76616C6964204658525020746F6B656E2061646472657373000000000000 PUSH1 0x44 DUP3 ADD MSTORE PUSH1 0x64 ADD PUSH3 0xBE JUMP JUMPDEST CALLER PUSH0 DUP2 DUP2 MSTORE PUSH1 0x7 PUSH1 0x20 MSTORE PUSH1 0x40 DUP1 DUP3 KECCAK256 DUP1 SLOAD PUSH1 0xFF NOT AND PUSH1 0x1 OR SWAP1 SSTORE MLOAD PUSH32 0xAC6FA858E9350A46CEC16539926E0FDE25B7629F84B5A72BFFAAE4DF888AE86D SWAP2 SWAP1 LOG2 POP POP POP PUSH3 0x57B JUMP JUMPDEST PUSH1 0x40 DUP1 MLOAD PUSH1 0x4 DUP2 MSTORE PUSH1 0x24 DUP2 ADD DUP3 MSTORE PUSH1 0x20 DUP2 ADD DUP1 MLOAD PUSH1 0x1 PUSH1 0x1 PUSH1 0xE0 SHL SUB AND PUSH4 0x313CE567 PUSH1 0xE0 SHL OR SWAP1 MSTORE SWAP1 MLOAD PUSH0 SWAP2 DUP3 SWAP2 DUP3 SWAP2 DUP3 SWAP2 PUSH1 0x1 PUSH1 0x1 PUSH1 0xA0 SHL SUB DUP8 AND SWAP2 PUSH3 0x1C0 SWAP2 PUSH3 0x546 JUMP JUMPDEST PUSH0 PUSH1 0x40 MLOAD DUP1 DUP4 SUB DUP2 DUP6 GAS STATICCALL SWAP2 POP POP RETURNDATASIZE DUP1 PUSH0 DUP2 EQ PUSH3 0x1FA JUMPI PUSH1 0x40 MLOAD SWAP2 POP PUSH1 0x1F NOT PUSH1 0x3F RETURNDATASIZE ADD AND DUP3 ADD PUSH1 0x40 MSTORE RETURNDATASIZE DUP3 MSTORE RETURNDATASIZE PUSH0 PUSH1 0x20 DUP5 ADD RETURNDATACOPY PUSH3 0x1FF JUMP JUMPDEST PUSH1 0x60 SWAP2 POP JUMPDEST POP SWAP2 POP SWAP2 POP DUP2 DUP1 ISZERO PUSH3 0x214 JUMPI POP PUSH1 0x20 DUP2 MLOAD LT ISZERO JUMPDEST ISZERO PUSH3 0x24B JUMPI PUSH0 DUP2 DUP1 PUSH1 0x20 ADD SWAP1 MLOAD DUP2 ADD SWAP1 PUSH3 0x231 SWAP2 SWAP1 PUSH3 0x563 JUMP JUMPDEST SWAP1 POP PUSH1 0xFF DUP2 GT PUSH3 0x249 JUMPI PUSH1 0x1 SWAP7 SWAP1 SWAP6 POP SWAP4 POP POP POP POP JUMP JUMPDEST POP JUMPDEST POP PUSH0 SWAP5 DUP6 SWAP5 POP SWAP3 POP POP POP JUMP JUMPDEST PUSH1 0x5 DUP1 SLOAD PUSH1 0x1 PUSH1 0x1 PUSH1 0xA0 SHL SUB DUP4 DUP2 AND PUSH1 0x1 PUSH1 0x1 PUSH1 0xA0 SHL SUB NOT DUP4 AND DUP2 OR SWAP1 SWAP4 SSTORE PUSH1 0x40 MLOAD SWAP2 AND SWAP2 SWAP1 DUP3 SWAP1 PUSH32 0x8BE0079C531659141344CD1FD0A4F28419497F9722A3DAAFE3B4186F6B6457E0 SWAP1 PUSH0 SWAP1 LOG3 POP POP JUMP JUMPDEST PUSH4 0x4E487B71 PUSH1 0xE0 SHL PUSH0 MSTORE PUSH1 0x41 PUSH1 0x4 MSTORE PUSH1 0x24 PUSH0 REVERT JUMPDEST PUSH0 JUMPDEST DUP4 DUP2 LT ISZERO PUSH3 0x2D8 JUMPI DUP2 DUP2 ADD MLOAD DUP4 DUP3 ADD MSTORE PUSH1 0x20 ADD PUSH3 0x2BE JUMP JUMPDEST POP POP PUSH0 SWAP2 ADD MSTORE JUMP JUMPDEST PUSH0 DUP3 PUSH1 0x1F DUP4 ADD SLT PUSH3 0x2F0 JUMPI PUSH0 DUP1 REVERT JUMPDEST DUP2 MLOAD PUSH1 0x1 PUSH1 0x1 PUSH1 0x40 SHL SUB DUP1 DUP3 GT ISZERO PUSH3 0x30D JUMPI PUSH3 0x30D PUSH3 0x2A8 JUMP JUMPDEST PUSH1 0x40 MLOAD PUSH1 0x1F DUP4 ADD PUSH1 0x1F NOT SWAP1 DUP2 AND PUSH1 0x3F ADD AND DUP2 ADD SWAP1 DUP3 DUP3 GT DUP2 DUP4 LT OR ISZERO PUSH3 0x338 JUMPI PUSH3 0x338 PUSH3 0x2A8 JUMP JUMPDEST DUP2 PUSH1 0x40 MSTORE DUP4 DUP2 MSTORE DUP7 PUSH1 0x20 DUP6 DUP9 ADD ADD GT ISZERO PUSH3 0x351 JUMPI PUSH0 DUP1 REVERT JUMPDEST PUSH3 0x364 DUP5 PUSH1 0x20 DUP4 ADD PUSH1 0x20 DUP10 ADD PUSH3 0x2BC JUMP JUMPDEST SWAP7 SWAP6 POP POP POP POP POP POP JUMP JUMPDEST PUSH0 DUP1 PUSH0 PUSH1 0x60 DUP5 DUP7 SUB SLT ISZERO PUSH3 0x381 JUMPI PUSH0 DUP1 REVERT JUMPDEST DUP4 MLOAD PUSH1 0x1 PUSH1 0x1 PUSH1 0xA0 SHL SUB DUP2 AND DUP2 EQ PUSH3 0x398 JUMPI PUSH0 DUP1 REVERT JUMPDEST PUSH1 0x20 DUP6 ADD MLOAD SWAP1 SWAP4 POP PUSH1 0x1 PUSH1 0x1 PUSH1 0x40 SHL SUB DUP1 DUP3 GT ISZERO PUSH3 0x3B5 JUMPI PUSH0 DUP1 REVERT JUMPDEST PUSH3 0x3C3 DUP8 DUP4 DUP9 ADD PUSH3 0x2E0 JUMP JUMPDEST SWAP4 POP PUSH1 0x40 DUP7 ADD MLOAD SWAP2 POP DUP1 DUP3 GT ISZERO PUSH3 0x3D9 JUMPI PUSH0 DUP1 REVERT JUMPDEST POP PUSH3 0x3E8 DUP7 DUP3 DUP8 ADD PUSH3 0x2E0 JUMP JUMPDEST SWAP2 POP POP SWAP3 POP SWAP3 POP SWAP3 JUMP JUMPDEST PUSH1 0x1 DUP2 DUP2 SHR SWAP1 DUP3 AND DUP1 PUSH3 0x407 JUMPI PUSH1 0x7F DUP3 AND SWAP2 POP JUMPDEST PUSH1 0x20 DUP3 LT DUP2 SUB PUSH3 0x426 JUMPI PUSH4 0x4E487B71 PUSH1 0xE0 SHL PUSH0 MSTORE PUSH1 0x22 PUSH1 0x4 MSTORE PUSH1 0x24 PUSH0 REVERT JUMPDEST POP SWAP2 SWAP1 POP JUMP JUMPDEST PUSH1 0x1F DUP3 GT ISZERO PUSH3 0x479 JUMPI PUSH0 DUP2 DUP2 MSTORE PUSH1 0x20 DUP2 KECCAK256 PUSH1 0x1F DUP6 ADD PUSH1 0x5 SHR DUP2 ADD PUSH1 0x20 DUP7 LT ISZERO PUSH3 0x454 JUMPI POP DUP1 JUMPDEST PUSH1 0x1F DUP6 ADD PUSH1 0x5 SHR DUP3 ADD SWAP2 POP JUMPDEST DUP2 DUP2 LT ISZERO PUSH3 0x475 JUMPI DUP3 DUP2 SSTORE PUSH1 0x1 ADD PUSH3 0x460 JUMP JUMPDEST POP POP POP JUMPDEST POP POP POP JUMP JUMPDEST DUP2 MLOAD PUSH1 0x1 PUSH1 0x1 PUSH1 0x40 SHL SUB DUP2 GT ISZERO PUSH3 0x49A JUMPI PUSH3 0x49A PUSH3 0x2A8 JUMP JUMPDEST PUSH3 0x4B2 DUP2 PUSH3 0x4AB DUP5 SLOAD PUSH3 0x3F2 JUMP JUMPDEST DUP5 PUSH3 0x42C JUMP JUMPDEST PUSH1 0x20 DUP1 PUSH1 0x1F DUP4 GT PUSH1 0x1 DUP2 EQ PUSH3 0x4E8 JUMPI PUSH0 DUP5 ISZERO PUSH3 0x4D0 JUMPI POP DUP6 DUP4 ADD MLOAD JUMPDEST PUSH0 NOT PUSH1 0x3 DUP7 SWAP1 SHL SHR NOT AND PUSH1 0x1 DUP6 SWAP1 SHL OR DUP6 SSTORE PUSH3 0x475 JUMP JUMPDEST PUSH0 DUP6 DUP2 MSTORE PUSH1 0x20 DUP2 KECCAK256 PUSH1 0x1F NOT DUP7 AND SWAP2 JUMPDEST DUP3 DUP2 LT ISZERO PUSH3 0x518 JUMPI DUP9 DUP7 ADD MLOAD DUP3 SSTORE SWAP5 DUP5 ADD SWAP5 PUSH1 0x1 SWAP1 SWAP2 ADD SWAP1 DUP5 ADD PUSH3 0x4F7 JUMP JUMPDEST POP DUP6 DUP3 LT ISZERO PUSH3 0x536 JUMPI DUP8 DUP6 ADD MLOAD PUSH0 NOT PUSH1 0x3 DUP9 SWAP1 SHL PUSH1 0xF8 AND SHR NOT AND DUP2 SSTORE JUMPDEST POP POP POP POP POP PUSH1 0x1 SWAP1 DUP2 SHL ADD SWAP1 SSTORE POP JUMP JUMPDEST PUSH0 DUP3 MLOAD PUSH3 0x559 DUP2 DUP5 PUSH1 0x20 DUP8 ADD PUSH3 0x2BC JUMP JUMPDEST SWAP2 SWAP1 SWAP2 ADD SWAP3 SWAP2 POP POP JUMP JUMPDEST PUSH0 PUSH1 0x20 DUP3 DUP5 SUB SLT ISZERO PUSH3 0x574 JUMPI PUSH0 DUP1 REVERT JUMPDEST POP MLOAD SWAP2 SWAP1 POP JUMP JUMPDEST PUSH1 0x80 MLOAD PUSH1 0xA0 MLOAD PUSH2 0x416C PUSH3 0x5E7 PUSH0 CODECOPY PUSH0 POP POP PUSH0 DUP2 DUP2 PUSH2 0x44B ADD MSTORE DUP2 DUP2 PUSH2 0x7D0 ADD MSTORE DUP2 DUP2 PUSH2 0xDC0 ADD MSTORE DUP2 DUP2 PUSH2 0x1B60 ADD MSTORE DUP2 DUP2 PUSH2 0x1C5D ADD MSTORE DUP2 DUP2 PUSH2 0x20A8 ADD MSTORE DUP2 DUP2 PUSH2 0x25CB ADD MSTORE DUP2 DUP2 PUSH2 0x27AA ADD MSTORE DUP2 DUP2 PUSH2 0x30B3 ADD MSTORE DUP2 DUP2 PUSH2 0x3135 ADD MSTORE DUP2 DUP2 PUSH2 0x3482 ADD MSTORE PUSH2 0x3673 ADD MSTORE PUSH2 0x416C PUSH0 RETURN INVALID PUSH1 0x80 PUSH1 0x40 MSTORE CALLVALUE DUP1 ISZERO PUSH2 0xF JUMPI PUSH0 DUP1 REVERT JUMPDEST POP PUSH1 0x4 CALLDATASIZE LT PUSH2 0x34D JUMPI PUSH0 CALLDATALOAD PUSH1 0xE0 SHR DUP1 PUSH4 0x8FCC9CFB GT PUSH2 0x1C9 JUMPI DUP1 PUSH4 0xC3B28864 GT PUSH2 0xFE JUMPI DUP1 PUSH4 0xD905777E GT PUSH2 0x9E JUMPI DUP1 PUSH4 0xDD62ED3E GT PUSH2 0x79 JUMPI DUP1 PUSH4 0xDD62ED3E EQ PUSH2 0x76E JUMPI DUP1 PUSH4 0xEF8B30F7 EQ PUSH2 0x6E1 JUMPI DUP1 PUSH4 0xF2FDE38B EQ PUSH2 0x7A6 JUMPI DUP1 PUSH4 0xF6C00DB9 EQ PUSH2 0x7B9 JUMPI PUSH0 DUP1 REVERT JUMPDEST DUP1 PUSH4 0xD905777E EQ PUSH2 0x740 JUMPI DUP1 PUSH4 0xD9ABA111 EQ PUSH2 0x753 JUMPI DUP1 PUSH4 0xDC24FC07 EQ PUSH2 0x766 JUMPI PUSH0 DUP1 REVERT JUMPDEST DUP1 PUSH4 0xC9411E22 GT PUSH2 0xD9 JUMPI DUP1 PUSH4 0xC9411E22 EQ PUSH2 0x6F4 JUMPI DUP1 PUSH4 0xCE96CB77 EQ PUSH2 0x707 JUMPI DUP1 PUSH4 0xD3F6B598 EQ PUSH2 0x71A JUMPI DUP1 PUSH4 0xD80EA5A0 EQ PUSH2 0x72D JUMPI PUSH0 DUP1 REVERT JUMPDEST DUP1 PUSH4 0xC3B28864 EQ PUSH2 0x6D9 JUMPI DUP1 PUSH4 0xC63D75B6 EQ PUSH2 0x4EF JUMPI DUP1 PUSH4 0xC6E6F592 EQ PUSH2 0x6E1 JUMPI PUSH0 DUP1 REVERT JUMPDEST DUP1 PUSH4 0xAC8A584A GT PUSH2 0x169 JUMPI DUP1 PUSH4 0xB3D7F6B9 GT PUSH2 0x144 JUMPI DUP1 PUSH4 0xB3D7F6B9 EQ PUSH2 0x68D JUMPI DUP1 PUSH4 0xB460AF94 EQ PUSH2 0x6A0 JUMPI DUP1 PUSH4 0xB53D0958 EQ PUSH2 0x6B3 JUMPI DUP1 PUSH4 0xBA087652 EQ PUSH2 0x6C6 JUMPI PUSH0 DUP1 REVERT JUMPDEST DUP1 PUSH4 0xAC8A584A EQ PUSH2 0x669 JUMPI DUP1 PUSH4 0xACD17D5D EQ PUSH2 0x67C JUMPI DUP1 PUSH4 0xAF56B69F EQ PUSH2 0x684 JUMPI PUSH0 DUP1 REVERT JUMPDEST DUP1 PUSH4 0x9870D7FE GT PUSH2 0x1A4 JUMPI DUP1 PUSH4 0x9870D7FE EQ PUSH2 0x600 JUMPI DUP1 PUSH4 0xA267526B EQ PUSH2 0x613 JUMPI DUP1 PUSH4 0xA3603BCA EQ PUSH2 0x626 JUMPI DUP1 PUSH4 0xA9059CBB EQ PUSH2 0x656 JUMPI PUSH0 DUP1 REVERT JUMPDEST DUP1 PUSH4 0x8FCC9CFB EQ PUSH2 0x5D2 JUMPI DUP1 PUSH4 0x94BF804D EQ PUSH2 0x5E5 JUMPI DUP1 PUSH4 0x95D89B41 EQ PUSH2 0x5F8 JUMPI PUSH0 DUP1 REVERT JUMPDEST DUP1 PUSH4 0x39EBF823 GT PUSH2 0x29F JUMPI DUP1 PUSH4 0x54192AD5 GT PUSH2 0x23F JUMPI DUP1 PUSH4 0x70851703 GT PUSH2 0x21A JUMPI DUP1 PUSH4 0x70851703 EQ PUSH2 0x57E JUMPI DUP1 PUSH4 0x70A08231 EQ PUSH2 0x591 JUMPI DUP1 PUSH4 0x715018A6 EQ PUSH2 0x5B9 JUMPI DUP1 PUSH4 0x8DA5CB5B EQ PUSH2 0x5C1 JUMPI PUSH0 DUP1 REVERT JUMPDEST DUP1 PUSH4 0x54192AD5 EQ PUSH2 0x536 JUMPI DUP1 PUSH4 0x587436E4 EQ PUSH2 0x556 JUMPI DUP1 PUSH4 0x6E553F65 EQ PUSH2 0x56B JUMPI PUSH0 DUP1 REVERT JUMPDEST DUP1 PUSH4 0x41826C2D GT PUSH2 0x27A JUMPI DUP1 PUSH4 0x41826C2D EQ PUSH2 0x503 JUMPI DUP1 PUSH4 0x41B3D185 EQ PUSH2 0x51A JUMPI DUP1 PUSH4 0x4CDAD506 EQ PUSH2 0x381 JUMPI DUP1 PUSH4 0x4E423181 EQ PUSH2 0x523 JUMPI PUSH0 DUP1 REVERT JUMPDEST DUP1 PUSH4 0x39EBF823 EQ PUSH2 0x48B JUMPI DUP1 PUSH4 0x3EDE66F7 EQ PUSH2 0x4E6 JUMPI DUP1 PUSH4 0x402D267D EQ PUSH2 0x4EF JUMPI PUSH0 DUP1 REVERT JUMPDEST DUP1 PUSH4 0x175188E8 GT PUSH2 0x30A JUMPI DUP1 PUSH4 0x2A058CAC GT PUSH2 0x2E5 JUMPI DUP1 PUSH4 0x2A058CAC EQ PUSH2 0x41C JUMPI DUP1 PUSH4 0x313CE567 EQ PUSH2 0x42F JUMPI DUP1 PUSH4 0x38D52E0F EQ PUSH2 0x449 JUMPI DUP1 PUSH4 0x38F0EDE9 EQ PUSH2 0x483 JUMPI PUSH0 DUP1 REVERT JUMPDEST DUP1 PUSH4 0x175188E8 EQ PUSH2 0x3EC JUMPI DUP1 PUSH4 0x18160DDD EQ PUSH2 0x401 JUMPI DUP1 PUSH4 0x23B872DD EQ PUSH2 0x409 JUMPI PUSH0 DUP1 REVERT JUMPDEST DUP1 PUSH4 0x1E1D114 EQ PUSH2 0x351 JUMPI DUP1 PUSH4 0x6FDDE03 EQ PUSH2 0x36C JUMPI DUP1 PUSH4 0x7A2D13A EQ PUSH2 0x381 JUMPI DUP1 PUSH4 0x95EA7B3 EQ PUSH2 0x394 JUMPI DUP1 PUSH4 0xA28A477 EQ PUSH2 0x3B7 JUMPI DUP1 PUSH4 0x13E7C9D8 EQ PUSH2 0x3CA JUMPI JUMPDEST PUSH0 DUP1 REVERT JUMPDEST PUSH2 0x359 PUSH2 0x7CC JUMP JUMPDEST PUSH1 0x40 MLOAD SWAP1 DUP2 MSTORE PUSH1 0x20 ADD JUMPDEST PUSH1 0x40 MLOAD DUP1 SWAP2 SUB SWAP1 RETURN JUMPDEST PUSH2 0x374 PUSH2 0x963 JUMP JUMPDEST PUSH1 0x40 MLOAD PUSH2 0x363 SWAP2 SWAP1 PUSH2 0x3A5A JUMP JUMPDEST PUSH2 0x359 PUSH2 0x38F CALLDATASIZE PUSH1 0x4 PUSH2 0x3AA5 JUMP JUMPDEST PUSH2 0x9F3 JUMP JUMPDEST PUSH2 0x3A7 PUSH2 0x3A2 CALLDATASIZE PUSH1 0x4 PUSH2 0x3AD0 JUMP JUMPDEST PUSH2 0xA04 JUMP JUMPDEST PUSH1 0x40 MLOAD SWAP1 ISZERO ISZERO DUP2 MSTORE PUSH1 0x20 ADD PUSH2 0x363 JUMP JUMPDEST PUSH2 0x359 PUSH2 0x3C5 CALLDATASIZE PUSH1 0x4 PUSH2 0x3AA5 JUMP JUMPDEST PUSH2 0xA1B JUMP JUMPDEST PUSH2 0x3A7 PUSH2 0x3D8 CALLDATASIZE PUSH1 0x4 PUSH2 0x3AFA JUMP JUMPDEST PUSH1 0x7 PUSH1 0x20 MSTORE PUSH0 SWAP1 DUP2 MSTORE PUSH1 0x40 SWAP1 KECCAK256 SLOAD PUSH1 0xFF AND DUP2 JUMP JUMPDEST PUSH2 0x3FF PUSH2 0x3FA CALLDATASIZE PUSH1 0x4 PUSH2 0x3AFA JUMP JUMPDEST PUSH2 0xA27 JUMP JUMPDEST STOP JUMPDEST PUSH1 0x2 SLOAD PUSH2 0x359 JUMP JUMPDEST PUSH2 0x3A7 PUSH2 0x417 CALLDATASIZE PUSH1 0x4 PUSH2 0x3B15 JUMP JUMPDEST PUSH2 0xC84 JUMP JUMPDEST PUSH2 0x3FF PUSH2 0x42A CALLDATASIZE PUSH1 0x4 PUSH2 0x3AFA JUMP JUMPDEST PUSH2 0xCA9 JUMP JUMPDEST PUSH2 0x437 PUSH2 0xDBD JUMP JUMPDEST PUSH1 0x40 MLOAD PUSH1 0xFF SWAP1 SWAP2 AND DUP2 MSTORE PUSH1 0x20 ADD PUSH2 0x363 JUMP JUMPDEST PUSH32 0x0 JUMPDEST PUSH1 0x40 MLOAD PUSH1 0x1 PUSH1 0x1 PUSH1 0xA0 SHL SUB SWAP1 SWAP2 AND DUP2 MSTORE PUSH1 0x20 ADD PUSH2 0x363 JUMP JUMPDEST PUSH2 0x359 PUSH2 0xE43 JUMP JUMPDEST PUSH2 0x4D5 PUSH2 0x499 CALLDATASIZE PUSH1 0x4 PUSH2 0x3AFA JUMP JUMPDEST PUSH1 0x9 PUSH1 0x20 MSTORE PUSH0 SWAP1 DUP2 MSTORE PUSH1 0x40 SWAP1 KECCAK256 DUP1 SLOAD PUSH1 0x1 DUP3 ADD SLOAD PUSH1 0x2 DUP4 ADD SLOAD PUSH1 0x3 DUP5 ADD SLOAD PUSH1 0x4 SWAP1 SWAP5 ADD SLOAD PUSH1 0x1 PUSH1 0x1 PUSH1 0xA0 SHL SUB SWAP1 SWAP4 AND SWAP4 SWAP2 SWAP3 PUSH1 0xFF SWAP1 SWAP2 AND SWAP2 SWAP1 DUP6 JUMP JUMPDEST PUSH1 0x40 MLOAD PUSH2 0x363 SWAP6 SWAP5 SWAP4 SWAP3 SWAP2 SWAP1 PUSH2 0x3B87 JUMP JUMPDEST PUSH2 0x359 PUSH1 0xB SLOAD DUP2 JUMP JUMPDEST PUSH2 0x359 PUSH2 0x4FD CALLDATASIZE PUSH1 0x4 PUSH2 0x3AFA JUMP JUMPDEST POP PUSH0 NOT SWAP1 JUMP JUMPDEST PUSH2 0x50B PUSH2 0xEAC JUMP JUMPDEST PUSH1 0x40 MLOAD PUSH2 0x363 SWAP4 SWAP3 SWAP2 SWAP1 PUSH2 0x3C2E JUMP JUMPDEST PUSH2 0x359 PUSH1 0x8 SLOAD DUP2 JUMP JUMPDEST PUSH2 0x3FF PUSH2 0x531 CALLDATASIZE PUSH1 0x4 PUSH2 0x3AA5 JUMP JUMPDEST PUSH2 0x1250 JUMP JUMPDEST PUSH2 0x549 PUSH2 0x544 CALLDATASIZE PUSH1 0x4 PUSH2 0x3AFA JUMP JUMPDEST PUSH2 0x12E9 JUMP JUMPDEST PUSH1 0x40 MLOAD PUSH2 0x363 SWAP2 SWAP1 PUSH2 0x3C70 JUMP JUMPDEST PUSH2 0x55E PUSH2 0x13D2 JUMP JUMPDEST PUSH1 0x40 MLOAD PUSH2 0x363 SWAP2 SWAP1 PUSH2 0x3CB9 JUMP JUMPDEST PUSH2 0x359 PUSH2 0x579 CALLDATASIZE PUSH1 0x4 PUSH2 0x3CCB JUMP JUMPDEST PUSH2 0x1586 JUMP JUMPDEST PUSH2 0x3FF PUSH2 0x58C CALLDATASIZE PUSH1 0x4 PUSH2 0x3AD0 JUMP JUMPDEST PUSH2 0x15EF JUMP JUMPDEST PUSH2 0x359 PUSH2 0x59F CALLDATASIZE PUSH1 0x4 PUSH2 0x3AFA JUMP JUMPDEST PUSH1 0x1 PUSH1 0x1 PUSH1 0xA0 SHL SUB AND PUSH0 SWAP1 DUP2 MSTORE PUSH1 0x20 DUP2 SWAP1 MSTORE PUSH1 0x40 SWAP1 KECCAK256 SLOAD SWAP1 JUMP JUMPDEST PUSH2 0x3FF PUSH2 0x1731 JUMP JUMPDEST PUSH1 0x5 SLOAD PUSH1 0x1 PUSH1 0x1 PUSH1 0xA0 SHL SUB AND PUSH2 0x46B JUMP JUMPDEST PUSH2 0x3FF PUSH2 0x5E0 CALLDATASIZE PUSH1 0x4 PUSH2 0x3AA5 JUMP JUMPDEST PUSH2 0x1744 JUMP JUMPDEST PUSH2 0x359 PUSH2 0x5F3 CALLDATASIZE PUSH1 0x4 PUSH2 0x3CCB JUMP JUMPDEST PUSH2 0x17D6 JUMP JUMPDEST PUSH2 0x374 PUSH2 0x184C JUMP JUMPDEST PUSH2 0x3FF PUSH2 0x60E CALLDATASIZE PUSH1 0x4 PUSH2 0x3AFA JUMP JUMPDEST PUSH2 0x185B JUMP JUMPDEST PUSH2 0x46B PUSH2 0x621 CALLDATASIZE PUSH1 0x4 PUSH2 0x3AA5 JUMP JUMPDEST PUSH2 0x1904 JUMP JUMPDEST PUSH2 0x62E PUSH2 0x192C JUMP JUMPDEST PUSH1 0x40 DUP1 MLOAD SWAP6 DUP7 MSTORE PUSH1 0x20 DUP7 ADD SWAP5 SWAP1 SWAP5 MSTORE SWAP3 DUP5 ADD SWAP2 SWAP1 SWAP2 MSTORE PUSH1 0x60 DUP4 ADD MSTORE PUSH1 0x80 DUP3 ADD MSTORE PUSH1 0xA0 ADD PUSH2 0x363 JUMP JUMPDEST PUSH2 0x3A7 PUSH2 0x664 CALLDATASIZE PUSH1 0x4 PUSH2 0x3AD0 JUMP JUMPDEST PUSH2 0x197D JUMP JUMPDEST PUSH2 0x3FF PUSH2 0x677 CALLDATASIZE PUSH1 0x4 PUSH2 0x3AFA JUMP JUMPDEST PUSH2 0x198A JUMP JUMPDEST PUSH2 0x359 PUSH2 0x19DA JUMP JUMPDEST PUSH2 0x359 PUSH1 0xC SLOAD DUP2 JUMP JUMPDEST PUSH2 0x359 PUSH2 0x69B CALLDATASIZE PUSH1 0x4 PUSH2 0x3AA5 JUMP JUMPDEST PUSH2 0x19FD JUMP JUMPDEST PUSH2 0x359 PUSH2 0x6AE CALLDATASIZE PUSH1 0x4 PUSH2 0x3CF9 JUMP JUMPDEST PUSH2 0x1A09 JUMP JUMPDEST PUSH2 0x3FF PUSH2 0x6C1 CALLDATASIZE PUSH1 0x4 PUSH2 0x3AD0 JUMP JUMPDEST PUSH2 0x1A29 JUMP JUMPDEST PUSH2 0x359 PUSH2 0x6D4 CALLDATASIZE PUSH1 0x4 PUSH2 0x3CF9 JUMP JUMPDEST PUSH2 0x1E5B JUMP JUMPDEST PUSH2 0x55E PUSH2 0x1E6F JUMP JUMPDEST PUSH2 0x359 PUSH2 0x6EF CALLDATASIZE PUSH1 0x4 PUSH2 0x3AA5 JUMP JUMPDEST PUSH2 0x1ECE JUMP JUMPDEST PUSH2 0x3FF PUSH2 0x702 CALLDATASIZE PUSH1 0x4 PUSH2 0x3AD0 JUMP JUMPDEST PUSH2 0x1ED9 JUMP JUMPDEST PUSH2 0x359 PUSH2 0x715 CALLDATASIZE PUSH1 0x4 PUSH2 0x3AFA JUMP JUMPDEST PUSH2 0x226D JUMP JUMPDEST PUSH2 0x3FF PUSH2 0x728 CALLDATASIZE PUSH1 0x4 PUSH2 0x3AFA JUMP JUMPDEST PUSH2 0x228F JUMP JUMPDEST PUSH2 0x3FF PUSH2 0x73B CALLDATASIZE PUSH1 0x4 PUSH2 0x3AFA JUMP JUMPDEST PUSH2 0x23AB JUMP JUMPDEST PUSH2 0x359 PUSH2 0x74E CALLDATASIZE PUSH1 0x4 PUSH2 0x3AFA JUMP JUMPDEST PUSH2 0x245D JUMP JUMPDEST PUSH2 0x3FF PUSH2 0x761 CALLDATASIZE PUSH1 0x4 PUSH2 0x3AFA JUMP JUMPDEST PUSH2 0x247A JUMP JUMPDEST PUSH2 0x359 PUSH2 0x25C8 JUMP JUMPDEST PUSH2 0x359 PUSH2 0x77C CALLDATASIZE PUSH1 0x4 PUSH2 0x3D38 JUMP JUMPDEST PUSH1 0x1 PUSH1 0x1 PUSH1 0xA0 SHL SUB SWAP2 DUP3 AND PUSH0 SWAP1 DUP2 MSTORE PUSH1 0x1 PUSH1 0x20 SWAP1 DUP2 MSTORE PUSH1 0x40 DUP1 DUP4 KECCAK256 SWAP4 SWAP1 SWAP5 AND DUP3 MSTORE SWAP2 SWAP1 SWAP2 MSTORE KECCAK256 SLOAD SWAP1 JUMP JUMPDEST PUSH2 0x3FF PUSH2 0x7B4 CALLDATASIZE PUSH1 0x4 PUSH2 0x3AFA JUMP JUMPDEST PUSH2 0x2652 JUMP JUMPDEST PUSH2 0x3FF PUSH2 0x7C7 CALLDATASIZE PUSH1 0x4 PUSH2 0x3AD0 JUMP JUMPDEST PUSH2 0x268F JUMP JUMPDEST PUSH0 DUP1 PUSH32 0x0 PUSH1 0x40 MLOAD PUSH4 0x70A08231 PUSH1 0xE0 SHL DUP2 MSTORE ADDRESS PUSH1 0x4 DUP3 ADD MSTORE PUSH1 0x1 PUSH1 0x1 PUSH1 0xA0 SHL SUB SWAP2 SWAP1 SWAP2 AND SWAP1 PUSH4 0x70A08231 SWAP1 PUSH1 0x24 ADD PUSH1 0x20 PUSH1 0x40 MLOAD DUP1 DUP4 SUB DUP2 DUP7 GAS STATICCALL ISZERO DUP1 ISZERO PUSH2 0x833 JUMPI RETURNDATASIZE PUSH0 DUP1 RETURNDATACOPY RETURNDATASIZE PUSH0 REVERT JUMPDEST POP POP POP POP PUSH1 0x40 MLOAD RETURNDATASIZE PUSH1 0x1F NOT PUSH1 0x1F DUP3 ADD AND DUP3 ADD DUP1 PUSH1 0x40 MSTORE POP DUP2 ADD SWAP1 PUSH2 0x857 SWAP2 SWAP1 PUSH2 0x3D64 JUMP JUMPDEST SWAP1 POP PUSH0 JUMPDEST PUSH1 0xA SLOAD DUP2 LT ISZERO PUSH2 0x95D JUMPI PUSH0 PUSH1 0xA DUP3 DUP2 SLOAD DUP2 LT PUSH2 0x879 JUMPI PUSH2 0x879 PUSH2 0x3D7B JUMP JUMPDEST PUSH0 SWAP2 DUP3 MSTORE PUSH1 0x20 DUP1 DUP4 KECCAK256 SWAP1 SWAP2 ADD SLOAD PUSH1 0x1 PUSH1 0x1 PUSH1 0xA0 SHL SUB AND DUP1 DUP4 MSTORE PUSH1 0x9 SWAP1 SWAP2 MSTORE PUSH1 0x40 SWAP1 SWAP2 KECCAK256 SWAP1 SWAP2 POP PUSH1 0x1 PUSH1 0x2 DUP3 ADD SLOAD PUSH1 0xFF AND PUSH1 0x3 DUP2 GT ISZERO PUSH2 0x8BA JUMPI PUSH2 0x8BA PUSH2 0x3B53 JUMP JUMPDEST EQ PUSH2 0x8C6 JUMPI POP POP PUSH2 0x94B JUMP JUMPDEST DUP2 PUSH1 0x1 PUSH1 0x1 PUSH1 0xA0 SHL SUB AND PUSH4 0x1E1D114 PUSH1 0x40 MLOAD DUP2 PUSH4 0xFFFFFFFF AND PUSH1 0xE0 SHL DUP2 MSTORE PUSH1 0x4 ADD PUSH1 0x20 PUSH1 0x40 MLOAD DUP1 DUP4 SUB DUP2 DUP7 GAS STATICCALL SWAP3 POP POP POP DUP1 ISZERO PUSH2 0x920 JUMPI POP PUSH1 0x40 DUP1 MLOAD PUSH1 0x1F RETURNDATASIZE SWAP1 DUP2 ADD PUSH1 0x1F NOT AND DUP3 ADD SWAP1 SWAP3 MSTORE PUSH2 0x91D SWAP2 DUP2 ADD SWAP1 PUSH2 0x3D64 JUMP JUMPDEST PUSH1 0x1 JUMPDEST PUSH2 0x93A JUMPI PUSH1 0x3 DUP2 ADD SLOAD PUSH2 0x933 SWAP1 DUP6 PUSH2 0x3DA3 JUMP JUMPDEST SWAP4 POP PUSH2 0x948 JUMP JUMPDEST PUSH2 0x944 DUP2 DUP7 PUSH2 0x3DA3 JUMP JUMPDEST SWAP5 POP POP JUMPDEST POP POP JUMPDEST DUP1 PUSH2 0x955 DUP2 PUSH2 0x3DB6 JUMP JUMPDEST SWAP2 POP POP PUSH2 0x85B JUMP JUMPDEST POP SWAP2 SWAP1 POP JUMP JUMPDEST PUSH1 0x60 PUSH1 0x3 DUP1 SLOAD PUSH2 0x972 SWAP1 PUSH2 0x3DCE JUMP JUMPDEST DUP1 PUSH1 0x1F ADD PUSH1 0x20 DUP1 SWAP2 DIV MUL PUSH1 0x20 ADD PUSH1 0x40 MLOAD SWAP1 DUP2 ADD PUSH1 0x40 MSTORE DUP1 SWAP3 SWAP2 SWAP1 DUP2 DUP2 MSTORE PUSH1 0x20 ADD DUP3 DUP1 SLOAD PUSH2 0x99E SWAP1 PUSH2 0x3DCE JUMP JUMPDEST DUP1 ISZERO PUSH2 0x9E9 JUMPI DUP1 PUSH1 0x1F LT PUSH2 0x9C0 JUMPI PUSH2 0x100 DUP1 DUP4 SLOAD DIV MUL DUP4 MSTORE SWAP2 PUSH1 0x20 ADD SWAP2 PUSH2 0x9E9 JUMP JUMPDEST DUP3 ADD SWAP2 SWAP1 PUSH0 MSTORE PUSH1 0x20 PUSH0 KECCAK256 SWAP1 JUMPDEST DUP2 SLOAD DUP2 MSTORE SWAP1 PUSH1 0x1 ADD SWAP1 PUSH1 0x20 ADD DUP1 DUP4 GT PUSH2 0x9CC JUMPI DUP3 SWAP1 SUB PUSH1 0x1F AND DUP3 ADD SWAP2 JUMPDEST POP POP POP POP POP SWAP1 POP SWAP1 JUMP JUMPDEST PUSH0 PUSH2 0x9FE DUP3 PUSH0 PUSH2 0x2BBF JUMP JUMPDEST SWAP3 SWAP2 POP POP JUMP JUMPDEST PUSH0 CALLER PUSH2 0xA11 DUP2 DUP6 DUP6 PUSH2 0x2BF7 JUMP JUMPDEST POP PUSH1 0x1 SWAP4 SWAP3 POP POP POP JUMP JUMPDEST PUSH0 PUSH2 0x9FE DUP3 PUSH1 0x1 PUSH2 0x2C09 JUMP JUMPDEST PUSH2 0xA2F PUSH2 0x2C38 JUMP JUMPDEST PUSH1 0x1 PUSH1 0x1 PUSH1 0xA0 SHL SUB DUP2 DUP2 AND PUSH0 SWAP1 DUP2 MSTORE PUSH1 0x9 PUSH1 0x20 MSTORE PUSH1 0x40 SWAP1 KECCAK256 SLOAD AND PUSH2 0xA6E JUMPI PUSH1 0x40 MLOAD PUSH3 0x461BCD PUSH1 0xE5 SHL DUP2 MSTORE PUSH1 0x4 ADD PUSH2 0xA65 SWAP1 PUSH2 0x3E00 JUMP JUMPDEST PUSH1 0x40 MLOAD DUP1 SWAP2 SUB SWAP1 REVERT JUMPDEST PUSH1 0x1 PUSH1 0x1 PUSH1 0xA0 SHL SUB DUP2 AND PUSH0 SWAP1 DUP2 MSTORE PUSH1 0x9 PUSH1 0x20 MSTORE PUSH1 0x40 SWAP1 KECCAK256 PUSH1 0x3 ADD SLOAD ISZERO PUSH2 0xAD6 JUMPI PUSH1 0x40 MLOAD PUSH3 0x461BCD PUSH1 0xE5 SHL DUP2 MSTORE PUSH1 0x20 PUSH1 0x4 DUP3 ADD MSTORE PUSH1 0x18 PUSH1 0x24 DUP3 ADD MSTORE PUSH32 0x5374726174656779207374696C6C206861732066756E64730000000000000000 PUSH1 0x44 DUP3 ADD MSTORE PUSH1 0x64 ADD PUSH2 0xA65 JUMP JUMPDEST PUSH1 0x1 PUSH1 0x1 PUSH1 0xA0 SHL SUB DUP2 AND PUSH0 SWAP1 DUP2 MSTORE PUSH1 0x9 PUSH1 0x20 MSTORE PUSH1 0x40 DUP2 KECCAK256 PUSH1 0x1 ADD SLOAD PUSH1 0xB DUP1 SLOAD SWAP2 SWAP3 SWAP1 SWAP2 PUSH2 0xB04 SWAP1 DUP5 SWAP1 PUSH2 0x3E37 JUMP JUMPDEST SWAP1 SWAP2 SSTORE POP POP PUSH1 0x1 PUSH1 0x1 PUSH1 0xA0 SHL SUB DUP2 AND PUSH0 SWAP1 DUP2 MSTORE PUSH1 0x9 PUSH1 0x20 MSTORE PUSH1 0x40 DUP2 KECCAK256 DUP1 SLOAD PUSH1 0x1 PUSH1 0x1 PUSH1 0xA0 SHL SUB NOT AND DUP2 SSTORE PUSH1 0x1 DUP2 ADD DUP3 SWAP1 SSTORE PUSH1 0x2 DUP2 ADD DUP1 SLOAD PUSH1 0xFF NOT AND SWAP1 SSTORE PUSH1 0x3 DUP2 ADD DUP3 SWAP1 SSTORE PUSH1 0x4 ADD DUP2 SWAP1 SSTORE JUMPDEST PUSH1 0xA SLOAD DUP2 LT ISZERO PUSH2 0xC4D JUMPI DUP2 PUSH1 0x1 PUSH1 0x1 PUSH1 0xA0 SHL SUB AND PUSH1 0xA DUP3 DUP2 SLOAD DUP2 LT PUSH2 0xB76 JUMPI PUSH2 0xB76 PUSH2 0x3D7B JUMP JUMPDEST PUSH0 SWAP2 DUP3 MSTORE PUSH1 0x20 SWAP1 SWAP2 KECCAK256 ADD SLOAD PUSH1 0x1 PUSH1 0x1 PUSH1 0xA0 SHL SUB AND SUB PUSH2 0xC3B JUMPI PUSH1 0xA DUP1 SLOAD PUSH2 0xB9F SWAP1 PUSH1 0x1 SWAP1 PUSH2 0x3E37 JUMP JUMPDEST DUP2 SLOAD DUP2 LT PUSH2 0xBAF JUMPI PUSH2 0xBAF PUSH2 0x3D7B JUMP JUMPDEST PUSH0 SWAP2 DUP3 MSTORE PUSH1 0x20 SWAP1 SWAP2 KECCAK256 ADD SLOAD PUSH1 0xA DUP1 SLOAD PUSH1 0x1 PUSH1 0x1 PUSH1 0xA0 SHL SUB SWAP1 SWAP3 AND SWAP2 DUP4 SWAP1 DUP2 LT PUSH2 0xBDA JUMPI PUSH2 0xBDA PUSH2 0x3D7B JUMP JUMPDEST SWAP1 PUSH0 MSTORE PUSH1 0x20 PUSH0 KECCAK256 ADD PUSH0 PUSH2 0x100 EXP DUP2 SLOAD DUP2 PUSH1 0x1 PUSH1 0x1 PUSH1 0xA0 SHL SUB MUL NOT AND SWAP1 DUP4 PUSH1 0x1 PUSH1 0x1 PUSH1 0xA0 SHL SUB AND MUL OR SWAP1 SSTORE POP PUSH1 0xA DUP1 SLOAD DUP1 PUSH2 0xC16 JUMPI PUSH2 0xC16 PUSH2 0x3E4A JUMP JUMPDEST PUSH0 DUP3 DUP2 MSTORE PUSH1 0x20 SWAP1 KECCAK256 DUP2 ADD PUSH0 NOT SWAP1 DUP2 ADD DUP1 SLOAD PUSH1 0x1 PUSH1 0x1 PUSH1 0xA0 SHL SUB NOT AND SWAP1 SSTORE ADD SWAP1 SSTORE PUSH2 0xC4D JUMP JUMPDEST DUP1 PUSH2 0xC45 DUP2 PUSH2 0x3DB6 JUMP JUMPDEST SWAP2 POP POP PUSH2 0xB4F JUMP JUMPDEST POP PUSH1 0x40 MLOAD PUSH1 0x1 PUSH1 0x1 PUSH1 0xA0 SHL SUB DUP3 AND SWAP1 PUSH32 0x9A1DB4B80C32706328728508C941A6B954F31EB5AFFD32F236C1FD405F8FEA4 SWAP1 PUSH0 SWAP1 LOG2 POP JUMP JUMPDEST PUSH0 CALLER PUSH2 0xC91 DUP6 DUP3 DUP6 PUSH2 0x2C65 JUMP JUMPDEST PUSH2 0xC9C DUP6 DUP6 DUP6 PUSH2 0x2CCE JUMP JUMPDEST PUSH1 0x1 SWAP2 POP POP JUMPDEST SWAP4 SWAP3 POP POP POP JUMP JUMPDEST PUSH2 0xCB1 PUSH2 0x2C38 JUMP JUMPDEST PUSH1 0x1 PUSH1 0x1 PUSH1 0xA0 SHL SUB DUP2 DUP2 AND PUSH0 SWAP1 DUP2 MSTORE PUSH1 0x9 PUSH1 0x20 MSTORE PUSH1 0x40 SWAP1 KECCAK256 SLOAD AND PUSH2 0xCE7 JUMPI PUSH1 0x40 MLOAD PUSH3 0x461BCD PUSH1 0xE5 SHL DUP2 MSTORE PUSH1 0x4 ADD PUSH2 0xA65 SWAP1 PUSH2 0x3E00 JUMP JUMPDEST PUSH1 0x2 PUSH1 0x1 PUSH1 0x1 PUSH1 0xA0 SHL SUB DUP3 AND PUSH0 SWAP1 DUP2 MSTORE PUSH1 0x9 PUSH1 0x20 MSTORE PUSH1 0x40 SWAP1 KECCAK256 PUSH1 0x2 ADD SLOAD PUSH1 0xFF AND PUSH1 0x3 DUP2 GT ISZERO PUSH2 0xD18 JUMPI PUSH2 0xD18 PUSH2 0x3B53 JUMP JUMPDEST EQ PUSH2 0xD5B JUMPI PUSH1 0x40 MLOAD PUSH3 0x461BCD PUSH1 0xE5 SHL DUP2 MSTORE PUSH1 0x20 PUSH1 0x4 DUP3 ADD MSTORE PUSH1 0x13 PUSH1 0x24 DUP3 ADD MSTORE PUSH19 0x14DD1C985D1959DE481B9BDD081C185D5CD959 PUSH1 0x6A SHL PUSH1 0x44 DUP3 ADD MSTORE PUSH1 0x64 ADD PUSH2 0xA65 JUMP JUMPDEST PUSH1 0x1 PUSH1 0x1 PUSH1 0xA0 SHL SUB DUP2 AND PUSH0 DUP2 DUP2 MSTORE PUSH1 0x9 PUSH1 0x20 MSTORE PUSH1 0x40 SWAP1 DUP2 SWAP1 KECCAK256 PUSH1 0x2 ADD DUP1 SLOAD PUSH1 0xFF NOT AND PUSH1 0x1 SWAP1 DUP2 OR SWAP1 SWAP2 SSTORE SWAP1 MLOAD PUSH32 0x71E4D9FADF21BB369876CEBBD9192D4D84150C2FB6D208D5D68D6FBDF0AABF76 SWAP2 PUSH2 0xDB2 SWAP2 PUSH2 0x3E5E JUMP JUMPDEST PUSH1 0x40 MLOAD DUP1 SWAP2 SUB SWAP1 LOG2 POP JUMP JUMPDEST PUSH0 PUSH32 0x0 PUSH1 0x1 PUSH1 0x1 PUSH1 0xA0 SHL SUB AND PUSH4 0x313CE567 PUSH1 0x40 MLOAD DUP2 PUSH4 0xFFFFFFFF AND PUSH1 0xE0 SHL DUP2 MSTORE PUSH1 0x4 ADD PUSH1 0x20 PUSH1 0x40 MLOAD DUP1 DUP4 SUB DUP2 DUP7 GAS STATICCALL ISZERO DUP1 ISZERO PUSH2 0xE1A JUMPI RETURNDATASIZE PUSH0 DUP1 RETURNDATACOPY RETURNDATASIZE PUSH0 REVERT JUMPDEST POP POP POP POP PUSH1 0x40 MLOAD RETURNDATASIZE PUSH1 0x1F NOT PUSH1 0x1F DUP3 ADD AND DUP3 ADD DUP1 PUSH1 0x40 MSTORE POP DUP2 ADD SWAP1 PUSH2 0xE3E SWAP2 SWAP1 PUSH2 0x3E6C JUMP JUMPDEST SWAP1 POP SWAP1 JUMP JUMPDEST PUSH0 DUP1 DUP1 JUMPDEST PUSH1 0xA SLOAD DUP2 LT ISZERO PUSH2 0x95D JUMPI PUSH1 0x9 PUSH0 PUSH1 0xA DUP4 DUP2 SLOAD DUP2 LT PUSH2 0xE67 JUMPI PUSH2 0xE67 PUSH2 0x3D7B JUMP JUMPDEST PUSH0 SWAP2 DUP3 MSTORE PUSH1 0x20 DUP1 DUP4 KECCAK256 SWAP1 SWAP2 ADD SLOAD PUSH1 0x1 PUSH1 0x1 PUSH1 0xA0 SHL SUB AND DUP4 MSTORE DUP3 ADD SWAP3 SWAP1 SWAP3 MSTORE PUSH1 0x40 ADD SWAP1 KECCAK256 PUSH1 0x3 ADD SLOAD PUSH2 0xE98 SWAP1 DUP4 PUSH2 0x3DA3 JUMP JUMPDEST SWAP2 POP DUP1 PUSH2 0xEA4 DUP2 PUSH2 0x3DB6 JUMP JUMPDEST SWAP2 POP POP PUSH2 0xE47 JUMP JUMPDEST PUSH1 0x60 DUP1 PUSH1 0x60 PUSH0 PUSH2 0xEBA PUSH2 0x7CC JUMP JUMPDEST PUSH1 0xA SLOAD SWAP1 SWAP2 POP PUSH2 0xECB DUP2 PUSH1 0x1 PUSH2 0x3DA3 JUMP JUMPDEST PUSH8 0xFFFFFFFFFFFFFFFF DUP2 GT ISZERO PUSH2 0xEE3 JUMPI PUSH2 0xEE3 PUSH2 0x3E8C JUMP JUMPDEST PUSH1 0x40 MLOAD SWAP1 DUP1 DUP3 MSTORE DUP1 PUSH1 0x20 MUL PUSH1 0x20 ADD DUP3 ADD PUSH1 0x40 MSTORE DUP1 ISZERO PUSH2 0xF0C JUMPI DUP2 PUSH1 0x20 ADD PUSH1 0x20 DUP3 MUL DUP1 CALLDATASIZE DUP4 CALLDATACOPY ADD SWAP1 POP JUMPDEST POP SWAP5 POP PUSH2 0xF1A DUP2 PUSH1 0x1 PUSH2 0x3DA3 JUMP JUMPDEST PUSH8 0xFFFFFFFFFFFFFFFF DUP2 GT ISZERO PUSH2 0xF32 JUMPI PUSH2 0xF32 PUSH2 0x3E8C JUMP JUMPDEST PUSH1 0x40 MLOAD SWAP1 DUP1 DUP3 MSTORE DUP1 PUSH1 0x20 MUL PUSH1 0x20 ADD DUP3 ADD PUSH1 0x40 MSTORE DUP1 ISZERO PUSH2 0xF5B JUMPI DUP2 PUSH1 0x20 ADD PUSH1 0x20 DUP3 MUL DUP1 CALLDATASIZE DUP4 CALLDATACOPY ADD SWAP1 POP JUMPDEST POP SWAP4 POP PUSH2 0xF69 DUP2 PUSH1 0x1 PUSH2 0x3DA3 JUMP JUMPDEST PUSH8 0xFFFFFFFFFFFFFFFF DUP2 GT ISZERO PUSH2 0xF81 JUMPI PUSH2 0xF81 PUSH2 0x3E8C JUMP JUMPDEST PUSH1 0x40 MLOAD SWAP1 DUP1 DUP3 MSTORE DUP1 PUSH1 0x20 MUL PUSH1 0x20 ADD DUP3 ADD PUSH1 0x40 MSTORE DUP1 ISZERO PUSH2 0xFAA JUMPI DUP2 PUSH1 0x20 ADD PUSH1 0x20 DUP3 MUL DUP1 CALLDATASIZE DUP4 CALLDATACOPY ADD SWAP1 POP JUMPDEST POP SWAP3 POP PUSH0 DUP6 PUSH0 DUP2 MLOAD DUP2 LT PUSH2 0xFC0 JUMPI PUSH2 0xFC0 PUSH2 0x3D7B JUMP JUMPDEST PUSH1 0x1 PUSH1 0x1 PUSH1 0xA0 SHL SUB SWAP1 SWAP3 AND PUSH1 0x20 SWAP3 DUP4 MUL SWAP2 SWAP1 SWAP2 ADD SWAP1 SWAP2 ADD MSTORE DUP2 ISZERO PUSH2 0x101C JUMPI DUP2 PUSH2 0xFE7 PUSH2 0x25C8 JUMP JUMPDEST PUSH2 0xFF3 SWAP1 PUSH2 0x2710 PUSH2 0x3EA0 JUMP JUMPDEST PUSH2 0xFFD SWAP2 SWAP1 PUSH2 0x3ECB JUMP JUMPDEST DUP5 PUSH0 DUP2 MLOAD DUP2 LT PUSH2 0x100F JUMPI PUSH2 0x100F PUSH2 0x3D7B JUMP JUMPDEST PUSH1 0x20 MUL PUSH1 0x20 ADD ADD DUP2 DUP2 MSTORE POP POP JUMPDEST PUSH1 0xC SLOAD DUP4 PUSH0 DUP2 MLOAD DUP2 LT PUSH2 0x1031 JUMPI PUSH2 0x1031 PUSH2 0x3D7B JUMP JUMPDEST PUSH1 0x20 MUL PUSH1 0x20 ADD ADD DUP2 DUP2 MSTORE POP POP PUSH0 JUMPDEST DUP2 DUP2 LT ISZERO PUSH2 0x1248 JUMPI PUSH0 PUSH1 0xA DUP3 DUP2 SLOAD DUP2 LT PUSH2 0x105B JUMPI PUSH2 0x105B PUSH2 0x3D7B JUMP JUMPDEST PUSH0 SWAP2 DUP3 MSTORE PUSH1 0x20 SWAP1 SWAP2 KECCAK256 ADD SLOAD PUSH1 0x1 PUSH1 0x1 PUSH1 0xA0 SHL SUB AND SWAP1 POP DUP1 DUP8 PUSH2 0x107E DUP5 PUSH1 0x1 PUSH2 0x3DA3 JUMP JUMPDEST DUP2 MLOAD DUP2 LT PUSH2 0x108E JUMPI PUSH2 0x108E PUSH2 0x3D7B JUMP JUMPDEST PUSH1 0x20 MUL PUSH1 0x20 ADD ADD SWAP1 PUSH1 0x1 PUSH1 0x1 PUSH1 0xA0 SHL SUB AND SWAP1 DUP2 PUSH1 0x1 PUSH1 0x1 PUSH1 0xA0 SHL SUB AND DUP2 MSTORE POP POP PUSH0 DUP5 GT DUP1 ISZERO PUSH2 0x10EB JUMPI POP PUSH1 0x1 PUSH1 0x1 PUSH1 0x1 PUSH1 0xA0 SHL SUB DUP3 AND PUSH0 SWAP1 DUP2 MSTORE PUSH1 0x9 PUSH1 0x20 MSTORE PUSH1 0x40 SWAP1 KECCAK256 PUSH1 0x2 ADD SLOAD PUSH1 0xFF AND PUSH1 0x3 DUP2 GT ISZERO PUSH2 0x10E9 JUMPI PUSH2 0x10E9 PUSH2 0x3B53 JUMP JUMPDEST EQ JUMPDEST ISZERO PUSH2 0x11EF JUMPI DUP1 PUSH1 0x1 PUSH1 0x1 PUSH1 0xA0 SHL SUB AND PUSH4 0x1E1D114 PUSH1 0x40 MLOAD DUP2 PUSH4 0xFFFFFFFF AND PUSH1 0xE0 SHL DUP2 MSTORE PUSH1 0x4 ADD PUSH1 0x20 PUSH1 0x40 MLOAD DUP1 DUP4 SUB DUP2 DUP7 GAS STATICCALL SWAP3 POP POP POP DUP1 ISZERO PUSH2 0x114A JUMPI POP PUSH1 0x40 DUP1 MLOAD PUSH1 0x1F RETURNDATASIZE SWAP1 DUP2 ADD PUSH1 0x1F NOT AND DUP3 ADD SWAP1 SWAP3 MSTORE PUSH2 0x1147 SWAP2 DUP2 ADD SWAP1 PUSH2 0x3D64 JUMP JUMPDEST PUSH1 0x1 JUMPDEST PUSH2 0x11AE JUMPI PUSH1 0x1 PUSH1 0x1 PUSH1 0xA0 SHL SUB DUP2 AND PUSH0 SWAP1 DUP2 MSTORE PUSH1 0x9 PUSH1 0x20 MSTORE PUSH1 0x40 SWAP1 KECCAK256 PUSH1 0x3 ADD SLOAD DUP5 SWAP1 PUSH2 0x1177 SWAP1 PUSH2 0x2710 PUSH2 0x3EA0 JUMP JUMPDEST PUSH2 0x1181 SWAP2 SWAP1 PUSH2 0x3ECB JUMP JUMPDEST DUP7 PUSH2 0x118D DUP5 PUSH1 0x1 PUSH2 0x3DA3 JUMP JUMPDEST DUP2 MLOAD DUP2 LT PUSH2 0x119D JUMPI PUSH2 0x119D PUSH2 0x3D7B JUMP JUMPDEST PUSH1 0x20 MUL PUSH1 0x20 ADD ADD DUP2 DUP2 MSTORE POP POP PUSH2 0x11EF JUMP JUMPDEST DUP5 PUSH2 0x11BB DUP3 PUSH2 0x2710 PUSH2 0x3EA0 JUMP JUMPDEST PUSH2 0x11C5 SWAP2 SWAP1 PUSH2 0x3ECB JUMP JUMPDEST DUP8 PUSH2 0x11D1 DUP6 PUSH1 0x1 PUSH2 0x3DA3 JUMP JUMPDEST DUP2 MLOAD DUP2 LT PUSH2 0x11E1 JUMPI PUSH2 0x11E1 PUSH2 0x3D7B JUMP JUMPDEST PUSH1 0x20 MUL PUSH1 0x20 ADD ADD DUP2 DUP2 MSTORE POP POP POP JUMPDEST PUSH1 0x1 PUSH1 0x1 PUSH1 0xA0 SHL SUB DUP2 AND PUSH0 SWAP1 DUP2 MSTORE PUSH1 0x9 PUSH1 0x20 MSTORE PUSH1 0x40 SWAP1 KECCAK256 PUSH1 0x1 SWAP1 DUP2 ADD SLOAD SWAP1 DUP7 SWAP1 PUSH2 0x121A SWAP1 DUP6 SWAP1 PUSH2 0x3DA3 JUMP JUMPDEST DUP2 MLOAD DUP2 LT PUSH2 0x122A JUMPI PUSH2 0x122A PUSH2 0x3D7B JUMP JUMPDEST PUSH1 0x20 SWAP1 DUP2 MUL SWAP2 SWAP1 SWAP2 ADD ADD MSTORE POP DUP1 PUSH2 0x1240 DUP2 PUSH2 0x3DB6 JUMP JUMPDEST SWAP2 POP POP PUSH2 0x103F JUMP JUMPDEST POP POP POP SWAP1 SWAP2 SWAP3 JUMP JUMPDEST PUSH2 0x1258 PUSH2 0x2C38 JUMP JUMPDEST PUSH2 0x2710 DUP2 GT ISZERO PUSH2 0x127A JUMPI PUSH1 0x40 MLOAD PUSH3 0x461BCD PUSH1 0xE5 SHL DUP2 MSTORE PUSH1 0x4 ADD PUSH2 0xA65 SWAP1 PUSH2 0x3EDE JUMP JUMPDEST PUSH0 DUP2 PUSH1 0xB SLOAD PUSH2 0x1289 SWAP2 SWAP1 PUSH2 0x3DA3 JUMP JUMPDEST SWAP1 POP PUSH2 0x2710 DUP2 GT ISZERO PUSH2 0x12AD JUMPI PUSH1 0x40 MLOAD PUSH3 0x461BCD PUSH1 0xE5 SHL DUP2 MSTORE PUSH1 0x4 ADD PUSH2 0xA65 SWAP1 PUSH2 0x3F15 JUMP JUMPDEST PUSH1 0xC DUP3 SWAP1 SSTORE PUSH1 0x40 MLOAD DUP3 DUP2 MSTORE PUSH32 0x25D100BF71CE70005705F0F63E93DDD517F408C8FAD360538D0AE1F2204029A8 SWAP1 PUSH1 0x20 ADD PUSH1 0x40 MLOAD DUP1 SWAP2 SUB SWAP1 LOG1 POP POP JUMP JUMPDEST PUSH2 0x1318 PUSH1 0x40 DUP1 MLOAD PUSH1 0xA0 DUP2 ADD DUP3 MSTORE PUSH0 DUP1 DUP3 MSTORE PUSH1 0x20 DUP3 ADD DUP2 SWAP1 MSTORE SWAP1 SWAP2 DUP3 ADD SWAP1 DUP2 MSTORE PUSH1 0x20 ADD PUSH0 DUP2 MSTORE PUSH1 0x20 ADD PUSH0 DUP2 MSTORE POP SWAP1 JUMP JUMPDEST PUSH1 0x1 PUSH1 0x1 PUSH1 0xA0 SHL SUB DUP3 DUP2 AND PUSH0 SWAP1 DUP2 MSTORE PUSH1 0x9 PUSH1 0x20 MSTORE PUSH1 0x40 SWAP1 KECCAK256 SLOAD AND PUSH2 0x134E JUMPI PUSH1 0x40 MLOAD PUSH3 0x461BCD PUSH1 0xE5 SHL DUP2 MSTORE PUSH1 0x4 ADD PUSH2 0xA65 SWAP1 PUSH2 0x3E00 JUMP JUMPDEST PUSH1 0x1 PUSH1 0x1 PUSH1 0xA0 SHL SUB DUP1 DUP4 AND PUSH0 SWAP1 DUP2 MSTORE PUSH1 0x9 PUSH1 0x20 SWAP1 DUP2 MSTORE PUSH1 0x40 SWAP2 DUP3 SWAP1 KECCAK256 DUP3 MLOAD PUSH1 0xA0 DUP2 ADD DUP5 MSTORE DUP2 SLOAD SWAP1 SWAP5 AND DUP5 MSTORE PUSH1 0x1 DUP2 ADD SLOAD SWAP2 DUP5 ADD SWAP2 SWAP1 SWAP2 MSTORE PUSH1 0x2 DUP2 ADD SLOAD SWAP1 SWAP2 DUP4 ADD SWAP1 PUSH1 0xFF AND PUSH1 0x3 DUP2 GT ISZERO PUSH2 0x13A3 JUMPI PUSH2 0x13A3 PUSH2 0x3B53 JUMP JUMPDEST PUSH1 0x3 DUP2 GT ISZERO PUSH2 0x13B4 JUMPI PUSH2 0x13B4 PUSH2 0x3B53 JUMP JUMPDEST DUP2 MSTORE PUSH1 0x3 DUP3 ADD SLOAD PUSH1 0x20 DUP3 ADD MSTORE PUSH1 0x4 SWAP1 SWAP2 ADD SLOAD PUSH1 0x40 SWAP1 SWAP2 ADD MSTORE SWAP3 SWAP2 POP POP JUMP JUMPDEST PUSH1 0x60 PUSH0 DUP1 JUMPDEST PUSH1 0xA SLOAD DUP2 LT ISZERO PUSH2 0x1459 JUMPI PUSH1 0x1 PUSH1 0x9 PUSH0 PUSH1 0xA DUP5 DUP2 SLOAD DUP2 LT PUSH2 0x13F9 JUMPI PUSH2 0x13F9 PUSH2 0x3D7B JUMP JUMPDEST PUSH0 SWAP2 DUP3 MSTORE PUSH1 0x20 DUP1 DUP4 KECCAK256 SWAP1 SWAP2 ADD SLOAD PUSH1 0x1 PUSH1 0x1 PUSH1 0xA0 SHL SUB AND DUP4 MSTORE DUP3 ADD SWAP3 SWAP1 SWAP3 MSTORE PUSH1 0x40 ADD SWAP1 KECCAK256 PUSH1 0x2 ADD SLOAD PUSH1 0xFF AND PUSH1 0x3 DUP2 GT ISZERO PUSH2 0x1434 JUMPI PUSH2 0x1434 PUSH2 0x3B53 JUMP JUMPDEST SUB PUSH2 0x1447 JUMPI DUP2 PUSH2 0x1443 DUP2 PUSH2 0x3DB6 JUMP JUMPDEST SWAP3 POP POP JUMPDEST DUP1 PUSH2 0x1451 DUP2 PUSH2 0x3DB6 JUMP JUMPDEST SWAP2 POP POP PUSH2 0x13D7 JUMP JUMPDEST POP PUSH0 DUP2 PUSH8 0xFFFFFFFFFFFFFFFF DUP2 GT ISZERO PUSH2 0x1474 JUMPI PUSH2 0x1474 PUSH2 0x3E8C JUMP JUMPDEST PUSH1 0x40 MLOAD SWAP1 DUP1 DUP3 MSTORE DUP1 PUSH1 0x20 MUL PUSH1 0x20 ADD DUP3 ADD PUSH1 0x40 MSTORE DUP1 ISZERO PUSH2 0x149D JUMPI DUP2 PUSH1 0x20 ADD PUSH1 0x20 DUP3 MUL DUP1 CALLDATASIZE DUP4 CALLDATACOPY ADD SWAP1 POP JUMPDEST POP SWAP1 POP PUSH0 DUP1 JUMPDEST PUSH1 0xA SLOAD DUP2 LT ISZERO PUSH2 0x157D JUMPI PUSH1 0x1 PUSH1 0x9 PUSH0 PUSH1 0xA DUP5 DUP2 SLOAD DUP2 LT PUSH2 0x14C5 JUMPI PUSH2 0x14C5 PUSH2 0x3D7B JUMP JUMPDEST PUSH0 SWAP2 DUP3 MSTORE PUSH1 0x20 DUP1 DUP4 KECCAK256 SWAP1 SWAP2 ADD SLOAD PUSH1 0x1 PUSH1 0x1 PUSH1 0xA0 SHL SUB AND DUP4 MSTORE DUP3 ADD SWAP3 SWAP1 SWAP3 MSTORE PUSH1 0x40 ADD SWAP1 KECCAK256 PUSH1 0x2 ADD SLOAD PUSH1 0xFF AND PUSH1 0x3 DUP2 GT ISZERO PUSH2 0x1500 JUMPI PUSH2 0x1500 PUSH2 0x3B53 JUMP JUMPDEST SUB PUSH2 0x156B JUMPI PUSH1 0xA DUP2 DUP2 SLOAD DUP2 LT PUSH2 0x1518 JUMPI PUSH2 0x1518 PUSH2 0x3D7B JUMP JUMPDEST SWAP1 PUSH0 MSTORE PUSH1 0x20 PUSH0 KECCAK256 ADD PUSH0 SWAP1 SLOAD SWAP1 PUSH2 0x100 EXP SWAP1 DIV PUSH1 0x1 PUSH1 0x1 PUSH1 0xA0 SHL SUB AND DUP4 DUP4 DUP2 MLOAD DUP2 LT PUSH2 0x1545 JUMPI PUSH2 0x1545 PUSH2 0x3D7B JUMP JUMPDEST PUSH1 0x1 PUSH1 0x1 PUSH1 0xA0 SHL SUB SWAP1 SWAP3 AND PUSH1 0x20 SWAP3 DUP4 MUL SWAP2 SWAP1 SWAP2 ADD SWAP1 SWAP2 ADD MSTORE DUP2 PUSH2 0x1567 DUP2 PUSH2 0x3DB6 JUMP JUMPDEST SWAP3 POP POP JUMPDEST DUP1 PUSH2 0x1575 DUP2 PUSH2 0x3DB6 JUMP JUMPDEST SWAP2 POP POP PUSH2 0x14A3 JUMP JUMPDEST POP SWAP1 SWAP4 SWAP3 POP POP POP JUMP JUMPDEST PUSH0 PUSH2 0x158F PUSH2 0x2D2B JUMP JUMPDEST PUSH1 0x8 SLOAD DUP4 LT ISZERO PUSH2 0x15D9 JUMPI PUSH1 0x40 MLOAD PUSH3 0x461BCD PUSH1 0xE5 SHL DUP2 MSTORE PUSH1 0x20 PUSH1 0x4 DUP3 ADD MSTORE PUSH1 0x15 PUSH1 0x24 DUP3 ADD MSTORE PUSH21 0x10995B1BDDC81B5A5B9A5B5D5B4819195C1BDCDA5D PUSH1 0x5A SHL PUSH1 0x44 DUP3 ADD MSTORE PUSH1 0x64 ADD PUSH2 0xA65 JUMP JUMPDEST PUSH2 0x15E3 DUP4 DUP4 PUSH2 0x2D55 JUMP JUMPDEST SWAP1 POP PUSH2 0x9FE PUSH1 0x1 PUSH1 0x6 SSTORE JUMP JUMPDEST PUSH2 0x15F7 PUSH2 0x2C38 JUMP JUMPDEST PUSH1 0x1 PUSH1 0x1 PUSH1 0xA0 SHL SUB DUP3 DUP2 AND PUSH0 SWAP1 DUP2 MSTORE PUSH1 0x9 PUSH1 0x20 MSTORE PUSH1 0x40 SWAP1 KECCAK256 SLOAD AND PUSH2 0x162D JUMPI PUSH1 0x40 MLOAD PUSH3 0x461BCD PUSH1 0xE5 SHL DUP2 MSTORE PUSH1 0x4 ADD PUSH2 0xA65 SWAP1 PUSH2 0x3E00 JUMP JUMPDEST PUSH2 0x2710 DUP2 GT ISZERO PUSH2 0x164F JUMPI PUSH1 0x40 MLOAD PUSH3 0x461BCD PUSH1 0xE5 SHL DUP2 MSTORE PUSH1 0x4 ADD PUSH2 0xA65 SWAP1 PUSH2 0x3EDE JUMP JUMPDEST PUSH1 0x1 PUSH1 0x1 PUSH1 0xA0 SHL SUB DUP3 AND PUSH0 SWAP1 DUP2 MSTORE PUSH1 0x9 PUSH1 0x20 MSTORE PUSH1 0x40 DUP2 KECCAK256 PUSH1 0x1 ADD SLOAD PUSH1 0xC SLOAD PUSH1 0xB SLOAD SWAP2 SWAP3 SWAP2 DUP5 SWAP1 PUSH2 0x1680 SWAP1 DUP6 SWAP1 PUSH2 0x3E37 JUMP JUMPDEST PUSH2 0x168A SWAP2 SWAP1 PUSH2 0x3DA3 JUMP JUMPDEST PUSH2 0x1694 SWAP2 SWAP1 PUSH2 0x3DA3 JUMP JUMPDEST SWAP1 POP PUSH2 0x2710 DUP2 GT ISZERO PUSH2 0x16B8 JUMPI PUSH1 0x40 MLOAD PUSH3 0x461BCD PUSH1 0xE5 SHL DUP2 MSTORE PUSH1 0x4 ADD PUSH2 0xA65 SWAP1 PUSH2 0x3F15 JUMP JUMPDEST DUP3 DUP3 PUSH1 0xB SLOAD PUSH2 0x16C7 SWAP2 SWAP1 PUSH2 0x3E37 JUMP JUMPDEST PUSH2 0x16D1 SWAP2 SWAP1 PUSH2 0x3DA3 JUMP JUMPDEST PUSH1 0xB SSTORE PUSH1 0x1 PUSH1 0x1 PUSH1 0xA0 SHL SUB DUP5 AND PUSH0 DUP2 DUP2 MSTORE PUSH1 0x9 PUSH1 0x20 MSTORE PUSH1 0x40 SWAP1 DUP2 SWAP1 KECCAK256 PUSH1 0x1 ADD DUP6 SWAP1 SSTORE MLOAD PUSH32 0xEDA1127DBE257A768246136B79DE9D901A2A66B37E0197435F9B4C2E499095C4 SWAP1 PUSH2 0x1723 SWAP1 DUP7 DUP2 MSTORE PUSH1 0x20 ADD SWAP1 JUMP JUMPDEST PUSH1 0x40 MLOAD DUP1 SWAP2 SUB SWAP1 LOG2 POP POP POP POP JUMP JUMPDEST PUSH2 0x1739 PUSH2 0x2C38 JUMP JUMPDEST PUSH2 0x1742 PUSH0 PUSH2 0x2D78 JUMP JUMPDEST JUMP JUMPDEST PUSH2 0x174C PUSH2 0x2C38 JUMP JUMPDEST PUSH0 DUP2 GT PUSH2 0x179B JUMPI PUSH1 0x40 MLOAD PUSH3 0x461BCD PUSH1 0xE5 SHL DUP2 MSTORE PUSH1 0x20 PUSH1 0x4 DUP3 ADD MSTORE PUSH1 0x1C PUSH1 0x24 DUP3 ADD MSTORE PUSH32 0x4D696E206465706F736974206D75737420626520706F73697469766500000000 PUSH1 0x44 DUP3 ADD MSTORE PUSH1 0x64 ADD PUSH2 0xA65 JUMP JUMPDEST PUSH1 0x8 DUP2 SWAP1 SSTORE PUSH1 0x40 MLOAD DUP2 DUP2 MSTORE PUSH32 0x96A008F96F1C0AB9FA3D9DDD43CDFC614848C4D054D51F43662ED900E9D094C8 SWAP1 PUSH1 0x20 ADD PUSH1 0x40 MLOAD DUP1 SWAP2 SUB SWAP1 LOG1 POP JUMP JUMPDEST PUSH0 PUSH2 0x17DF PUSH2 0x2D2B JUMP JUMPDEST PUSH0 PUSH2 0x17E9 DUP5 PUSH2 0x19FD JUMP JUMPDEST SWAP1 POP PUSH1 0x8 SLOAD DUP2 LT ISZERO PUSH2 0x1835 JUMPI PUSH1 0x40 MLOAD PUSH3 0x461BCD PUSH1 0xE5 SHL DUP2 MSTORE PUSH1 0x20 PUSH1 0x4 DUP3 ADD MSTORE PUSH1 0x15 PUSH1 0x24 DUP3 ADD MSTORE PUSH21 0x10995B1BDDC81B5A5B9A5B5D5B4819195C1BDCDA5D PUSH1 0x5A SHL PUSH1 0x44 DUP3 ADD MSTORE PUSH1 0x64 ADD PUSH2 0xA65 JUMP JUMPDEST PUSH2 0x183F DUP5 DUP5 PUSH2 0x2DC9 JUMP JUMPDEST SWAP2 POP POP PUSH2 0x9FE PUSH1 0x1 PUSH1 0x6 SSTORE JUMP JUMPDEST PUSH1 0x60 PUSH1 0x4 DUP1 SLOAD PUSH2 0x972 SWAP1 PUSH2 0x3DCE JUMP JUMPDEST PUSH2 0x1863 PUSH2 0x2C38 JUMP JUMPDEST PUSH1 0x1 PUSH1 0x1 PUSH1 0xA0 SHL SUB DUP2 AND PUSH2 0x18B9 JUMPI PUSH1 0x40 MLOAD PUSH3 0x461BCD PUSH1 0xE5 SHL DUP2 MSTORE PUSH1 0x20 PUSH1 0x4 DUP3 ADD MSTORE PUSH1 0x18 PUSH1 0x24 DUP3 ADD MSTORE PUSH32 0x496E76616C6964206F70657261746F7220616464726573730000000000000000 PUSH1 0x44 DUP3 ADD MSTORE PUSH1 0x64 ADD PUSH2 0xA65 JUMP JUMPDEST PUSH1 0x1 PUSH1 0x1 PUSH1 0xA0 SHL SUB DUP2 AND PUSH0 DUP2 DUP2 MSTORE PUSH1 0x7 PUSH1 0x20 MSTORE PUSH1 0x40 DUP1 DUP3 KECCAK256 DUP1 SLOAD PUSH1 0xFF NOT AND PUSH1 0x1 OR SWAP1 SSTORE MLOAD PUSH32 0xAC6FA858E9350A46CEC16539926E0FDE25B7629F84B5A72BFFAAE4DF888AE86D SWAP2 SWAP1 LOG2 POP JUMP JUMPDEST PUSH1 0xA DUP2 DUP2 SLOAD DUP2 LT PUSH2 0x1913 JUMPI PUSH0 DUP1 REVERT JUMPDEST PUSH0 SWAP2 DUP3 MSTORE PUSH1 0x20 SWAP1 SWAP2 KECCAK256 ADD SLOAD PUSH1 0x1 PUSH1 0x1 PUSH1 0xA0 SHL SUB AND SWAP1 POP DUP2 JUMP JUMPDEST PUSH0 DUP1 PUSH0 DUP1 PUSH0 PUSH2 0x1939 PUSH2 0x25C8 JUMP JUMPDEST SWAP5 POP PUSH2 0x1943 PUSH2 0x19DA JUMP JUMPDEST SWAP4 POP PUSH1 0xC SLOAD SWAP1 POP DUP4 DUP6 LT ISZERO PUSH2 0x1966 JUMPI PUSH2 0x195C DUP6 DUP6 PUSH2 0x3E37 JUMP JUMPDEST SWAP3 POP PUSH0 SWAP2 POP PUSH2 0x1976 JUMP JUMPDEST PUSH0 SWAP3 POP PUSH2 0x1973 DUP5 DUP7 PUSH2 0x3E37 JUMP JUMPDEST SWAP2 POP JUMPDEST SWAP1 SWAP2 SWAP3 SWAP4 SWAP5 JUMP JUMPDEST PUSH0 CALLER PUSH2 0xA11 DUP2 DUP6 DUP6 PUSH2 0x2CCE JUMP JUMPDEST PUSH2 0x1992 PUSH2 0x2C38 JUMP JUMPDEST PUSH1 0x1 PUSH1 0x1 PUSH1 0xA0 SHL SUB DUP2 AND PUSH0 DUP2 DUP2 MSTORE PUSH1 0x7 PUSH1 0x20 MSTORE PUSH1 0x40 DUP1 DUP3 KECCAK256 DUP1 SLOAD PUSH1 0xFF NOT AND SWAP1 SSTORE MLOAD PUSH32 0x80C0B871B97B595B16A7741C1B06FED0C6F6F558639F18CCBCE50724325DC40D SWAP2 SWAP1 LOG2 POP JUMP JUMPDEST PUSH0 PUSH2 0x2710 PUSH1 0xC SLOAD PUSH2 0x19E9 PUSH2 0x7CC JUMP JUMPDEST PUSH2 0x19F3 SWAP2 SWAP1 PUSH2 0x3EA0 JUMP JUMPDEST PUSH2 0xE3E SWAP2 SWAP1 PUSH2 0x3ECB JUMP JUMPDEST PUSH0 PUSH2 0x9FE DUP3 PUSH1 0x1 PUSH2 0x2BBF JUMP JUMPDEST PUSH0 PUSH2 0x1A12 PUSH2 0x2D2B JUMP JUMPDEST PUSH2 0x1A1D DUP5 DUP5 DUP5 PUSH2 0x2DE4 JUMP JUMPDEST SWAP1 POP PUSH2 0xCA2 PUSH1 0x1 PUSH1 0x6 SSTORE JUMP JUMPDEST CALLER PUSH0 SWAP1 DUP2 MSTORE PUSH1 0x7 PUSH1 0x20 MSTORE PUSH1 0x40 SWAP1 KECCAK256 SLOAD PUSH1 0xFF AND DUP1 PUSH2 0x1A50 JUMPI POP PUSH1 0x5 SLOAD PUSH1 0x1 PUSH1 0x1 PUSH1 0xA0 SHL SUB AND CALLER EQ JUMPDEST PUSH2 0x1A6C JUMPI PUSH1 0x40 MLOAD PUSH3 0x461BCD PUSH1 0xE5 SHL DUP2 MSTORE PUSH1 0x4 ADD PUSH2 0xA65 SWAP1 PUSH2 0x3F4C JUMP JUMPDEST PUSH2 0x1A74 PUSH2 0x2D2B JUMP JUMPDEST PUSH1 0x1 PUSH1 0x1 PUSH1 0xA0 SHL SUB DUP3 DUP2 AND PUSH0 SWAP1 DUP2 MSTORE PUSH1 0x9 PUSH1 0x20 MSTORE PUSH1 0x40 SWAP1 KECCAK256 SLOAD AND PUSH2 0x1AAA JUMPI PUSH1 0x40 MLOAD PUSH3 0x461BCD PUSH1 0xE5 SHL DUP2 MSTORE PUSH1 0x4 ADD PUSH2 0xA65 SWAP1 PUSH2 0x3E00 JUMP JUMPDEST PUSH0 DUP2 GT PUSH2 0x1AF3 JUMPI PUSH1 0x40 MLOAD PUSH3 0x461BCD PUSH1 0xE5 SHL DUP2 MSTORE PUSH1 0x20 PUSH1 0x4 DUP3 ADD MSTORE PUSH1 0x17 PUSH1 0x24 DUP3 ADD MSTORE PUSH23 0x416D6F756E74206D75737420626520706F736974697665 PUSH1 0x48 SHL PUSH1 0x44 DUP3 ADD MSTORE PUSH1 0x64 ADD PUSH2 0xA65 JUMP JUMPDEST PUSH1 0x1 PUSH1 0x1 PUSH1 0xA0 SHL SUB DUP3 AND PUSH0 SWAP1 DUP2 MSTORE PUSH1 0x9 PUSH1 0x20 MSTORE PUSH1 0x40 SWAP1 KECCAK256 PUSH1 0x3 ADD SLOAD DUP2 GT ISZERO PUSH2 0x1B5D JUMPI PUSH1 0x40 MLOAD PUSH3 0x461BCD PUSH1 0xE5 SHL DUP2 MSTORE PUSH1 0x20 PUSH1 0x4 DUP3 ADD MSTORE PUSH1 0x19 PUSH1 0x24 DUP3 ADD MSTORE PUSH32 0x57697468647261772065786365656473206465706C6F79656400000000000000 PUSH1 0x44 DUP3 ADD MSTORE PUSH1 0x64 ADD PUSH2 0xA65 JUMP JUMPDEST PUSH0 PUSH32 0x0 PUSH1 0x40 MLOAD PUSH4 0x70A08231 PUSH1 0xE0 SHL DUP2 MSTORE ADDRESS PUSH1 0x4 DUP3 ADD MSTORE PUSH1 0x1 PUSH1 0x1 PUSH1 0xA0 SHL SUB SWAP2 SWAP1 SWAP2 AND SWAP1 PUSH4 0x70A08231 SWAP1 PUSH1 0x24 ADD PUSH1 0x20 PUSH1 0x40 MLOAD DUP1 DUP4 SUB DUP2 DUP7 GAS STATICCALL ISZERO DUP1 ISZERO PUSH2 0x1BC3 JUMPI RETURNDATASIZE PUSH0 DUP1 RETURNDATACOPY RETURNDATASIZE PUSH0 REVERT JUMPDEST POP POP POP POP PUSH1 0x40 MLOAD RETURNDATASIZE PUSH1 0x1F NOT PUSH1 0x1F DUP3 ADD AND DUP3 ADD DUP1 PUSH1 0x40 MSTORE POP DUP2 ADD SWAP1 PUSH2 0x1BE7 SWAP2 SWAP1 PUSH2 0x3D64 JUMP JUMPDEST PUSH1 0x40 MLOAD PUSH3 0x7B8A67 PUSH1 0xE1 SHL DUP2 MSTORE PUSH1 0x4 DUP2 ADD DUP5 SWAP1 MSTORE ADDRESS PUSH1 0x24 DUP3 ADD MSTORE SWAP1 SWAP2 POP PUSH0 SWAP1 PUSH1 0x1 PUSH1 0x1 PUSH1 0xA0 SHL SUB DUP6 AND SWAP1 PUSH3 0xF714CE SWAP1 PUSH1 0x44 ADD PUSH1 0x20 PUSH1 0x40 MLOAD DUP1 DUP4 SUB DUP2 PUSH0 DUP8 GAS CALL ISZERO DUP1 ISZERO PUSH2 0x1C34 JUMPI RETURNDATASIZE PUSH0 DUP1 RETURNDATACOPY RETURNDATASIZE PUSH0 REVERT JUMPDEST POP POP POP POP PUSH1 0x40 MLOAD RETURNDATASIZE PUSH1 0x1F NOT PUSH1 0x1F DUP3 ADD AND DUP3 ADD DUP1 PUSH1 0x40 MSTORE POP DUP2 ADD SWAP1 PUSH2 0x1C58 SWAP2 SWAP1 PUSH2 0x3D64 JUMP JUMPDEST SWAP1 POP PUSH0 PUSH32 0x0 PUSH1 0x40 MLOAD PUSH4 0x70A08231 PUSH1 0xE0 SHL DUP2 MSTORE ADDRESS PUSH1 0x4 DUP3 ADD MSTORE PUSH1 0x1 PUSH1 0x1 PUSH1 0xA0 SHL SUB SWAP2 SWAP1 SWAP2 AND SWAP1 PUSH4 0x70A08231 SWAP1 PUSH1 0x24 ADD PUSH1 0x20 PUSH1 0x40 MLOAD DUP1 DUP4 SUB DUP2 DUP7 GAS STATICCALL ISZERO DUP1 ISZERO PUSH2 0x1CC0 JUMPI RETURNDATASIZE PUSH0 DUP1 RETURNDATACOPY RETURNDATASIZE PUSH0 REVERT JUMPDEST POP POP POP POP PUSH1 0x40 MLOAD RETURNDATASIZE PUSH1 0x1F NOT PUSH1 0x1F DUP3 ADD AND DUP3 ADD DUP1 PUSH1 0x40 MSTORE POP DUP2 ADD SWAP1 PUSH2 0x1CE4 SWAP2 SWAP1 PUSH2 0x3D64 JUMP JUMPDEST SWAP1 POP DUP3 DUP2 LT ISZERO PUSH2 0x1D36 JUMPI PUSH1 0x40 MLOAD PUSH3 0x461BCD PUSH1 0xE5 SHL DUP2 MSTORE PUSH1 0x20 PUSH1 0x4 DUP3 ADD MSTORE PUSH1 0x17 PUSH1 0x24 DUP3 ADD MSTORE PUSH32 0x5661756C742062616C616E636520646563726561736564000000000000000000 PUSH1 0x44 DUP3 ADD MSTORE PUSH1 0x64 ADD PUSH2 0xA65 JUMP JUMPDEST PUSH0 PUSH2 0x1D41 DUP5 DUP4 PUSH2 0x3E37 JUMP JUMPDEST SWAP1 POP PUSH0 DUP2 GT PUSH2 0x1D92 JUMPI PUSH1 0x40 MLOAD PUSH3 0x461BCD PUSH1 0xE5 SHL DUP2 MSTORE PUSH1 0x20 PUSH1 0x4 DUP3 ADD MSTORE PUSH1 0x1F PUSH1 0x24 DUP3 ADD MSTORE PUSH32 0x4E6F2066756E64732072656365697665642066726F6D20737472617465677900 PUSH1 0x44 DUP3 ADD MSTORE PUSH1 0x64 ADD PUSH2 0xA65 JUMP JUMPDEST PUSH1 0x1 PUSH1 0x1 PUSH1 0xA0 SHL SUB DUP7 AND PUSH0 SWAP1 DUP2 MSTORE PUSH1 0x9 PUSH1 0x20 MSTORE PUSH1 0x40 SWAP1 KECCAK256 PUSH1 0x3 ADD SLOAD DUP2 GT PUSH2 0x1DE8 JUMPI PUSH1 0x1 PUSH1 0x1 PUSH1 0xA0 SHL SUB DUP7 AND PUSH0 SWAP1 DUP2 MSTORE PUSH1 0x9 PUSH1 0x20 MSTORE PUSH1 0x40 DUP2 KECCAK256 PUSH1 0x3 ADD DUP1 SLOAD DUP4 SWAP3 SWAP1 PUSH2 0x1DDD SWAP1 DUP5 SWAP1 PUSH2 0x3E37 JUMP JUMPDEST SWAP1 SWAP2 SSTORE POP PUSH2 0x1E04 SWAP1 POP JUMP JUMPDEST PUSH1 0x1 PUSH1 0x1 PUSH1 0xA0 SHL SUB DUP7 AND PUSH0 SWAP1 DUP2 MSTORE PUSH1 0x9 PUSH1 0x20 MSTORE PUSH1 0x40 DUP2 KECCAK256 PUSH1 0x3 ADD SSTORE JUMPDEST PUSH1 0x40 DUP1 MLOAD DUP7 DUP2 MSTORE PUSH1 0x20 DUP2 ADD DUP6 SWAP1 MSTORE PUSH1 0x1 PUSH1 0x1 PUSH1 0xA0 SHL SUB DUP9 AND SWAP2 PUSH32 0x490DFB4CE52333704763AEE75EDBA596CEAAB548BCCAFC900F79C2B9F6381B08 SWAP2 ADD JUMPDEST PUSH1 0x40 MLOAD DUP1 SWAP2 SUB SWAP1 LOG2 POP POP POP POP PUSH2 0x1E57 PUSH1 0x1 PUSH1 0x6 SSTORE JUMP JUMPDEST POP POP JUMP JUMPDEST PUSH0 PUSH2 0x1E64 PUSH2 0x2D2B JUMP JUMPDEST PUSH2 0x1A1D DUP5 DUP5 DUP5 PUSH2 0x2E3A JUMP JUMPDEST PUSH1 0x60 PUSH1 0xA DUP1 SLOAD DUP1 PUSH1 0x20 MUL PUSH1 0x20 ADD PUSH1 0x40 MLOAD SWAP1 DUP2 ADD PUSH1 0x40 MSTORE DUP1 SWAP3 SWAP2 SWAP1 DUP2 DUP2 MSTORE PUSH1 0x20 ADD DUP3 DUP1 SLOAD DUP1 ISZERO PUSH2 0x9E9 JUMPI PUSH1 0x20 MUL DUP3 ADD SWAP2 SWAP1 PUSH0 MSTORE PUSH1 0x20 PUSH0 KECCAK256 SWAP1 JUMPDEST DUP2 SLOAD PUSH1 0x1 PUSH1 0x1 PUSH1 0xA0 SHL SUB AND DUP2 MSTORE PUSH1 0x1 SWAP1 SWAP2 ADD SWAP1 PUSH1 0x20 ADD DUP1 DUP4 GT PUSH2 0x1EA7 JUMPI POP POP POP POP POP SWAP1 POP SWAP1 JUMP JUMPDEST PUSH0 PUSH2 0x9FE DUP3 PUSH0 PUSH2 0x2C09 JUMP JUMPDEST PUSH2 0x1EE1 PUSH2 0x2C38 JUMP JUMPDEST PUSH1 0x1 PUSH1 0x1 PUSH1 0xA0 SHL SUB DUP3 AND PUSH2 0x1F37 JUMPI PUSH1 0x40 MLOAD PUSH3 0x461BCD PUSH1 0xE5 SHL DUP2 MSTORE PUSH1 0x20 PUSH1 0x4 DUP3 ADD MSTORE PUSH1 0x18 PUSH1 0x24 DUP3 ADD MSTORE PUSH32 0x496E76616C696420737472617465677920616464726573730000000000000000 PUSH1 0x44 DUP3 ADD MSTORE PUSH1 0x64 ADD PUSH2 0xA65 JUMP JUMPDEST PUSH1 0x1 PUSH1 0x1 PUSH1 0xA0 SHL SUB DUP3 DUP2 AND PUSH0 SWAP1 DUP2 MSTORE PUSH1 0x9 PUSH1 0x20 MSTORE PUSH1 0x40 SWAP1 KECCAK256 SLOAD AND ISZERO PUSH2 0x1F9E JUMPI PUSH1 0x40 MLOAD PUSH3 0x461BCD PUSH1 0xE5 SHL DUP2 MSTORE PUSH1 0x20 PUSH1 0x4 DUP3 ADD MSTORE PUSH1 0x17 PUSH1 0x24 DUP3 ADD MSTORE PUSH32 0x537472617465677920616C726561647920657869737473000000000000000000 PUSH1 0x44 DUP3 ADD MSTORE PUSH1 0x64 ADD PUSH2 0xA65 JUMP JUMPDEST PUSH2 0x2710 DUP2 GT ISZERO PUSH2 0x1FC0 JUMPI PUSH1 0x40 MLOAD PUSH3 0x461BCD PUSH1 0xE5 SHL DUP2 MSTORE PUSH1 0x4 ADD PUSH2 0xA65 SWAP1 PUSH2 0x3EDE JUMP JUMPDEST PUSH0 PUSH1 0xC SLOAD DUP3 PUSH1 0xB SLOAD PUSH2 0x1FD2 SWAP2 SWAP1 PUSH2 0x3DA3 JUMP JUMPDEST PUSH2 0x1FDC SWAP2 SWAP1 PUSH2 0x3DA3 JUMP JUMPDEST SWAP1 POP PUSH2 0x2710 DUP2 GT ISZERO PUSH2 0x2000 JUMPI PUSH1 0x40 MLOAD PUSH3 0x461BCD PUSH1 0xE5 SHL DUP2 MSTORE PUSH1 0x4 ADD PUSH2 0xA65 SWAP1 PUSH2 0x3F15 JUMP JUMPDEST DUP3 PUSH1 0x1 PUSH1 0x1 PUSH1 0xA0 SHL SUB AND PUSH4 0x38D52E0F PUSH1 0x40 MLOAD DUP2 PUSH4 0xFFFFFFFF AND PUSH1 0xE0 SHL DUP2 MSTORE PUSH1 0x4 ADD PUSH1 0x20 PUSH1 0x40 MLOAD DUP1 DUP4 SUB DUP2 DUP7 GAS STATICCALL SWAP3 POP POP POP DUP1 ISZERO PUSH2 0x205A JUMPI POP PUSH1 0x40 DUP1 MLOAD PUSH1 0x1F RETURNDATASIZE SWAP1 DUP2 ADD PUSH1 0x1F NOT AND DUP3 ADD SWAP1 SWAP3 MSTORE PUSH2 0x2057 SWAP2 DUP2 ADD SWAP1 PUSH2 0x3F74 JUMP JUMPDEST PUSH1 0x1 JUMPDEST PUSH2 0x20A6 JUMPI PUSH1 0x40 MLOAD PUSH3 0x461BCD PUSH1 0xE5 SHL DUP2 MSTORE PUSH1 0x20 PUSH1 0x4 DUP3 ADD MSTORE PUSH1 0x19 PUSH1 0x24 DUP3 ADD MSTORE PUSH32 0x496E76616C696420737472617465677920636F6E747261637400000000000000 PUSH1 0x44 DUP3 ADD MSTORE PUSH1 0x64 ADD PUSH2 0xA65 JUMP JUMPDEST PUSH32 0x0 PUSH1 0x1 PUSH1 0x1 PUSH1 0xA0 SHL SUB AND DUP2 PUSH1 0x1 PUSH1 0x1 PUSH1 0xA0 SHL SUB AND EQ PUSH2 0x2127 JUMPI PUSH1 0x40 MLOAD PUSH3 0x461BCD PUSH1 0xE5 SHL DUP2 MSTORE PUSH1 0x20 PUSH1 0x4 DUP3 ADD MSTORE PUSH1 0x17 PUSH1 0x24 DUP3 ADD MSTORE PUSH32 0x5374726174656779206173736574206D69736D61746368000000000000000000 PUSH1 0x44 DUP3 ADD MSTORE PUSH1 0x64 ADD PUSH2 0xA65 JUMP JUMPDEST POP PUSH1 0x40 DUP1 MLOAD PUSH1 0xA0 DUP2 ADD DUP3 MSTORE PUSH1 0x1 PUSH1 0x1 PUSH1 0xA0 SHL SUB DUP6 DUP2 AND DUP1 DUP4 MSTORE PUSH1 0x20 DUP1 DUP5 ADD DUP8 DUP2 MSTORE PUSH0 DUP6 DUP8 ADD DUP2 DUP2 MSTORE PUSH1 0x60 DUP8 ADD DUP3 SWAP1 MSTORE TIMESTAMP PUSH1 0x80 DUP9 ADD MSTORE SWAP4 DUP2 MSTORE PUSH1 0x9 SWAP1 SWAP3 MSTORE SWAP5 SWAP1 KECCAK256 DUP4 MLOAD DUP2 SLOAD PUSH1 0x1 PUSH1 0x1 PUSH1 0xA0 SHL SUB NOT AND SWAP4 AND SWAP3 SWAP1 SWAP3 OR DUP3 SSTORE SWAP3 MLOAD PUSH1 0x1 DUP1 DUP4 ADD SWAP2 SWAP1 SWAP2 SSTORE SWAP3 MLOAD PUSH1 0x2 DUP3 ADD DUP1 SLOAD SWAP4 SWAP5 SWAP3 SWAP4 SWAP2 SWAP3 SWAP1 SWAP2 PUSH1 0xFF NOT AND SWAP1 DUP4 PUSH1 0x3 DUP2 GT ISZERO PUSH2 0x21AF JUMPI PUSH2 0x21AF PUSH2 0x3B53 JUMP JUMPDEST MUL OR SWAP1 SSTORE POP PUSH1 0x60 DUP3 ADD MLOAD PUSH1 0x3 DUP3 ADD SSTORE PUSH1 0x80 SWAP1 SWAP2 ADD MLOAD PUSH1 0x4 SWAP1 SWAP2 ADD SSTORE PUSH1 0xA DUP1 SLOAD PUSH1 0x1 DUP2 ADD DUP3 SSTORE PUSH0 SWAP2 DUP3 MSTORE PUSH32 0xC65A7BB8D6351C1CF70C95A316CC6A92839C986682D98BC35F958F4883F9D2A8 ADD DUP1 SLOAD PUSH1 0x1 PUSH1 0x1 PUSH1 0xA0 SHL SUB NOT AND PUSH1 0x1 PUSH1 0x1 PUSH1 0xA0 SHL SUB DUP7 AND OR SWAP1 SSTORE PUSH1 0xB DUP1 SLOAD DUP5 SWAP3 SWAP1 PUSH2 0x2225 SWAP1 DUP5 SWAP1 PUSH2 0x3DA3 JUMP JUMPDEST SWAP1 SWAP2 SSTORE POP POP PUSH1 0x40 MLOAD DUP3 DUP2 MSTORE PUSH1 0x1 PUSH1 0x1 PUSH1 0xA0 SHL SUB DUP5 AND SWAP1 PUSH32 0x2F564A83158AD1831793AD3E69257B52F39ECE5D49CB0D8746708ECB9EF964DA SWAP1 PUSH1 0x20 ADD PUSH1 0x40 MLOAD DUP1 SWAP2 SUB SWAP1 LOG2 POP POP POP JUMP JUMPDEST PUSH1 0x1 PUSH1 0x1 PUSH1 0xA0 SHL SUB DUP2 AND PUSH0 SWAP1 DUP2 MSTORE PUSH1 0x20 DUP2 SWAP1 MSTORE PUSH1 0x40 DUP2 KECCAK256 SLOAD PUSH2 0x9FE SWAP1 PUSH0 PUSH2 0x2BBF JUMP JUMPDEST CALLER PUSH0 SWAP1 DUP2 MSTORE PUSH1 0x7 PUSH1 0x20 MSTORE PUSH1 0x40 SWAP1 KECCAK256 SLOAD PUSH1 0xFF AND DUP1 PUSH2 0x22B6 JUMPI POP PUSH1 0x5 SLOAD PUSH1 0x1 PUSH1 0x1 PUSH1 0xA0 SHL SUB AND CALLER EQ JUMPDEST PUSH2 0x22D2 JUMPI PUSH1 0x40 MLOAD PUSH3 0x461BCD PUSH1 0xE5 SHL DUP2 MSTORE PUSH1 0x4 ADD PUSH2 0xA65 SWAP1 PUSH2 0x3F4C JUMP JUMPDEST PUSH1 0x1 PUSH1 0x1 PUSH1 0xA0 SHL SUB DUP2 DUP2 AND PUSH0 SWAP1 DUP2 MSTORE PUSH1 0x9 PUSH1 0x20 MSTORE PUSH1 0x40 SWAP1 KECCAK256 SLOAD AND PUSH2 0x2308 JUMPI PUSH1 0x40 MLOAD PUSH3 0x461BCD PUSH1 0xE5 SHL DUP2 MSTORE PUSH1 0x4 ADD PUSH2 0xA65 SWAP1 PUSH2 0x3E00 JUMP JUMPDEST PUSH1 0x1 PUSH1 0x1 PUSH1 0x1 PUSH1 0xA0 SHL SUB DUP3 AND PUSH0 SWAP1 DUP2 MSTORE PUSH1 0x9 PUSH1 0x20 MSTORE PUSH1 0x40 SWAP1 KECCAK256 PUSH1 0x2 ADD SLOAD PUSH1 0xFF AND PUSH1 0x3 DUP2 GT ISZERO PUSH2 0x2339 JUMPI PUSH2 0x2339 PUSH2 0x3B53 JUMP JUMPDEST EQ PUSH2 0x2356 JUMPI PUSH1 0x40 MLOAD PUSH3 0x461BCD PUSH1 0xE5 SHL DUP2 MSTORE PUSH1 0x4 ADD PUSH2 0xA65 SWAP1 PUSH2 0x3F8F JUMP JUMPDEST PUSH1 0x1 PUSH1 0x1 PUSH1 0xA0 SHL SUB DUP2 AND PUSH0 DUP2 DUP2 MSTORE PUSH1 0x9 PUSH1 0x20 MSTORE PUSH1 0x40 SWAP1 DUP2 SWAP1 KECCAK256 PUSH1 0x2 SWAP1 DUP2 ADD DUP1 SLOAD PUSH1 0xFF NOT AND DUP3 OR SWAP1 SSTORE SWAP1 MLOAD PUSH32 0x71E4D9FADF21BB369876CEBBD9192D4D84150C2FB6D208D5D68D6FBDF0AABF76 SWAP2 PUSH2 0xDB2 SWAP2 PUSH2 0x3E5E JUMP JUMPDEST PUSH2 0x23B3 PUSH2 0x2C38 JUMP JUMPDEST PUSH1 0x1 PUSH1 0x1 PUSH1 0xA0 SHL SUB DUP2 DUP2 AND PUSH0 SWAP1 DUP2 MSTORE PUSH1 0x9 PUSH1 0x20 MSTORE PUSH1 0x40 SWAP1 KECCAK256 SLOAD AND PUSH2 0x23E9 JUMPI PUSH1 0x40 MLOAD PUSH3 0x461BCD PUSH1 0xE5 SHL DUP2 MSTORE PUSH1 0x4 ADD PUSH2 0xA65 SWAP1 PUSH2 0x3E00 JUMP JUMPDEST PUSH1 0x1 PUSH1 0x1 PUSH1 0xA0 SHL SUB DUP2 AND PUSH0 SWAP1 DUP2 MSTORE PUSH1 0x9 PUSH1 0x20 MSTORE PUSH1 0x40 DUP2 KECCAK256 PUSH1 0x2 ADD SLOAD PUSH1 0xFF AND PUSH1 0x3 DUP2 GT ISZERO PUSH2 0x2418 JUMPI PUSH2 0x2418 PUSH2 0x3B53 JUMP JUMPDEST EQ PUSH2 0xD5B JUMPI PUSH1 0x40 MLOAD PUSH3 0x461BCD PUSH1 0xE5 SHL DUP2 MSTORE PUSH1 0x20 PUSH1 0x4 DUP3 ADD MSTORE PUSH1 0x15 PUSH1 0x24 DUP3 ADD MSTORE PUSH21 0x5374726174656779206E6F7420696E616374697665 PUSH1 0x58 SHL PUSH1 0x44 DUP3 ADD MSTORE PUSH1 0x64 ADD PUSH2 0xA65 JUMP JUMPDEST PUSH1 0x1 PUSH1 0x1 PUSH1 0xA0 SHL SUB DUP2 AND PUSH0 SWAP1 DUP2 MSTORE PUSH1 0x20 DUP2 SWAP1 MSTORE PUSH1 0x40 DUP2 KECCAK256 SLOAD PUSH2 0x9FE JUMP JUMPDEST PUSH1 0x1 PUSH1 0x1 PUSH1 0xA0 SHL SUB DUP2 DUP2 AND PUSH0 SWAP1 DUP2 MSTORE PUSH1 0x9 PUSH1 0x20 MSTORE PUSH1 0x40 SWAP1 KECCAK256 SLOAD AND PUSH2 0x24B0 JUMPI PUSH1 0x40 MLOAD PUSH3 0x461BCD PUSH1 0xE5 SHL DUP2 MSTORE PUSH1 0x4 ADD PUSH2 0xA65 SWAP1 PUSH2 0x3E00 JUMP JUMPDEST PUSH1 0x1 PUSH1 0x1 PUSH1 0x1 PUSH1 0xA0 SHL SUB DUP3 AND PUSH0 SWAP1 DUP2 MSTORE PUSH1 0x9 PUSH1 0x20 MSTORE PUSH1 0x40 SWAP1 KECCAK256 PUSH1 0x2 ADD SLOAD PUSH1 0xFF AND PUSH1 0x3 DUP2 GT ISZERO PUSH2 0x24E1 JUMPI PUSH2 0x24E1 PUSH2 0x3B53 JUMP JUMPDEST EQ PUSH2 0x24FE JUMPI PUSH1 0x40 MLOAD PUSH3 0x461BCD PUSH1 0xE5 SHL DUP2 MSTORE PUSH1 0x4 ADD PUSH2 0xA65 SWAP1 PUSH2 0x3F8F JUMP JUMPDEST PUSH0 DUP1 PUSH0 DUP4 PUSH1 0x1 PUSH1 0x1 PUSH1 0xA0 SHL SUB AND PUSH4 0x2606A10B PUSH1 0x40 MLOAD DUP2 PUSH4 0xFFFFFFFF AND PUSH1 0xE0 SHL DUP2 MSTORE PUSH1 0x4 ADD PUSH1 0x60 PUSH1 0x40 MLOAD DUP1 DUP4 SUB DUP2 PUSH0 DUP8 GAS CALL ISZERO DUP1 ISZERO PUSH2 0x253E JUMPI RETURNDATASIZE PUSH0 DUP1 RETURNDATACOPY RETURNDATASIZE PUSH0 REVERT JUMPDEST POP POP POP POP PUSH1 0x40 MLOAD RETURNDATASIZE PUSH1 0x1F NOT PUSH1 0x1F DUP3 ADD AND DUP3 ADD DUP1 PUSH1 0x40 MSTORE POP DUP2 ADD SWAP1 PUSH2 0x2562 SWAP2 SWAP1 PUSH2 0x3FBC JUMP JUMPDEST PUSH1 0x1 PUSH1 0x1 PUSH1 0xA0 SHL SUB DUP8 AND PUSH0 DUP2 DUP2 MSTORE PUSH1 0x9 PUSH1 0x20 SWAP1 DUP2 MSTORE PUSH1 0x40 SWAP2 DUP3 SWAP1 KECCAK256 TIMESTAMP PUSH1 0x4 SWAP1 SWAP2 ADD SSTORE DUP2 MLOAD DUP7 DUP2 MSTORE SWAP1 DUP2 ADD DUP6 SWAP1 MSTORE SWAP1 DUP2 ADD DUP4 SWAP1 MSTORE SWAP4 SWAP7 POP SWAP2 SWAP5 POP SWAP3 POP SWAP1 PUSH32 0x6FBDF847C78F04EAC7A7A77E1073AF6EEEC604EE0B495240579DCCF57FCF2D88 SWAP1 PUSH1 0x60 ADD PUSH2 0x1723 JUMP JUMPDEST PUSH0 PUSH32 0x0 PUSH1 0x40 MLOAD PUSH4 0x70A08231 PUSH1 0xE0 SHL DUP2 MSTORE ADDRESS PUSH1 0x4 DUP3 ADD MSTORE PUSH1 0x1 PUSH1 0x1 PUSH1 0xA0 SHL SUB SWAP2 SWAP1 SWAP2 AND SWAP1 PUSH4 0x70A08231 SWAP1 PUSH1 0x24 ADD PUSH1 0x20 PUSH1 0x40 MLOAD DUP1 DUP4 SUB DUP2 DUP7 GAS STATICCALL ISZERO DUP1 ISZERO PUSH2 0x262E JUMPI RETURNDATASIZE PUSH0 DUP1 RETURNDATACOPY RETURNDATASIZE PUSH0 REVERT JUMPDEST POP POP POP POP PUSH1 0x40 MLOAD RETURNDATASIZE PUSH1 0x1F NOT PUSH1 0x1F DUP3 ADD AND DUP3 ADD DUP1 PUSH1 0x40 MSTORE POP DUP2 ADD SWAP1 PUSH2 0xE3E SWAP2 SWAP1 PUSH2 0x3D64 JUMP JUMPDEST PUSH2 0x265A PUSH2 0x2C38 JUMP JUMPDEST PUSH1 0x1 PUSH1 0x1 PUSH1 0xA0 SHL SUB DUP2 AND PUSH2 0x2683 JUMPI PUSH1 0x40 MLOAD PUSH4 0x1E4FBDF7 PUSH1 0xE0 SHL DUP2 MSTORE PUSH0 PUSH1 0x4 DUP3 ADD MSTORE PUSH1 0x24 ADD PUSH2 0xA65 JUMP JUMPDEST PUSH2 0x268C DUP2 PUSH2 0x2D78 JUMP JUMPDEST POP JUMP JUMPDEST CALLER PUSH0 SWAP1 DUP2 MSTORE PUSH1 0x7 PUSH1 0x20 MSTORE PUSH1 0x40 SWAP1 KECCAK256 SLOAD PUSH1 0xFF AND DUP1 PUSH2 0x26B6 JUMPI POP PUSH1 0x5 SLOAD PUSH1 0x1 PUSH1 0x1 PUSH1 0xA0 SHL SUB AND CALLER EQ JUMPDEST PUSH2 0x26D2 JUMPI PUSH1 0x40 MLOAD PUSH3 0x461BCD PUSH1 0xE5 SHL DUP2 MSTORE PUSH1 0x4 ADD PUSH2 0xA65 SWAP1 PUSH2 0x3F4C JUMP JUMPDEST PUSH2 0x26DA PUSH2 0x2D2B JUMP JUMPDEST PUSH1 0x1 PUSH1 0x1 PUSH1 0xA0 SHL SUB DUP3 DUP2 AND PUSH0 SWAP1 DUP2 MSTORE PUSH1 0x9 PUSH1 0x20 MSTORE PUSH1 0x40 SWAP1 KECCAK256 SLOAD AND PUSH2 0x2710 JUMPI PUSH1 0x40 MLOAD PUSH3 0x461BCD PUSH1 0xE5 SHL DUP2 MSTORE PUSH1 0x4 ADD PUSH2 0xA65 SWAP1 PUSH2 0x3E00 JUMP JUMPDEST PUSH1 0x1 PUSH1 0x1 PUSH1 0x1 PUSH1 0xA0 SHL SUB DUP4 AND PUSH0 SWAP1 DUP2 MSTORE PUSH1 0x9 PUSH1 0x20 MSTORE PUSH1 0x40 SWAP1 KECCAK256 PUSH1 0x2 ADD SLOAD PUSH1 0xFF AND PUSH1 0x3 DUP2 GT ISZERO PUSH2 0x2741 JUMPI PUSH2 0x2741 PUSH2 0x3B53 JUMP JUMPDEST EQ PUSH2 0x275E JUMPI PUSH1 0x40 MLOAD PUSH3 0x461BCD PUSH1 0xE5 SHL DUP2 MSTORE PUSH1 0x4 ADD PUSH2 0xA65 SWAP1 PUSH2 0x3F8F JUMP JUMPDEST PUSH0 DUP2 GT PUSH2 0x27A7 JUMPI PUSH1 0x40 MLOAD PUSH3 0x461BCD PUSH1 0xE5 SHL DUP2 MSTORE PUSH1 0x20 PUSH1 0x4 DUP3 ADD MSTORE PUSH1 0x17 PUSH1 0x24 DUP3 ADD MSTORE PUSH23 0x416D6F756E74206D75737420626520706F736974697665 PUSH1 0x48 SHL PUSH1 0x44 DUP3 ADD MSTORE PUSH1 0x64 ADD PUSH2 0xA65 JUMP JUMPDEST PUSH0 PUSH32 0x0 PUSH1 0x40 MLOAD PUSH4 0x70A08231 PUSH1 0xE0 SHL DUP2 MSTORE ADDRESS PUSH1 0x4 DUP3 ADD MSTORE SWAP1 SWAP2 POP PUSH0 SWAP1 PUSH1 0x1 PUSH1 0x1 PUSH1 0xA0 SHL SUB DUP4 AND SWAP1 PUSH4 0x70A08231 SWAP1 PUSH1 0x24 ADD PUSH1 0x20 PUSH1 0x40 MLOAD DUP1 DUP4 SUB DUP2 DUP7 GAS STATICCALL ISZERO DUP1 ISZERO PUSH2 0x2810 JUMPI RETURNDATASIZE PUSH0 DUP1 RETURNDATACOPY RETURNDATASIZE PUSH0 REVERT JUMPDEST POP POP POP POP PUSH1 0x40 MLOAD RETURNDATASIZE PUSH1 0x1F NOT PUSH1 0x1F DUP3 ADD AND DUP3 ADD DUP1 PUSH1 0x40 MSTORE POP DUP2 ADD SWAP1 PUSH2 0x2834 SWAP2 SWAP1 PUSH2 0x3D64 JUMP JUMPDEST SWAP1 POP DUP3 DUP2 LT ISZERO PUSH2 0x2886 JUMPI PUSH1 0x40 MLOAD PUSH3 0x461BCD PUSH1 0xE5 SHL DUP2 MSTORE PUSH1 0x20 PUSH1 0x4 DUP3 ADD MSTORE PUSH1 0x1A PUSH1 0x24 DUP3 ADD MSTORE PUSH32 0x496E73756666696369656E74207661756C742062616C616E6365000000000000 PUSH1 0x44 DUP3 ADD MSTORE PUSH1 0x64 ADD PUSH2 0xA65 JUMP JUMPDEST PUSH1 0x40 MLOAD PUSH4 0x95EA7B3 PUSH1 0xE0 SHL DUP2 MSTORE PUSH1 0x1 PUSH1 0x1 PUSH1 0xA0 SHL SUB DUP6 DUP2 AND PUSH1 0x4 DUP4 ADD MSTORE PUSH1 0x24 DUP3 ADD DUP6 SWAP1 MSTORE DUP4 AND SWAP1 PUSH4 0x95EA7B3 SWAP1 PUSH1 0x44 ADD PUSH1 0x20 PUSH1 0x40 MLOAD DUP1 DUP4 SUB DUP2 PUSH0 DUP8 GAS CALL ISZERO DUP1 ISZERO PUSH2 0x28D2 JUMPI RETURNDATASIZE PUSH0 DUP1 RETURNDATACOPY RETURNDATASIZE PUSH0 REVERT JUMPDEST POP POP POP POP PUSH1 0x40 MLOAD RETURNDATASIZE PUSH1 0x1F NOT PUSH1 0x1F DUP3 ADD AND DUP3 ADD DUP1 PUSH1 0x40 MSTORE POP DUP2 ADD SWAP1 PUSH2 0x28F6 SWAP2 SWAP1 PUSH2 0x3FE7 JUMP JUMPDEST POP PUSH1 0x40 MLOAD PUSH4 0xA5E38751 PUSH1 0xE0 SHL DUP2 MSTORE PUSH1 0x4 DUP2 ADD DUP5 SWAP1 MSTORE PUSH1 0x1 PUSH1 0x1 PUSH1 0xA0 SHL SUB DUP6 AND SWAP1 PUSH4 0xA5E38751 SWAP1 PUSH1 0x24 ADD PUSH0 PUSH1 0x40 MLOAD DUP1 DUP4 SUB DUP2 PUSH0 DUP8 DUP1 EXTCODESIZE ISZERO DUP1 ISZERO PUSH2 0x2936 JUMPI PUSH0 DUP1 REVERT JUMPDEST POP GAS CALL ISZERO DUP1 ISZERO PUSH2 0x2948 JUMPI RETURNDATASIZE PUSH0 DUP1 RETURNDATACOPY RETURNDATASIZE PUSH0 REVERT JUMPDEST POP POP PUSH1 0x40 MLOAD PUSH4 0x70A08231 PUSH1 0xE0 SHL DUP2 MSTORE ADDRESS PUSH1 0x4 DUP3 ADD MSTORE PUSH0 SWAP3 POP PUSH1 0x1 PUSH1 0x1 PUSH1 0xA0 SHL SUB DUP6 AND SWAP2 POP PUSH4 0x70A08231 SWAP1 PUSH1 0x24 ADD PUSH1 0x20 PUSH1 0x40 MLOAD DUP1 DUP4 SUB DUP2 DUP7 GAS STATICCALL ISZERO DUP1 ISZERO PUSH2 0x2990 JUMPI RETURNDATASIZE PUSH0 DUP1 RETURNDATACOPY RETURNDATASIZE PUSH0 REVERT JUMPDEST POP POP POP POP PUSH1 0x40 MLOAD RETURNDATASIZE PUSH1 0x1F NOT PUSH1 0x1F DUP3 ADD AND DUP3 ADD DUP1 PUSH1 0x40 MSTORE POP DUP2 ADD SWAP1 PUSH2 0x29B4 SWAP2 SWAP1 PUSH2 0x3D64 JUMP JUMPDEST SWAP1 POP PUSH0 PUSH2 0x29C1 DUP3 DUP5 PUSH2 0x3E37 JUMP JUMPDEST SWAP1 POP PUSH0 DUP2 GT PUSH2 0x2A12 JUMPI PUSH1 0x40 MLOAD PUSH3 0x461BCD PUSH1 0xE5 SHL DUP2 MSTORE PUSH1 0x20 PUSH1 0x4 DUP3 ADD MSTORE PUSH1 0x1B PUSH1 0x24 DUP3 ADD MSTORE PUSH32 0x537472617465677920646964206E6F742070756C6C2066756E64730000000000 PUSH1 0x44 DUP3 ADD MSTORE PUSH1 0x64 ADD PUSH2 0xA65 JUMP JUMPDEST DUP5 DUP2 GT ISZERO PUSH2 0x2A6D JUMPI PUSH1 0x40 MLOAD PUSH3 0x461BCD PUSH1 0xE5 SHL DUP2 MSTORE PUSH1 0x20 PUSH1 0x4 DUP3 ADD MSTORE PUSH1 0x22 PUSH1 0x24 DUP3 ADD MSTORE PUSH32 0x53747261746567792070756C6C6564206D6F7265207468616E20617070726F76 PUSH1 0x44 DUP3 ADD MSTORE PUSH2 0x1959 PUSH1 0xF2 SHL PUSH1 0x64 DUP3 ADD MSTORE PUSH1 0x84 ADD PUSH2 0xA65 JUMP JUMPDEST PUSH1 0x1 PUSH1 0x1 PUSH1 0xA0 SHL SUB DUP7 AND PUSH0 SWAP1 DUP2 MSTORE PUSH1 0x9 PUSH1 0x20 MSTORE PUSH1 0x40 DUP2 KECCAK256 PUSH1 0x3 ADD DUP1 SLOAD DUP4 SWAP3 SWAP1 PUSH2 0x2A97 SWAP1 DUP5 SWAP1 PUSH2 0x3DA3 JUMP JUMPDEST SWAP1 SWAP2 SSTORE POP POP PUSH1 0x40 MLOAD PUSH4 0x6EB1769F PUSH1 0xE1 SHL DUP2 MSTORE ADDRESS PUSH1 0x4 DUP3 ADD MSTORE PUSH1 0x1 PUSH1 0x1 PUSH1 0xA0 SHL SUB DUP8 DUP2 AND PUSH1 0x24 DUP4 ADD MSTORE PUSH0 SWAP2 SWAP1 DUP7 AND SWAP1 PUSH4 0xDD62ED3E SWAP1 PUSH1 0x44 ADD PUSH1 0x20 PUSH1 0x40 MLOAD DUP1 DUP4 SUB DUP2 DUP7 GAS STATICCALL ISZERO DUP1 ISZERO PUSH2 0x2AE9 JUMPI RETURNDATASIZE PUSH0 DUP1 RETURNDATACOPY RETURNDATASIZE PUSH0 REVERT JUMPDEST POP POP POP POP PUSH1 0x40 MLOAD RETURNDATASIZE PUSH1 0x1F NOT PUSH1 0x1F DUP3 ADD AND DUP3 ADD DUP1 PUSH1 0x40 MSTORE POP DUP2 ADD SWAP1 PUSH2 0x2B0D SWAP2 SWAP1 PUSH2 0x3D64 JUMP JUMPDEST GT ISZERO PUSH2 0x2B84 JUMPI PUSH1 0x40 MLOAD PUSH4 0x95EA7B3 PUSH1 0xE0 SHL DUP2 MSTORE PUSH1 0x1 PUSH1 0x1 PUSH1 0xA0 SHL SUB DUP8 DUP2 AND PUSH1 0x4 DUP4 ADD MSTORE PUSH0 PUSH1 0x24 DUP4 ADD MSTORE DUP6 AND SWAP1 PUSH4 0x95EA7B3 SWAP1 PUSH1 0x44 ADD PUSH1 0x20 PUSH1 0x40 MLOAD DUP1 DUP4 SUB DUP2 PUSH0 DUP8 GAS CALL ISZERO DUP1 ISZERO PUSH2 0x2B5E JUMPI RETURNDATASIZE PUSH0 DUP1 RETURNDATACOPY RETURNDATASIZE PUSH0 REVERT JUMPDEST POP POP POP POP PUSH1 0x40 MLOAD RETURNDATASIZE PUSH1 0x1F NOT PUSH1 0x1F DUP3 ADD AND DUP3 ADD DUP1 PUSH1 0x40 MSTORE POP DUP2 ADD SWAP1 PUSH2 0x2B82 SWAP2 SWAP1 PUSH2 0x3FE7 JUMP JUMPDEST POP JUMPDEST DUP6 PUSH1 0x1 PUSH1 0x1 PUSH1 0xA0 SHL SUB AND PUSH32 0x118140C5F65D2D1239952F9FED523588C6B439A75344EE43CF01F74FBEE5E41F DUP3 PUSH1 0x40 MLOAD PUSH2 0x1E41 SWAP2 DUP2 MSTORE PUSH1 0x20 ADD SWAP1 JUMP JUMPDEST PUSH0 PUSH2 0xCA2 PUSH2 0x2BCB PUSH2 0x7CC JUMP JUMPDEST PUSH2 0x2BD6 SWAP1 PUSH1 0x1 PUSH2 0x3DA3 JUMP JUMPDEST PUSH2 0x2BE1 PUSH0 PUSH1 0xA PUSH2 0x40E6 JUMP JUMPDEST PUSH1 0x2 SLOAD PUSH2 0x2BEE SWAP2 SWAP1 PUSH2 0x3DA3 JUMP JUMPDEST DUP6 SWAP2 SWAP1 DUP6 PUSH2 0x2E87 JUMP JUMPDEST PUSH2 0x2C04 DUP4 DUP4 DUP4 PUSH1 0x1 PUSH2 0x2EC9 JUMP JUMPDEST POP POP POP JUMP JUMPDEST PUSH0 PUSH2 0xCA2 PUSH2 0x2C18 DUP3 PUSH1 0xA PUSH2 0x40E6 JUMP JUMPDEST PUSH1 0x2 SLOAD PUSH2 0x2C25 SWAP2 SWAP1 PUSH2 0x3DA3 JUMP JUMPDEST PUSH2 0x2C2D PUSH2 0x7CC JUMP JUMPDEST PUSH2 0x2BEE SWAP1 PUSH1 0x1 PUSH2 0x3DA3 JUMP JUMPDEST PUSH1 0x5 SLOAD PUSH1 0x1 PUSH1 0x1 PUSH1 0xA0 SHL SUB AND CALLER EQ PUSH2 0x1742 JUMPI PUSH1 0x40 MLOAD PUSH4 0x118CDAA7 PUSH1 0xE0 SHL DUP2 MSTORE CALLER PUSH1 0x4 DUP3 ADD MSTORE PUSH1 0x24 ADD PUSH2 0xA65 JUMP JUMPDEST PUSH1 0x1 PUSH1 0x1 PUSH1 0xA0 SHL SUB DUP4 DUP2 AND PUSH0 SWAP1 DUP2 MSTORE PUSH1 0x1 PUSH1 0x20 SWAP1 DUP2 MSTORE PUSH1 0x40 DUP1 DUP4 KECCAK256 SWAP4 DUP7 AND DUP4 MSTORE SWAP3 SWAP1 MSTORE KECCAK256 SLOAD PUSH0 NOT DUP2 LT ISZERO PUSH2 0x2CC8 JUMPI DUP2 DUP2 LT ISZERO PUSH2 0x2CBA JUMPI DUP3 DUP2 DUP4 PUSH1 0x40 MLOAD PUSH4 0x7DC7A0D9 PUSH1 0xE1 SHL DUP2 MSTORE PUSH1 0x4 ADD PUSH2 0xA65 SWAP4 SWAP3 SWAP2 SWAP1 PUSH2 0x40F4 JUMP JUMPDEST PUSH2 0x2CC8 DUP5 DUP5 DUP5 DUP5 SUB PUSH0 PUSH2 0x2EC9 JUMP JUMPDEST POP POP POP POP JUMP JUMPDEST PUSH1 0x1 PUSH1 0x1 PUSH1 0xA0 SHL SUB DUP4 AND PUSH2 0x2CF7 JUMPI PUSH1 0x40 MLOAD PUSH4 0x4B637E8F PUSH1 0xE1 SHL DUP2 MSTORE PUSH0 PUSH1 0x4 DUP3 ADD MSTORE PUSH1 0x24 ADD PUSH2 0xA65 JUMP JUMPDEST PUSH1 0x1 PUSH1 0x1 PUSH1 0xA0 SHL SUB DUP3 AND PUSH2 0x2D20 JUMPI PUSH1 0x40 MLOAD PUSH4 0xEC442F05 PUSH1 0xE0 SHL DUP2 MSTORE PUSH0 PUSH1 0x4 DUP3 ADD MSTORE PUSH1 0x24 ADD PUSH2 0xA65 JUMP JUMPDEST PUSH2 0x2C04 DUP4 DUP4 DUP4 PUSH2 0x2F9B JUMP JUMPDEST PUSH1 0x2 PUSH1 0x6 SLOAD SUB PUSH2 0x2D4E JUMPI PUSH1 0x40 MLOAD PUSH4 0x3EE5AEB5 PUSH1 0xE0 SHL DUP2 MSTORE PUSH1 0x4 ADD PUSH1 0x40 MLOAD DUP1 SWAP2 SUB SWAP1 REVERT JUMPDEST PUSH1 0x2 PUSH1 0x6 SSTORE JUMP JUMPDEST PUSH0 PUSH0 NOT PUSH0 PUSH2 0x2D62 DUP6 PUSH2 0x1ECE JUMP JUMPDEST SWAP1 POP PUSH2 0x2D70 CALLER DUP6 DUP8 DUP5 PUSH2 0x30AE JUMP JUMPDEST SWAP5 SWAP4 POP POP POP POP JUMP JUMPDEST PUSH1 0x5 DUP1 SLOAD PUSH1 0x1 PUSH1 0x1 PUSH1 0xA0 SHL SUB DUP4 DUP2 AND PUSH1 0x1 PUSH1 0x1 PUSH1 0xA0 SHL SUB NOT DUP4 AND DUP2 OR SWAP1 SWAP4 SSTORE PUSH1 0x40 MLOAD SWAP2 AND SWAP2 SWAP1 DUP3 SWAP1 PUSH32 0x8BE0079C531659141344CD1FD0A4F28419497F9722A3DAAFE3B4186F6B6457E0 SWAP1 PUSH0 SWAP1 LOG3 POP POP JUMP JUMPDEST PUSH0 PUSH0 NOT PUSH0 PUSH2 0x2DD6 DUP6 PUSH2 0x19FD JUMP JUMPDEST SWAP1 POP PUSH2 0x2D70 CALLER DUP6 DUP4 DUP9 PUSH2 0x30AE JUMP JUMPDEST PUSH0 DUP1 PUSH2 0x2DEF DUP4 PUSH2 0x226D JUMP JUMPDEST SWAP1 POP DUP1 DUP6 GT ISZERO PUSH2 0x2E18 JUMPI DUP3 DUP6 DUP3 PUSH1 0x40 MLOAD PUSH4 0x3FA733BB PUSH1 0xE2 SHL DUP2 MSTORE PUSH1 0x4 ADD PUSH2 0xA65 SWAP4 SWAP3 SWAP2 SWAP1 PUSH2 0x40F4 JUMP JUMPDEST PUSH0 PUSH2 0x2E22 DUP7 PUSH2 0xA1B JUMP JUMPDEST SWAP1 POP PUSH2 0x2E31 CALLER DUP7 DUP7 DUP10 DUP6 PUSH2 0x3132 JUMP JUMPDEST SWAP6 SWAP5 POP POP POP POP POP JUMP JUMPDEST PUSH0 DUP1 PUSH2 0x2E45 DUP4 PUSH2 0x245D JUMP JUMPDEST SWAP1 POP DUP1 DUP6 GT ISZERO PUSH2 0x2E6E JUMPI DUP3 DUP6 DUP3 PUSH1 0x40 MLOAD PUSH4 0x2E52AFBB PUSH1 0xE2 SHL DUP2 MSTORE PUSH1 0x4 ADD PUSH2 0xA65 SWAP4 SWAP3 SWAP2 SWAP1 PUSH2 0x40F4 JUMP JUMPDEST PUSH0 PUSH2 0x2E78 DUP7 PUSH2 0x9F3 JUMP JUMPDEST SWAP1 POP PUSH2 0x2E31 CALLER DUP7 DUP7 DUP5 DUP11 PUSH2 0x3132 JUMP JUMPDEST PUSH0 PUSH2 0x2EB4 PUSH2 0x2E94 DUP4 PUSH2 0x32D8 JUMP JUMPDEST DUP1 ISZERO PUSH2 0x2EAF JUMPI POP PUSH0 DUP5 DUP1 PUSH2 0x2EAA JUMPI PUSH2 0x2EAA PUSH2 0x3EB7 JUMP JUMPDEST DUP7 DUP9 MULMOD GT JUMPDEST ISZERO ISZERO SWAP1 JUMP JUMPDEST PUSH2 0x2EBF DUP7 DUP7 DUP7 PUSH2 0x3304 JUMP JUMPDEST PUSH2 0x2E31 SWAP2 SWAP1 PUSH2 0x3DA3 JUMP JUMPDEST PUSH1 0x1 PUSH1 0x1 PUSH1 0xA0 SHL SUB DUP5 AND PUSH2 0x2EF2 JUMPI PUSH1 0x40 MLOAD PUSH4 0xE602DF05 PUSH1 0xE0 SHL DUP2 MSTORE PUSH0 PUSH1 0x4 DUP3 ADD MSTORE PUSH1 0x24 ADD PUSH2 0xA65 JUMP JUMPDEST PUSH1 0x1 PUSH1 0x1 PUSH1 0xA0 SHL SUB DUP4 AND PUSH2 0x2F1B JUMPI PUSH1 0x40 MLOAD PUSH4 0x4A1406B1 PUSH1 0xE1 SHL DUP2 MSTORE PUSH0 PUSH1 0x4 DUP3 ADD MSTORE PUSH1 0x24 ADD PUSH2 0xA65 JUMP JUMPDEST PUSH1 0x1 PUSH1 0x1 PUSH1 0xA0 SHL SUB DUP1 DUP6 AND PUSH0 SWAP1 DUP2 MSTORE PUSH1 0x1 PUSH1 0x20 SWAP1 DUP2 MSTORE PUSH1 0x40 DUP1 DUP4 KECCAK256 SWAP4 DUP8 AND DUP4 MSTORE SWAP3 SWAP1 MSTORE KECCAK256 DUP3 SWAP1 SSTORE DUP1 ISZERO PUSH2 0x2CC8 JUMPI DUP3 PUSH1 0x1 PUSH1 0x1 PUSH1 0xA0 SHL SUB AND DUP5 PUSH1 0x1 PUSH1 0x1 PUSH1 0xA0 SHL SUB AND PUSH32 0x8C5BE1E5EBEC7D5BD14F71427D1E84F3DD0314C0F7B2291E5B200AC8C7C3B925 DUP5 PUSH1 0x40 MLOAD PUSH2 0x2F8D SWAP2 DUP2 MSTORE PUSH1 0x20 ADD SWAP1 JUMP JUMPDEST PUSH1 0x40 MLOAD DUP1 SWAP2 SUB SWAP1 LOG3 POP POP POP POP JUMP JUMPDEST PUSH1 0x1 PUSH1 0x1 PUSH1 0xA0 SHL SUB DUP4 AND PUSH2 0x2FC5 JUMPI DUP1 PUSH1 0x2 PUSH0 DUP3 DUP3 SLOAD PUSH2 0x2FBA SWAP2 SWAP1 PUSH2 0x3DA3 JUMP JUMPDEST SWAP1 SWAP2 SSTORE POP PUSH2 0x3022 SWAP1 POP JUMP JUMPDEST PUSH1 0x1 PUSH1 0x1 PUSH1 0xA0 SHL SUB DUP4 AND PUSH0 SWAP1 DUP2 MSTORE PUSH1 0x20 DUP2 SWAP1 MSTORE PUSH1 0x40 SWAP1 KECCAK256 SLOAD DUP2 DUP2 LT ISZERO PUSH2 0x3004 JUMPI DUP4 DUP2 DUP4 PUSH1 0x40 MLOAD PUSH4 0x391434E3 PUSH1 0xE2 SHL DUP2 MSTORE PUSH1 0x4 ADD PUSH2 0xA65 SWAP4 SWAP3 SWAP2 SWAP1 PUSH2 0x40F4 JUMP JUMPDEST PUSH1 0x1 PUSH1 0x1 PUSH1 0xA0 SHL SUB DUP5 AND PUSH0 SWAP1 DUP2 MSTORE PUSH1 0x20 DUP2 SWAP1 MSTORE PUSH1 0x40 SWAP1 KECCAK256 SWAP1 DUP3 SWAP1 SUB SWAP1 SSTORE JUMPDEST PUSH1 0x1 PUSH1 0x1 PUSH1 0xA0 SHL SUB DUP3 AND PUSH2 0x303E JUMPI PUSH1 0x2 DUP1 SLOAD DUP3 SWAP1 SUB SWAP1 SSTORE PUSH2 0x305C JUMP JUMPDEST PUSH1 0x1 PUSH1 0x1 PUSH1 0xA0 SHL SUB DUP3 AND PUSH0 SWAP1 DUP2 MSTORE PUSH1 0x20 DUP2 SWAP1 MSTORE PUSH1 0x40 SWAP1 KECCAK256 DUP1 SLOAD DUP3 ADD SWAP1 SSTORE JUMPDEST DUP2 PUSH1 0x1 PUSH1 0x1 PUSH1 0xA0 SHL SUB AND DUP4 PUSH1 0x1 PUSH1 0x1 PUSH1 0xA0 SHL SUB AND PUSH32 0xDDF252AD1BE2C89B69C2B068FC378DAA952BA7F163C4A11628F55A4DF523B3EF DUP4 PUSH1 0x40 MLOAD PUSH2 0x30A1 SWAP2 DUP2 MSTORE PUSH1 0x20 ADD SWAP1 JUMP JUMPDEST PUSH1 0x40 MLOAD DUP1 SWAP2 SUB SWAP1 LOG3 POP POP POP JUMP JUMPDEST PUSH2 0x30DA PUSH32 0x0 DUP6 ADDRESS DUP6 PUSH2 0x33B4 JUMP JUMPDEST PUSH2 0x30E4 DUP4 DUP3 PUSH2 0x341B JUMP JUMPDEST DUP3 PUSH1 0x1 PUSH1 0x1 PUSH1 0xA0 SHL SUB AND DUP5 PUSH1 0x1 PUSH1 0x1 PUSH1 0xA0 SHL SUB AND PUSH32 0xDCBC1C05240F31FF3AD067EF1EE35CE4997762752E3A095284754544F4C709D7 DUP5 DUP5 PUSH1 0x40 MLOAD PUSH2 0x2F8D SWAP3 SWAP2 SWAP1 SWAP2 DUP3 MSTORE PUSH1 0x20 DUP3 ADD MSTORE PUSH1 0x40 ADD SWAP1 JUMP JUMPDEST PUSH0 PUSH32 0x0 PUSH1 0x40 MLOAD PUSH4 0x70A08231 PUSH1 0xE0 SHL DUP2 MSTORE ADDRESS PUSH1 0x4 DUP3 ADD MSTORE SWAP1 SWAP2 POP PUSH0 SWAP1 PUSH1 0x1 PUSH1 0x1 PUSH1 0xA0 SHL SUB DUP4 AND SWAP1 PUSH4 0x70A08231 SWAP1 PUSH1 0x24 ADD PUSH1 0x20 PUSH1 0x40 MLOAD DUP1 DUP4 SUB DUP2 DUP7 GAS STATICCALL ISZERO DUP1 ISZERO PUSH2 0x319B JUMPI RETURNDATASIZE PUSH0 DUP1 RETURNDATACOPY RETURNDATASIZE PUSH0 REVERT JUMPDEST POP POP POP POP PUSH1 0x40 MLOAD RETURNDATASIZE PUSH1 0x1F NOT PUSH1 0x1F DUP3 ADD AND DUP3 ADD DUP1 PUSH1 0x40 MSTORE POP DUP2 ADD SWAP1 PUSH2 0x31BF SWAP2 SWAP1 PUSH2 0x3D64 JUMP JUMPDEST SWAP1 POP DUP4 DUP2 LT PUSH2 0x31DC JUMPI PUSH2 0x31D5 DUP8 DUP8 DUP8 DUP8 DUP8 PUSH2 0x344F JUMP JUMPDEST POP POP PUSH2 0x32D1 JUMP JUMPDEST PUSH0 PUSH2 0x31E7 DUP3 DUP7 PUSH2 0x3E37 JUMP JUMPDEST SWAP1 POP PUSH2 0x31F2 DUP2 PUSH2 0x350F JUMP JUMPDEST POP PUSH1 0x40 MLOAD PUSH4 0x70A08231 PUSH1 0xE0 SHL DUP2 MSTORE ADDRESS PUSH1 0x4 DUP3 ADD MSTORE DUP6 SWAP1 PUSH1 0x1 PUSH1 0x1 PUSH1 0xA0 SHL SUB DUP6 AND SWAP1 PUSH4 0x70A08231 SWAP1 PUSH1 0x24 ADD PUSH1 0x20 PUSH1 0x40 MLOAD DUP1 DUP4 SUB DUP2 DUP7 GAS STATICCALL ISZERO DUP1 ISZERO PUSH2 0x3237 JUMPI RETURNDATASIZE PUSH0 DUP1 RETURNDATACOPY RETURNDATASIZE PUSH0 REVERT JUMPDEST POP POP POP POP PUSH1 0x40 MLOAD RETURNDATASIZE PUSH1 0x1F NOT PUSH1 0x1F DUP3 ADD AND DUP3 ADD DUP1 PUSH1 0x40 MSTORE POP DUP2 ADD SWAP1 PUSH2 0x325B SWAP2 SWAP1 PUSH2 0x3D64 JUMP JUMPDEST LT ISZERO PUSH2 0x32C0 JUMPI PUSH1 0x40 MLOAD PUSH3 0x461BCD PUSH1 0xE5 SHL DUP2 MSTORE PUSH1 0x20 PUSH1 0x4 DUP3 ADD MSTORE PUSH1 0x2E PUSH1 0x24 DUP3 ADD MSTORE PUSH32 0x496E73756666696369656E74206C697175696469747920696E207661756C7420 PUSH1 0x44 DUP3 ADD MSTORE PUSH14 0x616E642073747261746567696573 PUSH1 0x90 SHL PUSH1 0x64 DUP3 ADD MSTORE PUSH1 0x84 ADD PUSH2 0xA65 JUMP JUMPDEST PUSH2 0x32CD DUP9 DUP9 DUP9 DUP9 DUP9 PUSH2 0x344F JUMP JUMPDEST POP POP POP JUMPDEST POP POP POP POP POP JUMP JUMPDEST PUSH0 PUSH1 0x2 DUP3 PUSH1 0x3 DUP2 GT ISZERO PUSH2 0x32ED JUMPI PUSH2 0x32ED PUSH2 0x3B53 JUMP JUMPDEST PUSH2 0x32F7 SWAP2 SWAP1 PUSH2 0x4115 JUMP JUMPDEST PUSH1 0xFF AND PUSH1 0x1 EQ SWAP1 POP SWAP2 SWAP1 POP JUMP JUMPDEST PUSH0 DUP1 PUSH0 PUSH2 0x3311 DUP7 DUP7 PUSH2 0x395C JUMP JUMPDEST SWAP2 POP SWAP2 POP DUP2 PUSH0 SUB PUSH2 0x3335 JUMPI DUP4 DUP2 DUP2 PUSH2 0x332B JUMPI PUSH2 0x332B PUSH2 0x3EB7 JUMP JUMPDEST DIV SWAP3 POP POP POP PUSH2 0xCA2 JUMP JUMPDEST DUP2 DUP5 GT PUSH2 0x334C JUMPI PUSH2 0x334C PUSH1 0x3 DUP6 ISZERO MUL PUSH1 0x11 XOR PUSH2 0x3978 JUMP JUMPDEST PUSH0 DUP5 DUP7 DUP9 MULMOD PUSH0 DUP7 DUP2 SUB DUP8 AND SWAP7 DUP8 SWAP1 DIV SWAP7 PUSH1 0x2 PUSH1 0x3 DUP10 MUL DUP2 XOR DUP1 DUP11 MUL DUP3 SUB MUL DUP1 DUP11 MUL DUP3 SUB MUL DUP1 DUP11 MUL DUP3 SUB MUL DUP1 DUP11 MUL DUP3 SUB MUL DUP1 DUP11 MUL DUP3 SUB MUL DUP1 DUP11 MUL SWAP1 SWAP2 SUB MUL SWAP2 DUP2 SWAP1 SUB DUP2 SWAP1 DIV PUSH1 0x1 ADD DUP6 DUP5 GT SWAP1 SWAP7 SUB SWAP6 SWAP1 SWAP6 MUL SWAP2 SWAP1 SWAP4 SUB SWAP4 SWAP1 SWAP4 DIV SWAP3 SWAP1 SWAP3 OR MUL SWAP2 POP POP SWAP4 SWAP3 POP POP POP JUMP JUMPDEST PUSH1 0x40 MLOAD PUSH1 0x1 PUSH1 0x1 PUSH1 0xA0 SHL SUB DUP5 DUP2 AND PUSH1 0x24 DUP4 ADD MSTORE DUP4 DUP2 AND PUSH1 0x44 DUP4 ADD MSTORE PUSH1 0x64 DUP3 ADD DUP4 SWAP1 MSTORE PUSH2 0x2CC8 SWAP2 DUP7 SWAP2 DUP3 AND SWAP1 PUSH4 0x23B872DD SWAP1 PUSH1 0x84 ADD JUMPDEST PUSH1 0x40 MLOAD PUSH1 0x20 DUP2 DUP4 SUB SUB DUP2 MSTORE SWAP1 PUSH1 0x40 MSTORE SWAP2 POP PUSH1 0xE0 SHL PUSH1 0x20 DUP3 ADD DUP1 MLOAD PUSH1 0x1 PUSH1 0x1 PUSH1 0xE0 SHL SUB DUP4 DUP2 DUP4 AND OR DUP4 MSTORE POP POP POP POP PUSH2 0x3989 JUMP JUMPDEST PUSH1 0x1 PUSH1 0x1 PUSH1 0xA0 SHL SUB DUP3 AND PUSH2 0x3444 JUMPI PUSH1 0x40 MLOAD PUSH4 0xEC442F05 PUSH1 0xE0 SHL DUP2 MSTORE PUSH0 PUSH1 0x4 DUP3 ADD MSTORE PUSH1 0x24 ADD PUSH2 0xA65 JUMP JUMPDEST PUSH2 0x1E57 PUSH0 DUP4 DUP4 PUSH2 0x2F9B JUMP JUMPDEST DUP3 PUSH1 0x1 PUSH1 0x1 PUSH1 0xA0 SHL SUB AND DUP6 PUSH1 0x1 PUSH1 0x1 PUSH1 0xA0 SHL SUB AND EQ PUSH2 0x3473 JUMPI PUSH2 0x3473 DUP4 DUP7 DUP4 PUSH2 0x2C65 JUMP JUMPDEST PUSH2 0x347D DUP4 DUP3 PUSH2 0x39F5 JUMP JUMPDEST PUSH2 0x34A8 PUSH32 0x0 DUP6 DUP5 PUSH2 0x3A29 JUMP JUMPDEST DUP3 PUSH1 0x1 PUSH1 0x1 PUSH1 0xA0 SHL SUB AND DUP5 PUSH1 0x1 PUSH1 0x1 PUSH1 0xA0 SHL SUB AND DUP7 PUSH1 0x1 PUSH1 0x1 PUSH1 0xA0 SHL SUB AND PUSH32 0xFBDE797D201C681B91056529119E0B02407C7BB96A4A2C75C01FC9667232C8DB DUP6 DUP6 PUSH1 0x40 MLOAD PUSH2 0x3500 SWAP3 SWAP2 SWAP1 SWAP2 DUP3 MSTORE PUSH1 0x20 DUP3 ADD MSTORE PUSH1 0x40 ADD SWAP1 JUMP JUMPDEST PUSH1 0x40 MLOAD DUP1 SWAP2 SUB SWAP1 LOG4 POP POP POP POP POP JUMP JUMPDEST PUSH1 0xA SLOAD PUSH0 SWAP1 DUP2 SWAP1 DUP2 SWAP1 PUSH8 0xFFFFFFFFFFFFFFFF DUP2 GT ISZERO PUSH2 0x3530 JUMPI PUSH2 0x3530 PUSH2 0x3E8C JUMP JUMPDEST PUSH1 0x40 MLOAD SWAP1 DUP1 DUP3 MSTORE DUP1 PUSH1 0x20 MUL PUSH1 0x20 ADD DUP3 ADD PUSH1 0x40 MSTORE DUP1 ISZERO PUSH2 0x3559 JUMPI DUP2 PUSH1 0x20 ADD PUSH1 0x20 DUP3 MUL DUP1 CALLDATASIZE DUP4 CALLDATACOPY ADD SWAP1 POP JUMPDEST POP SWAP1 POP PUSH0 DUP1 JUMPDEST PUSH1 0xA SLOAD DUP2 LT ISZERO PUSH2 0x3654 JUMPI PUSH0 PUSH1 0xA DUP3 DUP2 SLOAD DUP2 LT PUSH2 0x357D JUMPI PUSH2 0x357D PUSH2 0x3D7B JUMP JUMPDEST PUSH0 SWAP2 DUP3 MSTORE PUSH1 0x20 DUP1 DUP4 KECCAK256 SWAP1 SWAP2 ADD SLOAD PUSH1 0x1 PUSH1 0x1 PUSH1 0xA0 SHL SUB AND DUP1 DUP4 MSTORE PUSH1 0x9 SWAP1 SWAP2 MSTORE PUSH1 0x40 SWAP1 SWAP2 KECCAK256 SWAP1 SWAP2 POP PUSH1 0x1 PUSH1 0x2 DUP3 ADD SLOAD PUSH1 0xFF AND PUSH1 0x3 DUP2 GT ISZERO PUSH2 0x35BE JUMPI PUSH2 0x35BE PUSH2 0x3B53 JUMP JUMPDEST EQ DUP1 PUSH2 0x35E1 JUMPI POP PUSH1 0x2 DUP1 DUP3 ADD SLOAD PUSH1 0xFF AND PUSH1 0x3 DUP2 GT ISZERO PUSH2 0x35DF JUMPI PUSH2 0x35DF PUSH2 0x3B53 JUMP JUMPDEST EQ JUMPDEST DUP1 ISZERO PUSH2 0x35F0 JUMPI POP PUSH0 DUP2 PUSH1 0x3 ADD SLOAD GT JUMPDEST ISZERO PUSH2 0x363F JUMPI PUSH1 0x3 DUP2 ADD SLOAD PUSH2 0x3604 SWAP1 DUP8 PUSH2 0x3DA3 JUMP JUMPDEST SWAP6 POP DUP2 DUP6 DUP6 DUP2 MLOAD DUP2 LT PUSH2 0x3619 JUMPI PUSH2 0x3619 PUSH2 0x3D7B JUMP JUMPDEST PUSH1 0x1 PUSH1 0x1 PUSH1 0xA0 SHL SUB SWAP1 SWAP3 AND PUSH1 0x20 SWAP3 DUP4 MUL SWAP2 SWAP1 SWAP2 ADD SWAP1 SWAP2 ADD MSTORE DUP4 PUSH2 0x363B DUP2 PUSH2 0x3DB6 JUMP JUMPDEST SWAP5 POP POP JUMPDEST POP POP DUP1 DUP1 PUSH2 0x364C SWAP1 PUSH2 0x3DB6 JUMP JUMPDEST SWAP2 POP POP PUSH2 0x355F JUMP JUMPDEST POP DUP3 ISZERO DUP1 PUSH2 0x3660 JUMPI POP DUP1 ISZERO JUMPDEST ISZERO PUSH2 0x366F JUMPI POP PUSH0 SWAP5 SWAP4 POP POP POP POP JUMP JUMPDEST PUSH0 DUP6 PUSH32 0x0 DUP3 JUMPDEST DUP5 DUP2 LT ISZERO PUSH2 0x394F JUMPI PUSH0 DUP7 DUP3 DUP2 MLOAD DUP2 LT PUSH2 0x36AF JUMPI PUSH2 0x36AF PUSH2 0x3D7B JUMP JUMPDEST PUSH1 0x20 SWAP1 DUP2 MUL SWAP2 SWAP1 SWAP2 ADD DUP2 ADD MLOAD PUSH1 0x1 PUSH1 0x1 PUSH1 0xA0 SHL SUB DUP2 AND PUSH0 SWAP1 DUP2 MSTORE PUSH1 0x9 SWAP1 SWAP3 MSTORE PUSH1 0x40 DUP3 KECCAK256 SWAP1 SWAP3 POP SWAP1 PUSH2 0x36E1 PUSH1 0x1 DUP10 PUSH2 0x3E37 JUMP JUMPDEST DUP5 SUB PUSH2 0x36EE JUMPI POP DUP5 PUSH2 0x370C JUMP JUMPDEST DUP10 DUP13 DUP4 PUSH1 0x3 ADD SLOAD PUSH2 0x36FF SWAP2 SWAP1 PUSH2 0x3EA0 JUMP JUMPDEST PUSH2 0x3709 SWAP2 SWAP1 PUSH2 0x3ECB JUMP JUMPDEST SWAP1 POP JUMPDEST DUP2 PUSH1 0x3 ADD SLOAD DUP2 GT ISZERO PUSH2 0x371F JUMPI POP PUSH1 0x3 DUP2 ADD SLOAD JUMPDEST DUP1 ISZERO DUP1 PUSH2 0x372A JUMPI POP DUP6 ISZERO JUMPDEST ISZERO PUSH2 0x3737 JUMPI POP POP POP PUSH2 0x393D JUMP JUMPDEST PUSH1 0x40 MLOAD PUSH4 0x70A08231 PUSH1 0xE0 SHL DUP2 MSTORE ADDRESS PUSH1 0x4 DUP3 ADD MSTORE PUSH0 SWAP1 PUSH1 0x1 PUSH1 0x1 PUSH1 0xA0 SHL SUB DUP8 AND SWAP1 PUSH4 0x70A08231 SWAP1 PUSH1 0x24 ADD PUSH1 0x20 PUSH1 0x40 MLOAD DUP1 DUP4 SUB DUP2 DUP7 GAS STATICCALL ISZERO DUP1 ISZERO PUSH2 0x377B JUMPI RETURNDATASIZE PUSH0 DUP1 RETURNDATACOPY RETURNDATASIZE PUSH0 REVERT JUMPDEST POP POP POP POP PUSH1 0x40 MLOAD RETURNDATASIZE PUSH1 0x1F NOT PUSH1 0x1F DUP3 ADD AND DUP3 ADD DUP1 PUSH1 0x40 MSTORE POP DUP2 ADD SWAP1 PUSH2 0x379F SWAP2 SWAP1 PUSH2 0x3D64 JUMP JUMPDEST PUSH1 0x40 MLOAD PUSH3 0x7B8A67 PUSH1 0xE1 SHL DUP2 MSTORE PUSH1 0x4 DUP2 ADD DUP5 SWAP1 MSTORE ADDRESS PUSH1 0x24 DUP3 ADD MSTORE SWAP1 SWAP2 POP PUSH1 0x1 PUSH1 0x1 PUSH1 0xA0 SHL SUB DUP6 AND SWAP1 PUSH3 0xF714CE SWAP1 PUSH1 0x44 ADD PUSH1 0x20 PUSH1 0x40 MLOAD DUP1 DUP4 SUB DUP2 PUSH0 DUP8 GAS CALL SWAP3 POP POP POP DUP1 ISZERO PUSH2 0x3808 JUMPI POP PUSH1 0x40 DUP1 MLOAD PUSH1 0x1F RETURNDATASIZE SWAP1 DUP2 ADD PUSH1 0x1F NOT AND DUP3 ADD SWAP1 SWAP3 MSTORE PUSH2 0x3805 SWAP2 DUP2 ADD SWAP1 PUSH2 0x3D64 JUMP JUMPDEST PUSH1 0x1 JUMPDEST PUSH2 0x3815 JUMPI POP POP POP POP PUSH2 0x393D JUMP JUMPDEST PUSH1 0x40 MLOAD PUSH4 0x70A08231 PUSH1 0xE0 SHL DUP2 MSTORE ADDRESS PUSH1 0x4 DUP3 ADD MSTORE PUSH0 SWAP1 PUSH1 0x1 PUSH1 0x1 PUSH1 0xA0 SHL SUB DUP10 AND SWAP1 PUSH4 0x70A08231 SWAP1 PUSH1 0x24 ADD PUSH1 0x20 PUSH1 0x40 MLOAD DUP1 DUP4 SUB DUP2 DUP7 GAS STATICCALL ISZERO DUP1 ISZERO PUSH2 0x3859 JUMPI RETURNDATASIZE PUSH0 DUP1 RETURNDATACOPY RETURNDATASIZE PUSH0 REVERT JUMPDEST POP POP POP POP PUSH1 0x40 MLOAD RETURNDATASIZE PUSH1 0x1F NOT PUSH1 0x1F DUP3 ADD AND DUP3 ADD DUP1 PUSH1 0x40 MSTORE POP DUP2 ADD SWAP1 PUSH2 0x387D SWAP2 SWAP1 PUSH2 0x3D64 JUMP JUMPDEST SWAP1 POP DUP3 DUP2 GT ISZERO PUSH2 0x3936 JUMPI PUSH0 PUSH2 0x3892 DUP5 DUP4 PUSH2 0x3E37 JUMP JUMPDEST SWAP1 POP DUP1 DUP7 PUSH1 0x3 ADD SLOAD LT PUSH2 0x38BD JUMPI DUP1 DUP7 PUSH1 0x3 ADD PUSH0 DUP3 DUP3 SLOAD PUSH2 0x38B2 SWAP2 SWAP1 PUSH2 0x3E37 JUMP JUMPDEST SWAP1 SWAP2 SSTORE POP PUSH2 0x38C4 SWAP1 POP JUMP JUMPDEST PUSH0 PUSH1 0x3 DUP8 ADD SSTORE JUMPDEST PUSH2 0x38CE DUP2 DUP13 PUSH2 0x3DA3 JUMP JUMPDEST SWAP11 POP PUSH0 DUP11 DUP3 LT PUSH2 0x38DE JUMPI DUP11 PUSH2 0x38E0 JUMP JUMPDEST DUP2 JUMPDEST SWAP1 POP PUSH2 0x38EC DUP2 DUP13 PUSH2 0x3E37 JUMP JUMPDEST PUSH1 0x40 DUP1 MLOAD DUP9 DUP2 MSTORE PUSH1 0x20 DUP2 ADD DUP8 SWAP1 MSTORE SWAP2 SWAP13 POP PUSH1 0x1 PUSH1 0x1 PUSH1 0xA0 SHL SUB DUP11 AND SWAP2 PUSH32 0x490DFB4CE52333704763AEE75EDBA596CEAAB548BCCAFC900F79C2B9F6381B08 SWAP2 ADD PUSH1 0x40 MLOAD DUP1 SWAP2 SUB SWAP1 LOG2 POP POP JUMPDEST POP POP POP POP POP POP JUMPDEST DUP1 PUSH2 0x3947 DUP2 PUSH2 0x3DB6 JUMP JUMPDEST SWAP2 POP POP PUSH2 0x3694 JUMP JUMPDEST POP SWAP2 SWAP8 SWAP7 POP POP POP POP POP POP POP JUMP JUMPDEST PUSH0 DUP1 PUSH0 NOT DUP4 DUP6 MULMOD SWAP4 SWAP1 SWAP3 MUL DUP1 DUP5 LT SWAP4 DUP2 SWAP1 SUB SWAP4 SWAP1 SWAP4 SUB SWAP4 SWAP2 POP POP JUMP JUMPDEST PUSH4 0x4E487B71 PUSH0 MSTORE DUP1 PUSH1 0x20 MSTORE PUSH1 0x24 PUSH1 0x1C REVERT JUMPDEST PUSH0 DUP1 PUSH1 0x20 PUSH0 DUP5 MLOAD PUSH1 0x20 DUP7 ADD PUSH0 DUP9 GAS CALL DUP1 PUSH2 0x39A8 JUMPI PUSH1 0x40 MLOAD RETURNDATASIZE PUSH0 DUP3 RETURNDATACOPY RETURNDATASIZE DUP2 REVERT JUMPDEST POP POP PUSH0 MLOAD RETURNDATASIZE SWAP2 POP DUP2 ISZERO PUSH2 0x39BF JUMPI DUP1 PUSH1 0x1 EQ ISZERO PUSH2 0x39CC JUMP JUMPDEST PUSH1 0x1 PUSH1 0x1 PUSH1 0xA0 SHL SUB DUP5 AND EXTCODESIZE ISZERO JUMPDEST ISZERO PUSH2 0x2CC8 JUMPI PUSH1 0x40 MLOAD PUSH4 0x5274AFE7 PUSH1 0xE0 SHL DUP2 MSTORE PUSH1 0x1 PUSH1 0x1 PUSH1 0xA0 SHL SUB DUP6 AND PUSH1 0x4 DUP3 ADD MSTORE PUSH1 0x24 ADD PUSH2 0xA65 JUMP JUMPDEST PUSH1 0x1 PUSH1 0x1 PUSH1 0xA0 SHL SUB DUP3 AND PUSH2 0x3A1E JUMPI PUSH1 0x40 MLOAD PUSH4 0x4B637E8F PUSH1 0xE1 SHL DUP2 MSTORE PUSH0 PUSH1 0x4 DUP3 ADD MSTORE PUSH1 0x24 ADD PUSH2 0xA65 JUMP JUMPDEST PUSH2 0x1E57 DUP3 PUSH0 DUP4 PUSH2 0x2F9B JUMP JUMPDEST PUSH1 0x40 MLOAD PUSH1 0x1 PUSH1 0x1 PUSH1 0xA0 SHL SUB DUP4 DUP2 AND PUSH1 0x24 DUP4 ADD MSTORE PUSH1 0x44 DUP3 ADD DUP4 SWAP1 MSTORE PUSH2 0x2C04 SWAP2 DUP6 SWAP2 DUP3 AND SWAP1 PUSH4 0xA9059CBB SWAP1 PUSH1 0x64 ADD PUSH2 0x33E9 JUMP JUMPDEST PUSH0 PUSH1 0x20 DUP1 DUP4 MSTORE DUP4 MLOAD DUP1 DUP3 DUP6 ADD MSTORE PUSH0 JUMPDEST DUP2 DUP2 LT ISZERO PUSH2 0x3A85 JUMPI DUP6 DUP2 ADD DUP4 ADD MLOAD DUP6 DUP3 ADD PUSH1 0x40 ADD MSTORE DUP3 ADD PUSH2 0x3A69 JUMP JUMPDEST POP PUSH0 PUSH1 0x40 DUP3 DUP7 ADD ADD MSTORE PUSH1 0x40 PUSH1 0x1F NOT PUSH1 0x1F DUP4 ADD AND DUP6 ADD ADD SWAP3 POP POP POP SWAP3 SWAP2 POP POP JUMP JUMPDEST PUSH0 PUSH1 0x20 DUP3 DUP5 SUB SLT ISZERO PUSH2 0x3AB5 JUMPI PUSH0 DUP1 REVERT JUMPDEST POP CALLDATALOAD SWAP2 SWAP1 POP JUMP JUMPDEST PUSH1 0x1 PUSH1 0x1 PUSH1 0xA0 SHL SUB DUP2 AND DUP2 EQ PUSH2 0x268C JUMPI PUSH0 DUP1 REVERT JUMPDEST PUSH0 DUP1 PUSH1 0x40 DUP4 DUP6 SUB SLT ISZERO PUSH2 0x3AE1 JUMPI PUSH0 DUP1 REVERT JUMPDEST DUP3 CALLDATALOAD PUSH2 0x3AEC DUP2 PUSH2 0x3ABC JUMP JUMPDEST SWAP5 PUSH1 0x20 SWAP4 SWAP1 SWAP4 ADD CALLDATALOAD SWAP4 POP POP POP JUMP JUMPDEST PUSH0 PUSH1 0x20 DUP3 DUP5 SUB SLT ISZERO PUSH2 0x3B0A JUMPI PUSH0 DUP1 REVERT JUMPDEST DUP2 CALLDATALOAD PUSH2 0xCA2 DUP2 PUSH2 0x3ABC JUMP JUMPDEST PUSH0 DUP1 PUSH0 PUSH1 0x60 DUP5 DUP7 SUB SLT ISZERO PUSH2 0x3B27 JUMPI PUSH0 DUP1 REVERT JUMPDEST DUP4 CALLDATALOAD PUSH2 0x3B32 DUP2 PUSH2 0x3ABC JUMP JUMPDEST SWAP3 POP PUSH1 0x20 DUP5 ADD CALLDATALOAD PUSH2 0x3B42 DUP2 PUSH2 0x3ABC JUMP JUMPDEST SWAP3 SWAP6 SWAP3 SWAP5 POP POP POP PUSH1 0x40 SWAP2 SWAP1 SWAP2 ADD CALLDATALOAD SWAP1 JUMP JUMPDEST PUSH4 0x4E487B71 PUSH1 0xE0 SHL PUSH0 MSTORE PUSH1 0x21 PUSH1 0x4 MSTORE PUSH1 0x24 PUSH0 REVERT JUMPDEST PUSH1 0x4 DUP2 LT PUSH2 0x3B83 JUMPI PUSH4 0x4E487B71 PUSH1 0xE0 SHL PUSH0 MSTORE PUSH1 0x21 PUSH1 0x4 MSTORE PUSH1 0x24 PUSH0 REVERT JUMPDEST SWAP1 MSTORE JUMP JUMPDEST PUSH1 0x1 PUSH1 0x1 PUSH1 0xA0 SHL SUB DUP7 AND DUP2 MSTORE PUSH1 0x20 DUP2 ADD DUP6 SWAP1 MSTORE PUSH1 0xA0 DUP2 ADD PUSH2 0x3BAB PUSH1 0x40 DUP4 ADD DUP7 PUSH2 0x3B67 JUMP JUMPDEST PUSH1 0x60 DUP3 ADD SWAP4 SWAP1 SWAP4 MSTORE PUSH1 0x80 ADD MSTORE SWAP4 SWAP3 POP POP POP JUMP JUMPDEST PUSH0 DUP2 MLOAD DUP1 DUP5 MSTORE PUSH1 0x20 DUP1 DUP6 ADD SWAP5 POP DUP1 DUP5 ADD PUSH0 JUMPDEST DUP4 DUP2 LT ISZERO PUSH2 0x3BF5 JUMPI DUP2 MLOAD PUSH1 0x1 PUSH1 0x1 PUSH1 0xA0 SHL SUB AND DUP8 MSTORE SWAP6 DUP3 ADD SWAP6 SWAP1 DUP3 ADD SWAP1 PUSH1 0x1 ADD PUSH2 0x3BD0 JUMP JUMPDEST POP SWAP5 SWAP6 SWAP5 POP POP POP POP POP JUMP JUMPDEST PUSH0 DUP2 MLOAD DUP1 DUP5 MSTORE PUSH1 0x20 DUP1 DUP6 ADD SWAP5 POP DUP1 DUP5 ADD PUSH0 JUMPDEST DUP4 DUP2 LT ISZERO PUSH2 0x3BF5 JUMPI DUP2 MLOAD DUP8 MSTORE SWAP6 DUP3 ADD SWAP6 SWAP1 DUP3 ADD SWAP1 PUSH1 0x1 ADD PUSH2 0x3C12 JUMP JUMPDEST PUSH1 0x60 DUP2 MSTORE PUSH0 PUSH2 0x3C40 PUSH1 0x60 DUP4 ADD DUP7 PUSH2 0x3BBE JUMP JUMPDEST DUP3 DUP2 SUB PUSH1 0x20 DUP5 ADD MSTORE PUSH2 0x3C52 DUP2 DUP7 PUSH2 0x3C00 JUMP JUMPDEST SWAP1 POP DUP3 DUP2 SUB PUSH1 0x40 DUP5 ADD MSTORE PUSH2 0x3C66 DUP2 DUP6 PUSH2 0x3C00 JUMP JUMPDEST SWAP7 SWAP6 POP POP POP POP POP POP JUMP JUMPDEST DUP2 MLOAD PUSH1 0x1 PUSH1 0x1 PUSH1 0xA0 SHL SUB AND DUP2 MSTORE PUSH1 0x20 DUP1 DUP4 ADD MLOAD SWAP1 DUP3 ADD MSTORE PUSH1 0x40 DUP1 DUP4 ADD MLOAD PUSH1 0xA0 DUP4 ADD SWAP2 PUSH2 0x3C9E SWAP1 DUP5 ADD DUP3 PUSH2 0x3B67 JUMP JUMPDEST POP PUSH1 0x60 DUP4 ADD MLOAD PUSH1 0x60 DUP4 ADD MSTORE PUSH1 0x80 DUP4 ADD MLOAD PUSH1 0x80 DUP4 ADD MSTORE SWAP3 SWAP2 POP POP JUMP JUMPDEST PUSH1 0x20 DUP2 MSTORE PUSH0 PUSH2 0xCA2 PUSH1 0x20 DUP4 ADD DUP5 PUSH2 0x3BBE JUMP JUMPDEST PUSH0 DUP1 PUSH1 0x40 DUP4 DUP6 SUB SLT ISZERO PUSH2 0x3CDC JUMPI PUSH0 DUP1 REVERT JUMPDEST DUP3 CALLDATALOAD SWAP2 POP PUSH1 0x20 DUP4 ADD CALLDATALOAD PUSH2 0x3CEE DUP2 PUSH2 0x3ABC JUMP JUMPDEST DUP1 SWAP2 POP POP SWAP3 POP SWAP3 SWAP1 POP JUMP JUMPDEST PUSH0 DUP1 PUSH0 PUSH1 0x60 DUP5 DUP7 SUB SLT ISZERO PUSH2 0x3D0B JUMPI PUSH0 DUP1 REVERT JUMPDEST DUP4 CALLDATALOAD SWAP3 POP PUSH1 0x20 DUP5 ADD CALLDATALOAD PUSH2 0x3D1D DUP2 PUSH2 0x3ABC JUMP JUMPDEST SWAP2 POP PUSH1 0x40 DUP5 ADD CALLDATALOAD PUSH2 0x3D2D DUP2 PUSH2 0x3ABC JUMP JUMPDEST DUP1 SWAP2 POP POP SWAP3 POP SWAP3 POP SWAP3 JUMP JUMPDEST PUSH0 DUP1 PUSH1 0x40 DUP4 DUP6 SUB SLT ISZERO PUSH2 0x3D49 JUMPI PUSH0 DUP1 REVERT JUMPDEST DUP3 CALLDATALOAD PUSH2 0x3D54 DUP2 PUSH2 0x3ABC JUMP JUMPDEST SWAP2 POP PUSH1 0x20 DUP4 ADD CALLDATALOAD PUSH2 0x3CEE DUP2 PUSH2 0x3ABC JUMP JUMPDEST PUSH0 PUSH1 0x20 DUP3 DUP5 SUB SLT ISZERO PUSH2 0x3D74 JUMPI PUSH0 DUP1 REVERT JUMPDEST POP MLOAD SWAP2 SWAP1 POP JUMP JUMPDEST PUSH4 0x4E487B71 PUSH1 0xE0 SHL PUSH0 MSTORE PUSH1 0x32 PUSH1 0x4 MSTORE PUSH1 0x24 PUSH0 REVERT JUMPDEST PUSH4 0x4E487B71 PUSH1 0xE0 SHL PUSH0 MSTORE PUSH1 0x11 PUSH1 0x4 MSTORE PUSH1 0x24 PUSH0 REVERT JUMPDEST DUP1 DUP3 ADD DUP1 DUP3 GT ISZERO PUSH2 0x9FE JUMPI PUSH2 0x9FE PUSH2 0x3D8F JUMP JUMPDEST PUSH0 PUSH1 0x1 DUP3 ADD PUSH2 0x3DC7 JUMPI PUSH2 0x3DC7 PUSH2 0x3D8F JUMP JUMPDEST POP PUSH1 0x1 ADD SWAP1 JUMP JUMPDEST PUSH1 0x1 DUP2 DUP2 SHR SWAP1 DUP3 AND DUP1 PUSH2 0x3DE2 JUMPI PUSH1 0x7F DUP3 AND SWAP2 POP JUMPDEST PUSH1 0x20 DUP3 LT DUP2 SUB PUSH2 0x95D JUMPI PUSH4 0x4E487B71 PUSH1 0xE0 SHL PUSH0 MSTORE PUSH1 0x22 PUSH1 0x4 MSTORE PUSH1 0x24 PUSH0 REVERT JUMPDEST PUSH1 0x20 DUP1 DUP3 MSTORE PUSH1 0x17 SWAP1 DUP3 ADD MSTORE PUSH32 0x537472617465677920646F6573206E6F74206578697374000000000000000000 PUSH1 0x40 DUP3 ADD MSTORE PUSH1 0x60 ADD SWAP1 JUMP JUMPDEST DUP2 DUP2 SUB DUP2 DUP2 GT ISZERO PUSH2 0x9FE JUMPI PUSH2 0x9FE PUSH2 0x3D8F JUMP JUMPDEST PUSH4 0x4E487B71 PUSH1 0xE0 SHL PUSH0 MSTORE PUSH1 0x31 PUSH1 0x4 MSTORE PUSH1 0x24 PUSH0 REVERT JUMPDEST PUSH1 0x20 DUP2 ADD PUSH2 0x9FE DUP3 DUP5 PUSH2 0x3B67 JUMP JUMPDEST PUSH0 PUSH1 0x20 DUP3 DUP5 SUB SLT ISZERO PUSH2 0x3E7C JUMPI PUSH0 DUP1 REVERT JUMPDEST DUP2 MLOAD PUSH1 0xFF DUP2 AND DUP2 EQ PUSH2 0xCA2 JUMPI PUSH0 DUP1 REVERT JUMPDEST PUSH4 0x4E487B71 PUSH1 0xE0 SHL PUSH0 MSTORE PUSH1 0x41 PUSH1 0x4 MSTORE PUSH1 0x24 PUSH0 REVERT JUMPDEST DUP1 DUP3 MUL DUP2 ISZERO DUP3 DUP3 DIV DUP5 EQ OR PUSH2 0x9FE JUMPI PUSH2 0x9FE PUSH2 0x3D8F JUMP JUMPDEST PUSH4 0x4E487B71 PUSH1 0xE0 SHL PUSH0 MSTORE PUSH1 0x12 PUSH1 0x4 MSTORE PUSH1 0x24 PUSH0 REVERT JUMPDEST PUSH0 DUP3 PUSH2 0x3ED9 JUMPI PUSH2 0x3ED9 PUSH2 0x3EB7 JUMP JUMPDEST POP DIV SWAP1 JUMP JUMPDEST PUSH1 0x20 DUP1 DUP3 MSTORE PUSH1 0x19 SWAP1 DUP3 ADD MSTORE PUSH32 0x5461726765742063616E6E6F7420657863656564203130302500000000000000 PUSH1 0x40 DUP3 ADD MSTORE PUSH1 0x60 ADD SWAP1 JUMP JUMPDEST PUSH1 0x20 DUP1 DUP3 MSTORE PUSH1 0x19 SWAP1 DUP3 ADD MSTORE PUSH32 0x546F74616C207461726765747320657863656564203130302500000000000000 PUSH1 0x40 DUP3 ADD MSTORE PUSH1 0x60 ADD SWAP1 JUMP JUMPDEST PUSH1 0x20 DUP1 DUP3 MSTORE PUSH1 0xE SWAP1 DUP3 ADD MSTORE PUSH14 0x139BDD08185D5D1A1BDC9A5E9959 PUSH1 0x92 SHL PUSH1 0x40 DUP3 ADD MSTORE PUSH1 0x60 ADD SWAP1 JUMP JUMPDEST PUSH0 PUSH1 0x20 DUP3 DUP5 SUB SLT ISZERO PUSH2 0x3F84 JUMPI PUSH0 DUP1 REVERT JUMPDEST DUP2 MLOAD PUSH2 0xCA2 DUP2 PUSH2 0x3ABC JUMP JUMPDEST PUSH1 0x20 DUP1 DUP3 MSTORE PUSH1 0x13 SWAP1 DUP3 ADD MSTORE PUSH19 0x5374726174656779206E6F7420616374697665 PUSH1 0x68 SHL PUSH1 0x40 DUP3 ADD MSTORE PUSH1 0x60 ADD SWAP1 JUMP JUMPDEST PUSH0 DUP1 PUSH0 PUSH1 0x60 DUP5 DUP7 SUB SLT ISZERO PUSH2 0x3FCE JUMPI PUSH0 DUP1 REVERT JUMPDEST DUP4 MLOAD SWAP3 POP PUSH1 0x20 DUP5 ADD MLOAD SWAP2 POP PUSH1 0x40 DUP5 ADD MLOAD SWAP1 POP SWAP3 POP SWAP3 POP SWAP3 JUMP JUMPDEST PUSH0 PUSH1 0x20 DUP3 DUP5 SUB SLT ISZERO PUSH2 0x3FF7 JUMPI PUSH0 DUP1 REVERT JUMPDEST DUP2 MLOAD DUP1 ISZERO ISZERO DUP2 EQ PUSH2 0xCA2 JUMPI PUSH0 DUP1 REVERT JUMPDEST PUSH1 0x1 DUP2 DUP2 JUMPDEST DUP1 DUP6 GT ISZERO PUSH2 0x4040 JUMPI DUP2 PUSH0 NOT DIV DUP3 GT ISZERO PUSH2 0x4026 JUMPI PUSH2 0x4026 PUSH2 0x3D8F JUMP JUMPDEST DUP1 DUP6 AND ISZERO PUSH2 0x4033 JUMPI SWAP2 DUP2 MUL SWAP2 JUMPDEST SWAP4 DUP5 SHR SWAP4 SWAP1 DUP1 MUL SWAP1 PUSH2 0x400B JUMP JUMPDEST POP SWAP3 POP SWAP3 SWAP1 POP JUMP JUMPDEST PUSH0 DUP3 PUSH2 0x4056 JUMPI POP PUSH1 0x1 PUSH2 0x9FE JUMP JUMPDEST DUP2 PUSH2 0x4062 JUMPI POP PUSH0 PUSH2 0x9FE JUMP JUMPDEST DUP2 PUSH1 0x1 DUP2 EQ PUSH2 0x4078 JUMPI PUSH1 0x2 DUP2 EQ PUSH2 0x4082 JUMPI PUSH2 0x409E JUMP JUMPDEST PUSH1 0x1 SWAP2 POP POP PUSH2 0x9FE JUMP JUMPDEST PUSH1 0xFF DUP5 GT ISZERO PUSH2 0x4093 JUMPI PUSH2 0x4093 PUSH2 0x3D8F JUMP JUMPDEST POP POP PUSH1 0x1 DUP3 SHL PUSH2 0x9FE JUMP JUMPDEST POP PUSH1 0x20 DUP4 LT PUSH2 0x133 DUP4 LT AND PUSH1 0x4E DUP5 LT PUSH1 0xB DUP5 LT AND OR ISZERO PUSH2 0x40C1 JUMPI POP DUP2 DUP2 EXP PUSH2 0x9FE JUMP JUMPDEST PUSH2 0x40CB DUP4 DUP4 PUSH2 0x4006 JUMP JUMPDEST DUP1 PUSH0 NOT DIV DUP3 GT ISZERO PUSH2 0x40DE JUMPI PUSH2 0x40DE PUSH2 0x3D8F JUMP JUMPDEST MUL SWAP4 SWAP3 POP POP POP JUMP JUMPDEST PUSH0 PUSH2 0xCA2 PUSH1 0xFF DUP5 AND DUP4 PUSH2 0x4048 JUMP JUMPDEST PUSH1 0x1 PUSH1 0x1 PUSH1 0xA0 SHL SUB SWAP4 SWAP1 SWAP4 AND DUP4 MSTORE PUSH1 0x20 DUP4 ADD SWAP2 SWAP1 SWAP2 MSTORE PUSH1 0x40 DUP3 ADD MSTORE PUSH1 0x60 ADD SWAP1 JUMP JUMPDEST PUSH0 PUSH1 0xFF DUP4 AND DUP1 PUSH2 0x4127 JUMPI PUSH2 0x4127 PUSH2 0x3EB7 JUMP JUMPDEST DUP1 PUSH1 0xFF DUP5 AND MOD SWAP2 POP POP SWAP3 SWAP2 POP POP JUMP INVALID LOG2 PUSH5 0x6970667358 0x22 SLT KECCAK256 0xCE INVALID 0xD6 0x2B SLT PUSH22 0xBDA01D94FB48A7113B648247CC8A2EBD1C39D5761E52 PREVRANDAO 0xF6 COINBASE 0xF PUSH5 0x736F6C6343 STOP ADDMOD EQ STOP CALLER "},"methodIdentifiers":{"activateStrategy(address)":"d80ea5a0","addOperator(address)":"9870d7fe","addStrategy(address,uint256)":"c9411e22","allowance(address,address)":"dd62ed3e","approve(address,uint256)":"095ea7b3","asset()":"38d52e0f","balanceOf(address)":"70a08231","bufferTargetBps()":"af56b69f","convertToAssets(uint256)":"07a2d13a","convertToShares(uint256)":"c6e6f592","decimals()":"313ce567","deployToStrategy(address,uint256)":"f6c00db9","deposit(uint256,address)":"6e553f65","getActiveStrategies()":"587436e4","getAllStrategies()":"c3b28864","getBufferBalance()":"dc24fc07","getBufferStatus()":"a3603bca","getBufferTarget()":"acd17d5d","getCurrentAllocations()":"41826c2d","getStrategyInfo(address)":"54192ad5","getTotalDeployed()":"38f0ede9","maxDeposit(address)":"402d267d","maxMint(address)":"c63d75b6","maxRedeem(address)":"d905777e","maxWithdraw(address)":"ce96cb77","minDeposit()":"41b3d185","mint(uint256,address)":"94bf804d","name()":"06fdde03","operators(address)":"13e7c9d8","owner()":"8da5cb5b","pauseStrategy(address)":"d3f6b598","previewDeposit(uint256)":"ef8b30f7","previewMint(uint256)":"b3d7f6b9","previewRedeem(uint256)":"4cdad506","previewWithdraw(uint256)":"0a28a477","redeem(uint256,address,address)":"ba087652","removeOperator(address)":"ac8a584a","removeStrategy(address)":"175188e8","renounceOwnership()":"715018a6","reportStrategy(address)":"d9aba111","resumeStrategy(address)":"2a058cac","setBufferTarget(uint256)":"4e423181","setMinDeposit(uint256)":"8fcc9cfb","strategies(address)":"39ebf823","strategyList(uint256)":"a267526b","symbol()":"95d89b41","totalAssets()":"01e1d114","totalStrategyTargetBps()":"3ede66f7","totalSupply()":"18160ddd","transfer(address,uint256)":"a9059cbb","transferFrom(address,address,uint256)":"23b872dd","transferOwnership(address)":"f2fde38b","updateAllocation(address,uint256)":"70851703","withdraw(uint256,address,address)":"b460af94","withdrawFromStrategy(address,uint256)":"b53d0958"}}}}}