{"project/contracts/FirelightStrategy.sol":{"FirelightStrategy":{"abi":[{"inputs":[{"internalType":"address","name":"_fxrpToken","type":"address"},{"internalType":"address","name":"_admin","type":"address"},{"internalType":"address","name":"_operator","type":"address"}],"stateMutability":"nonpayable","type":"constructor"},{"inputs":[],"name":"AccessControlBadConfirmation","type":"error"},{"inputs":[{"internalType":"address","name":"account","type":"address"},{"internalType":"bytes32","name":"neededRole","type":"bytes32"}],"name":"AccessControlUnauthorizedAccount","type":"error"},{"inputs":[{"internalType":"address","name":"token","type":"address"}],"name":"SafeERC20FailedOperation","type":"error"},{"anonymous":false,"inputs":[{"indexed":false,"internalType":"uint256","name":"amount","type":"uint256"}],"name":"DeployedToStrategy","type":"event"},{"anonymous":false,"inputs":[{"indexed":true,"internalType":"address","name":"stakingContract","type":"address"},{"indexed":true,"internalType":"address","name":"stXRP","type":"address"},{"indexed":true,"internalType":"address","name":"oracle","type":"address"}],"name":"FirelightConfigUpdated","type":"event"},{"anonymous":false,"inputs":[{"indexed":true,"internalType":"bytes32","name":"role","type":"bytes32"},{"indexed":true,"internalType":"bytes32","name":"previousAdminRole","type":"bytes32"},{"indexed":true,"internalType":"bytes32","name":"newAdminRole","type":"bytes32"}],"name":"RoleAdminChanged","type":"event"},{"anonymous":false,"inputs":[{"indexed":true,"internalType":"bytes32","name":"role","type":"bytes32"},{"indexed":true,"internalType":"address","name":"account","type":"address"},{"indexed":true,"internalType":"address","name":"sender","type":"address"}],"name":"RoleGranted","type":"event"},{"anonymous":false,"inputs":[{"indexed":true,"internalType":"bytes32","name":"role","type":"bytes32"},{"indexed":true,"internalType":"address","name":"account","type":"address"},{"indexed":true,"internalType":"address","name":"sender","type":"address"}],"name":"RoleRevoked","type":"event"},{"anonymous":false,"inputs":[{"indexed":false,"internalType":"uint256","name":"profit","type":"uint256"},{"indexed":false,"internalType":"uint256","name":"loss","type":"uint256"},{"indexed":false,"internalType":"uint256","name":"totalAssets","type":"uint256"}],"name":"StrategyReport","type":"event"},{"anonymous":false,"inputs":[{"indexed":false,"internalType":"uint256","name":"amount","type":"uint256"},{"indexed":false,"internalType":"uint256","name":"withdrawalId","type":"uint256"}],"name":"UnstakingInitiated","type":"event"},{"anonymous":false,"inputs":[{"indexed":false,"internalType":"uint256","name":"amount","type":"uint256"},{"indexed":false,"internalType":"uint256","name":"actualAmount","type":"uint256"}],"name":"WithdrawnFromStrategy","type":"event"},{"inputs":[],"name":"DEFAULT_ADMIN_ROLE","outputs":[{"internalType":"bytes32","name":"","type":"bytes32"}],"stateMutability":"view","type":"function"},{"inputs":[],"name":"OPERATOR_ROLE","outputs":[{"internalType":"bytes32","name":"","type":"bytes32"}],"stateMutability":"view","type":"function"},{"inputs":[],"name":"activate","outputs":[],"stateMutability":"nonpayable","type":"function"},{"inputs":[],"name":"asset","outputs":[{"internalType":"address","name":"","type":"address"}],"stateMutability":"view","type":"function"},{"inputs":[{"internalType":"uint256","name":"withdrawalId","type":"uint256"}],"name":"claimUnstaking","outputs":[],"stateMutability":"nonpayable","type":"function"},{"inputs":[],"name":"deactivate","outputs":[],"stateMutability":"nonpayable","type":"function"},{"inputs":[{"internalType":"uint256","name":"amount","type":"uint256"}],"name":"deploy","outputs":[],"stateMutability":"nonpayable","type":"function"},{"inputs":[],"name":"emergencyWithdraw","outputs":[],"stateMutability":"nonpayable","type":"function"},{"inputs":[],"name":"exchangeRateOracle","outputs":[{"internalType":"address","name":"","type":"address"}],"stateMutability":"view","type":"function"},{"inputs":[],"name":"firelightStaking","outputs":[{"internalType":"address","name":"","type":"address"}],"stateMutability":"view","type":"function"},{"inputs":[],"name":"fxrpToken","outputs":[{"internalType":"contract IERC20","name":"","type":"address"}],"stateMutability":"view","type":"function"},{"inputs":[{"internalType":"bytes32","name":"role","type":"bytes32"}],"name":"getRoleAdmin","outputs":[{"internalType":"bytes32","name":"","type":"bytes32"}],"stateMutability":"view","type":"function"},{"inputs":[{"internalType":"bytes32","name":"role","type":"bytes32"},{"internalType":"address","name":"account","type":"address"}],"name":"grantRole","outputs":[],"stateMutability":"nonpayable","type":"function"},{"inputs":[{"internalType":"bytes32","name":"role","type":"bytes32"},{"internalType":"address","name":"account","type":"address"}],"name":"hasRole","outputs":[{"internalType":"bool","name":"","type":"bool"}],"stateMutability":"view","type":"function"},{"inputs":[],"name":"isActive","outputs":[{"internalType":"bool","name":"","type":"bool"}],"stateMutability":"view","type":"function"},{"inputs":[],"name":"name","outputs":[{"internalType":"string","name":"","type":"string"}],"stateMutability":"pure","type":"function"},{"inputs":[{"internalType":"bytes32","name":"role","type":"bytes32"},{"internalType":"address","name":"callerConfirmation","type":"address"}],"name":"renounceRole","outputs":[],"stateMutability":"nonpayable","type":"function"},{"inputs":[],"name":"report","outputs":[{"internalType":"uint256","name":"profit","type":"uint256"},{"internalType":"uint256","name":"loss","type":"uint256"},{"internalType":"uint256","name":"currentAssets","type":"uint256"}],"stateMutability":"nonpayable","type":"function"},{"inputs":[{"internalType":"bytes32","name":"role","type":"bytes32"},{"internalType":"address","name":"account","type":"address"}],"name":"revokeRole","outputs":[],"stateMutability":"nonpayable","type":"function"},{"inputs":[{"internalType":"address","name":"_stakingContract","type":"address"},{"internalType":"address","name":"_stXRP","type":"address"},{"internalType":"address","name":"_oracle","type":"address"}],"name":"setFirelightConfig","outputs":[],"stateMutability":"nonpayable","type":"function"},{"inputs":[{"internalType":"uint256","name":"amount","type":"uint256"}],"name":"simulateYield","outputs":[],"stateMutability":"nonpayable","type":"function"},{"inputs":[],"name":"stXRPToken","outputs":[{"internalType":"address","name":"","type":"address"}],"stateMutability":"view","type":"function"},{"inputs":[{"internalType":"bytes4","name":"interfaceId","type":"bytes4"}],"name":"supportsInterface","outputs":[{"internalType":"bool","name":"","type":"bool"}],"stateMutability":"view","type":"function"},{"inputs":[],"name":"totalAssets","outputs":[{"internalType":"uint256","name":"","type":"uint256"}],"stateMutability":"view","type":"function"},{"inputs":[{"internalType":"uint256","name":"amount","type":"uint256"},{"internalType":"address","name":"receiver","type":"address"}],"name":"withdraw","outputs":[{"internalType":"uint256","name":"actualAmount","type":"uint256"}],"stateMutability":"nonpayable","type":"function"}],"evm":{"bytecode":{"linkReferences":{},"object":"60a060405234801562000010575f80fd5b506040516200137d3803806200137d83398101604081905262000033916200023d565b6001600160a01b038316620000845760405162461bcd60e51b815260206004820152601260248201527124b73b30b634b210232c2928103a37b5b2b760711b60448201526064015b60405180910390fd5b6001600160a01b038216620000cc5760405162461bcd60e51b815260206004820152600d60248201526c24b73b30b634b21030b236b4b760991b60448201526064016200007b565b6001600160a01b038116620001175760405162461bcd60e51b815260206004820152601060248201526f24b73b30b634b21037b832b930ba37b960811b60448201526064016200007b565b6001600160a01b038316608052620001305f8362000175565b506200015d7f97667070c54ef182b0f5858b034beac1b6f3089aa2d3188bb1e8929f4fa9b9298262000175565b50506003805460ff60a01b1916905550620002849050565b5f828152602081815260408083206001600160a01b038516845290915281205460ff1662000218575f838152602081815260408083206001600160a01b03861684529091529020805460ff19166001179055620001cf3390565b6001600160a01b0316826001600160a01b0316847f2f8788117e7eff1d82e926ec794901d17c78024a50270940304540a733656f0d60405160405180910390a45060016200021b565b505f5b92915050565b80516001600160a01b038116811462000238575f80fd5b919050565b5f805f6060848603121562000250575f80fd5b6200025b8462000221565b92506200026b6020850162000221565b91506200027b6040850162000221565b90509250925092565b6080516110c4620002b95f395f81816102c70152818161030b01528181610501015281816105900152610bf201526110c45ff3fe608060405234801561000f575f80fd5b506004361061016c575f3560e01c806338d52e0f116100d9578063a5e3875111610093578063db2e21bc1161006e578063db2e21bc14610380578063e7ca856d14610388578063f5b541a61461039b578063ffffce47146103af575f80fd5b8063a5e3875114610347578063b707d5c31461035a578063d547741f1461036d575f80fd5b806338d52e0f146102c55780633c7a2095146102eb57806351b42b00146102fe5780636e131a7c1461030657806391d148541461032d578063a217fddf14610340575f80fd5b806322f3e2d41161012a57806322f3e2d41461021d578063248a9ca31461022f5780632606a10b146102515780632f2ff15d1461027457806333e841811461028757806336568abe146102b2575f80fd5b8062f714ce1461017057806301e1d1141461019657806301ffc9a71461019e5780630324bff0146101c157806306fdde03146101d65780630f15f4c014610215575b5f80fd5b61018361017e366004610f23565b6103c2565b6040519081526020015b60405180910390f35b610183610660565b6101b16101ac366004610f4d565b6106a2565b604051901515815260200161018d565b6101d46101cf366004610f7b565b6106d8565b005b604080518082018252601781527f466972656c69676874207374585250205374616b696e670000000000000000006020820152905161018d9190610fbb565b6101d46107ec565b600354600160a01b900460ff166101b1565b61018361023d366004611006565b5f9081526020819052604090206001015490565b6102596108ae565b6040805193845260208401929092529082015260600161018d565b6101d4610282366004610f23565b610a29565b60025461029a906001600160a01b031681565b6040516001600160a01b03909116815260200161018d565b6101d46102c0366004610f23565b610a53565b7f000000000000000000000000000000000000000000000000000000000000000061029a565b6101d46102f9366004611006565b610a8b565b6101d4610aa6565b61029a7f000000000000000000000000000000000000000000000000000000000000000081565b6101b161033b366004610f23565b610ac0565b6101835f81565b6101d4610355366004611006565b610ae8565b60015461029a906001600160a01b031681565b6101d461037b366004610f23565b610c67565b6101d4610c8b565b6101d4610396366004611006565b610c98565b6101835f8051602061106f83398151915281565b60035461029a906001600160a01b031681565b5f5f8051602061106f8339815191526103da81610cc9565b5f84116104235760405162461bcd60e51b81526020600482015260126024820152710416d6f756e74206d757374206265203e20360741b60448201526064015b60405180910390fd5b6001600160a01b03831661046c5760405162461bcd60e51b815260206004820152601060248201526f24b73b30b634b2103932b1b2b4bb32b960811b604482015260640161041a565b5f306001600160a01b03166301e1d1146040518163ffffffff1660e01b8152600401602060405180830381865afa1580156104a9573d5f803e3d5ffd5b505050506040513d601f19601f820116820180604052508101906104cd919061101d565b90505f8186106104dd57816104df565b855b6040516370a0823160e01b81523060048201529091505f906001600160a01b037f000000000000000000000000000000000000000000000000000000000000000016906370a0823190602401602060405180830381865afa158015610546573d5f803e3d5ffd5b505050506040513d601f19601f8201168201806040525081019061056a919061101d565b9050818110610579578161057b565b805b9450841561061d576105b76001600160a01b037f0000000000000000000000000000000000000000000000000000000000000000168787610cd3565b60065485116105dc578460065f8282546105d19190611048565b9091555061061d9050565b6006545f6105ea8288611048565b5f6006556004549091508110610603575f60045561061a565b8060045f8282546106149190611048565b90915550505b50505b60408051888152602081018790527fdd42afdcf46eb795b638427459f02b0d5b94751009a7e0b23b39b7289b42117b910160405180910390a15050505092915050565b6001545f906001600160a01b0316158061068357506002546001600160a01b0316155b1561068d57505f90565b60065460045461069d919061105b565b905090565b5f6001600160e01b03198216637965db0b60e01b14806106d257506301ffc9a760e01b6001600160e01b03198316145b92915050565b5f6106e281610cc9565b6001600160a01b0384166107385760405162461bcd60e51b815260206004820152601860248201527f496e76616c6964207374616b696e6720636f6e74726163740000000000000000604482015260640161041a565b6001600160a01b03831661077e5760405162461bcd60e51b815260206004820152600d60248201526c0496e76616c696420737458525609c1b604482015260640161041a565b600180546001600160a01b03199081166001600160a01b03878116918217909355600280548316878516908117909155600380549093169386169384179092556040517f18bcb63c2f2711d42cf75a9608021bc934569511770aad20d82f43fd6ed863ac905f90a450505050565b5f6107f681610cc9565b6001546001600160a01b03166108495760405162461bcd60e51b8152602060048201526018602482015277119a5c995b1a59da1d081b9bdd0818dbdb999a59dd5c995960421b604482015260640161041a565b6002546001600160a01b03166108985760405162461bcd60e51b81526020600482015260146024820152731cdd161494081b9bdd0818dbdb999a59dd5c995960621b604482015260640161041a565b506003805460ff60a01b1916600160a01b179055565b5f805f5f8051602061106f8339815191526108c881610cc9565b306001600160a01b03166301e1d1146040518163ffffffff1660e01b8152600401602060405180830381865afa158015610904573d5f803e3d5ffd5b505050506040513d601f19601f82011682018060405250810190610928919061101d565b60075490925060ff166109925760058290556007805460ff19166001179055604080515f80825260208201529081018390527f405e726ee7eeab6e960605e249c046182f24b17603580faff1165520c30596fe9060600160405180910390a15f8093509350610a23565b6005548211156109b3576005546109a99083611048565b93505f92506109dc565b6005548210156109d5575f9350816005546109ce9190611048565b92506109dc565b5f93505f92505b600582905560408051858152602081018590529081018390527f405e726ee7eeab6e960605e249c046182f24b17603580faff1165520c30596fe9060600160405180910390a15b50909192565b5f82815260208190526040902060010154610a4381610cc9565b610a4d8383610d32565b50505050565b6001600160a01b0381163314610a7c5760405163334bd91960e11b815260040160405180910390fd5b610a868282610dc1565b505050565b5f8051602061106f833981519152610aa281610cc9565b5050565b5f610ab081610cc9565b506003805460ff60a01b19169055565b5f918252602082815260408084206001600160a01b0393909316845291905290205460ff1690565b5f8051602061106f833981519152610aff81610cc9565b600354600160a01b900460ff16610b4e5760405162461bcd60e51b81526020600482015260136024820152725374726174656779206e6f742061637469766560681b604482015260640161041a565b5f8211610b925760405162461bcd60e51b81526020600482015260126024820152710416d6f756e74206d757374206265203e20360741b604482015260640161041a565b6001546001600160a01b0316610be55760405162461bcd60e51b8152602060048201526018602482015277119a5c995b1a59da1d081b9bdd0818dbdb999a59dd5c995960421b604482015260640161041a565b610c1a6001600160a01b037f000000000000000000000000000000000000000000000000000000000000000016333085610e2a565b8160045f828254610c2b919061105b565b90915550506040518281527faddd44926e5f84a03b77260682f3e40498d74e32088d096babe1b446fdf80cc59060200160405180910390a15050565b5f82815260208190526040902060010154610c8181610cc9565b610a4d8383610dc1565b5f610c9581610cc9565b50565b5f8051602061106f833981519152610caf81610cc9565b8160065f828254610cc0919061105b565b90915550505050565b610c958133610e63565b6040516001600160a01b03838116602483015260448201839052610a8691859182169063a9059cbb906064015b604051602081830303815290604052915060e01b6020820180516001600160e01b038381831617835250505050610e9c565b5f610d3d8383610ac0565b610dba575f838152602081815260408083206001600160a01b03861684529091529020805460ff19166001179055610d723390565b6001600160a01b0316826001600160a01b0316847f2f8788117e7eff1d82e926ec794901d17c78024a50270940304540a733656f0d60405160405180910390a45060016106d2565b505f6106d2565b5f610dcc8383610ac0565b15610dba575f838152602081815260408083206001600160a01b0386168085529252808320805460ff1916905551339286917ff6391f5c32d9c69d2a47ea670b442974b53935d1edc7fd64eb21e047a839171b9190a45060016106d2565b6040516001600160a01b038481166024830152838116604483015260648201839052610a4d9186918216906323b872dd90608401610d00565b610e6d8282610ac0565b610aa25760405163e2517d3f60e01b81526001600160a01b03821660048201526024810183905260440161041a565b5f8060205f8451602086015f885af180610ebb576040513d5f823e3d81fd5b50505f513d91508115610ed2578060011415610edf565b6001600160a01b0384163b155b15610a4d57604051635274afe760e01b81526001600160a01b038516600482015260240161041a565b80356001600160a01b0381168114610f1e575f80fd5b919050565b5f8060408385031215610f34575f80fd5b82359150610f4460208401610f08565b90509250929050565b5f60208284031215610f5d575f80fd5b81356001600160e01b031981168114610f74575f80fd5b9392505050565b5f805f60608486031215610f8d575f80fd5b610f9684610f08565b9250610fa460208501610f08565b9150610fb260408501610f08565b90509250925092565b5f6020808352835180828501525f5b81811015610fe657858101830151858201604001528201610fca565b505f604082860101526040601f19601f8301168501019250505092915050565b5f60208284031215611016575f80fd5b5035919050565b5f6020828403121561102d575f80fd5b5051919050565b634e487b7160e01b5f52601160045260245ffd5b818103818111156106d2576106d2611034565b808201808211156106d2576106d261103456fe97667070c54ef182b0f5858b034beac1b6f3089aa2d3188bb1e8929f4fa9b929a2646970667358221220f56e8f18585320932fcb7a3974ebc6f3d682912eb732d7bf41ef7241e17851e064736f6c63430008140033","opcodes":"PUSH1 0xA0 PUSH1 0x40 MSTORE CALLVALUE DUP1 ISZERO PUSH3 0x10 JUMPI PUSH0 DUP1 REVERT JUMPDEST POP PUSH1 0x40 MLOAD PUSH3 0x137D CODESIZE SUB DUP1 PUSH3 0x137D DUP4 CODECOPY DUP2 ADD PUSH1 0x40 DUP2 SWAP1 MSTORE PUSH3 0x33 SWAP2 PUSH3 0x23D JUMP JUMPDEST PUSH1 0x1 PUSH1 0x1 PUSH1 0xA0 SHL SUB DUP4 AND PUSH3 0x84 JUMPI PUSH1 0x40 MLOAD PUSH3 0x461BCD PUSH1 0xE5 SHL DUP2 MSTORE PUSH1 0x20 PUSH1 0x4 DUP3 ADD MSTORE PUSH1 0x12 PUSH1 0x24 DUP3 ADD MSTORE PUSH18 0x24B73B30B634B210232C2928103A37B5B2B7 PUSH1 0x71 SHL PUSH1 0x44 DUP3 ADD MSTORE PUSH1 0x64 ADD JUMPDEST PUSH1 0x40 MLOAD DUP1 SWAP2 SUB SWAP1 REVERT JUMPDEST PUSH1 0x1 PUSH1 0x1 PUSH1 0xA0 SHL SUB DUP3 AND PUSH3 0xCC JUMPI PUSH1 0x40 MLOAD PUSH3 0x461BCD PUSH1 0xE5 SHL DUP2 MSTORE PUSH1 0x20 PUSH1 0x4 DUP3 ADD MSTORE PUSH1 0xD PUSH1 0x24 DUP3 ADD MSTORE PUSH13 0x24B73B30B634B21030B236B4B7 PUSH1 0x99 SHL PUSH1 0x44 DUP3 ADD MSTORE PUSH1 0x64 ADD PUSH3 0x7B JUMP JUMPDEST PUSH1 0x1 PUSH1 0x1 PUSH1 0xA0 SHL SUB DUP2 AND PUSH3 0x117 JUMPI PUSH1 0x40 MLOAD PUSH3 0x461BCD PUSH1 0xE5 SHL DUP2 MSTORE PUSH1 0x20 PUSH1 0x4 DUP3 ADD MSTORE PUSH1 0x10 PUSH1 0x24 DUP3 ADD MSTORE PUSH16 0x24B73B30B634B21037B832B930BA37B9 PUSH1 0x81 SHL PUSH1 0x44 DUP3 ADD MSTORE PUSH1 0x64 ADD PUSH3 0x7B JUMP JUMPDEST PUSH1 0x1 PUSH1 0x1 PUSH1 0xA0 SHL SUB DUP4 AND PUSH1 0x80 MSTORE PUSH3 0x130 PUSH0 DUP4 PUSH3 0x175 JUMP JUMPDEST POP PUSH3 0x15D PUSH32 0x97667070C54EF182B0F5858B034BEAC1B6F3089AA2D3188BB1E8929F4FA9B929 DUP3 PUSH3 0x175 JUMP JUMPDEST POP POP PUSH1 0x3 DUP1 SLOAD PUSH1 0xFF PUSH1 0xA0 SHL NOT AND SWAP1 SSTORE POP PUSH3 0x284 SWAP1 POP JUMP JUMPDEST PUSH0 DUP3 DUP2 MSTORE PUSH1 0x20 DUP2 DUP2 MSTORE PUSH1 0x40 DUP1 DUP4 KECCAK256 PUSH1 0x1 PUSH1 0x1 PUSH1 0xA0 SHL SUB DUP6 AND DUP5 MSTORE SWAP1 SWAP2 MSTORE DUP2 KECCAK256 SLOAD PUSH1 0xFF AND PUSH3 0x218 JUMPI PUSH0 DUP4 DUP2 MSTORE PUSH1 0x20 DUP2 DUP2 MSTORE PUSH1 0x40 DUP1 DUP4 KECCAK256 PUSH1 0x1 PUSH1 0x1 PUSH1 0xA0 SHL SUB DUP7 AND DUP5 MSTORE SWAP1 SWAP2 MSTORE SWAP1 KECCAK256 DUP1 SLOAD PUSH1 0xFF NOT AND PUSH1 0x1 OR SWAP1 SSTORE PUSH3 0x1CF CALLER SWAP1 JUMP JUMPDEST PUSH1 0x1 PUSH1 0x1 PUSH1 0xA0 SHL SUB AND DUP3 PUSH1 0x1 PUSH1 0x1 PUSH1 0xA0 SHL SUB AND DUP5 PUSH32 0x2F8788117E7EFF1D82E926EC794901D17C78024A50270940304540A733656F0D PUSH1 0x40 MLOAD PUSH1 0x40 MLOAD DUP1 SWAP2 SUB SWAP1 LOG4 POP PUSH1 0x1 PUSH3 0x21B JUMP JUMPDEST POP PUSH0 JUMPDEST SWAP3 SWAP2 POP POP JUMP JUMPDEST DUP1 MLOAD PUSH1 0x1 PUSH1 0x1 PUSH1 0xA0 SHL SUB DUP2 AND DUP2 EQ PUSH3 0x238 JUMPI PUSH0 DUP1 REVERT JUMPDEST SWAP2 SWAP1 POP JUMP JUMPDEST PUSH0 DUP1 PUSH0 PUSH1 0x60 DUP5 DUP7 SUB SLT ISZERO PUSH3 0x250 JUMPI PUSH0 DUP1 REVERT JUMPDEST PUSH3 0x25B DUP5 PUSH3 0x221 JUMP JUMPDEST SWAP3 POP PUSH3 0x26B PUSH1 0x20 DUP6 ADD PUSH3 0x221 JUMP JUMPDEST SWAP2 POP PUSH3 0x27B PUSH1 0x40 DUP6 ADD PUSH3 0x221 JUMP JUMPDEST SWAP1 POP SWAP3 POP SWAP3 POP SWAP3 JUMP JUMPDEST PUSH1 0x80 MLOAD PUSH2 0x10C4 PUSH3 0x2B9 PUSH0 CODECOPY PUSH0 DUP2 DUP2 PUSH2 0x2C7 ADD MSTORE DUP2 DUP2 PUSH2 0x30B ADD MSTORE DUP2 DUP2 PUSH2 0x501 ADD MSTORE DUP2 DUP2 PUSH2 0x590 ADD MSTORE PUSH2 0xBF2 ADD MSTORE PUSH2 0x10C4 PUSH0 RETURN INVALID PUSH1 0x80 PUSH1 0x40 MSTORE CALLVALUE DUP1 ISZERO PUSH2 0xF JUMPI PUSH0 DUP1 REVERT JUMPDEST POP PUSH1 0x4 CALLDATASIZE LT PUSH2 0x16C JUMPI PUSH0 CALLDATALOAD PUSH1 0xE0 SHR DUP1 PUSH4 0x38D52E0F GT PUSH2 0xD9 JUMPI DUP1 PUSH4 0xA5E38751 GT PUSH2 0x93 JUMPI DUP1 PUSH4 0xDB2E21BC GT PUSH2 0x6E JUMPI DUP1 PUSH4 0xDB2E21BC EQ PUSH2 0x380 JUMPI DUP1 PUSH4 0xE7CA856D EQ PUSH2 0x388 JUMPI DUP1 PUSH4 0xF5B541A6 EQ PUSH2 0x39B JUMPI DUP1 PUSH4 0xFFFFCE47 EQ PUSH2 0x3AF JUMPI PUSH0 DUP1 REVERT JUMPDEST DUP1 PUSH4 0xA5E38751 EQ PUSH2 0x347 JUMPI DUP1 PUSH4 0xB707D5C3 EQ PUSH2 0x35A JUMPI DUP1 PUSH4 0xD547741F EQ PUSH2 0x36D JUMPI PUSH0 DUP1 REVERT JUMPDEST DUP1 PUSH4 0x38D52E0F EQ PUSH2 0x2C5 JUMPI DUP1 PUSH4 0x3C7A2095 EQ PUSH2 0x2EB JUMPI DUP1 PUSH4 0x51B42B00 EQ PUSH2 0x2FE JUMPI DUP1 PUSH4 0x6E131A7C EQ PUSH2 0x306 JUMPI DUP1 PUSH4 0x91D14854 EQ PUSH2 0x32D JUMPI DUP1 PUSH4 0xA217FDDF EQ PUSH2 0x340 JUMPI PUSH0 DUP1 REVERT JUMPDEST DUP1 PUSH4 0x22F3E2D4 GT PUSH2 0x12A JUMPI DUP1 PUSH4 0x22F3E2D4 EQ PUSH2 0x21D JUMPI DUP1 PUSH4 0x248A9CA3 EQ PUSH2 0x22F JUMPI DUP1 PUSH4 0x2606A10B EQ PUSH2 0x251 JUMPI DUP1 PUSH4 0x2F2FF15D EQ PUSH2 0x274 JUMPI DUP1 PUSH4 0x33E84181 EQ PUSH2 0x287 JUMPI DUP1 PUSH4 0x36568ABE EQ PUSH2 0x2B2 JUMPI PUSH0 DUP1 REVERT JUMPDEST DUP1 PUSH3 0xF714CE EQ PUSH2 0x170 JUMPI DUP1 PUSH4 0x1E1D114 EQ PUSH2 0x196 JUMPI DUP1 PUSH4 0x1FFC9A7 EQ PUSH2 0x19E JUMPI DUP1 PUSH4 0x324BFF0 EQ PUSH2 0x1C1 JUMPI DUP1 PUSH4 0x6FDDE03 EQ PUSH2 0x1D6 JUMPI DUP1 PUSH4 0xF15F4C0 EQ PUSH2 0x215 JUMPI JUMPDEST PUSH0 DUP1 REVERT JUMPDEST PUSH2 0x183 PUSH2 0x17E CALLDATASIZE PUSH1 0x4 PUSH2 0xF23 JUMP JUMPDEST PUSH2 0x3C2 JUMP JUMPDEST PUSH1 0x40 MLOAD SWAP1 DUP2 MSTORE PUSH1 0x20 ADD JUMPDEST PUSH1 0x40 MLOAD DUP1 SWAP2 SUB SWAP1 RETURN JUMPDEST PUSH2 0x183 PUSH2 0x660 JUMP JUMPDEST PUSH2 0x1B1 PUSH2 0x1AC CALLDATASIZE PUSH1 0x4 PUSH2 0xF4D JUMP JUMPDEST PUSH2 0x6A2 JUMP JUMPDEST PUSH1 0x40 MLOAD SWAP1 ISZERO ISZERO DUP2 MSTORE PUSH1 0x20 ADD PUSH2 0x18D JUMP JUMPDEST PUSH2 0x1D4 PUSH2 0x1CF CALLDATASIZE PUSH1 0x4 PUSH2 0xF7B JUMP JUMPDEST PUSH2 0x6D8 JUMP JUMPDEST STOP JUMPDEST PUSH1 0x40 DUP1 MLOAD DUP1 DUP3 ADD DUP3 MSTORE PUSH1 0x17 DUP2 MSTORE PUSH32 0x466972656C69676874207374585250205374616B696E67000000000000000000 PUSH1 0x20 DUP3 ADD MSTORE SWAP1 MLOAD PUSH2 0x18D SWAP2 SWAP1 PUSH2 0xFBB JUMP JUMPDEST PUSH2 0x1D4 PUSH2 0x7EC JUMP JUMPDEST PUSH1 0x3 SLOAD PUSH1 0x1 PUSH1 0xA0 SHL SWAP1 DIV PUSH1 0xFF AND PUSH2 0x1B1 JUMP JUMPDEST PUSH2 0x183 PUSH2 0x23D CALLDATASIZE PUSH1 0x4 PUSH2 0x1006 JUMP JUMPDEST PUSH0 SWAP1 DUP2 MSTORE PUSH1 0x20 DUP2 SWAP1 MSTORE PUSH1 0x40 SWAP1 KECCAK256 PUSH1 0x1 ADD SLOAD SWAP1 JUMP JUMPDEST PUSH2 0x259 PUSH2 0x8AE JUMP JUMPDEST PUSH1 0x40 DUP1 MLOAD SWAP4 DUP5 MSTORE PUSH1 0x20 DUP5 ADD SWAP3 SWAP1 SWAP3 MSTORE SWAP1 DUP3 ADD MSTORE PUSH1 0x60 ADD PUSH2 0x18D JUMP JUMPDEST PUSH2 0x1D4 PUSH2 0x282 CALLDATASIZE PUSH1 0x4 PUSH2 0xF23 JUMP JUMPDEST PUSH2 0xA29 JUMP JUMPDEST PUSH1 0x2 SLOAD PUSH2 0x29A SWAP1 PUSH1 0x1 PUSH1 0x1 PUSH1 0xA0 SHL SUB AND DUP2 JUMP JUMPDEST PUSH1 0x40 MLOAD PUSH1 0x1 PUSH1 0x1 PUSH1 0xA0 SHL SUB SWAP1 SWAP2 AND DUP2 MSTORE PUSH1 0x20 ADD PUSH2 0x18D JUMP JUMPDEST PUSH2 0x1D4 PUSH2 0x2C0 CALLDATASIZE PUSH1 0x4 PUSH2 0xF23 JUMP JUMPDEST PUSH2 0xA53 JUMP JUMPDEST PUSH32 0x0 PUSH2 0x29A JUMP JUMPDEST PUSH2 0x1D4 PUSH2 0x2F9 CALLDATASIZE PUSH1 0x4 PUSH2 0x1006 JUMP JUMPDEST PUSH2 0xA8B JUMP JUMPDEST PUSH2 0x1D4 PUSH2 0xAA6 JUMP JUMPDEST PUSH2 0x29A PUSH32 0x0 DUP2 JUMP JUMPDEST PUSH2 0x1B1 PUSH2 0x33B CALLDATASIZE PUSH1 0x4 PUSH2 0xF23 JUMP JUMPDEST PUSH2 0xAC0 JUMP JUMPDEST PUSH2 0x183 PUSH0 DUP2 JUMP JUMPDEST PUSH2 0x1D4 PUSH2 0x355 CALLDATASIZE PUSH1 0x4 PUSH2 0x1006 JUMP JUMPDEST PUSH2 0xAE8 JUMP JUMPDEST PUSH1 0x1 SLOAD PUSH2 0x29A SWAP1 PUSH1 0x1 PUSH1 0x1 PUSH1 0xA0 SHL SUB AND DUP2 JUMP JUMPDEST PUSH2 0x1D4 PUSH2 0x37B CALLDATASIZE PUSH1 0x4 PUSH2 0xF23 JUMP JUMPDEST PUSH2 0xC67 JUMP JUMPDEST PUSH2 0x1D4 PUSH2 0xC8B JUMP JUMPDEST PUSH2 0x1D4 PUSH2 0x396 CALLDATASIZE PUSH1 0x4 PUSH2 0x1006 JUMP JUMPDEST PUSH2 0xC98 JUMP JUMPDEST PUSH2 0x183 PUSH0 DUP1 MLOAD PUSH1 0x20 PUSH2 0x106F DUP4 CODECOPY DUP2 MLOAD SWAP2 MSTORE DUP2 JUMP JUMPDEST PUSH1 0x3 SLOAD PUSH2 0x29A SWAP1 PUSH1 0x1 PUSH1 0x1 PUSH1 0xA0 SHL SUB AND DUP2 JUMP JUMPDEST PUSH0 PUSH0 DUP1 MLOAD PUSH1 0x20 PUSH2 0x106F DUP4 CODECOPY DUP2 MLOAD SWAP2 MSTORE PUSH2 0x3DA DUP2 PUSH2 0xCC9 JUMP JUMPDEST PUSH0 DUP5 GT PUSH2 0x423 JUMPI PUSH1 0x40 MLOAD PUSH3 0x461BCD PUSH1 0xE5 SHL DUP2 MSTORE PUSH1 0x20 PUSH1 0x4 DUP3 ADD MSTORE PUSH1 0x12 PUSH1 0x24 DUP3 ADD MSTORE PUSH18 0x416D6F756E74206D757374206265203E203 PUSH1 0x74 SHL PUSH1 0x44 DUP3 ADD MSTORE PUSH1 0x64 ADD JUMPDEST PUSH1 0x40 MLOAD DUP1 SWAP2 SUB SWAP1 REVERT JUMPDEST PUSH1 0x1 PUSH1 0x1 PUSH1 0xA0 SHL SUB DUP4 AND PUSH2 0x46C JUMPI PUSH1 0x40 MLOAD PUSH3 0x461BCD PUSH1 0xE5 SHL DUP2 MSTORE PUSH1 0x20 PUSH1 0x4 DUP3 ADD MSTORE PUSH1 0x10 PUSH1 0x24 DUP3 ADD MSTORE PUSH16 0x24B73B30B634B2103932B1B2B4BB32B9 PUSH1 0x81 SHL PUSH1 0x44 DUP3 ADD MSTORE PUSH1 0x64 ADD PUSH2 0x41A JUMP JUMPDEST PUSH0 ADDRESS PUSH1 0x1 PUSH1 0x1 PUSH1 0xA0 SHL SUB AND PUSH4 0x1E1D114 PUSH1 0x40 MLOAD DUP2 PUSH4 0xFFFFFFFF AND PUSH1 0xE0 SHL DUP2 MSTORE PUSH1 0x4 ADD PUSH1 0x20 PUSH1 0x40 MLOAD DUP1 DUP4 SUB DUP2 DUP7 GAS STATICCALL ISZERO DUP1 ISZERO PUSH2 0x4A9 JUMPI RETURNDATASIZE PUSH0 DUP1 RETURNDATACOPY RETURNDATASIZE PUSH0 REVERT JUMPDEST POP POP POP POP PUSH1 0x40 MLOAD RETURNDATASIZE PUSH1 0x1F NOT PUSH1 0x1F DUP3 ADD AND DUP3 ADD DUP1 PUSH1 0x40 MSTORE POP DUP2 ADD SWAP1 PUSH2 0x4CD SWAP2 SWAP1 PUSH2 0x101D JUMP JUMPDEST SWAP1 POP PUSH0 DUP2 DUP7 LT PUSH2 0x4DD JUMPI DUP2 PUSH2 0x4DF JUMP JUMPDEST DUP6 JUMPDEST PUSH1 0x40 MLOAD PUSH4 0x70A08231 PUSH1 0xE0 SHL DUP2 MSTORE ADDRESS PUSH1 0x4 DUP3 ADD MSTORE SWAP1 SWAP2 POP PUSH0 SWAP1 PUSH1 0x1 PUSH1 0x1 PUSH1 0xA0 SHL SUB PUSH32 0x0 AND SWAP1 PUSH4 0x70A08231 SWAP1 PUSH1 0x24 ADD PUSH1 0x20 PUSH1 0x40 MLOAD DUP1 DUP4 SUB DUP2 DUP7 GAS STATICCALL ISZERO DUP1 ISZERO PUSH2 0x546 JUMPI RETURNDATASIZE PUSH0 DUP1 RETURNDATACOPY RETURNDATASIZE PUSH0 REVERT JUMPDEST POP POP POP POP PUSH1 0x40 MLOAD RETURNDATASIZE PUSH1 0x1F NOT PUSH1 0x1F DUP3 ADD AND DUP3 ADD DUP1 PUSH1 0x40 MSTORE POP DUP2 ADD SWAP1 PUSH2 0x56A SWAP2 SWAP1 PUSH2 0x101D JUMP JUMPDEST SWAP1 POP DUP2 DUP2 LT PUSH2 0x579 JUMPI DUP2 PUSH2 0x57B JUMP JUMPDEST DUP1 JUMPDEST SWAP5 POP DUP5 ISZERO PUSH2 0x61D JUMPI PUSH2 0x5B7 PUSH1 0x1 PUSH1 0x1 PUSH1 0xA0 SHL SUB PUSH32 0x0 AND DUP8 DUP8 PUSH2 0xCD3 JUMP JUMPDEST PUSH1 0x6 SLOAD DUP6 GT PUSH2 0x5DC JUMPI DUP5 PUSH1 0x6 PUSH0 DUP3 DUP3 SLOAD PUSH2 0x5D1 SWAP2 SWAP1 PUSH2 0x1048 JUMP JUMPDEST SWAP1 SWAP2 SSTORE POP PUSH2 0x61D SWAP1 POP JUMP JUMPDEST PUSH1 0x6 SLOAD PUSH0 PUSH2 0x5EA DUP3 DUP9 PUSH2 0x1048 JUMP JUMPDEST PUSH0 PUSH1 0x6 SSTORE PUSH1 0x4 SLOAD SWAP1 SWAP2 POP DUP2 LT PUSH2 0x603 JUMPI PUSH0 PUSH1 0x4 SSTORE PUSH2 0x61A JUMP JUMPDEST DUP1 PUSH1 0x4 PUSH0 DUP3 DUP3 SLOAD PUSH2 0x614 SWAP2 SWAP1 PUSH2 0x1048 JUMP JUMPDEST SWAP1 SWAP2 SSTORE POP POP JUMPDEST POP POP JUMPDEST PUSH1 0x40 DUP1 MLOAD DUP9 DUP2 MSTORE PUSH1 0x20 DUP2 ADD DUP8 SWAP1 MSTORE PUSH32 0xDD42AFDCF46EB795B638427459F02B0D5B94751009A7E0B23B39B7289B42117B SWAP2 ADD PUSH1 0x40 MLOAD DUP1 SWAP2 SUB SWAP1 LOG1 POP POP POP POP SWAP3 SWAP2 POP POP JUMP JUMPDEST PUSH1 0x1 SLOAD PUSH0 SWAP1 PUSH1 0x1 PUSH1 0x1 PUSH1 0xA0 SHL SUB AND ISZERO DUP1 PUSH2 0x683 JUMPI POP PUSH1 0x2 SLOAD PUSH1 0x1 PUSH1 0x1 PUSH1 0xA0 SHL SUB AND ISZERO JUMPDEST ISZERO PUSH2 0x68D JUMPI POP PUSH0 SWAP1 JUMP JUMPDEST PUSH1 0x6 SLOAD PUSH1 0x4 SLOAD PUSH2 0x69D SWAP2 SWAP1 PUSH2 0x105B JUMP JUMPDEST SWAP1 POP SWAP1 JUMP JUMPDEST PUSH0 PUSH1 0x1 PUSH1 0x1 PUSH1 0xE0 SHL SUB NOT DUP3 AND PUSH4 0x7965DB0B PUSH1 0xE0 SHL EQ DUP1 PUSH2 0x6D2 JUMPI POP PUSH4 0x1FFC9A7 PUSH1 0xE0 SHL PUSH1 0x1 PUSH1 0x1 PUSH1 0xE0 SHL SUB NOT DUP4 AND EQ JUMPDEST SWAP3 SWAP2 POP POP JUMP JUMPDEST PUSH0 PUSH2 0x6E2 DUP2 PUSH2 0xCC9 JUMP JUMPDEST PUSH1 0x1 PUSH1 0x1 PUSH1 0xA0 SHL SUB DUP5 AND PUSH2 0x738 JUMPI PUSH1 0x40 MLOAD PUSH3 0x461BCD PUSH1 0xE5 SHL DUP2 MSTORE PUSH1 0x20 PUSH1 0x4 DUP3 ADD MSTORE PUSH1 0x18 PUSH1 0x24 DUP3 ADD MSTORE PUSH32 0x496E76616C6964207374616B696E6720636F6E74726163740000000000000000 PUSH1 0x44 DUP3 ADD MSTORE PUSH1 0x64 ADD PUSH2 0x41A JUMP JUMPDEST PUSH1 0x1 PUSH1 0x1 PUSH1 0xA0 SHL SUB DUP4 AND PUSH2 0x77E JUMPI PUSH1 0x40 MLOAD PUSH3 0x461BCD PUSH1 0xE5 SHL DUP2 MSTORE PUSH1 0x20 PUSH1 0x4 DUP3 ADD MSTORE PUSH1 0xD PUSH1 0x24 DUP3 ADD MSTORE PUSH13 0x496E76616C696420737458525 PUSH1 0x9C SHL PUSH1 0x44 DUP3 ADD MSTORE PUSH1 0x64 ADD PUSH2 0x41A JUMP JUMPDEST PUSH1 0x1 DUP1 SLOAD PUSH1 0x1 PUSH1 0x1 PUSH1 0xA0 SHL SUB NOT SWAP1 DUP2 AND PUSH1 0x1 PUSH1 0x1 PUSH1 0xA0 SHL SUB DUP8 DUP2 AND SWAP2 DUP3 OR SWAP1 SWAP4 SSTORE PUSH1 0x2 DUP1 SLOAD DUP4 AND DUP8 DUP6 AND SWAP1 DUP2 OR SWAP1 SWAP2 SSTORE PUSH1 0x3 DUP1 SLOAD SWAP1 SWAP4 AND SWAP4 DUP7 AND SWAP4 DUP5 OR SWAP1 SWAP3 SSTORE PUSH1 0x40 MLOAD PUSH32 0x18BCB63C2F2711D42CF75A9608021BC934569511770AAD20D82F43FD6ED863AC SWAP1 PUSH0 SWAP1 LOG4 POP POP POP POP JUMP JUMPDEST PUSH0 PUSH2 0x7F6 DUP2 PUSH2 0xCC9 JUMP JUMPDEST PUSH1 0x1 SLOAD PUSH1 0x1 PUSH1 0x1 PUSH1 0xA0 SHL SUB AND PUSH2 0x849 JUMPI PUSH1 0x40 MLOAD PUSH3 0x461BCD PUSH1 0xE5 SHL DUP2 MSTORE PUSH1 0x20 PUSH1 0x4 DUP3 ADD MSTORE PUSH1 0x18 PUSH1 0x24 DUP3 ADD MSTORE PUSH24 0x119A5C995B1A59DA1D081B9BDD0818DBDB999A59DD5C9959 PUSH1 0x42 SHL PUSH1 0x44 DUP3 ADD MSTORE PUSH1 0x64 ADD PUSH2 0x41A JUMP JUMPDEST PUSH1 0x2 SLOAD PUSH1 0x1 PUSH1 0x1 PUSH1 0xA0 SHL SUB AND PUSH2 0x898 JUMPI PUSH1 0x40 MLOAD PUSH3 0x461BCD PUSH1 0xE5 SHL DUP2 MSTORE PUSH1 0x20 PUSH1 0x4 DUP3 ADD MSTORE PUSH1 0x14 PUSH1 0x24 DUP3 ADD MSTORE PUSH20 0x1CDD161494081B9BDD0818DBDB999A59DD5C9959 PUSH1 0x62 SHL PUSH1 0x44 DUP3 ADD MSTORE PUSH1 0x64 ADD PUSH2 0x41A JUMP JUMPDEST POP PUSH1 0x3 DUP1 SLOAD PUSH1 0xFF PUSH1 0xA0 SHL NOT AND PUSH1 0x1 PUSH1 0xA0 SHL OR SWAP1 SSTORE JUMP JUMPDEST PUSH0 DUP1 PUSH0 PUSH0 DUP1 MLOAD PUSH1 0x20 PUSH2 0x106F DUP4 CODECOPY DUP2 MLOAD SWAP2 MSTORE PUSH2 0x8C8 DUP2 PUSH2 0xCC9 JUMP JUMPDEST ADDRESS PUSH1 0x1 PUSH1 0x1 PUSH1 0xA0 SHL SUB AND PUSH4 0x1E1D114 PUSH1 0x40 MLOAD DUP2 PUSH4 0xFFFFFFFF AND PUSH1 0xE0 SHL DUP2 MSTORE PUSH1 0x4 ADD PUSH1 0x20 PUSH1 0x40 MLOAD DUP1 DUP4 SUB DUP2 DUP7 GAS STATICCALL ISZERO DUP1 ISZERO PUSH2 0x904 JUMPI RETURNDATASIZE PUSH0 DUP1 RETURNDATACOPY RETURNDATASIZE PUSH0 REVERT JUMPDEST POP POP POP POP PUSH1 0x40 MLOAD RETURNDATASIZE PUSH1 0x1F NOT PUSH1 0x1F DUP3 ADD AND DUP3 ADD DUP1 PUSH1 0x40 MSTORE POP DUP2 ADD SWAP1 PUSH2 0x928 SWAP2 SWAP1 PUSH2 0x101D JUMP JUMPDEST PUSH1 0x7 SLOAD SWAP1 SWAP3 POP PUSH1 0xFF AND PUSH2 0x992 JUMPI PUSH1 0x5 DUP3 SWAP1 SSTORE PUSH1 0x7 DUP1 SLOAD PUSH1 0xFF NOT AND PUSH1 0x1 OR SWAP1 SSTORE PUSH1 0x40 DUP1 MLOAD PUSH0 DUP1 DUP3 MSTORE PUSH1 0x20 DUP3 ADD MSTORE SWAP1 DUP2 ADD DUP4 SWAP1 MSTORE PUSH32 0x405E726EE7EEAB6E960605E249C046182F24B17603580FAFF1165520C30596FE SWAP1 PUSH1 0x60 ADD PUSH1 0x40 MLOAD DUP1 SWAP2 SUB SWAP1 LOG1 PUSH0 DUP1 SWAP4 POP SWAP4 POP PUSH2 0xA23 JUMP JUMPDEST PUSH1 0x5 SLOAD DUP3 GT ISZERO PUSH2 0x9B3 JUMPI PUSH1 0x5 SLOAD PUSH2 0x9A9 SWAP1 DUP4 PUSH2 0x1048 JUMP JUMPDEST SWAP4 POP PUSH0 SWAP3 POP PUSH2 0x9DC JUMP JUMPDEST PUSH1 0x5 SLOAD DUP3 LT ISZERO PUSH2 0x9D5 JUMPI PUSH0 SWAP4 POP DUP2 PUSH1 0x5 SLOAD PUSH2 0x9CE SWAP2 SWAP1 PUSH2 0x1048 JUMP JUMPDEST SWAP3 POP PUSH2 0x9DC JUMP JUMPDEST PUSH0 SWAP4 POP PUSH0 SWAP3 POP JUMPDEST PUSH1 0x5 DUP3 SWAP1 SSTORE PUSH1 0x40 DUP1 MLOAD DUP6 DUP2 MSTORE PUSH1 0x20 DUP2 ADD DUP6 SWAP1 MSTORE SWAP1 DUP2 ADD DUP4 SWAP1 MSTORE PUSH32 0x405E726EE7EEAB6E960605E249C046182F24B17603580FAFF1165520C30596FE SWAP1 PUSH1 0x60 ADD PUSH1 0x40 MLOAD DUP1 SWAP2 SUB SWAP1 LOG1 JUMPDEST POP SWAP1 SWAP2 SWAP3 JUMP JUMPDEST PUSH0 DUP3 DUP2 MSTORE PUSH1 0x20 DUP2 SWAP1 MSTORE PUSH1 0x40 SWAP1 KECCAK256 PUSH1 0x1 ADD SLOAD PUSH2 0xA43 DUP2 PUSH2 0xCC9 JUMP JUMPDEST PUSH2 0xA4D DUP4 DUP4 PUSH2 0xD32 JUMP JUMPDEST POP POP POP POP JUMP JUMPDEST PUSH1 0x1 PUSH1 0x1 PUSH1 0xA0 SHL SUB DUP2 AND CALLER EQ PUSH2 0xA7C JUMPI PUSH1 0x40 MLOAD PUSH4 0x334BD919 PUSH1 0xE1 SHL DUP2 MSTORE PUSH1 0x4 ADD PUSH1 0x40 MLOAD DUP1 SWAP2 SUB SWAP1 REVERT JUMPDEST PUSH2 0xA86 DUP3 DUP3 PUSH2 0xDC1 JUMP JUMPDEST POP POP POP JUMP JUMPDEST PUSH0 DUP1 MLOAD PUSH1 0x20 PUSH2 0x106F DUP4 CODECOPY DUP2 MLOAD SWAP2 MSTORE PUSH2 0xAA2 DUP2 PUSH2 0xCC9 JUMP JUMPDEST POP POP JUMP JUMPDEST PUSH0 PUSH2 0xAB0 DUP2 PUSH2 0xCC9 JUMP JUMPDEST POP PUSH1 0x3 DUP1 SLOAD PUSH1 0xFF PUSH1 0xA0 SHL NOT AND SWAP1 SSTORE JUMP JUMPDEST PUSH0 SWAP2 DUP3 MSTORE PUSH1 0x20 DUP3 DUP2 MSTORE PUSH1 0x40 DUP1 DUP5 KECCAK256 PUSH1 0x1 PUSH1 0x1 PUSH1 0xA0 SHL SUB SWAP4 SWAP1 SWAP4 AND DUP5 MSTORE SWAP2 SWAP1 MSTORE SWAP1 KECCAK256 SLOAD PUSH1 0xFF AND SWAP1 JUMP JUMPDEST PUSH0 DUP1 MLOAD PUSH1 0x20 PUSH2 0x106F DUP4 CODECOPY DUP2 MLOAD SWAP2 MSTORE PUSH2 0xAFF DUP2 PUSH2 0xCC9 JUMP JUMPDEST PUSH1 0x3 SLOAD PUSH1 0x1 PUSH1 0xA0 SHL SWAP1 DIV PUSH1 0xFF AND PUSH2 0xB4E JUMPI PUSH1 0x40 MLOAD PUSH3 0x461BCD PUSH1 0xE5 SHL DUP2 MSTORE PUSH1 0x20 PUSH1 0x4 DUP3 ADD MSTORE PUSH1 0x13 PUSH1 0x24 DUP3 ADD MSTORE PUSH19 0x5374726174656779206E6F7420616374697665 PUSH1 0x68 SHL PUSH1 0x44 DUP3 ADD MSTORE PUSH1 0x64 ADD PUSH2 0x41A JUMP JUMPDEST PUSH0 DUP3 GT PUSH2 0xB92 JUMPI PUSH1 0x40 MLOAD PUSH3 0x461BCD PUSH1 0xE5 SHL DUP2 MSTORE PUSH1 0x20 PUSH1 0x4 DUP3 ADD MSTORE PUSH1 0x12 PUSH1 0x24 DUP3 ADD MSTORE PUSH18 0x416D6F756E74206D757374206265203E203 PUSH1 0x74 SHL PUSH1 0x44 DUP3 ADD MSTORE PUSH1 0x64 ADD PUSH2 0x41A JUMP JUMPDEST PUSH1 0x1 SLOAD PUSH1 0x1 PUSH1 0x1 PUSH1 0xA0 SHL SUB AND PUSH2 0xBE5 JUMPI PUSH1 0x40 MLOAD PUSH3 0x461BCD PUSH1 0xE5 SHL DUP2 MSTORE PUSH1 0x20 PUSH1 0x4 DUP3 ADD MSTORE PUSH1 0x18 PUSH1 0x24 DUP3 ADD MSTORE PUSH24 0x119A5C995B1A59DA1D081B9BDD0818DBDB999A59DD5C9959 PUSH1 0x42 SHL PUSH1 0x44 DUP3 ADD MSTORE PUSH1 0x64 ADD PUSH2 0x41A JUMP JUMPDEST PUSH2 0xC1A PUSH1 0x1 PUSH1 0x1 PUSH1 0xA0 SHL SUB PUSH32 0x0 AND CALLER ADDRESS DUP6 PUSH2 0xE2A JUMP JUMPDEST DUP2 PUSH1 0x4 PUSH0 DUP3 DUP3 SLOAD PUSH2 0xC2B SWAP2 SWAP1 PUSH2 0x105B JUMP JUMPDEST SWAP1 SWAP2 SSTORE POP POP PUSH1 0x40 MLOAD DUP3 DUP2 MSTORE PUSH32 0xADDD44926E5F84A03B77260682F3E40498D74E32088D096BABE1B446FDF80CC5 SWAP1 PUSH1 0x20 ADD PUSH1 0x40 MLOAD DUP1 SWAP2 SUB SWAP1 LOG1 POP POP JUMP JUMPDEST PUSH0 DUP3 DUP2 MSTORE PUSH1 0x20 DUP2 SWAP1 MSTORE PUSH1 0x40 SWAP1 KECCAK256 PUSH1 0x1 ADD SLOAD PUSH2 0xC81 DUP2 PUSH2 0xCC9 JUMP JUMPDEST PUSH2 0xA4D DUP4 DUP4 PUSH2 0xDC1 JUMP JUMPDEST PUSH0 PUSH2 0xC95 DUP2 PUSH2 0xCC9 JUMP JUMPDEST POP JUMP JUMPDEST PUSH0 DUP1 MLOAD PUSH1 0x20 PUSH2 0x106F DUP4 CODECOPY DUP2 MLOAD SWAP2 MSTORE PUSH2 0xCAF DUP2 PUSH2 0xCC9 JUMP JUMPDEST DUP2 PUSH1 0x6 PUSH0 DUP3 DUP3 SLOAD PUSH2 0xCC0 SWAP2 SWAP1 PUSH2 0x105B JUMP JUMPDEST SWAP1 SWAP2 SSTORE POP POP POP POP JUMP JUMPDEST PUSH2 0xC95 DUP2 CALLER PUSH2 0xE63 JUMP JUMPDEST PUSH1 0x40 MLOAD PUSH1 0x1 PUSH1 0x1 PUSH1 0xA0 SHL SUB DUP4 DUP2 AND PUSH1 0x24 DUP4 ADD MSTORE PUSH1 0x44 DUP3 ADD DUP4 SWAP1 MSTORE PUSH2 0xA86 SWAP2 DUP6 SWAP2 DUP3 AND SWAP1 PUSH4 0xA9059CBB SWAP1 PUSH1 0x64 ADD JUMPDEST PUSH1 0x40 MLOAD PUSH1 0x20 DUP2 DUP4 SUB SUB DUP2 MSTORE SWAP1 PUSH1 0x40 MSTORE SWAP2 POP PUSH1 0xE0 SHL PUSH1 0x20 DUP3 ADD DUP1 MLOAD PUSH1 0x1 PUSH1 0x1 PUSH1 0xE0 SHL SUB DUP4 DUP2 DUP4 AND OR DUP4 MSTORE POP POP POP POP PUSH2 0xE9C JUMP JUMPDEST PUSH0 PUSH2 0xD3D DUP4 DUP4 PUSH2 0xAC0 JUMP JUMPDEST PUSH2 0xDBA JUMPI PUSH0 DUP4 DUP2 MSTORE PUSH1 0x20 DUP2 DUP2 MSTORE PUSH1 0x40 DUP1 DUP4 KECCAK256 PUSH1 0x1 PUSH1 0x1 PUSH1 0xA0 SHL SUB DUP7 AND DUP5 MSTORE SWAP1 SWAP2 MSTORE SWAP1 KECCAK256 DUP1 SLOAD PUSH1 0xFF NOT AND PUSH1 0x1 OR SWAP1 SSTORE PUSH2 0xD72 CALLER SWAP1 JUMP JUMPDEST PUSH1 0x1 PUSH1 0x1 PUSH1 0xA0 SHL SUB AND DUP3 PUSH1 0x1 PUSH1 0x1 PUSH1 0xA0 SHL SUB AND DUP5 PUSH32 0x2F8788117E7EFF1D82E926EC794901D17C78024A50270940304540A733656F0D PUSH1 0x40 MLOAD PUSH1 0x40 MLOAD DUP1 SWAP2 SUB SWAP1 LOG4 POP PUSH1 0x1 PUSH2 0x6D2 JUMP JUMPDEST POP PUSH0 PUSH2 0x6D2 JUMP JUMPDEST PUSH0 PUSH2 0xDCC DUP4 DUP4 PUSH2 0xAC0 JUMP JUMPDEST ISZERO PUSH2 0xDBA JUMPI PUSH0 DUP4 DUP2 MSTORE PUSH1 0x20 DUP2 DUP2 MSTORE PUSH1 0x40 DUP1 DUP4 KECCAK256 PUSH1 0x1 PUSH1 0x1 PUSH1 0xA0 SHL SUB DUP7 AND DUP1 DUP6 MSTORE SWAP3 MSTORE DUP1 DUP4 KECCAK256 DUP1 SLOAD PUSH1 0xFF NOT AND SWAP1 SSTORE MLOAD CALLER SWAP3 DUP7 SWAP2 PUSH32 0xF6391F5C32D9C69D2A47EA670B442974B53935D1EDC7FD64EB21E047A839171B SWAP2 SWAP1 LOG4 POP PUSH1 0x1 PUSH2 0x6D2 JUMP JUMPDEST PUSH1 0x40 MLOAD PUSH1 0x1 PUSH1 0x1 PUSH1 0xA0 SHL SUB DUP5 DUP2 AND PUSH1 0x24 DUP4 ADD MSTORE DUP4 DUP2 AND PUSH1 0x44 DUP4 ADD MSTORE PUSH1 0x64 DUP3 ADD DUP4 SWAP1 MSTORE PUSH2 0xA4D SWAP2 DUP7 SWAP2 DUP3 AND SWAP1 PUSH4 0x23B872DD SWAP1 PUSH1 0x84 ADD PUSH2 0xD00 JUMP JUMPDEST PUSH2 0xE6D DUP3 DUP3 PUSH2 0xAC0 JUMP JUMPDEST PUSH2 0xAA2 JUMPI PUSH1 0x40 MLOAD PUSH4 0xE2517D3F PUSH1 0xE0 SHL DUP2 MSTORE PUSH1 0x1 PUSH1 0x1 PUSH1 0xA0 SHL SUB DUP3 AND PUSH1 0x4 DUP3 ADD MSTORE PUSH1 0x24 DUP2 ADD DUP4 SWAP1 MSTORE PUSH1 0x44 ADD PUSH2 0x41A JUMP JUMPDEST PUSH0 DUP1 PUSH1 0x20 PUSH0 DUP5 MLOAD PUSH1 0x20 DUP7 ADD PUSH0 DUP9 GAS CALL DUP1 PUSH2 0xEBB JUMPI PUSH1 0x40 MLOAD RETURNDATASIZE PUSH0 DUP3 RETURNDATACOPY RETURNDATASIZE DUP2 REVERT JUMPDEST POP POP PUSH0 MLOAD RETURNDATASIZE SWAP2 POP DUP2 ISZERO PUSH2 0xED2 JUMPI DUP1 PUSH1 0x1 EQ ISZERO PUSH2 0xEDF JUMP JUMPDEST PUSH1 0x1 PUSH1 0x1 PUSH1 0xA0 SHL SUB DUP5 AND EXTCODESIZE ISZERO JUMPDEST ISZERO PUSH2 0xA4D JUMPI PUSH1 0x40 MLOAD PUSH4 0x5274AFE7 PUSH1 0xE0 SHL DUP2 MSTORE PUSH1 0x1 PUSH1 0x1 PUSH1 0xA0 SHL SUB DUP6 AND PUSH1 0x4 DUP3 ADD MSTORE PUSH1 0x24 ADD PUSH2 0x41A JUMP JUMPDEST DUP1 CALLDATALOAD PUSH1 0x1 PUSH1 0x1 PUSH1 0xA0 SHL SUB DUP2 AND DUP2 EQ PUSH2 0xF1E JUMPI PUSH0 DUP1 REVERT JUMPDEST SWAP2 SWAP1 POP JUMP JUMPDEST PUSH0 DUP1 PUSH1 0x40 DUP4 DUP6 SUB SLT ISZERO PUSH2 0xF34 JUMPI PUSH0 DUP1 REVERT JUMPDEST DUP3 CALLDATALOAD SWAP2 POP PUSH2 0xF44 PUSH1 0x20 DUP5 ADD PUSH2 0xF08 JUMP JUMPDEST SWAP1 POP SWAP3 POP SWAP3 SWAP1 POP JUMP JUMPDEST PUSH0 PUSH1 0x20 DUP3 DUP5 SUB SLT ISZERO PUSH2 0xF5D JUMPI PUSH0 DUP1 REVERT JUMPDEST DUP2 CALLDATALOAD PUSH1 0x1 PUSH1 0x1 PUSH1 0xE0 SHL SUB NOT DUP2 AND DUP2 EQ PUSH2 0xF74 JUMPI PUSH0 DUP1 REVERT JUMPDEST SWAP4 SWAP3 POP POP POP JUMP JUMPDEST PUSH0 DUP1 PUSH0 PUSH1 0x60 DUP5 DUP7 SUB SLT ISZERO PUSH2 0xF8D JUMPI PUSH0 DUP1 REVERT JUMPDEST PUSH2 0xF96 DUP5 PUSH2 0xF08 JUMP JUMPDEST SWAP3 POP PUSH2 0xFA4 PUSH1 0x20 DUP6 ADD PUSH2 0xF08 JUMP JUMPDEST SWAP2 POP PUSH2 0xFB2 PUSH1 0x40 DUP6 ADD PUSH2 0xF08 JUMP JUMPDEST SWAP1 POP SWAP3 POP SWAP3 POP SWAP3 JUMP JUMPDEST PUSH0 PUSH1 0x20 DUP1 DUP4 MSTORE DUP4 MLOAD DUP1 DUP3 DUP6 ADD MSTORE PUSH0 JUMPDEST DUP2 DUP2 LT ISZERO PUSH2 0xFE6 JUMPI DUP6 DUP2 ADD DUP4 ADD MLOAD DUP6 DUP3 ADD PUSH1 0x40 ADD MSTORE DUP3 ADD PUSH2 0xFCA JUMP JUMPDEST POP PUSH0 PUSH1 0x40 DUP3 DUP7 ADD ADD MSTORE PUSH1 0x40 PUSH1 0x1F NOT PUSH1 0x1F DUP4 ADD AND DUP6 ADD ADD SWAP3 POP POP POP SWAP3 SWAP2 POP POP JUMP JUMPDEST PUSH0 PUSH1 0x20 DUP3 DUP5 SUB SLT ISZERO PUSH2 0x1016 JUMPI PUSH0 DUP1 REVERT JUMPDEST POP CALLDATALOAD SWAP2 SWAP1 POP JUMP JUMPDEST PUSH0 PUSH1 0x20 DUP3 DUP5 SUB SLT ISZERO PUSH2 0x102D JUMPI PUSH0 DUP1 REVERT JUMPDEST POP MLOAD SWAP2 SWAP1 POP JUMP JUMPDEST PUSH4 0x4E487B71 PUSH1 0xE0 SHL PUSH0 MSTORE PUSH1 0x11 PUSH1 0x4 MSTORE PUSH1 0x24 PUSH0 REVERT JUMPDEST DUP2 DUP2 SUB DUP2 DUP2 GT ISZERO PUSH2 0x6D2 JUMPI PUSH2 0x6D2 PUSH2 0x1034 JUMP JUMPDEST DUP1 DUP3 ADD DUP1 DUP3 GT ISZERO PUSH2 0x6D2 JUMPI PUSH2 0x6D2 PUSH2 0x1034 JUMP INVALID SWAP8 PUSH7 0x7070C54EF182B0 CREATE2 DUP6 DUP12 SUB 0x4B 0xEA 0xC1 0xB6 RETURN ADDMOD SWAP11 LOG2 0xD3 XOR DUP12 0xB1 0xE8 SWAP3 SWAP16 0x4F 0xA9 0xB9 0x29 LOG2 PUSH5 0x6970667358 0x22 SLT KECCAK256 CREATE2 PUSH15 0x8F18585320932FCB7A3974EBC6F3D6 DUP3 SWAP2 0x2E 0xB7 ORIGIN 0xD7 0xBF COINBASE 0xEF PUSH19 0x41E17851E064736F6C63430008140033000000 "},"methodIdentifiers":{"DEFAULT_ADMIN_ROLE()":"a217fddf","OPERATOR_ROLE()":"f5b541a6","activate()":"0f15f4c0","asset()":"38d52e0f","claimUnstaking(uint256)":"3c7a2095","deactivate()":"51b42b00","deploy(uint256)":"a5e38751","emergencyWithdraw()":"db2e21bc","exchangeRateOracle()":"ffffce47","firelightStaking()":"b707d5c3","fxrpToken()":"6e131a7c","getRoleAdmin(bytes32)":"248a9ca3","grantRole(bytes32,address)":"2f2ff15d","hasRole(bytes32,address)":"91d14854","isActive()":"22f3e2d4","name()":"06fdde03","renounceRole(bytes32,address)":"36568abe","report()":"2606a10b","revokeRole(bytes32,address)":"d547741f","setFirelightConfig(address,address,address)":"0324bff0","simulateYield(uint256)":"e7ca856d","stXRPToken()":"33e84181","supportsInterface(bytes4)":"01ffc9a7","totalAssets()":"01e1d114","withdraw(uint256,address)":"00f714ce"}}}}}