{"project/contracts/ShXRPVault.sol":{"ShXRPVault":{"abi":[{"inputs":[{"internalType":"address","name":"_fxrpToken","type":"address"},{"internalType":"address","name":"_sparkRouter","type":"address"},{"internalType":"address","name":"_wflrToken","type":"address"}],"stateMutability":"nonpayable","type":"constructor"},{"inputs":[{"internalType":"address","name":"spender","type":"address"},{"internalType":"uint256","name":"allowance","type":"uint256"},{"internalType":"uint256","name":"needed","type":"uint256"}],"name":"ERC20InsufficientAllowance","type":"error"},{"inputs":[{"internalType":"address","name":"sender","type":"address"},{"internalType":"uint256","name":"balance","type":"uint256"},{"internalType":"uint256","name":"needed","type":"uint256"}],"name":"ERC20InsufficientBalance","type":"error"},{"inputs":[{"internalType":"address","name":"approver","type":"address"}],"name":"ERC20InvalidApprover","type":"error"},{"inputs":[{"internalType":"address","name":"receiver","type":"address"}],"name":"ERC20InvalidReceiver","type":"error"},{"inputs":[{"internalType":"address","name":"sender","type":"address"}],"name":"ERC20InvalidSender","type":"error"},{"inputs":[{"internalType":"address","name":"spender","type":"address"}],"name":"ERC20InvalidSpender","type":"error"},{"inputs":[{"internalType":"address","name":"owner","type":"address"}],"name":"OwnableInvalidOwner","type":"error"},{"inputs":[{"internalType":"address","name":"account","type":"address"}],"name":"OwnableUnauthorizedAccount","type":"error"},{"inputs":[],"name":"ReentrancyGuardReentrantCall","type":"error"},{"inputs":[{"internalType":"address","name":"token","type":"address"}],"name":"SafeERC20FailedOperation","type":"error"},{"anonymous":false,"inputs":[{"indexed":true,"internalType":"address","name":"owner","type":"address"},{"indexed":true,"internalType":"address","name":"spender","type":"address"},{"indexed":false,"internalType":"uint256","name":"value","type":"uint256"}],"name":"Approval","type":"event"},{"anonymous":false,"inputs":[{"indexed":false,"internalType":"uint256","name":"newRate","type":"uint256"}],"name":"ExchangeRateUpdated","type":"event"},{"anonymous":false,"inputs":[{"indexed":true,"internalType":"address","name":"operator","type":"address"},{"indexed":false,"internalType":"uint256","name":"amount","type":"uint256"}],"name":"FXRPDeposited","type":"event"},{"anonymous":false,"inputs":[{"indexed":false,"internalType":"uint256","name":"fxrpAmount","type":"uint256"},{"indexed":false,"internalType":"uint256","name":"flrAmount","type":"uint256"},{"indexed":false,"internalType":"uint256","name":"lpTokens","type":"uint256"}],"name":"FXRPStaked","type":"event"},{"anonymous":false,"inputs":[{"indexed":true,"internalType":"address","name":"lpToken","type":"address"}],"name":"LPTokenSet","type":"event"},{"anonymous":false,"inputs":[{"indexed":false,"internalType":"uint256","name":"newMinDeposit","type":"uint256"}],"name":"MinDepositUpdated","type":"event"},{"anonymous":false,"inputs":[{"indexed":true,"internalType":"address","name":"operator","type":"address"}],"name":"OperatorAdded","type":"event"},{"anonymous":false,"inputs":[{"indexed":true,"internalType":"address","name":"operator","type":"address"}],"name":"OperatorRemoved","type":"event"},{"anonymous":false,"inputs":[{"indexed":true,"internalType":"address","name":"previousOwner","type":"address"},{"indexed":true,"internalType":"address","name":"newOwner","type":"address"}],"name":"OwnershipTransferred","type":"event"},{"anonymous":false,"inputs":[{"indexed":false,"internalType":"uint256","name":"rewardAmount","type":"uint256"},{"indexed":false,"internalType":"uint256","name":"newExchangeRate","type":"uint256"}],"name":"RewardsCompounded","type":"event"},{"anonymous":false,"inputs":[{"indexed":false,"internalType":"uint256","name":"rewardAmount","type":"uint256"},{"indexed":false,"internalType":"uint256","name":"newExchangeRate","type":"uint256"}],"name":"RewardsDistributed","type":"event"},{"anonymous":false,"inputs":[{"indexed":true,"internalType":"address","name":"user","type":"address"},{"indexed":false,"internalType":"uint256","name":"shXRPAmount","type":"uint256"},{"indexed":false,"internalType":"uint256","name":"xrpAmount","type":"uint256"}],"name":"ShXRPBurned","type":"event"},{"anonymous":false,"inputs":[{"indexed":true,"internalType":"address","name":"user","type":"address"},{"indexed":false,"internalType":"uint256","name":"xrpAmount","type":"uint256"},{"indexed":false,"internalType":"uint256","name":"shXRPAmount","type":"uint256"},{"indexed":false,"internalType":"string","name":"xrplTxHash","type":"string"}],"name":"ShXRPMinted","type":"event"},{"anonymous":false,"inputs":[{"indexed":true,"internalType":"address","name":"from","type":"address"},{"indexed":true,"internalType":"address","name":"to","type":"address"},{"indexed":false,"internalType":"uint256","name":"value","type":"uint256"}],"name":"Transfer","type":"event"},{"anonymous":false,"inputs":[{"indexed":false,"internalType":"bool","name":"enabled","type":"bool"}],"name":"YieldEnabledUpdated","type":"event"},{"inputs":[{"internalType":"address","name":"operator","type":"address"}],"name":"addOperator","outputs":[],"stateMutability":"nonpayable","type":"function"},{"inputs":[{"internalType":"address","name":"owner","type":"address"},{"internalType":"address","name":"spender","type":"address"}],"name":"allowance","outputs":[{"internalType":"uint256","name":"","type":"uint256"}],"stateMutability":"view","type":"function"},{"inputs":[{"internalType":"address","name":"spender","type":"address"},{"internalType":"uint256","name":"value","type":"uint256"}],"name":"approve","outputs":[{"internalType":"bool","name":"","type":"bool"}],"stateMutability":"nonpayable","type":"function"},{"inputs":[{"internalType":"address","name":"account","type":"address"}],"name":"balanceOf","outputs":[{"internalType":"uint256","name":"","type":"uint256"}],"stateMutability":"view","type":"function"},{"inputs":[{"internalType":"uint256","name":"value","type":"uint256"}],"name":"burn","outputs":[],"stateMutability":"nonpayable","type":"function"},{"inputs":[{"internalType":"address","name":"account","type":"address"},{"internalType":"uint256","name":"value","type":"uint256"}],"name":"burnFrom","outputs":[],"stateMutability":"nonpayable","type":"function"},{"inputs":[{"internalType":"uint256","name":"shXRPAmount","type":"uint256"}],"name":"burnShXRP","outputs":[{"internalType":"uint256","name":"xrpAmount","type":"uint256"}],"stateMutability":"nonpayable","type":"function"},{"inputs":[{"internalType":"uint256","name":"xrpAmount","type":"uint256"}],"name":"calculateShXRPAmount","outputs":[{"internalType":"uint256","name":"","type":"uint256"}],"stateMutability":"view","type":"function"},{"inputs":[{"internalType":"uint256","name":"shXRPAmount","type":"uint256"}],"name":"calculateXRPAmount","outputs":[{"internalType":"uint256","name":"","type":"uint256"}],"stateMutability":"view","type":"function"},{"inputs":[],"name":"claimAndCompound","outputs":[],"stateMutability":"nonpayable","type":"function"},{"inputs":[],"name":"decimals","outputs":[{"internalType":"uint8","name":"","type":"uint8"}],"stateMutability":"pure","type":"function"},{"inputs":[{"internalType":"uint256","name":"amount","type":"uint256"}],"name":"depositFXRP","outputs":[],"stateMutability":"nonpayable","type":"function"},{"inputs":[{"internalType":"uint256","name":"rewardAmount","type":"uint256"}],"name":"distributeRewards","outputs":[],"stateMutability":"nonpayable","type":"function"},{"inputs":[],"name":"exchangeRate","outputs":[{"internalType":"uint256","name":"","type":"uint256"}],"stateMutability":"view","type":"function"},{"inputs":[],"name":"fxrpToken","outputs":[{"internalType":"contract IERC20","name":"","type":"address"}],"stateMutability":"view","type":"function"},{"inputs":[],"name":"getExchangeRate","outputs":[{"internalType":"uint256","name":"","type":"uint256"}],"stateMutability":"view","type":"function"},{"inputs":[],"name":"lpToken","outputs":[{"internalType":"address","name":"","type":"address"}],"stateMutability":"view","type":"function"},{"inputs":[],"name":"minDeposit","outputs":[{"internalType":"uint256","name":"","type":"uint256"}],"stateMutability":"view","type":"function"},{"inputs":[{"internalType":"address","name":"user","type":"address"},{"internalType":"uint256","name":"xrpAmount","type":"uint256"},{"internalType":"string","name":"xrplTxHash","type":"string"}],"name":"mintShXRP","outputs":[],"stateMutability":"nonpayable","type":"function"},{"inputs":[],"name":"name","outputs":[{"internalType":"string","name":"","type":"string"}],"stateMutability":"view","type":"function"},{"inputs":[{"internalType":"address","name":"","type":"address"}],"name":"operators","outputs":[{"internalType":"bool","name":"","type":"bool"}],"stateMutability":"view","type":"function"},{"inputs":[],"name":"owner","outputs":[{"internalType":"address","name":"","type":"address"}],"stateMutability":"view","type":"function"},{"inputs":[{"internalType":"address","name":"operator","type":"address"}],"name":"removeOperator","outputs":[],"stateMutability":"nonpayable","type":"function"},{"inputs":[],"name":"renounceOwnership","outputs":[],"stateMutability":"nonpayable","type":"function"},{"inputs":[{"internalType":"address","name":"_lpToken","type":"address"}],"name":"setLPToken","outputs":[],"stateMutability":"nonpayable","type":"function"},{"inputs":[{"internalType":"uint256","name":"newMinDeposit","type":"uint256"}],"name":"setMinDeposit","outputs":[],"stateMutability":"nonpayable","type":"function"},{"inputs":[{"internalType":"bool","name":"enabled","type":"bool"}],"name":"setYieldEnabled","outputs":[],"stateMutability":"nonpayable","type":"function"},{"inputs":[],"name":"sparkRouter","outputs":[{"internalType":"address","name":"","type":"address"}],"stateMutability":"view","type":"function"},{"inputs":[{"internalType":"uint256","name":"fxrpAmount","type":"uint256"},{"internalType":"uint256","name":"flrAmount","type":"uint256"}],"name":"stakeInDeFi","outputs":[],"stateMutability":"nonpayable","type":"function"},{"inputs":[],"name":"symbol","outputs":[{"internalType":"string","name":"","type":"string"}],"stateMutability":"view","type":"function"},{"inputs":[],"name":"totalFXRPDeposited","outputs":[{"internalType":"uint256","name":"","type":"uint256"}],"stateMutability":"view","type":"function"},{"inputs":[],"name":"totalFXRPInVault","outputs":[{"internalType":"uint256","name":"","type":"uint256"}],"stateMutability":"view","type":"function"},{"inputs":[],"name":"totalLPStaked","outputs":[{"internalType":"uint256","name":"","type":"uint256"}],"stateMutability":"view","type":"function"},{"inputs":[],"name":"totalSupply","outputs":[{"internalType":"uint256","name":"","type":"uint256"}],"stateMutability":"view","type":"function"},{"inputs":[],"name":"totalXRPLocked","outputs":[{"internalType":"uint256","name":"","type":"uint256"}],"stateMutability":"view","type":"function"},{"inputs":[{"internalType":"address","name":"to","type":"address"},{"internalType":"uint256","name":"value","type":"uint256"}],"name":"transfer","outputs":[{"internalType":"bool","name":"","type":"bool"}],"stateMutability":"nonpayable","type":"function"},{"inputs":[{"internalType":"address","name":"from","type":"address"},{"internalType":"address","name":"to","type":"address"},{"internalType":"uint256","name":"value","type":"uint256"}],"name":"transferFrom","outputs":[{"internalType":"bool","name":"","type":"bool"}],"stateMutability":"nonpayable","type":"function"},{"inputs":[{"internalType":"address","name":"newOwner","type":"address"}],"name":"transferOwnership","outputs":[],"stateMutability":"nonpayable","type":"function"},{"inputs":[],"name":"wflrToken","outputs":[{"internalType":"address","name":"","type":"address"}],"stateMutability":"view","type":"function"},{"inputs":[],"name":"yieldEnabled","outputs":[{"internalType":"bool","name":"","type":"bool"}],"stateMutability":"view","type":"function"}],"evm":{"bytecode":{"linkReferences":{},"object":"6080604052662386f26fc10000600855670de0b6b3a7640000600a5534801562000027575f80fd5b50604051620021c1380380620021c18339810160408190526200004a91620002f8565b336040518060400160405280600a8152602001690536869656c64205852560b41b81525060405180604001604052806005815260200164073685852560dc1b81525081600390816200009d9190620003df565b506004620000ac8282620003df565b5050506001600160a01b038116620000de57604051631e4fbdf760e01b81525f60048201526024015b60405180910390fd5b620000e9816200028b565b5060016006556001600160a01b038316620001475760405162461bcd60e51b815260206004820152601a60248201527f496e76616c6964204658525020746f6b656e20616464726573730000000000006044820152606401620000d5565b6001600160a01b0382166200019f5760405162461bcd60e51b815260206004820152601b60248201527f496e76616c696420537061726b526f75746572206164647265737300000000006044820152606401620000d5565b6001600160a01b038116620001f75760405162461bcd60e51b815260206004820152601a60248201527f496e76616c69642057464c5220746f6b656e20616464726573730000000000006044820152606401620000d5565b600b80546001600160a01b038086166001600160a01b031992831617909255600c8054858416908316179055600d8054928416929091169190911790556012805460ff19908116909155335f818152600760205260408082208054909416600117909355915190917fac6fa858e9350a46cec16539926e0fde25b7629f84b5a72bffaae4df888ae86d91a2505050620004a7565b600580546001600160a01b038381166001600160a01b0319831681179093556040519116919082907f8be0079c531659141344cd1fd0a4f28419497f9722a3daafe3b4186f6b6457e0905f90a35050565b80516001600160a01b0381168114620002f3575f80fd5b919050565b5f805f606084860312156200030b575f80fd5b6200031684620002dc565b92506200032660208501620002dc565b91506200033660408501620002dc565b90509250925092565b634e487b7160e01b5f52604160045260245ffd5b600181811c908216806200036857607f821691505b6020821081036200038757634e487b7160e01b5f52602260045260245ffd5b50919050565b601f821115620003da575f81815260208120601f850160051c81016020861015620003b55750805b601f850160051c820191505b81811015620003d657828155600101620003c1565b5050505b505050565b81516001600160401b03811115620003fb57620003fb6200033f565b62000413816200040c845462000353565b846200038d565b602080601f83116001811462000449575f8415620004315750858301515b5f19600386901b1c1916600185901b178555620003d6565b5f85815260208120601f198616915b82811015620004795788860151825594840194600190910190840162000458565b50858210156200049757878501515f19600388901b60f8161c191681555b5050505050600190811b01905550565b611d0c80620004b55f395ff3fe608060405234801561000f575f80fd5b506004361061023f575f3560e01c8063715018a611610135578063a9059cbb116100b4578063dd62ed3e11610079578063dd62ed3e146104cf578063e6aa216c14610507578063f2fde38b1461050f578063f734bd6e14610522578063fd0a487514610535575f80fd5b8063a9059cbb1461048a578063ac8a584a1461049d578063c2752e43146104b0578063d33a5088146104bd578063d5fc617e146104c6575f80fd5b80638fcc9cfb116100fa5780638fcc9cfb1461044157806395d89b41146104545780639870d7fe1461045c5780639b1650e31461046f578063a5854a3e14610477575f80fd5b8063715018a6146103f957806379cc6790146104015780638575837c14610414578063883426731461041d5780638da5cb5b14610430575f80fd5b8063346fe52c116101c157806359974e381161018657806359974e38146103855780635fcbd285146103985780636a678a9c146103ab5780636e131a7c146103be57806370a08231146103d1575f80fd5b8063346fe52c14610344578063391291621461034d5780633ba0b9a91461036057806341b3d1851461036957806342966c6814610372575f80fd5b806318160ddd1161020757806318160ddd146102dc57806323b872dd146102e4578063313ce567146102f757806332609af514610306578063326bf23f14610331575f80fd5b806306fdde0314610243578063095ea7b3146102615780631358bc8214610284578063135986b4146102a557806313e7c9d8146102ba575b5f80fd5b61024b610548565b604051610258919061199e565b60405180910390f35b61027461026f3660046119ff565b6105d8565b6040519015158152602001610258565b610297610292366004611a27565b6105f1565b604051908152602001610258565b6102b86102b3366004611a3e565b610612565b005b6102746102c8366004611a64565b60076020525f908152604090205460ff1681565b600254610297565b6102746102f2366004611a7d565b610662565b60405160128152602001610258565b600c54610319906001600160a01b031681565b6040516001600160a01b039091168152602001610258565b6102b861033f366004611a27565b610685565b610297600e5481565b61029761035b366004611a27565b61079e565b610297600a5481565b61029760085481565b6102b8610380366004611a27565b610934565b6102b8610393366004611a27565b610941565b601054610319906001600160a01b031681565b6102b86103b9366004611a64565b610a94565b600b54610319906001600160a01b031681565b6102976103df366004611a64565b6001600160a01b03165f9081526020819052604090205490565b6102b8610b7e565b6102b861040f3660046119ff565b610b91565b61029760115481565b6102b861042b366004611ab6565b610baa565b6005546001600160a01b0316610319565b6102b861044f366004611a27565b610f28565b61024b610fb4565b6102b861046a366004611a64565b610fc3565b6102b861106c565b6102b8610485366004611ad6565b61118d565b6102746104983660046119ff565b611357565b6102b86104ab366004611a64565b611364565b6012546102749060ff1681565b610297600f5481565b61029760095481565b6102976104dd366004611b56565b6001600160a01b039182165f90815260016020908152604080832093909416825291909152205490565b600a54610297565b6102b861051d366004611a64565b6113b4565b610297610530366004611a27565b6113ee565b600d54610319906001600160a01b031681565b60606003805461055790611b87565b80601f016020809104026020016040519081016040528092919081815260200182805461058390611b87565b80156105ce5780601f106105a5576101008083540402835291602001916105ce565b820191905f5260205f20905b8154815290600101906020018083116105b157829003601f168201915b5050505050905090565b5f336105e5818585611406565b60019150505b92915050565b600a545f9061060883670de0b6b3a7640000611bd3565b6105eb9190611bea565b61061a611418565b6012805460ff19168215159081179091556040519081527f8c4947dd3dc73344e27124f38de946c5fe5a4b59b8c9259241bc11376140267b906020015b60405180910390a150565b5f3361066f858285611445565b61067a8585856114bb565b506001949350505050565b335f9081526007602052604090205460ff16806106ac57506005546001600160a01b031633145b6106d15760405162461bcd60e51b81526004016106c890611c09565b60405180910390fd5b5f81116107205760405162461bcd60e51b815260206004820152601760248201527f416d6f756e74206d75737420626520706f73697469766500000000000000000060448201526064016106c8565b600b54610738906001600160a01b0316333084611518565b80600f5f8282546107499190611c32565b9250508190555080600e5f8282546107619190611c32565b909155505060405181815233907f9face92c6813909d4c19d9f5ec41f2a1e6a7020bc7f39fcd129da46dd63d53d39060200160405180910390a250565b5f6107a761157f565b5f82116107f65760405162461bcd60e51b815260206004820152601760248201527f43616e6e6f74206275726e207a65726f20616d6f756e7400000000000000000060448201526064016106c8565b335f908152602081905260409020548211156108545760405162461bcd60e51b815260206004820152601a60248201527f496e73756666696369656e742073685852502062616c616e636500000000000060448201526064016106c8565b670de0b6b3a7640000600a548361086b9190611bd3565b6108759190611bea565b90508060095410156108c95760405162461bcd60e51b815260206004820152601760248201527f496e73756666696369656e7420585250206c6f636b656400000000000000000060448201526064016106c8565b8060095f8282546108da9190611c45565b909155506108ea905033836115a9565b604080518381526020810183905233917f3687d72e72fd694708710d576afa7f8afe38a09a6812c73c5f94c97b605507ff910160405180910390a261092f6001600655565b919050565b61093e33826115a9565b50565b335f9081526007602052604090205460ff168061096857506005546001600160a01b031633145b6109845760405162461bcd60e51b81526004016106c890611c09565b5f81116109d35760405162461bcd60e51b815260206004820152601e60248201527f52657761726420616d6f756e74206d75737420626520706f736974697665000060448201526064016106c8565b5f6109dd60025490565b11610a205760405162461bcd60e51b8152602060048201526013602482015272139bc81cda161494081b5a5b9d1959081e595d606a1b60448201526064016106c8565b8060095f828254610a319190611c32565b9091555050600254600954610a4e90670de0b6b3a7640000611bd3565b610a589190611bea565b600a8190556040805183815260208101929092527f29e98ba00d07f171959c4ddcd2f3020debc7c52cf537a034d7e664340d098c6c9101610657565b610a9c611418565b6001600160a01b038116610ae55760405162461bcd60e51b815260206004820152601060248201526f24b73b30b634b2102628103a37b5b2b760811b60448201526064016106c8565b6010546001600160a01b031615610b355760405162461bcd60e51b81526020600482015260146024820152731314081d1bdad95b88185b1c9958591e481cd95d60621b60448201526064016106c8565b601080546001600160a01b0319166001600160a01b0383169081179091556040517fc905967aaba4b9e1a69c16183e43f35d63ca99daf679be5e45512688ebdbd86a905f90a250565b610b86611418565b610b8f5f6115dd565b565b610b9c823383611445565b610ba682826115a9565b5050565b335f9081526007602052604090205460ff1680610bd157506005546001600160a01b031633145b610bed5760405162461bcd60e51b81526004016106c890611c09565b60125460ff16610c335760405162461bcd60e51b8152602060048201526011602482015270165a595b19081b9bdd08195b98589b1959607a1b60448201526064016106c8565b5f82118015610c4157505f81115b610c8d5760405162461bcd60e51b815260206004820152601860248201527f416d6f756e7473206d75737420626520706f736974697665000000000000000060448201526064016106c8565b600b546040516370a0823160e01b815230600482015283916001600160a01b0316906370a0823190602401602060405180830381865afa158015610cd3573d5f803e3d5ffd5b505050506040513d601f19601f82011682018060405250810190610cf79190611c58565b1015610d395760405162461bcd60e51b81526020600482015260116024820152700496e73756666696369656e74204658525607c1b60448201526064016106c8565b600c54600b54610d56916001600160a01b0391821691168461162e565b600c54600d54610d73916001600160a01b0391821691168361162e565b600c54600b54600d545f92839283926001600160a01b039283169263e8e33700928116911688886064610da783605f611bd3565b610db19190611bea565b6064610dbe8c605f611bd3565b610dc89190611bea565b30610dd54261012c611c32565b60405160e08a901b6001600160e01b03191681526001600160a01b039889166004820152968816602488015260448701959095526064860193909352608485019190915260a484015290921660c482015260e4810191909152610104016060604051808303815f875af1158015610e4e573d5f803e3d5ffd5b505050506040513d601f19601f82011682018060405250810190610e729190611c6f565b9250925092508060115f828254610e899190611c32565b9250508190555082600f5f828254610ea19190611c45565b9091555050600c54600b54610ec3916001600160a01b0391821691165f61162e565b600c54600d54610ee0916001600160a01b0391821691165f61162e565b60408051848152602081018490529081018290527fa77184af3f44664d41c8d355f6d43d20dda9b5d7887d239bd304eff8117303739060600160405180910390a15050505050565b610f30611418565b5f8111610f7f5760405162461bcd60e51b815260206004820152601c60248201527f4d696e206465706f736974206d75737420626520706f7369746976650000000060448201526064016106c8565b60088190556040518181527f96a008f96f1c0ab9fa3d9ddd43cdfc614848c4d054d51f43662ed900e9d094c890602001610657565b60606004805461055790611b87565b610fcb611418565b6001600160a01b0381166110215760405162461bcd60e51b815260206004820152601860248201527f496e76616c6964206f70657261746f722061646472657373000000000000000060448201526064016106c8565b6001600160a01b0381165f81815260076020526040808220805460ff19166001179055517fac6fa858e9350a46cec16539926e0fde25b7629f84b5a72bffaae4df888ae86d9190a250565b335f9081526007602052604090205460ff168061109357506005546001600160a01b031633145b6110af5760405162461bcd60e51b81526004016106c890611c09565b600b546040516370a0823160e01b81523060048201525f916001600160a01b0316906370a0823190602401602060405180830381865afa1580156110f5573d5f803e3d5ffd5b505050506040513d601f19601f820116820180604052508101906111199190611c58565b9050600f5481111561093e575f600f54826111349190611c45565b905080600f5f8282546111479190611c32565b9091555050600a546040805183815260208101929092527faffc64dd767dc9d20ee587a46cfdd6a221c4fef6b51ae557b3ad7dfe82dc503a910160405180910390a15050565b335f9081526007602052604090205460ff16806111b457506005546001600160a01b031633145b6111d05760405162461bcd60e51b81526004016106c890611c09565b6111d861157f565b6001600160a01b0384166112255760405162461bcd60e51b8152602060048201526014602482015273496e76616c69642075736572206164647265737360601b60448201526064016106c8565b6008548310156112775760405162461bcd60e51b815260206004820152601c60248201527f416d6f756e742062656c6f77206d696e696d756d206465706f7369740000000060448201526064016106c8565b806112bb5760405162461bcd60e51b8152602060048201526014602482015273092dcecc2d8d2c840b0a4a09840e8f040d0c2e6d60631b60448201526064016106c8565b600a545f906112d285670de0b6b3a7640000611bd3565b6112dc9190611bea565b90508360095f8282546112ef9190611c32565b909155506112ff905085826116bd565b846001600160a01b03167f5dc23eace1418c630429a4639fadf2bd4b20187833ad6968b869e9e9be652e338583868660405161133e9493929190611c9a565b60405180910390a2506113516001600655565b50505050565b5f336105e58185856114bb565b61136c611418565b6001600160a01b0381165f81815260076020526040808220805460ff19169055517f80c0b871b97b595b16a7741c1b06fed0c6f6f558639f18ccbce50724325dc40d9190a250565b6113bc611418565b6001600160a01b0381166113e557604051631e4fbdf760e01b81525f60048201526024016106c8565b61093e816115dd565b5f670de0b6b3a7640000600a54836106089190611bd3565b61141383838360016116f1565b505050565b6005546001600160a01b03163314610b8f5760405163118cdaa760e01b81523360048201526024016106c8565b6001600160a01b038381165f908152600160209081526040808320938616835292905220545f1981101561135157818110156114ad57604051637dc7a0d960e11b81526001600160a01b038416600482015260248101829052604481018390526064016106c8565b61135184848484035f6116f1565b6001600160a01b0383166114e457604051634b637e8f60e11b81525f60048201526024016106c8565b6001600160a01b03821661150d5760405163ec442f0560e01b81525f60048201526024016106c8565b6114138383836117c3565b6040516001600160a01b0384811660248301528381166044830152606482018390526113519186918216906323b872dd906084015b604051602081830303815290604052915060e01b6020820180516001600160e01b0383818316178352505050506118e9565b6002600654036115a257604051633ee5aeb560e01b815260040160405180910390fd5b6002600655565b6001600160a01b0382166115d257604051634b637e8f60e11b81525f60048201526024016106c8565b610ba6825f836117c3565b600580546001600160a01b038381166001600160a01b0319831681179093556040519116919082907f8be0079c531659141344cd1fd0a4f28419497f9722a3daafe3b4186f6b6457e0905f90a35050565b604080516001600160a01b038416602482015260448082018490528251808303909101815260649091019091526020810180516001600160e01b031663095ea7b360e01b17905261167f8482611955565b611351576040516001600160a01b0384811660248301525f60448301526116b391869182169063095ea7b39060640161154d565b61135184826118e9565b6001600160a01b0382166116e65760405163ec442f0560e01b81525f60048201526024016106c8565b610ba65f83836117c3565b6001600160a01b03841661171a5760405163e602df0560e01b81525f60048201526024016106c8565b6001600160a01b03831661174357604051634a1406b160e11b81525f60048201526024016106c8565b6001600160a01b038085165f908152600160209081526040808320938716835292905220829055801561135157826001600160a01b0316846001600160a01b03167f8c5be1e5ebec7d5bd14f71427d1e84f3dd0314c0f7b2291e5b200ac8c7c3b925846040516117b591815260200190565b60405180910390a350505050565b6001600160a01b0383166117ed578060025f8282546117e29190611c32565b9091555061185d9050565b6001600160a01b0383165f908152602081905260409020548181101561183f5760405163391434e360e21b81526001600160a01b038516600482015260248101829052604481018390526064016106c8565b6001600160a01b0384165f9081526020819052604090209082900390555b6001600160a01b03821661187957600280548290039055611897565b6001600160a01b0382165f9081526020819052604090208054820190555b816001600160a01b0316836001600160a01b03167fddf252ad1be2c89b69c2b068fc378daa952ba7f163c4a11628f55a4df523b3ef836040516118dc91815260200190565b60405180910390a3505050565b5f8060205f8451602086015f885af180611908576040513d5f823e3d81fd5b50505f513d9150811561191f57806001141561192c565b6001600160a01b0384163b155b1561135157604051635274afe760e01b81526001600160a01b03851660048201526024016106c8565b5f805f8060205f8651602088015f8a5af192503d91505f519050828015611994575081156119865780600114611994565b5f866001600160a01b03163b115b9695505050505050565b5f6020808352835180828501525f5b818110156119c9578581018301518582016040015282016119ad565b505f604082860101526040601f19601f8301168501019250505092915050565b80356001600160a01b038116811461092f575f80fd5b5f8060408385031215611a10575f80fd5b611a19836119e9565b946020939093013593505050565b5f60208284031215611a37575f80fd5b5035919050565b5f60208284031215611a4e575f80fd5b81358015158114611a5d575f80fd5b9392505050565b5f60208284031215611a74575f80fd5b611a5d826119e9565b5f805f60608486031215611a8f575f80fd5b611a98846119e9565b9250611aa6602085016119e9565b9150604084013590509250925092565b5f8060408385031215611ac7575f80fd5b50508035926020909101359150565b5f805f8060608587031215611ae9575f80fd5b611af2856119e9565b935060208501359250604085013567ffffffffffffffff80821115611b15575f80fd5b818701915087601f830112611b28575f80fd5b813581811115611b36575f80fd5b886020828501011115611b47575f80fd5b95989497505060200194505050565b5f8060408385031215611b67575f80fd5b611b70836119e9565b9150611b7e602084016119e9565b90509250929050565b600181811c90821680611b9b57607f821691505b602082108103611bb957634e487b7160e01b5f52602260045260245ffd5b50919050565b634e487b7160e01b5f52601160045260245ffd5b80820281158282048414176105eb576105eb611bbf565b5f82611c0457634e487b7160e01b5f52601260045260245ffd5b500490565b6020808252600f908201526e2737ba1030b71037b832b930ba37b960891b604082015260600190565b808201808211156105eb576105eb611bbf565b818103818111156105eb576105eb611bbf565b5f60208284031215611c68575f80fd5b5051919050565b5f805f60608486031215611c81575f80fd5b8351925060208401519150604084015190509250925092565b84815283602082015260606040820152816060820152818360808301375f818301608090810191909152601f909201601f19160101939250505056fea26469706673582212205019773ef1c66efed68451138e8fece6406beea6bebd9874b91b6224c6d2046764736f6c63430008140033","opcodes":"PUSH1 0x80 PUSH1 0x40 MSTORE PUSH7 0x2386F26FC10000 PUSH1 0x8 SSTORE PUSH8 0xDE0B6B3A7640000 PUSH1 0xA SSTORE CALLVALUE DUP1 ISZERO PUSH3 0x27 JUMPI PUSH0 DUP1 REVERT JUMPDEST POP PUSH1 0x40 MLOAD PUSH3 0x21C1 CODESIZE SUB DUP1 PUSH3 0x21C1 DUP4 CODECOPY DUP2 ADD PUSH1 0x40 DUP2 SWAP1 MSTORE PUSH3 0x4A SWAP2 PUSH3 0x2F8 JUMP JUMPDEST CALLER PUSH1 0x40 MLOAD DUP1 PUSH1 0x40 ADD PUSH1 0x40 MSTORE DUP1 PUSH1 0xA DUP2 MSTORE PUSH1 0x20 ADD PUSH10 0x536869656C642058525 PUSH1 0xB4 SHL DUP2 MSTORE POP PUSH1 0x40 MLOAD DUP1 PUSH1 0x40 ADD PUSH1 0x40 MSTORE DUP1 PUSH1 0x5 DUP2 MSTORE PUSH1 0x20 ADD PUSH5 0x736858525 PUSH1 0xDC SHL DUP2 MSTORE POP DUP2 PUSH1 0x3 SWAP1 DUP2 PUSH3 0x9D SWAP2 SWAP1 PUSH3 0x3DF JUMP JUMPDEST POP PUSH1 0x4 PUSH3 0xAC DUP3 DUP3 PUSH3 0x3DF JUMP JUMPDEST POP POP POP PUSH1 0x1 PUSH1 0x1 PUSH1 0xA0 SHL SUB DUP2 AND PUSH3 0xDE JUMPI PUSH1 0x40 MLOAD PUSH4 0x1E4FBDF7 PUSH1 0xE0 SHL DUP2 MSTORE PUSH0 PUSH1 0x4 DUP3 ADD MSTORE PUSH1 0x24 ADD JUMPDEST PUSH1 0x40 MLOAD DUP1 SWAP2 SUB SWAP1 REVERT JUMPDEST PUSH3 0xE9 DUP2 PUSH3 0x28B JUMP JUMPDEST POP PUSH1 0x1 PUSH1 0x6 SSTORE PUSH1 0x1 PUSH1 0x1 PUSH1 0xA0 SHL SUB DUP4 AND PUSH3 0x147 JUMPI PUSH1 0x40 MLOAD PUSH3 0x461BCD PUSH1 0xE5 SHL DUP2 MSTORE PUSH1 0x20 PUSH1 0x4 DUP3 ADD MSTORE PUSH1 0x1A PUSH1 0x24 DUP3 ADD MSTORE PUSH32 0x496E76616C6964204658525020746F6B656E2061646472657373000000000000 PUSH1 0x44 DUP3 ADD MSTORE PUSH1 0x64 ADD PUSH3 0xD5 JUMP JUMPDEST PUSH1 0x1 PUSH1 0x1 PUSH1 0xA0 SHL SUB DUP3 AND PUSH3 0x19F JUMPI PUSH1 0x40 MLOAD PUSH3 0x461BCD PUSH1 0xE5 SHL DUP2 MSTORE PUSH1 0x20 PUSH1 0x4 DUP3 ADD MSTORE PUSH1 0x1B PUSH1 0x24 DUP3 ADD MSTORE PUSH32 0x496E76616C696420537061726B526F7574657220616464726573730000000000 PUSH1 0x44 DUP3 ADD MSTORE PUSH1 0x64 ADD PUSH3 0xD5 JUMP JUMPDEST PUSH1 0x1 PUSH1 0x1 PUSH1 0xA0 SHL SUB DUP2 AND PUSH3 0x1F7 JUMPI PUSH1 0x40 MLOAD PUSH3 0x461BCD PUSH1 0xE5 SHL DUP2 MSTORE PUSH1 0x20 PUSH1 0x4 DUP3 ADD MSTORE PUSH1 0x1A PUSH1 0x24 DUP3 ADD MSTORE PUSH32 0x496E76616C69642057464C5220746F6B656E2061646472657373000000000000 PUSH1 0x44 DUP3 ADD MSTORE PUSH1 0x64 ADD PUSH3 0xD5 JUMP JUMPDEST PUSH1 0xB DUP1 SLOAD PUSH1 0x1 PUSH1 0x1 PUSH1 0xA0 SHL SUB DUP1 DUP7 AND PUSH1 0x1 PUSH1 0x1 PUSH1 0xA0 SHL SUB NOT SWAP3 DUP4 AND OR SWAP1 SWAP3 SSTORE PUSH1 0xC DUP1 SLOAD DUP6 DUP5 AND SWAP1 DUP4 AND OR SWAP1 SSTORE PUSH1 0xD DUP1 SLOAD SWAP3 DUP5 AND SWAP3 SWAP1 SWAP2 AND SWAP2 SWAP1 SWAP2 OR SWAP1 SSTORE PUSH1 0x12 DUP1 SLOAD PUSH1 0xFF NOT SWAP1 DUP2 AND SWAP1 SWAP2 SSTORE CALLER PUSH0 DUP2 DUP2 MSTORE PUSH1 0x7 PUSH1 0x20 MSTORE PUSH1 0x40 DUP1 DUP3 KECCAK256 DUP1 SLOAD SWAP1 SWAP5 AND PUSH1 0x1 OR SWAP1 SWAP4 SSTORE SWAP2 MLOAD SWAP1 SWAP2 PUSH32 0xAC6FA858E9350A46CEC16539926E0FDE25B7629F84B5A72BFFAAE4DF888AE86D SWAP2 LOG2 POP POP POP PUSH3 0x4A7 JUMP JUMPDEST PUSH1 0x5 DUP1 SLOAD PUSH1 0x1 PUSH1 0x1 PUSH1 0xA0 SHL SUB DUP4 DUP2 AND PUSH1 0x1 PUSH1 0x1 PUSH1 0xA0 SHL SUB NOT DUP4 AND DUP2 OR SWAP1 SWAP4 SSTORE PUSH1 0x40 MLOAD SWAP2 AND SWAP2 SWAP1 DUP3 SWAP1 PUSH32 0x8BE0079C531659141344CD1FD0A4F28419497F9722A3DAAFE3B4186F6B6457E0 SWAP1 PUSH0 SWAP1 LOG3 POP POP JUMP JUMPDEST DUP1 MLOAD PUSH1 0x1 PUSH1 0x1 PUSH1 0xA0 SHL SUB DUP2 AND DUP2 EQ PUSH3 0x2F3 JUMPI PUSH0 DUP1 REVERT JUMPDEST SWAP2 SWAP1 POP JUMP JUMPDEST PUSH0 DUP1 PUSH0 PUSH1 0x60 DUP5 DUP7 SUB SLT ISZERO PUSH3 0x30B JUMPI PUSH0 DUP1 REVERT JUMPDEST PUSH3 0x316 DUP5 PUSH3 0x2DC JUMP JUMPDEST SWAP3 POP PUSH3 0x326 PUSH1 0x20 DUP6 ADD PUSH3 0x2DC JUMP JUMPDEST SWAP2 POP PUSH3 0x336 PUSH1 0x40 DUP6 ADD PUSH3 0x2DC JUMP JUMPDEST SWAP1 POP SWAP3 POP SWAP3 POP SWAP3 JUMP JUMPDEST PUSH4 0x4E487B71 PUSH1 0xE0 SHL PUSH0 MSTORE PUSH1 0x41 PUSH1 0x4 MSTORE PUSH1 0x24 PUSH0 REVERT JUMPDEST PUSH1 0x1 DUP2 DUP2 SHR SWAP1 DUP3 AND DUP1 PUSH3 0x368 JUMPI PUSH1 0x7F DUP3 AND SWAP2 POP JUMPDEST PUSH1 0x20 DUP3 LT DUP2 SUB PUSH3 0x387 JUMPI PUSH4 0x4E487B71 PUSH1 0xE0 SHL PUSH0 MSTORE PUSH1 0x22 PUSH1 0x4 MSTORE PUSH1 0x24 PUSH0 REVERT JUMPDEST POP SWAP2 SWAP1 POP JUMP JUMPDEST PUSH1 0x1F DUP3 GT ISZERO PUSH3 0x3DA JUMPI PUSH0 DUP2 DUP2 MSTORE PUSH1 0x20 DUP2 KECCAK256 PUSH1 0x1F DUP6 ADD PUSH1 0x5 SHR DUP2 ADD PUSH1 0x20 DUP7 LT ISZERO PUSH3 0x3B5 JUMPI POP DUP1 JUMPDEST PUSH1 0x1F DUP6 ADD PUSH1 0x5 SHR DUP3 ADD SWAP2 POP JUMPDEST DUP2 DUP2 LT ISZERO PUSH3 0x3D6 JUMPI DUP3 DUP2 SSTORE PUSH1 0x1 ADD PUSH3 0x3C1 JUMP JUMPDEST POP POP POP JUMPDEST POP POP POP JUMP JUMPDEST DUP2 MLOAD PUSH1 0x1 PUSH1 0x1 PUSH1 0x40 SHL SUB DUP2 GT ISZERO PUSH3 0x3FB JUMPI PUSH3 0x3FB PUSH3 0x33F JUMP JUMPDEST PUSH3 0x413 DUP2 PUSH3 0x40C DUP5 SLOAD PUSH3 0x353 JUMP JUMPDEST DUP5 PUSH3 0x38D JUMP JUMPDEST PUSH1 0x20 DUP1 PUSH1 0x1F DUP4 GT PUSH1 0x1 DUP2 EQ PUSH3 0x449 JUMPI PUSH0 DUP5 ISZERO PUSH3 0x431 JUMPI POP DUP6 DUP4 ADD MLOAD JUMPDEST PUSH0 NOT PUSH1 0x3 DUP7 SWAP1 SHL SHR NOT AND PUSH1 0x1 DUP6 SWAP1 SHL OR DUP6 SSTORE PUSH3 0x3D6 JUMP JUMPDEST PUSH0 DUP6 DUP2 MSTORE PUSH1 0x20 DUP2 KECCAK256 PUSH1 0x1F NOT DUP7 AND SWAP2 JUMPDEST DUP3 DUP2 LT ISZERO PUSH3 0x479 JUMPI DUP9 DUP7 ADD MLOAD DUP3 SSTORE SWAP5 DUP5 ADD SWAP5 PUSH1 0x1 SWAP1 SWAP2 ADD SWAP1 DUP5 ADD PUSH3 0x458 JUMP JUMPDEST POP DUP6 DUP3 LT ISZERO PUSH3 0x497 JUMPI DUP8 DUP6 ADD MLOAD PUSH0 NOT PUSH1 0x3 DUP9 SWAP1 SHL PUSH1 0xF8 AND SHR NOT AND DUP2 SSTORE JUMPDEST POP POP POP POP POP PUSH1 0x1 SWAP1 DUP2 SHL ADD SWAP1 SSTORE POP JUMP JUMPDEST PUSH2 0x1D0C DUP1 PUSH3 0x4B5 PUSH0 CODECOPY PUSH0 RETURN INVALID PUSH1 0x80 PUSH1 0x40 MSTORE CALLVALUE DUP1 ISZERO PUSH2 0xF JUMPI PUSH0 DUP1 REVERT JUMPDEST POP PUSH1 0x4 CALLDATASIZE LT PUSH2 0x23F JUMPI PUSH0 CALLDATALOAD PUSH1 0xE0 SHR DUP1 PUSH4 0x715018A6 GT PUSH2 0x135 JUMPI DUP1 PUSH4 0xA9059CBB GT PUSH2 0xB4 JUMPI DUP1 PUSH4 0xDD62ED3E GT PUSH2 0x79 JUMPI DUP1 PUSH4 0xDD62ED3E EQ PUSH2 0x4CF JUMPI DUP1 PUSH4 0xE6AA216C EQ PUSH2 0x507 JUMPI DUP1 PUSH4 0xF2FDE38B EQ PUSH2 0x50F JUMPI DUP1 PUSH4 0xF734BD6E EQ PUSH2 0x522 JUMPI DUP1 PUSH4 0xFD0A4875 EQ PUSH2 0x535 JUMPI PUSH0 DUP1 REVERT JUMPDEST DUP1 PUSH4 0xA9059CBB EQ PUSH2 0x48A JUMPI DUP1 PUSH4 0xAC8A584A EQ PUSH2 0x49D JUMPI DUP1 PUSH4 0xC2752E43 EQ PUSH2 0x4B0 JUMPI DUP1 PUSH4 0xD33A5088 EQ PUSH2 0x4BD JUMPI DUP1 PUSH4 0xD5FC617E EQ PUSH2 0x4C6 JUMPI PUSH0 DUP1 REVERT JUMPDEST DUP1 PUSH4 0x8FCC9CFB GT PUSH2 0xFA JUMPI DUP1 PUSH4 0x8FCC9CFB EQ PUSH2 0x441 JUMPI DUP1 PUSH4 0x95D89B41 EQ PUSH2 0x454 JUMPI DUP1 PUSH4 0x9870D7FE EQ PUSH2 0x45C JUMPI DUP1 PUSH4 0x9B1650E3 EQ PUSH2 0x46F JUMPI DUP1 PUSH4 0xA5854A3E EQ PUSH2 0x477 JUMPI PUSH0 DUP1 REVERT JUMPDEST DUP1 PUSH4 0x715018A6 EQ PUSH2 0x3F9 JUMPI DUP1 PUSH4 0x79CC6790 EQ PUSH2 0x401 JUMPI DUP1 PUSH4 0x8575837C EQ PUSH2 0x414 JUMPI DUP1 PUSH4 0x88342673 EQ PUSH2 0x41D JUMPI DUP1 PUSH4 0x8DA5CB5B EQ PUSH2 0x430 JUMPI PUSH0 DUP1 REVERT JUMPDEST DUP1 PUSH4 0x346FE52C GT PUSH2 0x1C1 JUMPI DUP1 PUSH4 0x59974E38 GT PUSH2 0x186 JUMPI DUP1 PUSH4 0x59974E38 EQ PUSH2 0x385 JUMPI DUP1 PUSH4 0x5FCBD285 EQ PUSH2 0x398 JUMPI DUP1 PUSH4 0x6A678A9C EQ PUSH2 0x3AB JUMPI DUP1 PUSH4 0x6E131A7C EQ PUSH2 0x3BE JUMPI DUP1 PUSH4 0x70A08231 EQ PUSH2 0x3D1 JUMPI PUSH0 DUP1 REVERT JUMPDEST DUP1 PUSH4 0x346FE52C EQ PUSH2 0x344 JUMPI DUP1 PUSH4 0x39129162 EQ PUSH2 0x34D JUMPI DUP1 PUSH4 0x3BA0B9A9 EQ PUSH2 0x360 JUMPI DUP1 PUSH4 0x41B3D185 EQ PUSH2 0x369 JUMPI DUP1 PUSH4 0x42966C68 EQ PUSH2 0x372 JUMPI PUSH0 DUP1 REVERT JUMPDEST DUP1 PUSH4 0x18160DDD GT PUSH2 0x207 JUMPI DUP1 PUSH4 0x18160DDD EQ PUSH2 0x2DC JUMPI DUP1 PUSH4 0x23B872DD EQ PUSH2 0x2E4 JUMPI DUP1 PUSH4 0x313CE567 EQ PUSH2 0x2F7 JUMPI DUP1 PUSH4 0x32609AF5 EQ PUSH2 0x306 JUMPI DUP1 PUSH4 0x326BF23F EQ PUSH2 0x331 JUMPI PUSH0 DUP1 REVERT JUMPDEST DUP1 PUSH4 0x6FDDE03 EQ PUSH2 0x243 JUMPI DUP1 PUSH4 0x95EA7B3 EQ PUSH2 0x261 JUMPI DUP1 PUSH4 0x1358BC82 EQ PUSH2 0x284 JUMPI DUP1 PUSH4 0x135986B4 EQ PUSH2 0x2A5 JUMPI DUP1 PUSH4 0x13E7C9D8 EQ PUSH2 0x2BA JUMPI JUMPDEST PUSH0 DUP1 REVERT JUMPDEST PUSH2 0x24B PUSH2 0x548 JUMP JUMPDEST PUSH1 0x40 MLOAD PUSH2 0x258 SWAP2 SWAP1 PUSH2 0x199E JUMP JUMPDEST PUSH1 0x40 MLOAD DUP1 SWAP2 SUB SWAP1 RETURN JUMPDEST PUSH2 0x274 PUSH2 0x26F CALLDATASIZE PUSH1 0x4 PUSH2 0x19FF JUMP JUMPDEST PUSH2 0x5D8 JUMP JUMPDEST PUSH1 0x40 MLOAD SWAP1 ISZERO ISZERO DUP2 MSTORE PUSH1 0x20 ADD PUSH2 0x258 JUMP JUMPDEST PUSH2 0x297 PUSH2 0x292 CALLDATASIZE PUSH1 0x4 PUSH2 0x1A27 JUMP JUMPDEST PUSH2 0x5F1 JUMP JUMPDEST PUSH1 0x40 MLOAD SWAP1 DUP2 MSTORE PUSH1 0x20 ADD PUSH2 0x258 JUMP JUMPDEST PUSH2 0x2B8 PUSH2 0x2B3 CALLDATASIZE PUSH1 0x4 PUSH2 0x1A3E JUMP JUMPDEST PUSH2 0x612 JUMP JUMPDEST STOP JUMPDEST PUSH2 0x274 PUSH2 0x2C8 CALLDATASIZE PUSH1 0x4 PUSH2 0x1A64 JUMP JUMPDEST PUSH1 0x7 PUSH1 0x20 MSTORE PUSH0 SWAP1 DUP2 MSTORE PUSH1 0x40 SWAP1 KECCAK256 SLOAD PUSH1 0xFF AND DUP2 JUMP JUMPDEST PUSH1 0x2 SLOAD PUSH2 0x297 JUMP JUMPDEST PUSH2 0x274 PUSH2 0x2F2 CALLDATASIZE PUSH1 0x4 PUSH2 0x1A7D JUMP JUMPDEST PUSH2 0x662 JUMP JUMPDEST PUSH1 0x40 MLOAD PUSH1 0x12 DUP2 MSTORE PUSH1 0x20 ADD PUSH2 0x258 JUMP JUMPDEST PUSH1 0xC SLOAD PUSH2 0x319 SWAP1 PUSH1 0x1 PUSH1 0x1 PUSH1 0xA0 SHL SUB AND DUP2 JUMP JUMPDEST PUSH1 0x40 MLOAD PUSH1 0x1 PUSH1 0x1 PUSH1 0xA0 SHL SUB SWAP1 SWAP2 AND DUP2 MSTORE PUSH1 0x20 ADD PUSH2 0x258 JUMP JUMPDEST PUSH2 0x2B8 PUSH2 0x33F CALLDATASIZE PUSH1 0x4 PUSH2 0x1A27 JUMP JUMPDEST PUSH2 0x685 JUMP JUMPDEST PUSH2 0x297 PUSH1 0xE SLOAD DUP2 JUMP JUMPDEST PUSH2 0x297 PUSH2 0x35B CALLDATASIZE PUSH1 0x4 PUSH2 0x1A27 JUMP JUMPDEST PUSH2 0x79E JUMP JUMPDEST PUSH2 0x297 PUSH1 0xA SLOAD DUP2 JUMP JUMPDEST PUSH2 0x297 PUSH1 0x8 SLOAD DUP2 JUMP JUMPDEST PUSH2 0x2B8 PUSH2 0x380 CALLDATASIZE PUSH1 0x4 PUSH2 0x1A27 JUMP JUMPDEST PUSH2 0x934 JUMP JUMPDEST PUSH2 0x2B8 PUSH2 0x393 CALLDATASIZE PUSH1 0x4 PUSH2 0x1A27 JUMP JUMPDEST PUSH2 0x941 JUMP JUMPDEST PUSH1 0x10 SLOAD PUSH2 0x319 SWAP1 PUSH1 0x1 PUSH1 0x1 PUSH1 0xA0 SHL SUB AND DUP2 JUMP JUMPDEST PUSH2 0x2B8 PUSH2 0x3B9 CALLDATASIZE PUSH1 0x4 PUSH2 0x1A64 JUMP JUMPDEST PUSH2 0xA94 JUMP JUMPDEST PUSH1 0xB SLOAD PUSH2 0x319 SWAP1 PUSH1 0x1 PUSH1 0x1 PUSH1 0xA0 SHL SUB AND DUP2 JUMP JUMPDEST PUSH2 0x297 PUSH2 0x3DF CALLDATASIZE PUSH1 0x4 PUSH2 0x1A64 JUMP JUMPDEST PUSH1 0x1 PUSH1 0x1 PUSH1 0xA0 SHL SUB AND PUSH0 SWAP1 DUP2 MSTORE PUSH1 0x20 DUP2 SWAP1 MSTORE PUSH1 0x40 SWAP1 KECCAK256 SLOAD SWAP1 JUMP JUMPDEST PUSH2 0x2B8 PUSH2 0xB7E JUMP JUMPDEST PUSH2 0x2B8 PUSH2 0x40F CALLDATASIZE PUSH1 0x4 PUSH2 0x19FF JUMP JUMPDEST PUSH2 0xB91 JUMP JUMPDEST PUSH2 0x297 PUSH1 0x11 SLOAD DUP2 JUMP JUMPDEST PUSH2 0x2B8 PUSH2 0x42B CALLDATASIZE PUSH1 0x4 PUSH2 0x1AB6 JUMP JUMPDEST PUSH2 0xBAA JUMP JUMPDEST PUSH1 0x5 SLOAD PUSH1 0x1 PUSH1 0x1 PUSH1 0xA0 SHL SUB AND PUSH2 0x319 JUMP JUMPDEST PUSH2 0x2B8 PUSH2 0x44F CALLDATASIZE PUSH1 0x4 PUSH2 0x1A27 JUMP JUMPDEST PUSH2 0xF28 JUMP JUMPDEST PUSH2 0x24B PUSH2 0xFB4 JUMP JUMPDEST PUSH2 0x2B8 PUSH2 0x46A CALLDATASIZE PUSH1 0x4 PUSH2 0x1A64 JUMP JUMPDEST PUSH2 0xFC3 JUMP JUMPDEST PUSH2 0x2B8 PUSH2 0x106C JUMP JUMPDEST PUSH2 0x2B8 PUSH2 0x485 CALLDATASIZE PUSH1 0x4 PUSH2 0x1AD6 JUMP JUMPDEST PUSH2 0x118D JUMP JUMPDEST PUSH2 0x274 PUSH2 0x498 CALLDATASIZE PUSH1 0x4 PUSH2 0x19FF JUMP JUMPDEST PUSH2 0x1357 JUMP JUMPDEST PUSH2 0x2B8 PUSH2 0x4AB CALLDATASIZE PUSH1 0x4 PUSH2 0x1A64 JUMP JUMPDEST PUSH2 0x1364 JUMP JUMPDEST PUSH1 0x12 SLOAD PUSH2 0x274 SWAP1 PUSH1 0xFF AND DUP2 JUMP JUMPDEST PUSH2 0x297 PUSH1 0xF SLOAD DUP2 JUMP JUMPDEST PUSH2 0x297 PUSH1 0x9 SLOAD DUP2 JUMP JUMPDEST PUSH2 0x297 PUSH2 0x4DD CALLDATASIZE PUSH1 0x4 PUSH2 0x1B56 JUMP JUMPDEST PUSH1 0x1 PUSH1 0x1 PUSH1 0xA0 SHL SUB SWAP2 DUP3 AND PUSH0 SWAP1 DUP2 MSTORE PUSH1 0x1 PUSH1 0x20 SWAP1 DUP2 MSTORE PUSH1 0x40 DUP1 DUP4 KECCAK256 SWAP4 SWAP1 SWAP5 AND DUP3 MSTORE SWAP2 SWAP1 SWAP2 MSTORE KECCAK256 SLOAD SWAP1 JUMP JUMPDEST PUSH1 0xA SLOAD PUSH2 0x297 JUMP JUMPDEST PUSH2 0x2B8 PUSH2 0x51D CALLDATASIZE PUSH1 0x4 PUSH2 0x1A64 JUMP JUMPDEST PUSH2 0x13B4 JUMP JUMPDEST PUSH2 0x297 PUSH2 0x530 CALLDATASIZE PUSH1 0x4 PUSH2 0x1A27 JUMP JUMPDEST PUSH2 0x13EE JUMP JUMPDEST PUSH1 0xD SLOAD PUSH2 0x319 SWAP1 PUSH1 0x1 PUSH1 0x1 PUSH1 0xA0 SHL SUB AND DUP2 JUMP JUMPDEST PUSH1 0x60 PUSH1 0x3 DUP1 SLOAD PUSH2 0x557 SWAP1 PUSH2 0x1B87 JUMP JUMPDEST DUP1 PUSH1 0x1F ADD PUSH1 0x20 DUP1 SWAP2 DIV MUL PUSH1 0x20 ADD PUSH1 0x40 MLOAD SWAP1 DUP2 ADD PUSH1 0x40 MSTORE DUP1 SWAP3 SWAP2 SWAP1 DUP2 DUP2 MSTORE PUSH1 0x20 ADD DUP3 DUP1 SLOAD PUSH2 0x583 SWAP1 PUSH2 0x1B87 JUMP JUMPDEST DUP1 ISZERO PUSH2 0x5CE JUMPI DUP1 PUSH1 0x1F LT PUSH2 0x5A5 JUMPI PUSH2 0x100 DUP1 DUP4 SLOAD DIV MUL DUP4 MSTORE SWAP2 PUSH1 0x20 ADD SWAP2 PUSH2 0x5CE JUMP JUMPDEST DUP3 ADD SWAP2 SWAP1 PUSH0 MSTORE PUSH1 0x20 PUSH0 KECCAK256 SWAP1 JUMPDEST DUP2 SLOAD DUP2 MSTORE SWAP1 PUSH1 0x1 ADD SWAP1 PUSH1 0x20 ADD DUP1 DUP4 GT PUSH2 0x5B1 JUMPI DUP3 SWAP1 SUB PUSH1 0x1F AND DUP3 ADD SWAP2 JUMPDEST POP POP POP POP POP SWAP1 POP SWAP1 JUMP JUMPDEST PUSH0 CALLER PUSH2 0x5E5 DUP2 DUP6 DUP6 PUSH2 0x1406 JUMP JUMPDEST PUSH1 0x1 SWAP2 POP POP JUMPDEST SWAP3 SWAP2 POP POP JUMP JUMPDEST PUSH1 0xA SLOAD PUSH0 SWAP1 PUSH2 0x608 DUP4 PUSH8 0xDE0B6B3A7640000 PUSH2 0x1BD3 JUMP JUMPDEST PUSH2 0x5EB SWAP2 SWAP1 PUSH2 0x1BEA JUMP JUMPDEST PUSH2 0x61A PUSH2 0x1418 JUMP JUMPDEST PUSH1 0x12 DUP1 SLOAD PUSH1 0xFF NOT AND DUP3 ISZERO ISZERO SWAP1 DUP2 OR SWAP1 SWAP2 SSTORE PUSH1 0x40 MLOAD SWAP1 DUP2 MSTORE PUSH32 0x8C4947DD3DC73344E27124F38DE946C5FE5A4B59B8C9259241BC11376140267B SWAP1 PUSH1 0x20 ADD JUMPDEST PUSH1 0x40 MLOAD DUP1 SWAP2 SUB SWAP1 LOG1 POP JUMP JUMPDEST PUSH0 CALLER PUSH2 0x66F DUP6 DUP3 DUP6 PUSH2 0x1445 JUMP JUMPDEST PUSH2 0x67A DUP6 DUP6 DUP6 PUSH2 0x14BB JUMP JUMPDEST POP PUSH1 0x1 SWAP5 SWAP4 POP POP POP POP JUMP JUMPDEST CALLER PUSH0 SWAP1 DUP2 MSTORE PUSH1 0x7 PUSH1 0x20 MSTORE PUSH1 0x40 SWAP1 KECCAK256 SLOAD PUSH1 0xFF AND DUP1 PUSH2 0x6AC JUMPI POP PUSH1 0x5 SLOAD PUSH1 0x1 PUSH1 0x1 PUSH1 0xA0 SHL SUB AND CALLER EQ JUMPDEST PUSH2 0x6D1 JUMPI PUSH1 0x40 MLOAD PUSH3 0x461BCD PUSH1 0xE5 SHL DUP2 MSTORE PUSH1 0x4 ADD PUSH2 0x6C8 SWAP1 PUSH2 0x1C09 JUMP JUMPDEST PUSH1 0x40 MLOAD DUP1 SWAP2 SUB SWAP1 REVERT JUMPDEST PUSH0 DUP2 GT PUSH2 0x720 JUMPI PUSH1 0x40 MLOAD PUSH3 0x461BCD PUSH1 0xE5 SHL DUP2 MSTORE PUSH1 0x20 PUSH1 0x4 DUP3 ADD MSTORE PUSH1 0x17 PUSH1 0x24 DUP3 ADD MSTORE PUSH32 0x416D6F756E74206D75737420626520706F736974697665000000000000000000 PUSH1 0x44 DUP3 ADD MSTORE PUSH1 0x64 ADD PUSH2 0x6C8 JUMP JUMPDEST PUSH1 0xB SLOAD PUSH2 0x738 SWAP1 PUSH1 0x1 PUSH1 0x1 PUSH1 0xA0 SHL SUB AND CALLER ADDRESS DUP5 PUSH2 0x1518 JUMP JUMPDEST DUP1 PUSH1 0xF PUSH0 DUP3 DUP3 SLOAD PUSH2 0x749 SWAP2 SWAP1 PUSH2 0x1C32 JUMP JUMPDEST SWAP3 POP POP DUP2 SWAP1 SSTORE POP DUP1 PUSH1 0xE PUSH0 DUP3 DUP3 SLOAD PUSH2 0x761 SWAP2 SWAP1 PUSH2 0x1C32 JUMP JUMPDEST SWAP1 SWAP2 SSTORE POP POP PUSH1 0x40 MLOAD DUP2 DUP2 MSTORE CALLER SWAP1 PUSH32 0x9FACE92C6813909D4C19D9F5EC41F2A1E6A7020BC7F39FCD129DA46DD63D53D3 SWAP1 PUSH1 0x20 ADD PUSH1 0x40 MLOAD DUP1 SWAP2 SUB SWAP1 LOG2 POP JUMP JUMPDEST PUSH0 PUSH2 0x7A7 PUSH2 0x157F JUMP JUMPDEST PUSH0 DUP3 GT PUSH2 0x7F6 JUMPI PUSH1 0x40 MLOAD PUSH3 0x461BCD PUSH1 0xE5 SHL DUP2 MSTORE PUSH1 0x20 PUSH1 0x4 DUP3 ADD MSTORE PUSH1 0x17 PUSH1 0x24 DUP3 ADD MSTORE PUSH32 0x43616E6E6F74206275726E207A65726F20616D6F756E74000000000000000000 PUSH1 0x44 DUP3 ADD MSTORE PUSH1 0x64 ADD PUSH2 0x6C8 JUMP JUMPDEST CALLER PUSH0 SWAP1 DUP2 MSTORE PUSH1 0x20 DUP2 SWAP1 MSTORE PUSH1 0x40 SWAP1 KECCAK256 SLOAD DUP3 GT ISZERO PUSH2 0x854 JUMPI PUSH1 0x40 MLOAD PUSH3 0x461BCD PUSH1 0xE5 SHL DUP2 MSTORE PUSH1 0x20 PUSH1 0x4 DUP3 ADD MSTORE PUSH1 0x1A PUSH1 0x24 DUP3 ADD MSTORE PUSH32 0x496E73756666696369656E742073685852502062616C616E6365000000000000 PUSH1 0x44 DUP3 ADD MSTORE PUSH1 0x64 ADD PUSH2 0x6C8 JUMP JUMPDEST PUSH8 0xDE0B6B3A7640000 PUSH1 0xA SLOAD DUP4 PUSH2 0x86B SWAP2 SWAP1 PUSH2 0x1BD3 JUMP JUMPDEST PUSH2 0x875 SWAP2 SWAP1 PUSH2 0x1BEA JUMP JUMPDEST SWAP1 POP DUP1 PUSH1 0x9 SLOAD LT ISZERO PUSH2 0x8C9 JUMPI PUSH1 0x40 MLOAD PUSH3 0x461BCD PUSH1 0xE5 SHL DUP2 MSTORE PUSH1 0x20 PUSH1 0x4 DUP3 ADD MSTORE PUSH1 0x17 PUSH1 0x24 DUP3 ADD MSTORE PUSH32 0x496E73756666696369656E7420585250206C6F636B6564000000000000000000 PUSH1 0x44 DUP3 ADD MSTORE PUSH1 0x64 ADD PUSH2 0x6C8 JUMP JUMPDEST DUP1 PUSH1 0x9 PUSH0 DUP3 DUP3 SLOAD PUSH2 0x8DA SWAP2 SWAP1 PUSH2 0x1C45 JUMP JUMPDEST SWAP1 SWAP2 SSTORE POP PUSH2 0x8EA SWAP1 POP CALLER DUP4 PUSH2 0x15A9 JUMP JUMPDEST PUSH1 0x40 DUP1 MLOAD DUP4 DUP2 MSTORE PUSH1 0x20 DUP2 ADD DUP4 SWAP1 MSTORE CALLER SWAP2 PUSH32 0x3687D72E72FD694708710D576AFA7F8AFE38A09A6812C73C5F94C97B605507FF SWAP2 ADD PUSH1 0x40 MLOAD DUP1 SWAP2 SUB SWAP1 LOG2 PUSH2 0x92F PUSH1 0x1 PUSH1 0x6 SSTORE JUMP JUMPDEST SWAP2 SWAP1 POP JUMP JUMPDEST PUSH2 0x93E CALLER DUP3 PUSH2 0x15A9 JUMP JUMPDEST POP JUMP JUMPDEST CALLER PUSH0 SWAP1 DUP2 MSTORE PUSH1 0x7 PUSH1 0x20 MSTORE PUSH1 0x40 SWAP1 KECCAK256 SLOAD PUSH1 0xFF AND DUP1 PUSH2 0x968 JUMPI POP PUSH1 0x5 SLOAD PUSH1 0x1 PUSH1 0x1 PUSH1 0xA0 SHL SUB AND CALLER EQ JUMPDEST PUSH2 0x984 JUMPI PUSH1 0x40 MLOAD PUSH3 0x461BCD PUSH1 0xE5 SHL DUP2 MSTORE PUSH1 0x4 ADD PUSH2 0x6C8 SWAP1 PUSH2 0x1C09 JUMP JUMPDEST PUSH0 DUP2 GT PUSH2 0x9D3 JUMPI PUSH1 0x40 MLOAD PUSH3 0x461BCD PUSH1 0xE5 SHL DUP2 MSTORE PUSH1 0x20 PUSH1 0x4 DUP3 ADD MSTORE PUSH1 0x1E PUSH1 0x24 DUP3 ADD MSTORE PUSH32 0x52657761726420616D6F756E74206D75737420626520706F7369746976650000 PUSH1 0x44 DUP3 ADD MSTORE PUSH1 0x64 ADD PUSH2 0x6C8 JUMP JUMPDEST PUSH0 PUSH2 0x9DD PUSH1 0x2 SLOAD SWAP1 JUMP JUMPDEST GT PUSH2 0xA20 JUMPI PUSH1 0x40 MLOAD PUSH3 0x461BCD PUSH1 0xE5 SHL DUP2 MSTORE PUSH1 0x20 PUSH1 0x4 DUP3 ADD MSTORE PUSH1 0x13 PUSH1 0x24 DUP3 ADD MSTORE PUSH19 0x139BC81CDA161494081B5A5B9D1959081E595D PUSH1 0x6A SHL PUSH1 0x44 DUP3 ADD MSTORE PUSH1 0x64 ADD PUSH2 0x6C8 JUMP JUMPDEST DUP1 PUSH1 0x9 PUSH0 DUP3 DUP3 SLOAD PUSH2 0xA31 SWAP2 SWAP1 PUSH2 0x1C32 JUMP JUMPDEST SWAP1 SWAP2 SSTORE POP POP PUSH1 0x2 SLOAD PUSH1 0x9 SLOAD PUSH2 0xA4E SWAP1 PUSH8 0xDE0B6B3A7640000 PUSH2 0x1BD3 JUMP JUMPDEST PUSH2 0xA58 SWAP2 SWAP1 PUSH2 0x1BEA JUMP JUMPDEST PUSH1 0xA DUP2 SWAP1 SSTORE PUSH1 0x40 DUP1 MLOAD DUP4 DUP2 MSTORE PUSH1 0x20 DUP2 ADD SWAP3 SWAP1 SWAP3 MSTORE PUSH32 0x29E98BA00D07F171959C4DDCD2F3020DEBC7C52CF537A034D7E664340D098C6C SWAP2 ADD PUSH2 0x657 JUMP JUMPDEST PUSH2 0xA9C PUSH2 0x1418 JUMP JUMPDEST PUSH1 0x1 PUSH1 0x1 PUSH1 0xA0 SHL SUB DUP2 AND PUSH2 0xAE5 JUMPI PUSH1 0x40 MLOAD PUSH3 0x461BCD PUSH1 0xE5 SHL DUP2 MSTORE PUSH1 0x20 PUSH1 0x4 DUP3 ADD MSTORE PUSH1 0x10 PUSH1 0x24 DUP3 ADD MSTORE PUSH16 0x24B73B30B634B2102628103A37B5B2B7 PUSH1 0x81 SHL PUSH1 0x44 DUP3 ADD MSTORE PUSH1 0x64 ADD PUSH2 0x6C8 JUMP JUMPDEST PUSH1 0x10 SLOAD PUSH1 0x1 PUSH1 0x1 PUSH1 0xA0 SHL SUB AND ISZERO PUSH2 0xB35 JUMPI PUSH1 0x40 MLOAD PUSH3 0x461BCD PUSH1 0xE5 SHL DUP2 MSTORE PUSH1 0x20 PUSH1 0x4 DUP3 ADD MSTORE PUSH1 0x14 PUSH1 0x24 DUP3 ADD MSTORE PUSH20 0x1314081D1BDAD95B88185B1C9958591E481CD95D PUSH1 0x62 SHL PUSH1 0x44 DUP3 ADD MSTORE PUSH1 0x64 ADD PUSH2 0x6C8 JUMP JUMPDEST PUSH1 0x10 DUP1 SLOAD PUSH1 0x1 PUSH1 0x1 PUSH1 0xA0 SHL SUB NOT AND PUSH1 0x1 PUSH1 0x1 PUSH1 0xA0 SHL SUB DUP4 AND SWAP1 DUP2 OR SWAP1 SWAP2 SSTORE PUSH1 0x40 MLOAD PUSH32 0xC905967AABA4B9E1A69C16183E43F35D63CA99DAF679BE5E45512688EBDBD86A SWAP1 PUSH0 SWAP1 LOG2 POP JUMP JUMPDEST PUSH2 0xB86 PUSH2 0x1418 JUMP JUMPDEST PUSH2 0xB8F PUSH0 PUSH2 0x15DD JUMP JUMPDEST JUMP JUMPDEST PUSH2 0xB9C DUP3 CALLER DUP4 PUSH2 0x1445 JUMP JUMPDEST PUSH2 0xBA6 DUP3 DUP3 PUSH2 0x15A9 JUMP JUMPDEST POP POP JUMP JUMPDEST CALLER PUSH0 SWAP1 DUP2 MSTORE PUSH1 0x7 PUSH1 0x20 MSTORE PUSH1 0x40 SWAP1 KECCAK256 SLOAD PUSH1 0xFF AND DUP1 PUSH2 0xBD1 JUMPI POP PUSH1 0x5 SLOAD PUSH1 0x1 PUSH1 0x1 PUSH1 0xA0 SHL SUB AND CALLER EQ JUMPDEST PUSH2 0xBED JUMPI PUSH1 0x40 MLOAD PUSH3 0x461BCD PUSH1 0xE5 SHL DUP2 MSTORE PUSH1 0x4 ADD PUSH2 0x6C8 SWAP1 PUSH2 0x1C09 JUMP JUMPDEST PUSH1 0x12 SLOAD PUSH1 0xFF AND PUSH2 0xC33 JUMPI PUSH1 0x40 MLOAD PUSH3 0x461BCD PUSH1 0xE5 SHL DUP2 MSTORE PUSH1 0x20 PUSH1 0x4 DUP3 ADD MSTORE PUSH1 0x11 PUSH1 0x24 DUP3 ADD MSTORE PUSH17 0x165A595B19081B9BDD08195B98589B1959 PUSH1 0x7A SHL PUSH1 0x44 DUP3 ADD MSTORE PUSH1 0x64 ADD PUSH2 0x6C8 JUMP JUMPDEST PUSH0 DUP3 GT DUP1 ISZERO PUSH2 0xC41 JUMPI POP PUSH0 DUP2 GT JUMPDEST PUSH2 0xC8D JUMPI PUSH1 0x40 MLOAD PUSH3 0x461BCD PUSH1 0xE5 SHL DUP2 MSTORE PUSH1 0x20 PUSH1 0x4 DUP3 ADD MSTORE PUSH1 0x18 PUSH1 0x24 DUP3 ADD MSTORE PUSH32 0x416D6F756E7473206D75737420626520706F7369746976650000000000000000 PUSH1 0x44 DUP3 ADD MSTORE PUSH1 0x64 ADD PUSH2 0x6C8 JUMP JUMPDEST PUSH1 0xB SLOAD PUSH1 0x40 MLOAD PUSH4 0x70A08231 PUSH1 0xE0 SHL DUP2 MSTORE ADDRESS PUSH1 0x4 DUP3 ADD MSTORE DUP4 SWAP2 PUSH1 0x1 PUSH1 0x1 PUSH1 0xA0 SHL SUB AND SWAP1 PUSH4 0x70A08231 SWAP1 PUSH1 0x24 ADD PUSH1 0x20 PUSH1 0x40 MLOAD DUP1 DUP4 SUB DUP2 DUP7 GAS STATICCALL ISZERO DUP1 ISZERO PUSH2 0xCD3 JUMPI RETURNDATASIZE PUSH0 DUP1 RETURNDATACOPY RETURNDATASIZE PUSH0 REVERT JUMPDEST POP POP POP POP PUSH1 0x40 MLOAD RETURNDATASIZE PUSH1 0x1F NOT PUSH1 0x1F DUP3 ADD AND DUP3 ADD DUP1 PUSH1 0x40 MSTORE POP DUP2 ADD SWAP1 PUSH2 0xCF7 SWAP2 SWAP1 PUSH2 0x1C58 JUMP JUMPDEST LT ISZERO PUSH2 0xD39 JUMPI PUSH1 0x40 MLOAD PUSH3 0x461BCD PUSH1 0xE5 SHL DUP2 MSTORE PUSH1 0x20 PUSH1 0x4 DUP3 ADD MSTORE PUSH1 0x11 PUSH1 0x24 DUP3 ADD MSTORE PUSH17 0x496E73756666696369656E74204658525 PUSH1 0x7C SHL PUSH1 0x44 DUP3 ADD MSTORE PUSH1 0x64 ADD PUSH2 0x6C8 JUMP JUMPDEST PUSH1 0xC SLOAD PUSH1 0xB SLOAD PUSH2 0xD56 SWAP2 PUSH1 0x1 PUSH1 0x1 PUSH1 0xA0 SHL SUB SWAP2 DUP3 AND SWAP2 AND DUP5 PUSH2 0x162E JUMP JUMPDEST PUSH1 0xC SLOAD PUSH1 0xD SLOAD PUSH2 0xD73 SWAP2 PUSH1 0x1 PUSH1 0x1 PUSH1 0xA0 SHL SUB SWAP2 DUP3 AND SWAP2 AND DUP4 PUSH2 0x162E JUMP JUMPDEST PUSH1 0xC SLOAD PUSH1 0xB SLOAD PUSH1 0xD SLOAD PUSH0 SWAP3 DUP4 SWAP3 DUP4 SWAP3 PUSH1 0x1 PUSH1 0x1 PUSH1 0xA0 SHL SUB SWAP3 DUP4 AND SWAP3 PUSH4 0xE8E33700 SWAP3 DUP2 AND SWAP2 AND DUP9 DUP9 PUSH1 0x64 PUSH2 0xDA7 DUP4 PUSH1 0x5F PUSH2 0x1BD3 JUMP JUMPDEST PUSH2 0xDB1 SWAP2 SWAP1 PUSH2 0x1BEA JUMP JUMPDEST PUSH1 0x64 PUSH2 0xDBE DUP13 PUSH1 0x5F PUSH2 0x1BD3 JUMP JUMPDEST PUSH2 0xDC8 SWAP2 SWAP1 PUSH2 0x1BEA JUMP JUMPDEST ADDRESS PUSH2 0xDD5 TIMESTAMP PUSH2 0x12C PUSH2 0x1C32 JUMP JUMPDEST PUSH1 0x40 MLOAD PUSH1 0xE0 DUP11 SWAP1 SHL PUSH1 0x1 PUSH1 0x1 PUSH1 0xE0 SHL SUB NOT AND DUP2 MSTORE PUSH1 0x1 PUSH1 0x1 PUSH1 0xA0 SHL SUB SWAP9 DUP10 AND PUSH1 0x4 DUP3 ADD MSTORE SWAP7 DUP9 AND PUSH1 0x24 DUP9 ADD MSTORE PUSH1 0x44 DUP8 ADD SWAP6 SWAP1 SWAP6 MSTORE PUSH1 0x64 DUP7 ADD SWAP4 SWAP1 SWAP4 MSTORE PUSH1 0x84 DUP6 ADD SWAP2 SWAP1 SWAP2 MSTORE PUSH1 0xA4 DUP5 ADD MSTORE SWAP1 SWAP3 AND PUSH1 0xC4 DUP3 ADD MSTORE PUSH1 0xE4 DUP2 ADD SWAP2 SWAP1 SWAP2 MSTORE PUSH2 0x104 ADD PUSH1 0x60 PUSH1 0x40 MLOAD DUP1 DUP4 SUB DUP2 PUSH0 DUP8 GAS CALL ISZERO DUP1 ISZERO PUSH2 0xE4E JUMPI RETURNDATASIZE PUSH0 DUP1 RETURNDATACOPY RETURNDATASIZE PUSH0 REVERT JUMPDEST POP POP POP POP PUSH1 0x40 MLOAD RETURNDATASIZE PUSH1 0x1F NOT PUSH1 0x1F DUP3 ADD AND DUP3 ADD DUP1 PUSH1 0x40 MSTORE POP DUP2 ADD SWAP1 PUSH2 0xE72 SWAP2 SWAP1 PUSH2 0x1C6F JUMP JUMPDEST SWAP3 POP SWAP3 POP SWAP3 POP DUP1 PUSH1 0x11 PUSH0 DUP3 DUP3 SLOAD PUSH2 0xE89 SWAP2 SWAP1 PUSH2 0x1C32 JUMP JUMPDEST SWAP3 POP POP DUP2 SWAP1 SSTORE POP DUP3 PUSH1 0xF PUSH0 DUP3 DUP3 SLOAD PUSH2 0xEA1 SWAP2 SWAP1 PUSH2 0x1C45 JUMP JUMPDEST SWAP1 SWAP2 SSTORE POP POP PUSH1 0xC SLOAD PUSH1 0xB SLOAD PUSH2 0xEC3 SWAP2 PUSH1 0x1 PUSH1 0x1 PUSH1 0xA0 SHL SUB SWAP2 DUP3 AND SWAP2 AND PUSH0 PUSH2 0x162E JUMP JUMPDEST PUSH1 0xC SLOAD PUSH1 0xD SLOAD PUSH2 0xEE0 SWAP2 PUSH1 0x1 PUSH1 0x1 PUSH1 0xA0 SHL SUB SWAP2 DUP3 AND SWAP2 AND PUSH0 PUSH2 0x162E JUMP JUMPDEST PUSH1 0x40 DUP1 MLOAD DUP5 DUP2 MSTORE PUSH1 0x20 DUP2 ADD DUP5 SWAP1 MSTORE SWAP1 DUP2 ADD DUP3 SWAP1 MSTORE PUSH32 0xA77184AF3F44664D41C8D355F6D43D20DDA9B5D7887D239BD304EFF811730373 SWAP1 PUSH1 0x60 ADD PUSH1 0x40 MLOAD DUP1 SWAP2 SUB SWAP1 LOG1 POP POP POP POP POP JUMP JUMPDEST PUSH2 0xF30 PUSH2 0x1418 JUMP JUMPDEST PUSH0 DUP2 GT PUSH2 0xF7F JUMPI PUSH1 0x40 MLOAD PUSH3 0x461BCD PUSH1 0xE5 SHL DUP2 MSTORE PUSH1 0x20 PUSH1 0x4 DUP3 ADD MSTORE PUSH1 0x1C PUSH1 0x24 DUP3 ADD MSTORE PUSH32 0x4D696E206465706F736974206D75737420626520706F73697469766500000000 PUSH1 0x44 DUP3 ADD MSTORE PUSH1 0x64 ADD PUSH2 0x6C8 JUMP JUMPDEST PUSH1 0x8 DUP2 SWAP1 SSTORE PUSH1 0x40 MLOAD DUP2 DUP2 MSTORE PUSH32 0x96A008F96F1C0AB9FA3D9DDD43CDFC614848C4D054D51F43662ED900E9D094C8 SWAP1 PUSH1 0x20 ADD PUSH2 0x657 JUMP JUMPDEST PUSH1 0x60 PUSH1 0x4 DUP1 SLOAD PUSH2 0x557 SWAP1 PUSH2 0x1B87 JUMP JUMPDEST PUSH2 0xFCB PUSH2 0x1418 JUMP JUMPDEST PUSH1 0x1 PUSH1 0x1 PUSH1 0xA0 SHL SUB DUP2 AND PUSH2 0x1021 JUMPI PUSH1 0x40 MLOAD PUSH3 0x461BCD PUSH1 0xE5 SHL DUP2 MSTORE PUSH1 0x20 PUSH1 0x4 DUP3 ADD MSTORE PUSH1 0x18 PUSH1 0x24 DUP3 ADD MSTORE PUSH32 0x496E76616C6964206F70657261746F7220616464726573730000000000000000 PUSH1 0x44 DUP3 ADD MSTORE PUSH1 0x64 ADD PUSH2 0x6C8 JUMP JUMPDEST PUSH1 0x1 PUSH1 0x1 PUSH1 0xA0 SHL SUB DUP2 AND PUSH0 DUP2 DUP2 MSTORE PUSH1 0x7 PUSH1 0x20 MSTORE PUSH1 0x40 DUP1 DUP3 KECCAK256 DUP1 SLOAD PUSH1 0xFF NOT AND PUSH1 0x1 OR SWAP1 SSTORE MLOAD PUSH32 0xAC6FA858E9350A46CEC16539926E0FDE25B7629F84B5A72BFFAAE4DF888AE86D SWAP2 SWAP1 LOG2 POP JUMP JUMPDEST CALLER PUSH0 SWAP1 DUP2 MSTORE PUSH1 0x7 PUSH1 0x20 MSTORE PUSH1 0x40 SWAP1 KECCAK256 SLOAD PUSH1 0xFF AND DUP1 PUSH2 0x1093 JUMPI POP PUSH1 0x5 SLOAD PUSH1 0x1 PUSH1 0x1 PUSH1 0xA0 SHL SUB AND CALLER EQ JUMPDEST PUSH2 0x10AF JUMPI PUSH1 0x40 MLOAD PUSH3 0x461BCD PUSH1 0xE5 SHL DUP2 MSTORE PUSH1 0x4 ADD PUSH2 0x6C8 SWAP1 PUSH2 0x1C09 JUMP JUMPDEST PUSH1 0xB SLOAD PUSH1 0x40 MLOAD PUSH4 0x70A08231 PUSH1 0xE0 SHL DUP2 MSTORE ADDRESS PUSH1 0x4 DUP3 ADD MSTORE PUSH0 SWAP2 PUSH1 0x1 PUSH1 0x1 PUSH1 0xA0 SHL SUB AND SWAP1 PUSH4 0x70A08231 SWAP1 PUSH1 0x24 ADD PUSH1 0x20 PUSH1 0x40 MLOAD DUP1 DUP4 SUB DUP2 DUP7 GAS STATICCALL ISZERO DUP1 ISZERO PUSH2 0x10F5 JUMPI RETURNDATASIZE PUSH0 DUP1 RETURNDATACOPY RETURNDATASIZE PUSH0 REVERT JUMPDEST POP POP POP POP PUSH1 0x40 MLOAD RETURNDATASIZE PUSH1 0x1F NOT PUSH1 0x1F DUP3 ADD AND DUP3 ADD DUP1 PUSH1 0x40 MSTORE POP DUP2 ADD SWAP1 PUSH2 0x1119 SWAP2 SWAP1 PUSH2 0x1C58 JUMP JUMPDEST SWAP1 POP PUSH1 0xF SLOAD DUP2 GT ISZERO PUSH2 0x93E JUMPI PUSH0 PUSH1 0xF SLOAD DUP3 PUSH2 0x1134 SWAP2 SWAP1 PUSH2 0x1C45 JUMP JUMPDEST SWAP1 POP DUP1 PUSH1 0xF PUSH0 DUP3 DUP3 SLOAD PUSH2 0x1147 SWAP2 SWAP1 PUSH2 0x1C32 JUMP JUMPDEST SWAP1 SWAP2 SSTORE POP POP PUSH1 0xA SLOAD PUSH1 0x40 DUP1 MLOAD DUP4 DUP2 MSTORE PUSH1 0x20 DUP2 ADD SWAP3 SWAP1 SWAP3 MSTORE PUSH32 0xAFFC64DD767DC9D20EE587A46CFDD6A221C4FEF6B51AE557B3AD7DFE82DC503A SWAP2 ADD PUSH1 0x40 MLOAD DUP1 SWAP2 SUB SWAP1 LOG1 POP POP JUMP JUMPDEST CALLER PUSH0 SWAP1 DUP2 MSTORE PUSH1 0x7 PUSH1 0x20 MSTORE PUSH1 0x40 SWAP1 KECCAK256 SLOAD PUSH1 0xFF AND DUP1 PUSH2 0x11B4 JUMPI POP PUSH1 0x5 SLOAD PUSH1 0x1 PUSH1 0x1 PUSH1 0xA0 SHL SUB AND CALLER EQ JUMPDEST PUSH2 0x11D0 JUMPI PUSH1 0x40 MLOAD PUSH3 0x461BCD PUSH1 0xE5 SHL DUP2 MSTORE PUSH1 0x4 ADD PUSH2 0x6C8 SWAP1 PUSH2 0x1C09 JUMP JUMPDEST PUSH2 0x11D8 PUSH2 0x157F JUMP JUMPDEST PUSH1 0x1 PUSH1 0x1 PUSH1 0xA0 SHL SUB DUP5 AND PUSH2 0x1225 JUMPI PUSH1 0x40 MLOAD PUSH3 0x461BCD PUSH1 0xE5 SHL DUP2 MSTORE PUSH1 0x20 PUSH1 0x4 DUP3 ADD MSTORE PUSH1 0x14 PUSH1 0x24 DUP3 ADD MSTORE PUSH20 0x496E76616C696420757365722061646472657373 PUSH1 0x60 SHL PUSH1 0x44 DUP3 ADD MSTORE PUSH1 0x64 ADD PUSH2 0x6C8 JUMP JUMPDEST PUSH1 0x8 SLOAD DUP4 LT ISZERO PUSH2 0x1277 JUMPI PUSH1 0x40 MLOAD PUSH3 0x461BCD PUSH1 0xE5 SHL DUP2 MSTORE PUSH1 0x20 PUSH1 0x4 DUP3 ADD MSTORE PUSH1 0x1C PUSH1 0x24 DUP3 ADD MSTORE PUSH32 0x416D6F756E742062656C6F77206D696E696D756D206465706F73697400000000 PUSH1 0x44 DUP3 ADD MSTORE PUSH1 0x64 ADD PUSH2 0x6C8 JUMP JUMPDEST DUP1 PUSH2 0x12BB JUMPI PUSH1 0x40 MLOAD PUSH3 0x461BCD PUSH1 0xE5 SHL DUP2 MSTORE PUSH1 0x20 PUSH1 0x4 DUP3 ADD MSTORE PUSH1 0x14 PUSH1 0x24 DUP3 ADD MSTORE PUSH20 0x92DCECC2D8D2C840B0A4A09840E8F040D0C2E6D PUSH1 0x63 SHL PUSH1 0x44 DUP3 ADD MSTORE PUSH1 0x64 ADD PUSH2 0x6C8 JUMP JUMPDEST PUSH1 0xA SLOAD PUSH0 SWAP1 PUSH2 0x12D2 DUP6 PUSH8 0xDE0B6B3A7640000 PUSH2 0x1BD3 JUMP JUMPDEST PUSH2 0x12DC SWAP2 SWAP1 PUSH2 0x1BEA JUMP JUMPDEST SWAP1 POP DUP4 PUSH1 0x9 PUSH0 DUP3 DUP3 SLOAD PUSH2 0x12EF SWAP2 SWAP1 PUSH2 0x1C32 JUMP JUMPDEST SWAP1 SWAP2 SSTORE POP PUSH2 0x12FF SWAP1 POP DUP6 DUP3 PUSH2 0x16BD JUMP JUMPDEST DUP5 PUSH1 0x1 PUSH1 0x1 PUSH1 0xA0 SHL SUB AND PUSH32 0x5DC23EACE1418C630429A4639FADF2BD4B20187833AD6968B869E9E9BE652E33 DUP6 DUP4 DUP7 DUP7 PUSH1 0x40 MLOAD PUSH2 0x133E SWAP5 SWAP4 SWAP3 SWAP2 SWAP1 PUSH2 0x1C9A JUMP JUMPDEST PUSH1 0x40 MLOAD DUP1 SWAP2 SUB SWAP1 LOG2 POP PUSH2 0x1351 PUSH1 0x1 PUSH1 0x6 SSTORE JUMP JUMPDEST POP POP POP POP JUMP JUMPDEST PUSH0 CALLER PUSH2 0x5E5 DUP2 DUP6 DUP6 PUSH2 0x14BB JUMP JUMPDEST PUSH2 0x136C PUSH2 0x1418 JUMP JUMPDEST PUSH1 0x1 PUSH1 0x1 PUSH1 0xA0 SHL SUB DUP2 AND PUSH0 DUP2 DUP2 MSTORE PUSH1 0x7 PUSH1 0x20 MSTORE PUSH1 0x40 DUP1 DUP3 KECCAK256 DUP1 SLOAD PUSH1 0xFF NOT AND SWAP1 SSTORE MLOAD PUSH32 0x80C0B871B97B595B16A7741C1B06FED0C6F6F558639F18CCBCE50724325DC40D SWAP2 SWAP1 LOG2 POP JUMP JUMPDEST PUSH2 0x13BC PUSH2 0x1418 JUMP JUMPDEST PUSH1 0x1 PUSH1 0x1 PUSH1 0xA0 SHL SUB DUP2 AND PUSH2 0x13E5 JUMPI PUSH1 0x40 MLOAD PUSH4 0x1E4FBDF7 PUSH1 0xE0 SHL DUP2 MSTORE PUSH0 PUSH1 0x4 DUP3 ADD MSTORE PUSH1 0x24 ADD PUSH2 0x6C8 JUMP JUMPDEST PUSH2 0x93E DUP2 PUSH2 0x15DD JUMP JUMPDEST PUSH0 PUSH8 0xDE0B6B3A7640000 PUSH1 0xA SLOAD DUP4 PUSH2 0x608 SWAP2 SWAP1 PUSH2 0x1BD3 JUMP JUMPDEST PUSH2 0x1413 DUP4 DUP4 DUP4 PUSH1 0x1 PUSH2 0x16F1 JUMP JUMPDEST POP POP POP JUMP JUMPDEST PUSH1 0x5 SLOAD PUSH1 0x1 PUSH1 0x1 PUSH1 0xA0 SHL SUB AND CALLER EQ PUSH2 0xB8F JUMPI PUSH1 0x40 MLOAD PUSH4 0x118CDAA7 PUSH1 0xE0 SHL DUP2 MSTORE CALLER PUSH1 0x4 DUP3 ADD MSTORE PUSH1 0x24 ADD PUSH2 0x6C8 JUMP JUMPDEST PUSH1 0x1 PUSH1 0x1 PUSH1 0xA0 SHL SUB DUP4 DUP2 AND PUSH0 SWAP1 DUP2 MSTORE PUSH1 0x1 PUSH1 0x20 SWAP1 DUP2 MSTORE PUSH1 0x40 DUP1 DUP4 KECCAK256 SWAP4 DUP7 AND DUP4 MSTORE SWAP3 SWAP1 MSTORE KECCAK256 SLOAD PUSH0 NOT DUP2 LT ISZERO PUSH2 0x1351 JUMPI DUP2 DUP2 LT ISZERO PUSH2 0x14AD JUMPI PUSH1 0x40 MLOAD PUSH4 0x7DC7A0D9 PUSH1 0xE1 SHL DUP2 MSTORE PUSH1 0x1 PUSH1 0x1 PUSH1 0xA0 SHL SUB DUP5 AND PUSH1 0x4 DUP3 ADD MSTORE PUSH1 0x24 DUP2 ADD DUP3 SWAP1 MSTORE PUSH1 0x44 DUP2 ADD DUP4 SWAP1 MSTORE PUSH1 0x64 ADD PUSH2 0x6C8 JUMP JUMPDEST PUSH2 0x1351 DUP5 DUP5 DUP5 DUP5 SUB PUSH0 PUSH2 0x16F1 JUMP JUMPDEST PUSH1 0x1 PUSH1 0x1 PUSH1 0xA0 SHL SUB DUP4 AND PUSH2 0x14E4 JUMPI PUSH1 0x40 MLOAD PUSH4 0x4B637E8F PUSH1 0xE1 SHL DUP2 MSTORE PUSH0 PUSH1 0x4 DUP3 ADD MSTORE PUSH1 0x24 ADD PUSH2 0x6C8 JUMP JUMPDEST PUSH1 0x1 PUSH1 0x1 PUSH1 0xA0 SHL SUB DUP3 AND PUSH2 0x150D JUMPI PUSH1 0x40 MLOAD PUSH4 0xEC442F05 PUSH1 0xE0 SHL DUP2 MSTORE PUSH0 PUSH1 0x4 DUP3 ADD MSTORE PUSH1 0x24 ADD PUSH2 0x6C8 JUMP JUMPDEST PUSH2 0x1413 DUP4 DUP4 DUP4 PUSH2 0x17C3 JUMP JUMPDEST PUSH1 0x40 MLOAD PUSH1 0x1 PUSH1 0x1 PUSH1 0xA0 SHL SUB DUP5 DUP2 AND PUSH1 0x24 DUP4 ADD MSTORE DUP4 DUP2 AND PUSH1 0x44 DUP4 ADD MSTORE PUSH1 0x64 DUP3 ADD DUP4 SWAP1 MSTORE PUSH2 0x1351 SWAP2 DUP7 SWAP2 DUP3 AND SWAP1 PUSH4 0x23B872DD SWAP1 PUSH1 0x84 ADD JUMPDEST PUSH1 0x40 MLOAD PUSH1 0x20 DUP2 DUP4 SUB SUB DUP2 MSTORE SWAP1 PUSH1 0x40 MSTORE SWAP2 POP PUSH1 0xE0 SHL PUSH1 0x20 DUP3 ADD DUP1 MLOAD PUSH1 0x1 PUSH1 0x1 PUSH1 0xE0 SHL SUB DUP4 DUP2 DUP4 AND OR DUP4 MSTORE POP POP POP POP PUSH2 0x18E9 JUMP JUMPDEST PUSH1 0x2 PUSH1 0x6 SLOAD SUB PUSH2 0x15A2 JUMPI PUSH1 0x40 MLOAD PUSH4 0x3EE5AEB5 PUSH1 0xE0 SHL DUP2 MSTORE PUSH1 0x4 ADD PUSH1 0x40 MLOAD DUP1 SWAP2 SUB SWAP1 REVERT JUMPDEST PUSH1 0x2 PUSH1 0x6 SSTORE JUMP JUMPDEST PUSH1 0x1 PUSH1 0x1 PUSH1 0xA0 SHL SUB DUP3 AND PUSH2 0x15D2 JUMPI PUSH1 0x40 MLOAD PUSH4 0x4B637E8F PUSH1 0xE1 SHL DUP2 MSTORE PUSH0 PUSH1 0x4 DUP3 ADD MSTORE PUSH1 0x24 ADD PUSH2 0x6C8 JUMP JUMPDEST PUSH2 0xBA6 DUP3 PUSH0 DUP4 PUSH2 0x17C3 JUMP JUMPDEST PUSH1 0x5 DUP1 SLOAD PUSH1 0x1 PUSH1 0x1 PUSH1 0xA0 SHL SUB DUP4 DUP2 AND PUSH1 0x1 PUSH1 0x1 PUSH1 0xA0 SHL SUB NOT DUP4 AND DUP2 OR SWAP1 SWAP4 SSTORE PUSH1 0x40 MLOAD SWAP2 AND SWAP2 SWAP1 DUP3 SWAP1 PUSH32 0x8BE0079C531659141344CD1FD0A4F28419497F9722A3DAAFE3B4186F6B6457E0 SWAP1 PUSH0 SWAP1 LOG3 POP POP JUMP JUMPDEST PUSH1 0x40 DUP1 MLOAD PUSH1 0x1 PUSH1 0x1 PUSH1 0xA0 SHL SUB DUP5 AND PUSH1 0x24 DUP3 ADD MSTORE PUSH1 0x44 DUP1 DUP3 ADD DUP5 SWAP1 MSTORE DUP3 MLOAD DUP1 DUP4 SUB SWAP1 SWAP2 ADD DUP2 MSTORE PUSH1 0x64 SWAP1 SWAP2 ADD SWAP1 SWAP2 MSTORE PUSH1 0x20 DUP2 ADD DUP1 MLOAD PUSH1 0x1 PUSH1 0x1 PUSH1 0xE0 SHL SUB AND PUSH4 0x95EA7B3 PUSH1 0xE0 SHL OR SWAP1 MSTORE PUSH2 0x167F DUP5 DUP3 PUSH2 0x1955 JUMP JUMPDEST PUSH2 0x1351 JUMPI PUSH1 0x40 MLOAD PUSH1 0x1 PUSH1 0x1 PUSH1 0xA0 SHL SUB DUP5 DUP2 AND PUSH1 0x24 DUP4 ADD MSTORE PUSH0 PUSH1 0x44 DUP4 ADD MSTORE PUSH2 0x16B3 SWAP2 DUP7 SWAP2 DUP3 AND SWAP1 PUSH4 0x95EA7B3 SWAP1 PUSH1 0x64 ADD PUSH2 0x154D JUMP JUMPDEST PUSH2 0x1351 DUP5 DUP3 PUSH2 0x18E9 JUMP JUMPDEST PUSH1 0x1 PUSH1 0x1 PUSH1 0xA0 SHL SUB DUP3 AND PUSH2 0x16E6 JUMPI PUSH1 0x40 MLOAD PUSH4 0xEC442F05 PUSH1 0xE0 SHL DUP2 MSTORE PUSH0 PUSH1 0x4 DUP3 ADD MSTORE PUSH1 0x24 ADD PUSH2 0x6C8 JUMP JUMPDEST PUSH2 0xBA6 PUSH0 DUP4 DUP4 PUSH2 0x17C3 JUMP JUMPDEST PUSH1 0x1 PUSH1 0x1 PUSH1 0xA0 SHL SUB DUP5 AND PUSH2 0x171A JUMPI PUSH1 0x40 MLOAD PUSH4 0xE602DF05 PUSH1 0xE0 SHL DUP2 MSTORE PUSH0 PUSH1 0x4 DUP3 ADD MSTORE PUSH1 0x24 ADD PUSH2 0x6C8 JUMP JUMPDEST PUSH1 0x1 PUSH1 0x1 PUSH1 0xA0 SHL SUB DUP4 AND PUSH2 0x1743 JUMPI PUSH1 0x40 MLOAD PUSH4 0x4A1406B1 PUSH1 0xE1 SHL DUP2 MSTORE PUSH0 PUSH1 0x4 DUP3 ADD MSTORE PUSH1 0x24 ADD PUSH2 0x6C8 JUMP JUMPDEST PUSH1 0x1 PUSH1 0x1 PUSH1 0xA0 SHL SUB DUP1 DUP6 AND PUSH0 SWAP1 DUP2 MSTORE PUSH1 0x1 PUSH1 0x20 SWAP1 DUP2 MSTORE PUSH1 0x40 DUP1 DUP4 KECCAK256 SWAP4 DUP8 AND DUP4 MSTORE SWAP3 SWAP1 MSTORE KECCAK256 DUP3 SWAP1 SSTORE DUP1 ISZERO PUSH2 0x1351 JUMPI DUP3 PUSH1 0x1 PUSH1 0x1 PUSH1 0xA0 SHL SUB AND DUP5 PUSH1 0x1 PUSH1 0x1 PUSH1 0xA0 SHL SUB AND PUSH32 0x8C5BE1E5EBEC7D5BD14F71427D1E84F3DD0314C0F7B2291E5B200AC8C7C3B925 DUP5 PUSH1 0x40 MLOAD PUSH2 0x17B5 SWAP2 DUP2 MSTORE PUSH1 0x20 ADD SWAP1 JUMP JUMPDEST PUSH1 0x40 MLOAD DUP1 SWAP2 SUB SWAP1 LOG3 POP POP POP POP JUMP JUMPDEST PUSH1 0x1 PUSH1 0x1 PUSH1 0xA0 SHL SUB DUP4 AND PUSH2 0x17ED JUMPI DUP1 PUSH1 0x2 PUSH0 DUP3 DUP3 SLOAD PUSH2 0x17E2 SWAP2 SWAP1 PUSH2 0x1C32 JUMP JUMPDEST SWAP1 SWAP2 SSTORE POP PUSH2 0x185D SWAP1 POP JUMP JUMPDEST PUSH1 0x1 PUSH1 0x1 PUSH1 0xA0 SHL SUB DUP4 AND PUSH0 SWAP1 DUP2 MSTORE PUSH1 0x20 DUP2 SWAP1 MSTORE PUSH1 0x40 SWAP1 KECCAK256 SLOAD DUP2 DUP2 LT ISZERO PUSH2 0x183F JUMPI PUSH1 0x40 MLOAD PUSH4 0x391434E3 PUSH1 0xE2 SHL DUP2 MSTORE PUSH1 0x1 PUSH1 0x1 PUSH1 0xA0 SHL SUB DUP6 AND PUSH1 0x4 DUP3 ADD MSTORE PUSH1 0x24 DUP2 ADD DUP3 SWAP1 MSTORE PUSH1 0x44 DUP2 ADD DUP4 SWAP1 MSTORE PUSH1 0x64 ADD PUSH2 0x6C8 JUMP JUMPDEST PUSH1 0x1 PUSH1 0x1 PUSH1 0xA0 SHL SUB DUP5 AND PUSH0 SWAP1 DUP2 MSTORE PUSH1 0x20 DUP2 SWAP1 MSTORE PUSH1 0x40 SWAP1 KECCAK256 SWAP1 DUP3 SWAP1 SUB SWAP1 SSTORE JUMPDEST PUSH1 0x1 PUSH1 0x1 PUSH1 0xA0 SHL SUB DUP3 AND PUSH2 0x1879 JUMPI PUSH1 0x2 DUP1 SLOAD DUP3 SWAP1 SUB SWAP1 SSTORE PUSH2 0x1897 JUMP JUMPDEST PUSH1 0x1 PUSH1 0x1 PUSH1 0xA0 SHL SUB DUP3 AND PUSH0 SWAP1 DUP2 MSTORE PUSH1 0x20 DUP2 SWAP1 MSTORE PUSH1 0x40 SWAP1 KECCAK256 DUP1 SLOAD DUP3 ADD SWAP1 SSTORE JUMPDEST DUP2 PUSH1 0x1 PUSH1 0x1 PUSH1 0xA0 SHL SUB AND DUP4 PUSH1 0x1 PUSH1 0x1 PUSH1 0xA0 SHL SUB AND PUSH32 0xDDF252AD1BE2C89B69C2B068FC378DAA952BA7F163C4A11628F55A4DF523B3EF DUP4 PUSH1 0x40 MLOAD PUSH2 0x18DC SWAP2 DUP2 MSTORE PUSH1 0x20 ADD SWAP1 JUMP JUMPDEST PUSH1 0x40 MLOAD DUP1 SWAP2 SUB SWAP1 LOG3 POP POP POP JUMP JUMPDEST PUSH0 DUP1 PUSH1 0x20 PUSH0 DUP5 MLOAD PUSH1 0x20 DUP7 ADD PUSH0 DUP9 GAS CALL DUP1 PUSH2 0x1908 JUMPI PUSH1 0x40 MLOAD RETURNDATASIZE PUSH0 DUP3 RETURNDATACOPY RETURNDATASIZE DUP2 REVERT JUMPDEST POP POP PUSH0 MLOAD RETURNDATASIZE SWAP2 POP DUP2 ISZERO PUSH2 0x191F JUMPI DUP1 PUSH1 0x1 EQ ISZERO PUSH2 0x192C JUMP JUMPDEST PUSH1 0x1 PUSH1 0x1 PUSH1 0xA0 SHL SUB DUP5 AND EXTCODESIZE ISZERO JUMPDEST ISZERO PUSH2 0x1351 JUMPI PUSH1 0x40 MLOAD PUSH4 0x5274AFE7 PUSH1 0xE0 SHL DUP2 MSTORE PUSH1 0x1 PUSH1 0x1 PUSH1 0xA0 SHL SUB DUP6 AND PUSH1 0x4 DUP3 ADD MSTORE PUSH1 0x24 ADD PUSH2 0x6C8 JUMP JUMPDEST PUSH0 DUP1 PUSH0 DUP1 PUSH1 0x20 PUSH0 DUP7 MLOAD PUSH1 0x20 DUP9 ADD PUSH0 DUP11 GAS CALL SWAP3 POP RETURNDATASIZE SWAP2 POP PUSH0 MLOAD SWAP1 POP DUP3 DUP1 ISZERO PUSH2 0x1994 JUMPI POP DUP2 ISZERO PUSH2 0x1986 JUMPI DUP1 PUSH1 0x1 EQ PUSH2 0x1994 JUMP JUMPDEST PUSH0 DUP7 PUSH1 0x1 PUSH1 0x1 PUSH1 0xA0 SHL SUB AND EXTCODESIZE GT JUMPDEST SWAP7 SWAP6 POP POP POP POP POP POP JUMP JUMPDEST PUSH0 PUSH1 0x20 DUP1 DUP4 MSTORE DUP4 MLOAD DUP1 DUP3 DUP6 ADD MSTORE PUSH0 JUMPDEST DUP2 DUP2 LT ISZERO PUSH2 0x19C9 JUMPI DUP6 DUP2 ADD DUP4 ADD MLOAD DUP6 DUP3 ADD PUSH1 0x40 ADD MSTORE DUP3 ADD PUSH2 0x19AD JUMP JUMPDEST POP PUSH0 PUSH1 0x40 DUP3 DUP7 ADD ADD MSTORE PUSH1 0x40 PUSH1 0x1F NOT PUSH1 0x1F DUP4 ADD AND DUP6 ADD ADD SWAP3 POP POP POP SWAP3 SWAP2 POP POP JUMP JUMPDEST DUP1 CALLDATALOAD PUSH1 0x1 PUSH1 0x1 PUSH1 0xA0 SHL SUB DUP2 AND DUP2 EQ PUSH2 0x92F JUMPI PUSH0 DUP1 REVERT JUMPDEST PUSH0 DUP1 PUSH1 0x40 DUP4 DUP6 SUB SLT ISZERO PUSH2 0x1A10 JUMPI PUSH0 DUP1 REVERT JUMPDEST PUSH2 0x1A19 DUP4 PUSH2 0x19E9 JUMP JUMPDEST SWAP5 PUSH1 0x20 SWAP4 SWAP1 SWAP4 ADD CALLDATALOAD SWAP4 POP POP POP JUMP JUMPDEST PUSH0 PUSH1 0x20 DUP3 DUP5 SUB SLT ISZERO PUSH2 0x1A37 JUMPI PUSH0 DUP1 REVERT JUMPDEST POP CALLDATALOAD SWAP2 SWAP1 POP JUMP JUMPDEST PUSH0 PUSH1 0x20 DUP3 DUP5 SUB SLT ISZERO PUSH2 0x1A4E JUMPI PUSH0 DUP1 REVERT JUMPDEST DUP2 CALLDATALOAD DUP1 ISZERO ISZERO DUP2 EQ PUSH2 0x1A5D JUMPI PUSH0 DUP1 REVERT JUMPDEST SWAP4 SWAP3 POP POP POP JUMP JUMPDEST PUSH0 PUSH1 0x20 DUP3 DUP5 SUB SLT ISZERO PUSH2 0x1A74 JUMPI PUSH0 DUP1 REVERT JUMPDEST PUSH2 0x1A5D DUP3 PUSH2 0x19E9 JUMP JUMPDEST PUSH0 DUP1 PUSH0 PUSH1 0x60 DUP5 DUP7 SUB SLT ISZERO PUSH2 0x1A8F JUMPI PUSH0 DUP1 REVERT JUMPDEST PUSH2 0x1A98 DUP5 PUSH2 0x19E9 JUMP JUMPDEST SWAP3 POP PUSH2 0x1AA6 PUSH1 0x20 DUP6 ADD PUSH2 0x19E9 JUMP JUMPDEST SWAP2 POP PUSH1 0x40 DUP5 ADD CALLDATALOAD SWAP1 POP SWAP3 POP SWAP3 POP SWAP3 JUMP JUMPDEST PUSH0 DUP1 PUSH1 0x40 DUP4 DUP6 SUB SLT ISZERO PUSH2 0x1AC7 JUMPI PUSH0 DUP1 REVERT JUMPDEST POP POP DUP1 CALLDATALOAD SWAP3 PUSH1 0x20 SWAP1 SWAP2 ADD CALLDATALOAD SWAP2 POP JUMP JUMPDEST PUSH0 DUP1 PUSH0 DUP1 PUSH1 0x60 DUP6 DUP8 SUB SLT ISZERO PUSH2 0x1AE9 JUMPI PUSH0 DUP1 REVERT JUMPDEST PUSH2 0x1AF2 DUP6 PUSH2 0x19E9 JUMP JUMPDEST SWAP4 POP PUSH1 0x20 DUP6 ADD CALLDATALOAD SWAP3 POP PUSH1 0x40 DUP6 ADD CALLDATALOAD PUSH8 0xFFFFFFFFFFFFFFFF DUP1 DUP3 GT ISZERO PUSH2 0x1B15 JUMPI PUSH0 DUP1 REVERT JUMPDEST DUP2 DUP8 ADD SWAP2 POP DUP8 PUSH1 0x1F DUP4 ADD SLT PUSH2 0x1B28 JUMPI PUSH0 DUP1 REVERT JUMPDEST DUP2 CALLDATALOAD DUP2 DUP2 GT ISZERO PUSH2 0x1B36 JUMPI PUSH0 DUP1 REVERT JUMPDEST DUP9 PUSH1 0x20 DUP3 DUP6 ADD ADD GT ISZERO PUSH2 0x1B47 JUMPI PUSH0 DUP1 REVERT JUMPDEST SWAP6 SWAP9 SWAP5 SWAP8 POP POP PUSH1 0x20 ADD SWAP5 POP POP POP JUMP JUMPDEST PUSH0 DUP1 PUSH1 0x40 DUP4 DUP6 SUB SLT ISZERO PUSH2 0x1B67 JUMPI PUSH0 DUP1 REVERT JUMPDEST PUSH2 0x1B70 DUP4 PUSH2 0x19E9 JUMP JUMPDEST SWAP2 POP PUSH2 0x1B7E PUSH1 0x20 DUP5 ADD PUSH2 0x19E9 JUMP JUMPDEST SWAP1 POP SWAP3 POP SWAP3 SWAP1 POP JUMP JUMPDEST PUSH1 0x1 DUP2 DUP2 SHR SWAP1 DUP3 AND DUP1 PUSH2 0x1B9B JUMPI PUSH1 0x7F DUP3 AND SWAP2 POP JUMPDEST PUSH1 0x20 DUP3 LT DUP2 SUB PUSH2 0x1BB9 JUMPI PUSH4 0x4E487B71 PUSH1 0xE0 SHL PUSH0 MSTORE PUSH1 0x22 PUSH1 0x4 MSTORE PUSH1 0x24 PUSH0 REVERT JUMPDEST POP SWAP2 SWAP1 POP JUMP JUMPDEST PUSH4 0x4E487B71 PUSH1 0xE0 SHL PUSH0 MSTORE PUSH1 0x11 PUSH1 0x4 MSTORE PUSH1 0x24 PUSH0 REVERT JUMPDEST DUP1 DUP3 MUL DUP2 ISZERO DUP3 DUP3 DIV DUP5 EQ OR PUSH2 0x5EB JUMPI PUSH2 0x5EB PUSH2 0x1BBF JUMP JUMPDEST PUSH0 DUP3 PUSH2 0x1C04 JUMPI PUSH4 0x4E487B71 PUSH1 0xE0 SHL PUSH0 MSTORE PUSH1 0x12 PUSH1 0x4 MSTORE PUSH1 0x24 PUSH0 REVERT JUMPDEST POP DIV SWAP1 JUMP JUMPDEST PUSH1 0x20 DUP1 DUP3 MSTORE PUSH1 0xF SWAP1 DUP3 ADD MSTORE PUSH15 0x2737BA1030B71037B832B930BA37B9 PUSH1 0x89 SHL PUSH1 0x40 DUP3 ADD MSTORE PUSH1 0x60 ADD SWAP1 JUMP JUMPDEST DUP1 DUP3 ADD DUP1 DUP3 GT ISZERO PUSH2 0x5EB JUMPI PUSH2 0x5EB PUSH2 0x1BBF JUMP JUMPDEST DUP2 DUP2 SUB DUP2 DUP2 GT ISZERO PUSH2 0x5EB JUMPI PUSH2 0x5EB PUSH2 0x1BBF JUMP JUMPDEST PUSH0 PUSH1 0x20 DUP3 DUP5 SUB SLT ISZERO PUSH2 0x1C68 JUMPI PUSH0 DUP1 REVERT JUMPDEST POP MLOAD SWAP2 SWAP1 POP JUMP JUMPDEST PUSH0 DUP1 PUSH0 PUSH1 0x60 DUP5 DUP7 SUB SLT ISZERO PUSH2 0x1C81 JUMPI PUSH0 DUP1 REVERT JUMPDEST DUP4 MLOAD SWAP3 POP PUSH1 0x20 DUP5 ADD MLOAD SWAP2 POP PUSH1 0x40 DUP5 ADD MLOAD SWAP1 POP SWAP3 POP SWAP3 POP SWAP3 JUMP JUMPDEST DUP5 DUP2 MSTORE DUP4 PUSH1 0x20 DUP3 ADD MSTORE PUSH1 0x60 PUSH1 0x40 DUP3 ADD MSTORE DUP2 PUSH1 0x60 DUP3 ADD MSTORE DUP2 DUP4 PUSH1 0x80 DUP4 ADD CALLDATACOPY PUSH0 DUP2 DUP4 ADD PUSH1 0x80 SWAP1 DUP2 ADD SWAP2 SWAP1 SWAP2 MSTORE PUSH1 0x1F SWAP1 SWAP3 ADD PUSH1 0x1F NOT AND ADD ADD SWAP4 SWAP3 POP POP POP JUMP INVALID LOG2 PUSH5 0x6970667358 0x22 SLT KECCAK256 POP NOT PUSH24 0x3EF1C66EFED68451138E8FECE6406BEEA6BEBD9874B91B62 0x24 0xC6 0xD2 DIV PUSH8 0x64736F6C63430008 EQ STOP CALLER "},"methodIdentifiers":{"addOperator(address)":"9870d7fe","allowance(address,address)":"dd62ed3e","approve(address,uint256)":"095ea7b3","balanceOf(address)":"70a08231","burn(uint256)":"42966c68","burnFrom(address,uint256)":"79cc6790","burnShXRP(uint256)":"39129162","calculateShXRPAmount(uint256)":"1358bc82","calculateXRPAmount(uint256)":"f734bd6e","claimAndCompound()":"9b1650e3","decimals()":"313ce567","depositFXRP(uint256)":"326bf23f","distributeRewards(uint256)":"59974e38","exchangeRate()":"3ba0b9a9","fxrpToken()":"6e131a7c","getExchangeRate()":"e6aa216c","lpToken()":"5fcbd285","minDeposit()":"41b3d185","mintShXRP(address,uint256,string)":"a5854a3e","name()":"06fdde03","operators(address)":"13e7c9d8","owner()":"8da5cb5b","removeOperator(address)":"ac8a584a","renounceOwnership()":"715018a6","setLPToken(address)":"6a678a9c","setMinDeposit(uint256)":"8fcc9cfb","setYieldEnabled(bool)":"135986b4","sparkRouter()":"32609af5","stakeInDeFi(uint256,uint256)":"88342673","symbol()":"95d89b41","totalFXRPDeposited()":"346fe52c","totalFXRPInVault()":"d33a5088","totalLPStaked()":"8575837c","totalSupply()":"18160ddd","totalXRPLocked()":"d5fc617e","transfer(address,uint256)":"a9059cbb","transferFrom(address,address,uint256)":"23b872dd","transferOwnership(address)":"f2fde38b","wflrToken()":"fd0a4875","yieldEnabled()":"c2752e43"}}}}}