{"project/contracts/ShXRPVault.sol":{"ShXRPVault":{"abi":[{"inputs":[{"internalType":"contract IERC20","name":"_fxrpToken","type":"address"},{"internalType":"string","name":"_name","type":"string"},{"internalType":"string","name":"_symbol","type":"string"},{"internalType":"address","name":"_revenueRouter","type":"address"}],"stateMutability":"nonpayable","type":"constructor"},{"inputs":[{"internalType":"address","name":"spender","type":"address"},{"internalType":"uint256","name":"allowance","type":"uint256"},{"internalType":"uint256","name":"needed","type":"uint256"}],"name":"ERC20InsufficientAllowance","type":"error"},{"inputs":[{"internalType":"address","name":"sender","type":"address"},{"internalType":"uint256","name":"balance","type":"uint256"},{"internalType":"uint256","name":"needed","type":"uint256"}],"name":"ERC20InsufficientBalance","type":"error"},{"inputs":[{"internalType":"address","name":"approver","type":"address"}],"name":"ERC20InvalidApprover","type":"error"},{"inputs":[{"internalType":"address","name":"receiver","type":"address"}],"name":"ERC20InvalidReceiver","type":"error"},{"inputs":[{"internalType":"address","name":"sender","type":"address"}],"name":"ERC20InvalidSender","type":"error"},{"inputs":[{"internalType":"address","name":"spender","type":"address"}],"name":"ERC20InvalidSpender","type":"error"},{"inputs":[{"internalType":"address","name":"receiver","type":"address"},{"internalType":"uint256","name":"assets","type":"uint256"},{"internalType":"uint256","name":"max","type":"uint256"}],"name":"ERC4626ExceededMaxDeposit","type":"error"},{"inputs":[{"internalType":"address","name":"receiver","type":"address"},{"internalType":"uint256","name":"shares","type":"uint256"},{"internalType":"uint256","name":"max","type":"uint256"}],"name":"ERC4626ExceededMaxMint","type":"error"},{"inputs":[{"internalType":"address","name":"owner","type":"address"},{"internalType":"uint256","name":"shares","type":"uint256"},{"internalType":"uint256","name":"max","type":"uint256"}],"name":"ERC4626ExceededMaxRedeem","type":"error"},{"inputs":[{"internalType":"address","name":"owner","type":"address"},{"internalType":"uint256","name":"assets","type":"uint256"},{"internalType":"uint256","name":"max","type":"uint256"}],"name":"ERC4626ExceededMaxWithdraw","type":"error"},{"inputs":[],"name":"EnforcedPause","type":"error"},{"inputs":[],"name":"ExpectedPause","type":"error"},{"inputs":[{"internalType":"address","name":"owner","type":"address"}],"name":"OwnableInvalidOwner","type":"error"},{"inputs":[{"internalType":"address","name":"account","type":"address"}],"name":"OwnableUnauthorizedAccount","type":"error"},{"inputs":[],"name":"ReentrancyGuardReentrantCall","type":"error"},{"inputs":[{"internalType":"address","name":"token","type":"address"}],"name":"SafeERC20FailedOperation","type":"error"},{"anonymous":false,"inputs":[{"indexed":true,"internalType":"address","name":"owner","type":"address"},{"indexed":true,"internalType":"address","name":"spender","type":"address"},{"indexed":false,"internalType":"uint256","name":"value","type":"uint256"}],"name":"Approval","type":"event"},{"anonymous":false,"inputs":[{"indexed":false,"internalType":"uint256","name":"newTargetBps","type":"uint256"}],"name":"BufferTargetUpdated","type":"event"},{"anonymous":false,"inputs":[{"indexed":true,"internalType":"address","name":"strategy","type":"address"},{"indexed":false,"internalType":"uint256","name":"amount","type":"uint256"}],"name":"DeployedToStrategy","type":"event"},{"anonymous":false,"inputs":[{"indexed":true,"internalType":"address","name":"sender","type":"address"},{"indexed":true,"internalType":"address","name":"owner","type":"address"},{"indexed":false,"internalType":"uint256","name":"assets","type":"uint256"},{"indexed":false,"internalType":"uint256","name":"shares","type":"uint256"}],"name":"Deposit","type":"event"},{"anonymous":false,"inputs":[{"indexed":false,"internalType":"uint256","name":"newDepositLimit","type":"uint256"}],"name":"DepositLimitUpdated","type":"event"},{"anonymous":false,"inputs":[{"indexed":true,"internalType":"string","name":"feeType","type":"string"},{"indexed":false,"internalType":"uint256","name":"amount","type":"uint256"},{"indexed":true,"internalType":"address","name":"recipient","type":"address"}],"name":"FeeTransferred","type":"event"},{"anonymous":false,"inputs":[{"indexed":false,"internalType":"uint256","name":"newMinDeposit","type":"uint256"}],"name":"MinDepositUpdated","type":"event"},{"anonymous":false,"inputs":[{"indexed":true,"internalType":"address","name":"operator","type":"address"}],"name":"OperatorAdded","type":"event"},{"anonymous":false,"inputs":[{"indexed":true,"internalType":"address","name":"operator","type":"address"}],"name":"OperatorRemoved","type":"event"},{"anonymous":false,"inputs":[{"indexed":true,"internalType":"address","name":"previousOwner","type":"address"},{"indexed":true,"internalType":"address","name":"newOwner","type":"address"}],"name":"OwnershipTransferred","type":"event"},{"anonymous":false,"inputs":[{"indexed":false,"internalType":"address","name":"account","type":"address"}],"name":"Paused","type":"event"},{"anonymous":false,"inputs":[{"indexed":true,"internalType":"address","name":"strategy","type":"address"},{"indexed":false,"internalType":"uint256","name":"targetBps","type":"uint256"}],"name":"StrategyAdded","type":"event"},{"anonymous":false,"inputs":[{"indexed":true,"internalType":"address","name":"strategy","type":"address"},{"indexed":false,"internalType":"uint256","name":"newTargetBps","type":"uint256"}],"name":"StrategyAllocationUpdated","type":"event"},{"anonymous":false,"inputs":[{"indexed":true,"internalType":"address","name":"strategy","type":"address"}],"name":"StrategyRemoved","type":"event"},{"anonymous":false,"inputs":[{"indexed":true,"internalType":"address","name":"strategy","type":"address"},{"indexed":false,"internalType":"uint256","name":"profit","type":"uint256"},{"indexed":false,"internalType":"uint256","name":"loss","type":"uint256"},{"indexed":false,"internalType":"uint256","name":"totalAssets","type":"uint256"}],"name":"StrategyReported","type":"event"},{"anonymous":false,"inputs":[{"indexed":true,"internalType":"address","name":"strategy","type":"address"},{"indexed":false,"internalType":"enum ShXRPVault.StrategyStatus","name":"newStatus","type":"uint8"}],"name":"StrategyStatusUpdated","type":"event"},{"anonymous":false,"inputs":[{"indexed":true,"internalType":"address","name":"from","type":"address"},{"indexed":true,"internalType":"address","name":"to","type":"address"},{"indexed":false,"internalType":"uint256","name":"value","type":"uint256"}],"name":"Transfer","type":"event"},{"anonymous":false,"inputs":[{"indexed":false,"internalType":"address","name":"account","type":"address"}],"name":"Unpaused","type":"event"},{"anonymous":false,"inputs":[{"indexed":true,"internalType":"address","name":"sender","type":"address"},{"indexed":true,"internalType":"address","name":"receiver","type":"address"},{"indexed":true,"internalType":"address","name":"owner","type":"address"},{"indexed":false,"internalType":"uint256","name":"assets","type":"uint256"},{"indexed":false,"internalType":"uint256","name":"shares","type":"uint256"}],"name":"Withdraw","type":"event"},{"anonymous":false,"inputs":[{"indexed":true,"internalType":"address","name":"strategy","type":"address"},{"indexed":false,"internalType":"uint256","name":"amount","type":"uint256"},{"indexed":false,"internalType":"uint256","name":"actualAmount","type":"uint256"}],"name":"WithdrawnFromStrategy","type":"event"},{"anonymous":false,"inputs":[{"indexed":false,"internalType":"uint256","name":"newFeeBps","type":"uint256"}],"name":"YieldRoutingFeeUpdated","type":"event"},{"inputs":[],"name":"DEPOSIT_FEE_BPS","outputs":[{"internalType":"uint256","name":"","type":"uint256"}],"stateMutability":"view","type":"function"},{"inputs":[],"name":"WITHDRAW_FEE_BPS","outputs":[{"internalType":"uint256","name":"","type":"uint256"}],"stateMutability":"view","type":"function"},{"inputs":[{"internalType":"address","name":"strategy","type":"address"}],"name":"activateStrategy","outputs":[],"stateMutability":"nonpayable","type":"function"},{"inputs":[{"internalType":"address","name":"operator","type":"address"}],"name":"addOperator","outputs":[],"stateMutability":"nonpayable","type":"function"},{"inputs":[{"internalType":"address","name":"strategy","type":"address"},{"internalType":"uint256","name":"targetBps","type":"uint256"}],"name":"addStrategy","outputs":[],"stateMutability":"nonpayable","type":"function"},{"inputs":[{"internalType":"address","name":"owner","type":"address"},{"internalType":"address","name":"spender","type":"address"}],"name":"allowance","outputs":[{"internalType":"uint256","name":"","type":"uint256"}],"stateMutability":"view","type":"function"},{"inputs":[{"internalType":"address","name":"spender","type":"address"},{"internalType":"uint256","name":"value","type":"uint256"}],"name":"approve","outputs":[{"internalType":"bool","name":"","type":"bool"}],"stateMutability":"nonpayable","type":"function"},{"inputs":[],"name":"asset","outputs":[{"internalType":"address","name":"","type":"address"}],"stateMutability":"view","type":"function"},{"inputs":[{"internalType":"address","name":"account","type":"address"}],"name":"balanceOf","outputs":[{"internalType":"uint256","name":"","type":"uint256"}],"stateMutability":"view","type":"function"},{"inputs":[],"name":"bufferTargetBps","outputs":[{"internalType":"uint256","name":"","type":"uint256"}],"stateMutability":"view","type":"function"},{"inputs":[{"internalType":"uint256","name":"shares","type":"uint256"}],"name":"convertToAssets","outputs":[{"internalType":"uint256","name":"","type":"uint256"}],"stateMutability":"view","type":"function"},{"inputs":[{"internalType":"uint256","name":"assets","type":"uint256"}],"name":"convertToShares","outputs":[{"internalType":"uint256","name":"","type":"uint256"}],"stateMutability":"view","type":"function"},{"inputs":[],"name":"decimals","outputs":[{"internalType":"uint8","name":"","type":"uint8"}],"stateMutability":"view","type":"function"},{"inputs":[{"internalType":"address","name":"strategy","type":"address"},{"internalType":"uint256","name":"amount","type":"uint256"}],"name":"deployToStrategy","outputs":[],"stateMutability":"nonpayable","type":"function"},{"inputs":[{"internalType":"uint256","name":"assets","type":"uint256"},{"internalType":"address","name":"receiver","type":"address"}],"name":"deposit","outputs":[{"internalType":"uint256","name":"","type":"uint256"}],"stateMutability":"nonpayable","type":"function"},{"inputs":[],"name":"depositLimit","outputs":[{"internalType":"uint256","name":"","type":"uint256"}],"stateMutability":"view","type":"function"},{"inputs":[],"name":"getActiveStrategies","outputs":[{"internalType":"address[]","name":"","type":"address[]"}],"stateMutability":"view","type":"function"},{"inputs":[],"name":"getAllStrategies","outputs":[{"internalType":"address[]","name":"","type":"address[]"}],"stateMutability":"view","type":"function"},{"inputs":[],"name":"getBufferBalance","outputs":[{"internalType":"uint256","name":"","type":"uint256"}],"stateMutability":"view","type":"function"},{"inputs":[],"name":"getBufferStatus","outputs":[{"internalType":"uint256","name":"current","type":"uint256"},{"internalType":"uint256","name":"target","type":"uint256"},{"internalType":"uint256","name":"deficit","type":"uint256"},{"internalType":"uint256","name":"surplus","type":"uint256"},{"internalType":"uint256","name":"targetBps","type":"uint256"}],"stateMutability":"view","type":"function"},{"inputs":[],"name":"getBufferTarget","outputs":[{"internalType":"uint256","name":"","type":"uint256"}],"stateMutability":"view","type":"function"},{"inputs":[],"name":"getCurrentAllocations","outputs":[{"internalType":"address[]","name":"strategies_","type":"address[]"},{"internalType":"uint256[]","name":"allocations","type":"uint256[]"},{"internalType":"uint256[]","name":"targets","type":"uint256[]"}],"stateMutability":"view","type":"function"},{"inputs":[{"internalType":"address","name":"strategy","type":"address"}],"name":"getStrategyInfo","outputs":[{"components":[{"internalType":"address","name":"strategyAddress","type":"address"},{"internalType":"uint256","name":"targetBps","type":"uint256"},{"internalType":"enum ShXRPVault.StrategyStatus","name":"status","type":"uint8"},{"internalType":"uint256","name":"totalDeployed","type":"uint256"},{"internalType":"uint256","name":"lastReportTimestamp","type":"uint256"}],"internalType":"struct ShXRPVault.StrategyInfo","name":"info","type":"tuple"}],"stateMutability":"view","type":"function"},{"inputs":[],"name":"getTotalDeployed","outputs":[{"internalType":"uint256","name":"","type":"uint256"}],"stateMutability":"view","type":"function"},{"inputs":[{"internalType":"address","name":"","type":"address"}],"name":"maxDeposit","outputs":[{"internalType":"uint256","name":"","type":"uint256"}],"stateMutability":"view","type":"function"},{"inputs":[{"internalType":"address","name":"","type":"address"}],"name":"maxMint","outputs":[{"internalType":"uint256","name":"","type":"uint256"}],"stateMutability":"view","type":"function"},{"inputs":[{"internalType":"address","name":"owner","type":"address"}],"name":"maxRedeem","outputs":[{"internalType":"uint256","name":"","type":"uint256"}],"stateMutability":"view","type":"function"},{"inputs":[{"internalType":"address","name":"owner","type":"address"}],"name":"maxWithdraw","outputs":[{"internalType":"uint256","name":"","type":"uint256"}],"stateMutability":"view","type":"function"},{"inputs":[],"name":"minDeposit","outputs":[{"internalType":"uint256","name":"","type":"uint256"}],"stateMutability":"view","type":"function"},{"inputs":[{"internalType":"uint256","name":"shares","type":"uint256"},{"internalType":"address","name":"receiver","type":"address"}],"name":"mint","outputs":[{"internalType":"uint256","name":"","type":"uint256"}],"stateMutability":"nonpayable","type":"function"},{"inputs":[],"name":"name","outputs":[{"internalType":"string","name":"","type":"string"}],"stateMutability":"view","type":"function"},{"inputs":[{"internalType":"address","name":"","type":"address"}],"name":"operators","outputs":[{"internalType":"bool","name":"","type":"bool"}],"stateMutability":"view","type":"function"},{"inputs":[],"name":"owner","outputs":[{"internalType":"address","name":"","type":"address"}],"stateMutability":"view","type":"function"},{"inputs":[],"name":"pause","outputs":[],"stateMutability":"nonpayable","type":"function"},{"inputs":[{"internalType":"address","name":"strategy","type":"address"}],"name":"pauseStrategy","outputs":[],"stateMutability":"nonpayable","type":"function"},{"inputs":[],"name":"paused","outputs":[{"internalType":"bool","name":"","type":"bool"}],"stateMutability":"view","type":"function"},{"inputs":[{"internalType":"uint256","name":"assets","type":"uint256"}],"name":"previewDeposit","outputs":[{"internalType":"uint256","name":"","type":"uint256"}],"stateMutability":"view","type":"function"},{"inputs":[{"internalType":"uint256","name":"shares","type":"uint256"}],"name":"previewMint","outputs":[{"internalType":"uint256","name":"","type":"uint256"}],"stateMutability":"view","type":"function"},{"inputs":[{"internalType":"uint256","name":"shares","type":"uint256"}],"name":"previewRedeem","outputs":[{"internalType":"uint256","name":"","type":"uint256"}],"stateMutability":"view","type":"function"},{"inputs":[{"internalType":"uint256","name":"assets","type":"uint256"}],"name":"previewWithdraw","outputs":[{"internalType":"uint256","name":"","type":"uint256"}],"stateMutability":"view","type":"function"},{"inputs":[{"internalType":"uint256","name":"shares","type":"uint256"},{"internalType":"address","name":"receiver","type":"address"},{"internalType":"address","name":"owner","type":"address"}],"name":"redeem","outputs":[{"internalType":"uint256","name":"","type":"uint256"}],"stateMutability":"nonpayable","type":"function"},{"inputs":[{"internalType":"address","name":"operator","type":"address"}],"name":"removeOperator","outputs":[],"stateMutability":"nonpayable","type":"function"},{"inputs":[{"internalType":"address","name":"strategy","type":"address"}],"name":"removeStrategy","outputs":[],"stateMutability":"nonpayable","type":"function"},{"inputs":[],"name":"renounceOwnership","outputs":[],"stateMutability":"nonpayable","type":"function"},{"inputs":[{"internalType":"address","name":"strategy","type":"address"}],"name":"reportStrategy","outputs":[],"stateMutability":"nonpayable","type":"function"},{"inputs":[{"internalType":"address","name":"strategy","type":"address"}],"name":"resumeStrategy","outputs":[],"stateMutability":"nonpayable","type":"function"},{"inputs":[],"name":"revenueRouter","outputs":[{"internalType":"address","name":"","type":"address"}],"stateMutability":"view","type":"function"},{"inputs":[{"internalType":"uint256","name":"newTargetBps","type":"uint256"}],"name":"setBufferTarget","outputs":[],"stateMutability":"nonpayable","type":"function"},{"inputs":[{"internalType":"uint256","name":"newDepositLimit","type":"uint256"}],"name":"setDepositLimit","outputs":[],"stateMutability":"nonpayable","type":"function"},{"inputs":[{"internalType":"uint256","name":"newMinDeposit","type":"uint256"}],"name":"setMinDeposit","outputs":[],"stateMutability":"nonpayable","type":"function"},{"inputs":[{"internalType":"uint256","name":"newFeeBps","type":"uint256"}],"name":"setYieldRoutingFeeBps","outputs":[],"stateMutability":"nonpayable","type":"function"},{"inputs":[{"internalType":"address","name":"","type":"address"}],"name":"strategies","outputs":[{"internalType":"address","name":"strategyAddress","type":"address"},{"internalType":"uint256","name":"targetBps","type":"uint256"},{"internalType":"enum ShXRPVault.StrategyStatus","name":"status","type":"uint8"},{"internalType":"uint256","name":"totalDeployed","type":"uint256"},{"internalType":"uint256","name":"lastReportTimestamp","type":"uint256"}],"stateMutability":"view","type":"function"},{"inputs":[{"internalType":"uint256","name":"","type":"uint256"}],"name":"strategyList","outputs":[{"internalType":"address","name":"","type":"address"}],"stateMutability":"view","type":"function"},{"inputs":[],"name":"symbol","outputs":[{"internalType":"string","name":"","type":"string"}],"stateMutability":"view","type":"function"},{"inputs":[],"name":"totalAssets","outputs":[{"internalType":"uint256","name":"","type":"uint256"}],"stateMutability":"view","type":"function"},{"inputs":[],"name":"totalStrategyTargetBps","outputs":[{"internalType":"uint256","name":"","type":"uint256"}],"stateMutability":"view","type":"function"},{"inputs":[],"name":"totalSupply","outputs":[{"internalType":"uint256","name":"","type":"uint256"}],"stateMutability":"view","type":"function"},{"inputs":[{"internalType":"address","name":"to","type":"address"},{"internalType":"uint256","name":"value","type":"uint256"}],"name":"transfer","outputs":[{"internalType":"bool","name":"","type":"bool"}],"stateMutability":"nonpayable","type":"function"},{"inputs":[{"internalType":"address","name":"from","type":"address"},{"internalType":"address","name":"to","type":"address"},{"internalType":"uint256","name":"value","type":"uint256"}],"name":"transferFrom","outputs":[{"internalType":"bool","name":"","type":"bool"}],"stateMutability":"nonpayable","type":"function"},{"inputs":[{"internalType":"address","name":"newOwner","type":"address"}],"name":"transferOwnership","outputs":[],"stateMutability":"nonpayable","type":"function"},{"inputs":[],"name":"unpause","outputs":[],"stateMutability":"nonpayable","type":"function"},{"inputs":[{"internalType":"address","name":"strategy","type":"address"},{"internalType":"uint256","name":"newTargetBps","type":"uint256"}],"name":"updateAllocation","outputs":[],"stateMutability":"nonpayable","type":"function"},{"inputs":[{"internalType":"uint256","name":"assets","type":"uint256"},{"internalType":"address","name":"receiver","type":"address"},{"internalType":"address","name":"owner","type":"address"}],"name":"withdraw","outputs":[{"internalType":"uint256","name":"","type":"uint256"}],"stateMutability":"nonpayable","type":"function"},{"inputs":[{"internalType":"address","name":"strategy","type":"address"},{"internalType":"uint256","name":"amount","type":"uint256"}],"name":"withdrawFromStrategy","outputs":[],"stateMutability":"nonpayable","type":"function"},{"inputs":[],"name":"yieldRoutingFeeBps","outputs":[{"internalType":"uint256","name":"","type":"uint256"}],"stateMutability":"view","type":"function"}],"evm":{"bytecode":{"linkReferences":{},"object":"60e0604052600a600855612710600a5564e8d4a51000600b556103e8600f553480156200002a575f80fd5b50604051620051dc380380620051dc8339810160408190526200004d91620003fa565b3384848460036200005f838262000515565b5060046200006e828262000515565b5050505f806200008483620001ec60201b60201c565b91509150816200009657601262000098565b805b60ff1660a05250506001600160a01b039081166080528116620000d557604051631e4fbdf760e01b81525f60048201526024015b60405180910390fd5b620000e081620002cb565b5060016006556001600160a01b0384166200013e5760405162461bcd60e51b815260206004820152601a60248201527f496e76616c6964204658525020746f6b656e20616464726573730000000000006044820152606401620000cc565b6001600160a01b038116620001965760405162461bcd60e51b815260206004820152601e60248201527f496e76616c696420726576656e756520726f75746572206164647265737300006044820152606401620000cc565b6001600160a01b03811660c052335f81815260096020526040808220805460ff19166001179055517fac6fa858e9350a46cec16539926e0fde25b7629f84b5a72bffaae4df888ae86d9190a25050505062000612565b60408051600481526024810182526020810180516001600160e01b031663313ce56760e01b17905290515f918291829182916001600160a01b038716916200023491620005dd565b5f60405180830381855afa9150503d805f81146200026e576040519150601f19603f3d011682016040523d82523d5f602084013e62000273565b606091505b50915091508180156200028857506020815110155b15620002bf575f81806020019051810190620002a59190620005fa565b905060ff8111620002bd576001969095509350505050565b505b505f9485945092505050565b600580546001600160a01b038381166001600160a01b0319831681179093556040519116919082907f8be0079c531659141344cd1fd0a4f28419497f9722a3daafe3b4186f6b6457e0905f90a35050565b6001600160a01b038116811462000331575f80fd5b50565b634e487b7160e01b5f52604160045260245ffd5b5f5b83811015620003645781810151838201526020016200034a565b50505f910152565b5f82601f8301126200037c575f80fd5b81516001600160401b038082111562000399576200039962000334565b604051601f8301601f19908116603f01168101908282118183101715620003c457620003c462000334565b81604052838152866020858801011115620003dd575f80fd5b620003f084602083016020890162000348565b9695505050505050565b5f805f80608085870312156200040e575f80fd5b84516200041b816200031c565b60208601519094506001600160401b038082111562000438575f80fd5b62000446888389016200036c565b945060408701519150808211156200045c575f80fd5b506200046b878288016200036c565b92505060608501516200047e816200031c565b939692955090935050565b600181811c908216806200049e57607f821691505b602082108103620004bd57634e487b7160e01b5f52602260045260245ffd5b50919050565b601f82111562000510575f81815260208120601f850160051c81016020861015620004eb5750805b601f850160051c820191505b818110156200050c57828155600101620004f7565b5050505b505050565b81516001600160401b0381111562000531576200053162000334565b620005498162000542845462000489565b84620004c3565b602080601f8311600181146200057f575f8415620005675750858301515b5f19600386901b1c1916600185901b1785556200050c565b5f85815260208120601f198616915b82811015620005af578886015182559484019460019091019084016200058e565b5085821015620005cd57878501515f19600388901b60f8161c191681555b5050505050600190811b01905550565b5f8251620005f081846020870162000348565b9190910192915050565b5f602082840312156200060b575f80fd5b5051919050565b60805160a05160c051614b0f620006cd5f395f818161089f015281816129ee01528181612a2b015281816138a1015281816138e001528181613a0201528181613a4201528181613b9d0152613bdd01525f50505f81816104c80152818161090701528181610f2501528181611d9701528181611e94015281816123c30152818161291701528181612b2b01528181612d3c015281816138520152818161393601528181613d8301528181613e3501526140260152614b0f5ff3fe608060405234801561000f575f80fd5b50600436106103ca575f3560e01c80638da5cb5b11610200578063c3b288641161011f578063d905777e116100b4578063e885581211610084578063e88558121461089a578063ecf70858146108c1578063ef8b30f7146108ca578063f2fde38b146108dd578063f6c00db9146108f0575f80fd5b8063d905777e14610834578063d9aba11114610847578063dc24fc071461085a578063dd62ed3e14610862575f80fd5b8063ce96cb77116100ef578063ce96cb77146107e8578063d3f6b598146107fb578063d80ea5a01461080e578063d823a72e14610821575f80fd5b8063c3b28864146107a7578063c63d75b6146107af578063c6e6f592146107c2578063c9411e22146107d5575f80fd5b8063ac8a584a11610195578063b460af9411610165578063b460af941461075b578063b53d09581461076e578063ba08765214610781578063bdc8144b14610794575f80fd5b8063ac8a584a14610724578063acd17d5d14610737578063af56b69f1461073f578063b3d7f6b914610748575f80fd5b80639870d7fe116101d05780639870d7fe146106bb578063a267526b146106ce578063a3603bca146106e1578063a9059cbb14610711575f80fd5b80638da5cb5b1461067c5780638fcc9cfb1461068d57806394bf804d146106a057806395d89b41146106b3575f80fd5b8063402d267d116102ec5780635c975abb1161028157806370a082311161025157806370a082311461063b578063715018a6146106635780637b320da61461066b5780638456cb5914610674575f80fd5b80635c975abb1461060a5780636bbf758d146105875780636e553f65146106155780637085170314610628575f80fd5b80634cdad506116102bc5780634cdad506146105af5780634e423181146105c257806354192ad5146105d5578063587436e4146105f5575f80fd5b8063402d267d146105745780634082fa9b1461058757806341826c2d1461058f57806341b3d185146105a6575f80fd5b806323b872dd1161036257806338f0ede91161033257806338f0ede91461050057806339ebf823146105085780633ede66f7146105635780633f4ba83a1461056c575f80fd5b806323b872dd146104865780632a058cac14610499578063313ce567146104ac57806338d52e0f146104c6575f80fd5b80630a28a4771161039d5780630a28a4771461043457806313e7c9d814610447578063175188e81461046957806318160ddd1461047e575f80fd5b806301e1d114146103ce57806306fdde03146103e957806307a2d13a146103fe578063095ea7b314610411575b5f80fd5b6103d6610903565b6040519081526020015b60405180910390f35b6103f1610a9a565b6040516103e091906143dd565b6103d661040c366004614428565b610b2a565b61042461041f366004614453565b610b3b565b60405190151581526020016103e0565b6103d6610442366004614428565b610b52565b61042461045536600461447d565b60096020525f908152604090205460ff1681565b61047c61047736600461447d565b610b8c565b005b6002546103d6565b610424610494366004614498565b610de9565b61047c6104a736600461447d565b610e0e565b6104b4610f22565b60405160ff90911681526020016103e0565b7f00000000000000000000000000000000000000000000000000000000000000005b6040516001600160a01b0390911681526020016103e0565b6103d6610fa8565b61055261051636600461447d565b600c6020525f9081526040902080546001820154600283015460038401546004909401546001600160a01b0390931693919260ff909116919085565b6040516103e095949392919061450a565b6103d6600e5481565b61047c611011565b6103d661058236600461447d565b611023565b6103d6601481565b610597611066565b6040516103e0939291906145b1565b6103d6600a5481565b6103d66105bd366004614428565b61140a565b61047c6105d0366004614428565b61143c565b6105e86105e336600461447d565b6114d5565b6040516103e091906145f3565b6105fd6115be565b6040516103e0919061463c565b60075460ff16610424565b6103d661062336600461464e565b611772565b61047c610636366004614453565b6117e3565b6103d661064936600461447d565b6001600160a01b03165f9081526020819052604090205490565b61047c611925565b6103d660085481565b61047c611936565b6005546001600160a01b03166104e8565b61047c61069b366004614428565b611946565b6103d66106ae36600461464e565b6119d9565b6103f1611a57565b61047c6106c936600461447d565b611a66565b6104e86106dc366004614428565b611b0f565b6106e9611b37565b604080519586526020860194909452928401919091526060830152608082015260a0016103e0565b61042461071f366004614453565b611b88565b61047c61073236600461447d565b611b95565b6103d6611be5565b6103d6600f5481565b6103d6610756366004614428565b611c08565b6103d661076936600461467c565b611c38565b61047c61077c366004614453565b611c60565b6103d661078f36600461467c565b612092565b61047c6107a2366004614428565b6120ae565b6105fd61213a565b6103d66107bd36600461447d565b612199565b6103d66107d0366004614428565b6121e9565b61047c6107e3366004614453565b6121f4565b6103d66107f636600461447d565b612588565b61047c61080936600461447d565b6125aa565b61047c61081c36600461447d565b6126c6565b61047c61082f366004614428565b612778565b6103d661084236600461447d565b612806565b61047c61085536600461447d565b612823565b6103d6612b28565b6103d66108703660046146bb565b6001600160a01b039182165f90815260016020908152604080832093909416825291909152205490565b6104e87f000000000000000000000000000000000000000000000000000000000000000081565b6103d6600b5481565b6103d66108d8366004614428565b612bb2565b61047c6108eb36600461447d565b612be4565b61047c6108fe366004614453565b612c21565b5f807f00000000000000000000000000000000000000000000000000000000000000006040516370a0823160e01b81523060048201526001600160a01b0391909116906370a0823190602401602060405180830381865afa15801561096a573d5f803e3d5ffd5b505050506040513d601f19601f8201168201806040525081019061098e91906146e7565b90505f5b600d54811015610a94575f600d82815481106109b0576109b06146fe565b5f9182526020808320909101546001600160a01b0316808352600c90915260409091209091506001600282015460ff1660038111156109f1576109f16144d6565b146109fd575050610a82565b816001600160a01b03166301e1d1146040518163ffffffff1660e01b8152600401602060405180830381865afa925050508015610a57575060408051601f3d908101601f19168201909252610a54918101906146e7565b60015b610a71576003810154610a6a9085614726565b9350610a7f565b610a7b8186614726565b9450505b50505b80610a8c81614739565b915050610992565b50919050565b606060038054610aa990614751565b80601f0160208091040260200160405190810160405280929190818152602001828054610ad590614751565b8015610b205780601f10610af757610100808354040283529160200191610b20565b820191905f5260205f20905b815481529060010190602001808311610b0357829003601f168201915b5050505050905090565b5f610b35825f613151565b92915050565b5f33610b48818585613189565b5060019392505050565b5f80612710610b62601485614783565b610b6c91906147ae565b90505f610b798285614726565b9050610b848161319b565b949350505050565b610b946131a7565b6001600160a01b038181165f908152600c602052604090205416610bd35760405162461bcd60e51b8152600401610bca906147c1565b60405180910390fd5b6001600160a01b0381165f908152600c602052604090206003015415610c3b5760405162461bcd60e51b815260206004820152601860248201527f5374726174656779207374696c6c206861732066756e647300000000000000006044820152606401610bca565b6001600160a01b0381165f908152600c6020526040812060010154600e805491929091610c699084906147f8565b90915550506001600160a01b0381165f908152600c6020526040812080546001600160a01b03191681556001810182905560028101805460ff19169055600381018290556004018190555b600d54811015610db257816001600160a01b0316600d8281548110610cdb57610cdb6146fe565b5f918252602090912001546001600160a01b031603610da057600d8054610d04906001906147f8565b81548110610d1457610d146146fe565b5f91825260209091200154600d80546001600160a01b039092169183908110610d3f57610d3f6146fe565b905f5260205f20015f6101000a8154816001600160a01b0302191690836001600160a01b03160217905550600d805480610d7b57610d7b61480b565b5f8281526020902081015f1990810180546001600160a01b0319169055019055610db2565b80610daa81614739565b915050610cb4565b506040516001600160a01b038216907f09a1db4b80c32706328728508c941a6b954f31eb5affd32f236c1fd405f8fea4905f90a250565b5f33610df68582856131d4565b610e0185858561323d565b60019150505b9392505050565b610e166131a7565b6001600160a01b038181165f908152600c602052604090205416610e4c5760405162461bcd60e51b8152600401610bca906147c1565b60026001600160a01b0382165f908152600c602052604090206002015460ff166003811115610e7d57610e7d6144d6565b14610ec05760405162461bcd60e51b815260206004820152601360248201527214dd1c985d1959de481b9bdd081c185d5cd959606a1b6044820152606401610bca565b6001600160a01b0381165f818152600c602052604090819020600201805460ff1916600190811790915590517f71e4d9fadf21bb369876cebbd9192d4d84150c2fb6d208d5d68d6fbdf0aabf7691610f179161481f565b60405180910390a250565b5f7f00000000000000000000000000000000000000000000000000000000000000006001600160a01b031663313ce5676040518163ffffffff1660e01b8152600401602060405180830381865afa158015610f7f573d5f803e3d5ffd5b505050506040513d601f19601f82011682018060405250810190610fa3919061482d565b905090565b5f80805b600d54811015610a9457600c5f600d8381548110610fcc57610fcc6146fe565b5f9182526020808320909101546001600160a01b03168352820192909252604001902060030154610ffd9083614726565b91508061100981614739565b915050610fac565b6110196131a7565b61102161329a565b565b5f61103060075460ff1690565b1561103c57505f919050565b5f611045610903565b9050600b54811061105857505f92915050565b80600b54610e0791906147f8565b60608060605f611074610903565b600d54909150611085816001614726565b67ffffffffffffffff81111561109d5761109d61484d565b6040519080825280602002602001820160405280156110c6578160200160208202803683370190505b5094506110d4816001614726565b67ffffffffffffffff8111156110ec576110ec61484d565b604051908082528060200260200182016040528015611115578160200160208202803683370190505b509350611123816001614726565b67ffffffffffffffff81111561113b5761113b61484d565b604051908082528060200260200182016040528015611164578160200160208202803683370190505b5092505f855f8151811061117a5761117a6146fe565b6001600160a01b039092166020928302919091019091015281156111d657816111a1612b28565b6111ad90612710614783565b6111b791906147ae565b845f815181106111c9576111c96146fe565b6020026020010181815250505b600f54835f815181106111eb576111eb6146fe565b6020026020010181815250505f5b81811015611402575f600d8281548110611215576112156146fe565b5f918252602090912001546001600160a01b031690508087611238846001614726565b81518110611248576112486146fe565b60200260200101906001600160a01b031690816001600160a01b0316815250505f841180156112a5575060016001600160a01b0382165f908152600c602052604090206002015460ff1660038111156112a3576112a36144d6565b145b156113a957806001600160a01b03166301e1d1146040518163ffffffff1660e01b8152600401602060405180830381865afa925050508015611304575060408051601f3d908101601f19168201909252611301918101906146e7565b60015b611368576001600160a01b0381165f908152600c6020526040902060030154849061133190612710614783565b61133b91906147ae565b86611347846001614726565b81518110611357576113576146fe565b6020026020010181815250506113a9565b8461137582612710614783565b61137f91906147ae565b8761138b856001614726565b8151811061139b5761139b6146fe565b602002602001018181525050505b6001600160a01b0381165f908152600c602052604090206001908101549086906113d4908590614726565b815181106113e4576113e46146fe565b602090810291909101015250806113fa81614739565b9150506111f9565b505050909192565b5f8061141583610b2a565b90505f612710611426601484614783565b61143091906147ae565b9050610b8481836147f8565b6114446131a7565b6127108111156114665760405162461bcd60e51b8152600401610bca90614861565b5f81600e546114759190614726565b90506127108111156114995760405162461bcd60e51b8152600401610bca90614898565b600f8290556040518281527f25d100bf71ce70005705f0f63e93ddd517f408c8fad360538d0ae1f2204029a89060200160405180910390a15050565b6115046040805160a0810182525f80825260208201819052909182019081526020015f81526020015f81525090565b6001600160a01b038281165f908152600c60205260409020541661153a5760405162461bcd60e51b8152600401610bca906147c1565b6001600160a01b038083165f908152600c6020908152604091829020825160a081018452815490941684526001810154918401919091526002810154909183019060ff16600381111561158f5761158f6144d6565b60038111156115a0576115a06144d6565b81526003820154602082015260049091015460409091015292915050565b60605f805b600d54811015611645576001600c5f600d84815481106115e5576115e56146fe565b5f9182526020808320909101546001600160a01b0316835282019290925260400190206002015460ff166003811115611620576116206144d6565b03611633578161162f81614739565b9250505b8061163d81614739565b9150506115c3565b505f8167ffffffffffffffff8111156116605761166061484d565b604051908082528060200260200182016040528015611689578160200160208202803683370190505b5090505f805b600d54811015611769576001600c5f600d84815481106116b1576116b16146fe565b5f9182526020808320909101546001600160a01b0316835282019290925260400190206002015460ff1660038111156116ec576116ec6144d6565b0361175757600d8181548110611704576117046146fe565b905f5260205f20015f9054906101000a90046001600160a01b0316838381518110611731576117316146fe565b6001600160a01b03909216602092830291909101909101528161175381614739565b9250505b8061176181614739565b91505061168f565b50909392505050565b5f61177b6132ec565b611783613316565b600a548310156117cd5760405162461bcd60e51b815260206004820152601560248201527410995b1bddc81b5a5b9a5b5d5b4819195c1bdcda5d605a1b6044820152606401610bca565b6117d7838361333a565b9050610b356001600655565b6117eb6131a7565b6001600160a01b038281165f908152600c6020526040902054166118215760405162461bcd60e51b8152600401610bca906147c1565b6127108111156118435760405162461bcd60e51b8152600401610bca90614861565b6001600160a01b0382165f908152600c6020526040812060010154600f54600e5491929184906118749085906147f8565b61187e9190614726565b6118889190614726565b90506127108111156118ac5760405162461bcd60e51b8152600401610bca90614898565b8282600e546118bb91906147f8565b6118c59190614726565b600e556001600160a01b0384165f818152600c602052604090819020600101859055517feda1127dbe257a768246136b79de9d901a2a66b37e0197435f9b4c2e499095c4906119179086815260200190565b60405180910390a250505050565b61192d6131a7565b6110215f613386565b61193e6131a7565b6110216133d7565b61194e6131a7565b5f811161199d5760405162461bcd60e51b815260206004820152601c60248201527f4d696e206465706f736974206d75737420626520706f736974697665000000006044820152606401610bca565b600a8190556040518181527f96a008f96f1c0ab9fa3d9ddd43cdfc614848c4d054d51f43662ed900e9d094c8906020015b60405180910390a150565b5f6119e26132ec565b6119ea613316565b5f6119f484611c08565b9050600a54811015611a405760405162461bcd60e51b815260206004820152601560248201527410995b1bddc81b5a5b9a5b5d5b4819195c1bdcda5d605a1b6044820152606401610bca565b611a4a8484613414565b915050610b356001600655565b606060048054610aa990614751565b611a6e6131a7565b6001600160a01b038116611ac45760405162461bcd60e51b815260206004820152601860248201527f496e76616c6964206f70657261746f72206164647265737300000000000000006044820152606401610bca565b6001600160a01b0381165f81815260096020526040808220805460ff19166001179055517fac6fa858e9350a46cec16539926e0fde25b7629f84b5a72bffaae4df888ae86d9190a250565b600d8181548110611b1e575f80fd5b5f918252602090912001546001600160a01b0316905081565b5f805f805f611b44612b28565b9450611b4e611be5565b9350600f54905083851015611b7157611b6785856147f8565b92505f9150611b81565b5f9250611b7e84866147f8565b91505b9091929394565b5f33610b4881858561323d565b611b9d6131a7565b6001600160a01b0381165f81815260096020526040808220805460ff19169055517f80c0b871b97b595b16a7741c1b06fed0c6f6f558639f18ccbce50724325dc40d9190a250565b5f612710600f54611bf4610903565b611bfe9190614783565b610fa391906147ae565b5f80611c1383613460565b9050611c2260146127106147f8565b611c2e82612710614783565b610e0791906147ae565b5f611c416132ec565b611c49613316565b611c5484848461346c565b9050610e076001600655565b335f9081526009602052604090205460ff1680611c8757506005546001600160a01b031633145b611ca35760405162461bcd60e51b8152600401610bca906148cf565b611cab6132ec565b6001600160a01b038281165f908152600c602052604090205416611ce15760405162461bcd60e51b8152600401610bca906147c1565b5f8111611d2a5760405162461bcd60e51b8152602060048201526017602482015276416d6f756e74206d75737420626520706f73697469766560481b6044820152606401610bca565b6001600160a01b0382165f908152600c6020526040902060030154811115611d945760405162461bcd60e51b815260206004820152601960248201527f57697468647261772065786365656473206465706c6f796564000000000000006044820152606401610bca565b5f7f00000000000000000000000000000000000000000000000000000000000000006040516370a0823160e01b81523060048201526001600160a01b0391909116906370a0823190602401602060405180830381865afa158015611dfa573d5f803e3d5ffd5b505050506040513d601f19601f82011682018060405250810190611e1e91906146e7565b604051627b8a6760e11b8152600481018490523060248201529091505f906001600160a01b0385169062f714ce906044016020604051808303815f875af1158015611e6b573d5f803e3d5ffd5b505050506040513d601f19601f82011682018060405250810190611e8f91906146e7565b90505f7f00000000000000000000000000000000000000000000000000000000000000006040516370a0823160e01b81523060048201526001600160a01b0391909116906370a0823190602401602060405180830381865afa158015611ef7573d5f803e3d5ffd5b505050506040513d601f19601f82011682018060405250810190611f1b91906146e7565b905082811015611f6d5760405162461bcd60e51b815260206004820152601760248201527f5661756c742062616c616e6365206465637265617365640000000000000000006044820152606401610bca565b5f611f7884836147f8565b90505f8111611fc95760405162461bcd60e51b815260206004820152601f60248201527f4e6f2066756e64732072656365697665642066726f6d207374726174656779006044820152606401610bca565b6001600160a01b0386165f908152600c6020526040902060030154811161201f576001600160a01b0386165f908152600c6020526040812060030180548392906120149084906147f8565b9091555061203b9050565b6001600160a01b0386165f908152600c60205260408120600301555b60408051868152602081018590526001600160a01b038816917f490dfb4ce52333704763aee75edba596ceaab548bccafc900f79c2b9f6381b0891015b60405180910390a25050505061208e6001600655565b5050565b5f61209b6132ec565b6120a3613316565b611c548484846134c2565b6120b66131a7565b5f81116121055760405162461bcd60e51b815260206004820152601e60248201527f4465706f736974206c696d6974206d75737420626520706f73697469766500006044820152606401610bca565b600b8190556040518181527fc512617347fd848ec9d7347c99c10e4fa7059132c92d0445930a7fb0c8252ff5906020016119ce565b6060600d805480602002602001604051908101604052809291908181526020018280548015610b2057602002820191905f5260205f20905b81546001600160a01b03168152600190910190602001808311612172575050505050905090565b5f6121a660075460ff1690565b156121b257505f919050565b5f6121bb610903565b9050600b5481106121ce57505f92915050565b5f81600b546121dd91906147f8565b9050610b84815f61350f565b5f610b35825f61350f565b6121fc6131a7565b6001600160a01b0382166122525760405162461bcd60e51b815260206004820152601860248201527f496e76616c6964207374726174656779206164647265737300000000000000006044820152606401610bca565b6001600160a01b038281165f908152600c602052604090205416156122b95760405162461bcd60e51b815260206004820152601760248201527f537472617465677920616c7265616479206578697374730000000000000000006044820152606401610bca565b6127108111156122db5760405162461bcd60e51b8152600401610bca90614861565b5f600f5482600e546122ed9190614726565b6122f79190614726565b905061271081111561231b5760405162461bcd60e51b8152600401610bca90614898565b826001600160a01b03166338d52e0f6040518163ffffffff1660e01b8152600401602060405180830381865afa925050508015612375575060408051601f3d908101601f19168201909252612372918101906148f7565b60015b6123c15760405162461bcd60e51b815260206004820152601960248201527f496e76616c696420737472617465677920636f6e7472616374000000000000006044820152606401610bca565b7f00000000000000000000000000000000000000000000000000000000000000006001600160a01b0316816001600160a01b0316146124425760405162461bcd60e51b815260206004820152601760248201527f5374726174656779206173736574206d69736d617463680000000000000000006044820152606401610bca565b506040805160a0810182526001600160a01b0385811680835260208084018781525f85870181815260608701829052426080880152938152600c909252949020835181546001600160a01b031916931692909217825592516001808301919091559251600282018054939492939192909160ff1916908360038111156124ca576124ca6144d6565b021790555060608201516003820155608090910151600490910155600d80546001810182555f9182527fd7b6990105719101dabeb77144f2a3385c8033acd3af97e9423a695e81ad1eb50180546001600160a01b0319166001600160a01b038616179055600e8054849290612540908490614726565b90915550506040518281526001600160a01b038416907f2f564a83158ad1831793ad3e69257b52f39ece5d49cb0d8746708ecb9ef964da9060200160405180910390a2505050565b6001600160a01b0381165f90815260208190526040812054610b35905f613151565b335f9081526009602052604090205460ff16806125d157506005546001600160a01b031633145b6125ed5760405162461bcd60e51b8152600401610bca906148cf565b6001600160a01b038181165f908152600c6020526040902054166126235760405162461bcd60e51b8152600401610bca906147c1565b60016001600160a01b0382165f908152600c602052604090206002015460ff166003811115612654576126546144d6565b146126715760405162461bcd60e51b8152600401610bca90614912565b6001600160a01b0381165f818152600c6020526040908190206002908101805460ff19168217905590517f71e4d9fadf21bb369876cebbd9192d4d84150c2fb6d208d5d68d6fbdf0aabf7691610f179161481f565b6126ce6131a7565b6001600160a01b038181165f908152600c6020526040902054166127045760405162461bcd60e51b8152600401610bca906147c1565b6001600160a01b0381165f908152600c602052604081206002015460ff166003811115612733576127336144d6565b14610ec05760405162461bcd60e51b81526020600482015260156024820152745374726174656779206e6f7420696e61637469766560581b6044820152606401610bca565b6127806131a7565b60648111156127d15760405162461bcd60e51b815260206004820152601a60248201527f5969656c64206665652063616e6e6f74206578636565642031250000000000006044820152606401610bca565b60088190556040518181527f54c0c8fda5359e8d65b518fb6ab2ec65baa3f117413529440640475e1e4ca2bd906020016119ce565b6001600160a01b0381165f90815260208190526040812054610b35565b6001600160a01b038181165f908152600c6020526040902054166128595760405162461bcd60e51b8152600401610bca906147c1565b60016001600160a01b0382165f908152600c602052604090206002015460ff16600381111561288a5761288a6144d6565b146128a75760405162461bcd60e51b8152600401610bca90614912565b5f805f836001600160a01b0316632606a10b6040518163ffffffff1660e01b81526004016060604051808303815f875af11580156128e7573d5f803e3d5ffd5b505050506040513d601f19601f8201168201806040525081019061290b919061493f565b9250925092505f6129397f000000000000000000000000000000000000000000000000000000000000000090565b90505f8411801561294b57505f600854115b15612aa3575f612710600854866129629190614783565b61296c91906147ae565b604051627b8a6760e11b8152600481018290523060248201529091505f906001600160a01b0388169062f714ce906044016020604051808303815f875af11580156129b9573d5f803e3d5ffd5b505050506040513d601f19601f820116820180604052508101906129dd91906146e7565b9050612a136001600160a01b0384167f00000000000000000000000000000000000000000000000000000000000000008361353e565b604051641e5a595b1960da1b81526001600160a01b037f00000000000000000000000000000000000000000000000000000000000000001690600501604051908190038120838252905f80516020614aba8339815191529060200160405180910390a3612a8081856147f8565b6001600160a01b0388165f908152600c602052604090206003015550612ac19050565b6001600160a01b0385165f908152600c602052604090206003018290555b6001600160a01b0385165f818152600c60209081526040918290204260048201556003015482518881529182018790528183015290517f6fbdf847c78f04eac7a7a77e1073af6eeec604ee0b495240579dccf57fcf2d889181900360600190a25050505050565b5f7f00000000000000000000000000000000000000000000000000000000000000006040516370a0823160e01b81523060048201526001600160a01b0391909116906370a0823190602401602060405180830381865afa158015612b8e573d5f803e3d5ffd5b505050506040513d601f19601f82011682018060405250810190610fa391906146e7565b5f80612710612bc2601485614783565b612bcc91906147ae565b90505f612bd982856147f8565b9050610b84816121e9565b612bec6131a7565b6001600160a01b038116612c1557604051631e4fbdf760e01b81525f6004820152602401610bca565b612c1e81613386565b50565b335f9081526009602052604090205460ff1680612c4857506005546001600160a01b031633145b612c645760405162461bcd60e51b8152600401610bca906148cf565b612c6c6132ec565b6001600160a01b038281165f908152600c602052604090205416612ca25760405162461bcd60e51b8152600401610bca906147c1565b60016001600160a01b0383165f908152600c602052604090206002015460ff166003811115612cd357612cd36144d6565b14612cf05760405162461bcd60e51b8152600401610bca90614912565b5f8111612d395760405162461bcd60e51b8152602060048201526017602482015276416d6f756e74206d75737420626520706f73697469766560481b6044820152606401610bca565b5f7f00000000000000000000000000000000000000000000000000000000000000006040516370a0823160e01b81523060048201529091505f906001600160a01b038316906370a0823190602401602060405180830381865afa158015612da2573d5f803e3d5ffd5b505050506040513d601f19601f82011682018060405250810190612dc691906146e7565b905082811015612e185760405162461bcd60e51b815260206004820152601a60248201527f496e73756666696369656e74207661756c742062616c616e63650000000000006044820152606401610bca565b60405163095ea7b360e01b81526001600160a01b0385811660048301526024820185905283169063095ea7b3906044016020604051808303815f875af1158015612e64573d5f803e3d5ffd5b505050506040513d601f19601f82011682018060405250810190612e88919061496a565b5060405163a5e3875160e01b8152600481018490526001600160a01b0385169063a5e38751906024015f604051808303815f87803b158015612ec8575f80fd5b505af1158015612eda573d5f803e3d5ffd5b50506040516370a0823160e01b81523060048201525f92506001600160a01b03851691506370a0823190602401602060405180830381865afa158015612f22573d5f803e3d5ffd5b505050506040513d601f19601f82011682018060405250810190612f4691906146e7565b90505f612f5382846147f8565b90505f8111612fa45760405162461bcd60e51b815260206004820152601b60248201527f537472617465677920646964206e6f742070756c6c2066756e647300000000006044820152606401610bca565b84811115612fff5760405162461bcd60e51b815260206004820152602260248201527f53747261746567792070756c6c6564206d6f7265207468616e20617070726f76604482015261195960f21b6064820152608401610bca565b6001600160a01b0386165f908152600c602052604081206003018054839290613029908490614726565b9091555050604051636eb1769f60e11b81523060048201526001600160a01b0387811660248301525f919086169063dd62ed3e90604401602060405180830381865afa15801561307b573d5f803e3d5ffd5b505050506040513d601f19601f8201168201806040525081019061309f91906146e7565b11156131165760405163095ea7b360e01b81526001600160a01b0387811660048301525f602483015285169063095ea7b3906044016020604051808303815f875af11580156130f0573d5f803e3d5ffd5b505050506040513d601f19601f82011682018060405250810190613114919061496a565b505b856001600160a01b03167f118140c5f65d2d1239952f9fed523588c6b439a75344ee43cf01f74fbee5e41f8260405161207891815260200190565b5f610e0761315d610903565b613168906001614726565b6131735f600a614a69565b6002546131809190614726565b8591908561359d565b61319683838360016135df565b505050565b5f610b3582600161350f565b6005546001600160a01b031633146110215760405163118cdaa760e01b8152336004820152602401610bca565b6001600160a01b038381165f908152600160209081526040808320938616835292905220545f19811015613237578181101561322957828183604051637dc7a0d960e11b8152600401610bca93929190614a77565b61323784848484035f6135df565b50505050565b6001600160a01b03831661326657604051634b637e8f60e11b81525f6004820152602401610bca565b6001600160a01b03821661328f5760405163ec442f0560e01b81525f6004820152602401610bca565b6131968383836136b1565b6132a26137c4565b6007805460ff191690557f5db9ee0a495bf2e6ff9c91a7834c1ba4fdd244a5e8aa4e537bd38aeae4b073aa335b6040516001600160a01b03909116815260200160405180910390a1565b60026006540361330f57604051633ee5aeb560e01b815260040160405180910390fd5b6002600655565b60075460ff16156110215760405163d93c066560e01b815260040160405180910390fd5b5f8061334583611023565b90508084111561336e57828482604051633c8097d960e11b8152600401610bca93929190614a77565b5f61337885612bb2565b9050610b84338587846137e7565b600580546001600160a01b038381166001600160a01b0319831681179093556040519116919082907f8be0079c531659141344cd1fd0a4f28419497f9722a3daafe3b4186f6b6457e0905f90a35050565b6133df613316565b6007805460ff191660011790557f62e78cea01bee320cd4e420270b5ea74000d11b0c9f74754ebdbfc544b05a2586132cf3390565b5f8061341f83612199565b9050808411156134485782848260405163284ff66760e01b8152600401610bca93929190614a77565b5f61345285611c08565b9050610b84338583886137e7565b5f610b35826001613151565b5f8061347783612588565b9050808511156134a057828582604051633fa733bb60e21b8152600401610bca93929190614a77565b5f6134aa86610b52565b90506134b93386868985613934565b95945050505050565b5f806134cd83612806565b9050808511156134f657828582604051632e52afbb60e21b8152600401610bca93929190614a77565b5f6135008661140a565b90506134b9338686848a613934565b5f610e0761351e82600a614a69565b60025461352b9190614726565b613533610903565b613180906001614726565b6040516001600160a01b0383811660248301526044820183905261319691859182169063a9059cbb906064015b604051602081830303815290604052915060e01b6020820180516001600160e01b038381831617835250505050613c36565b5f6135ca6135aa83613ca2565b80156135c557505f84806135c0576135c061479a565b868809115b151590565b6135d5868686613cce565b6134b99190614726565b6001600160a01b0384166136085760405163e602df0560e01b81525f6004820152602401610bca565b6001600160a01b03831661363157604051634a1406b160e11b81525f6004820152602401610bca565b6001600160a01b038085165f908152600160209081526040808320938716835292905220829055801561323757826001600160a01b0316846001600160a01b03167f8c5be1e5ebec7d5bd14f71427d1e84f3dd0314c0f7b2291e5b200ac8c7c3b925846040516136a391815260200190565b60405180910390a350505050565b6001600160a01b0383166136db578060025f8282546136d09190614726565b909155506137389050565b6001600160a01b0383165f908152602081905260409020548181101561371a5783818360405163391434e360e21b8152600401610bca93929190614a77565b6001600160a01b0384165f9081526020819052604090209082900390555b6001600160a01b03821661375457600280548290039055613772565b6001600160a01b0382165f9081526020819052604090208054820190555b816001600160a01b0316836001600160a01b03167fddf252ad1be2c89b69c2b068fc378daa952ba7f163c4a11628f55a4df523b3ef836040516137b791815260200190565b60405180910390a3505050565b60075460ff1661102157604051638dfc202b60e01b815260040160405180910390fd5b600b54826137f3610903565b6137fd9190614726565b11156138445760405162461bcd60e51b815260206004820152601660248201527511195c1bdcda5d081b1a5b5a5d08195e18d95959195960521b6044820152606401610bca565b61385084848484613d7e565b7f00000000000000000000000000000000000000000000000000000000000000005f612710613880601486614783565b61388a91906147ae565b9050801561392c576138c66001600160a01b0383167f00000000000000000000000000000000000000000000000000000000000000008361353e565b6040516619195c1bdcda5d60ca1b81526001600160a01b037f00000000000000000000000000000000000000000000000000000000000000001690600701604051908190038120838252905f80516020614aba8339815191529060200160405180910390a35b505050505050565b7f00000000000000000000000000000000000000000000000000000000000000005f61395f83610b2a565b90505f61396c85836147f8565b6040516370a0823160e01b81523060048201529091505f906001600160a01b038516906370a0823190602401602060405180830381865afa1580156139b3573d5f803e3d5ffd5b505050506040513d601f19601f820116820180604052508101906139d791906146e7565b9050828110613a97576139ed8989898989613e02565b8115613a8e57613a276001600160a01b0385167f00000000000000000000000000000000000000000000000000000000000000008461353e565b60405167776974686472617760c01b81526001600160a01b037f00000000000000000000000000000000000000000000000000000000000000001690600801604051908190038120848252905f80516020614aba8339815191529060200160405180910390a35b50505050613c2f565b5f613aa282856147f8565b9050613aad81613ec2565b506040516370a0823160e01b815230600482015284906001600160a01b038716906370a0823190602401602060405180830381865afa158015613af2573d5f803e3d5ffd5b505050506040513d601f19601f82011682018060405250810190613b1691906146e7565b1015613b7b5760405162461bcd60e51b815260206004820152602e60248201527f496e73756666696369656e74206c697175696469747920696e207661756c742060448201526d616e64207374726174656769657360901b6064820152608401610bca565b613b888a8a8a8a8a613e02565b8215613c2957613bc26001600160a01b0386167f00000000000000000000000000000000000000000000000000000000000000008561353e565b60405167776974686472617760c01b81526001600160a01b037f00000000000000000000000000000000000000000000000000000000000000001690600801604051908190038120858252905f80516020614aba8339815191529060200160405180910390a35b50505050505b5050505050565b5f8060205f8451602086015f885af180613c55576040513d5f823e3d81fd5b50505f513d91508115613c6c578060011415613c79565b6001600160a01b0384163b155b1561323757604051635274afe760e01b81526001600160a01b0385166004820152602401610bca565b5f6002826003811115613cb757613cb76144d6565b613cc19190614a98565b60ff166001149050919050565b5f805f613cdb868661430f565b91509150815f03613cff57838181613cf557613cf561479a565b0492505050610e07565b818411613d1657613d16600385150260111861432b565b5f848688095f868103871696879004966002600389028118808a02820302808a02820302808a02820302808a02820302808a02820302808a02909103029181900381900460010185841190960395909502919093039390930492909217029150509392505050565b613daa7f000000000000000000000000000000000000000000000000000000000000000085308561433c565b613db48382614375565b826001600160a01b0316846001600160a01b03167fdcbc1c05240f31ff3ad067ef1ee35ce4997762752e3a095284754544f4c709d784846040516136a3929190918252602082015260400190565b826001600160a01b0316856001600160a01b031614613e2657613e268386836131d4565b613e3083826143a9565b613e5b7f0000000000000000000000000000000000000000000000000000000000000000858461353e565b826001600160a01b0316846001600160a01b0316866001600160a01b03167ffbde797d201c681b91056529119e0b02407c7bb96a4a2c75c01fc9667232c8db8585604051613eb3929190918252602082015260400190565b60405180910390a45050505050565b600d545f908190819067ffffffffffffffff811115613ee357613ee361484d565b604051908082528060200260200182016040528015613f0c578160200160208202803683370190505b5090505f805b600d54811015614007575f600d8281548110613f3057613f306146fe565b5f9182526020808320909101546001600160a01b0316808352600c90915260409091209091506001600282015460ff166003811115613f7157613f716144d6565b1480613f94575060028082015460ff166003811115613f9257613f926144d6565b145b8015613fa357505f8160030154115b15613ff2576003810154613fb79087614726565b955081858581518110613fcc57613fcc6146fe565b6001600160a01b039092166020928302919091019091015283613fee81614739565b9450505b50508080613fff90614739565b915050613f12565b50821580614013575080155b1561402257505f949350505050565b5f857f0000000000000000000000000000000000000000000000000000000000000000825b84811015614302575f868281518110614062576140626146fe565b6020908102919091018101516001600160a01b0381165f908152600c90925260408220909250906140946001896147f8565b84036140a15750846140bf565b898c83600301546140b29190614783565b6140bc91906147ae565b90505b81600301548111156140d2575060038101545b8015806140dd575085155b156140ea575050506142f0565b6040516370a0823160e01b81523060048201525f906001600160a01b038716906370a0823190602401602060405180830381865afa15801561412e573d5f803e3d5ffd5b505050506040513d601f19601f8201168201806040525081019061415291906146e7565b604051627b8a6760e11b8152600481018490523060248201529091506001600160a01b0385169062f714ce906044016020604051808303815f875af19250505080156141bb575060408051601f3d908101601f191682019092526141b8918101906146e7565b60015b6141c857505050506142f0565b6040516370a0823160e01b81523060048201525f906001600160a01b038916906370a0823190602401602060405180830381865afa15801561420c573d5f803e3d5ffd5b505050506040513d601f19601f8201168201806040525081019061423091906146e7565b9050828111156142e9575f61424584836147f8565b9050808660030154106142705780866003015f82825461426591906147f8565b909155506142779050565b5f60038701555b614281818c614726565b9a505f8a8210614291578a614293565b815b905061429f818c6147f8565b6040805188815260208101879052919c506001600160a01b038a16917f490dfb4ce52333704763aee75edba596ceaab548bccafc900f79c2b9f6381b08910160405180910390a250505b5050505050505b806142fa81614739565b915050614047565b5091979650505050505050565b5f805f1983850993909202808410938190039390930393915050565b634e487b715f52806020526024601cfd5b6040516001600160a01b0384811660248301528381166044830152606482018390526132379186918216906323b872dd9060840161356b565b6001600160a01b03821661439e5760405163ec442f0560e01b81525f6004820152602401610bca565b61208e5f83836136b1565b6001600160a01b0382166143d257604051634b637e8f60e11b81525f6004820152602401610bca565b61208e825f836136b1565b5f6020808352835180828501525f5b81811015614408578581018301518582016040015282016143ec565b505f604082860101526040601f19601f8301168501019250505092915050565b5f60208284031215614438575f80fd5b5035919050565b6001600160a01b0381168114612c1e575f80fd5b5f8060408385031215614464575f80fd5b823561446f8161443f565b946020939093013593505050565b5f6020828403121561448d575f80fd5b8135610e078161443f565b5f805f606084860312156144aa575f80fd5b83356144b58161443f565b925060208401356144c58161443f565b929592945050506040919091013590565b634e487b7160e01b5f52602160045260245ffd5b6004811061450657634e487b7160e01b5f52602160045260245ffd5b9052565b6001600160a01b03861681526020810185905260a0810161452e60408301866144ea565b6060820193909352608001529392505050565b5f8151808452602080850194508084015f5b838110156145785781516001600160a01b031687529582019590820190600101614553565b509495945050505050565b5f8151808452602080850194508084015f5b8381101561457857815187529582019590820190600101614595565b606081525f6145c36060830186614541565b82810360208401526145d58186614583565b905082810360408401526145e98185614583565b9695505050505050565b81516001600160a01b031681526020808301519082015260408083015160a0830191614621908401826144ea565b50606083015160608301526080830151608083015292915050565b602081525f610e076020830184614541565b5f806040838503121561465f575f80fd5b8235915060208301356146718161443f565b809150509250929050565b5f805f6060848603121561468e575f80fd5b8335925060208401356146a08161443f565b915060408401356146b08161443f565b809150509250925092565b5f80604083850312156146cc575f80fd5b82356146d78161443f565b915060208301356146718161443f565b5f602082840312156146f7575f80fd5b5051919050565b634e487b7160e01b5f52603260045260245ffd5b634e487b7160e01b5f52601160045260245ffd5b80820180821115610b3557610b35614712565b5f6001820161474a5761474a614712565b5060010190565b600181811c9082168061476557607f821691505b602082108103610a9457634e487b7160e01b5f52602260045260245ffd5b8082028115828204841417610b3557610b35614712565b634e487b7160e01b5f52601260045260245ffd5b5f826147bc576147bc61479a565b500490565b60208082526017908201527f537472617465677920646f6573206e6f74206578697374000000000000000000604082015260600190565b81810381811115610b3557610b35614712565b634e487b7160e01b5f52603160045260245ffd5b60208101610b3582846144ea565b5f6020828403121561483d575f80fd5b815160ff81168114610e07575f80fd5b634e487b7160e01b5f52604160045260245ffd5b60208082526019908201527f5461726765742063616e6e6f7420657863656564203130302500000000000000604082015260600190565b60208082526019908201527f546f74616c207461726765747320657863656564203130302500000000000000604082015260600190565b6020808252600e908201526d139bdd08185d5d1a1bdc9a5e995960921b604082015260600190565b5f60208284031215614907575f80fd5b8151610e078161443f565b6020808252601390820152725374726174656779206e6f742061637469766560681b604082015260600190565b5f805f60608486031215614951575f80fd5b8351925060208401519150604084015190509250925092565b5f6020828403121561497a575f80fd5b81518015158114610e07575f80fd5b600181815b808511156149c357815f19048211156149a9576149a9614712565b808516156149b657918102915b93841c939080029061498e565b509250929050565b5f826149d957506001610b35565b816149e557505f610b35565b81600181146149fb5760028114614a0557614a21565b6001915050610b35565b60ff841115614a1657614a16614712565b50506001821b610b35565b5060208310610133831016604e8410600b8410161715614a44575081810a610b35565b614a4e8383614989565b805f1904821115614a6157614a61614712565b029392505050565b5f610e0760ff8416836149cb565b6001600160a01b039390931683526020830191909152604082015260600190565b5f60ff831680614aaa57614aaa61479a565b8060ff8416069150509291505056fec97e37a3ee882461168e30abda52997d9f4a6bf67a405b01c1a39a5cdeb3f0dfa2646970667358221220970d9cbc3b7227dda34cd6584334f0fd9dbbf531f10b07fd89f0ae86452521e764736f6c63430008140033","opcodes":"PUSH1 0xE0 PUSH1 0x40 MSTORE PUSH1 0xA PUSH1 0x8 SSTORE PUSH2 0x2710 PUSH1 0xA SSTORE PUSH5 0xE8D4A51000 PUSH1 0xB SSTORE PUSH2 0x3E8 PUSH1 0xF SSTORE CALLVALUE DUP1 ISZERO PUSH3 0x2A JUMPI PUSH0 DUP1 REVERT JUMPDEST POP PUSH1 0x40 MLOAD PUSH3 0x51DC CODESIZE SUB DUP1 PUSH3 0x51DC DUP4 CODECOPY DUP2 ADD PUSH1 0x40 DUP2 SWAP1 MSTORE PUSH3 0x4D SWAP2 PUSH3 0x3FA JUMP JUMPDEST CALLER DUP5 DUP5 DUP5 PUSH1 0x3 PUSH3 0x5F DUP4 DUP3 PUSH3 0x515 JUMP JUMPDEST POP PUSH1 0x4 PUSH3 0x6E DUP3 DUP3 PUSH3 0x515 JUMP JUMPDEST POP POP POP PUSH0 DUP1 PUSH3 0x84 DUP4 PUSH3 0x1EC PUSH1 0x20 SHL PUSH1 0x20 SHR JUMP JUMPDEST SWAP2 POP SWAP2 POP DUP2 PUSH3 0x96 JUMPI PUSH1 0x12 PUSH3 0x98 JUMP JUMPDEST DUP1 JUMPDEST PUSH1 0xFF AND PUSH1 0xA0 MSTORE POP POP PUSH1 0x1 PUSH1 0x1 PUSH1 0xA0 SHL SUB SWAP1 DUP2 AND PUSH1 0x80 MSTORE DUP2 AND PUSH3 0xD5 JUMPI PUSH1 0x40 MLOAD PUSH4 0x1E4FBDF7 PUSH1 0xE0 SHL DUP2 MSTORE PUSH0 PUSH1 0x4 DUP3 ADD MSTORE PUSH1 0x24 ADD JUMPDEST PUSH1 0x40 MLOAD DUP1 SWAP2 SUB SWAP1 REVERT JUMPDEST PUSH3 0xE0 DUP2 PUSH3 0x2CB JUMP JUMPDEST POP PUSH1 0x1 PUSH1 0x6 SSTORE PUSH1 0x1 PUSH1 0x1 PUSH1 0xA0 SHL SUB DUP5 AND PUSH3 0x13E JUMPI PUSH1 0x40 MLOAD PUSH3 0x461BCD PUSH1 0xE5 SHL DUP2 MSTORE PUSH1 0x20 PUSH1 0x4 DUP3 ADD MSTORE PUSH1 0x1A PUSH1 0x24 DUP3 ADD MSTORE PUSH32 0x496E76616C6964204658525020746F6B656E2061646472657373000000000000 PUSH1 0x44 DUP3 ADD MSTORE PUSH1 0x64 ADD PUSH3 0xCC JUMP JUMPDEST PUSH1 0x1 PUSH1 0x1 PUSH1 0xA0 SHL SUB DUP2 AND PUSH3 0x196 JUMPI PUSH1 0x40 MLOAD PUSH3 0x461BCD PUSH1 0xE5 SHL DUP2 MSTORE PUSH1 0x20 PUSH1 0x4 DUP3 ADD MSTORE PUSH1 0x1E PUSH1 0x24 DUP3 ADD MSTORE PUSH32 0x496E76616C696420726576656E756520726F7574657220616464726573730000 PUSH1 0x44 DUP3 ADD MSTORE PUSH1 0x64 ADD PUSH3 0xCC JUMP JUMPDEST PUSH1 0x1 PUSH1 0x1 PUSH1 0xA0 SHL SUB DUP2 AND PUSH1 0xC0 MSTORE CALLER PUSH0 DUP2 DUP2 MSTORE PUSH1 0x9 PUSH1 0x20 MSTORE PUSH1 0x40 DUP1 DUP3 KECCAK256 DUP1 SLOAD PUSH1 0xFF NOT AND PUSH1 0x1 OR SWAP1 SSTORE MLOAD PUSH32 0xAC6FA858E9350A46CEC16539926E0FDE25B7629F84B5A72BFFAAE4DF888AE86D SWAP2 SWAP1 LOG2 POP POP POP POP PUSH3 0x612 JUMP JUMPDEST PUSH1 0x40 DUP1 MLOAD PUSH1 0x4 DUP2 MSTORE PUSH1 0x24 DUP2 ADD DUP3 MSTORE PUSH1 0x20 DUP2 ADD DUP1 MLOAD PUSH1 0x1 PUSH1 0x1 PUSH1 0xE0 SHL SUB AND PUSH4 0x313CE567 PUSH1 0xE0 SHL OR SWAP1 MSTORE SWAP1 MLOAD PUSH0 SWAP2 DUP3 SWAP2 DUP3 SWAP2 DUP3 SWAP2 PUSH1 0x1 PUSH1 0x1 PUSH1 0xA0 SHL SUB DUP8 AND SWAP2 PUSH3 0x234 SWAP2 PUSH3 0x5DD JUMP JUMPDEST PUSH0 PUSH1 0x40 MLOAD DUP1 DUP4 SUB DUP2 DUP6 GAS STATICCALL SWAP2 POP POP RETURNDATASIZE DUP1 PUSH0 DUP2 EQ PUSH3 0x26E JUMPI PUSH1 0x40 MLOAD SWAP2 POP PUSH1 0x1F NOT PUSH1 0x3F RETURNDATASIZE ADD AND DUP3 ADD PUSH1 0x40 MSTORE RETURNDATASIZE DUP3 MSTORE RETURNDATASIZE PUSH0 PUSH1 0x20 DUP5 ADD RETURNDATACOPY PUSH3 0x273 JUMP JUMPDEST PUSH1 0x60 SWAP2 POP JUMPDEST POP SWAP2 POP SWAP2 POP DUP2 DUP1 ISZERO PUSH3 0x288 JUMPI POP PUSH1 0x20 DUP2 MLOAD LT ISZERO JUMPDEST ISZERO PUSH3 0x2BF JUMPI PUSH0 DUP2 DUP1 PUSH1 0x20 ADD SWAP1 MLOAD DUP2 ADD SWAP1 PUSH3 0x2A5 SWAP2 SWAP1 PUSH3 0x5FA JUMP JUMPDEST SWAP1 POP PUSH1 0xFF DUP2 GT PUSH3 0x2BD JUMPI PUSH1 0x1 SWAP7 SWAP1 SWAP6 POP SWAP4 POP POP POP POP JUMP JUMPDEST POP JUMPDEST POP PUSH0 SWAP5 DUP6 SWAP5 POP SWAP3 POP POP POP JUMP JUMPDEST PUSH1 0x5 DUP1 SLOAD PUSH1 0x1 PUSH1 0x1 PUSH1 0xA0 SHL SUB DUP4 DUP2 AND PUSH1 0x1 PUSH1 0x1 PUSH1 0xA0 SHL SUB NOT DUP4 AND DUP2 OR SWAP1 SWAP4 SSTORE PUSH1 0x40 MLOAD SWAP2 AND SWAP2 SWAP1 DUP3 SWAP1 PUSH32 0x8BE0079C531659141344CD1FD0A4F28419497F9722A3DAAFE3B4186F6B6457E0 SWAP1 PUSH0 SWAP1 LOG3 POP POP JUMP JUMPDEST PUSH1 0x1 PUSH1 0x1 PUSH1 0xA0 SHL SUB DUP2 AND DUP2 EQ PUSH3 0x331 JUMPI PUSH0 DUP1 REVERT JUMPDEST POP JUMP JUMPDEST PUSH4 0x4E487B71 PUSH1 0xE0 SHL PUSH0 MSTORE PUSH1 0x41 PUSH1 0x4 MSTORE PUSH1 0x24 PUSH0 REVERT JUMPDEST PUSH0 JUMPDEST DUP4 DUP2 LT ISZERO PUSH3 0x364 JUMPI DUP2 DUP2 ADD MLOAD DUP4 DUP3 ADD MSTORE PUSH1 0x20 ADD PUSH3 0x34A JUMP JUMPDEST POP POP PUSH0 SWAP2 ADD MSTORE JUMP JUMPDEST PUSH0 DUP3 PUSH1 0x1F DUP4 ADD SLT PUSH3 0x37C JUMPI PUSH0 DUP1 REVERT JUMPDEST DUP2 MLOAD PUSH1 0x1 PUSH1 0x1 PUSH1 0x40 SHL SUB DUP1 DUP3 GT ISZERO PUSH3 0x399 JUMPI PUSH3 0x399 PUSH3 0x334 JUMP JUMPDEST PUSH1 0x40 MLOAD PUSH1 0x1F DUP4 ADD PUSH1 0x1F NOT SWAP1 DUP2 AND PUSH1 0x3F ADD AND DUP2 ADD SWAP1 DUP3 DUP3 GT DUP2 DUP4 LT OR ISZERO PUSH3 0x3C4 JUMPI PUSH3 0x3C4 PUSH3 0x334 JUMP JUMPDEST DUP2 PUSH1 0x40 MSTORE DUP4 DUP2 MSTORE DUP7 PUSH1 0x20 DUP6 DUP9 ADD ADD GT ISZERO PUSH3 0x3DD JUMPI PUSH0 DUP1 REVERT JUMPDEST PUSH3 0x3F0 DUP5 PUSH1 0x20 DUP4 ADD PUSH1 0x20 DUP10 ADD PUSH3 0x348 JUMP JUMPDEST SWAP7 SWAP6 POP POP POP POP POP POP JUMP JUMPDEST PUSH0 DUP1 PUSH0 DUP1 PUSH1 0x80 DUP6 DUP8 SUB SLT ISZERO PUSH3 0x40E JUMPI PUSH0 DUP1 REVERT JUMPDEST DUP5 MLOAD PUSH3 0x41B DUP2 PUSH3 0x31C JUMP JUMPDEST PUSH1 0x20 DUP7 ADD MLOAD SWAP1 SWAP5 POP PUSH1 0x1 PUSH1 0x1 PUSH1 0x40 SHL SUB DUP1 DUP3 GT ISZERO PUSH3 0x438 JUMPI PUSH0 DUP1 REVERT JUMPDEST PUSH3 0x446 DUP9 DUP4 DUP10 ADD PUSH3 0x36C JUMP JUMPDEST SWAP5 POP PUSH1 0x40 DUP8 ADD MLOAD SWAP2 POP DUP1 DUP3 GT ISZERO PUSH3 0x45C JUMPI PUSH0 DUP1 REVERT JUMPDEST POP PUSH3 0x46B DUP8 DUP3 DUP9 ADD PUSH3 0x36C JUMP JUMPDEST SWAP3 POP POP PUSH1 0x60 DUP6 ADD MLOAD PUSH3 0x47E DUP2 PUSH3 0x31C JUMP JUMPDEST SWAP4 SWAP7 SWAP3 SWAP6 POP SWAP1 SWAP4 POP POP JUMP JUMPDEST PUSH1 0x1 DUP2 DUP2 SHR SWAP1 DUP3 AND DUP1 PUSH3 0x49E JUMPI PUSH1 0x7F DUP3 AND SWAP2 POP JUMPDEST PUSH1 0x20 DUP3 LT DUP2 SUB PUSH3 0x4BD JUMPI PUSH4 0x4E487B71 PUSH1 0xE0 SHL PUSH0 MSTORE PUSH1 0x22 PUSH1 0x4 MSTORE PUSH1 0x24 PUSH0 REVERT JUMPDEST POP SWAP2 SWAP1 POP JUMP JUMPDEST PUSH1 0x1F DUP3 GT ISZERO PUSH3 0x510 JUMPI PUSH0 DUP2 DUP2 MSTORE PUSH1 0x20 DUP2 KECCAK256 PUSH1 0x1F DUP6 ADD PUSH1 0x5 SHR DUP2 ADD PUSH1 0x20 DUP7 LT ISZERO PUSH3 0x4EB JUMPI POP DUP1 JUMPDEST PUSH1 0x1F DUP6 ADD PUSH1 0x5 SHR DUP3 ADD SWAP2 POP JUMPDEST DUP2 DUP2 LT ISZERO PUSH3 0x50C JUMPI DUP3 DUP2 SSTORE PUSH1 0x1 ADD PUSH3 0x4F7 JUMP JUMPDEST POP POP POP JUMPDEST POP POP POP JUMP JUMPDEST DUP2 MLOAD PUSH1 0x1 PUSH1 0x1 PUSH1 0x40 SHL SUB DUP2 GT ISZERO PUSH3 0x531 JUMPI PUSH3 0x531 PUSH3 0x334 JUMP JUMPDEST PUSH3 0x549 DUP2 PUSH3 0x542 DUP5 SLOAD PUSH3 0x489 JUMP JUMPDEST DUP5 PUSH3 0x4C3 JUMP JUMPDEST PUSH1 0x20 DUP1 PUSH1 0x1F DUP4 GT PUSH1 0x1 DUP2 EQ PUSH3 0x57F JUMPI PUSH0 DUP5 ISZERO PUSH3 0x567 JUMPI POP DUP6 DUP4 ADD MLOAD JUMPDEST PUSH0 NOT PUSH1 0x3 DUP7 SWAP1 SHL SHR NOT AND PUSH1 0x1 DUP6 SWAP1 SHL OR DUP6 SSTORE PUSH3 0x50C JUMP JUMPDEST PUSH0 DUP6 DUP2 MSTORE PUSH1 0x20 DUP2 KECCAK256 PUSH1 0x1F NOT DUP7 AND SWAP2 JUMPDEST DUP3 DUP2 LT ISZERO PUSH3 0x5AF JUMPI DUP9 DUP7 ADD MLOAD DUP3 SSTORE SWAP5 DUP5 ADD SWAP5 PUSH1 0x1 SWAP1 SWAP2 ADD SWAP1 DUP5 ADD PUSH3 0x58E JUMP JUMPDEST POP DUP6 DUP3 LT ISZERO PUSH3 0x5CD JUMPI DUP8 DUP6 ADD MLOAD PUSH0 NOT PUSH1 0x3 DUP9 SWAP1 SHL PUSH1 0xF8 AND SHR NOT AND DUP2 SSTORE JUMPDEST POP POP POP POP POP PUSH1 0x1 SWAP1 DUP2 SHL ADD SWAP1 SSTORE POP JUMP JUMPDEST PUSH0 DUP3 MLOAD PUSH3 0x5F0 DUP2 DUP5 PUSH1 0x20 DUP8 ADD PUSH3 0x348 JUMP JUMPDEST SWAP2 SWAP1 SWAP2 ADD SWAP3 SWAP2 POP POP JUMP JUMPDEST PUSH0 PUSH1 0x20 DUP3 DUP5 SUB SLT ISZERO PUSH3 0x60B JUMPI PUSH0 DUP1 REVERT JUMPDEST POP MLOAD SWAP2 SWAP1 POP JUMP JUMPDEST PUSH1 0x80 MLOAD PUSH1 0xA0 MLOAD PUSH1 0xC0 MLOAD PUSH2 0x4B0F PUSH3 0x6CD PUSH0 CODECOPY PUSH0 DUP2 DUP2 PUSH2 0x89F ADD MSTORE DUP2 DUP2 PUSH2 0x29EE ADD MSTORE DUP2 DUP2 PUSH2 0x2A2B ADD MSTORE DUP2 DUP2 PUSH2 0x38A1 ADD MSTORE DUP2 DUP2 PUSH2 0x38E0 ADD MSTORE DUP2 DUP2 PUSH2 0x3A02 ADD MSTORE DUP2 DUP2 PUSH2 0x3A42 ADD MSTORE DUP2 DUP2 PUSH2 0x3B9D ADD MSTORE PUSH2 0x3BDD ADD MSTORE PUSH0 POP POP PUSH0 DUP2 DUP2 PUSH2 0x4C8 ADD MSTORE DUP2 DUP2 PUSH2 0x907 ADD MSTORE DUP2 DUP2 PUSH2 0xF25 ADD MSTORE DUP2 DUP2 PUSH2 0x1D97 ADD MSTORE DUP2 DUP2 PUSH2 0x1E94 ADD MSTORE DUP2 DUP2 PUSH2 0x23C3 ADD MSTORE DUP2 DUP2 PUSH2 0x2917 ADD MSTORE DUP2 DUP2 PUSH2 0x2B2B ADD MSTORE DUP2 DUP2 PUSH2 0x2D3C ADD MSTORE DUP2 DUP2 PUSH2 0x3852 ADD MSTORE DUP2 DUP2 PUSH2 0x3936 ADD MSTORE DUP2 DUP2 PUSH2 0x3D83 ADD MSTORE DUP2 DUP2 PUSH2 0x3E35 ADD MSTORE PUSH2 0x4026 ADD MSTORE PUSH2 0x4B0F PUSH0 RETURN INVALID PUSH1 0x80 PUSH1 0x40 MSTORE CALLVALUE DUP1 ISZERO PUSH2 0xF JUMPI PUSH0 DUP1 REVERT JUMPDEST POP PUSH1 0x4 CALLDATASIZE LT PUSH2 0x3CA JUMPI PUSH0 CALLDATALOAD PUSH1 0xE0 SHR DUP1 PUSH4 0x8DA5CB5B GT PUSH2 0x200 JUMPI DUP1 PUSH4 0xC3B28864 GT PUSH2 0x11F JUMPI DUP1 PUSH4 0xD905777E GT PUSH2 0xB4 JUMPI DUP1 PUSH4 0xE8855812 GT PUSH2 0x84 JUMPI DUP1 PUSH4 0xE8855812 EQ PUSH2 0x89A JUMPI DUP1 PUSH4 0xECF70858 EQ PUSH2 0x8C1 JUMPI DUP1 PUSH4 0xEF8B30F7 EQ PUSH2 0x8CA JUMPI DUP1 PUSH4 0xF2FDE38B EQ PUSH2 0x8DD JUMPI DUP1 PUSH4 0xF6C00DB9 EQ PUSH2 0x8F0 JUMPI PUSH0 DUP1 REVERT JUMPDEST DUP1 PUSH4 0xD905777E EQ PUSH2 0x834 JUMPI DUP1 PUSH4 0xD9ABA111 EQ PUSH2 0x847 JUMPI DUP1 PUSH4 0xDC24FC07 EQ PUSH2 0x85A JUMPI DUP1 PUSH4 0xDD62ED3E EQ PUSH2 0x862 JUMPI PUSH0 DUP1 REVERT JUMPDEST DUP1 PUSH4 0xCE96CB77 GT PUSH2 0xEF JUMPI DUP1 PUSH4 0xCE96CB77 EQ PUSH2 0x7E8 JUMPI DUP1 PUSH4 0xD3F6B598 EQ PUSH2 0x7FB JUMPI DUP1 PUSH4 0xD80EA5A0 EQ PUSH2 0x80E JUMPI DUP1 PUSH4 0xD823A72E EQ PUSH2 0x821 JUMPI PUSH0 DUP1 REVERT JUMPDEST DUP1 PUSH4 0xC3B28864 EQ PUSH2 0x7A7 JUMPI DUP1 PUSH4 0xC63D75B6 EQ PUSH2 0x7AF JUMPI DUP1 PUSH4 0xC6E6F592 EQ PUSH2 0x7C2 JUMPI DUP1 PUSH4 0xC9411E22 EQ PUSH2 0x7D5 JUMPI PUSH0 DUP1 REVERT JUMPDEST DUP1 PUSH4 0xAC8A584A GT PUSH2 0x195 JUMPI DUP1 PUSH4 0xB460AF94 GT PUSH2 0x165 JUMPI DUP1 PUSH4 0xB460AF94 EQ PUSH2 0x75B JUMPI DUP1 PUSH4 0xB53D0958 EQ PUSH2 0x76E JUMPI DUP1 PUSH4 0xBA087652 EQ PUSH2 0x781 JUMPI DUP1 PUSH4 0xBDC8144B EQ PUSH2 0x794 JUMPI PUSH0 DUP1 REVERT JUMPDEST DUP1 PUSH4 0xAC8A584A EQ PUSH2 0x724 JUMPI DUP1 PUSH4 0xACD17D5D EQ PUSH2 0x737 JUMPI DUP1 PUSH4 0xAF56B69F EQ PUSH2 0x73F JUMPI DUP1 PUSH4 0xB3D7F6B9 EQ PUSH2 0x748 JUMPI PUSH0 DUP1 REVERT JUMPDEST DUP1 PUSH4 0x9870D7FE GT PUSH2 0x1D0 JUMPI DUP1 PUSH4 0x9870D7FE EQ PUSH2 0x6BB JUMPI DUP1 PUSH4 0xA267526B EQ PUSH2 0x6CE JUMPI DUP1 PUSH4 0xA3603BCA EQ PUSH2 0x6E1 JUMPI DUP1 PUSH4 0xA9059CBB EQ PUSH2 0x711 JUMPI PUSH0 DUP1 REVERT JUMPDEST DUP1 PUSH4 0x8DA5CB5B EQ PUSH2 0x67C JUMPI DUP1 PUSH4 0x8FCC9CFB EQ PUSH2 0x68D JUMPI DUP1 PUSH4 0x94BF804D EQ PUSH2 0x6A0 JUMPI DUP1 PUSH4 0x95D89B41 EQ PUSH2 0x6B3 JUMPI PUSH0 DUP1 REVERT JUMPDEST DUP1 PUSH4 0x402D267D GT PUSH2 0x2EC JUMPI DUP1 PUSH4 0x5C975ABB GT PUSH2 0x281 JUMPI DUP1 PUSH4 0x70A08231 GT PUSH2 0x251 JUMPI DUP1 PUSH4 0x70A08231 EQ PUSH2 0x63B JUMPI DUP1 PUSH4 0x715018A6 EQ PUSH2 0x663 JUMPI DUP1 PUSH4 0x7B320DA6 EQ PUSH2 0x66B JUMPI DUP1 PUSH4 0x8456CB59 EQ PUSH2 0x674 JUMPI PUSH0 DUP1 REVERT JUMPDEST DUP1 PUSH4 0x5C975ABB EQ PUSH2 0x60A JUMPI DUP1 PUSH4 0x6BBF758D EQ PUSH2 0x587 JUMPI DUP1 PUSH4 0x6E553F65 EQ PUSH2 0x615 JUMPI DUP1 PUSH4 0x70851703 EQ PUSH2 0x628 JUMPI PUSH0 DUP1 REVERT JUMPDEST DUP1 PUSH4 0x4CDAD506 GT PUSH2 0x2BC JUMPI DUP1 PUSH4 0x4CDAD506 EQ PUSH2 0x5AF JUMPI DUP1 PUSH4 0x4E423181 EQ PUSH2 0x5C2 JUMPI DUP1 PUSH4 0x54192AD5 EQ PUSH2 0x5D5 JUMPI DUP1 PUSH4 0x587436E4 EQ PUSH2 0x5F5 JUMPI PUSH0 DUP1 REVERT JUMPDEST DUP1 PUSH4 0x402D267D EQ PUSH2 0x574 JUMPI DUP1 PUSH4 0x4082FA9B EQ PUSH2 0x587 JUMPI DUP1 PUSH4 0x41826C2D EQ PUSH2 0x58F JUMPI DUP1 PUSH4 0x41B3D185 EQ PUSH2 0x5A6 JUMPI PUSH0 DUP1 REVERT JUMPDEST DUP1 PUSH4 0x23B872DD GT PUSH2 0x362 JUMPI DUP1 PUSH4 0x38F0EDE9 GT PUSH2 0x332 JUMPI DUP1 PUSH4 0x38F0EDE9 EQ PUSH2 0x500 JUMPI DUP1 PUSH4 0x39EBF823 EQ PUSH2 0x508 JUMPI DUP1 PUSH4 0x3EDE66F7 EQ PUSH2 0x563 JUMPI DUP1 PUSH4 0x3F4BA83A EQ PUSH2 0x56C JUMPI PUSH0 DUP1 REVERT JUMPDEST DUP1 PUSH4 0x23B872DD EQ PUSH2 0x486 JUMPI DUP1 PUSH4 0x2A058CAC EQ PUSH2 0x499 JUMPI DUP1 PUSH4 0x313CE567 EQ PUSH2 0x4AC JUMPI DUP1 PUSH4 0x38D52E0F EQ PUSH2 0x4C6 JUMPI PUSH0 DUP1 REVERT JUMPDEST DUP1 PUSH4 0xA28A477 GT PUSH2 0x39D JUMPI DUP1 PUSH4 0xA28A477 EQ PUSH2 0x434 JUMPI DUP1 PUSH4 0x13E7C9D8 EQ PUSH2 0x447 JUMPI DUP1 PUSH4 0x175188E8 EQ PUSH2 0x469 JUMPI DUP1 PUSH4 0x18160DDD EQ PUSH2 0x47E JUMPI PUSH0 DUP1 REVERT JUMPDEST DUP1 PUSH4 0x1E1D114 EQ PUSH2 0x3CE JUMPI DUP1 PUSH4 0x6FDDE03 EQ PUSH2 0x3E9 JUMPI DUP1 PUSH4 0x7A2D13A EQ PUSH2 0x3FE JUMPI DUP1 PUSH4 0x95EA7B3 EQ PUSH2 0x411 JUMPI JUMPDEST PUSH0 DUP1 REVERT JUMPDEST PUSH2 0x3D6 PUSH2 0x903 JUMP JUMPDEST PUSH1 0x40 MLOAD SWAP1 DUP2 MSTORE PUSH1 0x20 ADD JUMPDEST PUSH1 0x40 MLOAD DUP1 SWAP2 SUB SWAP1 RETURN JUMPDEST PUSH2 0x3F1 PUSH2 0xA9A JUMP JUMPDEST PUSH1 0x40 MLOAD PUSH2 0x3E0 SWAP2 SWAP1 PUSH2 0x43DD JUMP JUMPDEST PUSH2 0x3D6 PUSH2 0x40C CALLDATASIZE PUSH1 0x4 PUSH2 0x4428 JUMP JUMPDEST PUSH2 0xB2A JUMP JUMPDEST PUSH2 0x424 PUSH2 0x41F CALLDATASIZE PUSH1 0x4 PUSH2 0x4453 JUMP JUMPDEST PUSH2 0xB3B JUMP JUMPDEST PUSH1 0x40 MLOAD SWAP1 ISZERO ISZERO DUP2 MSTORE PUSH1 0x20 ADD PUSH2 0x3E0 JUMP JUMPDEST PUSH2 0x3D6 PUSH2 0x442 CALLDATASIZE PUSH1 0x4 PUSH2 0x4428 JUMP JUMPDEST PUSH2 0xB52 JUMP JUMPDEST PUSH2 0x424 PUSH2 0x455 CALLDATASIZE PUSH1 0x4 PUSH2 0x447D JUMP JUMPDEST PUSH1 0x9 PUSH1 0x20 MSTORE PUSH0 SWAP1 DUP2 MSTORE PUSH1 0x40 SWAP1 KECCAK256 SLOAD PUSH1 0xFF AND DUP2 JUMP JUMPDEST PUSH2 0x47C PUSH2 0x477 CALLDATASIZE PUSH1 0x4 PUSH2 0x447D JUMP JUMPDEST PUSH2 0xB8C JUMP JUMPDEST STOP JUMPDEST PUSH1 0x2 SLOAD PUSH2 0x3D6 JUMP JUMPDEST PUSH2 0x424 PUSH2 0x494 CALLDATASIZE PUSH1 0x4 PUSH2 0x4498 JUMP JUMPDEST PUSH2 0xDE9 JUMP JUMPDEST PUSH2 0x47C PUSH2 0x4A7 CALLDATASIZE PUSH1 0x4 PUSH2 0x447D JUMP JUMPDEST PUSH2 0xE0E JUMP JUMPDEST PUSH2 0x4B4 PUSH2 0xF22 JUMP JUMPDEST PUSH1 0x40 MLOAD PUSH1 0xFF SWAP1 SWAP2 AND DUP2 MSTORE PUSH1 0x20 ADD PUSH2 0x3E0 JUMP JUMPDEST PUSH32 0x0 JUMPDEST PUSH1 0x40 MLOAD PUSH1 0x1 PUSH1 0x1 PUSH1 0xA0 SHL SUB SWAP1 SWAP2 AND DUP2 MSTORE PUSH1 0x20 ADD PUSH2 0x3E0 JUMP JUMPDEST PUSH2 0x3D6 PUSH2 0xFA8 JUMP JUMPDEST PUSH2 0x552 PUSH2 0x516 CALLDATASIZE PUSH1 0x4 PUSH2 0x447D JUMP JUMPDEST PUSH1 0xC PUSH1 0x20 MSTORE PUSH0 SWAP1 DUP2 MSTORE PUSH1 0x40 SWAP1 KECCAK256 DUP1 SLOAD PUSH1 0x1 DUP3 ADD SLOAD PUSH1 0x2 DUP4 ADD SLOAD PUSH1 0x3 DUP5 ADD SLOAD PUSH1 0x4 SWAP1 SWAP5 ADD SLOAD PUSH1 0x1 PUSH1 0x1 PUSH1 0xA0 SHL SUB SWAP1 SWAP4 AND SWAP4 SWAP2 SWAP3 PUSH1 0xFF SWAP1 SWAP2 AND SWAP2 SWAP1 DUP6 JUMP JUMPDEST PUSH1 0x40 MLOAD PUSH2 0x3E0 SWAP6 SWAP5 SWAP4 SWAP3 SWAP2 SWAP1 PUSH2 0x450A JUMP JUMPDEST PUSH2 0x3D6 PUSH1 0xE SLOAD DUP2 JUMP JUMPDEST PUSH2 0x47C PUSH2 0x1011 JUMP JUMPDEST PUSH2 0x3D6 PUSH2 0x582 CALLDATASIZE PUSH1 0x4 PUSH2 0x447D JUMP JUMPDEST PUSH2 0x1023 JUMP JUMPDEST PUSH2 0x3D6 PUSH1 0x14 DUP2 JUMP JUMPDEST PUSH2 0x597 PUSH2 0x1066 JUMP JUMPDEST PUSH1 0x40 MLOAD PUSH2 0x3E0 SWAP4 SWAP3 SWAP2 SWAP1 PUSH2 0x45B1 JUMP JUMPDEST PUSH2 0x3D6 PUSH1 0xA SLOAD DUP2 JUMP JUMPDEST PUSH2 0x3D6 PUSH2 0x5BD CALLDATASIZE PUSH1 0x4 PUSH2 0x4428 JUMP JUMPDEST PUSH2 0x140A JUMP JUMPDEST PUSH2 0x47C PUSH2 0x5D0 CALLDATASIZE PUSH1 0x4 PUSH2 0x4428 JUMP JUMPDEST PUSH2 0x143C JUMP JUMPDEST PUSH2 0x5E8 PUSH2 0x5E3 CALLDATASIZE PUSH1 0x4 PUSH2 0x447D JUMP JUMPDEST PUSH2 0x14D5 JUMP JUMPDEST PUSH1 0x40 MLOAD PUSH2 0x3E0 SWAP2 SWAP1 PUSH2 0x45F3 JUMP JUMPDEST PUSH2 0x5FD PUSH2 0x15BE JUMP JUMPDEST PUSH1 0x40 MLOAD PUSH2 0x3E0 SWAP2 SWAP1 PUSH2 0x463C JUMP JUMPDEST PUSH1 0x7 SLOAD PUSH1 0xFF AND PUSH2 0x424 JUMP JUMPDEST PUSH2 0x3D6 PUSH2 0x623 CALLDATASIZE PUSH1 0x4 PUSH2 0x464E JUMP JUMPDEST PUSH2 0x1772 JUMP JUMPDEST PUSH2 0x47C PUSH2 0x636 CALLDATASIZE PUSH1 0x4 PUSH2 0x4453 JUMP JUMPDEST PUSH2 0x17E3 JUMP JUMPDEST PUSH2 0x3D6 PUSH2 0x649 CALLDATASIZE PUSH1 0x4 PUSH2 0x447D JUMP JUMPDEST PUSH1 0x1 PUSH1 0x1 PUSH1 0xA0 SHL SUB AND PUSH0 SWAP1 DUP2 MSTORE PUSH1 0x20 DUP2 SWAP1 MSTORE PUSH1 0x40 SWAP1 KECCAK256 SLOAD SWAP1 JUMP JUMPDEST PUSH2 0x47C PUSH2 0x1925 JUMP JUMPDEST PUSH2 0x3D6 PUSH1 0x8 SLOAD DUP2 JUMP JUMPDEST PUSH2 0x47C PUSH2 0x1936 JUMP JUMPDEST PUSH1 0x5 SLOAD PUSH1 0x1 PUSH1 0x1 PUSH1 0xA0 SHL SUB AND PUSH2 0x4E8 JUMP JUMPDEST PUSH2 0x47C PUSH2 0x69B CALLDATASIZE PUSH1 0x4 PUSH2 0x4428 JUMP JUMPDEST PUSH2 0x1946 JUMP JUMPDEST PUSH2 0x3D6 PUSH2 0x6AE CALLDATASIZE PUSH1 0x4 PUSH2 0x464E JUMP JUMPDEST PUSH2 0x19D9 JUMP JUMPDEST PUSH2 0x3F1 PUSH2 0x1A57 JUMP JUMPDEST PUSH2 0x47C PUSH2 0x6C9 CALLDATASIZE PUSH1 0x4 PUSH2 0x447D JUMP JUMPDEST PUSH2 0x1A66 JUMP JUMPDEST PUSH2 0x4E8 PUSH2 0x6DC CALLDATASIZE PUSH1 0x4 PUSH2 0x4428 JUMP JUMPDEST PUSH2 0x1B0F JUMP JUMPDEST PUSH2 0x6E9 PUSH2 0x1B37 JUMP JUMPDEST PUSH1 0x40 DUP1 MLOAD SWAP6 DUP7 MSTORE PUSH1 0x20 DUP7 ADD SWAP5 SWAP1 SWAP5 MSTORE SWAP3 DUP5 ADD SWAP2 SWAP1 SWAP2 MSTORE PUSH1 0x60 DUP4 ADD MSTORE PUSH1 0x80 DUP3 ADD MSTORE PUSH1 0xA0 ADD PUSH2 0x3E0 JUMP JUMPDEST PUSH2 0x424 PUSH2 0x71F CALLDATASIZE PUSH1 0x4 PUSH2 0x4453 JUMP JUMPDEST PUSH2 0x1B88 JUMP JUMPDEST PUSH2 0x47C PUSH2 0x732 CALLDATASIZE PUSH1 0x4 PUSH2 0x447D JUMP JUMPDEST PUSH2 0x1B95 JUMP JUMPDEST PUSH2 0x3D6 PUSH2 0x1BE5 JUMP JUMPDEST PUSH2 0x3D6 PUSH1 0xF SLOAD DUP2 JUMP JUMPDEST PUSH2 0x3D6 PUSH2 0x756 CALLDATASIZE PUSH1 0x4 PUSH2 0x4428 JUMP JUMPDEST PUSH2 0x1C08 JUMP JUMPDEST PUSH2 0x3D6 PUSH2 0x769 CALLDATASIZE PUSH1 0x4 PUSH2 0x467C JUMP JUMPDEST PUSH2 0x1C38 JUMP JUMPDEST PUSH2 0x47C PUSH2 0x77C CALLDATASIZE PUSH1 0x4 PUSH2 0x4453 JUMP JUMPDEST PUSH2 0x1C60 JUMP JUMPDEST PUSH2 0x3D6 PUSH2 0x78F CALLDATASIZE PUSH1 0x4 PUSH2 0x467C JUMP JUMPDEST PUSH2 0x2092 JUMP JUMPDEST PUSH2 0x47C PUSH2 0x7A2 CALLDATASIZE PUSH1 0x4 PUSH2 0x4428 JUMP JUMPDEST PUSH2 0x20AE JUMP JUMPDEST PUSH2 0x5FD PUSH2 0x213A JUMP JUMPDEST PUSH2 0x3D6 PUSH2 0x7BD CALLDATASIZE PUSH1 0x4 PUSH2 0x447D JUMP JUMPDEST PUSH2 0x2199 JUMP JUMPDEST PUSH2 0x3D6 PUSH2 0x7D0 CALLDATASIZE PUSH1 0x4 PUSH2 0x4428 JUMP JUMPDEST PUSH2 0x21E9 JUMP JUMPDEST PUSH2 0x47C PUSH2 0x7E3 CALLDATASIZE PUSH1 0x4 PUSH2 0x4453 JUMP JUMPDEST PUSH2 0x21F4 JUMP JUMPDEST PUSH2 0x3D6 PUSH2 0x7F6 CALLDATASIZE PUSH1 0x4 PUSH2 0x447D JUMP JUMPDEST PUSH2 0x2588 JUMP JUMPDEST PUSH2 0x47C PUSH2 0x809 CALLDATASIZE PUSH1 0x4 PUSH2 0x447D JUMP JUMPDEST PUSH2 0x25AA JUMP JUMPDEST PUSH2 0x47C PUSH2 0x81C CALLDATASIZE PUSH1 0x4 PUSH2 0x447D JUMP JUMPDEST PUSH2 0x26C6 JUMP JUMPDEST PUSH2 0x47C PUSH2 0x82F CALLDATASIZE PUSH1 0x4 PUSH2 0x4428 JUMP JUMPDEST PUSH2 0x2778 JUMP JUMPDEST PUSH2 0x3D6 PUSH2 0x842 CALLDATASIZE PUSH1 0x4 PUSH2 0x447D JUMP JUMPDEST PUSH2 0x2806 JUMP JUMPDEST PUSH2 0x47C PUSH2 0x855 CALLDATASIZE PUSH1 0x4 PUSH2 0x447D JUMP JUMPDEST PUSH2 0x2823 JUMP JUMPDEST PUSH2 0x3D6 PUSH2 0x2B28 JUMP JUMPDEST PUSH2 0x3D6 PUSH2 0x870 CALLDATASIZE PUSH1 0x4 PUSH2 0x46BB JUMP JUMPDEST PUSH1 0x1 PUSH1 0x1 PUSH1 0xA0 SHL SUB SWAP2 DUP3 AND PUSH0 SWAP1 DUP2 MSTORE PUSH1 0x1 PUSH1 0x20 SWAP1 DUP2 MSTORE PUSH1 0x40 DUP1 DUP4 KECCAK256 SWAP4 SWAP1 SWAP5 AND DUP3 MSTORE SWAP2 SWAP1 SWAP2 MSTORE KECCAK256 SLOAD SWAP1 JUMP JUMPDEST PUSH2 0x4E8 PUSH32 0x0 DUP2 JUMP JUMPDEST PUSH2 0x3D6 PUSH1 0xB SLOAD DUP2 JUMP JUMPDEST PUSH2 0x3D6 PUSH2 0x8D8 CALLDATASIZE PUSH1 0x4 PUSH2 0x4428 JUMP JUMPDEST PUSH2 0x2BB2 JUMP JUMPDEST PUSH2 0x47C PUSH2 0x8EB CALLDATASIZE PUSH1 0x4 PUSH2 0x447D JUMP JUMPDEST PUSH2 0x2BE4 JUMP JUMPDEST PUSH2 0x47C PUSH2 0x8FE CALLDATASIZE PUSH1 0x4 PUSH2 0x4453 JUMP JUMPDEST PUSH2 0x2C21 JUMP JUMPDEST PUSH0 DUP1 PUSH32 0x0 PUSH1 0x40 MLOAD PUSH4 0x70A08231 PUSH1 0xE0 SHL DUP2 MSTORE ADDRESS PUSH1 0x4 DUP3 ADD MSTORE PUSH1 0x1 PUSH1 0x1 PUSH1 0xA0 SHL SUB SWAP2 SWAP1 SWAP2 AND SWAP1 PUSH4 0x70A08231 SWAP1 PUSH1 0x24 ADD PUSH1 0x20 PUSH1 0x40 MLOAD DUP1 DUP4 SUB DUP2 DUP7 GAS STATICCALL ISZERO DUP1 ISZERO PUSH2 0x96A JUMPI RETURNDATASIZE PUSH0 DUP1 RETURNDATACOPY RETURNDATASIZE PUSH0 REVERT JUMPDEST POP POP POP POP PUSH1 0x40 MLOAD RETURNDATASIZE PUSH1 0x1F NOT PUSH1 0x1F DUP3 ADD AND DUP3 ADD DUP1 PUSH1 0x40 MSTORE POP DUP2 ADD SWAP1 PUSH2 0x98E SWAP2 SWAP1 PUSH2 0x46E7 JUMP JUMPDEST SWAP1 POP PUSH0 JUMPDEST PUSH1 0xD SLOAD DUP2 LT ISZERO PUSH2 0xA94 JUMPI PUSH0 PUSH1 0xD DUP3 DUP2 SLOAD DUP2 LT PUSH2 0x9B0 JUMPI PUSH2 0x9B0 PUSH2 0x46FE JUMP JUMPDEST PUSH0 SWAP2 DUP3 MSTORE PUSH1 0x20 DUP1 DUP4 KECCAK256 SWAP1 SWAP2 ADD SLOAD PUSH1 0x1 PUSH1 0x1 PUSH1 0xA0 SHL SUB AND DUP1 DUP4 MSTORE PUSH1 0xC SWAP1 SWAP2 MSTORE PUSH1 0x40 SWAP1 SWAP2 KECCAK256 SWAP1 SWAP2 POP PUSH1 0x1 PUSH1 0x2 DUP3 ADD SLOAD PUSH1 0xFF AND PUSH1 0x3 DUP2 GT ISZERO PUSH2 0x9F1 JUMPI PUSH2 0x9F1 PUSH2 0x44D6 JUMP JUMPDEST EQ PUSH2 0x9FD JUMPI POP POP PUSH2 0xA82 JUMP JUMPDEST DUP2 PUSH1 0x1 PUSH1 0x1 PUSH1 0xA0 SHL SUB AND PUSH4 0x1E1D114 PUSH1 0x40 MLOAD DUP2 PUSH4 0xFFFFFFFF AND PUSH1 0xE0 SHL DUP2 MSTORE PUSH1 0x4 ADD PUSH1 0x20 PUSH1 0x40 MLOAD DUP1 DUP4 SUB DUP2 DUP7 GAS STATICCALL SWAP3 POP POP POP DUP1 ISZERO PUSH2 0xA57 JUMPI POP PUSH1 0x40 DUP1 MLOAD PUSH1 0x1F RETURNDATASIZE SWAP1 DUP2 ADD PUSH1 0x1F NOT AND DUP3 ADD SWAP1 SWAP3 MSTORE PUSH2 0xA54 SWAP2 DUP2 ADD SWAP1 PUSH2 0x46E7 JUMP JUMPDEST PUSH1 0x1 JUMPDEST PUSH2 0xA71 JUMPI PUSH1 0x3 DUP2 ADD SLOAD PUSH2 0xA6A SWAP1 DUP6 PUSH2 0x4726 JUMP JUMPDEST SWAP4 POP PUSH2 0xA7F JUMP JUMPDEST PUSH2 0xA7B DUP2 DUP7 PUSH2 0x4726 JUMP JUMPDEST SWAP5 POP POP JUMPDEST POP POP JUMPDEST DUP1 PUSH2 0xA8C DUP2 PUSH2 0x4739 JUMP JUMPDEST SWAP2 POP POP PUSH2 0x992 JUMP JUMPDEST POP SWAP2 SWAP1 POP JUMP JUMPDEST PUSH1 0x60 PUSH1 0x3 DUP1 SLOAD PUSH2 0xAA9 SWAP1 PUSH2 0x4751 JUMP JUMPDEST DUP1 PUSH1 0x1F ADD PUSH1 0x20 DUP1 SWAP2 DIV MUL PUSH1 0x20 ADD PUSH1 0x40 MLOAD SWAP1 DUP2 ADD PUSH1 0x40 MSTORE DUP1 SWAP3 SWAP2 SWAP1 DUP2 DUP2 MSTORE PUSH1 0x20 ADD DUP3 DUP1 SLOAD PUSH2 0xAD5 SWAP1 PUSH2 0x4751 JUMP JUMPDEST DUP1 ISZERO PUSH2 0xB20 JUMPI DUP1 PUSH1 0x1F LT PUSH2 0xAF7 JUMPI PUSH2 0x100 DUP1 DUP4 SLOAD DIV MUL DUP4 MSTORE SWAP2 PUSH1 0x20 ADD SWAP2 PUSH2 0xB20 JUMP JUMPDEST DUP3 ADD SWAP2 SWAP1 PUSH0 MSTORE PUSH1 0x20 PUSH0 KECCAK256 SWAP1 JUMPDEST DUP2 SLOAD DUP2 MSTORE SWAP1 PUSH1 0x1 ADD SWAP1 PUSH1 0x20 ADD DUP1 DUP4 GT PUSH2 0xB03 JUMPI DUP3 SWAP1 SUB PUSH1 0x1F AND DUP3 ADD SWAP2 JUMPDEST POP POP POP POP POP SWAP1 POP SWAP1 JUMP JUMPDEST PUSH0 PUSH2 0xB35 DUP3 PUSH0 PUSH2 0x3151 JUMP JUMPDEST SWAP3 SWAP2 POP POP JUMP JUMPDEST PUSH0 CALLER PUSH2 0xB48 DUP2 DUP6 DUP6 PUSH2 0x3189 JUMP JUMPDEST POP PUSH1 0x1 SWAP4 SWAP3 POP POP POP JUMP JUMPDEST PUSH0 DUP1 PUSH2 0x2710 PUSH2 0xB62 PUSH1 0x14 DUP6 PUSH2 0x4783 JUMP JUMPDEST PUSH2 0xB6C SWAP2 SWAP1 PUSH2 0x47AE JUMP JUMPDEST SWAP1 POP PUSH0 PUSH2 0xB79 DUP3 DUP6 PUSH2 0x4726 JUMP JUMPDEST SWAP1 POP PUSH2 0xB84 DUP2 PUSH2 0x319B JUMP JUMPDEST SWAP5 SWAP4 POP POP POP POP JUMP JUMPDEST PUSH2 0xB94 PUSH2 0x31A7 JUMP JUMPDEST PUSH1 0x1 PUSH1 0x1 PUSH1 0xA0 SHL SUB DUP2 DUP2 AND PUSH0 SWAP1 DUP2 MSTORE PUSH1 0xC PUSH1 0x20 MSTORE PUSH1 0x40 SWAP1 KECCAK256 SLOAD AND PUSH2 0xBD3 JUMPI PUSH1 0x40 MLOAD PUSH3 0x461BCD PUSH1 0xE5 SHL DUP2 MSTORE PUSH1 0x4 ADD PUSH2 0xBCA SWAP1 PUSH2 0x47C1 JUMP JUMPDEST PUSH1 0x40 MLOAD DUP1 SWAP2 SUB SWAP1 REVERT JUMPDEST PUSH1 0x1 PUSH1 0x1 PUSH1 0xA0 SHL SUB DUP2 AND PUSH0 SWAP1 DUP2 MSTORE PUSH1 0xC PUSH1 0x20 MSTORE PUSH1 0x40 SWAP1 KECCAK256 PUSH1 0x3 ADD SLOAD ISZERO PUSH2 0xC3B JUMPI PUSH1 0x40 MLOAD PUSH3 0x461BCD PUSH1 0xE5 SHL DUP2 MSTORE PUSH1 0x20 PUSH1 0x4 DUP3 ADD MSTORE PUSH1 0x18 PUSH1 0x24 DUP3 ADD MSTORE PUSH32 0x5374726174656779207374696C6C206861732066756E64730000000000000000 PUSH1 0x44 DUP3 ADD MSTORE PUSH1 0x64 ADD PUSH2 0xBCA JUMP JUMPDEST PUSH1 0x1 PUSH1 0x1 PUSH1 0xA0 SHL SUB DUP2 AND PUSH0 SWAP1 DUP2 MSTORE PUSH1 0xC PUSH1 0x20 MSTORE PUSH1 0x40 DUP2 KECCAK256 PUSH1 0x1 ADD SLOAD PUSH1 0xE DUP1 SLOAD SWAP2 SWAP3 SWAP1 SWAP2 PUSH2 0xC69 SWAP1 DUP5 SWAP1 PUSH2 0x47F8 JUMP JUMPDEST SWAP1 SWAP2 SSTORE POP POP PUSH1 0x1 PUSH1 0x1 PUSH1 0xA0 SHL SUB DUP2 AND PUSH0 SWAP1 DUP2 MSTORE PUSH1 0xC PUSH1 0x20 MSTORE PUSH1 0x40 DUP2 KECCAK256 DUP1 SLOAD PUSH1 0x1 PUSH1 0x1 PUSH1 0xA0 SHL SUB NOT AND DUP2 SSTORE PUSH1 0x1 DUP2 ADD DUP3 SWAP1 SSTORE PUSH1 0x2 DUP2 ADD DUP1 SLOAD PUSH1 0xFF NOT AND SWAP1 SSTORE PUSH1 0x3 DUP2 ADD DUP3 SWAP1 SSTORE PUSH1 0x4 ADD DUP2 SWAP1 SSTORE JUMPDEST PUSH1 0xD SLOAD DUP2 LT ISZERO PUSH2 0xDB2 JUMPI DUP2 PUSH1 0x1 PUSH1 0x1 PUSH1 0xA0 SHL SUB AND PUSH1 0xD DUP3 DUP2 SLOAD DUP2 LT PUSH2 0xCDB JUMPI PUSH2 0xCDB PUSH2 0x46FE JUMP JUMPDEST PUSH0 SWAP2 DUP3 MSTORE PUSH1 0x20 SWAP1 SWAP2 KECCAK256 ADD SLOAD PUSH1 0x1 PUSH1 0x1 PUSH1 0xA0 SHL SUB AND SUB PUSH2 0xDA0 JUMPI PUSH1 0xD DUP1 SLOAD PUSH2 0xD04 SWAP1 PUSH1 0x1 SWAP1 PUSH2 0x47F8 JUMP JUMPDEST DUP2 SLOAD DUP2 LT PUSH2 0xD14 JUMPI PUSH2 0xD14 PUSH2 0x46FE JUMP JUMPDEST PUSH0 SWAP2 DUP3 MSTORE PUSH1 0x20 SWAP1 SWAP2 KECCAK256 ADD SLOAD PUSH1 0xD DUP1 SLOAD PUSH1 0x1 PUSH1 0x1 PUSH1 0xA0 SHL SUB SWAP1 SWAP3 AND SWAP2 DUP4 SWAP1 DUP2 LT PUSH2 0xD3F JUMPI PUSH2 0xD3F PUSH2 0x46FE JUMP JUMPDEST SWAP1 PUSH0 MSTORE PUSH1 0x20 PUSH0 KECCAK256 ADD PUSH0 PUSH2 0x100 EXP DUP2 SLOAD DUP2 PUSH1 0x1 PUSH1 0x1 PUSH1 0xA0 SHL SUB MUL NOT AND SWAP1 DUP4 PUSH1 0x1 PUSH1 0x1 PUSH1 0xA0 SHL SUB AND MUL OR SWAP1 SSTORE POP PUSH1 0xD DUP1 SLOAD DUP1 PUSH2 0xD7B JUMPI PUSH2 0xD7B PUSH2 0x480B JUMP JUMPDEST PUSH0 DUP3 DUP2 MSTORE PUSH1 0x20 SWAP1 KECCAK256 DUP2 ADD PUSH0 NOT SWAP1 DUP2 ADD DUP1 SLOAD PUSH1 0x1 PUSH1 0x1 PUSH1 0xA0 SHL SUB NOT AND SWAP1 SSTORE ADD SWAP1 SSTORE PUSH2 0xDB2 JUMP JUMPDEST DUP1 PUSH2 0xDAA DUP2 PUSH2 0x4739 JUMP JUMPDEST SWAP2 POP POP PUSH2 0xCB4 JUMP JUMPDEST POP PUSH1 0x40 MLOAD PUSH1 0x1 PUSH1 0x1 PUSH1 0xA0 SHL SUB DUP3 AND SWAP1 PUSH32 0x9A1DB4B80C32706328728508C941A6B954F31EB5AFFD32F236C1FD405F8FEA4 SWAP1 PUSH0 SWAP1 LOG2 POP JUMP JUMPDEST PUSH0 CALLER PUSH2 0xDF6 DUP6 DUP3 DUP6 PUSH2 0x31D4 JUMP JUMPDEST PUSH2 0xE01 DUP6 DUP6 DUP6 PUSH2 0x323D JUMP JUMPDEST PUSH1 0x1 SWAP2 POP POP JUMPDEST SWAP4 SWAP3 POP POP POP JUMP JUMPDEST PUSH2 0xE16 PUSH2 0x31A7 JUMP JUMPDEST PUSH1 0x1 PUSH1 0x1 PUSH1 0xA0 SHL SUB DUP2 DUP2 AND PUSH0 SWAP1 DUP2 MSTORE PUSH1 0xC PUSH1 0x20 MSTORE PUSH1 0x40 SWAP1 KECCAK256 SLOAD AND PUSH2 0xE4C JUMPI PUSH1 0x40 MLOAD PUSH3 0x461BCD PUSH1 0xE5 SHL DUP2 MSTORE PUSH1 0x4 ADD PUSH2 0xBCA SWAP1 PUSH2 0x47C1 JUMP JUMPDEST PUSH1 0x2 PUSH1 0x1 PUSH1 0x1 PUSH1 0xA0 SHL SUB DUP3 AND PUSH0 SWAP1 DUP2 MSTORE PUSH1 0xC PUSH1 0x20 MSTORE PUSH1 0x40 SWAP1 KECCAK256 PUSH1 0x2 ADD SLOAD PUSH1 0xFF AND PUSH1 0x3 DUP2 GT ISZERO PUSH2 0xE7D JUMPI PUSH2 0xE7D PUSH2 0x44D6 JUMP JUMPDEST EQ PUSH2 0xEC0 JUMPI PUSH1 0x40 MLOAD PUSH3 0x461BCD PUSH1 0xE5 SHL DUP2 MSTORE PUSH1 0x20 PUSH1 0x4 DUP3 ADD MSTORE PUSH1 0x13 PUSH1 0x24 DUP3 ADD MSTORE PUSH19 0x14DD1C985D1959DE481B9BDD081C185D5CD959 PUSH1 0x6A SHL PUSH1 0x44 DUP3 ADD MSTORE PUSH1 0x64 ADD PUSH2 0xBCA JUMP JUMPDEST PUSH1 0x1 PUSH1 0x1 PUSH1 0xA0 SHL SUB DUP2 AND PUSH0 DUP2 DUP2 MSTORE PUSH1 0xC PUSH1 0x20 MSTORE PUSH1 0x40 SWAP1 DUP2 SWAP1 KECCAK256 PUSH1 0x2 ADD DUP1 SLOAD PUSH1 0xFF NOT AND PUSH1 0x1 SWAP1 DUP2 OR SWAP1 SWAP2 SSTORE SWAP1 MLOAD PUSH32 0x71E4D9FADF21BB369876CEBBD9192D4D84150C2FB6D208D5D68D6FBDF0AABF76 SWAP2 PUSH2 0xF17 SWAP2 PUSH2 0x481F JUMP JUMPDEST PUSH1 0x40 MLOAD DUP1 SWAP2 SUB SWAP1 LOG2 POP JUMP JUMPDEST PUSH0 PUSH32 0x0 PUSH1 0x1 PUSH1 0x1 PUSH1 0xA0 SHL SUB AND PUSH4 0x313CE567 PUSH1 0x40 MLOAD DUP2 PUSH4 0xFFFFFFFF AND PUSH1 0xE0 SHL DUP2 MSTORE PUSH1 0x4 ADD PUSH1 0x20 PUSH1 0x40 MLOAD DUP1 DUP4 SUB DUP2 DUP7 GAS STATICCALL ISZERO DUP1 ISZERO PUSH2 0xF7F JUMPI RETURNDATASIZE PUSH0 DUP1 RETURNDATACOPY RETURNDATASIZE PUSH0 REVERT JUMPDEST POP POP POP POP PUSH1 0x40 MLOAD RETURNDATASIZE PUSH1 0x1F NOT PUSH1 0x1F DUP3 ADD AND DUP3 ADD DUP1 PUSH1 0x40 MSTORE POP DUP2 ADD SWAP1 PUSH2 0xFA3 SWAP2 SWAP1 PUSH2 0x482D JUMP JUMPDEST SWAP1 POP SWAP1 JUMP JUMPDEST PUSH0 DUP1 DUP1 JUMPDEST PUSH1 0xD SLOAD DUP2 LT ISZERO PUSH2 0xA94 JUMPI PUSH1 0xC PUSH0 PUSH1 0xD DUP4 DUP2 SLOAD DUP2 LT PUSH2 0xFCC JUMPI PUSH2 0xFCC PUSH2 0x46FE JUMP JUMPDEST PUSH0 SWAP2 DUP3 MSTORE PUSH1 0x20 DUP1 DUP4 KECCAK256 SWAP1 SWAP2 ADD SLOAD PUSH1 0x1 PUSH1 0x1 PUSH1 0xA0 SHL SUB AND DUP4 MSTORE DUP3 ADD SWAP3 SWAP1 SWAP3 MSTORE PUSH1 0x40 ADD SWAP1 KECCAK256 PUSH1 0x3 ADD SLOAD PUSH2 0xFFD SWAP1 DUP4 PUSH2 0x4726 JUMP JUMPDEST SWAP2 POP DUP1 PUSH2 0x1009 DUP2 PUSH2 0x4739 JUMP JUMPDEST SWAP2 POP POP PUSH2 0xFAC JUMP JUMPDEST PUSH2 0x1019 PUSH2 0x31A7 JUMP JUMPDEST PUSH2 0x1021 PUSH2 0x329A JUMP JUMPDEST JUMP JUMPDEST PUSH0 PUSH2 0x1030 PUSH1 0x7 SLOAD PUSH1 0xFF AND SWAP1 JUMP JUMPDEST ISZERO PUSH2 0x103C JUMPI POP PUSH0 SWAP2 SWAP1 POP JUMP JUMPDEST PUSH0 PUSH2 0x1045 PUSH2 0x903 JUMP JUMPDEST SWAP1 POP PUSH1 0xB SLOAD DUP2 LT PUSH2 0x1058 JUMPI POP PUSH0 SWAP3 SWAP2 POP POP JUMP JUMPDEST DUP1 PUSH1 0xB SLOAD PUSH2 0xE07 SWAP2 SWAP1 PUSH2 0x47F8 JUMP JUMPDEST PUSH1 0x60 DUP1 PUSH1 0x60 PUSH0 PUSH2 0x1074 PUSH2 0x903 JUMP JUMPDEST PUSH1 0xD SLOAD SWAP1 SWAP2 POP PUSH2 0x1085 DUP2 PUSH1 0x1 PUSH2 0x4726 JUMP JUMPDEST PUSH8 0xFFFFFFFFFFFFFFFF DUP2 GT ISZERO PUSH2 0x109D JUMPI PUSH2 0x109D PUSH2 0x484D JUMP JUMPDEST PUSH1 0x40 MLOAD SWAP1 DUP1 DUP3 MSTORE DUP1 PUSH1 0x20 MUL PUSH1 0x20 ADD DUP3 ADD PUSH1 0x40 MSTORE DUP1 ISZERO PUSH2 0x10C6 JUMPI DUP2 PUSH1 0x20 ADD PUSH1 0x20 DUP3 MUL DUP1 CALLDATASIZE DUP4 CALLDATACOPY ADD SWAP1 POP JUMPDEST POP SWAP5 POP PUSH2 0x10D4 DUP2 PUSH1 0x1 PUSH2 0x4726 JUMP JUMPDEST PUSH8 0xFFFFFFFFFFFFFFFF DUP2 GT ISZERO PUSH2 0x10EC JUMPI PUSH2 0x10EC PUSH2 0x484D JUMP JUMPDEST PUSH1 0x40 MLOAD SWAP1 DUP1 DUP3 MSTORE DUP1 PUSH1 0x20 MUL PUSH1 0x20 ADD DUP3 ADD PUSH1 0x40 MSTORE DUP1 ISZERO PUSH2 0x1115 JUMPI DUP2 PUSH1 0x20 ADD PUSH1 0x20 DUP3 MUL DUP1 CALLDATASIZE DUP4 CALLDATACOPY ADD SWAP1 POP JUMPDEST POP SWAP4 POP PUSH2 0x1123 DUP2 PUSH1 0x1 PUSH2 0x4726 JUMP JUMPDEST PUSH8 0xFFFFFFFFFFFFFFFF DUP2 GT ISZERO PUSH2 0x113B JUMPI PUSH2 0x113B PUSH2 0x484D JUMP JUMPDEST PUSH1 0x40 MLOAD SWAP1 DUP1 DUP3 MSTORE DUP1 PUSH1 0x20 MUL PUSH1 0x20 ADD DUP3 ADD PUSH1 0x40 MSTORE DUP1 ISZERO PUSH2 0x1164 JUMPI DUP2 PUSH1 0x20 ADD PUSH1 0x20 DUP3 MUL DUP1 CALLDATASIZE DUP4 CALLDATACOPY ADD SWAP1 POP JUMPDEST POP SWAP3 POP PUSH0 DUP6 PUSH0 DUP2 MLOAD DUP2 LT PUSH2 0x117A JUMPI PUSH2 0x117A PUSH2 0x46FE JUMP JUMPDEST PUSH1 0x1 PUSH1 0x1 PUSH1 0xA0 SHL SUB SWAP1 SWAP3 AND PUSH1 0x20 SWAP3 DUP4 MUL SWAP2 SWAP1 SWAP2 ADD SWAP1 SWAP2 ADD MSTORE DUP2 ISZERO PUSH2 0x11D6 JUMPI DUP2 PUSH2 0x11A1 PUSH2 0x2B28 JUMP JUMPDEST PUSH2 0x11AD SWAP1 PUSH2 0x2710 PUSH2 0x4783 JUMP JUMPDEST PUSH2 0x11B7 SWAP2 SWAP1 PUSH2 0x47AE JUMP JUMPDEST DUP5 PUSH0 DUP2 MLOAD DUP2 LT PUSH2 0x11C9 JUMPI PUSH2 0x11C9 PUSH2 0x46FE JUMP JUMPDEST PUSH1 0x20 MUL PUSH1 0x20 ADD ADD DUP2 DUP2 MSTORE POP POP JUMPDEST PUSH1 0xF SLOAD DUP4 PUSH0 DUP2 MLOAD DUP2 LT PUSH2 0x11EB JUMPI PUSH2 0x11EB PUSH2 0x46FE JUMP JUMPDEST PUSH1 0x20 MUL PUSH1 0x20 ADD ADD DUP2 DUP2 MSTORE POP POP PUSH0 JUMPDEST DUP2 DUP2 LT ISZERO PUSH2 0x1402 JUMPI PUSH0 PUSH1 0xD DUP3 DUP2 SLOAD DUP2 LT PUSH2 0x1215 JUMPI PUSH2 0x1215 PUSH2 0x46FE JUMP JUMPDEST PUSH0 SWAP2 DUP3 MSTORE PUSH1 0x20 SWAP1 SWAP2 KECCAK256 ADD SLOAD PUSH1 0x1 PUSH1 0x1 PUSH1 0xA0 SHL SUB AND SWAP1 POP DUP1 DUP8 PUSH2 0x1238 DUP5 PUSH1 0x1 PUSH2 0x4726 JUMP JUMPDEST DUP2 MLOAD DUP2 LT PUSH2 0x1248 JUMPI PUSH2 0x1248 PUSH2 0x46FE JUMP JUMPDEST PUSH1 0x20 MUL PUSH1 0x20 ADD ADD SWAP1 PUSH1 0x1 PUSH1 0x1 PUSH1 0xA0 SHL SUB AND SWAP1 DUP2 PUSH1 0x1 PUSH1 0x1 PUSH1 0xA0 SHL SUB AND DUP2 MSTORE POP POP PUSH0 DUP5 GT DUP1 ISZERO PUSH2 0x12A5 JUMPI POP PUSH1 0x1 PUSH1 0x1 PUSH1 0x1 PUSH1 0xA0 SHL SUB DUP3 AND PUSH0 SWAP1 DUP2 MSTORE PUSH1 0xC PUSH1 0x20 MSTORE PUSH1 0x40 SWAP1 KECCAK256 PUSH1 0x2 ADD SLOAD PUSH1 0xFF AND PUSH1 0x3 DUP2 GT ISZERO PUSH2 0x12A3 JUMPI PUSH2 0x12A3 PUSH2 0x44D6 JUMP JUMPDEST EQ JUMPDEST ISZERO PUSH2 0x13A9 JUMPI DUP1 PUSH1 0x1 PUSH1 0x1 PUSH1 0xA0 SHL SUB AND PUSH4 0x1E1D114 PUSH1 0x40 MLOAD DUP2 PUSH4 0xFFFFFFFF AND PUSH1 0xE0 SHL DUP2 MSTORE PUSH1 0x4 ADD PUSH1 0x20 PUSH1 0x40 MLOAD DUP1 DUP4 SUB DUP2 DUP7 GAS STATICCALL SWAP3 POP POP POP DUP1 ISZERO PUSH2 0x1304 JUMPI POP PUSH1 0x40 DUP1 MLOAD PUSH1 0x1F RETURNDATASIZE SWAP1 DUP2 ADD PUSH1 0x1F NOT AND DUP3 ADD SWAP1 SWAP3 MSTORE PUSH2 0x1301 SWAP2 DUP2 ADD SWAP1 PUSH2 0x46E7 JUMP JUMPDEST PUSH1 0x1 JUMPDEST PUSH2 0x1368 JUMPI PUSH1 0x1 PUSH1 0x1 PUSH1 0xA0 SHL SUB DUP2 AND PUSH0 SWAP1 DUP2 MSTORE PUSH1 0xC PUSH1 0x20 MSTORE PUSH1 0x40 SWAP1 KECCAK256 PUSH1 0x3 ADD SLOAD DUP5 SWAP1 PUSH2 0x1331 SWAP1 PUSH2 0x2710 PUSH2 0x4783 JUMP JUMPDEST PUSH2 0x133B SWAP2 SWAP1 PUSH2 0x47AE JUMP JUMPDEST DUP7 PUSH2 0x1347 DUP5 PUSH1 0x1 PUSH2 0x4726 JUMP JUMPDEST DUP2 MLOAD DUP2 LT PUSH2 0x1357 JUMPI PUSH2 0x1357 PUSH2 0x46FE JUMP JUMPDEST PUSH1 0x20 MUL PUSH1 0x20 ADD ADD DUP2 DUP2 MSTORE POP POP PUSH2 0x13A9 JUMP JUMPDEST DUP5 PUSH2 0x1375 DUP3 PUSH2 0x2710 PUSH2 0x4783 JUMP JUMPDEST PUSH2 0x137F SWAP2 SWAP1 PUSH2 0x47AE JUMP JUMPDEST DUP8 PUSH2 0x138B DUP6 PUSH1 0x1 PUSH2 0x4726 JUMP JUMPDEST DUP2 MLOAD DUP2 LT PUSH2 0x139B JUMPI PUSH2 0x139B PUSH2 0x46FE JUMP JUMPDEST PUSH1 0x20 MUL PUSH1 0x20 ADD ADD DUP2 DUP2 MSTORE POP POP POP JUMPDEST PUSH1 0x1 PUSH1 0x1 PUSH1 0xA0 SHL SUB DUP2 AND PUSH0 SWAP1 DUP2 MSTORE PUSH1 0xC PUSH1 0x20 MSTORE PUSH1 0x40 SWAP1 KECCAK256 PUSH1 0x1 SWAP1 DUP2 ADD SLOAD SWAP1 DUP7 SWAP1 PUSH2 0x13D4 SWAP1 DUP6 SWAP1 PUSH2 0x4726 JUMP JUMPDEST DUP2 MLOAD DUP2 LT PUSH2 0x13E4 JUMPI PUSH2 0x13E4 PUSH2 0x46FE JUMP JUMPDEST PUSH1 0x20 SWAP1 DUP2 MUL SWAP2 SWAP1 SWAP2 ADD ADD MSTORE POP DUP1 PUSH2 0x13FA DUP2 PUSH2 0x4739 JUMP JUMPDEST SWAP2 POP POP PUSH2 0x11F9 JUMP JUMPDEST POP POP POP SWAP1 SWAP2 SWAP3 JUMP JUMPDEST PUSH0 DUP1 PUSH2 0x1415 DUP4 PUSH2 0xB2A JUMP JUMPDEST SWAP1 POP PUSH0 PUSH2 0x2710 PUSH2 0x1426 PUSH1 0x14 DUP5 PUSH2 0x4783 JUMP JUMPDEST PUSH2 0x1430 SWAP2 SWAP1 PUSH2 0x47AE JUMP JUMPDEST SWAP1 POP PUSH2 0xB84 DUP2 DUP4 PUSH2 0x47F8 JUMP JUMPDEST PUSH2 0x1444 PUSH2 0x31A7 JUMP JUMPDEST PUSH2 0x2710 DUP2 GT ISZERO PUSH2 0x1466 JUMPI PUSH1 0x40 MLOAD PUSH3 0x461BCD PUSH1 0xE5 SHL DUP2 MSTORE PUSH1 0x4 ADD PUSH2 0xBCA SWAP1 PUSH2 0x4861 JUMP JUMPDEST PUSH0 DUP2 PUSH1 0xE SLOAD PUSH2 0x1475 SWAP2 SWAP1 PUSH2 0x4726 JUMP JUMPDEST SWAP1 POP PUSH2 0x2710 DUP2 GT ISZERO PUSH2 0x1499 JUMPI PUSH1 0x40 MLOAD PUSH3 0x461BCD PUSH1 0xE5 SHL DUP2 MSTORE PUSH1 0x4 ADD PUSH2 0xBCA SWAP1 PUSH2 0x4898 JUMP JUMPDEST PUSH1 0xF DUP3 SWAP1 SSTORE PUSH1 0x40 MLOAD DUP3 DUP2 MSTORE PUSH32 0x25D100BF71CE70005705F0F63E93DDD517F408C8FAD360538D0AE1F2204029A8 SWAP1 PUSH1 0x20 ADD PUSH1 0x40 MLOAD DUP1 SWAP2 SUB SWAP1 LOG1 POP POP JUMP JUMPDEST PUSH2 0x1504 PUSH1 0x40 DUP1 MLOAD PUSH1 0xA0 DUP2 ADD DUP3 MSTORE PUSH0 DUP1 DUP3 MSTORE PUSH1 0x20 DUP3 ADD DUP2 SWAP1 MSTORE SWAP1 SWAP2 DUP3 ADD SWAP1 DUP2 MSTORE PUSH1 0x20 ADD PUSH0 DUP2 MSTORE PUSH1 0x20 ADD PUSH0 DUP2 MSTORE POP SWAP1 JUMP JUMPDEST PUSH1 0x1 PUSH1 0x1 PUSH1 0xA0 SHL SUB DUP3 DUP2 AND PUSH0 SWAP1 DUP2 MSTORE PUSH1 0xC PUSH1 0x20 MSTORE PUSH1 0x40 SWAP1 KECCAK256 SLOAD AND PUSH2 0x153A JUMPI PUSH1 0x40 MLOAD PUSH3 0x461BCD PUSH1 0xE5 SHL DUP2 MSTORE PUSH1 0x4 ADD PUSH2 0xBCA SWAP1 PUSH2 0x47C1 JUMP JUMPDEST PUSH1 0x1 PUSH1 0x1 PUSH1 0xA0 SHL SUB DUP1 DUP4 AND PUSH0 SWAP1 DUP2 MSTORE PUSH1 0xC PUSH1 0x20 SWAP1 DUP2 MSTORE PUSH1 0x40 SWAP2 DUP3 SWAP1 KECCAK256 DUP3 MLOAD PUSH1 0xA0 DUP2 ADD DUP5 MSTORE DUP2 SLOAD SWAP1 SWAP5 AND DUP5 MSTORE PUSH1 0x1 DUP2 ADD SLOAD SWAP2 DUP5 ADD SWAP2 SWAP1 SWAP2 MSTORE PUSH1 0x2 DUP2 ADD SLOAD SWAP1 SWAP2 DUP4 ADD SWAP1 PUSH1 0xFF AND PUSH1 0x3 DUP2 GT ISZERO PUSH2 0x158F JUMPI PUSH2 0x158F PUSH2 0x44D6 JUMP JUMPDEST PUSH1 0x3 DUP2 GT ISZERO PUSH2 0x15A0 JUMPI PUSH2 0x15A0 PUSH2 0x44D6 JUMP JUMPDEST DUP2 MSTORE PUSH1 0x3 DUP3 ADD SLOAD PUSH1 0x20 DUP3 ADD MSTORE PUSH1 0x4 SWAP1 SWAP2 ADD SLOAD PUSH1 0x40 SWAP1 SWAP2 ADD MSTORE SWAP3 SWAP2 POP POP JUMP JUMPDEST PUSH1 0x60 PUSH0 DUP1 JUMPDEST PUSH1 0xD SLOAD DUP2 LT ISZERO PUSH2 0x1645 JUMPI PUSH1 0x1 PUSH1 0xC PUSH0 PUSH1 0xD DUP5 DUP2 SLOAD DUP2 LT PUSH2 0x15E5 JUMPI PUSH2 0x15E5 PUSH2 0x46FE JUMP JUMPDEST PUSH0 SWAP2 DUP3 MSTORE PUSH1 0x20 DUP1 DUP4 KECCAK256 SWAP1 SWAP2 ADD SLOAD PUSH1 0x1 PUSH1 0x1 PUSH1 0xA0 SHL SUB AND DUP4 MSTORE DUP3 ADD SWAP3 SWAP1 SWAP3 MSTORE PUSH1 0x40 ADD SWAP1 KECCAK256 PUSH1 0x2 ADD SLOAD PUSH1 0xFF AND PUSH1 0x3 DUP2 GT ISZERO PUSH2 0x1620 JUMPI PUSH2 0x1620 PUSH2 0x44D6 JUMP JUMPDEST SUB PUSH2 0x1633 JUMPI DUP2 PUSH2 0x162F DUP2 PUSH2 0x4739 JUMP JUMPDEST SWAP3 POP POP JUMPDEST DUP1 PUSH2 0x163D DUP2 PUSH2 0x4739 JUMP JUMPDEST SWAP2 POP POP PUSH2 0x15C3 JUMP JUMPDEST POP PUSH0 DUP2 PUSH8 0xFFFFFFFFFFFFFFFF DUP2 GT ISZERO PUSH2 0x1660 JUMPI PUSH2 0x1660 PUSH2 0x484D JUMP JUMPDEST PUSH1 0x40 MLOAD SWAP1 DUP1 DUP3 MSTORE DUP1 PUSH1 0x20 MUL PUSH1 0x20 ADD DUP3 ADD PUSH1 0x40 MSTORE DUP1 ISZERO PUSH2 0x1689 JUMPI DUP2 PUSH1 0x20 ADD PUSH1 0x20 DUP3 MUL DUP1 CALLDATASIZE DUP4 CALLDATACOPY ADD SWAP1 POP JUMPDEST POP SWAP1 POP PUSH0 DUP1 JUMPDEST PUSH1 0xD SLOAD DUP2 LT ISZERO PUSH2 0x1769 JUMPI PUSH1 0x1 PUSH1 0xC PUSH0 PUSH1 0xD DUP5 DUP2 SLOAD DUP2 LT PUSH2 0x16B1 JUMPI PUSH2 0x16B1 PUSH2 0x46FE JUMP JUMPDEST PUSH0 SWAP2 DUP3 MSTORE PUSH1 0x20 DUP1 DUP4 KECCAK256 SWAP1 SWAP2 ADD SLOAD PUSH1 0x1 PUSH1 0x1 PUSH1 0xA0 SHL SUB AND DUP4 MSTORE DUP3 ADD SWAP3 SWAP1 SWAP3 MSTORE PUSH1 0x40 ADD SWAP1 KECCAK256 PUSH1 0x2 ADD SLOAD PUSH1 0xFF AND PUSH1 0x3 DUP2 GT ISZERO PUSH2 0x16EC JUMPI PUSH2 0x16EC PUSH2 0x44D6 JUMP JUMPDEST SUB PUSH2 0x1757 JUMPI PUSH1 0xD DUP2 DUP2 SLOAD DUP2 LT PUSH2 0x1704 JUMPI PUSH2 0x1704 PUSH2 0x46FE JUMP JUMPDEST SWAP1 PUSH0 MSTORE PUSH1 0x20 PUSH0 KECCAK256 ADD PUSH0 SWAP1 SLOAD SWAP1 PUSH2 0x100 EXP SWAP1 DIV PUSH1 0x1 PUSH1 0x1 PUSH1 0xA0 SHL SUB AND DUP4 DUP4 DUP2 MLOAD DUP2 LT PUSH2 0x1731 JUMPI PUSH2 0x1731 PUSH2 0x46FE JUMP JUMPDEST PUSH1 0x1 PUSH1 0x1 PUSH1 0xA0 SHL SUB SWAP1 SWAP3 AND PUSH1 0x20 SWAP3 DUP4 MUL SWAP2 SWAP1 SWAP2 ADD SWAP1 SWAP2 ADD MSTORE DUP2 PUSH2 0x1753 DUP2 PUSH2 0x4739 JUMP JUMPDEST SWAP3 POP POP JUMPDEST DUP1 PUSH2 0x1761 DUP2 PUSH2 0x4739 JUMP JUMPDEST SWAP2 POP POP PUSH2 0x168F JUMP JUMPDEST POP SWAP1 SWAP4 SWAP3 POP POP POP JUMP JUMPDEST PUSH0 PUSH2 0x177B PUSH2 0x32EC JUMP JUMPDEST PUSH2 0x1783 PUSH2 0x3316 JUMP JUMPDEST PUSH1 0xA SLOAD DUP4 LT ISZERO PUSH2 0x17CD JUMPI PUSH1 0x40 MLOAD PUSH3 0x461BCD PUSH1 0xE5 SHL DUP2 MSTORE PUSH1 0x20 PUSH1 0x4 DUP3 ADD MSTORE PUSH1 0x15 PUSH1 0x24 DUP3 ADD MSTORE PUSH21 0x10995B1BDDC81B5A5B9A5B5D5B4819195C1BDCDA5D PUSH1 0x5A SHL PUSH1 0x44 DUP3 ADD MSTORE PUSH1 0x64 ADD PUSH2 0xBCA JUMP JUMPDEST PUSH2 0x17D7 DUP4 DUP4 PUSH2 0x333A JUMP JUMPDEST SWAP1 POP PUSH2 0xB35 PUSH1 0x1 PUSH1 0x6 SSTORE JUMP JUMPDEST PUSH2 0x17EB PUSH2 0x31A7 JUMP JUMPDEST PUSH1 0x1 PUSH1 0x1 PUSH1 0xA0 SHL SUB DUP3 DUP2 AND PUSH0 SWAP1 DUP2 MSTORE PUSH1 0xC PUSH1 0x20 MSTORE PUSH1 0x40 SWAP1 KECCAK256 SLOAD AND PUSH2 0x1821 JUMPI PUSH1 0x40 MLOAD PUSH3 0x461BCD PUSH1 0xE5 SHL DUP2 MSTORE PUSH1 0x4 ADD PUSH2 0xBCA SWAP1 PUSH2 0x47C1 JUMP JUMPDEST PUSH2 0x2710 DUP2 GT ISZERO PUSH2 0x1843 JUMPI PUSH1 0x40 MLOAD PUSH3 0x461BCD PUSH1 0xE5 SHL DUP2 MSTORE PUSH1 0x4 ADD PUSH2 0xBCA SWAP1 PUSH2 0x4861 JUMP JUMPDEST PUSH1 0x1 PUSH1 0x1 PUSH1 0xA0 SHL SUB DUP3 AND PUSH0 SWAP1 DUP2 MSTORE PUSH1 0xC PUSH1 0x20 MSTORE PUSH1 0x40 DUP2 KECCAK256 PUSH1 0x1 ADD SLOAD PUSH1 0xF SLOAD PUSH1 0xE SLOAD SWAP2 SWAP3 SWAP2 DUP5 SWAP1 PUSH2 0x1874 SWAP1 DUP6 SWAP1 PUSH2 0x47F8 JUMP JUMPDEST PUSH2 0x187E SWAP2 SWAP1 PUSH2 0x4726 JUMP JUMPDEST PUSH2 0x1888 SWAP2 SWAP1 PUSH2 0x4726 JUMP JUMPDEST SWAP1 POP PUSH2 0x2710 DUP2 GT ISZERO PUSH2 0x18AC JUMPI PUSH1 0x40 MLOAD PUSH3 0x461BCD PUSH1 0xE5 SHL DUP2 MSTORE PUSH1 0x4 ADD PUSH2 0xBCA SWAP1 PUSH2 0x4898 JUMP JUMPDEST DUP3 DUP3 PUSH1 0xE SLOAD PUSH2 0x18BB SWAP2 SWAP1 PUSH2 0x47F8 JUMP JUMPDEST PUSH2 0x18C5 SWAP2 SWAP1 PUSH2 0x4726 JUMP JUMPDEST PUSH1 0xE SSTORE PUSH1 0x1 PUSH1 0x1 PUSH1 0xA0 SHL SUB DUP5 AND PUSH0 DUP2 DUP2 MSTORE PUSH1 0xC PUSH1 0x20 MSTORE PUSH1 0x40 SWAP1 DUP2 SWAP1 KECCAK256 PUSH1 0x1 ADD DUP6 SWAP1 SSTORE MLOAD PUSH32 0xEDA1127DBE257A768246136B79DE9D901A2A66B37E0197435F9B4C2E499095C4 SWAP1 PUSH2 0x1917 SWAP1 DUP7 DUP2 MSTORE PUSH1 0x20 ADD SWAP1 JUMP JUMPDEST PUSH1 0x40 MLOAD DUP1 SWAP2 SUB SWAP1 LOG2 POP POP POP POP JUMP JUMPDEST PUSH2 0x192D PUSH2 0x31A7 JUMP JUMPDEST PUSH2 0x1021 PUSH0 PUSH2 0x3386 JUMP JUMPDEST PUSH2 0x193E PUSH2 0x31A7 JUMP JUMPDEST PUSH2 0x1021 PUSH2 0x33D7 JUMP JUMPDEST PUSH2 0x194E PUSH2 0x31A7 JUMP JUMPDEST PUSH0 DUP2 GT PUSH2 0x199D JUMPI PUSH1 0x40 MLOAD PUSH3 0x461BCD PUSH1 0xE5 SHL DUP2 MSTORE PUSH1 0x20 PUSH1 0x4 DUP3 ADD MSTORE PUSH1 0x1C PUSH1 0x24 DUP3 ADD MSTORE PUSH32 0x4D696E206465706F736974206D75737420626520706F73697469766500000000 PUSH1 0x44 DUP3 ADD MSTORE PUSH1 0x64 ADD PUSH2 0xBCA JUMP JUMPDEST PUSH1 0xA DUP2 SWAP1 SSTORE PUSH1 0x40 MLOAD DUP2 DUP2 MSTORE PUSH32 0x96A008F96F1C0AB9FA3D9DDD43CDFC614848C4D054D51F43662ED900E9D094C8 SWAP1 PUSH1 0x20 ADD JUMPDEST PUSH1 0x40 MLOAD DUP1 SWAP2 SUB SWAP1 LOG1 POP JUMP JUMPDEST PUSH0 PUSH2 0x19E2 PUSH2 0x32EC JUMP JUMPDEST PUSH2 0x19EA PUSH2 0x3316 JUMP JUMPDEST PUSH0 PUSH2 0x19F4 DUP5 PUSH2 0x1C08 JUMP JUMPDEST SWAP1 POP PUSH1 0xA SLOAD DUP2 LT ISZERO PUSH2 0x1A40 JUMPI PUSH1 0x40 MLOAD PUSH3 0x461BCD PUSH1 0xE5 SHL DUP2 MSTORE PUSH1 0x20 PUSH1 0x4 DUP3 ADD MSTORE PUSH1 0x15 PUSH1 0x24 DUP3 ADD MSTORE PUSH21 0x10995B1BDDC81B5A5B9A5B5D5B4819195C1BDCDA5D PUSH1 0x5A SHL PUSH1 0x44 DUP3 ADD MSTORE PUSH1 0x64 ADD PUSH2 0xBCA JUMP JUMPDEST PUSH2 0x1A4A DUP5 DUP5 PUSH2 0x3414 JUMP JUMPDEST SWAP2 POP POP PUSH2 0xB35 PUSH1 0x1 PUSH1 0x6 SSTORE JUMP JUMPDEST PUSH1 0x60 PUSH1 0x4 DUP1 SLOAD PUSH2 0xAA9 SWAP1 PUSH2 0x4751 JUMP JUMPDEST PUSH2 0x1A6E PUSH2 0x31A7 JUMP JUMPDEST PUSH1 0x1 PUSH1 0x1 PUSH1 0xA0 SHL SUB DUP2 AND PUSH2 0x1AC4 JUMPI PUSH1 0x40 MLOAD PUSH3 0x461BCD PUSH1 0xE5 SHL DUP2 MSTORE PUSH1 0x20 PUSH1 0x4 DUP3 ADD MSTORE PUSH1 0x18 PUSH1 0x24 DUP3 ADD MSTORE PUSH32 0x496E76616C6964206F70657261746F7220616464726573730000000000000000 PUSH1 0x44 DUP3 ADD MSTORE PUSH1 0x64 ADD PUSH2 0xBCA JUMP JUMPDEST PUSH1 0x1 PUSH1 0x1 PUSH1 0xA0 SHL SUB DUP2 AND PUSH0 DUP2 DUP2 MSTORE PUSH1 0x9 PUSH1 0x20 MSTORE PUSH1 0x40 DUP1 DUP3 KECCAK256 DUP1 SLOAD PUSH1 0xFF NOT AND PUSH1 0x1 OR SWAP1 SSTORE MLOAD PUSH32 0xAC6FA858E9350A46CEC16539926E0FDE25B7629F84B5A72BFFAAE4DF888AE86D SWAP2 SWAP1 LOG2 POP JUMP JUMPDEST PUSH1 0xD DUP2 DUP2 SLOAD DUP2 LT PUSH2 0x1B1E JUMPI PUSH0 DUP1 REVERT JUMPDEST PUSH0 SWAP2 DUP3 MSTORE PUSH1 0x20 SWAP1 SWAP2 KECCAK256 ADD SLOAD PUSH1 0x1 PUSH1 0x1 PUSH1 0xA0 SHL SUB AND SWAP1 POP DUP2 JUMP JUMPDEST PUSH0 DUP1 PUSH0 DUP1 PUSH0 PUSH2 0x1B44 PUSH2 0x2B28 JUMP JUMPDEST SWAP5 POP PUSH2 0x1B4E PUSH2 0x1BE5 JUMP JUMPDEST SWAP4 POP PUSH1 0xF SLOAD SWAP1 POP DUP4 DUP6 LT ISZERO PUSH2 0x1B71 JUMPI PUSH2 0x1B67 DUP6 DUP6 PUSH2 0x47F8 JUMP JUMPDEST SWAP3 POP PUSH0 SWAP2 POP PUSH2 0x1B81 JUMP JUMPDEST PUSH0 SWAP3 POP PUSH2 0x1B7E DUP5 DUP7 PUSH2 0x47F8 JUMP JUMPDEST SWAP2 POP JUMPDEST SWAP1 SWAP2 SWAP3 SWAP4 SWAP5 JUMP JUMPDEST PUSH0 CALLER PUSH2 0xB48 DUP2 DUP6 DUP6 PUSH2 0x323D JUMP JUMPDEST PUSH2 0x1B9D PUSH2 0x31A7 JUMP JUMPDEST PUSH1 0x1 PUSH1 0x1 PUSH1 0xA0 SHL SUB DUP2 AND PUSH0 DUP2 DUP2 MSTORE PUSH1 0x9 PUSH1 0x20 MSTORE PUSH1 0x40 DUP1 DUP3 KECCAK256 DUP1 SLOAD PUSH1 0xFF NOT AND SWAP1 SSTORE MLOAD PUSH32 0x80C0B871B97B595B16A7741C1B06FED0C6F6F558639F18CCBCE50724325DC40D SWAP2 SWAP1 LOG2 POP JUMP JUMPDEST PUSH0 PUSH2 0x2710 PUSH1 0xF SLOAD PUSH2 0x1BF4 PUSH2 0x903 JUMP JUMPDEST PUSH2 0x1BFE SWAP2 SWAP1 PUSH2 0x4783 JUMP JUMPDEST PUSH2 0xFA3 SWAP2 SWAP1 PUSH2 0x47AE JUMP JUMPDEST PUSH0 DUP1 PUSH2 0x1C13 DUP4 PUSH2 0x3460 JUMP JUMPDEST SWAP1 POP PUSH2 0x1C22 PUSH1 0x14 PUSH2 0x2710 PUSH2 0x47F8 JUMP JUMPDEST PUSH2 0x1C2E DUP3 PUSH2 0x2710 PUSH2 0x4783 JUMP JUMPDEST PUSH2 0xE07 SWAP2 SWAP1 PUSH2 0x47AE JUMP JUMPDEST PUSH0 PUSH2 0x1C41 PUSH2 0x32EC JUMP JUMPDEST PUSH2 0x1C49 PUSH2 0x3316 JUMP JUMPDEST PUSH2 0x1C54 DUP5 DUP5 DUP5 PUSH2 0x346C JUMP JUMPDEST SWAP1 POP PUSH2 0xE07 PUSH1 0x1 PUSH1 0x6 SSTORE JUMP JUMPDEST CALLER PUSH0 SWAP1 DUP2 MSTORE PUSH1 0x9 PUSH1 0x20 MSTORE PUSH1 0x40 SWAP1 KECCAK256 SLOAD PUSH1 0xFF AND DUP1 PUSH2 0x1C87 JUMPI POP PUSH1 0x5 SLOAD PUSH1 0x1 PUSH1 0x1 PUSH1 0xA0 SHL SUB AND CALLER EQ JUMPDEST PUSH2 0x1CA3 JUMPI PUSH1 0x40 MLOAD PUSH3 0x461BCD PUSH1 0xE5 SHL DUP2 MSTORE PUSH1 0x4 ADD PUSH2 0xBCA SWAP1 PUSH2 0x48CF JUMP JUMPDEST PUSH2 0x1CAB PUSH2 0x32EC JUMP JUMPDEST PUSH1 0x1 PUSH1 0x1 PUSH1 0xA0 SHL SUB DUP3 DUP2 AND PUSH0 SWAP1 DUP2 MSTORE PUSH1 0xC PUSH1 0x20 MSTORE PUSH1 0x40 SWAP1 KECCAK256 SLOAD AND PUSH2 0x1CE1 JUMPI PUSH1 0x40 MLOAD PUSH3 0x461BCD PUSH1 0xE5 SHL DUP2 MSTORE PUSH1 0x4 ADD PUSH2 0xBCA SWAP1 PUSH2 0x47C1 JUMP JUMPDEST PUSH0 DUP2 GT PUSH2 0x1D2A JUMPI PUSH1 0x40 MLOAD PUSH3 0x461BCD PUSH1 0xE5 SHL DUP2 MSTORE PUSH1 0x20 PUSH1 0x4 DUP3 ADD MSTORE PUSH1 0x17 PUSH1 0x24 DUP3 ADD MSTORE PUSH23 0x416D6F756E74206D75737420626520706F736974697665 PUSH1 0x48 SHL PUSH1 0x44 DUP3 ADD MSTORE PUSH1 0x64 ADD PUSH2 0xBCA JUMP JUMPDEST PUSH1 0x1 PUSH1 0x1 PUSH1 0xA0 SHL SUB DUP3 AND PUSH0 SWAP1 DUP2 MSTORE PUSH1 0xC PUSH1 0x20 MSTORE PUSH1 0x40 SWAP1 KECCAK256 PUSH1 0x3 ADD SLOAD DUP2 GT ISZERO PUSH2 0x1D94 JUMPI PUSH1 0x40 MLOAD PUSH3 0x461BCD PUSH1 0xE5 SHL DUP2 MSTORE PUSH1 0x20 PUSH1 0x4 DUP3 ADD MSTORE PUSH1 0x19 PUSH1 0x24 DUP3 ADD MSTORE PUSH32 0x57697468647261772065786365656473206465706C6F79656400000000000000 PUSH1 0x44 DUP3 ADD MSTORE PUSH1 0x64 ADD PUSH2 0xBCA JUMP JUMPDEST PUSH0 PUSH32 0x0 PUSH1 0x40 MLOAD PUSH4 0x70A08231 PUSH1 0xE0 SHL DUP2 MSTORE ADDRESS PUSH1 0x4 DUP3 ADD MSTORE PUSH1 0x1 PUSH1 0x1 PUSH1 0xA0 SHL SUB SWAP2 SWAP1 SWAP2 AND SWAP1 PUSH4 0x70A08231 SWAP1 PUSH1 0x24 ADD PUSH1 0x20 PUSH1 0x40 MLOAD DUP1 DUP4 SUB DUP2 DUP7 GAS STATICCALL ISZERO DUP1 ISZERO PUSH2 0x1DFA JUMPI RETURNDATASIZE PUSH0 DUP1 RETURNDATACOPY RETURNDATASIZE PUSH0 REVERT JUMPDEST POP POP POP POP PUSH1 0x40 MLOAD RETURNDATASIZE PUSH1 0x1F NOT PUSH1 0x1F DUP3 ADD AND DUP3 ADD DUP1 PUSH1 0x40 MSTORE POP DUP2 ADD SWAP1 PUSH2 0x1E1E SWAP2 SWAP1 PUSH2 0x46E7 JUMP JUMPDEST PUSH1 0x40 MLOAD PUSH3 0x7B8A67 PUSH1 0xE1 SHL DUP2 MSTORE PUSH1 0x4 DUP2 ADD DUP5 SWAP1 MSTORE ADDRESS PUSH1 0x24 DUP3 ADD MSTORE SWAP1 SWAP2 POP PUSH0 SWAP1 PUSH1 0x1 PUSH1 0x1 PUSH1 0xA0 SHL SUB DUP6 AND SWAP1 PUSH3 0xF714CE SWAP1 PUSH1 0x44 ADD PUSH1 0x20 PUSH1 0x40 MLOAD DUP1 DUP4 SUB DUP2 PUSH0 DUP8 GAS CALL ISZERO DUP1 ISZERO PUSH2 0x1E6B JUMPI RETURNDATASIZE PUSH0 DUP1 RETURNDATACOPY RETURNDATASIZE PUSH0 REVERT JUMPDEST POP POP POP POP PUSH1 0x40 MLOAD RETURNDATASIZE PUSH1 0x1F NOT PUSH1 0x1F DUP3 ADD AND DUP3 ADD DUP1 PUSH1 0x40 MSTORE POP DUP2 ADD SWAP1 PUSH2 0x1E8F SWAP2 SWAP1 PUSH2 0x46E7 JUMP JUMPDEST SWAP1 POP PUSH0 PUSH32 0x0 PUSH1 0x40 MLOAD PUSH4 0x70A08231 PUSH1 0xE0 SHL DUP2 MSTORE ADDRESS PUSH1 0x4 DUP3 ADD MSTORE PUSH1 0x1 PUSH1 0x1 PUSH1 0xA0 SHL SUB SWAP2 SWAP1 SWAP2 AND SWAP1 PUSH4 0x70A08231 SWAP1 PUSH1 0x24 ADD PUSH1 0x20 PUSH1 0x40 MLOAD DUP1 DUP4 SUB DUP2 DUP7 GAS STATICCALL ISZERO DUP1 ISZERO PUSH2 0x1EF7 JUMPI RETURNDATASIZE PUSH0 DUP1 RETURNDATACOPY RETURNDATASIZE PUSH0 REVERT JUMPDEST POP POP POP POP PUSH1 0x40 MLOAD RETURNDATASIZE PUSH1 0x1F NOT PUSH1 0x1F DUP3 ADD AND DUP3 ADD DUP1 PUSH1 0x40 MSTORE POP DUP2 ADD SWAP1 PUSH2 0x1F1B SWAP2 SWAP1 PUSH2 0x46E7 JUMP JUMPDEST SWAP1 POP DUP3 DUP2 LT ISZERO PUSH2 0x1F6D JUMPI PUSH1 0x40 MLOAD PUSH3 0x461BCD PUSH1 0xE5 SHL DUP2 MSTORE PUSH1 0x20 PUSH1 0x4 DUP3 ADD MSTORE PUSH1 0x17 PUSH1 0x24 DUP3 ADD MSTORE PUSH32 0x5661756C742062616C616E636520646563726561736564000000000000000000 PUSH1 0x44 DUP3 ADD MSTORE PUSH1 0x64 ADD PUSH2 0xBCA JUMP JUMPDEST PUSH0 PUSH2 0x1F78 DUP5 DUP4 PUSH2 0x47F8 JUMP JUMPDEST SWAP1 POP PUSH0 DUP2 GT PUSH2 0x1FC9 JUMPI PUSH1 0x40 MLOAD PUSH3 0x461BCD PUSH1 0xE5 SHL DUP2 MSTORE PUSH1 0x20 PUSH1 0x4 DUP3 ADD MSTORE PUSH1 0x1F PUSH1 0x24 DUP3 ADD MSTORE PUSH32 0x4E6F2066756E64732072656365697665642066726F6D20737472617465677900 PUSH1 0x44 DUP3 ADD MSTORE PUSH1 0x64 ADD PUSH2 0xBCA JUMP JUMPDEST PUSH1 0x1 PUSH1 0x1 PUSH1 0xA0 SHL SUB DUP7 AND PUSH0 SWAP1 DUP2 MSTORE PUSH1 0xC PUSH1 0x20 MSTORE PUSH1 0x40 SWAP1 KECCAK256 PUSH1 0x3 ADD SLOAD DUP2 GT PUSH2 0x201F JUMPI PUSH1 0x1 PUSH1 0x1 PUSH1 0xA0 SHL SUB DUP7 AND PUSH0 SWAP1 DUP2 MSTORE PUSH1 0xC PUSH1 0x20 MSTORE PUSH1 0x40 DUP2 KECCAK256 PUSH1 0x3 ADD DUP1 SLOAD DUP4 SWAP3 SWAP1 PUSH2 0x2014 SWAP1 DUP5 SWAP1 PUSH2 0x47F8 JUMP JUMPDEST SWAP1 SWAP2 SSTORE POP PUSH2 0x203B SWAP1 POP JUMP JUMPDEST PUSH1 0x1 PUSH1 0x1 PUSH1 0xA0 SHL SUB DUP7 AND PUSH0 SWAP1 DUP2 MSTORE PUSH1 0xC PUSH1 0x20 MSTORE PUSH1 0x40 DUP2 KECCAK256 PUSH1 0x3 ADD SSTORE JUMPDEST PUSH1 0x40 DUP1 MLOAD DUP7 DUP2 MSTORE PUSH1 0x20 DUP2 ADD DUP6 SWAP1 MSTORE PUSH1 0x1 PUSH1 0x1 PUSH1 0xA0 SHL SUB DUP9 AND SWAP2 PUSH32 0x490DFB4CE52333704763AEE75EDBA596CEAAB548BCCAFC900F79C2B9F6381B08 SWAP2 ADD JUMPDEST PUSH1 0x40 MLOAD DUP1 SWAP2 SUB SWAP1 LOG2 POP POP POP POP PUSH2 0x208E PUSH1 0x1 PUSH1 0x6 SSTORE JUMP JUMPDEST POP POP JUMP JUMPDEST PUSH0 PUSH2 0x209B PUSH2 0x32EC JUMP JUMPDEST PUSH2 0x20A3 PUSH2 0x3316 JUMP JUMPDEST PUSH2 0x1C54 DUP5 DUP5 DUP5 PUSH2 0x34C2 JUMP JUMPDEST PUSH2 0x20B6 PUSH2 0x31A7 JUMP JUMPDEST PUSH0 DUP2 GT PUSH2 0x2105 JUMPI PUSH1 0x40 MLOAD PUSH3 0x461BCD PUSH1 0xE5 SHL DUP2 MSTORE PUSH1 0x20 PUSH1 0x4 DUP3 ADD MSTORE PUSH1 0x1E PUSH1 0x24 DUP3 ADD MSTORE PUSH32 0x4465706F736974206C696D6974206D75737420626520706F7369746976650000 PUSH1 0x44 DUP3 ADD MSTORE PUSH1 0x64 ADD PUSH2 0xBCA JUMP JUMPDEST PUSH1 0xB DUP2 SWAP1 SSTORE PUSH1 0x40 MLOAD DUP2 DUP2 MSTORE PUSH32 0xC512617347FD848EC9D7347C99C10E4FA7059132C92D0445930A7FB0C8252FF5 SWAP1 PUSH1 0x20 ADD PUSH2 0x19CE JUMP JUMPDEST PUSH1 0x60 PUSH1 0xD DUP1 SLOAD DUP1 PUSH1 0x20 MUL PUSH1 0x20 ADD PUSH1 0x40 MLOAD SWAP1 DUP2 ADD PUSH1 0x40 MSTORE DUP1 SWAP3 SWAP2 SWAP1 DUP2 DUP2 MSTORE PUSH1 0x20 ADD DUP3 DUP1 SLOAD DUP1 ISZERO PUSH2 0xB20 JUMPI PUSH1 0x20 MUL DUP3 ADD SWAP2 SWAP1 PUSH0 MSTORE PUSH1 0x20 PUSH0 KECCAK256 SWAP1 JUMPDEST DUP2 SLOAD PUSH1 0x1 PUSH1 0x1 PUSH1 0xA0 SHL SUB AND DUP2 MSTORE PUSH1 0x1 SWAP1 SWAP2 ADD SWAP1 PUSH1 0x20 ADD DUP1 DUP4 GT PUSH2 0x2172 JUMPI POP POP POP POP POP SWAP1 POP SWAP1 JUMP JUMPDEST PUSH0 PUSH2 0x21A6 PUSH1 0x7 SLOAD PUSH1 0xFF AND SWAP1 JUMP JUMPDEST ISZERO PUSH2 0x21B2 JUMPI POP PUSH0 SWAP2 SWAP1 POP JUMP JUMPDEST PUSH0 PUSH2 0x21BB PUSH2 0x903 JUMP JUMPDEST SWAP1 POP PUSH1 0xB SLOAD DUP2 LT PUSH2 0x21CE JUMPI POP PUSH0 SWAP3 SWAP2 POP POP JUMP JUMPDEST PUSH0 DUP2 PUSH1 0xB SLOAD PUSH2 0x21DD SWAP2 SWAP1 PUSH2 0x47F8 JUMP JUMPDEST SWAP1 POP PUSH2 0xB84 DUP2 PUSH0 PUSH2 0x350F JUMP JUMPDEST PUSH0 PUSH2 0xB35 DUP3 PUSH0 PUSH2 0x350F JUMP JUMPDEST PUSH2 0x21FC PUSH2 0x31A7 JUMP JUMPDEST PUSH1 0x1 PUSH1 0x1 PUSH1 0xA0 SHL SUB DUP3 AND PUSH2 0x2252 JUMPI PUSH1 0x40 MLOAD PUSH3 0x461BCD PUSH1 0xE5 SHL DUP2 MSTORE PUSH1 0x20 PUSH1 0x4 DUP3 ADD MSTORE PUSH1 0x18 PUSH1 0x24 DUP3 ADD MSTORE PUSH32 0x496E76616C696420737472617465677920616464726573730000000000000000 PUSH1 0x44 DUP3 ADD MSTORE PUSH1 0x64 ADD PUSH2 0xBCA JUMP JUMPDEST PUSH1 0x1 PUSH1 0x1 PUSH1 0xA0 SHL SUB DUP3 DUP2 AND PUSH0 SWAP1 DUP2 MSTORE PUSH1 0xC PUSH1 0x20 MSTORE PUSH1 0x40 SWAP1 KECCAK256 SLOAD AND ISZERO PUSH2 0x22B9 JUMPI PUSH1 0x40 MLOAD PUSH3 0x461BCD PUSH1 0xE5 SHL DUP2 MSTORE PUSH1 0x20 PUSH1 0x4 DUP3 ADD MSTORE PUSH1 0x17 PUSH1 0x24 DUP3 ADD MSTORE PUSH32 0x537472617465677920616C726561647920657869737473000000000000000000 PUSH1 0x44 DUP3 ADD MSTORE PUSH1 0x64 ADD PUSH2 0xBCA JUMP JUMPDEST PUSH2 0x2710 DUP2 GT ISZERO PUSH2 0x22DB JUMPI PUSH1 0x40 MLOAD PUSH3 0x461BCD PUSH1 0xE5 SHL DUP2 MSTORE PUSH1 0x4 ADD PUSH2 0xBCA SWAP1 PUSH2 0x4861 JUMP JUMPDEST PUSH0 PUSH1 0xF SLOAD DUP3 PUSH1 0xE SLOAD PUSH2 0x22ED SWAP2 SWAP1 PUSH2 0x4726 JUMP JUMPDEST PUSH2 0x22F7 SWAP2 SWAP1 PUSH2 0x4726 JUMP JUMPDEST SWAP1 POP PUSH2 0x2710 DUP2 GT ISZERO PUSH2 0x231B JUMPI PUSH1 0x40 MLOAD PUSH3 0x461BCD PUSH1 0xE5 SHL DUP2 MSTORE PUSH1 0x4 ADD PUSH2 0xBCA SWAP1 PUSH2 0x4898 JUMP JUMPDEST DUP3 PUSH1 0x1 PUSH1 0x1 PUSH1 0xA0 SHL SUB AND PUSH4 0x38D52E0F PUSH1 0x40 MLOAD DUP2 PUSH4 0xFFFFFFFF AND PUSH1 0xE0 SHL DUP2 MSTORE PUSH1 0x4 ADD PUSH1 0x20 PUSH1 0x40 MLOAD DUP1 DUP4 SUB DUP2 DUP7 GAS STATICCALL SWAP3 POP POP POP DUP1 ISZERO PUSH2 0x2375 JUMPI POP PUSH1 0x40 DUP1 MLOAD PUSH1 0x1F RETURNDATASIZE SWAP1 DUP2 ADD PUSH1 0x1F NOT AND DUP3 ADD SWAP1 SWAP3 MSTORE PUSH2 0x2372 SWAP2 DUP2 ADD SWAP1 PUSH2 0x48F7 JUMP JUMPDEST PUSH1 0x1 JUMPDEST PUSH2 0x23C1 JUMPI PUSH1 0x40 MLOAD PUSH3 0x461BCD PUSH1 0xE5 SHL DUP2 MSTORE PUSH1 0x20 PUSH1 0x4 DUP3 ADD MSTORE PUSH1 0x19 PUSH1 0x24 DUP3 ADD MSTORE PUSH32 0x496E76616C696420737472617465677920636F6E747261637400000000000000 PUSH1 0x44 DUP3 ADD MSTORE PUSH1 0x64 ADD PUSH2 0xBCA JUMP JUMPDEST PUSH32 0x0 PUSH1 0x1 PUSH1 0x1 PUSH1 0xA0 SHL SUB AND DUP2 PUSH1 0x1 PUSH1 0x1 PUSH1 0xA0 SHL SUB AND EQ PUSH2 0x2442 JUMPI PUSH1 0x40 MLOAD PUSH3 0x461BCD PUSH1 0xE5 SHL DUP2 MSTORE PUSH1 0x20 PUSH1 0x4 DUP3 ADD MSTORE PUSH1 0x17 PUSH1 0x24 DUP3 ADD MSTORE PUSH32 0x5374726174656779206173736574206D69736D61746368000000000000000000 PUSH1 0x44 DUP3 ADD MSTORE PUSH1 0x64 ADD PUSH2 0xBCA JUMP JUMPDEST POP PUSH1 0x40 DUP1 MLOAD PUSH1 0xA0 DUP2 ADD DUP3 MSTORE PUSH1 0x1 PUSH1 0x1 PUSH1 0xA0 SHL SUB DUP6 DUP2 AND DUP1 DUP4 MSTORE PUSH1 0x20 DUP1 DUP5 ADD DUP8 DUP2 MSTORE PUSH0 DUP6 DUP8 ADD DUP2 DUP2 MSTORE PUSH1 0x60 DUP8 ADD DUP3 SWAP1 MSTORE TIMESTAMP PUSH1 0x80 DUP9 ADD MSTORE SWAP4 DUP2 MSTORE PUSH1 0xC SWAP1 SWAP3 MSTORE SWAP5 SWAP1 KECCAK256 DUP4 MLOAD DUP2 SLOAD PUSH1 0x1 PUSH1 0x1 PUSH1 0xA0 SHL SUB NOT AND SWAP4 AND SWAP3 SWAP1 SWAP3 OR DUP3 SSTORE SWAP3 MLOAD PUSH1 0x1 DUP1 DUP4 ADD SWAP2 SWAP1 SWAP2 SSTORE SWAP3 MLOAD PUSH1 0x2 DUP3 ADD DUP1 SLOAD SWAP4 SWAP5 SWAP3 SWAP4 SWAP2 SWAP3 SWAP1 SWAP2 PUSH1 0xFF NOT AND SWAP1 DUP4 PUSH1 0x3 DUP2 GT ISZERO PUSH2 0x24CA JUMPI PUSH2 0x24CA PUSH2 0x44D6 JUMP JUMPDEST MUL OR SWAP1 SSTORE POP PUSH1 0x60 DUP3 ADD MLOAD PUSH1 0x3 DUP3 ADD SSTORE PUSH1 0x80 SWAP1 SWAP2 ADD MLOAD PUSH1 0x4 SWAP1 SWAP2 ADD SSTORE PUSH1 0xD DUP1 SLOAD PUSH1 0x1 DUP2 ADD DUP3 SSTORE PUSH0 SWAP2 DUP3 MSTORE PUSH32 0xD7B6990105719101DABEB77144F2A3385C8033ACD3AF97E9423A695E81AD1EB5 ADD DUP1 SLOAD PUSH1 0x1 PUSH1 0x1 PUSH1 0xA0 SHL SUB NOT AND PUSH1 0x1 PUSH1 0x1 PUSH1 0xA0 SHL SUB DUP7 AND OR SWAP1 SSTORE PUSH1 0xE DUP1 SLOAD DUP5 SWAP3 SWAP1 PUSH2 0x2540 SWAP1 DUP5 SWAP1 PUSH2 0x4726 JUMP JUMPDEST SWAP1 SWAP2 SSTORE POP POP PUSH1 0x40 MLOAD DUP3 DUP2 MSTORE PUSH1 0x1 PUSH1 0x1 PUSH1 0xA0 SHL SUB DUP5 AND SWAP1 PUSH32 0x2F564A83158AD1831793AD3E69257B52F39ECE5D49CB0D8746708ECB9EF964DA SWAP1 PUSH1 0x20 ADD PUSH1 0x40 MLOAD DUP1 SWAP2 SUB SWAP1 LOG2 POP POP POP JUMP JUMPDEST PUSH1 0x1 PUSH1 0x1 PUSH1 0xA0 SHL SUB DUP2 AND PUSH0 SWAP1 DUP2 MSTORE PUSH1 0x20 DUP2 SWAP1 MSTORE PUSH1 0x40 DUP2 KECCAK256 SLOAD PUSH2 0xB35 SWAP1 PUSH0 PUSH2 0x3151 JUMP JUMPDEST CALLER PUSH0 SWAP1 DUP2 MSTORE PUSH1 0x9 PUSH1 0x20 MSTORE PUSH1 0x40 SWAP1 KECCAK256 SLOAD PUSH1 0xFF AND DUP1 PUSH2 0x25D1 JUMPI POP PUSH1 0x5 SLOAD PUSH1 0x1 PUSH1 0x1 PUSH1 0xA0 SHL SUB AND CALLER EQ JUMPDEST PUSH2 0x25ED JUMPI PUSH1 0x40 MLOAD PUSH3 0x461BCD PUSH1 0xE5 SHL DUP2 MSTORE PUSH1 0x4 ADD PUSH2 0xBCA SWAP1 PUSH2 0x48CF JUMP JUMPDEST PUSH1 0x1 PUSH1 0x1 PUSH1 0xA0 SHL SUB DUP2 DUP2 AND PUSH0 SWAP1 DUP2 MSTORE PUSH1 0xC PUSH1 0x20 MSTORE PUSH1 0x40 SWAP1 KECCAK256 SLOAD AND PUSH2 0x2623 JUMPI PUSH1 0x40 MLOAD PUSH3 0x461BCD PUSH1 0xE5 SHL DUP2 MSTORE PUSH1 0x4 ADD PUSH2 0xBCA SWAP1 PUSH2 0x47C1 JUMP JUMPDEST PUSH1 0x1 PUSH1 0x1 PUSH1 0x1 PUSH1 0xA0 SHL SUB DUP3 AND PUSH0 SWAP1 DUP2 MSTORE PUSH1 0xC PUSH1 0x20 MSTORE PUSH1 0x40 SWAP1 KECCAK256 PUSH1 0x2 ADD SLOAD PUSH1 0xFF AND PUSH1 0x3 DUP2 GT ISZERO PUSH2 0x2654 JUMPI PUSH2 0x2654 PUSH2 0x44D6 JUMP JUMPDEST EQ PUSH2 0x2671 JUMPI PUSH1 0x40 MLOAD PUSH3 0x461BCD PUSH1 0xE5 SHL DUP2 MSTORE PUSH1 0x4 ADD PUSH2 0xBCA SWAP1 PUSH2 0x4912 JUMP JUMPDEST PUSH1 0x1 PUSH1 0x1 PUSH1 0xA0 SHL SUB DUP2 AND PUSH0 DUP2 DUP2 MSTORE PUSH1 0xC PUSH1 0x20 MSTORE PUSH1 0x40 SWAP1 DUP2 SWAP1 KECCAK256 PUSH1 0x2 SWAP1 DUP2 ADD DUP1 SLOAD PUSH1 0xFF NOT AND DUP3 OR SWAP1 SSTORE SWAP1 MLOAD PUSH32 0x71E4D9FADF21BB369876CEBBD9192D4D84150C2FB6D208D5D68D6FBDF0AABF76 SWAP2 PUSH2 0xF17 SWAP2 PUSH2 0x481F JUMP JUMPDEST PUSH2 0x26CE PUSH2 0x31A7 JUMP JUMPDEST PUSH1 0x1 PUSH1 0x1 PUSH1 0xA0 SHL SUB DUP2 DUP2 AND PUSH0 SWAP1 DUP2 MSTORE PUSH1 0xC PUSH1 0x20 MSTORE PUSH1 0x40 SWAP1 KECCAK256 SLOAD AND PUSH2 0x2704 JUMPI PUSH1 0x40 MLOAD PUSH3 0x461BCD PUSH1 0xE5 SHL DUP2 MSTORE PUSH1 0x4 ADD PUSH2 0xBCA SWAP1 PUSH2 0x47C1 JUMP JUMPDEST PUSH1 0x1 PUSH1 0x1 PUSH1 0xA0 SHL SUB DUP2 AND PUSH0 SWAP1 DUP2 MSTORE PUSH1 0xC PUSH1 0x20 MSTORE PUSH1 0x40 DUP2 KECCAK256 PUSH1 0x2 ADD SLOAD PUSH1 0xFF AND PUSH1 0x3 DUP2 GT ISZERO PUSH2 0x2733 JUMPI PUSH2 0x2733 PUSH2 0x44D6 JUMP JUMPDEST EQ PUSH2 0xEC0 JUMPI PUSH1 0x40 MLOAD PUSH3 0x461BCD PUSH1 0xE5 SHL DUP2 MSTORE PUSH1 0x20 PUSH1 0x4 DUP3 ADD MSTORE PUSH1 0x15 PUSH1 0x24 DUP3 ADD MSTORE PUSH21 0x5374726174656779206E6F7420696E616374697665 PUSH1 0x58 SHL PUSH1 0x44 DUP3 ADD MSTORE PUSH1 0x64 ADD PUSH2 0xBCA JUMP JUMPDEST PUSH2 0x2780 PUSH2 0x31A7 JUMP JUMPDEST PUSH1 0x64 DUP2 GT ISZERO PUSH2 0x27D1 JUMPI PUSH1 0x40 MLOAD PUSH3 0x461BCD PUSH1 0xE5 SHL DUP2 MSTORE PUSH1 0x20 PUSH1 0x4 DUP3 ADD MSTORE PUSH1 0x1A PUSH1 0x24 DUP3 ADD MSTORE PUSH32 0x5969656C64206665652063616E6E6F7420657863656564203125000000000000 PUSH1 0x44 DUP3 ADD MSTORE PUSH1 0x64 ADD PUSH2 0xBCA JUMP JUMPDEST PUSH1 0x8 DUP2 SWAP1 SSTORE PUSH1 0x40 MLOAD DUP2 DUP2 MSTORE PUSH32 0x54C0C8FDA5359E8D65B518FB6AB2EC65BAA3F117413529440640475E1E4CA2BD SWAP1 PUSH1 0x20 ADD PUSH2 0x19CE JUMP JUMPDEST PUSH1 0x1 PUSH1 0x1 PUSH1 0xA0 SHL SUB DUP2 AND PUSH0 SWAP1 DUP2 MSTORE PUSH1 0x20 DUP2 SWAP1 MSTORE PUSH1 0x40 DUP2 KECCAK256 SLOAD PUSH2 0xB35 JUMP JUMPDEST PUSH1 0x1 PUSH1 0x1 PUSH1 0xA0 SHL SUB DUP2 DUP2 AND PUSH0 SWAP1 DUP2 MSTORE PUSH1 0xC PUSH1 0x20 MSTORE PUSH1 0x40 SWAP1 KECCAK256 SLOAD AND PUSH2 0x2859 JUMPI PUSH1 0x40 MLOAD PUSH3 0x461BCD PUSH1 0xE5 SHL DUP2 MSTORE PUSH1 0x4 ADD PUSH2 0xBCA SWAP1 PUSH2 0x47C1 JUMP JUMPDEST PUSH1 0x1 PUSH1 0x1 PUSH1 0x1 PUSH1 0xA0 SHL SUB DUP3 AND PUSH0 SWAP1 DUP2 MSTORE PUSH1 0xC PUSH1 0x20 MSTORE PUSH1 0x40 SWAP1 KECCAK256 PUSH1 0x2 ADD SLOAD PUSH1 0xFF AND PUSH1 0x3 DUP2 GT ISZERO PUSH2 0x288A JUMPI PUSH2 0x288A PUSH2 0x44D6 JUMP JUMPDEST EQ PUSH2 0x28A7 JUMPI PUSH1 0x40 MLOAD PUSH3 0x461BCD PUSH1 0xE5 SHL DUP2 MSTORE PUSH1 0x4 ADD PUSH2 0xBCA SWAP1 PUSH2 0x4912 JUMP JUMPDEST PUSH0 DUP1 PUSH0 DUP4 PUSH1 0x1 PUSH1 0x1 PUSH1 0xA0 SHL SUB AND PUSH4 0x2606A10B PUSH1 0x40 MLOAD DUP2 PUSH4 0xFFFFFFFF AND PUSH1 0xE0 SHL DUP2 MSTORE PUSH1 0x4 ADD PUSH1 0x60 PUSH1 0x40 MLOAD DUP1 DUP4 SUB DUP2 PUSH0 DUP8 GAS CALL ISZERO DUP1 ISZERO PUSH2 0x28E7 JUMPI RETURNDATASIZE PUSH0 DUP1 RETURNDATACOPY RETURNDATASIZE PUSH0 REVERT JUMPDEST POP POP POP POP PUSH1 0x40 MLOAD RETURNDATASIZE PUSH1 0x1F NOT PUSH1 0x1F DUP3 ADD AND DUP3 ADD DUP1 PUSH1 0x40 MSTORE POP DUP2 ADD SWAP1 PUSH2 0x290B SWAP2 SWAP1 PUSH2 0x493F JUMP JUMPDEST SWAP3 POP SWAP3 POP SWAP3 POP PUSH0 PUSH2 0x2939 PUSH32 0x0 SWAP1 JUMP JUMPDEST SWAP1 POP PUSH0 DUP5 GT DUP1 ISZERO PUSH2 0x294B JUMPI POP PUSH0 PUSH1 0x8 SLOAD GT JUMPDEST ISZERO PUSH2 0x2AA3 JUMPI PUSH0 PUSH2 0x2710 PUSH1 0x8 SLOAD DUP7 PUSH2 0x2962 SWAP2 SWAP1 PUSH2 0x4783 JUMP JUMPDEST PUSH2 0x296C SWAP2 SWAP1 PUSH2 0x47AE JUMP JUMPDEST PUSH1 0x40 MLOAD PUSH3 0x7B8A67 PUSH1 0xE1 SHL DUP2 MSTORE PUSH1 0x4 DUP2 ADD DUP3 SWAP1 MSTORE ADDRESS PUSH1 0x24 DUP3 ADD MSTORE SWAP1 SWAP2 POP PUSH0 SWAP1 PUSH1 0x1 PUSH1 0x1 PUSH1 0xA0 SHL SUB DUP9 AND SWAP1 PUSH3 0xF714CE SWAP1 PUSH1 0x44 ADD PUSH1 0x20 PUSH1 0x40 MLOAD DUP1 DUP4 SUB DUP2 PUSH0 DUP8 GAS CALL ISZERO DUP1 ISZERO PUSH2 0x29B9 JUMPI RETURNDATASIZE PUSH0 DUP1 RETURNDATACOPY RETURNDATASIZE PUSH0 REVERT JUMPDEST POP POP POP POP PUSH1 0x40 MLOAD RETURNDATASIZE PUSH1 0x1F NOT PUSH1 0x1F DUP3 ADD AND DUP3 ADD DUP1 PUSH1 0x40 MSTORE POP DUP2 ADD SWAP1 PUSH2 0x29DD SWAP2 SWAP1 PUSH2 0x46E7 JUMP JUMPDEST SWAP1 POP PUSH2 0x2A13 PUSH1 0x1 PUSH1 0x1 PUSH1 0xA0 SHL SUB DUP5 AND PUSH32 0x0 DUP4 PUSH2 0x353E JUMP JUMPDEST PUSH1 0x40 MLOAD PUSH5 0x1E5A595B19 PUSH1 0xDA SHL DUP2 MSTORE PUSH1 0x1 PUSH1 0x1 PUSH1 0xA0 SHL SUB PUSH32 0x0 AND SWAP1 PUSH1 0x5 ADD PUSH1 0x40 MLOAD SWAP1 DUP2 SWAP1 SUB DUP2 KECCAK256 DUP4 DUP3 MSTORE SWAP1 PUSH0 DUP1 MLOAD PUSH1 0x20 PUSH2 0x4ABA DUP4 CODECOPY DUP2 MLOAD SWAP2 MSTORE SWAP1 PUSH1 0x20 ADD PUSH1 0x40 MLOAD DUP1 SWAP2 SUB SWAP1 LOG3 PUSH2 0x2A80 DUP2 DUP6 PUSH2 0x47F8 JUMP JUMPDEST PUSH1 0x1 PUSH1 0x1 PUSH1 0xA0 SHL SUB DUP9 AND PUSH0 SWAP1 DUP2 MSTORE PUSH1 0xC PUSH1 0x20 MSTORE PUSH1 0x40 SWAP1 KECCAK256 PUSH1 0x3 ADD SSTORE POP PUSH2 0x2AC1 SWAP1 POP JUMP JUMPDEST PUSH1 0x1 PUSH1 0x1 PUSH1 0xA0 SHL SUB DUP6 AND PUSH0 SWAP1 DUP2 MSTORE PUSH1 0xC PUSH1 0x20 MSTORE PUSH1 0x40 SWAP1 KECCAK256 PUSH1 0x3 ADD DUP3 SWAP1 SSTORE JUMPDEST PUSH1 0x1 PUSH1 0x1 PUSH1 0xA0 SHL SUB DUP6 AND PUSH0 DUP2 DUP2 MSTORE PUSH1 0xC PUSH1 0x20 SWAP1 DUP2 MSTORE PUSH1 0x40 SWAP2 DUP3 SWAP1 KECCAK256 TIMESTAMP PUSH1 0x4 DUP3 ADD SSTORE PUSH1 0x3 ADD SLOAD DUP3 MLOAD DUP9 DUP2 MSTORE SWAP2 DUP3 ADD DUP8 SWAP1 MSTORE DUP2 DUP4 ADD MSTORE SWAP1 MLOAD PUSH32 0x6FBDF847C78F04EAC7A7A77E1073AF6EEEC604EE0B495240579DCCF57FCF2D88 SWAP2 DUP2 SWAP1 SUB PUSH1 0x60 ADD SWAP1 LOG2 POP POP POP POP POP JUMP JUMPDEST PUSH0 PUSH32 0x0 PUSH1 0x40 MLOAD PUSH4 0x70A08231 PUSH1 0xE0 SHL DUP2 MSTORE ADDRESS PUSH1 0x4 DUP3 ADD MSTORE PUSH1 0x1 PUSH1 0x1 PUSH1 0xA0 SHL SUB SWAP2 SWAP1 SWAP2 AND SWAP1 PUSH4 0x70A08231 SWAP1 PUSH1 0x24 ADD PUSH1 0x20 PUSH1 0x40 MLOAD DUP1 DUP4 SUB DUP2 DUP7 GAS STATICCALL ISZERO DUP1 ISZERO PUSH2 0x2B8E JUMPI RETURNDATASIZE PUSH0 DUP1 RETURNDATACOPY RETURNDATASIZE PUSH0 REVERT JUMPDEST POP POP POP POP PUSH1 0x40 MLOAD RETURNDATASIZE PUSH1 0x1F NOT PUSH1 0x1F DUP3 ADD AND DUP3 ADD DUP1 PUSH1 0x40 MSTORE POP DUP2 ADD SWAP1 PUSH2 0xFA3 SWAP2 SWAP1 PUSH2 0x46E7 JUMP JUMPDEST PUSH0 DUP1 PUSH2 0x2710 PUSH2 0x2BC2 PUSH1 0x14 DUP6 PUSH2 0x4783 JUMP JUMPDEST PUSH2 0x2BCC SWAP2 SWAP1 PUSH2 0x47AE JUMP JUMPDEST SWAP1 POP PUSH0 PUSH2 0x2BD9 DUP3 DUP6 PUSH2 0x47F8 JUMP JUMPDEST SWAP1 POP PUSH2 0xB84 DUP2 PUSH2 0x21E9 JUMP JUMPDEST PUSH2 0x2BEC PUSH2 0x31A7 JUMP JUMPDEST PUSH1 0x1 PUSH1 0x1 PUSH1 0xA0 SHL SUB DUP2 AND PUSH2 0x2C15 JUMPI PUSH1 0x40 MLOAD PUSH4 0x1E4FBDF7 PUSH1 0xE0 SHL DUP2 MSTORE PUSH0 PUSH1 0x4 DUP3 ADD MSTORE PUSH1 0x24 ADD PUSH2 0xBCA JUMP JUMPDEST PUSH2 0x2C1E DUP2 PUSH2 0x3386 JUMP JUMPDEST POP JUMP JUMPDEST CALLER PUSH0 SWAP1 DUP2 MSTORE PUSH1 0x9 PUSH1 0x20 MSTORE PUSH1 0x40 SWAP1 KECCAK256 SLOAD PUSH1 0xFF AND DUP1 PUSH2 0x2C48 JUMPI POP PUSH1 0x5 SLOAD PUSH1 0x1 PUSH1 0x1 PUSH1 0xA0 SHL SUB AND CALLER EQ JUMPDEST PUSH2 0x2C64 JUMPI PUSH1 0x40 MLOAD PUSH3 0x461BCD PUSH1 0xE5 SHL DUP2 MSTORE PUSH1 0x4 ADD PUSH2 0xBCA SWAP1 PUSH2 0x48CF JUMP JUMPDEST PUSH2 0x2C6C PUSH2 0x32EC JUMP JUMPDEST PUSH1 0x1 PUSH1 0x1 PUSH1 0xA0 SHL SUB DUP3 DUP2 AND PUSH0 SWAP1 DUP2 MSTORE PUSH1 0xC PUSH1 0x20 MSTORE PUSH1 0x40 SWAP1 KECCAK256 SLOAD AND PUSH2 0x2CA2 JUMPI PUSH1 0x40 MLOAD PUSH3 0x461BCD PUSH1 0xE5 SHL DUP2 MSTORE PUSH1 0x4 ADD PUSH2 0xBCA SWAP1 PUSH2 0x47C1 JUMP JUMPDEST PUSH1 0x1 PUSH1 0x1 PUSH1 0x1 PUSH1 0xA0 SHL SUB DUP4 AND PUSH0 SWAP1 DUP2 MSTORE PUSH1 0xC PUSH1 0x20 MSTORE PUSH1 0x40 SWAP1 KECCAK256 PUSH1 0x2 ADD SLOAD PUSH1 0xFF AND PUSH1 0x3 DUP2 GT ISZERO PUSH2 0x2CD3 JUMPI PUSH2 0x2CD3 PUSH2 0x44D6 JUMP JUMPDEST EQ PUSH2 0x2CF0 JUMPI PUSH1 0x40 MLOAD PUSH3 0x461BCD PUSH1 0xE5 SHL DUP2 MSTORE PUSH1 0x4 ADD PUSH2 0xBCA SWAP1 PUSH2 0x4912 JUMP JUMPDEST PUSH0 DUP2 GT PUSH2 0x2D39 JUMPI PUSH1 0x40 MLOAD PUSH3 0x461BCD PUSH1 0xE5 SHL DUP2 MSTORE PUSH1 0x20 PUSH1 0x4 DUP3 ADD MSTORE PUSH1 0x17 PUSH1 0x24 DUP3 ADD MSTORE PUSH23 0x416D6F756E74206D75737420626520706F736974697665 PUSH1 0x48 SHL PUSH1 0x44 DUP3 ADD MSTORE PUSH1 0x64 ADD PUSH2 0xBCA JUMP JUMPDEST PUSH0 PUSH32 0x0 PUSH1 0x40 MLOAD PUSH4 0x70A08231 PUSH1 0xE0 SHL DUP2 MSTORE ADDRESS PUSH1 0x4 DUP3 ADD MSTORE SWAP1 SWAP2 POP PUSH0 SWAP1 PUSH1 0x1 PUSH1 0x1 PUSH1 0xA0 SHL SUB DUP4 AND SWAP1 PUSH4 0x70A08231 SWAP1 PUSH1 0x24 ADD PUSH1 0x20 PUSH1 0x40 MLOAD DUP1 DUP4 SUB DUP2 DUP7 GAS STATICCALL ISZERO DUP1 ISZERO PUSH2 0x2DA2 JUMPI RETURNDATASIZE PUSH0 DUP1 RETURNDATACOPY RETURNDATASIZE PUSH0 REVERT JUMPDEST POP POP POP POP PUSH1 0x40 MLOAD RETURNDATASIZE PUSH1 0x1F NOT PUSH1 0x1F DUP3 ADD AND DUP3 ADD DUP1 PUSH1 0x40 MSTORE POP DUP2 ADD SWAP1 PUSH2 0x2DC6 SWAP2 SWAP1 PUSH2 0x46E7 JUMP JUMPDEST SWAP1 POP DUP3 DUP2 LT ISZERO PUSH2 0x2E18 JUMPI PUSH1 0x40 MLOAD PUSH3 0x461BCD PUSH1 0xE5 SHL DUP2 MSTORE PUSH1 0x20 PUSH1 0x4 DUP3 ADD MSTORE PUSH1 0x1A PUSH1 0x24 DUP3 ADD MSTORE PUSH32 0x496E73756666696369656E74207661756C742062616C616E6365000000000000 PUSH1 0x44 DUP3 ADD MSTORE PUSH1 0x64 ADD PUSH2 0xBCA JUMP JUMPDEST PUSH1 0x40 MLOAD PUSH4 0x95EA7B3 PUSH1 0xE0 SHL DUP2 MSTORE PUSH1 0x1 PUSH1 0x1 PUSH1 0xA0 SHL SUB DUP6 DUP2 AND PUSH1 0x4 DUP4 ADD MSTORE PUSH1 0x24 DUP3 ADD DUP6 SWAP1 MSTORE DUP4 AND SWAP1 PUSH4 0x95EA7B3 SWAP1 PUSH1 0x44 ADD PUSH1 0x20 PUSH1 0x40 MLOAD DUP1 DUP4 SUB DUP2 PUSH0 DUP8 GAS CALL ISZERO DUP1 ISZERO PUSH2 0x2E64 JUMPI RETURNDATASIZE PUSH0 DUP1 RETURNDATACOPY RETURNDATASIZE PUSH0 REVERT JUMPDEST POP POP POP POP PUSH1 0x40 MLOAD RETURNDATASIZE PUSH1 0x1F NOT PUSH1 0x1F DUP3 ADD AND DUP3 ADD DUP1 PUSH1 0x40 MSTORE POP DUP2 ADD SWAP1 PUSH2 0x2E88 SWAP2 SWAP1 PUSH2 0x496A JUMP JUMPDEST POP PUSH1 0x40 MLOAD PUSH4 0xA5E38751 PUSH1 0xE0 SHL DUP2 MSTORE PUSH1 0x4 DUP2 ADD DUP5 SWAP1 MSTORE PUSH1 0x1 PUSH1 0x1 PUSH1 0xA0 SHL SUB DUP6 AND SWAP1 PUSH4 0xA5E38751 SWAP1 PUSH1 0x24 ADD PUSH0 PUSH1 0x40 MLOAD DUP1 DUP4 SUB DUP2 PUSH0 DUP8 DUP1 EXTCODESIZE ISZERO DUP1 ISZERO PUSH2 0x2EC8 JUMPI PUSH0 DUP1 REVERT JUMPDEST POP GAS CALL ISZERO DUP1 ISZERO PUSH2 0x2EDA JUMPI RETURNDATASIZE PUSH0 DUP1 RETURNDATACOPY RETURNDATASIZE PUSH0 REVERT JUMPDEST POP POP PUSH1 0x40 MLOAD PUSH4 0x70A08231 PUSH1 0xE0 SHL DUP2 MSTORE ADDRESS PUSH1 0x4 DUP3 ADD MSTORE PUSH0 SWAP3 POP PUSH1 0x1 PUSH1 0x1 PUSH1 0xA0 SHL SUB DUP6 AND SWAP2 POP PUSH4 0x70A08231 SWAP1 PUSH1 0x24 ADD PUSH1 0x20 PUSH1 0x40 MLOAD DUP1 DUP4 SUB DUP2 DUP7 GAS STATICCALL ISZERO DUP1 ISZERO PUSH2 0x2F22 JUMPI RETURNDATASIZE PUSH0 DUP1 RETURNDATACOPY RETURNDATASIZE PUSH0 REVERT JUMPDEST POP POP POP POP PUSH1 0x40 MLOAD RETURNDATASIZE PUSH1 0x1F NOT PUSH1 0x1F DUP3 ADD AND DUP3 ADD DUP1 PUSH1 0x40 MSTORE POP DUP2 ADD SWAP1 PUSH2 0x2F46 SWAP2 SWAP1 PUSH2 0x46E7 JUMP JUMPDEST SWAP1 POP PUSH0 PUSH2 0x2F53 DUP3 DUP5 PUSH2 0x47F8 JUMP JUMPDEST SWAP1 POP PUSH0 DUP2 GT PUSH2 0x2FA4 JUMPI PUSH1 0x40 MLOAD PUSH3 0x461BCD PUSH1 0xE5 SHL DUP2 MSTORE PUSH1 0x20 PUSH1 0x4 DUP3 ADD MSTORE PUSH1 0x1B PUSH1 0x24 DUP3 ADD MSTORE PUSH32 0x537472617465677920646964206E6F742070756C6C2066756E64730000000000 PUSH1 0x44 DUP3 ADD MSTORE PUSH1 0x64 ADD PUSH2 0xBCA JUMP JUMPDEST DUP5 DUP2 GT ISZERO PUSH2 0x2FFF JUMPI PUSH1 0x40 MLOAD PUSH3 0x461BCD PUSH1 0xE5 SHL DUP2 MSTORE PUSH1 0x20 PUSH1 0x4 DUP3 ADD MSTORE PUSH1 0x22 PUSH1 0x24 DUP3 ADD MSTORE PUSH32 0x53747261746567792070756C6C6564206D6F7265207468616E20617070726F76 PUSH1 0x44 DUP3 ADD MSTORE PUSH2 0x1959 PUSH1 0xF2 SHL PUSH1 0x64 DUP3 ADD MSTORE PUSH1 0x84 ADD PUSH2 0xBCA JUMP JUMPDEST PUSH1 0x1 PUSH1 0x1 PUSH1 0xA0 SHL SUB DUP7 AND PUSH0 SWAP1 DUP2 MSTORE PUSH1 0xC PUSH1 0x20 MSTORE PUSH1 0x40 DUP2 KECCAK256 PUSH1 0x3 ADD DUP1 SLOAD DUP4 SWAP3 SWAP1 PUSH2 0x3029 SWAP1 DUP5 SWAP1 PUSH2 0x4726 JUMP JUMPDEST SWAP1 SWAP2 SSTORE POP POP PUSH1 0x40 MLOAD PUSH4 0x6EB1769F PUSH1 0xE1 SHL DUP2 MSTORE ADDRESS PUSH1 0x4 DUP3 ADD MSTORE PUSH1 0x1 PUSH1 0x1 PUSH1 0xA0 SHL SUB DUP8 DUP2 AND PUSH1 0x24 DUP4 ADD MSTORE PUSH0 SWAP2 SWAP1 DUP7 AND SWAP1 PUSH4 0xDD62ED3E SWAP1 PUSH1 0x44 ADD PUSH1 0x20 PUSH1 0x40 MLOAD DUP1 DUP4 SUB DUP2 DUP7 GAS STATICCALL ISZERO DUP1 ISZERO PUSH2 0x307B JUMPI RETURNDATASIZE PUSH0 DUP1 RETURNDATACOPY RETURNDATASIZE PUSH0 REVERT JUMPDEST POP POP POP POP PUSH1 0x40 MLOAD RETURNDATASIZE PUSH1 0x1F NOT PUSH1 0x1F DUP3 ADD AND DUP3 ADD DUP1 PUSH1 0x40 MSTORE POP DUP2 ADD SWAP1 PUSH2 0x309F SWAP2 SWAP1 PUSH2 0x46E7 JUMP JUMPDEST GT ISZERO PUSH2 0x3116 JUMPI PUSH1 0x40 MLOAD PUSH4 0x95EA7B3 PUSH1 0xE0 SHL DUP2 MSTORE PUSH1 0x1 PUSH1 0x1 PUSH1 0xA0 SHL SUB DUP8 DUP2 AND PUSH1 0x4 DUP4 ADD MSTORE PUSH0 PUSH1 0x24 DUP4 ADD MSTORE DUP6 AND SWAP1 PUSH4 0x95EA7B3 SWAP1 PUSH1 0x44 ADD PUSH1 0x20 PUSH1 0x40 MLOAD DUP1 DUP4 SUB DUP2 PUSH0 DUP8 GAS CALL ISZERO DUP1 ISZERO PUSH2 0x30F0 JUMPI RETURNDATASIZE PUSH0 DUP1 RETURNDATACOPY RETURNDATASIZE PUSH0 REVERT JUMPDEST POP POP POP POP PUSH1 0x40 MLOAD RETURNDATASIZE PUSH1 0x1F NOT PUSH1 0x1F DUP3 ADD AND DUP3 ADD DUP1 PUSH1 0x40 MSTORE POP DUP2 ADD SWAP1 PUSH2 0x3114 SWAP2 SWAP1 PUSH2 0x496A JUMP JUMPDEST POP JUMPDEST DUP6 PUSH1 0x1 PUSH1 0x1 PUSH1 0xA0 SHL SUB AND PUSH32 0x118140C5F65D2D1239952F9FED523588C6B439A75344EE43CF01F74FBEE5E41F DUP3 PUSH1 0x40 MLOAD PUSH2 0x2078 SWAP2 DUP2 MSTORE PUSH1 0x20 ADD SWAP1 JUMP JUMPDEST PUSH0 PUSH2 0xE07 PUSH2 0x315D PUSH2 0x903 JUMP JUMPDEST PUSH2 0x3168 SWAP1 PUSH1 0x1 PUSH2 0x4726 JUMP JUMPDEST PUSH2 0x3173 PUSH0 PUSH1 0xA PUSH2 0x4A69 JUMP JUMPDEST PUSH1 0x2 SLOAD PUSH2 0x3180 SWAP2 SWAP1 PUSH2 0x4726 JUMP JUMPDEST DUP6 SWAP2 SWAP1 DUP6 PUSH2 0x359D JUMP JUMPDEST PUSH2 0x3196 DUP4 DUP4 DUP4 PUSH1 0x1 PUSH2 0x35DF JUMP JUMPDEST POP POP POP JUMP JUMPDEST PUSH0 PUSH2 0xB35 DUP3 PUSH1 0x1 PUSH2 0x350F JUMP JUMPDEST PUSH1 0x5 SLOAD PUSH1 0x1 PUSH1 0x1 PUSH1 0xA0 SHL SUB AND CALLER EQ PUSH2 0x1021 JUMPI PUSH1 0x40 MLOAD PUSH4 0x118CDAA7 PUSH1 0xE0 SHL DUP2 MSTORE CALLER PUSH1 0x4 DUP3 ADD MSTORE PUSH1 0x24 ADD PUSH2 0xBCA JUMP JUMPDEST PUSH1 0x1 PUSH1 0x1 PUSH1 0xA0 SHL SUB DUP4 DUP2 AND PUSH0 SWAP1 DUP2 MSTORE PUSH1 0x1 PUSH1 0x20 SWAP1 DUP2 MSTORE PUSH1 0x40 DUP1 DUP4 KECCAK256 SWAP4 DUP7 AND DUP4 MSTORE SWAP3 SWAP1 MSTORE KECCAK256 SLOAD PUSH0 NOT DUP2 LT ISZERO PUSH2 0x3237 JUMPI DUP2 DUP2 LT ISZERO PUSH2 0x3229 JUMPI DUP3 DUP2 DUP4 PUSH1 0x40 MLOAD PUSH4 0x7DC7A0D9 PUSH1 0xE1 SHL DUP2 MSTORE PUSH1 0x4 ADD PUSH2 0xBCA SWAP4 SWAP3 SWAP2 SWAP1 PUSH2 0x4A77 JUMP JUMPDEST PUSH2 0x3237 DUP5 DUP5 DUP5 DUP5 SUB PUSH0 PUSH2 0x35DF JUMP JUMPDEST POP POP POP POP JUMP JUMPDEST PUSH1 0x1 PUSH1 0x1 PUSH1 0xA0 SHL SUB DUP4 AND PUSH2 0x3266 JUMPI PUSH1 0x40 MLOAD PUSH4 0x4B637E8F PUSH1 0xE1 SHL DUP2 MSTORE PUSH0 PUSH1 0x4 DUP3 ADD MSTORE PUSH1 0x24 ADD PUSH2 0xBCA JUMP JUMPDEST PUSH1 0x1 PUSH1 0x1 PUSH1 0xA0 SHL SUB DUP3 AND PUSH2 0x328F JUMPI PUSH1 0x40 MLOAD PUSH4 0xEC442F05 PUSH1 0xE0 SHL DUP2 MSTORE PUSH0 PUSH1 0x4 DUP3 ADD MSTORE PUSH1 0x24 ADD PUSH2 0xBCA JUMP JUMPDEST PUSH2 0x3196 DUP4 DUP4 DUP4 PUSH2 0x36B1 JUMP JUMPDEST PUSH2 0x32A2 PUSH2 0x37C4 JUMP JUMPDEST PUSH1 0x7 DUP1 SLOAD PUSH1 0xFF NOT AND SWAP1 SSTORE PUSH32 0x5DB9EE0A495BF2E6FF9C91A7834C1BA4FDD244A5E8AA4E537BD38AEAE4B073AA CALLER JUMPDEST PUSH1 0x40 MLOAD PUSH1 0x1 PUSH1 0x1 PUSH1 0xA0 SHL SUB SWAP1 SWAP2 AND DUP2 MSTORE PUSH1 0x20 ADD PUSH1 0x40 MLOAD DUP1 SWAP2 SUB SWAP1 LOG1 JUMP JUMPDEST PUSH1 0x2 PUSH1 0x6 SLOAD SUB PUSH2 0x330F JUMPI PUSH1 0x40 MLOAD PUSH4 0x3EE5AEB5 PUSH1 0xE0 SHL DUP2 MSTORE PUSH1 0x4 ADD PUSH1 0x40 MLOAD DUP1 SWAP2 SUB SWAP1 REVERT JUMPDEST PUSH1 0x2 PUSH1 0x6 SSTORE JUMP JUMPDEST PUSH1 0x7 SLOAD PUSH1 0xFF AND ISZERO PUSH2 0x1021 JUMPI PUSH1 0x40 MLOAD PUSH4 0xD93C0665 PUSH1 0xE0 SHL DUP2 MSTORE PUSH1 0x4 ADD PUSH1 0x40 MLOAD DUP1 SWAP2 SUB SWAP1 REVERT JUMPDEST PUSH0 DUP1 PUSH2 0x3345 DUP4 PUSH2 0x1023 JUMP JUMPDEST SWAP1 POP DUP1 DUP5 GT ISZERO PUSH2 0x336E JUMPI DUP3 DUP5 DUP3 PUSH1 0x40 MLOAD PUSH4 0x3C8097D9 PUSH1 0xE1 SHL DUP2 MSTORE PUSH1 0x4 ADD PUSH2 0xBCA SWAP4 SWAP3 SWAP2 SWAP1 PUSH2 0x4A77 JUMP JUMPDEST PUSH0 PUSH2 0x3378 DUP6 PUSH2 0x2BB2 JUMP JUMPDEST SWAP1 POP PUSH2 0xB84 CALLER DUP6 DUP8 DUP5 PUSH2 0x37E7 JUMP JUMPDEST PUSH1 0x5 DUP1 SLOAD PUSH1 0x1 PUSH1 0x1 PUSH1 0xA0 SHL SUB DUP4 DUP2 AND PUSH1 0x1 PUSH1 0x1 PUSH1 0xA0 SHL SUB NOT DUP4 AND DUP2 OR SWAP1 SWAP4 SSTORE PUSH1 0x40 MLOAD SWAP2 AND SWAP2 SWAP1 DUP3 SWAP1 PUSH32 0x8BE0079C531659141344CD1FD0A4F28419497F9722A3DAAFE3B4186F6B6457E0 SWAP1 PUSH0 SWAP1 LOG3 POP POP JUMP JUMPDEST PUSH2 0x33DF PUSH2 0x3316 JUMP JUMPDEST PUSH1 0x7 DUP1 SLOAD PUSH1 0xFF NOT AND PUSH1 0x1 OR SWAP1 SSTORE PUSH32 0x62E78CEA01BEE320CD4E420270B5EA74000D11B0C9F74754EBDBFC544B05A258 PUSH2 0x32CF CALLER SWAP1 JUMP JUMPDEST PUSH0 DUP1 PUSH2 0x341F DUP4 PUSH2 0x2199 JUMP JUMPDEST SWAP1 POP DUP1 DUP5 GT ISZERO PUSH2 0x3448 JUMPI DUP3 DUP5 DUP3 PUSH1 0x40 MLOAD PUSH4 0x284FF667 PUSH1 0xE0 SHL DUP2 MSTORE PUSH1 0x4 ADD PUSH2 0xBCA SWAP4 SWAP3 SWAP2 SWAP1 PUSH2 0x4A77 JUMP JUMPDEST PUSH0 PUSH2 0x3452 DUP6 PUSH2 0x1C08 JUMP JUMPDEST SWAP1 POP PUSH2 0xB84 CALLER DUP6 DUP4 DUP9 PUSH2 0x37E7 JUMP JUMPDEST PUSH0 PUSH2 0xB35 DUP3 PUSH1 0x1 PUSH2 0x3151 JUMP JUMPDEST PUSH0 DUP1 PUSH2 0x3477 DUP4 PUSH2 0x2588 JUMP JUMPDEST SWAP1 POP DUP1 DUP6 GT ISZERO PUSH2 0x34A0 JUMPI DUP3 DUP6 DUP3 PUSH1 0x40 MLOAD PUSH4 0x3FA733BB PUSH1 0xE2 SHL DUP2 MSTORE PUSH1 0x4 ADD PUSH2 0xBCA SWAP4 SWAP3 SWAP2 SWAP1 PUSH2 0x4A77 JUMP JUMPDEST PUSH0 PUSH2 0x34AA DUP7 PUSH2 0xB52 JUMP JUMPDEST SWAP1 POP PUSH2 0x34B9 CALLER DUP7 DUP7 DUP10 DUP6 PUSH2 0x3934 JUMP JUMPDEST SWAP6 SWAP5 POP POP POP POP POP JUMP JUMPDEST PUSH0 DUP1 PUSH2 0x34CD DUP4 PUSH2 0x2806 JUMP JUMPDEST SWAP1 POP DUP1 DUP6 GT ISZERO PUSH2 0x34F6 JUMPI DUP3 DUP6 DUP3 PUSH1 0x40 MLOAD PUSH4 0x2E52AFBB PUSH1 0xE2 SHL DUP2 MSTORE PUSH1 0x4 ADD PUSH2 0xBCA SWAP4 SWAP3 SWAP2 SWAP1 PUSH2 0x4A77 JUMP JUMPDEST PUSH0 PUSH2 0x3500 DUP7 PUSH2 0x140A JUMP JUMPDEST SWAP1 POP PUSH2 0x34B9 CALLER DUP7 DUP7 DUP5 DUP11 PUSH2 0x3934 JUMP JUMPDEST PUSH0 PUSH2 0xE07 PUSH2 0x351E DUP3 PUSH1 0xA PUSH2 0x4A69 JUMP JUMPDEST PUSH1 0x2 SLOAD PUSH2 0x352B SWAP2 SWAP1 PUSH2 0x4726 JUMP JUMPDEST PUSH2 0x3533 PUSH2 0x903 JUMP JUMPDEST PUSH2 0x3180 SWAP1 PUSH1 0x1 PUSH2 0x4726 JUMP JUMPDEST PUSH1 0x40 MLOAD PUSH1 0x1 PUSH1 0x1 PUSH1 0xA0 SHL SUB DUP4 DUP2 AND PUSH1 0x24 DUP4 ADD MSTORE PUSH1 0x44 DUP3 ADD DUP4 SWAP1 MSTORE PUSH2 0x3196 SWAP2 DUP6 SWAP2 DUP3 AND SWAP1 PUSH4 0xA9059CBB SWAP1 PUSH1 0x64 ADD JUMPDEST PUSH1 0x40 MLOAD PUSH1 0x20 DUP2 DUP4 SUB SUB DUP2 MSTORE SWAP1 PUSH1 0x40 MSTORE SWAP2 POP PUSH1 0xE0 SHL PUSH1 0x20 DUP3 ADD DUP1 MLOAD PUSH1 0x1 PUSH1 0x1 PUSH1 0xE0 SHL SUB DUP4 DUP2 DUP4 AND OR DUP4 MSTORE POP POP POP POP PUSH2 0x3C36 JUMP JUMPDEST PUSH0 PUSH2 0x35CA PUSH2 0x35AA DUP4 PUSH2 0x3CA2 JUMP JUMPDEST DUP1 ISZERO PUSH2 0x35C5 JUMPI POP PUSH0 DUP5 DUP1 PUSH2 0x35C0 JUMPI PUSH2 0x35C0 PUSH2 0x479A JUMP JUMPDEST DUP7 DUP9 MULMOD GT JUMPDEST ISZERO ISZERO SWAP1 JUMP JUMPDEST PUSH2 0x35D5 DUP7 DUP7 DUP7 PUSH2 0x3CCE JUMP JUMPDEST PUSH2 0x34B9 SWAP2 SWAP1 PUSH2 0x4726 JUMP JUMPDEST PUSH1 0x1 PUSH1 0x1 PUSH1 0xA0 SHL SUB DUP5 AND PUSH2 0x3608 JUMPI PUSH1 0x40 MLOAD PUSH4 0xE602DF05 PUSH1 0xE0 SHL DUP2 MSTORE PUSH0 PUSH1 0x4 DUP3 ADD MSTORE PUSH1 0x24 ADD PUSH2 0xBCA JUMP JUMPDEST PUSH1 0x1 PUSH1 0x1 PUSH1 0xA0 SHL SUB DUP4 AND PUSH2 0x3631 JUMPI PUSH1 0x40 MLOAD PUSH4 0x4A1406B1 PUSH1 0xE1 SHL DUP2 MSTORE PUSH0 PUSH1 0x4 DUP3 ADD MSTORE PUSH1 0x24 ADD PUSH2 0xBCA JUMP JUMPDEST PUSH1 0x1 PUSH1 0x1 PUSH1 0xA0 SHL SUB DUP1 DUP6 AND PUSH0 SWAP1 DUP2 MSTORE PUSH1 0x1 PUSH1 0x20 SWAP1 DUP2 MSTORE PUSH1 0x40 DUP1 DUP4 KECCAK256 SWAP4 DUP8 AND DUP4 MSTORE SWAP3 SWAP1 MSTORE KECCAK256 DUP3 SWAP1 SSTORE DUP1 ISZERO PUSH2 0x3237 JUMPI DUP3 PUSH1 0x1 PUSH1 0x1 PUSH1 0xA0 SHL SUB AND DUP5 PUSH1 0x1 PUSH1 0x1 PUSH1 0xA0 SHL SUB AND PUSH32 0x8C5BE1E5EBEC7D5BD14F71427D1E84F3DD0314C0F7B2291E5B200AC8C7C3B925 DUP5 PUSH1 0x40 MLOAD PUSH2 0x36A3 SWAP2 DUP2 MSTORE PUSH1 0x20 ADD SWAP1 JUMP JUMPDEST PUSH1 0x40 MLOAD DUP1 SWAP2 SUB SWAP1 LOG3 POP POP POP POP JUMP JUMPDEST PUSH1 0x1 PUSH1 0x1 PUSH1 0xA0 SHL SUB DUP4 AND PUSH2 0x36DB JUMPI DUP1 PUSH1 0x2 PUSH0 DUP3 DUP3 SLOAD PUSH2 0x36D0 SWAP2 SWAP1 PUSH2 0x4726 JUMP JUMPDEST SWAP1 SWAP2 SSTORE POP PUSH2 0x3738 SWAP1 POP JUMP JUMPDEST PUSH1 0x1 PUSH1 0x1 PUSH1 0xA0 SHL SUB DUP4 AND PUSH0 SWAP1 DUP2 MSTORE PUSH1 0x20 DUP2 SWAP1 MSTORE PUSH1 0x40 SWAP1 KECCAK256 SLOAD DUP2 DUP2 LT ISZERO PUSH2 0x371A JUMPI DUP4 DUP2 DUP4 PUSH1 0x40 MLOAD PUSH4 0x391434E3 PUSH1 0xE2 SHL DUP2 MSTORE PUSH1 0x4 ADD PUSH2 0xBCA SWAP4 SWAP3 SWAP2 SWAP1 PUSH2 0x4A77 JUMP JUMPDEST PUSH1 0x1 PUSH1 0x1 PUSH1 0xA0 SHL SUB DUP5 AND PUSH0 SWAP1 DUP2 MSTORE PUSH1 0x20 DUP2 SWAP1 MSTORE PUSH1 0x40 SWAP1 KECCAK256 SWAP1 DUP3 SWAP1 SUB SWAP1 SSTORE JUMPDEST PUSH1 0x1 PUSH1 0x1 PUSH1 0xA0 SHL SUB DUP3 AND PUSH2 0x3754 JUMPI PUSH1 0x2 DUP1 SLOAD DUP3 SWAP1 SUB SWAP1 SSTORE PUSH2 0x3772 JUMP JUMPDEST PUSH1 0x1 PUSH1 0x1 PUSH1 0xA0 SHL SUB DUP3 AND PUSH0 SWAP1 DUP2 MSTORE PUSH1 0x20 DUP2 SWAP1 MSTORE PUSH1 0x40 SWAP1 KECCAK256 DUP1 SLOAD DUP3 ADD SWAP1 SSTORE JUMPDEST DUP2 PUSH1 0x1 PUSH1 0x1 PUSH1 0xA0 SHL SUB AND DUP4 PUSH1 0x1 PUSH1 0x1 PUSH1 0xA0 SHL SUB AND PUSH32 0xDDF252AD1BE2C89B69C2B068FC378DAA952BA7F163C4A11628F55A4DF523B3EF DUP4 PUSH1 0x40 MLOAD PUSH2 0x37B7 SWAP2 DUP2 MSTORE PUSH1 0x20 ADD SWAP1 JUMP JUMPDEST PUSH1 0x40 MLOAD DUP1 SWAP2 SUB SWAP1 LOG3 POP POP POP JUMP JUMPDEST PUSH1 0x7 SLOAD PUSH1 0xFF AND PUSH2 0x1021 JUMPI PUSH1 0x40 MLOAD PUSH4 0x8DFC202B PUSH1 0xE0 SHL DUP2 MSTORE PUSH1 0x4 ADD PUSH1 0x40 MLOAD DUP1 SWAP2 SUB SWAP1 REVERT JUMPDEST PUSH1 0xB SLOAD DUP3 PUSH2 0x37F3 PUSH2 0x903 JUMP JUMPDEST PUSH2 0x37FD SWAP2 SWAP1 PUSH2 0x4726 JUMP JUMPDEST GT ISZERO PUSH2 0x3844 JUMPI PUSH1 0x40 MLOAD PUSH3 0x461BCD PUSH1 0xE5 SHL DUP2 MSTORE PUSH1 0x20 PUSH1 0x4 DUP3 ADD MSTORE PUSH1 0x16 PUSH1 0x24 DUP3 ADD MSTORE PUSH22 0x11195C1BDCDA5D081B1A5B5A5D08195E18D959591959 PUSH1 0x52 SHL PUSH1 0x44 DUP3 ADD MSTORE PUSH1 0x64 ADD PUSH2 0xBCA JUMP JUMPDEST PUSH2 0x3850 DUP5 DUP5 DUP5 DUP5 PUSH2 0x3D7E JUMP JUMPDEST PUSH32 0x0 PUSH0 PUSH2 0x2710 PUSH2 0x3880 PUSH1 0x14 DUP7 PUSH2 0x4783 JUMP JUMPDEST PUSH2 0x388A SWAP2 SWAP1 PUSH2 0x47AE JUMP JUMPDEST SWAP1 POP DUP1 ISZERO PUSH2 0x392C JUMPI PUSH2 0x38C6 PUSH1 0x1 PUSH1 0x1 PUSH1 0xA0 SHL SUB DUP4 AND PUSH32 0x0 DUP4 PUSH2 0x353E JUMP JUMPDEST PUSH1 0x40 MLOAD PUSH7 0x19195C1BDCDA5D PUSH1 0xCA SHL DUP2 MSTORE PUSH1 0x1 PUSH1 0x1 PUSH1 0xA0 SHL SUB PUSH32 0x0 AND SWAP1 PUSH1 0x7 ADD PUSH1 0x40 MLOAD SWAP1 DUP2 SWAP1 SUB DUP2 KECCAK256 DUP4 DUP3 MSTORE SWAP1 PUSH0 DUP1 MLOAD PUSH1 0x20 PUSH2 0x4ABA DUP4 CODECOPY DUP2 MLOAD SWAP2 MSTORE SWAP1 PUSH1 0x20 ADD PUSH1 0x40 MLOAD DUP1 SWAP2 SUB SWAP1 LOG3 JUMPDEST POP POP POP POP POP POP JUMP JUMPDEST PUSH32 0x0 PUSH0 PUSH2 0x395F DUP4 PUSH2 0xB2A JUMP JUMPDEST SWAP1 POP PUSH0 PUSH2 0x396C DUP6 DUP4 PUSH2 0x47F8 JUMP JUMPDEST PUSH1 0x40 MLOAD PUSH4 0x70A08231 PUSH1 0xE0 SHL DUP2 MSTORE ADDRESS PUSH1 0x4 DUP3 ADD MSTORE SWAP1 SWAP2 POP PUSH0 SWAP1 PUSH1 0x1 PUSH1 0x1 PUSH1 0xA0 SHL SUB DUP6 AND SWAP1 PUSH4 0x70A08231 SWAP1 PUSH1 0x24 ADD PUSH1 0x20 PUSH1 0x40 MLOAD DUP1 DUP4 SUB DUP2 DUP7 GAS STATICCALL ISZERO DUP1 ISZERO PUSH2 0x39B3 JUMPI RETURNDATASIZE PUSH0 DUP1 RETURNDATACOPY RETURNDATASIZE PUSH0 REVERT JUMPDEST POP POP POP POP PUSH1 0x40 MLOAD RETURNDATASIZE PUSH1 0x1F NOT PUSH1 0x1F DUP3 ADD AND DUP3 ADD DUP1 PUSH1 0x40 MSTORE POP DUP2 ADD SWAP1 PUSH2 0x39D7 SWAP2 SWAP1 PUSH2 0x46E7 JUMP JUMPDEST SWAP1 POP DUP3 DUP2 LT PUSH2 0x3A97 JUMPI PUSH2 0x39ED DUP10 DUP10 DUP10 DUP10 DUP10 PUSH2 0x3E02 JUMP JUMPDEST DUP2 ISZERO PUSH2 0x3A8E JUMPI PUSH2 0x3A27 PUSH1 0x1 PUSH1 0x1 PUSH1 0xA0 SHL SUB DUP6 AND PUSH32 0x0 DUP5 PUSH2 0x353E JUMP JUMPDEST PUSH1 0x40 MLOAD PUSH8 0x7769746864726177 PUSH1 0xC0 SHL DUP2 MSTORE PUSH1 0x1 PUSH1 0x1 PUSH1 0xA0 SHL SUB PUSH32 0x0 AND SWAP1 PUSH1 0x8 ADD PUSH1 0x40 MLOAD SWAP1 DUP2 SWAP1 SUB DUP2 KECCAK256 DUP5 DUP3 MSTORE SWAP1 PUSH0 DUP1 MLOAD PUSH1 0x20 PUSH2 0x4ABA DUP4 CODECOPY DUP2 MLOAD SWAP2 MSTORE SWAP1 PUSH1 0x20 ADD PUSH1 0x40 MLOAD DUP1 SWAP2 SUB SWAP1 LOG3 JUMPDEST POP POP POP POP PUSH2 0x3C2F JUMP JUMPDEST PUSH0 PUSH2 0x3AA2 DUP3 DUP6 PUSH2 0x47F8 JUMP JUMPDEST SWAP1 POP PUSH2 0x3AAD DUP2 PUSH2 0x3EC2 JUMP JUMPDEST POP PUSH1 0x40 MLOAD PUSH4 0x70A08231 PUSH1 0xE0 SHL DUP2 MSTORE ADDRESS PUSH1 0x4 DUP3 ADD MSTORE DUP5 SWAP1 PUSH1 0x1 PUSH1 0x1 PUSH1 0xA0 SHL SUB DUP8 AND SWAP1 PUSH4 0x70A08231 SWAP1 PUSH1 0x24 ADD PUSH1 0x20 PUSH1 0x40 MLOAD DUP1 DUP4 SUB DUP2 DUP7 GAS STATICCALL ISZERO DUP1 ISZERO PUSH2 0x3AF2 JUMPI RETURNDATASIZE PUSH0 DUP1 RETURNDATACOPY RETURNDATASIZE PUSH0 REVERT JUMPDEST POP POP POP POP PUSH1 0x40 MLOAD RETURNDATASIZE PUSH1 0x1F NOT PUSH1 0x1F DUP3 ADD AND DUP3 ADD DUP1 PUSH1 0x40 MSTORE POP DUP2 ADD SWAP1 PUSH2 0x3B16 SWAP2 SWAP1 PUSH2 0x46E7 JUMP JUMPDEST LT ISZERO PUSH2 0x3B7B JUMPI PUSH1 0x40 MLOAD PUSH3 0x461BCD PUSH1 0xE5 SHL DUP2 MSTORE PUSH1 0x20 PUSH1 0x4 DUP3 ADD MSTORE PUSH1 0x2E PUSH1 0x24 DUP3 ADD MSTORE PUSH32 0x496E73756666696369656E74206C697175696469747920696E207661756C7420 PUSH1 0x44 DUP3 ADD MSTORE PUSH14 0x616E642073747261746567696573 PUSH1 0x90 SHL PUSH1 0x64 DUP3 ADD MSTORE PUSH1 0x84 ADD PUSH2 0xBCA JUMP JUMPDEST PUSH2 0x3B88 DUP11 DUP11 DUP11 DUP11 DUP11 PUSH2 0x3E02 JUMP JUMPDEST DUP3 ISZERO PUSH2 0x3C29 JUMPI PUSH2 0x3BC2 PUSH1 0x1 PUSH1 0x1 PUSH1 0xA0 SHL SUB DUP7 AND PUSH32 0x0 DUP6 PUSH2 0x353E JUMP JUMPDEST PUSH1 0x40 MLOAD PUSH8 0x7769746864726177 PUSH1 0xC0 SHL DUP2 MSTORE PUSH1 0x1 PUSH1 0x1 PUSH1 0xA0 SHL SUB PUSH32 0x0 AND SWAP1 PUSH1 0x8 ADD PUSH1 0x40 MLOAD SWAP1 DUP2 SWAP1 SUB DUP2 KECCAK256 DUP6 DUP3 MSTORE SWAP1 PUSH0 DUP1 MLOAD PUSH1 0x20 PUSH2 0x4ABA DUP4 CODECOPY DUP2 MLOAD SWAP2 MSTORE SWAP1 PUSH1 0x20 ADD PUSH1 0x40 MLOAD DUP1 SWAP2 SUB SWAP1 LOG3 JUMPDEST POP POP POP POP POP JUMPDEST POP POP POP POP POP JUMP JUMPDEST PUSH0 DUP1 PUSH1 0x20 PUSH0 DUP5 MLOAD PUSH1 0x20 DUP7 ADD PUSH0 DUP9 GAS CALL DUP1 PUSH2 0x3C55 JUMPI PUSH1 0x40 MLOAD RETURNDATASIZE PUSH0 DUP3 RETURNDATACOPY RETURNDATASIZE DUP2 REVERT JUMPDEST POP POP PUSH0 MLOAD RETURNDATASIZE SWAP2 POP DUP2 ISZERO PUSH2 0x3C6C JUMPI DUP1 PUSH1 0x1 EQ ISZERO PUSH2 0x3C79 JUMP JUMPDEST PUSH1 0x1 PUSH1 0x1 PUSH1 0xA0 SHL SUB DUP5 AND EXTCODESIZE ISZERO JUMPDEST ISZERO PUSH2 0x3237 JUMPI PUSH1 0x40 MLOAD PUSH4 0x5274AFE7 PUSH1 0xE0 SHL DUP2 MSTORE PUSH1 0x1 PUSH1 0x1 PUSH1 0xA0 SHL SUB DUP6 AND PUSH1 0x4 DUP3 ADD MSTORE PUSH1 0x24 ADD PUSH2 0xBCA JUMP JUMPDEST PUSH0 PUSH1 0x2 DUP3 PUSH1 0x3 DUP2 GT ISZERO PUSH2 0x3CB7 JUMPI PUSH2 0x3CB7 PUSH2 0x44D6 JUMP JUMPDEST PUSH2 0x3CC1 SWAP2 SWAP1 PUSH2 0x4A98 JUMP JUMPDEST PUSH1 0xFF AND PUSH1 0x1 EQ SWAP1 POP SWAP2 SWAP1 POP JUMP JUMPDEST PUSH0 DUP1 PUSH0 PUSH2 0x3CDB DUP7 DUP7 PUSH2 0x430F JUMP JUMPDEST SWAP2 POP SWAP2 POP DUP2 PUSH0 SUB PUSH2 0x3CFF JUMPI DUP4 DUP2 DUP2 PUSH2 0x3CF5 JUMPI PUSH2 0x3CF5 PUSH2 0x479A JUMP JUMPDEST DIV SWAP3 POP POP POP PUSH2 0xE07 JUMP JUMPDEST DUP2 DUP5 GT PUSH2 0x3D16 JUMPI PUSH2 0x3D16 PUSH1 0x3 DUP6 ISZERO MUL PUSH1 0x11 XOR PUSH2 0x432B JUMP JUMPDEST PUSH0 DUP5 DUP7 DUP9 MULMOD PUSH0 DUP7 DUP2 SUB DUP8 AND SWAP7 DUP8 SWAP1 DIV SWAP7 PUSH1 0x2 PUSH1 0x3 DUP10 MUL DUP2 XOR DUP1 DUP11 MUL DUP3 SUB MUL DUP1 DUP11 MUL DUP3 SUB MUL DUP1 DUP11 MUL DUP3 SUB MUL DUP1 DUP11 MUL DUP3 SUB MUL DUP1 DUP11 MUL DUP3 SUB MUL DUP1 DUP11 MUL SWAP1 SWAP2 SUB MUL SWAP2 DUP2 SWAP1 SUB DUP2 SWAP1 DIV PUSH1 0x1 ADD DUP6 DUP5 GT SWAP1 SWAP7 SUB SWAP6 SWAP1 SWAP6 MUL SWAP2 SWAP1 SWAP4 SUB SWAP4 SWAP1 SWAP4 DIV SWAP3 SWAP1 SWAP3 OR MUL SWAP2 POP POP SWAP4 SWAP3 POP POP POP JUMP JUMPDEST PUSH2 0x3DAA PUSH32 0x0 DUP6 ADDRESS DUP6 PUSH2 0x433C JUMP JUMPDEST PUSH2 0x3DB4 DUP4 DUP3 PUSH2 0x4375 JUMP JUMPDEST DUP3 PUSH1 0x1 PUSH1 0x1 PUSH1 0xA0 SHL SUB AND DUP5 PUSH1 0x1 PUSH1 0x1 PUSH1 0xA0 SHL SUB AND PUSH32 0xDCBC1C05240F31FF3AD067EF1EE35CE4997762752E3A095284754544F4C709D7 DUP5 DUP5 PUSH1 0x40 MLOAD PUSH2 0x36A3 SWAP3 SWAP2 SWAP1 SWAP2 DUP3 MSTORE PUSH1 0x20 DUP3 ADD MSTORE PUSH1 0x40 ADD SWAP1 JUMP JUMPDEST DUP3 PUSH1 0x1 PUSH1 0x1 PUSH1 0xA0 SHL SUB AND DUP6 PUSH1 0x1 PUSH1 0x1 PUSH1 0xA0 SHL SUB AND EQ PUSH2 0x3E26 JUMPI PUSH2 0x3E26 DUP4 DUP7 DUP4 PUSH2 0x31D4 JUMP JUMPDEST PUSH2 0x3E30 DUP4 DUP3 PUSH2 0x43A9 JUMP JUMPDEST PUSH2 0x3E5B PUSH32 0x0 DUP6 DUP5 PUSH2 0x353E JUMP JUMPDEST DUP3 PUSH1 0x1 PUSH1 0x1 PUSH1 0xA0 SHL SUB AND DUP5 PUSH1 0x1 PUSH1 0x1 PUSH1 0xA0 SHL SUB AND DUP7 PUSH1 0x1 PUSH1 0x1 PUSH1 0xA0 SHL SUB AND PUSH32 0xFBDE797D201C681B91056529119E0B02407C7BB96A4A2C75C01FC9667232C8DB DUP6 DUP6 PUSH1 0x40 MLOAD PUSH2 0x3EB3 SWAP3 SWAP2 SWAP1 SWAP2 DUP3 MSTORE PUSH1 0x20 DUP3 ADD MSTORE PUSH1 0x40 ADD SWAP1 JUMP JUMPDEST PUSH1 0x40 MLOAD DUP1 SWAP2 SUB SWAP1 LOG4 POP POP POP POP POP JUMP JUMPDEST PUSH1 0xD SLOAD PUSH0 SWAP1 DUP2 SWAP1 DUP2 SWAP1 PUSH8 0xFFFFFFFFFFFFFFFF DUP2 GT ISZERO PUSH2 0x3EE3 JUMPI PUSH2 0x3EE3 PUSH2 0x484D JUMP JUMPDEST PUSH1 0x40 MLOAD SWAP1 DUP1 DUP3 MSTORE DUP1 PUSH1 0x20 MUL PUSH1 0x20 ADD DUP3 ADD PUSH1 0x40 MSTORE DUP1 ISZERO PUSH2 0x3F0C JUMPI DUP2 PUSH1 0x20 ADD PUSH1 0x20 DUP3 MUL DUP1 CALLDATASIZE DUP4 CALLDATACOPY ADD SWAP1 POP JUMPDEST POP SWAP1 POP PUSH0 DUP1 JUMPDEST PUSH1 0xD SLOAD DUP2 LT ISZERO PUSH2 0x4007 JUMPI PUSH0 PUSH1 0xD DUP3 DUP2 SLOAD DUP2 LT PUSH2 0x3F30 JUMPI PUSH2 0x3F30 PUSH2 0x46FE JUMP JUMPDEST PUSH0 SWAP2 DUP3 MSTORE PUSH1 0x20 DUP1 DUP4 KECCAK256 SWAP1 SWAP2 ADD SLOAD PUSH1 0x1 PUSH1 0x1 PUSH1 0xA0 SHL SUB AND DUP1 DUP4 MSTORE PUSH1 0xC SWAP1 SWAP2 MSTORE PUSH1 0x40 SWAP1 SWAP2 KECCAK256 SWAP1 SWAP2 POP PUSH1 0x1 PUSH1 0x2 DUP3 ADD SLOAD PUSH1 0xFF AND PUSH1 0x3 DUP2 GT ISZERO PUSH2 0x3F71 JUMPI PUSH2 0x3F71 PUSH2 0x44D6 JUMP JUMPDEST EQ DUP1 PUSH2 0x3F94 JUMPI POP PUSH1 0x2 DUP1 DUP3 ADD SLOAD PUSH1 0xFF AND PUSH1 0x3 DUP2 GT ISZERO PUSH2 0x3F92 JUMPI PUSH2 0x3F92 PUSH2 0x44D6 JUMP JUMPDEST EQ JUMPDEST DUP1 ISZERO PUSH2 0x3FA3 JUMPI POP PUSH0 DUP2 PUSH1 0x3 ADD SLOAD GT JUMPDEST ISZERO PUSH2 0x3FF2 JUMPI PUSH1 0x3 DUP2 ADD SLOAD PUSH2 0x3FB7 SWAP1 DUP8 PUSH2 0x4726 JUMP JUMPDEST SWAP6 POP DUP2 DUP6 DUP6 DUP2 MLOAD DUP2 LT PUSH2 0x3FCC JUMPI PUSH2 0x3FCC PUSH2 0x46FE JUMP JUMPDEST PUSH1 0x1 PUSH1 0x1 PUSH1 0xA0 SHL SUB SWAP1 SWAP3 AND PUSH1 0x20 SWAP3 DUP4 MUL SWAP2 SWAP1 SWAP2 ADD SWAP1 SWAP2 ADD MSTORE DUP4 PUSH2 0x3FEE DUP2 PUSH2 0x4739 JUMP JUMPDEST SWAP5 POP POP JUMPDEST POP POP DUP1 DUP1 PUSH2 0x3FFF SWAP1 PUSH2 0x4739 JUMP JUMPDEST SWAP2 POP POP PUSH2 0x3F12 JUMP JUMPDEST POP DUP3 ISZERO DUP1 PUSH2 0x4013 JUMPI POP DUP1 ISZERO JUMPDEST ISZERO PUSH2 0x4022 JUMPI POP PUSH0 SWAP5 SWAP4 POP POP POP POP JUMP JUMPDEST PUSH0 DUP6 PUSH32 0x0 DUP3 JUMPDEST DUP5 DUP2 LT ISZERO PUSH2 0x4302 JUMPI PUSH0 DUP7 DUP3 DUP2 MLOAD DUP2 LT PUSH2 0x4062 JUMPI PUSH2 0x4062 PUSH2 0x46FE JUMP JUMPDEST PUSH1 0x20 SWAP1 DUP2 MUL SWAP2 SWAP1 SWAP2 ADD DUP2 ADD MLOAD PUSH1 0x1 PUSH1 0x1 PUSH1 0xA0 SHL SUB DUP2 AND PUSH0 SWAP1 DUP2 MSTORE PUSH1 0xC SWAP1 SWAP3 MSTORE PUSH1 0x40 DUP3 KECCAK256 SWAP1 SWAP3 POP SWAP1 PUSH2 0x4094 PUSH1 0x1 DUP10 PUSH2 0x47F8 JUMP JUMPDEST DUP5 SUB PUSH2 0x40A1 JUMPI POP DUP5 PUSH2 0x40BF JUMP JUMPDEST DUP10 DUP13 DUP4 PUSH1 0x3 ADD SLOAD PUSH2 0x40B2 SWAP2 SWAP1 PUSH2 0x4783 JUMP JUMPDEST PUSH2 0x40BC SWAP2 SWAP1 PUSH2 0x47AE JUMP JUMPDEST SWAP1 POP JUMPDEST DUP2 PUSH1 0x3 ADD SLOAD DUP2 GT ISZERO PUSH2 0x40D2 JUMPI POP PUSH1 0x3 DUP2 ADD SLOAD JUMPDEST DUP1 ISZERO DUP1 PUSH2 0x40DD JUMPI POP DUP6 ISZERO JUMPDEST ISZERO PUSH2 0x40EA JUMPI POP POP POP PUSH2 0x42F0 JUMP JUMPDEST PUSH1 0x40 MLOAD PUSH4 0x70A08231 PUSH1 0xE0 SHL DUP2 MSTORE ADDRESS PUSH1 0x4 DUP3 ADD MSTORE PUSH0 SWAP1 PUSH1 0x1 PUSH1 0x1 PUSH1 0xA0 SHL SUB DUP8 AND SWAP1 PUSH4 0x70A08231 SWAP1 PUSH1 0x24 ADD PUSH1 0x20 PUSH1 0x40 MLOAD DUP1 DUP4 SUB DUP2 DUP7 GAS STATICCALL ISZERO DUP1 ISZERO PUSH2 0x412E JUMPI RETURNDATASIZE PUSH0 DUP1 RETURNDATACOPY RETURNDATASIZE PUSH0 REVERT JUMPDEST POP POP POP POP PUSH1 0x40 MLOAD RETURNDATASIZE PUSH1 0x1F NOT PUSH1 0x1F DUP3 ADD AND DUP3 ADD DUP1 PUSH1 0x40 MSTORE POP DUP2 ADD SWAP1 PUSH2 0x4152 SWAP2 SWAP1 PUSH2 0x46E7 JUMP JUMPDEST PUSH1 0x40 MLOAD PUSH3 0x7B8A67 PUSH1 0xE1 SHL DUP2 MSTORE PUSH1 0x4 DUP2 ADD DUP5 SWAP1 MSTORE ADDRESS PUSH1 0x24 DUP3 ADD MSTORE SWAP1 SWAP2 POP PUSH1 0x1 PUSH1 0x1 PUSH1 0xA0 SHL SUB DUP6 AND SWAP1 PUSH3 0xF714CE SWAP1 PUSH1 0x44 ADD PUSH1 0x20 PUSH1 0x40 MLOAD DUP1 DUP4 SUB DUP2 PUSH0 DUP8 GAS CALL SWAP3 POP POP POP DUP1 ISZERO PUSH2 0x41BB JUMPI POP PUSH1 0x40 DUP1 MLOAD PUSH1 0x1F RETURNDATASIZE SWAP1 DUP2 ADD PUSH1 0x1F NOT AND DUP3 ADD SWAP1 SWAP3 MSTORE PUSH2 0x41B8 SWAP2 DUP2 ADD SWAP1 PUSH2 0x46E7 JUMP JUMPDEST PUSH1 0x1 JUMPDEST PUSH2 0x41C8 JUMPI POP POP POP POP PUSH2 0x42F0 JUMP JUMPDEST PUSH1 0x40 MLOAD PUSH4 0x70A08231 PUSH1 0xE0 SHL DUP2 MSTORE ADDRESS PUSH1 0x4 DUP3 ADD MSTORE PUSH0 SWAP1 PUSH1 0x1 PUSH1 0x1 PUSH1 0xA0 SHL SUB DUP10 AND SWAP1 PUSH4 0x70A08231 SWAP1 PUSH1 0x24 ADD PUSH1 0x20 PUSH1 0x40 MLOAD DUP1 DUP4 SUB DUP2 DUP7 GAS STATICCALL ISZERO DUP1 ISZERO PUSH2 0x420C JUMPI RETURNDATASIZE PUSH0 DUP1 RETURNDATACOPY RETURNDATASIZE PUSH0 REVERT JUMPDEST POP POP POP POP PUSH1 0x40 MLOAD RETURNDATASIZE PUSH1 0x1F NOT PUSH1 0x1F DUP3 ADD AND DUP3 ADD DUP1 PUSH1 0x40 MSTORE POP DUP2 ADD SWAP1 PUSH2 0x4230 SWAP2 SWAP1 PUSH2 0x46E7 JUMP JUMPDEST SWAP1 POP DUP3 DUP2 GT ISZERO PUSH2 0x42E9 JUMPI PUSH0 PUSH2 0x4245 DUP5 DUP4 PUSH2 0x47F8 JUMP JUMPDEST SWAP1 POP DUP1 DUP7 PUSH1 0x3 ADD SLOAD LT PUSH2 0x4270 JUMPI DUP1 DUP7 PUSH1 0x3 ADD PUSH0 DUP3 DUP3 SLOAD PUSH2 0x4265 SWAP2 SWAP1 PUSH2 0x47F8 JUMP JUMPDEST SWAP1 SWAP2 SSTORE POP PUSH2 0x4277 SWAP1 POP JUMP JUMPDEST PUSH0 PUSH1 0x3 DUP8 ADD SSTORE JUMPDEST PUSH2 0x4281 DUP2 DUP13 PUSH2 0x4726 JUMP JUMPDEST SWAP11 POP PUSH0 DUP11 DUP3 LT PUSH2 0x4291 JUMPI DUP11 PUSH2 0x4293 JUMP JUMPDEST DUP2 JUMPDEST SWAP1 POP PUSH2 0x429F DUP2 DUP13 PUSH2 0x47F8 JUMP JUMPDEST PUSH1 0x40 DUP1 MLOAD DUP9 DUP2 MSTORE PUSH1 0x20 DUP2 ADD DUP8 SWAP1 MSTORE SWAP2 SWAP13 POP PUSH1 0x1 PUSH1 0x1 PUSH1 0xA0 SHL SUB DUP11 AND SWAP2 PUSH32 0x490DFB4CE52333704763AEE75EDBA596CEAAB548BCCAFC900F79C2B9F6381B08 SWAP2 ADD PUSH1 0x40 MLOAD DUP1 SWAP2 SUB SWAP1 LOG2 POP POP JUMPDEST POP POP POP POP POP POP JUMPDEST DUP1 PUSH2 0x42FA DUP2 PUSH2 0x4739 JUMP JUMPDEST SWAP2 POP POP PUSH2 0x4047 JUMP JUMPDEST POP SWAP2 SWAP8 SWAP7 POP POP POP POP POP POP POP JUMP JUMPDEST PUSH0 DUP1 PUSH0 NOT DUP4 DUP6 MULMOD SWAP4 SWAP1 SWAP3 MUL DUP1 DUP5 LT SWAP4 DUP2 SWAP1 SUB SWAP4 SWAP1 SWAP4 SUB SWAP4 SWAP2 POP POP JUMP JUMPDEST PUSH4 0x4E487B71 PUSH0 MSTORE DUP1 PUSH1 0x20 MSTORE PUSH1 0x24 PUSH1 0x1C REVERT JUMPDEST PUSH1 0x40 MLOAD PUSH1 0x1 PUSH1 0x1 PUSH1 0xA0 SHL SUB DUP5 DUP2 AND PUSH1 0x24 DUP4 ADD MSTORE DUP4 DUP2 AND PUSH1 0x44 DUP4 ADD MSTORE PUSH1 0x64 DUP3 ADD DUP4 SWAP1 MSTORE PUSH2 0x3237 SWAP2 DUP7 SWAP2 DUP3 AND SWAP1 PUSH4 0x23B872DD SWAP1 PUSH1 0x84 ADD PUSH2 0x356B JUMP JUMPDEST PUSH1 0x1 PUSH1 0x1 PUSH1 0xA0 SHL SUB DUP3 AND PUSH2 0x439E JUMPI PUSH1 0x40 MLOAD PUSH4 0xEC442F05 PUSH1 0xE0 SHL DUP2 MSTORE PUSH0 PUSH1 0x4 DUP3 ADD MSTORE PUSH1 0x24 ADD PUSH2 0xBCA JUMP JUMPDEST PUSH2 0x208E PUSH0 DUP4 DUP4 PUSH2 0x36B1 JUMP JUMPDEST PUSH1 0x1 PUSH1 0x1 PUSH1 0xA0 SHL SUB DUP3 AND PUSH2 0x43D2 JUMPI PUSH1 0x40 MLOAD PUSH4 0x4B637E8F PUSH1 0xE1 SHL DUP2 MSTORE PUSH0 PUSH1 0x4 DUP3 ADD MSTORE PUSH1 0x24 ADD PUSH2 0xBCA JUMP JUMPDEST PUSH2 0x208E DUP3 PUSH0 DUP4 PUSH2 0x36B1 JUMP JUMPDEST PUSH0 PUSH1 0x20 DUP1 DUP4 MSTORE DUP4 MLOAD DUP1 DUP3 DUP6 ADD MSTORE PUSH0 JUMPDEST DUP2 DUP2 LT ISZERO PUSH2 0x4408 JUMPI DUP6 DUP2 ADD DUP4 ADD MLOAD DUP6 DUP3 ADD PUSH1 0x40 ADD MSTORE DUP3 ADD PUSH2 0x43EC JUMP JUMPDEST POP PUSH0 PUSH1 0x40 DUP3 DUP7 ADD ADD MSTORE PUSH1 0x40 PUSH1 0x1F NOT PUSH1 0x1F DUP4 ADD AND DUP6 ADD ADD SWAP3 POP POP POP SWAP3 SWAP2 POP POP JUMP JUMPDEST PUSH0 PUSH1 0x20 DUP3 DUP5 SUB SLT ISZERO PUSH2 0x4438 JUMPI PUSH0 DUP1 REVERT JUMPDEST POP CALLDATALOAD SWAP2 SWAP1 POP JUMP JUMPDEST PUSH1 0x1 PUSH1 0x1 PUSH1 0xA0 SHL SUB DUP2 AND DUP2 EQ PUSH2 0x2C1E JUMPI PUSH0 DUP1 REVERT JUMPDEST PUSH0 DUP1 PUSH1 0x40 DUP4 DUP6 SUB SLT ISZERO PUSH2 0x4464 JUMPI PUSH0 DUP1 REVERT JUMPDEST DUP3 CALLDATALOAD PUSH2 0x446F DUP2 PUSH2 0x443F JUMP JUMPDEST SWAP5 PUSH1 0x20 SWAP4 SWAP1 SWAP4 ADD CALLDATALOAD SWAP4 POP POP POP JUMP JUMPDEST PUSH0 PUSH1 0x20 DUP3 DUP5 SUB SLT ISZERO PUSH2 0x448D JUMPI PUSH0 DUP1 REVERT JUMPDEST DUP2 CALLDATALOAD PUSH2 0xE07 DUP2 PUSH2 0x443F JUMP JUMPDEST PUSH0 DUP1 PUSH0 PUSH1 0x60 DUP5 DUP7 SUB SLT ISZERO PUSH2 0x44AA JUMPI PUSH0 DUP1 REVERT JUMPDEST DUP4 CALLDATALOAD PUSH2 0x44B5 DUP2 PUSH2 0x443F JUMP JUMPDEST SWAP3 POP PUSH1 0x20 DUP5 ADD CALLDATALOAD PUSH2 0x44C5 DUP2 PUSH2 0x443F JUMP JUMPDEST SWAP3 SWAP6 SWAP3 SWAP5 POP POP POP PUSH1 0x40 SWAP2 SWAP1 SWAP2 ADD CALLDATALOAD SWAP1 JUMP JUMPDEST PUSH4 0x4E487B71 PUSH1 0xE0 SHL PUSH0 MSTORE PUSH1 0x21 PUSH1 0x4 MSTORE PUSH1 0x24 PUSH0 REVERT JUMPDEST PUSH1 0x4 DUP2 LT PUSH2 0x4506 JUMPI PUSH4 0x4E487B71 PUSH1 0xE0 SHL PUSH0 MSTORE PUSH1 0x21 PUSH1 0x4 MSTORE PUSH1 0x24 PUSH0 REVERT JUMPDEST SWAP1 MSTORE JUMP JUMPDEST PUSH1 0x1 PUSH1 0x1 PUSH1 0xA0 SHL SUB DUP7 AND DUP2 MSTORE PUSH1 0x20 DUP2 ADD DUP6 SWAP1 MSTORE PUSH1 0xA0 DUP2 ADD PUSH2 0x452E PUSH1 0x40 DUP4 ADD DUP7 PUSH2 0x44EA JUMP JUMPDEST PUSH1 0x60 DUP3 ADD SWAP4 SWAP1 SWAP4 MSTORE PUSH1 0x80 ADD MSTORE SWAP4 SWAP3 POP POP POP JUMP JUMPDEST PUSH0 DUP2 MLOAD DUP1 DUP5 MSTORE PUSH1 0x20 DUP1 DUP6 ADD SWAP5 POP DUP1 DUP5 ADD PUSH0 JUMPDEST DUP4 DUP2 LT ISZERO PUSH2 0x4578 JUMPI DUP2 MLOAD PUSH1 0x1 PUSH1 0x1 PUSH1 0xA0 SHL SUB AND DUP8 MSTORE SWAP6 DUP3 ADD SWAP6 SWAP1 DUP3 ADD SWAP1 PUSH1 0x1 ADD PUSH2 0x4553 JUMP JUMPDEST POP SWAP5 SWAP6 SWAP5 POP POP POP POP POP JUMP JUMPDEST PUSH0 DUP2 MLOAD DUP1 DUP5 MSTORE PUSH1 0x20 DUP1 DUP6 ADD SWAP5 POP DUP1 DUP5 ADD PUSH0 JUMPDEST DUP4 DUP2 LT ISZERO PUSH2 0x4578 JUMPI DUP2 MLOAD DUP8 MSTORE SWAP6 DUP3 ADD SWAP6 SWAP1 DUP3 ADD SWAP1 PUSH1 0x1 ADD PUSH2 0x4595 JUMP JUMPDEST PUSH1 0x60 DUP2 MSTORE PUSH0 PUSH2 0x45C3 PUSH1 0x60 DUP4 ADD DUP7 PUSH2 0x4541 JUMP JUMPDEST DUP3 DUP2 SUB PUSH1 0x20 DUP5 ADD MSTORE PUSH2 0x45D5 DUP2 DUP7 PUSH2 0x4583 JUMP JUMPDEST SWAP1 POP DUP3 DUP2 SUB PUSH1 0x40 DUP5 ADD MSTORE PUSH2 0x45E9 DUP2 DUP6 PUSH2 0x4583 JUMP JUMPDEST SWAP7 SWAP6 POP POP POP POP POP POP JUMP JUMPDEST DUP2 MLOAD PUSH1 0x1 PUSH1 0x1 PUSH1 0xA0 SHL SUB AND DUP2 MSTORE PUSH1 0x20 DUP1 DUP4 ADD MLOAD SWAP1 DUP3 ADD MSTORE PUSH1 0x40 DUP1 DUP4 ADD MLOAD PUSH1 0xA0 DUP4 ADD SWAP2 PUSH2 0x4621 SWAP1 DUP5 ADD DUP3 PUSH2 0x44EA JUMP JUMPDEST POP PUSH1 0x60 DUP4 ADD MLOAD PUSH1 0x60 DUP4 ADD MSTORE PUSH1 0x80 DUP4 ADD MLOAD PUSH1 0x80 DUP4 ADD MSTORE SWAP3 SWAP2 POP POP JUMP JUMPDEST PUSH1 0x20 DUP2 MSTORE PUSH0 PUSH2 0xE07 PUSH1 0x20 DUP4 ADD DUP5 PUSH2 0x4541 JUMP JUMPDEST PUSH0 DUP1 PUSH1 0x40 DUP4 DUP6 SUB SLT ISZERO PUSH2 0x465F JUMPI PUSH0 DUP1 REVERT JUMPDEST DUP3 CALLDATALOAD SWAP2 POP PUSH1 0x20 DUP4 ADD CALLDATALOAD PUSH2 0x4671 DUP2 PUSH2 0x443F JUMP JUMPDEST DUP1 SWAP2 POP POP SWAP3 POP SWAP3 SWAP1 POP JUMP JUMPDEST PUSH0 DUP1 PUSH0 PUSH1 0x60 DUP5 DUP7 SUB SLT ISZERO PUSH2 0x468E JUMPI PUSH0 DUP1 REVERT JUMPDEST DUP4 CALLDATALOAD SWAP3 POP PUSH1 0x20 DUP5 ADD CALLDATALOAD PUSH2 0x46A0 DUP2 PUSH2 0x443F JUMP JUMPDEST SWAP2 POP PUSH1 0x40 DUP5 ADD CALLDATALOAD PUSH2 0x46B0 DUP2 PUSH2 0x443F JUMP JUMPDEST DUP1 SWAP2 POP POP SWAP3 POP SWAP3 POP SWAP3 JUMP JUMPDEST PUSH0 DUP1 PUSH1 0x40 DUP4 DUP6 SUB SLT ISZERO PUSH2 0x46CC JUMPI PUSH0 DUP1 REVERT JUMPDEST DUP3 CALLDATALOAD PUSH2 0x46D7 DUP2 PUSH2 0x443F JUMP JUMPDEST SWAP2 POP PUSH1 0x20 DUP4 ADD CALLDATALOAD PUSH2 0x4671 DUP2 PUSH2 0x443F JUMP JUMPDEST PUSH0 PUSH1 0x20 DUP3 DUP5 SUB SLT ISZERO PUSH2 0x46F7 JUMPI PUSH0 DUP1 REVERT JUMPDEST POP MLOAD SWAP2 SWAP1 POP JUMP JUMPDEST PUSH4 0x4E487B71 PUSH1 0xE0 SHL PUSH0 MSTORE PUSH1 0x32 PUSH1 0x4 MSTORE PUSH1 0x24 PUSH0 REVERT JUMPDEST PUSH4 0x4E487B71 PUSH1 0xE0 SHL PUSH0 MSTORE PUSH1 0x11 PUSH1 0x4 MSTORE PUSH1 0x24 PUSH0 REVERT JUMPDEST DUP1 DUP3 ADD DUP1 DUP3 GT ISZERO PUSH2 0xB35 JUMPI PUSH2 0xB35 PUSH2 0x4712 JUMP JUMPDEST PUSH0 PUSH1 0x1 DUP3 ADD PUSH2 0x474A JUMPI PUSH2 0x474A PUSH2 0x4712 JUMP JUMPDEST POP PUSH1 0x1 ADD SWAP1 JUMP JUMPDEST PUSH1 0x1 DUP2 DUP2 SHR SWAP1 DUP3 AND DUP1 PUSH2 0x4765 JUMPI PUSH1 0x7F DUP3 AND SWAP2 POP JUMPDEST PUSH1 0x20 DUP3 LT DUP2 SUB PUSH2 0xA94 JUMPI PUSH4 0x4E487B71 PUSH1 0xE0 SHL PUSH0 MSTORE PUSH1 0x22 PUSH1 0x4 MSTORE PUSH1 0x24 PUSH0 REVERT JUMPDEST DUP1 DUP3 MUL DUP2 ISZERO DUP3 DUP3 DIV DUP5 EQ OR PUSH2 0xB35 JUMPI PUSH2 0xB35 PUSH2 0x4712 JUMP JUMPDEST PUSH4 0x4E487B71 PUSH1 0xE0 SHL PUSH0 MSTORE PUSH1 0x12 PUSH1 0x4 MSTORE PUSH1 0x24 PUSH0 REVERT JUMPDEST PUSH0 DUP3 PUSH2 0x47BC JUMPI PUSH2 0x47BC PUSH2 0x479A JUMP JUMPDEST POP DIV SWAP1 JUMP JUMPDEST PUSH1 0x20 DUP1 DUP3 MSTORE PUSH1 0x17 SWAP1 DUP3 ADD MSTORE PUSH32 0x537472617465677920646F6573206E6F74206578697374000000000000000000 PUSH1 0x40 DUP3 ADD MSTORE PUSH1 0x60 ADD SWAP1 JUMP JUMPDEST DUP2 DUP2 SUB DUP2 DUP2 GT ISZERO PUSH2 0xB35 JUMPI PUSH2 0xB35 PUSH2 0x4712 JUMP JUMPDEST PUSH4 0x4E487B71 PUSH1 0xE0 SHL PUSH0 MSTORE PUSH1 0x31 PUSH1 0x4 MSTORE PUSH1 0x24 PUSH0 REVERT JUMPDEST PUSH1 0x20 DUP2 ADD PUSH2 0xB35 DUP3 DUP5 PUSH2 0x44EA JUMP JUMPDEST PUSH0 PUSH1 0x20 DUP3 DUP5 SUB SLT ISZERO PUSH2 0x483D JUMPI PUSH0 DUP1 REVERT JUMPDEST DUP2 MLOAD PUSH1 0xFF DUP2 AND DUP2 EQ PUSH2 0xE07 JUMPI PUSH0 DUP1 REVERT JUMPDEST PUSH4 0x4E487B71 PUSH1 0xE0 SHL PUSH0 MSTORE PUSH1 0x41 PUSH1 0x4 MSTORE PUSH1 0x24 PUSH0 REVERT JUMPDEST PUSH1 0x20 DUP1 DUP3 MSTORE PUSH1 0x19 SWAP1 DUP3 ADD MSTORE PUSH32 0x5461726765742063616E6E6F7420657863656564203130302500000000000000 PUSH1 0x40 DUP3 ADD MSTORE PUSH1 0x60 ADD SWAP1 JUMP JUMPDEST PUSH1 0x20 DUP1 DUP3 MSTORE PUSH1 0x19 SWAP1 DUP3 ADD MSTORE PUSH32 0x546F74616C207461726765747320657863656564203130302500000000000000 PUSH1 0x40 DUP3 ADD MSTORE PUSH1 0x60 ADD SWAP1 JUMP JUMPDEST PUSH1 0x20 DUP1 DUP3 MSTORE PUSH1 0xE SWAP1 DUP3 ADD MSTORE PUSH14 0x139BDD08185D5D1A1BDC9A5E9959 PUSH1 0x92 SHL PUSH1 0x40 DUP3 ADD MSTORE PUSH1 0x60 ADD SWAP1 JUMP JUMPDEST PUSH0 PUSH1 0x20 DUP3 DUP5 SUB SLT ISZERO PUSH2 0x4907 JUMPI PUSH0 DUP1 REVERT JUMPDEST DUP2 MLOAD PUSH2 0xE07 DUP2 PUSH2 0x443F JUMP JUMPDEST PUSH1 0x20 DUP1 DUP3 MSTORE PUSH1 0x13 SWAP1 DUP3 ADD MSTORE PUSH19 0x5374726174656779206E6F7420616374697665 PUSH1 0x68 SHL PUSH1 0x40 DUP3 ADD MSTORE PUSH1 0x60 ADD SWAP1 JUMP JUMPDEST PUSH0 DUP1 PUSH0 PUSH1 0x60 DUP5 DUP7 SUB SLT ISZERO PUSH2 0x4951 JUMPI PUSH0 DUP1 REVERT JUMPDEST DUP4 MLOAD SWAP3 POP PUSH1 0x20 DUP5 ADD MLOAD SWAP2 POP PUSH1 0x40 DUP5 ADD MLOAD SWAP1 POP SWAP3 POP SWAP3 POP SWAP3 JUMP JUMPDEST PUSH0 PUSH1 0x20 DUP3 DUP5 SUB SLT ISZERO PUSH2 0x497A JUMPI PUSH0 DUP1 REVERT JUMPDEST DUP2 MLOAD DUP1 ISZERO ISZERO DUP2 EQ PUSH2 0xE07 JUMPI PUSH0 DUP1 REVERT JUMPDEST PUSH1 0x1 DUP2 DUP2 JUMPDEST DUP1 DUP6 GT ISZERO PUSH2 0x49C3 JUMPI DUP2 PUSH0 NOT DIV DUP3 GT ISZERO PUSH2 0x49A9 JUMPI PUSH2 0x49A9 PUSH2 0x4712 JUMP JUMPDEST DUP1 DUP6 AND ISZERO PUSH2 0x49B6 JUMPI SWAP2 DUP2 MUL SWAP2 JUMPDEST SWAP4 DUP5 SHR SWAP4 SWAP1 DUP1 MUL SWAP1 PUSH2 0x498E JUMP JUMPDEST POP SWAP3 POP SWAP3 SWAP1 POP JUMP JUMPDEST PUSH0 DUP3 PUSH2 0x49D9 JUMPI POP PUSH1 0x1 PUSH2 0xB35 JUMP JUMPDEST DUP2 PUSH2 0x49E5 JUMPI POP PUSH0 PUSH2 0xB35 JUMP JUMPDEST DUP2 PUSH1 0x1 DUP2 EQ PUSH2 0x49FB JUMPI PUSH1 0x2 DUP2 EQ PUSH2 0x4A05 JUMPI PUSH2 0x4A21 JUMP JUMPDEST PUSH1 0x1 SWAP2 POP POP PUSH2 0xB35 JUMP JUMPDEST PUSH1 0xFF DUP5 GT ISZERO PUSH2 0x4A16 JUMPI PUSH2 0x4A16 PUSH2 0x4712 JUMP JUMPDEST POP POP PUSH1 0x1 DUP3 SHL PUSH2 0xB35 JUMP JUMPDEST POP PUSH1 0x20 DUP4 LT PUSH2 0x133 DUP4 LT AND PUSH1 0x4E DUP5 LT PUSH1 0xB DUP5 LT AND OR ISZERO PUSH2 0x4A44 JUMPI POP DUP2 DUP2 EXP PUSH2 0xB35 JUMP JUMPDEST PUSH2 0x4A4E DUP4 DUP4 PUSH2 0x4989 JUMP JUMPDEST DUP1 PUSH0 NOT DIV DUP3 GT ISZERO PUSH2 0x4A61 JUMPI PUSH2 0x4A61 PUSH2 0x4712 JUMP JUMPDEST MUL SWAP4 SWAP3 POP POP POP JUMP JUMPDEST PUSH0 PUSH2 0xE07 PUSH1 0xFF DUP5 AND DUP4 PUSH2 0x49CB JUMP JUMPDEST PUSH1 0x1 PUSH1 0x1 PUSH1 0xA0 SHL SUB SWAP4 SWAP1 SWAP4 AND DUP4 MSTORE PUSH1 0x20 DUP4 ADD SWAP2 SWAP1 SWAP2 MSTORE PUSH1 0x40 DUP3 ADD MSTORE PUSH1 0x60 ADD SWAP1 JUMP JUMPDEST PUSH0 PUSH1 0xFF DUP4 AND DUP1 PUSH2 0x4AAA JUMPI PUSH2 0x4AAA PUSH2 0x479A JUMP JUMPDEST DUP1 PUSH1 0xFF DUP5 AND MOD SWAP2 POP POP SWAP3 SWAP2 POP POP JUMP INVALID 0xC9 PUSH31 0x37A3EE882461168E30ABDA52997D9F4A6BF67A405B01C1A39A5CDEB3F0DFA2 PUSH5 0x6970667358 0x22 SLT KECCAK256 SWAP8 0xD SWAP13 0xBC EXTCODESIZE PUSH19 0x27DDA34CD6584334F0FD9DBBF531F10B07FD89 CREATE 0xAE DUP7 GASLIMIT 0x25 0x21 0xE7 PUSH5 0x736F6C6343 STOP ADDMOD EQ STOP CALLER "},"methodIdentifiers":{"DEPOSIT_FEE_BPS()":"6bbf758d","WITHDRAW_FEE_BPS()":"4082fa9b","activateStrategy(address)":"d80ea5a0","addOperator(address)":"9870d7fe","addStrategy(address,uint256)":"c9411e22","allowance(address,address)":"dd62ed3e","approve(address,uint256)":"095ea7b3","asset()":"38d52e0f","balanceOf(address)":"70a08231","bufferTargetBps()":"af56b69f","convertToAssets(uint256)":"07a2d13a","convertToShares(uint256)":"c6e6f592","decimals()":"313ce567","deployToStrategy(address,uint256)":"f6c00db9","deposit(uint256,address)":"6e553f65","depositLimit()":"ecf70858","getActiveStrategies()":"587436e4","getAllStrategies()":"c3b28864","getBufferBalance()":"dc24fc07","getBufferStatus()":"a3603bca","getBufferTarget()":"acd17d5d","getCurrentAllocations()":"41826c2d","getStrategyInfo(address)":"54192ad5","getTotalDeployed()":"38f0ede9","maxDeposit(address)":"402d267d","maxMint(address)":"c63d75b6","maxRedeem(address)":"d905777e","maxWithdraw(address)":"ce96cb77","minDeposit()":"41b3d185","mint(uint256,address)":"94bf804d","name()":"06fdde03","operators(address)":"13e7c9d8","owner()":"8da5cb5b","pause()":"8456cb59","pauseStrategy(address)":"d3f6b598","paused()":"5c975abb","previewDeposit(uint256)":"ef8b30f7","previewMint(uint256)":"b3d7f6b9","previewRedeem(uint256)":"4cdad506","previewWithdraw(uint256)":"0a28a477","redeem(uint256,address,address)":"ba087652","removeOperator(address)":"ac8a584a","removeStrategy(address)":"175188e8","renounceOwnership()":"715018a6","reportStrategy(address)":"d9aba111","resumeStrategy(address)":"2a058cac","revenueRouter()":"e8855812","setBufferTarget(uint256)":"4e423181","setDepositLimit(uint256)":"bdc8144b","setMinDeposit(uint256)":"8fcc9cfb","setYieldRoutingFeeBps(uint256)":"d823a72e","strategies(address)":"39ebf823","strategyList(uint256)":"a267526b","symbol()":"95d89b41","totalAssets()":"01e1d114","totalStrategyTargetBps()":"3ede66f7","totalSupply()":"18160ddd","transfer(address,uint256)":"a9059cbb","transferFrom(address,address,uint256)":"23b872dd","transferOwnership(address)":"f2fde38b","unpause()":"3f4ba83a","updateAllocation(address,uint256)":"70851703","withdraw(uint256,address,address)":"b460af94","withdrawFromStrategy(address,uint256)":"b53d0958","yieldRoutingFeeBps()":"7b320da6"}}}}}