{"project/contracts/ShXRPVault.sol":{"ShXRPVault":{"abi":[{"inputs":[{"internalType":"contract IERC20","name":"_fxrpToken","type":"address"},{"internalType":"string","name":"_name","type":"string"},{"internalType":"string","name":"_symbol","type":"string"}],"stateMutability":"nonpayable","type":"constructor"},{"inputs":[{"internalType":"address","name":"spender","type":"address"},{"internalType":"uint256","name":"allowance","type":"uint256"},{"internalType":"uint256","name":"needed","type":"uint256"}],"name":"ERC20InsufficientAllowance","type":"error"},{"inputs":[{"internalType":"address","name":"sender","type":"address"},{"internalType":"uint256","name":"balance","type":"uint256"},{"internalType":"uint256","name":"needed","type":"uint256"}],"name":"ERC20InsufficientBalance","type":"error"},{"inputs":[{"internalType":"address","name":"approver","type":"address"}],"name":"ERC20InvalidApprover","type":"error"},{"inputs":[{"internalType":"address","name":"receiver","type":"address"}],"name":"ERC20InvalidReceiver","type":"error"},{"inputs":[{"internalType":"address","name":"sender","type":"address"}],"name":"ERC20InvalidSender","type":"error"},{"inputs":[{"internalType":"address","name":"spender","type":"address"}],"name":"ERC20InvalidSpender","type":"error"},{"inputs":[{"internalType":"address","name":"receiver","type":"address"},{"internalType":"uint256","name":"assets","type":"uint256"},{"internalType":"uint256","name":"max","type":"uint256"}],"name":"ERC4626ExceededMaxDeposit","type":"error"},{"inputs":[{"internalType":"address","name":"receiver","type":"address"},{"internalType":"uint256","name":"shares","type":"uint256"},{"internalType":"uint256","name":"max","type":"uint256"}],"name":"ERC4626ExceededMaxMint","type":"error"},{"inputs":[{"internalType":"address","name":"owner","type":"address"},{"internalType":"uint256","name":"shares","type":"uint256"},{"internalType":"uint256","name":"max","type":"uint256"}],"name":"ERC4626ExceededMaxRedeem","type":"error"},{"inputs":[{"internalType":"address","name":"owner","type":"address"},{"internalType":"uint256","name":"assets","type":"uint256"},{"internalType":"uint256","name":"max","type":"uint256"}],"name":"ERC4626ExceededMaxWithdraw","type":"error"},{"inputs":[],"name":"EnforcedPause","type":"error"},{"inputs":[],"name":"ExpectedPause","type":"error"},{"inputs":[{"internalType":"address","name":"owner","type":"address"}],"name":"OwnableInvalidOwner","type":"error"},{"inputs":[{"internalType":"address","name":"account","type":"address"}],"name":"OwnableUnauthorizedAccount","type":"error"},{"inputs":[],"name":"ReentrancyGuardReentrantCall","type":"error"},{"inputs":[{"internalType":"address","name":"token","type":"address"}],"name":"SafeERC20FailedOperation","type":"error"},{"anonymous":false,"inputs":[{"indexed":true,"internalType":"address","name":"owner","type":"address"},{"indexed":true,"internalType":"address","name":"spender","type":"address"},{"indexed":false,"internalType":"uint256","name":"value","type":"uint256"}],"name":"Approval","type":"event"},{"anonymous":false,"inputs":[{"indexed":false,"internalType":"uint256","name":"newTargetBps","type":"uint256"}],"name":"BufferTargetUpdated","type":"event"},{"anonymous":false,"inputs":[{"indexed":true,"internalType":"address","name":"strategy","type":"address"},{"indexed":false,"internalType":"uint256","name":"amount","type":"uint256"}],"name":"DeployedToStrategy","type":"event"},{"anonymous":false,"inputs":[{"indexed":true,"internalType":"address","name":"sender","type":"address"},{"indexed":true,"internalType":"address","name":"owner","type":"address"},{"indexed":false,"internalType":"uint256","name":"assets","type":"uint256"},{"indexed":false,"internalType":"uint256","name":"shares","type":"uint256"}],"name":"Deposit","type":"event"},{"anonymous":false,"inputs":[{"indexed":false,"internalType":"uint256","name":"newDepositLimit","type":"uint256"}],"name":"DepositLimitUpdated","type":"event"},{"anonymous":false,"inputs":[{"indexed":false,"internalType":"uint256","name":"newMinDeposit","type":"uint256"}],"name":"MinDepositUpdated","type":"event"},{"anonymous":false,"inputs":[{"indexed":true,"internalType":"address","name":"operator","type":"address"}],"name":"OperatorAdded","type":"event"},{"anonymous":false,"inputs":[{"indexed":true,"internalType":"address","name":"operator","type":"address"}],"name":"OperatorRemoved","type":"event"},{"anonymous":false,"inputs":[{"indexed":true,"internalType":"address","name":"previousOwner","type":"address"},{"indexed":true,"internalType":"address","name":"newOwner","type":"address"}],"name":"OwnershipTransferred","type":"event"},{"anonymous":false,"inputs":[{"indexed":false,"internalType":"address","name":"account","type":"address"}],"name":"Paused","type":"event"},{"anonymous":false,"inputs":[{"indexed":true,"internalType":"address","name":"strategy","type":"address"},{"indexed":false,"internalType":"uint256","name":"targetBps","type":"uint256"}],"name":"StrategyAdded","type":"event"},{"anonymous":false,"inputs":[{"indexed":true,"internalType":"address","name":"strategy","type":"address"},{"indexed":false,"internalType":"uint256","name":"newTargetBps","type":"uint256"}],"name":"StrategyAllocationUpdated","type":"event"},{"anonymous":false,"inputs":[{"indexed":true,"internalType":"address","name":"strategy","type":"address"}],"name":"StrategyRemoved","type":"event"},{"anonymous":false,"inputs":[{"indexed":true,"internalType":"address","name":"strategy","type":"address"},{"indexed":false,"internalType":"uint256","name":"profit","type":"uint256"},{"indexed":false,"internalType":"uint256","name":"loss","type":"uint256"},{"indexed":false,"internalType":"uint256","name":"totalAssets","type":"uint256"}],"name":"StrategyReported","type":"event"},{"anonymous":false,"inputs":[{"indexed":true,"internalType":"address","name":"strategy","type":"address"},{"indexed":false,"internalType":"enum ShXRPVault.StrategyStatus","name":"newStatus","type":"uint8"}],"name":"StrategyStatusUpdated","type":"event"},{"anonymous":false,"inputs":[{"indexed":true,"internalType":"address","name":"from","type":"address"},{"indexed":true,"internalType":"address","name":"to","type":"address"},{"indexed":false,"internalType":"uint256","name":"value","type":"uint256"}],"name":"Transfer","type":"event"},{"anonymous":false,"inputs":[{"indexed":false,"internalType":"address","name":"account","type":"address"}],"name":"Unpaused","type":"event"},{"anonymous":false,"inputs":[{"indexed":true,"internalType":"address","name":"sender","type":"address"},{"indexed":true,"internalType":"address","name":"receiver","type":"address"},{"indexed":true,"internalType":"address","name":"owner","type":"address"},{"indexed":false,"internalType":"uint256","name":"assets","type":"uint256"},{"indexed":false,"internalType":"uint256","name":"shares","type":"uint256"}],"name":"Withdraw","type":"event"},{"anonymous":false,"inputs":[{"indexed":true,"internalType":"address","name":"strategy","type":"address"},{"indexed":false,"internalType":"uint256","name":"amount","type":"uint256"},{"indexed":false,"internalType":"uint256","name":"actualAmount","type":"uint256"}],"name":"WithdrawnFromStrategy","type":"event"},{"inputs":[{"internalType":"address","name":"strategy","type":"address"}],"name":"activateStrategy","outputs":[],"stateMutability":"nonpayable","type":"function"},{"inputs":[{"internalType":"address","name":"operator","type":"address"}],"name":"addOperator","outputs":[],"stateMutability":"nonpayable","type":"function"},{"inputs":[{"internalType":"address","name":"strategy","type":"address"},{"internalType":"uint256","name":"targetBps","type":"uint256"}],"name":"addStrategy","outputs":[],"stateMutability":"nonpayable","type":"function"},{"inputs":[{"internalType":"address","name":"owner","type":"address"},{"internalType":"address","name":"spender","type":"address"}],"name":"allowance","outputs":[{"internalType":"uint256","name":"","type":"uint256"}],"stateMutability":"view","type":"function"},{"inputs":[{"internalType":"address","name":"spender","type":"address"},{"internalType":"uint256","name":"value","type":"uint256"}],"name":"approve","outputs":[{"internalType":"bool","name":"","type":"bool"}],"stateMutability":"nonpayable","type":"function"},{"inputs":[],"name":"asset","outputs":[{"internalType":"address","name":"","type":"address"}],"stateMutability":"view","type":"function"},{"inputs":[{"internalType":"address","name":"account","type":"address"}],"name":"balanceOf","outputs":[{"internalType":"uint256","name":"","type":"uint256"}],"stateMutability":"view","type":"function"},{"inputs":[],"name":"bufferTargetBps","outputs":[{"internalType":"uint256","name":"","type":"uint256"}],"stateMutability":"view","type":"function"},{"inputs":[{"internalType":"uint256","name":"shares","type":"uint256"}],"name":"convertToAssets","outputs":[{"internalType":"uint256","name":"","type":"uint256"}],"stateMutability":"view","type":"function"},{"inputs":[{"internalType":"uint256","name":"assets","type":"uint256"}],"name":"convertToShares","outputs":[{"internalType":"uint256","name":"","type":"uint256"}],"stateMutability":"view","type":"function"},{"inputs":[],"name":"decimals","outputs":[{"internalType":"uint8","name":"","type":"uint8"}],"stateMutability":"view","type":"function"},{"inputs":[{"internalType":"address","name":"strategy","type":"address"},{"internalType":"uint256","name":"amount","type":"uint256"}],"name":"deployToStrategy","outputs":[],"stateMutability":"nonpayable","type":"function"},{"inputs":[{"internalType":"uint256","name":"assets","type":"uint256"},{"internalType":"address","name":"receiver","type":"address"}],"name":"deposit","outputs":[{"internalType":"uint256","name":"","type":"uint256"}],"stateMutability":"nonpayable","type":"function"},{"inputs":[],"name":"depositLimit","outputs":[{"internalType":"uint256","name":"","type":"uint256"}],"stateMutability":"view","type":"function"},{"inputs":[],"name":"getActiveStrategies","outputs":[{"internalType":"address[]","name":"","type":"address[]"}],"stateMutability":"view","type":"function"},{"inputs":[],"name":"getAllStrategies","outputs":[{"internalType":"address[]","name":"","type":"address[]"}],"stateMutability":"view","type":"function"},{"inputs":[],"name":"getBufferBalance","outputs":[{"internalType":"uint256","name":"","type":"uint256"}],"stateMutability":"view","type":"function"},{"inputs":[],"name":"getBufferStatus","outputs":[{"internalType":"uint256","name":"current","type":"uint256"},{"internalType":"uint256","name":"target","type":"uint256"},{"internalType":"uint256","name":"deficit","type":"uint256"},{"internalType":"uint256","name":"surplus","type":"uint256"},{"internalType":"uint256","name":"targetBps","type":"uint256"}],"stateMutability":"view","type":"function"},{"inputs":[],"name":"getBufferTarget","outputs":[{"internalType":"uint256","name":"","type":"uint256"}],"stateMutability":"view","type":"function"},{"inputs":[],"name":"getCurrentAllocations","outputs":[{"internalType":"address[]","name":"strategies_","type":"address[]"},{"internalType":"uint256[]","name":"allocations","type":"uint256[]"},{"internalType":"uint256[]","name":"targets","type":"uint256[]"}],"stateMutability":"view","type":"function"},{"inputs":[{"internalType":"address","name":"strategy","type":"address"}],"name":"getStrategyInfo","outputs":[{"components":[{"internalType":"address","name":"strategyAddress","type":"address"},{"internalType":"uint256","name":"targetBps","type":"uint256"},{"internalType":"enum ShXRPVault.StrategyStatus","name":"status","type":"uint8"},{"internalType":"uint256","name":"totalDeployed","type":"uint256"},{"internalType":"uint256","name":"lastReportTimestamp","type":"uint256"}],"internalType":"struct ShXRPVault.StrategyInfo","name":"info","type":"tuple"}],"stateMutability":"view","type":"function"},{"inputs":[],"name":"getTotalDeployed","outputs":[{"internalType":"uint256","name":"","type":"uint256"}],"stateMutability":"view","type":"function"},{"inputs":[{"internalType":"address","name":"receiver","type":"address"}],"name":"maxDeposit","outputs":[{"internalType":"uint256","name":"","type":"uint256"}],"stateMutability":"view","type":"function"},{"inputs":[{"internalType":"address","name":"receiver","type":"address"}],"name":"maxMint","outputs":[{"internalType":"uint256","name":"","type":"uint256"}],"stateMutability":"view","type":"function"},{"inputs":[{"internalType":"address","name":"owner","type":"address"}],"name":"maxRedeem","outputs":[{"internalType":"uint256","name":"","type":"uint256"}],"stateMutability":"view","type":"function"},{"inputs":[{"internalType":"address","name":"owner","type":"address"}],"name":"maxWithdraw","outputs":[{"internalType":"uint256","name":"","type":"uint256"}],"stateMutability":"view","type":"function"},{"inputs":[],"name":"minDeposit","outputs":[{"internalType":"uint256","name":"","type":"uint256"}],"stateMutability":"view","type":"function"},{"inputs":[{"internalType":"uint256","name":"shares","type":"uint256"},{"internalType":"address","name":"receiver","type":"address"}],"name":"mint","outputs":[{"internalType":"uint256","name":"","type":"uint256"}],"stateMutability":"nonpayable","type":"function"},{"inputs":[],"name":"name","outputs":[{"internalType":"string","name":"","type":"string"}],"stateMutability":"view","type":"function"},{"inputs":[{"internalType":"address","name":"","type":"address"}],"name":"operators","outputs":[{"internalType":"bool","name":"","type":"bool"}],"stateMutability":"view","type":"function"},{"inputs":[],"name":"owner","outputs":[{"internalType":"address","name":"","type":"address"}],"stateMutability":"view","type":"function"},{"inputs":[],"name":"pause","outputs":[],"stateMutability":"nonpayable","type":"function"},{"inputs":[{"internalType":"address","name":"strategy","type":"address"}],"name":"pauseStrategy","outputs":[],"stateMutability":"nonpayable","type":"function"},{"inputs":[],"name":"paused","outputs":[{"internalType":"bool","name":"","type":"bool"}],"stateMutability":"view","type":"function"},{"inputs":[{"internalType":"uint256","name":"assets","type":"uint256"}],"name":"previewDeposit","outputs":[{"internalType":"uint256","name":"","type":"uint256"}],"stateMutability":"view","type":"function"},{"inputs":[{"internalType":"uint256","name":"shares","type":"uint256"}],"name":"previewMint","outputs":[{"internalType":"uint256","name":"","type":"uint256"}],"stateMutability":"view","type":"function"},{"inputs":[{"internalType":"uint256","name":"shares","type":"uint256"}],"name":"previewRedeem","outputs":[{"internalType":"uint256","name":"","type":"uint256"}],"stateMutability":"view","type":"function"},{"inputs":[{"internalType":"uint256","name":"assets","type":"uint256"}],"name":"previewWithdraw","outputs":[{"internalType":"uint256","name":"","type":"uint256"}],"stateMutability":"view","type":"function"},{"inputs":[{"internalType":"uint256","name":"shares","type":"uint256"},{"internalType":"address","name":"receiver","type":"address"},{"internalType":"address","name":"owner","type":"address"}],"name":"redeem","outputs":[{"internalType":"uint256","name":"","type":"uint256"}],"stateMutability":"nonpayable","type":"function"},{"inputs":[{"internalType":"address","name":"operator","type":"address"}],"name":"removeOperator","outputs":[],"stateMutability":"nonpayable","type":"function"},{"inputs":[{"internalType":"address","name":"strategy","type":"address"}],"name":"removeStrategy","outputs":[],"stateMutability":"nonpayable","type":"function"},{"inputs":[],"name":"renounceOwnership","outputs":[],"stateMutability":"nonpayable","type":"function"},{"inputs":[{"internalType":"address","name":"strategy","type":"address"}],"name":"reportStrategy","outputs":[],"stateMutability":"nonpayable","type":"function"},{"inputs":[{"internalType":"address","name":"strategy","type":"address"}],"name":"resumeStrategy","outputs":[],"stateMutability":"nonpayable","type":"function"},{"inputs":[{"internalType":"uint256","name":"newTargetBps","type":"uint256"}],"name":"setBufferTarget","outputs":[],"stateMutability":"nonpayable","type":"function"},{"inputs":[{"internalType":"uint256","name":"newDepositLimit","type":"uint256"}],"name":"setDepositLimit","outputs":[],"stateMutability":"nonpayable","type":"function"},{"inputs":[{"internalType":"uint256","name":"newMinDeposit","type":"uint256"}],"name":"setMinDeposit","outputs":[],"stateMutability":"nonpayable","type":"function"},{"inputs":[{"internalType":"address","name":"","type":"address"}],"name":"strategies","outputs":[{"internalType":"address","name":"strategyAddress","type":"address"},{"internalType":"uint256","name":"targetBps","type":"uint256"},{"internalType":"enum ShXRPVault.StrategyStatus","name":"status","type":"uint8"},{"internalType":"uint256","name":"totalDeployed","type":"uint256"},{"internalType":"uint256","name":"lastReportTimestamp","type":"uint256"}],"stateMutability":"view","type":"function"},{"inputs":[{"internalType":"uint256","name":"","type":"uint256"}],"name":"strategyList","outputs":[{"internalType":"address","name":"","type":"address"}],"stateMutability":"view","type":"function"},{"inputs":[],"name":"symbol","outputs":[{"internalType":"string","name":"","type":"string"}],"stateMutability":"view","type":"function"},{"inputs":[],"name":"totalAssets","outputs":[{"internalType":"uint256","name":"","type":"uint256"}],"stateMutability":"view","type":"function"},{"inputs":[],"name":"totalStrategyTargetBps","outputs":[{"internalType":"uint256","name":"","type":"uint256"}],"stateMutability":"view","type":"function"},{"inputs":[],"name":"totalSupply","outputs":[{"internalType":"uint256","name":"","type":"uint256"}],"stateMutability":"view","type":"function"},{"inputs":[{"internalType":"address","name":"to","type":"address"},{"internalType":"uint256","name":"value","type":"uint256"}],"name":"transfer","outputs":[{"internalType":"bool","name":"","type":"bool"}],"stateMutability":"nonpayable","type":"function"},{"inputs":[{"internalType":"address","name":"from","type":"address"},{"internalType":"address","name":"to","type":"address"},{"internalType":"uint256","name":"value","type":"uint256"}],"name":"transferFrom","outputs":[{"internalType":"bool","name":"","type":"bool"}],"stateMutability":"nonpayable","type":"function"},{"inputs":[{"internalType":"address","name":"newOwner","type":"address"}],"name":"transferOwnership","outputs":[],"stateMutability":"nonpayable","type":"function"},{"inputs":[],"name":"unpause","outputs":[],"stateMutability":"nonpayable","type":"function"},{"inputs":[{"internalType":"address","name":"strategy","type":"address"},{"internalType":"uint256","name":"newTargetBps","type":"uint256"}],"name":"updateAllocation","outputs":[],"stateMutability":"nonpayable","type":"function"},{"inputs":[{"internalType":"uint256","name":"assets","type":"uint256"},{"internalType":"address","name":"receiver","type":"address"},{"internalType":"address","name":"owner","type":"address"}],"name":"withdraw","outputs":[{"internalType":"uint256","name":"","type":"uint256"}],"stateMutability":"nonpayable","type":"function"},{"inputs":[{"internalType":"address","name":"strategy","type":"address"},{"internalType":"uint256","name":"amount","type":"uint256"}],"name":"withdrawFromStrategy","outputs":[],"stateMutability":"nonpayable","type":"function"}],"evm":{"bytecode":{"linkReferences":{},"object":"60c060405261271060095564e8d4a51000600a556103e8600e5534801562000025575f80fd5b5060405162004aec38038062004aec833981016040819052620000489162000377565b3383838360036200005a838262000487565b50600462000069828262000487565b5050505f806200007f836200018160201b60201c565b91509150816200009157601262000093565b805b60ff1660a05250506001600160a01b039081166080528116620000d057604051631e4fbdf760e01b81525f60048201526024015b60405180910390fd5b620000db8162000260565b5060016006556001600160a01b038316620001395760405162461bcd60e51b815260206004820152601a60248201527f496e76616c6964204658525020746f6b656e20616464726573730000000000006044820152606401620000c7565b335f81815260086020526040808220805460ff19166001179055517fac6fa858e9350a46cec16539926e0fde25b7629f84b5a72bffaae4df888ae86d9190a250505062000584565b60408051600481526024810182526020810180516001600160e01b031663313ce56760e01b17905290515f918291829182916001600160a01b03871691620001c9916200054f565b5f60405180830381855afa9150503d805f811462000203576040519150601f19603f3d011682016040523d82523d5f602084013e62000208565b606091505b50915091508180156200021d57506020815110155b1562000254575f818060200190518101906200023a91906200056c565b905060ff811162000252576001969095509350505050565b505b505f9485945092505050565b600580546001600160a01b038381166001600160a01b0319831681179093556040519116919082907f8be0079c531659141344cd1fd0a4f28419497f9722a3daafe3b4186f6b6457e0905f90a35050565b634e487b7160e01b5f52604160045260245ffd5b5f5b83811015620002e1578181015183820152602001620002c7565b50505f910152565b5f82601f830112620002f9575f80fd5b81516001600160401b0380821115620003165762000316620002b1565b604051601f8301601f19908116603f01168101908282118183101715620003415762000341620002b1565b816040528381528660208588010111156200035a575f80fd5b6200036d846020830160208901620002c5565b9695505050505050565b5f805f606084860312156200038a575f80fd5b83516001600160a01b0381168114620003a1575f80fd5b60208501519093506001600160401b0380821115620003be575f80fd5b620003cc87838801620002e9565b93506040860151915080821115620003e2575f80fd5b50620003f186828701620002e9565b9150509250925092565b600181811c908216806200041057607f821691505b6020821081036200042f57634e487b7160e01b5f52602260045260245ffd5b50919050565b601f82111562000482575f81815260208120601f850160051c810160208610156200045d5750805b601f850160051c820191505b818110156200047e5782815560010162000469565b5050505b505050565b81516001600160401b03811115620004a357620004a3620002b1565b620004bb81620004b48454620003fb565b8462000435565b602080601f831160018114620004f1575f8415620004d95750858301515b5f19600386901b1c1916600185901b1785556200047e565b5f85815260208120601f198616915b82811015620005215788860151825594840194600190910190840162000500565b50858210156200053f57878501515f19600388901b60f8161c191681555b5050505050600190811b01905550565b5f825162000562818460208701620002c5565b9190910192915050565b5f602082840312156200057d575f80fd5b5051919050565b60805160a0516144fc620005f05f395f50505f81816104910152818161085f01528181610e4f01528181611c6b01528181611d680152818161229f015281816127c2015281816129a101528181613441015281816136c501528181613777015261396801526144fc5ff3fe608060405234801561000f575f80fd5b5060043610610393575f3560e01c80638fcc9cfb116101df578063c3b2886411610109578063d905777e116100a9578063ecf7085811610079578063ecf708581461082c578063ef8b30f714610767578063f2fde38b14610835578063f6c00db914610848575f80fd5b8063d905777e146107c6578063d9aba111146107d9578063dc24fc07146107ec578063dd62ed3e146107f4575f80fd5b8063c9411e22116100e4578063c9411e221461077a578063ce96cb771461078d578063d3f6b598146107a0578063d80ea5a0146107b3575f80fd5b8063c3b288641461074c578063c63d75b614610754578063c6e6f59214610767575f80fd5b8063ac8a584a1161017f578063b460af941161014f578063b460af9414610700578063b53d095814610713578063ba08765214610726578063bdc8144b14610739575f80fd5b8063ac8a584a146106c9578063acd17d5d146106dc578063af56b69f146106e4578063b3d7f6b9146106ed575f80fd5b80639870d7fe116101ba5780639870d7fe14610660578063a267526b14610673578063a3603bca14610686578063a9059cbb146106b6575f80fd5b80638fcc9cfb1461063257806394bf804d1461064557806395d89b4114610658575f80fd5b80633f4ba83a116102c0578063587436e41161026057806370a082311161023057806370a08231146105e9578063715018a6146106115780638456cb59146106195780638da5cb5b14610621575f80fd5b8063587436e4146105a35780635c975abb146105b85780636e553f65146105c357806370851703146105d6575f80fd5b806341b3d1851161029b57806341b3d185146105675780634cdad506146103c75780634e4231811461057057806354192ad514610583575f80fd5b80633f4ba83a14610535578063402d267d1461053d57806341826c2d14610550575f80fd5b806318160ddd1161033657806338d52e0f1161030657806338d52e0f1461048f57806338f0ede9146104c957806339ebf823146104d15780633ede66f71461052c575f80fd5b806318160ddd1461044757806323b872dd1461044f5780632a058cac14610462578063313ce56714610475575f80fd5b8063095ea7b311610371578063095ea7b3146103da5780630a28a477146103fd57806313e7c9d814610410578063175188e814610432575f80fd5b806301e1d1141461039757806306fdde03146103b257806307a2d13a146103c7575b5f80fd5b61039f61085b565b6040519081526020015b60405180910390f35b6103ba6109f2565b6040516103a99190613dea565b61039f6103d5366004613e35565b610a82565b6103ed6103e8366004613e60565b610a93565b60405190151581526020016103a9565b61039f61040b366004613e35565b610aaa565b6103ed61041e366004613e8a565b60086020525f908152604090205460ff1681565b610445610440366004613e8a565b610ab6565b005b60025461039f565b6103ed61045d366004613ea5565b610d13565b610445610470366004613e8a565b610d38565b61047d610e4c565b60405160ff90911681526020016103a9565b7f00000000000000000000000000000000000000000000000000000000000000005b6040516001600160a01b0390911681526020016103a9565b61039f610ed2565b61051b6104df366004613e8a565b600b6020525f9081526040902080546001820154600283015460038401546004909401546001600160a01b0390931693919260ff909116919085565b6040516103a9959493929190613f17565b61039f600d5481565b610445610f3b565b61039f61054b366004613e8a565b610f4d565b610558610f90565b6040516103a993929190613fbe565b61039f60095481565b61044561057e366004613e35565b611334565b610596610591366004613e8a565b6113cd565b6040516103a99190614000565b6105ab6114b6565b6040516103a99190614049565b60075460ff166103ed565b61039f6105d136600461405b565b61166a565b6104456105e4366004613e60565b6116db565b61039f6105f7366004613e8a565b6001600160a01b03165f9081526020819052604090205490565b61044561181d565b61044561182e565b6005546001600160a01b03166104b1565b610445610640366004613e35565b61183e565b61039f61065336600461405b565b6118d1565b6103ba61194f565b61044561066e366004613e8a565b61195e565b6104b1610681366004613e35565b611a07565b61068e611a2f565b604080519586526020860194909452928401919091526060830152608082015260a0016103a9565b6103ed6106c4366004613e60565b611a80565b6104456106d7366004613e8a565b611a8d565b61039f611add565b61039f600e5481565b61039f6106fb366004613e35565b611b00565b61039f61070e366004614089565b611b0c565b610445610721366004613e60565b611b34565b61039f610734366004614089565b611f66565b610445610747366004613e35565b611f82565b6105ab61200e565b61039f610762366004613e8a565b61206d565b61039f610775366004613e35565b6120c5565b610445610788366004613e60565b6120d0565b61039f61079b366004613e8a565b612464565b6104456107ae366004613e8a565b612486565b6104456107c1366004613e8a565b6125a2565b61039f6107d4366004613e8a565b612654565b6104456107e7366004613e8a565b612671565b61039f6127bf565b61039f6108023660046140c8565b6001600160a01b039182165f90815260016020908152604080832093909416825291909152205490565b61039f600a5481565b610445610843366004613e8a565b612849565b610445610856366004613e60565b612886565b5f807f00000000000000000000000000000000000000000000000000000000000000006040516370a0823160e01b81523060048201526001600160a01b0391909116906370a0823190602401602060405180830381865afa1580156108c2573d5f803e3d5ffd5b505050506040513d601f19601f820116820180604052508101906108e691906140f4565b90505f5b600c548110156109ec575f600c82815481106109085761090861410b565b5f9182526020808320909101546001600160a01b0316808352600b90915260409091209091506001600282015460ff16600381111561094957610949613ee3565b146109555750506109da565b816001600160a01b03166301e1d1146040518163ffffffff1660e01b8152600401602060405180830381865afa9250505080156109af575060408051601f3d908101601f191682019092526109ac918101906140f4565b60015b6109c95760038101546109c29085614133565b93506109d7565b6109d38186614133565b9450505b50505b806109e481614146565b9150506108ea565b50919050565b606060038054610a019061415e565b80601f0160208091040260200160405190810160405280929190818152602001828054610a2d9061415e565b8015610a785780601f10610a4f57610100808354040283529160200191610a78565b820191905f5260205f20905b815481529060010190602001808311610a5b57829003601f168201915b5050505050905090565b5f610a8d825f612db6565b92915050565b5f33610aa0818585612dee565b5060019392505050565b5f610a8d826001612e00565b610abe612e2f565b6001600160a01b038181165f908152600b602052604090205416610afd5760405162461bcd60e51b8152600401610af490614190565b60405180910390fd5b6001600160a01b0381165f908152600b602052604090206003015415610b655760405162461bcd60e51b815260206004820152601860248201527f5374726174656779207374696c6c206861732066756e647300000000000000006044820152606401610af4565b6001600160a01b0381165f908152600b6020526040812060010154600d805491929091610b939084906141c7565b90915550506001600160a01b0381165f908152600b6020526040812080546001600160a01b03191681556001810182905560028101805460ff19169055600381018290556004018190555b600c54811015610cdc57816001600160a01b0316600c8281548110610c0557610c0561410b565b5f918252602090912001546001600160a01b031603610cca57600c8054610c2e906001906141c7565b81548110610c3e57610c3e61410b565b5f91825260209091200154600c80546001600160a01b039092169183908110610c6957610c6961410b565b905f5260205f20015f6101000a8154816001600160a01b0302191690836001600160a01b03160217905550600c805480610ca557610ca56141da565b5f8281526020902081015f1990810180546001600160a01b0319169055019055610cdc565b80610cd481614146565b915050610bde565b506040516001600160a01b038216907f09a1db4b80c32706328728508c941a6b954f31eb5affd32f236c1fd405f8fea4905f90a250565b5f33610d20858285612e5c565b610d2b858585612ec5565b60019150505b9392505050565b610d40612e2f565b6001600160a01b038181165f908152600b602052604090205416610d765760405162461bcd60e51b8152600401610af490614190565b60026001600160a01b0382165f908152600b602052604090206002015460ff166003811115610da757610da7613ee3565b14610dea5760405162461bcd60e51b815260206004820152601360248201527214dd1c985d1959de481b9bdd081c185d5cd959606a1b6044820152606401610af4565b6001600160a01b0381165f818152600b602052604090819020600201805460ff1916600190811790915590517f71e4d9fadf21bb369876cebbd9192d4d84150c2fb6d208d5d68d6fbdf0aabf7691610e41916141ee565b60405180910390a250565b5f7f00000000000000000000000000000000000000000000000000000000000000006001600160a01b031663313ce5676040518163ffffffff1660e01b8152600401602060405180830381865afa158015610ea9573d5f803e3d5ffd5b505050506040513d601f19601f82011682018060405250810190610ecd91906141fc565b905090565b5f80805b600c548110156109ec57600b5f600c8381548110610ef657610ef661410b565b5f9182526020808320909101546001600160a01b03168352820192909252604001902060030154610f279083614133565b915080610f3381614146565b915050610ed6565b610f43612e2f565b610f4b612f22565b565b5f610f5a60075460ff1690565b15610f6657505f919050565b5f610f6f61085b565b9050600a548110610f8257505f92915050565b80600a54610d3191906141c7565b60608060605f610f9e61085b565b600c54909150610faf816001614133565b67ffffffffffffffff811115610fc757610fc761421c565b604051908082528060200260200182016040528015610ff0578160200160208202803683370190505b509450610ffe816001614133565b67ffffffffffffffff8111156110165761101661421c565b60405190808252806020026020018201604052801561103f578160200160208202803683370190505b50935061104d816001614133565b67ffffffffffffffff8111156110655761106561421c565b60405190808252806020026020018201604052801561108e578160200160208202803683370190505b5092505f855f815181106110a4576110a461410b565b6001600160a01b0390921660209283029190910190910152811561110057816110cb6127bf565b6110d790612710614230565b6110e1919061425b565b845f815181106110f3576110f361410b565b6020026020010181815250505b600e54835f815181106111155761111561410b565b6020026020010181815250505f5b8181101561132c575f600c828154811061113f5761113f61410b565b5f918252602090912001546001600160a01b031690508087611162846001614133565b815181106111725761117261410b565b60200260200101906001600160a01b031690816001600160a01b0316815250505f841180156111cf575060016001600160a01b0382165f908152600b602052604090206002015460ff1660038111156111cd576111cd613ee3565b145b156112d357806001600160a01b03166301e1d1146040518163ffffffff1660e01b8152600401602060405180830381865afa92505050801561122e575060408051601f3d908101601f1916820190925261122b918101906140f4565b60015b611292576001600160a01b0381165f908152600b6020526040902060030154849061125b90612710614230565b611265919061425b565b86611271846001614133565b815181106112815761128161410b565b6020026020010181815250506112d3565b8461129f82612710614230565b6112a9919061425b565b876112b5856001614133565b815181106112c5576112c561410b565b602002602001018181525050505b6001600160a01b0381165f908152600b602052604090206001908101549086906112fe908590614133565b8151811061130e5761130e61410b565b6020908102919091010152508061132481614146565b915050611123565b505050909192565b61133c612e2f565b61271081111561135e5760405162461bcd60e51b8152600401610af49061426e565b5f81600d5461136d9190614133565b90506127108111156113915760405162461bcd60e51b8152600401610af4906142a5565b600e8290556040518281527f25d100bf71ce70005705f0f63e93ddd517f408c8fad360538d0ae1f2204029a89060200160405180910390a15050565b6113fc6040805160a0810182525f80825260208201819052909182019081526020015f81526020015f81525090565b6001600160a01b038281165f908152600b6020526040902054166114325760405162461bcd60e51b8152600401610af490614190565b6001600160a01b038083165f908152600b6020908152604091829020825160a081018452815490941684526001810154918401919091526002810154909183019060ff16600381111561148757611487613ee3565b600381111561149857611498613ee3565b81526003820154602082015260049091015460409091015292915050565b60605f805b600c5481101561153d576001600b5f600c84815481106114dd576114dd61410b565b5f9182526020808320909101546001600160a01b0316835282019290925260400190206002015460ff16600381111561151857611518613ee3565b0361152b578161152781614146565b9250505b8061153581614146565b9150506114bb565b505f8167ffffffffffffffff8111156115585761155861421c565b604051908082528060200260200182016040528015611581578160200160208202803683370190505b5090505f805b600c54811015611661576001600b5f600c84815481106115a9576115a961410b565b5f9182526020808320909101546001600160a01b0316835282019290925260400190206002015460ff1660038111156115e4576115e4613ee3565b0361164f57600c81815481106115fc576115fc61410b565b905f5260205f20015f9054906101000a90046001600160a01b03168383815181106116295761162961410b565b6001600160a01b03909216602092830291909101909101528161164b81614146565b9250505b8061165981614146565b915050611587565b50909392505050565b5f611673612f74565b61167b612f9e565b6009548310156116c55760405162461bcd60e51b815260206004820152601560248201527410995b1bddc81b5a5b9a5b5d5b4819195c1bdcda5d605a1b6044820152606401610af4565b6116cf8383612fc2565b9050610a8d6001600655565b6116e3612e2f565b6001600160a01b038281165f908152600b6020526040902054166117195760405162461bcd60e51b8152600401610af490614190565b61271081111561173b5760405162461bcd60e51b8152600401610af49061426e565b6001600160a01b0382165f908152600b6020526040812060010154600e54600d54919291849061176c9085906141c7565b6117769190614133565b6117809190614133565b90506127108111156117a45760405162461bcd60e51b8152600401610af4906142a5565b8282600d546117b391906141c7565b6117bd9190614133565b600d556001600160a01b0384165f818152600b602052604090819020600101859055517feda1127dbe257a768246136b79de9d901a2a66b37e0197435f9b4c2e499095c49061180f9086815260200190565b60405180910390a250505050565b611825612e2f565b610f4b5f61300e565b611836612e2f565b610f4b61305f565b611846612e2f565b5f81116118955760405162461bcd60e51b815260206004820152601c60248201527f4d696e206465706f736974206d75737420626520706f736974697665000000006044820152606401610af4565b60098190556040518181527f96a008f96f1c0ab9fa3d9ddd43cdfc614848c4d054d51f43662ed900e9d094c8906020015b60405180910390a150565b5f6118da612f74565b6118e2612f9e565b5f6118ec84611b00565b90506009548110156119385760405162461bcd60e51b815260206004820152601560248201527410995b1bddc81b5a5b9a5b5d5b4819195c1bdcda5d605a1b6044820152606401610af4565b611942848461309c565b915050610a8d6001600655565b606060048054610a019061415e565b611966612e2f565b6001600160a01b0381166119bc5760405162461bcd60e51b815260206004820152601860248201527f496e76616c6964206f70657261746f72206164647265737300000000000000006044820152606401610af4565b6001600160a01b0381165f81815260086020526040808220805460ff19166001179055517fac6fa858e9350a46cec16539926e0fde25b7629f84b5a72bffaae4df888ae86d9190a250565b600c8181548110611a16575f80fd5b5f918252602090912001546001600160a01b0316905081565b5f805f805f611a3c6127bf565b9450611a46611add565b9350600e54905083851015611a6957611a5f85856141c7565b92505f9150611a79565b5f9250611a7684866141c7565b91505b9091929394565b5f33610aa0818585612ec5565b611a95612e2f565b6001600160a01b0381165f81815260086020526040808220805460ff19169055517f80c0b871b97b595b16a7741c1b06fed0c6f6f558639f18ccbce50724325dc40d9190a250565b5f612710600e54611aec61085b565b611af69190614230565b610ecd919061425b565b5f610a8d826001612db6565b5f611b15612f74565b611b1d612f9e565b611b288484846130e8565b9050610d316001600655565b335f9081526008602052604090205460ff1680611b5b57506005546001600160a01b031633145b611b775760405162461bcd60e51b8152600401610af4906142dc565b611b7f612f74565b6001600160a01b038281165f908152600b602052604090205416611bb55760405162461bcd60e51b8152600401610af490614190565b5f8111611bfe5760405162461bcd60e51b8152602060048201526017602482015276416d6f756e74206d75737420626520706f73697469766560481b6044820152606401610af4565b6001600160a01b0382165f908152600b6020526040902060030154811115611c685760405162461bcd60e51b815260206004820152601960248201527f57697468647261772065786365656473206465706c6f796564000000000000006044820152606401610af4565b5f7f00000000000000000000000000000000000000000000000000000000000000006040516370a0823160e01b81523060048201526001600160a01b0391909116906370a0823190602401602060405180830381865afa158015611cce573d5f803e3d5ffd5b505050506040513d601f19601f82011682018060405250810190611cf291906140f4565b604051627b8a6760e11b8152600481018490523060248201529091505f906001600160a01b0385169062f714ce906044016020604051808303815f875af1158015611d3f573d5f803e3d5ffd5b505050506040513d601f19601f82011682018060405250810190611d6391906140f4565b90505f7f00000000000000000000000000000000000000000000000000000000000000006040516370a0823160e01b81523060048201526001600160a01b0391909116906370a0823190602401602060405180830381865afa158015611dcb573d5f803e3d5ffd5b505050506040513d601f19601f82011682018060405250810190611def91906140f4565b905082811015611e415760405162461bcd60e51b815260206004820152601760248201527f5661756c742062616c616e6365206465637265617365640000000000000000006044820152606401610af4565b5f611e4c84836141c7565b90505f8111611e9d5760405162461bcd60e51b815260206004820152601f60248201527f4e6f2066756e64732072656365697665642066726f6d207374726174656779006044820152606401610af4565b6001600160a01b0386165f908152600b60205260409020600301548111611ef3576001600160a01b0386165f908152600b602052604081206003018054839290611ee89084906141c7565b90915550611f0f9050565b6001600160a01b0386165f908152600b60205260408120600301555b60408051868152602081018590526001600160a01b038816917f490dfb4ce52333704763aee75edba596ceaab548bccafc900f79c2b9f6381b0891015b60405180910390a250505050611f626001600655565b5050565b5f611f6f612f74565b611f77612f9e565b611b2884848461313e565b611f8a612e2f565b5f8111611fd95760405162461bcd60e51b815260206004820152601e60248201527f4465706f736974206c696d6974206d75737420626520706f73697469766500006044820152606401610af4565b600a8190556040518181527fc512617347fd848ec9d7347c99c10e4fa7059132c92d0445930a7fb0c8252ff5906020016118c6565b6060600c805480602002602001604051908101604052809291908181526020018280548015610a7857602002820191905f5260205f20905b81546001600160a01b03168152600190910190602001808311612046575050505050905090565b5f61207a60075460ff1690565b1561208657505f919050565b5f61208f61085b565b9050600a5481106120a257505f92915050565b5f81600a546120b191906141c7565b90506120bd815f612e00565b949350505050565b5f610a8d825f612e00565b6120d8612e2f565b6001600160a01b03821661212e5760405162461bcd60e51b815260206004820152601860248201527f496e76616c6964207374726174656779206164647265737300000000000000006044820152606401610af4565b6001600160a01b038281165f908152600b602052604090205416156121955760405162461bcd60e51b815260206004820152601760248201527f537472617465677920616c7265616479206578697374730000000000000000006044820152606401610af4565b6127108111156121b75760405162461bcd60e51b8152600401610af49061426e565b5f600e5482600d546121c99190614133565b6121d39190614133565b90506127108111156121f75760405162461bcd60e51b8152600401610af4906142a5565b826001600160a01b03166338d52e0f6040518163ffffffff1660e01b8152600401602060405180830381865afa925050508015612251575060408051601f3d908101601f1916820190925261224e91810190614304565b60015b61229d5760405162461bcd60e51b815260206004820152601960248201527f496e76616c696420737472617465677920636f6e7472616374000000000000006044820152606401610af4565b7f00000000000000000000000000000000000000000000000000000000000000006001600160a01b0316816001600160a01b03161461231e5760405162461bcd60e51b815260206004820152601760248201527f5374726174656779206173736574206d69736d617463680000000000000000006044820152606401610af4565b506040805160a0810182526001600160a01b0385811680835260208084018781525f85870181815260608701829052426080880152938152600b909252949020835181546001600160a01b031916931692909217825592516001808301919091559251600282018054939492939192909160ff1916908360038111156123a6576123a6613ee3565b021790555060608201516003820155608090910151600490910155600c80546001810182555f9182527fdf6966c971051c3d54ec59162606531493a51404a002842f56009d7e5cf4a8c70180546001600160a01b0319166001600160a01b038616179055600d805484929061241c908490614133565b90915550506040518281526001600160a01b038416907f2f564a83158ad1831793ad3e69257b52f39ece5d49cb0d8746708ecb9ef964da9060200160405180910390a2505050565b6001600160a01b0381165f90815260208190526040812054610a8d905f612db6565b335f9081526008602052604090205460ff16806124ad57506005546001600160a01b031633145b6124c95760405162461bcd60e51b8152600401610af4906142dc565b6001600160a01b038181165f908152600b6020526040902054166124ff5760405162461bcd60e51b8152600401610af490614190565b60016001600160a01b0382165f908152600b602052604090206002015460ff16600381111561253057612530613ee3565b1461254d5760405162461bcd60e51b8152600401610af49061431f565b6001600160a01b0381165f818152600b6020526040908190206002908101805460ff19168217905590517f71e4d9fadf21bb369876cebbd9192d4d84150c2fb6d208d5d68d6fbdf0aabf7691610e41916141ee565b6125aa612e2f565b6001600160a01b038181165f908152600b6020526040902054166125e05760405162461bcd60e51b8152600401610af490614190565b6001600160a01b0381165f908152600b602052604081206002015460ff16600381111561260f5761260f613ee3565b14610dea5760405162461bcd60e51b81526020600482015260156024820152745374726174656779206e6f7420696e61637469766560581b6044820152606401610af4565b6001600160a01b0381165f90815260208190526040812054610a8d565b6001600160a01b038181165f908152600b6020526040902054166126a75760405162461bcd60e51b8152600401610af490614190565b60016001600160a01b0382165f908152600b602052604090206002015460ff1660038111156126d8576126d8613ee3565b146126f55760405162461bcd60e51b8152600401610af49061431f565b5f805f836001600160a01b0316632606a10b6040518163ffffffff1660e01b81526004016060604051808303815f875af1158015612735573d5f803e3d5ffd5b505050506040513d601f19601f82011682018060405250810190612759919061434c565b6001600160a01b0387165f818152600b60209081526040918290204260049091015581518681529081018590529081018390529396509194509250907f6fbdf847c78f04eac7a7a77e1073af6eeec604ee0b495240579dccf57fcf2d889060600161180f565b5f7f00000000000000000000000000000000000000000000000000000000000000006040516370a0823160e01b81523060048201526001600160a01b0391909116906370a0823190602401602060405180830381865afa158015612825573d5f803e3d5ffd5b505050506040513d601f19601f82011682018060405250810190610ecd91906140f4565b612851612e2f565b6001600160a01b03811661287a57604051631e4fbdf760e01b81525f6004820152602401610af4565b6128838161300e565b50565b335f9081526008602052604090205460ff16806128ad57506005546001600160a01b031633145b6128c95760405162461bcd60e51b8152600401610af4906142dc565b6128d1612f74565b6001600160a01b038281165f908152600b6020526040902054166129075760405162461bcd60e51b8152600401610af490614190565b60016001600160a01b0383165f908152600b602052604090206002015460ff16600381111561293857612938613ee3565b146129555760405162461bcd60e51b8152600401610af49061431f565b5f811161299e5760405162461bcd60e51b8152602060048201526017602482015276416d6f756e74206d75737420626520706f73697469766560481b6044820152606401610af4565b5f7f00000000000000000000000000000000000000000000000000000000000000006040516370a0823160e01b81523060048201529091505f906001600160a01b038316906370a0823190602401602060405180830381865afa158015612a07573d5f803e3d5ffd5b505050506040513d601f19601f82011682018060405250810190612a2b91906140f4565b905082811015612a7d5760405162461bcd60e51b815260206004820152601a60248201527f496e73756666696369656e74207661756c742062616c616e63650000000000006044820152606401610af4565b60405163095ea7b360e01b81526001600160a01b0385811660048301526024820185905283169063095ea7b3906044016020604051808303815f875af1158015612ac9573d5f803e3d5ffd5b505050506040513d601f19601f82011682018060405250810190612aed9190614377565b5060405163a5e3875160e01b8152600481018490526001600160a01b0385169063a5e38751906024015f604051808303815f87803b158015612b2d575f80fd5b505af1158015612b3f573d5f803e3d5ffd5b50506040516370a0823160e01b81523060048201525f92506001600160a01b03851691506370a0823190602401602060405180830381865afa158015612b87573d5f803e3d5ffd5b505050506040513d601f19601f82011682018060405250810190612bab91906140f4565b90505f612bb882846141c7565b90505f8111612c095760405162461bcd60e51b815260206004820152601b60248201527f537472617465677920646964206e6f742070756c6c2066756e647300000000006044820152606401610af4565b84811115612c645760405162461bcd60e51b815260206004820152602260248201527f53747261746567792070756c6c6564206d6f7265207468616e20617070726f76604482015261195960f21b6064820152608401610af4565b6001600160a01b0386165f908152600b602052604081206003018054839290612c8e908490614133565b9091555050604051636eb1769f60e11b81523060048201526001600160a01b0387811660248301525f919086169063dd62ed3e90604401602060405180830381865afa158015612ce0573d5f803e3d5ffd5b505050506040513d601f19601f82011682018060405250810190612d0491906140f4565b1115612d7b5760405163095ea7b360e01b81526001600160a01b0387811660048301525f602483015285169063095ea7b3906044016020604051808303815f875af1158015612d55573d5f803e3d5ffd5b505050506040513d601f19601f82011682018060405250810190612d799190614377565b505b856001600160a01b03167f118140c5f65d2d1239952f9fed523588c6b439a75344ee43cf01f74fbee5e41f82604051611f4c91815260200190565b5f610d31612dc261085b565b612dcd906001614133565b612dd85f600a614476565b600254612de59190614133565b8591908561318b565b612dfb83838360016131cd565b505050565b5f610d31612e0f82600a614476565b600254612e1c9190614133565b612e2461085b565b612de5906001614133565b6005546001600160a01b03163314610f4b5760405163118cdaa760e01b8152336004820152602401610af4565b6001600160a01b038381165f908152600160209081526040808320938616835292905220545f19811015612ebf5781811015612eb157828183604051637dc7a0d960e11b8152600401610af493929190614484565b612ebf84848484035f6131cd565b50505050565b6001600160a01b038316612eee57604051634b637e8f60e11b81525f6004820152602401610af4565b6001600160a01b038216612f175760405163ec442f0560e01b81525f6004820152602401610af4565b612dfb83838361329f565b612f2a6133b2565b6007805460ff191690557f5db9ee0a495bf2e6ff9c91a7834c1ba4fdd244a5e8aa4e537bd38aeae4b073aa335b6040516001600160a01b03909116815260200160405180910390a1565b600260065403612f9757604051633ee5aeb560e01b815260040160405180910390fd5b6002600655565b60075460ff1615610f4b5760405163d93c066560e01b815260040160405180910390fd5b5f80612fcd83610f4d565b905080841115612ff657828482604051633c8097d960e11b8152600401610af493929190614484565b5f613000856120c5565b90506120bd338587846133d5565b600580546001600160a01b038381166001600160a01b0319831681179093556040519116919082907f8be0079c531659141344cd1fd0a4f28419497f9722a3daafe3b4186f6b6457e0905f90a35050565b613067612f9e565b6007805460ff191660011790557f62e78cea01bee320cd4e420270b5ea74000d11b0c9f74754ebdbfc544b05a258612f573390565b5f806130a78361206d565b9050808411156130d05782848260405163284ff66760e01b8152600401610af493929190614484565b5f6130da85611b00565b90506120bd338583886133d5565b5f806130f383612464565b90508085111561311c57828582604051633fa733bb60e21b8152600401610af493929190614484565b5f61312686610aaa565b9050613135338686898561343e565b95945050505050565b5f8061314983612654565b90508085111561317257828582604051632e52afbb60e21b8152600401610af493929190614484565b5f61317c86610a82565b9050613135338686848a61343e565b5f6131b8613198836135e4565b80156131b357505f84806131ae576131ae614247565b868809115b151590565b6131c3868686613610565b6131359190614133565b6001600160a01b0384166131f65760405163e602df0560e01b81525f6004820152602401610af4565b6001600160a01b03831661321f57604051634a1406b160e11b81525f6004820152602401610af4565b6001600160a01b038085165f9081526001602090815260408083209387168352929052208290558015612ebf57826001600160a01b0316846001600160a01b03167f8c5be1e5ebec7d5bd14f71427d1e84f3dd0314c0f7b2291e5b200ac8c7c3b9258460405161329191815260200190565b60405180910390a350505050565b6001600160a01b0383166132c9578060025f8282546132be9190614133565b909155506133269050565b6001600160a01b0383165f90815260208190526040902054818110156133085783818360405163391434e360e21b8152600401610af493929190614484565b6001600160a01b0384165f9081526020819052604090209082900390555b6001600160a01b03821661334257600280548290039055613360565b6001600160a01b0382165f9081526020819052604090208054820190555b816001600160a01b0316836001600160a01b03167fddf252ad1be2c89b69c2b068fc378daa952ba7f163c4a11628f55a4df523b3ef836040516133a591815260200190565b60405180910390a3505050565b60075460ff16610f4b57604051638dfc202b60e01b815260040160405180910390fd5b600a54826133e161085b565b6133eb9190614133565b11156134325760405162461bcd60e51b815260206004820152601660248201527511195c1bdcda5d081b1a5b5a5d08195e18d95959195960521b6044820152606401610af4565b612ebf848484846136c0565b5f7f00000000000000000000000000000000000000000000000000000000000000006040516370a0823160e01b81523060048201529091505f906001600160a01b038316906370a0823190602401602060405180830381865afa1580156134a7573d5f803e3d5ffd5b505050506040513d601f19601f820116820180604052508101906134cb91906140f4565b90508381106134e8576134e18787878787613744565b50506135dd565b5f6134f382866141c7565b90506134fe81613804565b506040516370a0823160e01b815230600482015285906001600160a01b038516906370a0823190602401602060405180830381865afa158015613543573d5f803e3d5ffd5b505050506040513d601f19601f8201168201806040525081019061356791906140f4565b10156135cc5760405162461bcd60e51b815260206004820152602e60248201527f496e73756666696369656e74206c697175696469747920696e207661756c742060448201526d616e64207374726174656769657360901b6064820152608401610af4565b6135d98888888888613744565b5050505b5050505050565b5f60028260038111156135f9576135f9613ee3565b61360391906144a5565b60ff166001149050919050565b5f805f61361d8686613c51565b91509150815f036136415783818161363757613637614247565b0492505050610d31565b818411613658576136586003851502601118613c6d565b5f848688095f868103871696879004966002600389028118808a02820302808a02820302808a02820302808a02820302808a02820302808a02909103029181900381900460010185841190960395909502919093039390930492909217029150509392505050565b6136ec7f0000000000000000000000000000000000000000000000000000000000000000853085613c7e565b6136f68382613ce5565b826001600160a01b0316846001600160a01b03167fdcbc1c05240f31ff3ad067ef1ee35ce4997762752e3a095284754544f4c709d78484604051613291929190918252602082015260400190565b826001600160a01b0316856001600160a01b03161461376857613768838683612e5c565b6137728382613d19565b61379d7f00000000000000000000000000000000000000000000000000000000000000008584613d4d565b826001600160a01b0316846001600160a01b0316866001600160a01b03167ffbde797d201c681b91056529119e0b02407c7bb96a4a2c75c01fc9667232c8db85856040516137f5929190918252602082015260400190565b60405180910390a45050505050565b600c545f908190819067ffffffffffffffff8111156138255761382561421c565b60405190808252806020026020018201604052801561384e578160200160208202803683370190505b5090505f805b600c54811015613949575f600c82815481106138725761387261410b565b5f9182526020808320909101546001600160a01b0316808352600b90915260409091209091506001600282015460ff1660038111156138b3576138b3613ee3565b14806138d6575060028082015460ff1660038111156138d4576138d4613ee3565b145b80156138e557505f8160030154115b156139345760038101546138f99087614133565b95508185858151811061390e5761390e61410b565b6001600160a01b03909216602092830291909101909101528361393081614146565b9450505b5050808061394190614146565b915050613854565b50821580613955575080155b1561396457505f949350505050565b5f857f0000000000000000000000000000000000000000000000000000000000000000825b84811015613c44575f8682815181106139a4576139a461410b565b6020908102919091018101516001600160a01b0381165f908152600b90925260408220909250906139d66001896141c7565b84036139e3575084613a01565b898c83600301546139f49190614230565b6139fe919061425b565b90505b8160030154811115613a14575060038101545b801580613a1f575085155b15613a2c57505050613c32565b6040516370a0823160e01b81523060048201525f906001600160a01b038716906370a0823190602401602060405180830381865afa158015613a70573d5f803e3d5ffd5b505050506040513d601f19601f82011682018060405250810190613a9491906140f4565b604051627b8a6760e11b8152600481018490523060248201529091506001600160a01b0385169062f714ce906044016020604051808303815f875af1925050508015613afd575060408051601f3d908101601f19168201909252613afa918101906140f4565b60015b613b0a5750505050613c32565b6040516370a0823160e01b81523060048201525f906001600160a01b038916906370a0823190602401602060405180830381865afa158015613b4e573d5f803e3d5ffd5b505050506040513d601f19601f82011682018060405250810190613b7291906140f4565b905082811115613c2b575f613b8784836141c7565b905080866003015410613bb25780866003015f828254613ba791906141c7565b90915550613bb99050565b5f60038701555b613bc3818c614133565b9a505f8a8210613bd3578a613bd5565b815b9050613be1818c6141c7565b6040805188815260208101879052919c506001600160a01b038a16917f490dfb4ce52333704763aee75edba596ceaab548bccafc900f79c2b9f6381b08910160405180910390a250505b5050505050505b80613c3c81614146565b915050613989565b5091979650505050505050565b5f805f1983850993909202808410938190039390930393915050565b634e487b715f52806020526024601cfd5b6040516001600160a01b038481166024830152838116604483015260648201839052612ebf9186918216906323b872dd906084015b604051602081830303815290604052915060e01b6020820180516001600160e01b038381831617835250505050613d7e565b6001600160a01b038216613d0e5760405163ec442f0560e01b81525f6004820152602401610af4565b611f625f838361329f565b6001600160a01b038216613d4257604051634b637e8f60e11b81525f6004820152602401610af4565b611f62825f8361329f565b6040516001600160a01b03838116602483015260448201839052612dfb91859182169063a9059cbb90606401613cb3565b5f8060205f8451602086015f885af180613d9d576040513d5f823e3d81fd5b50505f513d91508115613db4578060011415613dc1565b6001600160a01b0384163b155b15612ebf57604051635274afe760e01b81526001600160a01b0385166004820152602401610af4565b5f6020808352835180828501525f5b81811015613e1557858101830151858201604001528201613df9565b505f604082860101526040601f19601f8301168501019250505092915050565b5f60208284031215613e45575f80fd5b5035919050565b6001600160a01b0381168114612883575f80fd5b5f8060408385031215613e71575f80fd5b8235613e7c81613e4c565b946020939093013593505050565b5f60208284031215613e9a575f80fd5b8135610d3181613e4c565b5f805f60608486031215613eb7575f80fd5b8335613ec281613e4c565b92506020840135613ed281613e4c565b929592945050506040919091013590565b634e487b7160e01b5f52602160045260245ffd5b60048110613f1357634e487b7160e01b5f52602160045260245ffd5b9052565b6001600160a01b03861681526020810185905260a08101613f3b6040830186613ef7565b6060820193909352608001529392505050565b5f8151808452602080850194508084015f5b83811015613f855781516001600160a01b031687529582019590820190600101613f60565b509495945050505050565b5f8151808452602080850194508084015f5b83811015613f8557815187529582019590820190600101613fa2565b606081525f613fd06060830186613f4e565b8281036020840152613fe28186613f90565b90508281036040840152613ff68185613f90565b9695505050505050565b81516001600160a01b031681526020808301519082015260408083015160a083019161402e90840182613ef7565b50606083015160608301526080830151608083015292915050565b602081525f610d316020830184613f4e565b5f806040838503121561406c575f80fd5b82359150602083013561407e81613e4c565b809150509250929050565b5f805f6060848603121561409b575f80fd5b8335925060208401356140ad81613e4c565b915060408401356140bd81613e4c565b809150509250925092565b5f80604083850312156140d9575f80fd5b82356140e481613e4c565b9150602083013561407e81613e4c565b5f60208284031215614104575f80fd5b5051919050565b634e487b7160e01b5f52603260045260245ffd5b634e487b7160e01b5f52601160045260245ffd5b80820180821115610a8d57610a8d61411f565b5f600182016141575761415761411f565b5060010190565b600181811c9082168061417257607f821691505b6020821081036109ec57634e487b7160e01b5f52602260045260245ffd5b60208082526017908201527f537472617465677920646f6573206e6f74206578697374000000000000000000604082015260600190565b81810381811115610a8d57610a8d61411f565b634e487b7160e01b5f52603160045260245ffd5b60208101610a8d8284613ef7565b5f6020828403121561420c575f80fd5b815160ff81168114610d31575f80fd5b634e487b7160e01b5f52604160045260245ffd5b8082028115828204841417610a8d57610a8d61411f565b634e487b7160e01b5f52601260045260245ffd5b5f8261426957614269614247565b500490565b60208082526019908201527f5461726765742063616e6e6f7420657863656564203130302500000000000000604082015260600190565b60208082526019908201527f546f74616c207461726765747320657863656564203130302500000000000000604082015260600190565b6020808252600e908201526d139bdd08185d5d1a1bdc9a5e995960921b604082015260600190565b5f60208284031215614314575f80fd5b8151610d3181613e4c565b6020808252601390820152725374726174656779206e6f742061637469766560681b604082015260600190565b5f805f6060848603121561435e575f80fd5b8351925060208401519150604084015190509250925092565b5f60208284031215614387575f80fd5b81518015158114610d31575f80fd5b600181815b808511156143d057815f19048211156143b6576143b661411f565b808516156143c357918102915b93841c939080029061439b565b509250929050565b5f826143e657506001610a8d565b816143f257505f610a8d565b816001811461440857600281146144125761442e565b6001915050610a8d565b60ff8411156144235761442361411f565b50506001821b610a8d565b5060208310610133831016604e8410600b8410161715614451575081810a610a8d565b61445b8383614396565b805f190482111561446e5761446e61411f565b029392505050565b5f610d3160ff8416836143d8565b6001600160a01b039390931683526020830191909152604082015260600190565b5f60ff8316806144b7576144b7614247565b8060ff8416069150509291505056fea2646970667358221220b8ee3384cdf769c4f556ba22056b7d2a370d6e82926b72ff91e52287bc87dd7a64736f6c63430008140033","opcodes":"PUSH1 0xC0 PUSH1 0x40 MSTORE PUSH2 0x2710 PUSH1 0x9 SSTORE PUSH5 0xE8D4A51000 PUSH1 0xA SSTORE PUSH2 0x3E8 PUSH1 0xE SSTORE CALLVALUE DUP1 ISZERO PUSH3 0x25 JUMPI PUSH0 DUP1 REVERT JUMPDEST POP PUSH1 0x40 MLOAD PUSH3 0x4AEC CODESIZE SUB DUP1 PUSH3 0x4AEC DUP4 CODECOPY DUP2 ADD PUSH1 0x40 DUP2 SWAP1 MSTORE PUSH3 0x48 SWAP2 PUSH3 0x377 JUMP JUMPDEST CALLER DUP4 DUP4 DUP4 PUSH1 0x3 PUSH3 0x5A DUP4 DUP3 PUSH3 0x487 JUMP JUMPDEST POP PUSH1 0x4 PUSH3 0x69 DUP3 DUP3 PUSH3 0x487 JUMP JUMPDEST POP POP POP PUSH0 DUP1 PUSH3 0x7F DUP4 PUSH3 0x181 PUSH1 0x20 SHL PUSH1 0x20 SHR JUMP JUMPDEST SWAP2 POP SWAP2 POP DUP2 PUSH3 0x91 JUMPI PUSH1 0x12 PUSH3 0x93 JUMP JUMPDEST DUP1 JUMPDEST PUSH1 0xFF AND PUSH1 0xA0 MSTORE POP POP PUSH1 0x1 PUSH1 0x1 PUSH1 0xA0 SHL SUB SWAP1 DUP2 AND PUSH1 0x80 MSTORE DUP2 AND PUSH3 0xD0 JUMPI PUSH1 0x40 MLOAD PUSH4 0x1E4FBDF7 PUSH1 0xE0 SHL DUP2 MSTORE PUSH0 PUSH1 0x4 DUP3 ADD MSTORE PUSH1 0x24 ADD JUMPDEST PUSH1 0x40 MLOAD DUP1 SWAP2 SUB SWAP1 REVERT JUMPDEST PUSH3 0xDB DUP2 PUSH3 0x260 JUMP JUMPDEST POP PUSH1 0x1 PUSH1 0x6 SSTORE PUSH1 0x1 PUSH1 0x1 PUSH1 0xA0 SHL SUB DUP4 AND PUSH3 0x139 JUMPI PUSH1 0x40 MLOAD PUSH3 0x461BCD PUSH1 0xE5 SHL DUP2 MSTORE PUSH1 0x20 PUSH1 0x4 DUP3 ADD MSTORE PUSH1 0x1A PUSH1 0x24 DUP3 ADD MSTORE PUSH32 0x496E76616C6964204658525020746F6B656E2061646472657373000000000000 PUSH1 0x44 DUP3 ADD MSTORE PUSH1 0x64 ADD PUSH3 0xC7 JUMP JUMPDEST CALLER PUSH0 DUP2 DUP2 MSTORE PUSH1 0x8 PUSH1 0x20 MSTORE PUSH1 0x40 DUP1 DUP3 KECCAK256 DUP1 SLOAD PUSH1 0xFF NOT AND PUSH1 0x1 OR SWAP1 SSTORE MLOAD PUSH32 0xAC6FA858E9350A46CEC16539926E0FDE25B7629F84B5A72BFFAAE4DF888AE86D SWAP2 SWAP1 LOG2 POP POP POP PUSH3 0x584 JUMP JUMPDEST PUSH1 0x40 DUP1 MLOAD PUSH1 0x4 DUP2 MSTORE PUSH1 0x24 DUP2 ADD DUP3 MSTORE PUSH1 0x20 DUP2 ADD DUP1 MLOAD PUSH1 0x1 PUSH1 0x1 PUSH1 0xE0 SHL SUB AND PUSH4 0x313CE567 PUSH1 0xE0 SHL OR SWAP1 MSTORE SWAP1 MLOAD PUSH0 SWAP2 DUP3 SWAP2 DUP3 SWAP2 DUP3 SWAP2 PUSH1 0x1 PUSH1 0x1 PUSH1 0xA0 SHL SUB DUP8 AND SWAP2 PUSH3 0x1C9 SWAP2 PUSH3 0x54F JUMP JUMPDEST PUSH0 PUSH1 0x40 MLOAD DUP1 DUP4 SUB DUP2 DUP6 GAS STATICCALL SWAP2 POP POP RETURNDATASIZE DUP1 PUSH0 DUP2 EQ PUSH3 0x203 JUMPI PUSH1 0x40 MLOAD SWAP2 POP PUSH1 0x1F NOT PUSH1 0x3F RETURNDATASIZE ADD AND DUP3 ADD PUSH1 0x40 MSTORE RETURNDATASIZE DUP3 MSTORE RETURNDATASIZE PUSH0 PUSH1 0x20 DUP5 ADD RETURNDATACOPY PUSH3 0x208 JUMP JUMPDEST PUSH1 0x60 SWAP2 POP JUMPDEST POP SWAP2 POP SWAP2 POP DUP2 DUP1 ISZERO PUSH3 0x21D JUMPI POP PUSH1 0x20 DUP2 MLOAD LT ISZERO JUMPDEST ISZERO PUSH3 0x254 JUMPI PUSH0 DUP2 DUP1 PUSH1 0x20 ADD SWAP1 MLOAD DUP2 ADD SWAP1 PUSH3 0x23A SWAP2 SWAP1 PUSH3 0x56C JUMP JUMPDEST SWAP1 POP PUSH1 0xFF DUP2 GT PUSH3 0x252 JUMPI PUSH1 0x1 SWAP7 SWAP1 SWAP6 POP SWAP4 POP POP POP POP JUMP JUMPDEST POP JUMPDEST POP PUSH0 SWAP5 DUP6 SWAP5 POP SWAP3 POP POP POP JUMP JUMPDEST PUSH1 0x5 DUP1 SLOAD PUSH1 0x1 PUSH1 0x1 PUSH1 0xA0 SHL SUB DUP4 DUP2 AND PUSH1 0x1 PUSH1 0x1 PUSH1 0xA0 SHL SUB NOT DUP4 AND DUP2 OR SWAP1 SWAP4 SSTORE PUSH1 0x40 MLOAD SWAP2 AND SWAP2 SWAP1 DUP3 SWAP1 PUSH32 0x8BE0079C531659141344CD1FD0A4F28419497F9722A3DAAFE3B4186F6B6457E0 SWAP1 PUSH0 SWAP1 LOG3 POP POP JUMP JUMPDEST PUSH4 0x4E487B71 PUSH1 0xE0 SHL PUSH0 MSTORE PUSH1 0x41 PUSH1 0x4 MSTORE PUSH1 0x24 PUSH0 REVERT JUMPDEST PUSH0 JUMPDEST DUP4 DUP2 LT ISZERO PUSH3 0x2E1 JUMPI DUP2 DUP2 ADD MLOAD DUP4 DUP3 ADD MSTORE PUSH1 0x20 ADD PUSH3 0x2C7 JUMP JUMPDEST POP POP PUSH0 SWAP2 ADD MSTORE JUMP JUMPDEST PUSH0 DUP3 PUSH1 0x1F DUP4 ADD SLT PUSH3 0x2F9 JUMPI PUSH0 DUP1 REVERT JUMPDEST DUP2 MLOAD PUSH1 0x1 PUSH1 0x1 PUSH1 0x40 SHL SUB DUP1 DUP3 GT ISZERO PUSH3 0x316 JUMPI PUSH3 0x316 PUSH3 0x2B1 JUMP JUMPDEST PUSH1 0x40 MLOAD PUSH1 0x1F DUP4 ADD PUSH1 0x1F NOT SWAP1 DUP2 AND PUSH1 0x3F ADD AND DUP2 ADD SWAP1 DUP3 DUP3 GT DUP2 DUP4 LT OR ISZERO PUSH3 0x341 JUMPI PUSH3 0x341 PUSH3 0x2B1 JUMP JUMPDEST DUP2 PUSH1 0x40 MSTORE DUP4 DUP2 MSTORE DUP7 PUSH1 0x20 DUP6 DUP9 ADD ADD GT ISZERO PUSH3 0x35A JUMPI PUSH0 DUP1 REVERT JUMPDEST PUSH3 0x36D DUP5 PUSH1 0x20 DUP4 ADD PUSH1 0x20 DUP10 ADD PUSH3 0x2C5 JUMP JUMPDEST SWAP7 SWAP6 POP POP POP POP POP POP JUMP JUMPDEST PUSH0 DUP1 PUSH0 PUSH1 0x60 DUP5 DUP7 SUB SLT ISZERO PUSH3 0x38A JUMPI PUSH0 DUP1 REVERT JUMPDEST DUP4 MLOAD PUSH1 0x1 PUSH1 0x1 PUSH1 0xA0 SHL SUB DUP2 AND DUP2 EQ PUSH3 0x3A1 JUMPI PUSH0 DUP1 REVERT JUMPDEST PUSH1 0x20 DUP6 ADD MLOAD SWAP1 SWAP4 POP PUSH1 0x1 PUSH1 0x1 PUSH1 0x40 SHL SUB DUP1 DUP3 GT ISZERO PUSH3 0x3BE JUMPI PUSH0 DUP1 REVERT JUMPDEST PUSH3 0x3CC DUP8 DUP4 DUP9 ADD PUSH3 0x2E9 JUMP JUMPDEST SWAP4 POP PUSH1 0x40 DUP7 ADD MLOAD SWAP2 POP DUP1 DUP3 GT ISZERO PUSH3 0x3E2 JUMPI PUSH0 DUP1 REVERT JUMPDEST POP PUSH3 0x3F1 DUP7 DUP3 DUP8 ADD PUSH3 0x2E9 JUMP JUMPDEST SWAP2 POP POP SWAP3 POP SWAP3 POP SWAP3 JUMP JUMPDEST PUSH1 0x1 DUP2 DUP2 SHR SWAP1 DUP3 AND DUP1 PUSH3 0x410 JUMPI PUSH1 0x7F DUP3 AND SWAP2 POP JUMPDEST PUSH1 0x20 DUP3 LT DUP2 SUB PUSH3 0x42F JUMPI PUSH4 0x4E487B71 PUSH1 0xE0 SHL PUSH0 MSTORE PUSH1 0x22 PUSH1 0x4 MSTORE PUSH1 0x24 PUSH0 REVERT JUMPDEST POP SWAP2 SWAP1 POP JUMP JUMPDEST PUSH1 0x1F DUP3 GT ISZERO PUSH3 0x482 JUMPI PUSH0 DUP2 DUP2 MSTORE PUSH1 0x20 DUP2 KECCAK256 PUSH1 0x1F DUP6 ADD PUSH1 0x5 SHR DUP2 ADD PUSH1 0x20 DUP7 LT ISZERO PUSH3 0x45D JUMPI POP DUP1 JUMPDEST PUSH1 0x1F DUP6 ADD PUSH1 0x5 SHR DUP3 ADD SWAP2 POP JUMPDEST DUP2 DUP2 LT ISZERO PUSH3 0x47E JUMPI DUP3 DUP2 SSTORE PUSH1 0x1 ADD PUSH3 0x469 JUMP JUMPDEST POP POP POP JUMPDEST POP POP POP JUMP JUMPDEST DUP2 MLOAD PUSH1 0x1 PUSH1 0x1 PUSH1 0x40 SHL SUB DUP2 GT ISZERO PUSH3 0x4A3 JUMPI PUSH3 0x4A3 PUSH3 0x2B1 JUMP JUMPDEST PUSH3 0x4BB DUP2 PUSH3 0x4B4 DUP5 SLOAD PUSH3 0x3FB JUMP JUMPDEST DUP5 PUSH3 0x435 JUMP JUMPDEST PUSH1 0x20 DUP1 PUSH1 0x1F DUP4 GT PUSH1 0x1 DUP2 EQ PUSH3 0x4F1 JUMPI PUSH0 DUP5 ISZERO PUSH3 0x4D9 JUMPI POP DUP6 DUP4 ADD MLOAD JUMPDEST PUSH0 NOT PUSH1 0x3 DUP7 SWAP1 SHL SHR NOT AND PUSH1 0x1 DUP6 SWAP1 SHL OR DUP6 SSTORE PUSH3 0x47E JUMP JUMPDEST PUSH0 DUP6 DUP2 MSTORE PUSH1 0x20 DUP2 KECCAK256 PUSH1 0x1F NOT DUP7 AND SWAP2 JUMPDEST DUP3 DUP2 LT ISZERO PUSH3 0x521 JUMPI DUP9 DUP7 ADD MLOAD DUP3 SSTORE SWAP5 DUP5 ADD SWAP5 PUSH1 0x1 SWAP1 SWAP2 ADD SWAP1 DUP5 ADD PUSH3 0x500 JUMP JUMPDEST POP DUP6 DUP3 LT ISZERO PUSH3 0x53F JUMPI DUP8 DUP6 ADD MLOAD PUSH0 NOT PUSH1 0x3 DUP9 SWAP1 SHL PUSH1 0xF8 AND SHR NOT AND DUP2 SSTORE JUMPDEST POP POP POP POP POP PUSH1 0x1 SWAP1 DUP2 SHL ADD SWAP1 SSTORE POP JUMP JUMPDEST PUSH0 DUP3 MLOAD PUSH3 0x562 DUP2 DUP5 PUSH1 0x20 DUP8 ADD PUSH3 0x2C5 JUMP JUMPDEST SWAP2 SWAP1 SWAP2 ADD SWAP3 SWAP2 POP POP JUMP JUMPDEST PUSH0 PUSH1 0x20 DUP3 DUP5 SUB SLT ISZERO PUSH3 0x57D JUMPI PUSH0 DUP1 REVERT JUMPDEST POP MLOAD SWAP2 SWAP1 POP JUMP JUMPDEST PUSH1 0x80 MLOAD PUSH1 0xA0 MLOAD PUSH2 0x44FC PUSH3 0x5F0 PUSH0 CODECOPY PUSH0 POP POP PUSH0 DUP2 DUP2 PUSH2 0x491 ADD MSTORE DUP2 DUP2 PUSH2 0x85F ADD MSTORE DUP2 DUP2 PUSH2 0xE4F ADD MSTORE DUP2 DUP2 PUSH2 0x1C6B ADD MSTORE DUP2 DUP2 PUSH2 0x1D68 ADD MSTORE DUP2 DUP2 PUSH2 0x229F ADD MSTORE DUP2 DUP2 PUSH2 0x27C2 ADD MSTORE DUP2 DUP2 PUSH2 0x29A1 ADD MSTORE DUP2 DUP2 PUSH2 0x3441 ADD MSTORE DUP2 DUP2 PUSH2 0x36C5 ADD MSTORE DUP2 DUP2 PUSH2 0x3777 ADD MSTORE PUSH2 0x3968 ADD MSTORE PUSH2 0x44FC PUSH0 RETURN INVALID PUSH1 0x80 PUSH1 0x40 MSTORE CALLVALUE DUP1 ISZERO PUSH2 0xF JUMPI PUSH0 DUP1 REVERT JUMPDEST POP PUSH1 0x4 CALLDATASIZE LT PUSH2 0x393 JUMPI PUSH0 CALLDATALOAD PUSH1 0xE0 SHR DUP1 PUSH4 0x8FCC9CFB GT PUSH2 0x1DF JUMPI DUP1 PUSH4 0xC3B28864 GT PUSH2 0x109 JUMPI DUP1 PUSH4 0xD905777E GT PUSH2 0xA9 JUMPI DUP1 PUSH4 0xECF70858 GT PUSH2 0x79 JUMPI DUP1 PUSH4 0xECF70858 EQ PUSH2 0x82C JUMPI DUP1 PUSH4 0xEF8B30F7 EQ PUSH2 0x767 JUMPI DUP1 PUSH4 0xF2FDE38B EQ PUSH2 0x835 JUMPI DUP1 PUSH4 0xF6C00DB9 EQ PUSH2 0x848 JUMPI PUSH0 DUP1 REVERT JUMPDEST DUP1 PUSH4 0xD905777E EQ PUSH2 0x7C6 JUMPI DUP1 PUSH4 0xD9ABA111 EQ PUSH2 0x7D9 JUMPI DUP1 PUSH4 0xDC24FC07 EQ PUSH2 0x7EC JUMPI DUP1 PUSH4 0xDD62ED3E EQ PUSH2 0x7F4 JUMPI PUSH0 DUP1 REVERT JUMPDEST DUP1 PUSH4 0xC9411E22 GT PUSH2 0xE4 JUMPI DUP1 PUSH4 0xC9411E22 EQ PUSH2 0x77A JUMPI DUP1 PUSH4 0xCE96CB77 EQ PUSH2 0x78D JUMPI DUP1 PUSH4 0xD3F6B598 EQ PUSH2 0x7A0 JUMPI DUP1 PUSH4 0xD80EA5A0 EQ PUSH2 0x7B3 JUMPI PUSH0 DUP1 REVERT JUMPDEST DUP1 PUSH4 0xC3B28864 EQ PUSH2 0x74C JUMPI DUP1 PUSH4 0xC63D75B6 EQ PUSH2 0x754 JUMPI DUP1 PUSH4 0xC6E6F592 EQ PUSH2 0x767 JUMPI PUSH0 DUP1 REVERT JUMPDEST DUP1 PUSH4 0xAC8A584A GT PUSH2 0x17F JUMPI DUP1 PUSH4 0xB460AF94 GT PUSH2 0x14F JUMPI DUP1 PUSH4 0xB460AF94 EQ PUSH2 0x700 JUMPI DUP1 PUSH4 0xB53D0958 EQ PUSH2 0x713 JUMPI DUP1 PUSH4 0xBA087652 EQ PUSH2 0x726 JUMPI DUP1 PUSH4 0xBDC8144B EQ PUSH2 0x739 JUMPI PUSH0 DUP1 REVERT JUMPDEST DUP1 PUSH4 0xAC8A584A EQ PUSH2 0x6C9 JUMPI DUP1 PUSH4 0xACD17D5D EQ PUSH2 0x6DC JUMPI DUP1 PUSH4 0xAF56B69F EQ PUSH2 0x6E4 JUMPI DUP1 PUSH4 0xB3D7F6B9 EQ PUSH2 0x6ED JUMPI PUSH0 DUP1 REVERT JUMPDEST DUP1 PUSH4 0x9870D7FE GT PUSH2 0x1BA JUMPI DUP1 PUSH4 0x9870D7FE EQ PUSH2 0x660 JUMPI DUP1 PUSH4 0xA267526B EQ PUSH2 0x673 JUMPI DUP1 PUSH4 0xA3603BCA EQ PUSH2 0x686 JUMPI DUP1 PUSH4 0xA9059CBB EQ PUSH2 0x6B6 JUMPI PUSH0 DUP1 REVERT JUMPDEST DUP1 PUSH4 0x8FCC9CFB EQ PUSH2 0x632 JUMPI DUP1 PUSH4 0x94BF804D EQ PUSH2 0x645 JUMPI DUP1 PUSH4 0x95D89B41 EQ PUSH2 0x658 JUMPI PUSH0 DUP1 REVERT JUMPDEST DUP1 PUSH4 0x3F4BA83A GT PUSH2 0x2C0 JUMPI DUP1 PUSH4 0x587436E4 GT PUSH2 0x260 JUMPI DUP1 PUSH4 0x70A08231 GT PUSH2 0x230 JUMPI DUP1 PUSH4 0x70A08231 EQ PUSH2 0x5E9 JUMPI DUP1 PUSH4 0x715018A6 EQ PUSH2 0x611 JUMPI DUP1 PUSH4 0x8456CB59 EQ PUSH2 0x619 JUMPI DUP1 PUSH4 0x8DA5CB5B EQ PUSH2 0x621 JUMPI PUSH0 DUP1 REVERT JUMPDEST DUP1 PUSH4 0x587436E4 EQ PUSH2 0x5A3 JUMPI DUP1 PUSH4 0x5C975ABB EQ PUSH2 0x5B8 JUMPI DUP1 PUSH4 0x6E553F65 EQ PUSH2 0x5C3 JUMPI DUP1 PUSH4 0x70851703 EQ PUSH2 0x5D6 JUMPI PUSH0 DUP1 REVERT JUMPDEST DUP1 PUSH4 0x41B3D185 GT PUSH2 0x29B JUMPI DUP1 PUSH4 0x41B3D185 EQ PUSH2 0x567 JUMPI DUP1 PUSH4 0x4CDAD506 EQ PUSH2 0x3C7 JUMPI DUP1 PUSH4 0x4E423181 EQ PUSH2 0x570 JUMPI DUP1 PUSH4 0x54192AD5 EQ PUSH2 0x583 JUMPI PUSH0 DUP1 REVERT JUMPDEST DUP1 PUSH4 0x3F4BA83A EQ PUSH2 0x535 JUMPI DUP1 PUSH4 0x402D267D EQ PUSH2 0x53D JUMPI DUP1 PUSH4 0x41826C2D EQ PUSH2 0x550 JUMPI PUSH0 DUP1 REVERT JUMPDEST DUP1 PUSH4 0x18160DDD GT PUSH2 0x336 JUMPI DUP1 PUSH4 0x38D52E0F GT PUSH2 0x306 JUMPI DUP1 PUSH4 0x38D52E0F EQ PUSH2 0x48F JUMPI DUP1 PUSH4 0x38F0EDE9 EQ PUSH2 0x4C9 JUMPI DUP1 PUSH4 0x39EBF823 EQ PUSH2 0x4D1 JUMPI DUP1 PUSH4 0x3EDE66F7 EQ PUSH2 0x52C JUMPI PUSH0 DUP1 REVERT JUMPDEST DUP1 PUSH4 0x18160DDD EQ PUSH2 0x447 JUMPI DUP1 PUSH4 0x23B872DD EQ PUSH2 0x44F JUMPI DUP1 PUSH4 0x2A058CAC EQ PUSH2 0x462 JUMPI DUP1 PUSH4 0x313CE567 EQ PUSH2 0x475 JUMPI PUSH0 DUP1 REVERT JUMPDEST DUP1 PUSH4 0x95EA7B3 GT PUSH2 0x371 JUMPI DUP1 PUSH4 0x95EA7B3 EQ PUSH2 0x3DA JUMPI DUP1 PUSH4 0xA28A477 EQ PUSH2 0x3FD JUMPI DUP1 PUSH4 0x13E7C9D8 EQ PUSH2 0x410 JUMPI DUP1 PUSH4 0x175188E8 EQ PUSH2 0x432 JUMPI PUSH0 DUP1 REVERT JUMPDEST DUP1 PUSH4 0x1E1D114 EQ PUSH2 0x397 JUMPI DUP1 PUSH4 0x6FDDE03 EQ PUSH2 0x3B2 JUMPI DUP1 PUSH4 0x7A2D13A EQ PUSH2 0x3C7 JUMPI JUMPDEST PUSH0 DUP1 REVERT JUMPDEST PUSH2 0x39F PUSH2 0x85B JUMP JUMPDEST PUSH1 0x40 MLOAD SWAP1 DUP2 MSTORE PUSH1 0x20 ADD JUMPDEST PUSH1 0x40 MLOAD DUP1 SWAP2 SUB SWAP1 RETURN JUMPDEST PUSH2 0x3BA PUSH2 0x9F2 JUMP JUMPDEST PUSH1 0x40 MLOAD PUSH2 0x3A9 SWAP2 SWAP1 PUSH2 0x3DEA JUMP JUMPDEST PUSH2 0x39F PUSH2 0x3D5 CALLDATASIZE PUSH1 0x4 PUSH2 0x3E35 JUMP JUMPDEST PUSH2 0xA82 JUMP JUMPDEST PUSH2 0x3ED PUSH2 0x3E8 CALLDATASIZE PUSH1 0x4 PUSH2 0x3E60 JUMP JUMPDEST PUSH2 0xA93 JUMP JUMPDEST PUSH1 0x40 MLOAD SWAP1 ISZERO ISZERO DUP2 MSTORE PUSH1 0x20 ADD PUSH2 0x3A9 JUMP JUMPDEST PUSH2 0x39F PUSH2 0x40B CALLDATASIZE PUSH1 0x4 PUSH2 0x3E35 JUMP JUMPDEST PUSH2 0xAAA JUMP JUMPDEST PUSH2 0x3ED PUSH2 0x41E CALLDATASIZE PUSH1 0x4 PUSH2 0x3E8A JUMP JUMPDEST PUSH1 0x8 PUSH1 0x20 MSTORE PUSH0 SWAP1 DUP2 MSTORE PUSH1 0x40 SWAP1 KECCAK256 SLOAD PUSH1 0xFF AND DUP2 JUMP JUMPDEST PUSH2 0x445 PUSH2 0x440 CALLDATASIZE PUSH1 0x4 PUSH2 0x3E8A JUMP JUMPDEST PUSH2 0xAB6 JUMP JUMPDEST STOP JUMPDEST PUSH1 0x2 SLOAD PUSH2 0x39F JUMP JUMPDEST PUSH2 0x3ED PUSH2 0x45D CALLDATASIZE PUSH1 0x4 PUSH2 0x3EA5 JUMP JUMPDEST PUSH2 0xD13 JUMP JUMPDEST PUSH2 0x445 PUSH2 0x470 CALLDATASIZE PUSH1 0x4 PUSH2 0x3E8A JUMP JUMPDEST PUSH2 0xD38 JUMP JUMPDEST PUSH2 0x47D PUSH2 0xE4C JUMP JUMPDEST PUSH1 0x40 MLOAD PUSH1 0xFF SWAP1 SWAP2 AND DUP2 MSTORE PUSH1 0x20 ADD PUSH2 0x3A9 JUMP JUMPDEST PUSH32 0x0 JUMPDEST PUSH1 0x40 MLOAD PUSH1 0x1 PUSH1 0x1 PUSH1 0xA0 SHL SUB SWAP1 SWAP2 AND DUP2 MSTORE PUSH1 0x20 ADD PUSH2 0x3A9 JUMP JUMPDEST PUSH2 0x39F PUSH2 0xED2 JUMP JUMPDEST PUSH2 0x51B PUSH2 0x4DF CALLDATASIZE PUSH1 0x4 PUSH2 0x3E8A JUMP JUMPDEST PUSH1 0xB PUSH1 0x20 MSTORE PUSH0 SWAP1 DUP2 MSTORE PUSH1 0x40 SWAP1 KECCAK256 DUP1 SLOAD PUSH1 0x1 DUP3 ADD SLOAD PUSH1 0x2 DUP4 ADD SLOAD PUSH1 0x3 DUP5 ADD SLOAD PUSH1 0x4 SWAP1 SWAP5 ADD SLOAD PUSH1 0x1 PUSH1 0x1 PUSH1 0xA0 SHL SUB SWAP1 SWAP4 AND SWAP4 SWAP2 SWAP3 PUSH1 0xFF SWAP1 SWAP2 AND SWAP2 SWAP1 DUP6 JUMP JUMPDEST PUSH1 0x40 MLOAD PUSH2 0x3A9 SWAP6 SWAP5 SWAP4 SWAP3 SWAP2 SWAP1 PUSH2 0x3F17 JUMP JUMPDEST PUSH2 0x39F PUSH1 0xD SLOAD DUP2 JUMP JUMPDEST PUSH2 0x445 PUSH2 0xF3B JUMP JUMPDEST PUSH2 0x39F PUSH2 0x54B CALLDATASIZE PUSH1 0x4 PUSH2 0x3E8A JUMP JUMPDEST PUSH2 0xF4D JUMP JUMPDEST PUSH2 0x558 PUSH2 0xF90 JUMP JUMPDEST PUSH1 0x40 MLOAD PUSH2 0x3A9 SWAP4 SWAP3 SWAP2 SWAP1 PUSH2 0x3FBE JUMP JUMPDEST PUSH2 0x39F PUSH1 0x9 SLOAD DUP2 JUMP JUMPDEST PUSH2 0x445 PUSH2 0x57E CALLDATASIZE PUSH1 0x4 PUSH2 0x3E35 JUMP JUMPDEST PUSH2 0x1334 JUMP JUMPDEST PUSH2 0x596 PUSH2 0x591 CALLDATASIZE PUSH1 0x4 PUSH2 0x3E8A JUMP JUMPDEST PUSH2 0x13CD JUMP JUMPDEST PUSH1 0x40 MLOAD PUSH2 0x3A9 SWAP2 SWAP1 PUSH2 0x4000 JUMP JUMPDEST PUSH2 0x5AB PUSH2 0x14B6 JUMP JUMPDEST PUSH1 0x40 MLOAD PUSH2 0x3A9 SWAP2 SWAP1 PUSH2 0x4049 JUMP JUMPDEST PUSH1 0x7 SLOAD PUSH1 0xFF AND PUSH2 0x3ED JUMP JUMPDEST PUSH2 0x39F PUSH2 0x5D1 CALLDATASIZE PUSH1 0x4 PUSH2 0x405B JUMP JUMPDEST PUSH2 0x166A JUMP JUMPDEST PUSH2 0x445 PUSH2 0x5E4 CALLDATASIZE PUSH1 0x4 PUSH2 0x3E60 JUMP JUMPDEST PUSH2 0x16DB JUMP JUMPDEST PUSH2 0x39F PUSH2 0x5F7 CALLDATASIZE PUSH1 0x4 PUSH2 0x3E8A JUMP JUMPDEST PUSH1 0x1 PUSH1 0x1 PUSH1 0xA0 SHL SUB AND PUSH0 SWAP1 DUP2 MSTORE PUSH1 0x20 DUP2 SWAP1 MSTORE PUSH1 0x40 SWAP1 KECCAK256 SLOAD SWAP1 JUMP JUMPDEST PUSH2 0x445 PUSH2 0x181D JUMP JUMPDEST PUSH2 0x445 PUSH2 0x182E JUMP JUMPDEST PUSH1 0x5 SLOAD PUSH1 0x1 PUSH1 0x1 PUSH1 0xA0 SHL SUB AND PUSH2 0x4B1 JUMP JUMPDEST PUSH2 0x445 PUSH2 0x640 CALLDATASIZE PUSH1 0x4 PUSH2 0x3E35 JUMP JUMPDEST PUSH2 0x183E JUMP JUMPDEST PUSH2 0x39F PUSH2 0x653 CALLDATASIZE PUSH1 0x4 PUSH2 0x405B JUMP JUMPDEST PUSH2 0x18D1 JUMP JUMPDEST PUSH2 0x3BA PUSH2 0x194F JUMP JUMPDEST PUSH2 0x445 PUSH2 0x66E CALLDATASIZE PUSH1 0x4 PUSH2 0x3E8A JUMP JUMPDEST PUSH2 0x195E JUMP JUMPDEST PUSH2 0x4B1 PUSH2 0x681 CALLDATASIZE PUSH1 0x4 PUSH2 0x3E35 JUMP JUMPDEST PUSH2 0x1A07 JUMP JUMPDEST PUSH2 0x68E PUSH2 0x1A2F JUMP JUMPDEST PUSH1 0x40 DUP1 MLOAD SWAP6 DUP7 MSTORE PUSH1 0x20 DUP7 ADD SWAP5 SWAP1 SWAP5 MSTORE SWAP3 DUP5 ADD SWAP2 SWAP1 SWAP2 MSTORE PUSH1 0x60 DUP4 ADD MSTORE PUSH1 0x80 DUP3 ADD MSTORE PUSH1 0xA0 ADD PUSH2 0x3A9 JUMP JUMPDEST PUSH2 0x3ED PUSH2 0x6C4 CALLDATASIZE PUSH1 0x4 PUSH2 0x3E60 JUMP JUMPDEST PUSH2 0x1A80 JUMP JUMPDEST PUSH2 0x445 PUSH2 0x6D7 CALLDATASIZE PUSH1 0x4 PUSH2 0x3E8A JUMP JUMPDEST PUSH2 0x1A8D JUMP JUMPDEST PUSH2 0x39F PUSH2 0x1ADD JUMP JUMPDEST PUSH2 0x39F PUSH1 0xE SLOAD DUP2 JUMP JUMPDEST PUSH2 0x39F PUSH2 0x6FB CALLDATASIZE PUSH1 0x4 PUSH2 0x3E35 JUMP JUMPDEST PUSH2 0x1B00 JUMP JUMPDEST PUSH2 0x39F PUSH2 0x70E CALLDATASIZE PUSH1 0x4 PUSH2 0x4089 JUMP JUMPDEST PUSH2 0x1B0C JUMP JUMPDEST PUSH2 0x445 PUSH2 0x721 CALLDATASIZE PUSH1 0x4 PUSH2 0x3E60 JUMP JUMPDEST PUSH2 0x1B34 JUMP JUMPDEST PUSH2 0x39F PUSH2 0x734 CALLDATASIZE PUSH1 0x4 PUSH2 0x4089 JUMP JUMPDEST PUSH2 0x1F66 JUMP JUMPDEST PUSH2 0x445 PUSH2 0x747 CALLDATASIZE PUSH1 0x4 PUSH2 0x3E35 JUMP JUMPDEST PUSH2 0x1F82 JUMP JUMPDEST PUSH2 0x5AB PUSH2 0x200E JUMP JUMPDEST PUSH2 0x39F PUSH2 0x762 CALLDATASIZE PUSH1 0x4 PUSH2 0x3E8A JUMP JUMPDEST PUSH2 0x206D JUMP JUMPDEST PUSH2 0x39F PUSH2 0x775 CALLDATASIZE PUSH1 0x4 PUSH2 0x3E35 JUMP JUMPDEST PUSH2 0x20C5 JUMP JUMPDEST PUSH2 0x445 PUSH2 0x788 CALLDATASIZE PUSH1 0x4 PUSH2 0x3E60 JUMP JUMPDEST PUSH2 0x20D0 JUMP JUMPDEST PUSH2 0x39F PUSH2 0x79B CALLDATASIZE PUSH1 0x4 PUSH2 0x3E8A JUMP JUMPDEST PUSH2 0x2464 JUMP JUMPDEST PUSH2 0x445 PUSH2 0x7AE CALLDATASIZE PUSH1 0x4 PUSH2 0x3E8A JUMP JUMPDEST PUSH2 0x2486 JUMP JUMPDEST PUSH2 0x445 PUSH2 0x7C1 CALLDATASIZE PUSH1 0x4 PUSH2 0x3E8A JUMP JUMPDEST PUSH2 0x25A2 JUMP JUMPDEST PUSH2 0x39F PUSH2 0x7D4 CALLDATASIZE PUSH1 0x4 PUSH2 0x3E8A JUMP JUMPDEST PUSH2 0x2654 JUMP JUMPDEST PUSH2 0x445 PUSH2 0x7E7 CALLDATASIZE PUSH1 0x4 PUSH2 0x3E8A JUMP JUMPDEST PUSH2 0x2671 JUMP JUMPDEST PUSH2 0x39F PUSH2 0x27BF JUMP JUMPDEST PUSH2 0x39F PUSH2 0x802 CALLDATASIZE PUSH1 0x4 PUSH2 0x40C8 JUMP JUMPDEST PUSH1 0x1 PUSH1 0x1 PUSH1 0xA0 SHL SUB SWAP2 DUP3 AND PUSH0 SWAP1 DUP2 MSTORE PUSH1 0x1 PUSH1 0x20 SWAP1 DUP2 MSTORE PUSH1 0x40 DUP1 DUP4 KECCAK256 SWAP4 SWAP1 SWAP5 AND DUP3 MSTORE SWAP2 SWAP1 SWAP2 MSTORE KECCAK256 SLOAD SWAP1 JUMP JUMPDEST PUSH2 0x39F PUSH1 0xA SLOAD DUP2 JUMP JUMPDEST PUSH2 0x445 PUSH2 0x843 CALLDATASIZE PUSH1 0x4 PUSH2 0x3E8A JUMP JUMPDEST PUSH2 0x2849 JUMP JUMPDEST PUSH2 0x445 PUSH2 0x856 CALLDATASIZE PUSH1 0x4 PUSH2 0x3E60 JUMP JUMPDEST PUSH2 0x2886 JUMP JUMPDEST PUSH0 DUP1 PUSH32 0x0 PUSH1 0x40 MLOAD PUSH4 0x70A08231 PUSH1 0xE0 SHL DUP2 MSTORE ADDRESS PUSH1 0x4 DUP3 ADD MSTORE PUSH1 0x1 PUSH1 0x1 PUSH1 0xA0 SHL SUB SWAP2 SWAP1 SWAP2 AND SWAP1 PUSH4 0x70A08231 SWAP1 PUSH1 0x24 ADD PUSH1 0x20 PUSH1 0x40 MLOAD DUP1 DUP4 SUB DUP2 DUP7 GAS STATICCALL ISZERO DUP1 ISZERO PUSH2 0x8C2 JUMPI RETURNDATASIZE PUSH0 DUP1 RETURNDATACOPY RETURNDATASIZE PUSH0 REVERT JUMPDEST POP POP POP POP PUSH1 0x40 MLOAD RETURNDATASIZE PUSH1 0x1F NOT PUSH1 0x1F DUP3 ADD AND DUP3 ADD DUP1 PUSH1 0x40 MSTORE POP DUP2 ADD SWAP1 PUSH2 0x8E6 SWAP2 SWAP1 PUSH2 0x40F4 JUMP JUMPDEST SWAP1 POP PUSH0 JUMPDEST PUSH1 0xC SLOAD DUP2 LT ISZERO PUSH2 0x9EC JUMPI PUSH0 PUSH1 0xC DUP3 DUP2 SLOAD DUP2 LT PUSH2 0x908 JUMPI PUSH2 0x908 PUSH2 0x410B JUMP JUMPDEST PUSH0 SWAP2 DUP3 MSTORE PUSH1 0x20 DUP1 DUP4 KECCAK256 SWAP1 SWAP2 ADD SLOAD PUSH1 0x1 PUSH1 0x1 PUSH1 0xA0 SHL SUB AND DUP1 DUP4 MSTORE PUSH1 0xB SWAP1 SWAP2 MSTORE PUSH1 0x40 SWAP1 SWAP2 KECCAK256 SWAP1 SWAP2 POP PUSH1 0x1 PUSH1 0x2 DUP3 ADD SLOAD PUSH1 0xFF AND PUSH1 0x3 DUP2 GT ISZERO PUSH2 0x949 JUMPI PUSH2 0x949 PUSH2 0x3EE3 JUMP JUMPDEST EQ PUSH2 0x955 JUMPI POP POP PUSH2 0x9DA JUMP JUMPDEST DUP2 PUSH1 0x1 PUSH1 0x1 PUSH1 0xA0 SHL SUB AND PUSH4 0x1E1D114 PUSH1 0x40 MLOAD DUP2 PUSH4 0xFFFFFFFF AND PUSH1 0xE0 SHL DUP2 MSTORE PUSH1 0x4 ADD PUSH1 0x20 PUSH1 0x40 MLOAD DUP1 DUP4 SUB DUP2 DUP7 GAS STATICCALL SWAP3 POP POP POP DUP1 ISZERO PUSH2 0x9AF JUMPI POP PUSH1 0x40 DUP1 MLOAD PUSH1 0x1F RETURNDATASIZE SWAP1 DUP2 ADD PUSH1 0x1F NOT AND DUP3 ADD SWAP1 SWAP3 MSTORE PUSH2 0x9AC SWAP2 DUP2 ADD SWAP1 PUSH2 0x40F4 JUMP JUMPDEST PUSH1 0x1 JUMPDEST PUSH2 0x9C9 JUMPI PUSH1 0x3 DUP2 ADD SLOAD PUSH2 0x9C2 SWAP1 DUP6 PUSH2 0x4133 JUMP JUMPDEST SWAP4 POP PUSH2 0x9D7 JUMP JUMPDEST PUSH2 0x9D3 DUP2 DUP7 PUSH2 0x4133 JUMP JUMPDEST SWAP5 POP POP JUMPDEST POP POP JUMPDEST DUP1 PUSH2 0x9E4 DUP2 PUSH2 0x4146 JUMP JUMPDEST SWAP2 POP POP PUSH2 0x8EA JUMP JUMPDEST POP SWAP2 SWAP1 POP JUMP JUMPDEST PUSH1 0x60 PUSH1 0x3 DUP1 SLOAD PUSH2 0xA01 SWAP1 PUSH2 0x415E JUMP JUMPDEST DUP1 PUSH1 0x1F ADD PUSH1 0x20 DUP1 SWAP2 DIV MUL PUSH1 0x20 ADD PUSH1 0x40 MLOAD SWAP1 DUP2 ADD PUSH1 0x40 MSTORE DUP1 SWAP3 SWAP2 SWAP1 DUP2 DUP2 MSTORE PUSH1 0x20 ADD DUP3 DUP1 SLOAD PUSH2 0xA2D SWAP1 PUSH2 0x415E JUMP JUMPDEST DUP1 ISZERO PUSH2 0xA78 JUMPI DUP1 PUSH1 0x1F LT PUSH2 0xA4F JUMPI PUSH2 0x100 DUP1 DUP4 SLOAD DIV MUL DUP4 MSTORE SWAP2 PUSH1 0x20 ADD SWAP2 PUSH2 0xA78 JUMP JUMPDEST DUP3 ADD SWAP2 SWAP1 PUSH0 MSTORE PUSH1 0x20 PUSH0 KECCAK256 SWAP1 JUMPDEST DUP2 SLOAD DUP2 MSTORE SWAP1 PUSH1 0x1 ADD SWAP1 PUSH1 0x20 ADD DUP1 DUP4 GT PUSH2 0xA5B JUMPI DUP3 SWAP1 SUB PUSH1 0x1F AND DUP3 ADD SWAP2 JUMPDEST POP POP POP POP POP SWAP1 POP SWAP1 JUMP JUMPDEST PUSH0 PUSH2 0xA8D DUP3 PUSH0 PUSH2 0x2DB6 JUMP JUMPDEST SWAP3 SWAP2 POP POP JUMP JUMPDEST PUSH0 CALLER PUSH2 0xAA0 DUP2 DUP6 DUP6 PUSH2 0x2DEE JUMP JUMPDEST POP PUSH1 0x1 SWAP4 SWAP3 POP POP POP JUMP JUMPDEST PUSH0 PUSH2 0xA8D DUP3 PUSH1 0x1 PUSH2 0x2E00 JUMP JUMPDEST PUSH2 0xABE PUSH2 0x2E2F JUMP JUMPDEST PUSH1 0x1 PUSH1 0x1 PUSH1 0xA0 SHL SUB DUP2 DUP2 AND PUSH0 SWAP1 DUP2 MSTORE PUSH1 0xB PUSH1 0x20 MSTORE PUSH1 0x40 SWAP1 KECCAK256 SLOAD AND PUSH2 0xAFD JUMPI PUSH1 0x40 MLOAD PUSH3 0x461BCD PUSH1 0xE5 SHL DUP2 MSTORE PUSH1 0x4 ADD PUSH2 0xAF4 SWAP1 PUSH2 0x4190 JUMP JUMPDEST PUSH1 0x40 MLOAD DUP1 SWAP2 SUB SWAP1 REVERT JUMPDEST PUSH1 0x1 PUSH1 0x1 PUSH1 0xA0 SHL SUB DUP2 AND PUSH0 SWAP1 DUP2 MSTORE PUSH1 0xB PUSH1 0x20 MSTORE PUSH1 0x40 SWAP1 KECCAK256 PUSH1 0x3 ADD SLOAD ISZERO PUSH2 0xB65 JUMPI PUSH1 0x40 MLOAD PUSH3 0x461BCD PUSH1 0xE5 SHL DUP2 MSTORE PUSH1 0x20 PUSH1 0x4 DUP3 ADD MSTORE PUSH1 0x18 PUSH1 0x24 DUP3 ADD MSTORE PUSH32 0x5374726174656779207374696C6C206861732066756E64730000000000000000 PUSH1 0x44 DUP3 ADD MSTORE PUSH1 0x64 ADD PUSH2 0xAF4 JUMP JUMPDEST PUSH1 0x1 PUSH1 0x1 PUSH1 0xA0 SHL SUB DUP2 AND PUSH0 SWAP1 DUP2 MSTORE PUSH1 0xB PUSH1 0x20 MSTORE PUSH1 0x40 DUP2 KECCAK256 PUSH1 0x1 ADD SLOAD PUSH1 0xD DUP1 SLOAD SWAP2 SWAP3 SWAP1 SWAP2 PUSH2 0xB93 SWAP1 DUP5 SWAP1 PUSH2 0x41C7 JUMP JUMPDEST SWAP1 SWAP2 SSTORE POP POP PUSH1 0x1 PUSH1 0x1 PUSH1 0xA0 SHL SUB DUP2 AND PUSH0 SWAP1 DUP2 MSTORE PUSH1 0xB PUSH1 0x20 MSTORE PUSH1 0x40 DUP2 KECCAK256 DUP1 SLOAD PUSH1 0x1 PUSH1 0x1 PUSH1 0xA0 SHL SUB NOT AND DUP2 SSTORE PUSH1 0x1 DUP2 ADD DUP3 SWAP1 SSTORE PUSH1 0x2 DUP2 ADD DUP1 SLOAD PUSH1 0xFF NOT AND SWAP1 SSTORE PUSH1 0x3 DUP2 ADD DUP3 SWAP1 SSTORE PUSH1 0x4 ADD DUP2 SWAP1 SSTORE JUMPDEST PUSH1 0xC SLOAD DUP2 LT ISZERO PUSH2 0xCDC JUMPI DUP2 PUSH1 0x1 PUSH1 0x1 PUSH1 0xA0 SHL SUB AND PUSH1 0xC DUP3 DUP2 SLOAD DUP2 LT PUSH2 0xC05 JUMPI PUSH2 0xC05 PUSH2 0x410B JUMP JUMPDEST PUSH0 SWAP2 DUP3 MSTORE PUSH1 0x20 SWAP1 SWAP2 KECCAK256 ADD SLOAD PUSH1 0x1 PUSH1 0x1 PUSH1 0xA0 SHL SUB AND SUB PUSH2 0xCCA JUMPI PUSH1 0xC DUP1 SLOAD PUSH2 0xC2E SWAP1 PUSH1 0x1 SWAP1 PUSH2 0x41C7 JUMP JUMPDEST DUP2 SLOAD DUP2 LT PUSH2 0xC3E JUMPI PUSH2 0xC3E PUSH2 0x410B JUMP JUMPDEST PUSH0 SWAP2 DUP3 MSTORE PUSH1 0x20 SWAP1 SWAP2 KECCAK256 ADD SLOAD PUSH1 0xC DUP1 SLOAD PUSH1 0x1 PUSH1 0x1 PUSH1 0xA0 SHL SUB SWAP1 SWAP3 AND SWAP2 DUP4 SWAP1 DUP2 LT PUSH2 0xC69 JUMPI PUSH2 0xC69 PUSH2 0x410B JUMP JUMPDEST SWAP1 PUSH0 MSTORE PUSH1 0x20 PUSH0 KECCAK256 ADD PUSH0 PUSH2 0x100 EXP DUP2 SLOAD DUP2 PUSH1 0x1 PUSH1 0x1 PUSH1 0xA0 SHL SUB MUL NOT AND SWAP1 DUP4 PUSH1 0x1 PUSH1 0x1 PUSH1 0xA0 SHL SUB AND MUL OR SWAP1 SSTORE POP PUSH1 0xC DUP1 SLOAD DUP1 PUSH2 0xCA5 JUMPI PUSH2 0xCA5 PUSH2 0x41DA JUMP JUMPDEST PUSH0 DUP3 DUP2 MSTORE PUSH1 0x20 SWAP1 KECCAK256 DUP2 ADD PUSH0 NOT SWAP1 DUP2 ADD DUP1 SLOAD PUSH1 0x1 PUSH1 0x1 PUSH1 0xA0 SHL SUB NOT AND SWAP1 SSTORE ADD SWAP1 SSTORE PUSH2 0xCDC JUMP JUMPDEST DUP1 PUSH2 0xCD4 DUP2 PUSH2 0x4146 JUMP JUMPDEST SWAP2 POP POP PUSH2 0xBDE JUMP JUMPDEST POP PUSH1 0x40 MLOAD PUSH1 0x1 PUSH1 0x1 PUSH1 0xA0 SHL SUB DUP3 AND SWAP1 PUSH32 0x9A1DB4B80C32706328728508C941A6B954F31EB5AFFD32F236C1FD405F8FEA4 SWAP1 PUSH0 SWAP1 LOG2 POP JUMP JUMPDEST PUSH0 CALLER PUSH2 0xD20 DUP6 DUP3 DUP6 PUSH2 0x2E5C JUMP JUMPDEST PUSH2 0xD2B DUP6 DUP6 DUP6 PUSH2 0x2EC5 JUMP JUMPDEST PUSH1 0x1 SWAP2 POP POP JUMPDEST SWAP4 SWAP3 POP POP POP JUMP JUMPDEST PUSH2 0xD40 PUSH2 0x2E2F JUMP JUMPDEST PUSH1 0x1 PUSH1 0x1 PUSH1 0xA0 SHL SUB DUP2 DUP2 AND PUSH0 SWAP1 DUP2 MSTORE PUSH1 0xB PUSH1 0x20 MSTORE PUSH1 0x40 SWAP1 KECCAK256 SLOAD AND PUSH2 0xD76 JUMPI PUSH1 0x40 MLOAD PUSH3 0x461BCD PUSH1 0xE5 SHL DUP2 MSTORE PUSH1 0x4 ADD PUSH2 0xAF4 SWAP1 PUSH2 0x4190 JUMP JUMPDEST PUSH1 0x2 PUSH1 0x1 PUSH1 0x1 PUSH1 0xA0 SHL SUB DUP3 AND PUSH0 SWAP1 DUP2 MSTORE PUSH1 0xB PUSH1 0x20 MSTORE PUSH1 0x40 SWAP1 KECCAK256 PUSH1 0x2 ADD SLOAD PUSH1 0xFF AND PUSH1 0x3 DUP2 GT ISZERO PUSH2 0xDA7 JUMPI PUSH2 0xDA7 PUSH2 0x3EE3 JUMP JUMPDEST EQ PUSH2 0xDEA JUMPI PUSH1 0x40 MLOAD PUSH3 0x461BCD PUSH1 0xE5 SHL DUP2 MSTORE PUSH1 0x20 PUSH1 0x4 DUP3 ADD MSTORE PUSH1 0x13 PUSH1 0x24 DUP3 ADD MSTORE PUSH19 0x14DD1C985D1959DE481B9BDD081C185D5CD959 PUSH1 0x6A SHL PUSH1 0x44 DUP3 ADD MSTORE PUSH1 0x64 ADD PUSH2 0xAF4 JUMP JUMPDEST PUSH1 0x1 PUSH1 0x1 PUSH1 0xA0 SHL SUB DUP2 AND PUSH0 DUP2 DUP2 MSTORE PUSH1 0xB PUSH1 0x20 MSTORE PUSH1 0x40 SWAP1 DUP2 SWAP1 KECCAK256 PUSH1 0x2 ADD DUP1 SLOAD PUSH1 0xFF NOT AND PUSH1 0x1 SWAP1 DUP2 OR SWAP1 SWAP2 SSTORE SWAP1 MLOAD PUSH32 0x71E4D9FADF21BB369876CEBBD9192D4D84150C2FB6D208D5D68D6FBDF0AABF76 SWAP2 PUSH2 0xE41 SWAP2 PUSH2 0x41EE JUMP JUMPDEST PUSH1 0x40 MLOAD DUP1 SWAP2 SUB SWAP1 LOG2 POP JUMP JUMPDEST PUSH0 PUSH32 0x0 PUSH1 0x1 PUSH1 0x1 PUSH1 0xA0 SHL SUB AND PUSH4 0x313CE567 PUSH1 0x40 MLOAD DUP2 PUSH4 0xFFFFFFFF AND PUSH1 0xE0 SHL DUP2 MSTORE PUSH1 0x4 ADD PUSH1 0x20 PUSH1 0x40 MLOAD DUP1 DUP4 SUB DUP2 DUP7 GAS STATICCALL ISZERO DUP1 ISZERO PUSH2 0xEA9 JUMPI RETURNDATASIZE PUSH0 DUP1 RETURNDATACOPY RETURNDATASIZE PUSH0 REVERT JUMPDEST POP POP POP POP PUSH1 0x40 MLOAD RETURNDATASIZE PUSH1 0x1F NOT PUSH1 0x1F DUP3 ADD AND DUP3 ADD DUP1 PUSH1 0x40 MSTORE POP DUP2 ADD SWAP1 PUSH2 0xECD SWAP2 SWAP1 PUSH2 0x41FC JUMP JUMPDEST SWAP1 POP SWAP1 JUMP JUMPDEST PUSH0 DUP1 DUP1 JUMPDEST PUSH1 0xC SLOAD DUP2 LT ISZERO PUSH2 0x9EC JUMPI PUSH1 0xB PUSH0 PUSH1 0xC DUP4 DUP2 SLOAD DUP2 LT PUSH2 0xEF6 JUMPI PUSH2 0xEF6 PUSH2 0x410B JUMP JUMPDEST PUSH0 SWAP2 DUP3 MSTORE PUSH1 0x20 DUP1 DUP4 KECCAK256 SWAP1 SWAP2 ADD SLOAD PUSH1 0x1 PUSH1 0x1 PUSH1 0xA0 SHL SUB AND DUP4 MSTORE DUP3 ADD SWAP3 SWAP1 SWAP3 MSTORE PUSH1 0x40 ADD SWAP1 KECCAK256 PUSH1 0x3 ADD SLOAD PUSH2 0xF27 SWAP1 DUP4 PUSH2 0x4133 JUMP JUMPDEST SWAP2 POP DUP1 PUSH2 0xF33 DUP2 PUSH2 0x4146 JUMP JUMPDEST SWAP2 POP POP PUSH2 0xED6 JUMP JUMPDEST PUSH2 0xF43 PUSH2 0x2E2F JUMP JUMPDEST PUSH2 0xF4B PUSH2 0x2F22 JUMP JUMPDEST JUMP JUMPDEST PUSH0 PUSH2 0xF5A PUSH1 0x7 SLOAD PUSH1 0xFF AND SWAP1 JUMP JUMPDEST ISZERO PUSH2 0xF66 JUMPI POP PUSH0 SWAP2 SWAP1 POP JUMP JUMPDEST PUSH0 PUSH2 0xF6F PUSH2 0x85B JUMP JUMPDEST SWAP1 POP PUSH1 0xA SLOAD DUP2 LT PUSH2 0xF82 JUMPI POP PUSH0 SWAP3 SWAP2 POP POP JUMP JUMPDEST DUP1 PUSH1 0xA SLOAD PUSH2 0xD31 SWAP2 SWAP1 PUSH2 0x41C7 JUMP JUMPDEST PUSH1 0x60 DUP1 PUSH1 0x60 PUSH0 PUSH2 0xF9E PUSH2 0x85B JUMP JUMPDEST PUSH1 0xC SLOAD SWAP1 SWAP2 POP PUSH2 0xFAF DUP2 PUSH1 0x1 PUSH2 0x4133 JUMP JUMPDEST PUSH8 0xFFFFFFFFFFFFFFFF DUP2 GT ISZERO PUSH2 0xFC7 JUMPI PUSH2 0xFC7 PUSH2 0x421C JUMP JUMPDEST PUSH1 0x40 MLOAD SWAP1 DUP1 DUP3 MSTORE DUP1 PUSH1 0x20 MUL PUSH1 0x20 ADD DUP3 ADD PUSH1 0x40 MSTORE DUP1 ISZERO PUSH2 0xFF0 JUMPI DUP2 PUSH1 0x20 ADD PUSH1 0x20 DUP3 MUL DUP1 CALLDATASIZE DUP4 CALLDATACOPY ADD SWAP1 POP JUMPDEST POP SWAP5 POP PUSH2 0xFFE DUP2 PUSH1 0x1 PUSH2 0x4133 JUMP JUMPDEST PUSH8 0xFFFFFFFFFFFFFFFF DUP2 GT ISZERO PUSH2 0x1016 JUMPI PUSH2 0x1016 PUSH2 0x421C JUMP JUMPDEST PUSH1 0x40 MLOAD SWAP1 DUP1 DUP3 MSTORE DUP1 PUSH1 0x20 MUL PUSH1 0x20 ADD DUP3 ADD PUSH1 0x40 MSTORE DUP1 ISZERO PUSH2 0x103F JUMPI DUP2 PUSH1 0x20 ADD PUSH1 0x20 DUP3 MUL DUP1 CALLDATASIZE DUP4 CALLDATACOPY ADD SWAP1 POP JUMPDEST POP SWAP4 POP PUSH2 0x104D DUP2 PUSH1 0x1 PUSH2 0x4133 JUMP JUMPDEST PUSH8 0xFFFFFFFFFFFFFFFF DUP2 GT ISZERO PUSH2 0x1065 JUMPI PUSH2 0x1065 PUSH2 0x421C JUMP JUMPDEST PUSH1 0x40 MLOAD SWAP1 DUP1 DUP3 MSTORE DUP1 PUSH1 0x20 MUL PUSH1 0x20 ADD DUP3 ADD PUSH1 0x40 MSTORE DUP1 ISZERO PUSH2 0x108E JUMPI DUP2 PUSH1 0x20 ADD PUSH1 0x20 DUP3 MUL DUP1 CALLDATASIZE DUP4 CALLDATACOPY ADD SWAP1 POP JUMPDEST POP SWAP3 POP PUSH0 DUP6 PUSH0 DUP2 MLOAD DUP2 LT PUSH2 0x10A4 JUMPI PUSH2 0x10A4 PUSH2 0x410B JUMP JUMPDEST PUSH1 0x1 PUSH1 0x1 PUSH1 0xA0 SHL SUB SWAP1 SWAP3 AND PUSH1 0x20 SWAP3 DUP4 MUL SWAP2 SWAP1 SWAP2 ADD SWAP1 SWAP2 ADD MSTORE DUP2 ISZERO PUSH2 0x1100 JUMPI DUP2 PUSH2 0x10CB PUSH2 0x27BF JUMP JUMPDEST PUSH2 0x10D7 SWAP1 PUSH2 0x2710 PUSH2 0x4230 JUMP JUMPDEST PUSH2 0x10E1 SWAP2 SWAP1 PUSH2 0x425B JUMP JUMPDEST DUP5 PUSH0 DUP2 MLOAD DUP2 LT PUSH2 0x10F3 JUMPI PUSH2 0x10F3 PUSH2 0x410B JUMP JUMPDEST PUSH1 0x20 MUL PUSH1 0x20 ADD ADD DUP2 DUP2 MSTORE POP POP JUMPDEST PUSH1 0xE SLOAD DUP4 PUSH0 DUP2 MLOAD DUP2 LT PUSH2 0x1115 JUMPI PUSH2 0x1115 PUSH2 0x410B JUMP JUMPDEST PUSH1 0x20 MUL PUSH1 0x20 ADD ADD DUP2 DUP2 MSTORE POP POP PUSH0 JUMPDEST DUP2 DUP2 LT ISZERO PUSH2 0x132C JUMPI PUSH0 PUSH1 0xC DUP3 DUP2 SLOAD DUP2 LT PUSH2 0x113F JUMPI PUSH2 0x113F PUSH2 0x410B JUMP JUMPDEST PUSH0 SWAP2 DUP3 MSTORE PUSH1 0x20 SWAP1 SWAP2 KECCAK256 ADD SLOAD PUSH1 0x1 PUSH1 0x1 PUSH1 0xA0 SHL SUB AND SWAP1 POP DUP1 DUP8 PUSH2 0x1162 DUP5 PUSH1 0x1 PUSH2 0x4133 JUMP JUMPDEST DUP2 MLOAD DUP2 LT PUSH2 0x1172 JUMPI PUSH2 0x1172 PUSH2 0x410B JUMP JUMPDEST PUSH1 0x20 MUL PUSH1 0x20 ADD ADD SWAP1 PUSH1 0x1 PUSH1 0x1 PUSH1 0xA0 SHL SUB AND SWAP1 DUP2 PUSH1 0x1 PUSH1 0x1 PUSH1 0xA0 SHL SUB AND DUP2 MSTORE POP POP PUSH0 DUP5 GT DUP1 ISZERO PUSH2 0x11CF JUMPI POP PUSH1 0x1 PUSH1 0x1 PUSH1 0x1 PUSH1 0xA0 SHL SUB DUP3 AND PUSH0 SWAP1 DUP2 MSTORE PUSH1 0xB PUSH1 0x20 MSTORE PUSH1 0x40 SWAP1 KECCAK256 PUSH1 0x2 ADD SLOAD PUSH1 0xFF AND PUSH1 0x3 DUP2 GT ISZERO PUSH2 0x11CD JUMPI PUSH2 0x11CD PUSH2 0x3EE3 JUMP JUMPDEST EQ JUMPDEST ISZERO PUSH2 0x12D3 JUMPI DUP1 PUSH1 0x1 PUSH1 0x1 PUSH1 0xA0 SHL SUB AND PUSH4 0x1E1D114 PUSH1 0x40 MLOAD DUP2 PUSH4 0xFFFFFFFF AND PUSH1 0xE0 SHL DUP2 MSTORE PUSH1 0x4 ADD PUSH1 0x20 PUSH1 0x40 MLOAD DUP1 DUP4 SUB DUP2 DUP7 GAS STATICCALL SWAP3 POP POP POP DUP1 ISZERO PUSH2 0x122E JUMPI POP PUSH1 0x40 DUP1 MLOAD PUSH1 0x1F RETURNDATASIZE SWAP1 DUP2 ADD PUSH1 0x1F NOT AND DUP3 ADD SWAP1 SWAP3 MSTORE PUSH2 0x122B SWAP2 DUP2 ADD SWAP1 PUSH2 0x40F4 JUMP JUMPDEST PUSH1 0x1 JUMPDEST PUSH2 0x1292 JUMPI PUSH1 0x1 PUSH1 0x1 PUSH1 0xA0 SHL SUB DUP2 AND PUSH0 SWAP1 DUP2 MSTORE PUSH1 0xB PUSH1 0x20 MSTORE PUSH1 0x40 SWAP1 KECCAK256 PUSH1 0x3 ADD SLOAD DUP5 SWAP1 PUSH2 0x125B SWAP1 PUSH2 0x2710 PUSH2 0x4230 JUMP JUMPDEST PUSH2 0x1265 SWAP2 SWAP1 PUSH2 0x425B JUMP JUMPDEST DUP7 PUSH2 0x1271 DUP5 PUSH1 0x1 PUSH2 0x4133 JUMP JUMPDEST DUP2 MLOAD DUP2 LT PUSH2 0x1281 JUMPI PUSH2 0x1281 PUSH2 0x410B JUMP JUMPDEST PUSH1 0x20 MUL PUSH1 0x20 ADD ADD DUP2 DUP2 MSTORE POP POP PUSH2 0x12D3 JUMP JUMPDEST DUP5 PUSH2 0x129F DUP3 PUSH2 0x2710 PUSH2 0x4230 JUMP JUMPDEST PUSH2 0x12A9 SWAP2 SWAP1 PUSH2 0x425B JUMP JUMPDEST DUP8 PUSH2 0x12B5 DUP6 PUSH1 0x1 PUSH2 0x4133 JUMP JUMPDEST DUP2 MLOAD DUP2 LT PUSH2 0x12C5 JUMPI PUSH2 0x12C5 PUSH2 0x410B JUMP JUMPDEST PUSH1 0x20 MUL PUSH1 0x20 ADD ADD DUP2 DUP2 MSTORE POP POP POP JUMPDEST PUSH1 0x1 PUSH1 0x1 PUSH1 0xA0 SHL SUB DUP2 AND PUSH0 SWAP1 DUP2 MSTORE PUSH1 0xB PUSH1 0x20 MSTORE PUSH1 0x40 SWAP1 KECCAK256 PUSH1 0x1 SWAP1 DUP2 ADD SLOAD SWAP1 DUP7 SWAP1 PUSH2 0x12FE SWAP1 DUP6 SWAP1 PUSH2 0x4133 JUMP JUMPDEST DUP2 MLOAD DUP2 LT PUSH2 0x130E JUMPI PUSH2 0x130E PUSH2 0x410B JUMP JUMPDEST PUSH1 0x20 SWAP1 DUP2 MUL SWAP2 SWAP1 SWAP2 ADD ADD MSTORE POP DUP1 PUSH2 0x1324 DUP2 PUSH2 0x4146 JUMP JUMPDEST SWAP2 POP POP PUSH2 0x1123 JUMP JUMPDEST POP POP POP SWAP1 SWAP2 SWAP3 JUMP JUMPDEST PUSH2 0x133C PUSH2 0x2E2F JUMP JUMPDEST PUSH2 0x2710 DUP2 GT ISZERO PUSH2 0x135E JUMPI PUSH1 0x40 MLOAD PUSH3 0x461BCD PUSH1 0xE5 SHL DUP2 MSTORE PUSH1 0x4 ADD PUSH2 0xAF4 SWAP1 PUSH2 0x426E JUMP JUMPDEST PUSH0 DUP2 PUSH1 0xD SLOAD PUSH2 0x136D SWAP2 SWAP1 PUSH2 0x4133 JUMP JUMPDEST SWAP1 POP PUSH2 0x2710 DUP2 GT ISZERO PUSH2 0x1391 JUMPI PUSH1 0x40 MLOAD PUSH3 0x461BCD PUSH1 0xE5 SHL DUP2 MSTORE PUSH1 0x4 ADD PUSH2 0xAF4 SWAP1 PUSH2 0x42A5 JUMP JUMPDEST PUSH1 0xE DUP3 SWAP1 SSTORE PUSH1 0x40 MLOAD DUP3 DUP2 MSTORE PUSH32 0x25D100BF71CE70005705F0F63E93DDD517F408C8FAD360538D0AE1F2204029A8 SWAP1 PUSH1 0x20 ADD PUSH1 0x40 MLOAD DUP1 SWAP2 SUB SWAP1 LOG1 POP POP JUMP JUMPDEST PUSH2 0x13FC PUSH1 0x40 DUP1 MLOAD PUSH1 0xA0 DUP2 ADD DUP3 MSTORE PUSH0 DUP1 DUP3 MSTORE PUSH1 0x20 DUP3 ADD DUP2 SWAP1 MSTORE SWAP1 SWAP2 DUP3 ADD SWAP1 DUP2 MSTORE PUSH1 0x20 ADD PUSH0 DUP2 MSTORE PUSH1 0x20 ADD PUSH0 DUP2 MSTORE POP SWAP1 JUMP JUMPDEST PUSH1 0x1 PUSH1 0x1 PUSH1 0xA0 SHL SUB DUP3 DUP2 AND PUSH0 SWAP1 DUP2 MSTORE PUSH1 0xB PUSH1 0x20 MSTORE PUSH1 0x40 SWAP1 KECCAK256 SLOAD AND PUSH2 0x1432 JUMPI PUSH1 0x40 MLOAD PUSH3 0x461BCD PUSH1 0xE5 SHL DUP2 MSTORE PUSH1 0x4 ADD PUSH2 0xAF4 SWAP1 PUSH2 0x4190 JUMP JUMPDEST PUSH1 0x1 PUSH1 0x1 PUSH1 0xA0 SHL SUB DUP1 DUP4 AND PUSH0 SWAP1 DUP2 MSTORE PUSH1 0xB PUSH1 0x20 SWAP1 DUP2 MSTORE PUSH1 0x40 SWAP2 DUP3 SWAP1 KECCAK256 DUP3 MLOAD PUSH1 0xA0 DUP2 ADD DUP5 MSTORE DUP2 SLOAD SWAP1 SWAP5 AND DUP5 MSTORE PUSH1 0x1 DUP2 ADD SLOAD SWAP2 DUP5 ADD SWAP2 SWAP1 SWAP2 MSTORE PUSH1 0x2 DUP2 ADD SLOAD SWAP1 SWAP2 DUP4 ADD SWAP1 PUSH1 0xFF AND PUSH1 0x3 DUP2 GT ISZERO PUSH2 0x1487 JUMPI PUSH2 0x1487 PUSH2 0x3EE3 JUMP JUMPDEST PUSH1 0x3 DUP2 GT ISZERO PUSH2 0x1498 JUMPI PUSH2 0x1498 PUSH2 0x3EE3 JUMP JUMPDEST DUP2 MSTORE PUSH1 0x3 DUP3 ADD SLOAD PUSH1 0x20 DUP3 ADD MSTORE PUSH1 0x4 SWAP1 SWAP2 ADD SLOAD PUSH1 0x40 SWAP1 SWAP2 ADD MSTORE SWAP3 SWAP2 POP POP JUMP JUMPDEST PUSH1 0x60 PUSH0 DUP1 JUMPDEST PUSH1 0xC SLOAD DUP2 LT ISZERO PUSH2 0x153D JUMPI PUSH1 0x1 PUSH1 0xB PUSH0 PUSH1 0xC DUP5 DUP2 SLOAD DUP2 LT PUSH2 0x14DD JUMPI PUSH2 0x14DD PUSH2 0x410B JUMP JUMPDEST PUSH0 SWAP2 DUP3 MSTORE PUSH1 0x20 DUP1 DUP4 KECCAK256 SWAP1 SWAP2 ADD SLOAD PUSH1 0x1 PUSH1 0x1 PUSH1 0xA0 SHL SUB AND DUP4 MSTORE DUP3 ADD SWAP3 SWAP1 SWAP3 MSTORE PUSH1 0x40 ADD SWAP1 KECCAK256 PUSH1 0x2 ADD SLOAD PUSH1 0xFF AND PUSH1 0x3 DUP2 GT ISZERO PUSH2 0x1518 JUMPI PUSH2 0x1518 PUSH2 0x3EE3 JUMP JUMPDEST SUB PUSH2 0x152B JUMPI DUP2 PUSH2 0x1527 DUP2 PUSH2 0x4146 JUMP JUMPDEST SWAP3 POP POP JUMPDEST DUP1 PUSH2 0x1535 DUP2 PUSH2 0x4146 JUMP JUMPDEST SWAP2 POP POP PUSH2 0x14BB JUMP JUMPDEST POP PUSH0 DUP2 PUSH8 0xFFFFFFFFFFFFFFFF DUP2 GT ISZERO PUSH2 0x1558 JUMPI PUSH2 0x1558 PUSH2 0x421C JUMP JUMPDEST PUSH1 0x40 MLOAD SWAP1 DUP1 DUP3 MSTORE DUP1 PUSH1 0x20 MUL PUSH1 0x20 ADD DUP3 ADD PUSH1 0x40 MSTORE DUP1 ISZERO PUSH2 0x1581 JUMPI DUP2 PUSH1 0x20 ADD PUSH1 0x20 DUP3 MUL DUP1 CALLDATASIZE DUP4 CALLDATACOPY ADD SWAP1 POP JUMPDEST POP SWAP1 POP PUSH0 DUP1 JUMPDEST PUSH1 0xC SLOAD DUP2 LT ISZERO PUSH2 0x1661 JUMPI PUSH1 0x1 PUSH1 0xB PUSH0 PUSH1 0xC DUP5 DUP2 SLOAD DUP2 LT PUSH2 0x15A9 JUMPI PUSH2 0x15A9 PUSH2 0x410B JUMP JUMPDEST PUSH0 SWAP2 DUP3 MSTORE PUSH1 0x20 DUP1 DUP4 KECCAK256 SWAP1 SWAP2 ADD SLOAD PUSH1 0x1 PUSH1 0x1 PUSH1 0xA0 SHL SUB AND DUP4 MSTORE DUP3 ADD SWAP3 SWAP1 SWAP3 MSTORE PUSH1 0x40 ADD SWAP1 KECCAK256 PUSH1 0x2 ADD SLOAD PUSH1 0xFF AND PUSH1 0x3 DUP2 GT ISZERO PUSH2 0x15E4 JUMPI PUSH2 0x15E4 PUSH2 0x3EE3 JUMP JUMPDEST SUB PUSH2 0x164F JUMPI PUSH1 0xC DUP2 DUP2 SLOAD DUP2 LT PUSH2 0x15FC JUMPI PUSH2 0x15FC PUSH2 0x410B JUMP JUMPDEST SWAP1 PUSH0 MSTORE PUSH1 0x20 PUSH0 KECCAK256 ADD PUSH0 SWAP1 SLOAD SWAP1 PUSH2 0x100 EXP SWAP1 DIV PUSH1 0x1 PUSH1 0x1 PUSH1 0xA0 SHL SUB AND DUP4 DUP4 DUP2 MLOAD DUP2 LT PUSH2 0x1629 JUMPI PUSH2 0x1629 PUSH2 0x410B JUMP JUMPDEST PUSH1 0x1 PUSH1 0x1 PUSH1 0xA0 SHL SUB SWAP1 SWAP3 AND PUSH1 0x20 SWAP3 DUP4 MUL SWAP2 SWAP1 SWAP2 ADD SWAP1 SWAP2 ADD MSTORE DUP2 PUSH2 0x164B DUP2 PUSH2 0x4146 JUMP JUMPDEST SWAP3 POP POP JUMPDEST DUP1 PUSH2 0x1659 DUP2 PUSH2 0x4146 JUMP JUMPDEST SWAP2 POP POP PUSH2 0x1587 JUMP JUMPDEST POP SWAP1 SWAP4 SWAP3 POP POP POP JUMP JUMPDEST PUSH0 PUSH2 0x1673 PUSH2 0x2F74 JUMP JUMPDEST PUSH2 0x167B PUSH2 0x2F9E JUMP JUMPDEST PUSH1 0x9 SLOAD DUP4 LT ISZERO PUSH2 0x16C5 JUMPI PUSH1 0x40 MLOAD PUSH3 0x461BCD PUSH1 0xE5 SHL DUP2 MSTORE PUSH1 0x20 PUSH1 0x4 DUP3 ADD MSTORE PUSH1 0x15 PUSH1 0x24 DUP3 ADD MSTORE PUSH21 0x10995B1BDDC81B5A5B9A5B5D5B4819195C1BDCDA5D PUSH1 0x5A SHL PUSH1 0x44 DUP3 ADD MSTORE PUSH1 0x64 ADD PUSH2 0xAF4 JUMP JUMPDEST PUSH2 0x16CF DUP4 DUP4 PUSH2 0x2FC2 JUMP JUMPDEST SWAP1 POP PUSH2 0xA8D PUSH1 0x1 PUSH1 0x6 SSTORE JUMP JUMPDEST PUSH2 0x16E3 PUSH2 0x2E2F JUMP JUMPDEST PUSH1 0x1 PUSH1 0x1 PUSH1 0xA0 SHL SUB DUP3 DUP2 AND PUSH0 SWAP1 DUP2 MSTORE PUSH1 0xB PUSH1 0x20 MSTORE PUSH1 0x40 SWAP1 KECCAK256 SLOAD AND PUSH2 0x1719 JUMPI PUSH1 0x40 MLOAD PUSH3 0x461BCD PUSH1 0xE5 SHL DUP2 MSTORE PUSH1 0x4 ADD PUSH2 0xAF4 SWAP1 PUSH2 0x4190 JUMP JUMPDEST PUSH2 0x2710 DUP2 GT ISZERO PUSH2 0x173B JUMPI PUSH1 0x40 MLOAD PUSH3 0x461BCD PUSH1 0xE5 SHL DUP2 MSTORE PUSH1 0x4 ADD PUSH2 0xAF4 SWAP1 PUSH2 0x426E JUMP JUMPDEST PUSH1 0x1 PUSH1 0x1 PUSH1 0xA0 SHL SUB DUP3 AND PUSH0 SWAP1 DUP2 MSTORE PUSH1 0xB PUSH1 0x20 MSTORE PUSH1 0x40 DUP2 KECCAK256 PUSH1 0x1 ADD SLOAD PUSH1 0xE SLOAD PUSH1 0xD SLOAD SWAP2 SWAP3 SWAP2 DUP5 SWAP1 PUSH2 0x176C SWAP1 DUP6 SWAP1 PUSH2 0x41C7 JUMP JUMPDEST PUSH2 0x1776 SWAP2 SWAP1 PUSH2 0x4133 JUMP JUMPDEST PUSH2 0x1780 SWAP2 SWAP1 PUSH2 0x4133 JUMP JUMPDEST SWAP1 POP PUSH2 0x2710 DUP2 GT ISZERO PUSH2 0x17A4 JUMPI PUSH1 0x40 MLOAD PUSH3 0x461BCD PUSH1 0xE5 SHL DUP2 MSTORE PUSH1 0x4 ADD PUSH2 0xAF4 SWAP1 PUSH2 0x42A5 JUMP JUMPDEST DUP3 DUP3 PUSH1 0xD SLOAD PUSH2 0x17B3 SWAP2 SWAP1 PUSH2 0x41C7 JUMP JUMPDEST PUSH2 0x17BD SWAP2 SWAP1 PUSH2 0x4133 JUMP JUMPDEST PUSH1 0xD SSTORE PUSH1 0x1 PUSH1 0x1 PUSH1 0xA0 SHL SUB DUP5 AND PUSH0 DUP2 DUP2 MSTORE PUSH1 0xB PUSH1 0x20 MSTORE PUSH1 0x40 SWAP1 DUP2 SWAP1 KECCAK256 PUSH1 0x1 ADD DUP6 SWAP1 SSTORE MLOAD PUSH32 0xEDA1127DBE257A768246136B79DE9D901A2A66B37E0197435F9B4C2E499095C4 SWAP1 PUSH2 0x180F SWAP1 DUP7 DUP2 MSTORE PUSH1 0x20 ADD SWAP1 JUMP JUMPDEST PUSH1 0x40 MLOAD DUP1 SWAP2 SUB SWAP1 LOG2 POP POP POP POP JUMP JUMPDEST PUSH2 0x1825 PUSH2 0x2E2F JUMP JUMPDEST PUSH2 0xF4B PUSH0 PUSH2 0x300E JUMP JUMPDEST PUSH2 0x1836 PUSH2 0x2E2F JUMP JUMPDEST PUSH2 0xF4B PUSH2 0x305F JUMP JUMPDEST PUSH2 0x1846 PUSH2 0x2E2F JUMP JUMPDEST PUSH0 DUP2 GT PUSH2 0x1895 JUMPI PUSH1 0x40 MLOAD PUSH3 0x461BCD PUSH1 0xE5 SHL DUP2 MSTORE PUSH1 0x20 PUSH1 0x4 DUP3 ADD MSTORE PUSH1 0x1C PUSH1 0x24 DUP3 ADD MSTORE PUSH32 0x4D696E206465706F736974206D75737420626520706F73697469766500000000 PUSH1 0x44 DUP3 ADD MSTORE PUSH1 0x64 ADD PUSH2 0xAF4 JUMP JUMPDEST PUSH1 0x9 DUP2 SWAP1 SSTORE PUSH1 0x40 MLOAD DUP2 DUP2 MSTORE PUSH32 0x96A008F96F1C0AB9FA3D9DDD43CDFC614848C4D054D51F43662ED900E9D094C8 SWAP1 PUSH1 0x20 ADD JUMPDEST PUSH1 0x40 MLOAD DUP1 SWAP2 SUB SWAP1 LOG1 POP JUMP JUMPDEST PUSH0 PUSH2 0x18DA PUSH2 0x2F74 JUMP JUMPDEST PUSH2 0x18E2 PUSH2 0x2F9E JUMP JUMPDEST PUSH0 PUSH2 0x18EC DUP5 PUSH2 0x1B00 JUMP JUMPDEST SWAP1 POP PUSH1 0x9 SLOAD DUP2 LT ISZERO PUSH2 0x1938 JUMPI PUSH1 0x40 MLOAD PUSH3 0x461BCD PUSH1 0xE5 SHL DUP2 MSTORE PUSH1 0x20 PUSH1 0x4 DUP3 ADD MSTORE PUSH1 0x15 PUSH1 0x24 DUP3 ADD MSTORE PUSH21 0x10995B1BDDC81B5A5B9A5B5D5B4819195C1BDCDA5D PUSH1 0x5A SHL PUSH1 0x44 DUP3 ADD MSTORE PUSH1 0x64 ADD PUSH2 0xAF4 JUMP JUMPDEST PUSH2 0x1942 DUP5 DUP5 PUSH2 0x309C JUMP JUMPDEST SWAP2 POP POP PUSH2 0xA8D PUSH1 0x1 PUSH1 0x6 SSTORE JUMP JUMPDEST PUSH1 0x60 PUSH1 0x4 DUP1 SLOAD PUSH2 0xA01 SWAP1 PUSH2 0x415E JUMP JUMPDEST PUSH2 0x1966 PUSH2 0x2E2F JUMP JUMPDEST PUSH1 0x1 PUSH1 0x1 PUSH1 0xA0 SHL SUB DUP2 AND PUSH2 0x19BC JUMPI PUSH1 0x40 MLOAD PUSH3 0x461BCD PUSH1 0xE5 SHL DUP2 MSTORE PUSH1 0x20 PUSH1 0x4 DUP3 ADD MSTORE PUSH1 0x18 PUSH1 0x24 DUP3 ADD MSTORE PUSH32 0x496E76616C6964206F70657261746F7220616464726573730000000000000000 PUSH1 0x44 DUP3 ADD MSTORE PUSH1 0x64 ADD PUSH2 0xAF4 JUMP JUMPDEST PUSH1 0x1 PUSH1 0x1 PUSH1 0xA0 SHL SUB DUP2 AND PUSH0 DUP2 DUP2 MSTORE PUSH1 0x8 PUSH1 0x20 MSTORE PUSH1 0x40 DUP1 DUP3 KECCAK256 DUP1 SLOAD PUSH1 0xFF NOT AND PUSH1 0x1 OR SWAP1 SSTORE MLOAD PUSH32 0xAC6FA858E9350A46CEC16539926E0FDE25B7629F84B5A72BFFAAE4DF888AE86D SWAP2 SWAP1 LOG2 POP JUMP JUMPDEST PUSH1 0xC DUP2 DUP2 SLOAD DUP2 LT PUSH2 0x1A16 JUMPI PUSH0 DUP1 REVERT JUMPDEST PUSH0 SWAP2 DUP3 MSTORE PUSH1 0x20 SWAP1 SWAP2 KECCAK256 ADD SLOAD PUSH1 0x1 PUSH1 0x1 PUSH1 0xA0 SHL SUB AND SWAP1 POP DUP2 JUMP JUMPDEST PUSH0 DUP1 PUSH0 DUP1 PUSH0 PUSH2 0x1A3C PUSH2 0x27BF JUMP JUMPDEST SWAP5 POP PUSH2 0x1A46 PUSH2 0x1ADD JUMP JUMPDEST SWAP4 POP PUSH1 0xE SLOAD SWAP1 POP DUP4 DUP6 LT ISZERO PUSH2 0x1A69 JUMPI PUSH2 0x1A5F DUP6 DUP6 PUSH2 0x41C7 JUMP JUMPDEST SWAP3 POP PUSH0 SWAP2 POP PUSH2 0x1A79 JUMP JUMPDEST PUSH0 SWAP3 POP PUSH2 0x1A76 DUP5 DUP7 PUSH2 0x41C7 JUMP JUMPDEST SWAP2 POP JUMPDEST SWAP1 SWAP2 SWAP3 SWAP4 SWAP5 JUMP JUMPDEST PUSH0 CALLER PUSH2 0xAA0 DUP2 DUP6 DUP6 PUSH2 0x2EC5 JUMP JUMPDEST PUSH2 0x1A95 PUSH2 0x2E2F JUMP JUMPDEST PUSH1 0x1 PUSH1 0x1 PUSH1 0xA0 SHL SUB DUP2 AND PUSH0 DUP2 DUP2 MSTORE PUSH1 0x8 PUSH1 0x20 MSTORE PUSH1 0x40 DUP1 DUP3 KECCAK256 DUP1 SLOAD PUSH1 0xFF NOT AND SWAP1 SSTORE MLOAD PUSH32 0x80C0B871B97B595B16A7741C1B06FED0C6F6F558639F18CCBCE50724325DC40D SWAP2 SWAP1 LOG2 POP JUMP JUMPDEST PUSH0 PUSH2 0x2710 PUSH1 0xE SLOAD PUSH2 0x1AEC PUSH2 0x85B JUMP JUMPDEST PUSH2 0x1AF6 SWAP2 SWAP1 PUSH2 0x4230 JUMP JUMPDEST PUSH2 0xECD SWAP2 SWAP1 PUSH2 0x425B JUMP JUMPDEST PUSH0 PUSH2 0xA8D DUP3 PUSH1 0x1 PUSH2 0x2DB6 JUMP JUMPDEST PUSH0 PUSH2 0x1B15 PUSH2 0x2F74 JUMP JUMPDEST PUSH2 0x1B1D PUSH2 0x2F9E JUMP JUMPDEST PUSH2 0x1B28 DUP5 DUP5 DUP5 PUSH2 0x30E8 JUMP JUMPDEST SWAP1 POP PUSH2 0xD31 PUSH1 0x1 PUSH1 0x6 SSTORE JUMP JUMPDEST CALLER PUSH0 SWAP1 DUP2 MSTORE PUSH1 0x8 PUSH1 0x20 MSTORE PUSH1 0x40 SWAP1 KECCAK256 SLOAD PUSH1 0xFF AND DUP1 PUSH2 0x1B5B JUMPI POP PUSH1 0x5 SLOAD PUSH1 0x1 PUSH1 0x1 PUSH1 0xA0 SHL SUB AND CALLER EQ JUMPDEST PUSH2 0x1B77 JUMPI PUSH1 0x40 MLOAD PUSH3 0x461BCD PUSH1 0xE5 SHL DUP2 MSTORE PUSH1 0x4 ADD PUSH2 0xAF4 SWAP1 PUSH2 0x42DC JUMP JUMPDEST PUSH2 0x1B7F PUSH2 0x2F74 JUMP JUMPDEST PUSH1 0x1 PUSH1 0x1 PUSH1 0xA0 SHL SUB DUP3 DUP2 AND PUSH0 SWAP1 DUP2 MSTORE PUSH1 0xB PUSH1 0x20 MSTORE PUSH1 0x40 SWAP1 KECCAK256 SLOAD AND PUSH2 0x1BB5 JUMPI PUSH1 0x40 MLOAD PUSH3 0x461BCD PUSH1 0xE5 SHL DUP2 MSTORE PUSH1 0x4 ADD PUSH2 0xAF4 SWAP1 PUSH2 0x4190 JUMP JUMPDEST PUSH0 DUP2 GT PUSH2 0x1BFE JUMPI PUSH1 0x40 MLOAD PUSH3 0x461BCD PUSH1 0xE5 SHL DUP2 MSTORE PUSH1 0x20 PUSH1 0x4 DUP3 ADD MSTORE PUSH1 0x17 PUSH1 0x24 DUP3 ADD MSTORE PUSH23 0x416D6F756E74206D75737420626520706F736974697665 PUSH1 0x48 SHL PUSH1 0x44 DUP3 ADD MSTORE PUSH1 0x64 ADD PUSH2 0xAF4 JUMP JUMPDEST PUSH1 0x1 PUSH1 0x1 PUSH1 0xA0 SHL SUB DUP3 AND PUSH0 SWAP1 DUP2 MSTORE PUSH1 0xB PUSH1 0x20 MSTORE PUSH1 0x40 SWAP1 KECCAK256 PUSH1 0x3 ADD SLOAD DUP2 GT ISZERO PUSH2 0x1C68 JUMPI PUSH1 0x40 MLOAD PUSH3 0x461BCD PUSH1 0xE5 SHL DUP2 MSTORE PUSH1 0x20 PUSH1 0x4 DUP3 ADD MSTORE PUSH1 0x19 PUSH1 0x24 DUP3 ADD MSTORE PUSH32 0x57697468647261772065786365656473206465706C6F79656400000000000000 PUSH1 0x44 DUP3 ADD MSTORE PUSH1 0x64 ADD PUSH2 0xAF4 JUMP JUMPDEST PUSH0 PUSH32 0x0 PUSH1 0x40 MLOAD PUSH4 0x70A08231 PUSH1 0xE0 SHL DUP2 MSTORE ADDRESS PUSH1 0x4 DUP3 ADD MSTORE PUSH1 0x1 PUSH1 0x1 PUSH1 0xA0 SHL SUB SWAP2 SWAP1 SWAP2 AND SWAP1 PUSH4 0x70A08231 SWAP1 PUSH1 0x24 ADD PUSH1 0x20 PUSH1 0x40 MLOAD DUP1 DUP4 SUB DUP2 DUP7 GAS STATICCALL ISZERO DUP1 ISZERO PUSH2 0x1CCE JUMPI RETURNDATASIZE PUSH0 DUP1 RETURNDATACOPY RETURNDATASIZE PUSH0 REVERT JUMPDEST POP POP POP POP PUSH1 0x40 MLOAD RETURNDATASIZE PUSH1 0x1F NOT PUSH1 0x1F DUP3 ADD AND DUP3 ADD DUP1 PUSH1 0x40 MSTORE POP DUP2 ADD SWAP1 PUSH2 0x1CF2 SWAP2 SWAP1 PUSH2 0x40F4 JUMP JUMPDEST PUSH1 0x40 MLOAD PUSH3 0x7B8A67 PUSH1 0xE1 SHL DUP2 MSTORE PUSH1 0x4 DUP2 ADD DUP5 SWAP1 MSTORE ADDRESS PUSH1 0x24 DUP3 ADD MSTORE SWAP1 SWAP2 POP PUSH0 SWAP1 PUSH1 0x1 PUSH1 0x1 PUSH1 0xA0 SHL SUB DUP6 AND SWAP1 PUSH3 0xF714CE SWAP1 PUSH1 0x44 ADD PUSH1 0x20 PUSH1 0x40 MLOAD DUP1 DUP4 SUB DUP2 PUSH0 DUP8 GAS CALL ISZERO DUP1 ISZERO PUSH2 0x1D3F JUMPI RETURNDATASIZE PUSH0 DUP1 RETURNDATACOPY RETURNDATASIZE PUSH0 REVERT JUMPDEST POP POP POP POP PUSH1 0x40 MLOAD RETURNDATASIZE PUSH1 0x1F NOT PUSH1 0x1F DUP3 ADD AND DUP3 ADD DUP1 PUSH1 0x40 MSTORE POP DUP2 ADD SWAP1 PUSH2 0x1D63 SWAP2 SWAP1 PUSH2 0x40F4 JUMP JUMPDEST SWAP1 POP PUSH0 PUSH32 0x0 PUSH1 0x40 MLOAD PUSH4 0x70A08231 PUSH1 0xE0 SHL DUP2 MSTORE ADDRESS PUSH1 0x4 DUP3 ADD MSTORE PUSH1 0x1 PUSH1 0x1 PUSH1 0xA0 SHL SUB SWAP2 SWAP1 SWAP2 AND SWAP1 PUSH4 0x70A08231 SWAP1 PUSH1 0x24 ADD PUSH1 0x20 PUSH1 0x40 MLOAD DUP1 DUP4 SUB DUP2 DUP7 GAS STATICCALL ISZERO DUP1 ISZERO PUSH2 0x1DCB JUMPI RETURNDATASIZE PUSH0 DUP1 RETURNDATACOPY RETURNDATASIZE PUSH0 REVERT JUMPDEST POP POP POP POP PUSH1 0x40 MLOAD RETURNDATASIZE PUSH1 0x1F NOT PUSH1 0x1F DUP3 ADD AND DUP3 ADD DUP1 PUSH1 0x40 MSTORE POP DUP2 ADD SWAP1 PUSH2 0x1DEF SWAP2 SWAP1 PUSH2 0x40F4 JUMP JUMPDEST SWAP1 POP DUP3 DUP2 LT ISZERO PUSH2 0x1E41 JUMPI PUSH1 0x40 MLOAD PUSH3 0x461BCD PUSH1 0xE5 SHL DUP2 MSTORE PUSH1 0x20 PUSH1 0x4 DUP3 ADD MSTORE PUSH1 0x17 PUSH1 0x24 DUP3 ADD MSTORE PUSH32 0x5661756C742062616C616E636520646563726561736564000000000000000000 PUSH1 0x44 DUP3 ADD MSTORE PUSH1 0x64 ADD PUSH2 0xAF4 JUMP JUMPDEST PUSH0 PUSH2 0x1E4C DUP5 DUP4 PUSH2 0x41C7 JUMP JUMPDEST SWAP1 POP PUSH0 DUP2 GT PUSH2 0x1E9D JUMPI PUSH1 0x40 MLOAD PUSH3 0x461BCD PUSH1 0xE5 SHL DUP2 MSTORE PUSH1 0x20 PUSH1 0x4 DUP3 ADD MSTORE PUSH1 0x1F PUSH1 0x24 DUP3 ADD MSTORE PUSH32 0x4E6F2066756E64732072656365697665642066726F6D20737472617465677900 PUSH1 0x44 DUP3 ADD MSTORE PUSH1 0x64 ADD PUSH2 0xAF4 JUMP JUMPDEST PUSH1 0x1 PUSH1 0x1 PUSH1 0xA0 SHL SUB DUP7 AND PUSH0 SWAP1 DUP2 MSTORE PUSH1 0xB PUSH1 0x20 MSTORE PUSH1 0x40 SWAP1 KECCAK256 PUSH1 0x3 ADD SLOAD DUP2 GT PUSH2 0x1EF3 JUMPI PUSH1 0x1 PUSH1 0x1 PUSH1 0xA0 SHL SUB DUP7 AND PUSH0 SWAP1 DUP2 MSTORE PUSH1 0xB PUSH1 0x20 MSTORE PUSH1 0x40 DUP2 KECCAK256 PUSH1 0x3 ADD DUP1 SLOAD DUP4 SWAP3 SWAP1 PUSH2 0x1EE8 SWAP1 DUP5 SWAP1 PUSH2 0x41C7 JUMP JUMPDEST SWAP1 SWAP2 SSTORE POP PUSH2 0x1F0F SWAP1 POP JUMP JUMPDEST PUSH1 0x1 PUSH1 0x1 PUSH1 0xA0 SHL SUB DUP7 AND PUSH0 SWAP1 DUP2 MSTORE PUSH1 0xB PUSH1 0x20 MSTORE PUSH1 0x40 DUP2 KECCAK256 PUSH1 0x3 ADD SSTORE JUMPDEST PUSH1 0x40 DUP1 MLOAD DUP7 DUP2 MSTORE PUSH1 0x20 DUP2 ADD DUP6 SWAP1 MSTORE PUSH1 0x1 PUSH1 0x1 PUSH1 0xA0 SHL SUB DUP9 AND SWAP2 PUSH32 0x490DFB4CE52333704763AEE75EDBA596CEAAB548BCCAFC900F79C2B9F6381B08 SWAP2 ADD JUMPDEST PUSH1 0x40 MLOAD DUP1 SWAP2 SUB SWAP1 LOG2 POP POP POP POP PUSH2 0x1F62 PUSH1 0x1 PUSH1 0x6 SSTORE JUMP JUMPDEST POP POP JUMP JUMPDEST PUSH0 PUSH2 0x1F6F PUSH2 0x2F74 JUMP JUMPDEST PUSH2 0x1F77 PUSH2 0x2F9E JUMP JUMPDEST PUSH2 0x1B28 DUP5 DUP5 DUP5 PUSH2 0x313E JUMP JUMPDEST PUSH2 0x1F8A PUSH2 0x2E2F JUMP JUMPDEST PUSH0 DUP2 GT PUSH2 0x1FD9 JUMPI PUSH1 0x40 MLOAD PUSH3 0x461BCD PUSH1 0xE5 SHL DUP2 MSTORE PUSH1 0x20 PUSH1 0x4 DUP3 ADD MSTORE PUSH1 0x1E PUSH1 0x24 DUP3 ADD MSTORE PUSH32 0x4465706F736974206C696D6974206D75737420626520706F7369746976650000 PUSH1 0x44 DUP3 ADD MSTORE PUSH1 0x64 ADD PUSH2 0xAF4 JUMP JUMPDEST PUSH1 0xA DUP2 SWAP1 SSTORE PUSH1 0x40 MLOAD DUP2 DUP2 MSTORE PUSH32 0xC512617347FD848EC9D7347C99C10E4FA7059132C92D0445930A7FB0C8252FF5 SWAP1 PUSH1 0x20 ADD PUSH2 0x18C6 JUMP JUMPDEST PUSH1 0x60 PUSH1 0xC DUP1 SLOAD DUP1 PUSH1 0x20 MUL PUSH1 0x20 ADD PUSH1 0x40 MLOAD SWAP1 DUP2 ADD PUSH1 0x40 MSTORE DUP1 SWAP3 SWAP2 SWAP1 DUP2 DUP2 MSTORE PUSH1 0x20 ADD DUP3 DUP1 SLOAD DUP1 ISZERO PUSH2 0xA78 JUMPI PUSH1 0x20 MUL DUP3 ADD SWAP2 SWAP1 PUSH0 MSTORE PUSH1 0x20 PUSH0 KECCAK256 SWAP1 JUMPDEST DUP2 SLOAD PUSH1 0x1 PUSH1 0x1 PUSH1 0xA0 SHL SUB AND DUP2 MSTORE PUSH1 0x1 SWAP1 SWAP2 ADD SWAP1 PUSH1 0x20 ADD DUP1 DUP4 GT PUSH2 0x2046 JUMPI POP POP POP POP POP SWAP1 POP SWAP1 JUMP JUMPDEST PUSH0 PUSH2 0x207A PUSH1 0x7 SLOAD PUSH1 0xFF AND SWAP1 JUMP JUMPDEST ISZERO PUSH2 0x2086 JUMPI POP PUSH0 SWAP2 SWAP1 POP JUMP JUMPDEST PUSH0 PUSH2 0x208F PUSH2 0x85B JUMP JUMPDEST SWAP1 POP PUSH1 0xA SLOAD DUP2 LT PUSH2 0x20A2 JUMPI POP PUSH0 SWAP3 SWAP2 POP POP JUMP JUMPDEST PUSH0 DUP2 PUSH1 0xA SLOAD PUSH2 0x20B1 SWAP2 SWAP1 PUSH2 0x41C7 JUMP JUMPDEST SWAP1 POP PUSH2 0x20BD DUP2 PUSH0 PUSH2 0x2E00 JUMP JUMPDEST SWAP5 SWAP4 POP POP POP POP JUMP JUMPDEST PUSH0 PUSH2 0xA8D DUP3 PUSH0 PUSH2 0x2E00 JUMP JUMPDEST PUSH2 0x20D8 PUSH2 0x2E2F JUMP JUMPDEST PUSH1 0x1 PUSH1 0x1 PUSH1 0xA0 SHL SUB DUP3 AND PUSH2 0x212E JUMPI PUSH1 0x40 MLOAD PUSH3 0x461BCD PUSH1 0xE5 SHL DUP2 MSTORE PUSH1 0x20 PUSH1 0x4 DUP3 ADD MSTORE PUSH1 0x18 PUSH1 0x24 DUP3 ADD MSTORE PUSH32 0x496E76616C696420737472617465677920616464726573730000000000000000 PUSH1 0x44 DUP3 ADD MSTORE PUSH1 0x64 ADD PUSH2 0xAF4 JUMP JUMPDEST PUSH1 0x1 PUSH1 0x1 PUSH1 0xA0 SHL SUB DUP3 DUP2 AND PUSH0 SWAP1 DUP2 MSTORE PUSH1 0xB PUSH1 0x20 MSTORE PUSH1 0x40 SWAP1 KECCAK256 SLOAD AND ISZERO PUSH2 0x2195 JUMPI PUSH1 0x40 MLOAD PUSH3 0x461BCD PUSH1 0xE5 SHL DUP2 MSTORE PUSH1 0x20 PUSH1 0x4 DUP3 ADD MSTORE PUSH1 0x17 PUSH1 0x24 DUP3 ADD MSTORE PUSH32 0x537472617465677920616C726561647920657869737473000000000000000000 PUSH1 0x44 DUP3 ADD MSTORE PUSH1 0x64 ADD PUSH2 0xAF4 JUMP JUMPDEST PUSH2 0x2710 DUP2 GT ISZERO PUSH2 0x21B7 JUMPI PUSH1 0x40 MLOAD PUSH3 0x461BCD PUSH1 0xE5 SHL DUP2 MSTORE PUSH1 0x4 ADD PUSH2 0xAF4 SWAP1 PUSH2 0x426E JUMP JUMPDEST PUSH0 PUSH1 0xE SLOAD DUP3 PUSH1 0xD SLOAD PUSH2 0x21C9 SWAP2 SWAP1 PUSH2 0x4133 JUMP JUMPDEST PUSH2 0x21D3 SWAP2 SWAP1 PUSH2 0x4133 JUMP JUMPDEST SWAP1 POP PUSH2 0x2710 DUP2 GT ISZERO PUSH2 0x21F7 JUMPI PUSH1 0x40 MLOAD PUSH3 0x461BCD PUSH1 0xE5 SHL DUP2 MSTORE PUSH1 0x4 ADD PUSH2 0xAF4 SWAP1 PUSH2 0x42A5 JUMP JUMPDEST DUP3 PUSH1 0x1 PUSH1 0x1 PUSH1 0xA0 SHL SUB AND PUSH4 0x38D52E0F PUSH1 0x40 MLOAD DUP2 PUSH4 0xFFFFFFFF AND PUSH1 0xE0 SHL DUP2 MSTORE PUSH1 0x4 ADD PUSH1 0x20 PUSH1 0x40 MLOAD DUP1 DUP4 SUB DUP2 DUP7 GAS STATICCALL SWAP3 POP POP POP DUP1 ISZERO PUSH2 0x2251 JUMPI POP PUSH1 0x40 DUP1 MLOAD PUSH1 0x1F RETURNDATASIZE SWAP1 DUP2 ADD PUSH1 0x1F NOT AND DUP3 ADD SWAP1 SWAP3 MSTORE PUSH2 0x224E SWAP2 DUP2 ADD SWAP1 PUSH2 0x4304 JUMP JUMPDEST PUSH1 0x1 JUMPDEST PUSH2 0x229D JUMPI PUSH1 0x40 MLOAD PUSH3 0x461BCD PUSH1 0xE5 SHL DUP2 MSTORE PUSH1 0x20 PUSH1 0x4 DUP3 ADD MSTORE PUSH1 0x19 PUSH1 0x24 DUP3 ADD MSTORE PUSH32 0x496E76616C696420737472617465677920636F6E747261637400000000000000 PUSH1 0x44 DUP3 ADD MSTORE PUSH1 0x64 ADD PUSH2 0xAF4 JUMP JUMPDEST PUSH32 0x0 PUSH1 0x1 PUSH1 0x1 PUSH1 0xA0 SHL SUB AND DUP2 PUSH1 0x1 PUSH1 0x1 PUSH1 0xA0 SHL SUB AND EQ PUSH2 0x231E JUMPI PUSH1 0x40 MLOAD PUSH3 0x461BCD PUSH1 0xE5 SHL DUP2 MSTORE PUSH1 0x20 PUSH1 0x4 DUP3 ADD MSTORE PUSH1 0x17 PUSH1 0x24 DUP3 ADD MSTORE PUSH32 0x5374726174656779206173736574206D69736D61746368000000000000000000 PUSH1 0x44 DUP3 ADD MSTORE PUSH1 0x64 ADD PUSH2 0xAF4 JUMP JUMPDEST POP PUSH1 0x40 DUP1 MLOAD PUSH1 0xA0 DUP2 ADD DUP3 MSTORE PUSH1 0x1 PUSH1 0x1 PUSH1 0xA0 SHL SUB DUP6 DUP2 AND DUP1 DUP4 MSTORE PUSH1 0x20 DUP1 DUP5 ADD DUP8 DUP2 MSTORE PUSH0 DUP6 DUP8 ADD DUP2 DUP2 MSTORE PUSH1 0x60 DUP8 ADD DUP3 SWAP1 MSTORE TIMESTAMP PUSH1 0x80 DUP9 ADD MSTORE SWAP4 DUP2 MSTORE PUSH1 0xB SWAP1 SWAP3 MSTORE SWAP5 SWAP1 KECCAK256 DUP4 MLOAD DUP2 SLOAD PUSH1 0x1 PUSH1 0x1 PUSH1 0xA0 SHL SUB NOT AND SWAP4 AND SWAP3 SWAP1 SWAP3 OR DUP3 SSTORE SWAP3 MLOAD PUSH1 0x1 DUP1 DUP4 ADD SWAP2 SWAP1 SWAP2 SSTORE SWAP3 MLOAD PUSH1 0x2 DUP3 ADD DUP1 SLOAD SWAP4 SWAP5 SWAP3 SWAP4 SWAP2 SWAP3 SWAP1 SWAP2 PUSH1 0xFF NOT AND SWAP1 DUP4 PUSH1 0x3 DUP2 GT ISZERO PUSH2 0x23A6 JUMPI PUSH2 0x23A6 PUSH2 0x3EE3 JUMP JUMPDEST MUL OR SWAP1 SSTORE POP PUSH1 0x60 DUP3 ADD MLOAD PUSH1 0x3 DUP3 ADD SSTORE PUSH1 0x80 SWAP1 SWAP2 ADD MLOAD PUSH1 0x4 SWAP1 SWAP2 ADD SSTORE PUSH1 0xC DUP1 SLOAD PUSH1 0x1 DUP2 ADD DUP3 SSTORE PUSH0 SWAP2 DUP3 MSTORE PUSH32 0xDF6966C971051C3D54EC59162606531493A51404A002842F56009D7E5CF4A8C7 ADD DUP1 SLOAD PUSH1 0x1 PUSH1 0x1 PUSH1 0xA0 SHL SUB NOT AND PUSH1 0x1 PUSH1 0x1 PUSH1 0xA0 SHL SUB DUP7 AND OR SWAP1 SSTORE PUSH1 0xD DUP1 SLOAD DUP5 SWAP3 SWAP1 PUSH2 0x241C SWAP1 DUP5 SWAP1 PUSH2 0x4133 JUMP JUMPDEST SWAP1 SWAP2 SSTORE POP POP PUSH1 0x40 MLOAD DUP3 DUP2 MSTORE PUSH1 0x1 PUSH1 0x1 PUSH1 0xA0 SHL SUB DUP5 AND SWAP1 PUSH32 0x2F564A83158AD1831793AD3E69257B52F39ECE5D49CB0D8746708ECB9EF964DA SWAP1 PUSH1 0x20 ADD PUSH1 0x40 MLOAD DUP1 SWAP2 SUB SWAP1 LOG2 POP POP POP JUMP JUMPDEST PUSH1 0x1 PUSH1 0x1 PUSH1 0xA0 SHL SUB DUP2 AND PUSH0 SWAP1 DUP2 MSTORE PUSH1 0x20 DUP2 SWAP1 MSTORE PUSH1 0x40 DUP2 KECCAK256 SLOAD PUSH2 0xA8D SWAP1 PUSH0 PUSH2 0x2DB6 JUMP JUMPDEST CALLER PUSH0 SWAP1 DUP2 MSTORE PUSH1 0x8 PUSH1 0x20 MSTORE PUSH1 0x40 SWAP1 KECCAK256 SLOAD PUSH1 0xFF AND DUP1 PUSH2 0x24AD JUMPI POP PUSH1 0x5 SLOAD PUSH1 0x1 PUSH1 0x1 PUSH1 0xA0 SHL SUB AND CALLER EQ JUMPDEST PUSH2 0x24C9 JUMPI PUSH1 0x40 MLOAD PUSH3 0x461BCD PUSH1 0xE5 SHL DUP2 MSTORE PUSH1 0x4 ADD PUSH2 0xAF4 SWAP1 PUSH2 0x42DC JUMP JUMPDEST PUSH1 0x1 PUSH1 0x1 PUSH1 0xA0 SHL SUB DUP2 DUP2 AND PUSH0 SWAP1 DUP2 MSTORE PUSH1 0xB PUSH1 0x20 MSTORE PUSH1 0x40 SWAP1 KECCAK256 SLOAD AND PUSH2 0x24FF JUMPI PUSH1 0x40 MLOAD PUSH3 0x461BCD PUSH1 0xE5 SHL DUP2 MSTORE PUSH1 0x4 ADD PUSH2 0xAF4 SWAP1 PUSH2 0x4190 JUMP JUMPDEST PUSH1 0x1 PUSH1 0x1 PUSH1 0x1 PUSH1 0xA0 SHL SUB DUP3 AND PUSH0 SWAP1 DUP2 MSTORE PUSH1 0xB PUSH1 0x20 MSTORE PUSH1 0x40 SWAP1 KECCAK256 PUSH1 0x2 ADD SLOAD PUSH1 0xFF AND PUSH1 0x3 DUP2 GT ISZERO PUSH2 0x2530 JUMPI PUSH2 0x2530 PUSH2 0x3EE3 JUMP JUMPDEST EQ PUSH2 0x254D JUMPI PUSH1 0x40 MLOAD PUSH3 0x461BCD PUSH1 0xE5 SHL DUP2 MSTORE PUSH1 0x4 ADD PUSH2 0xAF4 SWAP1 PUSH2 0x431F JUMP JUMPDEST PUSH1 0x1 PUSH1 0x1 PUSH1 0xA0 SHL SUB DUP2 AND PUSH0 DUP2 DUP2 MSTORE PUSH1 0xB PUSH1 0x20 MSTORE PUSH1 0x40 SWAP1 DUP2 SWAP1 KECCAK256 PUSH1 0x2 SWAP1 DUP2 ADD DUP1 SLOAD PUSH1 0xFF NOT AND DUP3 OR SWAP1 SSTORE SWAP1 MLOAD PUSH32 0x71E4D9FADF21BB369876CEBBD9192D4D84150C2FB6D208D5D68D6FBDF0AABF76 SWAP2 PUSH2 0xE41 SWAP2 PUSH2 0x41EE JUMP JUMPDEST PUSH2 0x25AA PUSH2 0x2E2F JUMP JUMPDEST PUSH1 0x1 PUSH1 0x1 PUSH1 0xA0 SHL SUB DUP2 DUP2 AND PUSH0 SWAP1 DUP2 MSTORE PUSH1 0xB PUSH1 0x20 MSTORE PUSH1 0x40 SWAP1 KECCAK256 SLOAD AND PUSH2 0x25E0 JUMPI PUSH1 0x40 MLOAD PUSH3 0x461BCD PUSH1 0xE5 SHL DUP2 MSTORE PUSH1 0x4 ADD PUSH2 0xAF4 SWAP1 PUSH2 0x4190 JUMP JUMPDEST PUSH1 0x1 PUSH1 0x1 PUSH1 0xA0 SHL SUB DUP2 AND PUSH0 SWAP1 DUP2 MSTORE PUSH1 0xB PUSH1 0x20 MSTORE PUSH1 0x40 DUP2 KECCAK256 PUSH1 0x2 ADD SLOAD PUSH1 0xFF AND PUSH1 0x3 DUP2 GT ISZERO PUSH2 0x260F JUMPI PUSH2 0x260F PUSH2 0x3EE3 JUMP JUMPDEST EQ PUSH2 0xDEA JUMPI PUSH1 0x40 MLOAD PUSH3 0x461BCD PUSH1 0xE5 SHL DUP2 MSTORE PUSH1 0x20 PUSH1 0x4 DUP3 ADD MSTORE PUSH1 0x15 PUSH1 0x24 DUP3 ADD MSTORE PUSH21 0x5374726174656779206E6F7420696E616374697665 PUSH1 0x58 SHL PUSH1 0x44 DUP3 ADD MSTORE PUSH1 0x64 ADD PUSH2 0xAF4 JUMP JUMPDEST PUSH1 0x1 PUSH1 0x1 PUSH1 0xA0 SHL SUB DUP2 AND PUSH0 SWAP1 DUP2 MSTORE PUSH1 0x20 DUP2 SWAP1 MSTORE PUSH1 0x40 DUP2 KECCAK256 SLOAD PUSH2 0xA8D JUMP JUMPDEST PUSH1 0x1 PUSH1 0x1 PUSH1 0xA0 SHL SUB DUP2 DUP2 AND PUSH0 SWAP1 DUP2 MSTORE PUSH1 0xB PUSH1 0x20 MSTORE PUSH1 0x40 SWAP1 KECCAK256 SLOAD AND PUSH2 0x26A7 JUMPI PUSH1 0x40 MLOAD PUSH3 0x461BCD PUSH1 0xE5 SHL DUP2 MSTORE PUSH1 0x4 ADD PUSH2 0xAF4 SWAP1 PUSH2 0x4190 JUMP JUMPDEST PUSH1 0x1 PUSH1 0x1 PUSH1 0x1 PUSH1 0xA0 SHL SUB DUP3 AND PUSH0 SWAP1 DUP2 MSTORE PUSH1 0xB PUSH1 0x20 MSTORE PUSH1 0x40 SWAP1 KECCAK256 PUSH1 0x2 ADD SLOAD PUSH1 0xFF AND PUSH1 0x3 DUP2 GT ISZERO PUSH2 0x26D8 JUMPI PUSH2 0x26D8 PUSH2 0x3EE3 JUMP JUMPDEST EQ PUSH2 0x26F5 JUMPI PUSH1 0x40 MLOAD PUSH3 0x461BCD PUSH1 0xE5 SHL DUP2 MSTORE PUSH1 0x4 ADD PUSH2 0xAF4 SWAP1 PUSH2 0x431F JUMP JUMPDEST PUSH0 DUP1 PUSH0 DUP4 PUSH1 0x1 PUSH1 0x1 PUSH1 0xA0 SHL SUB AND PUSH4 0x2606A10B PUSH1 0x40 MLOAD DUP2 PUSH4 0xFFFFFFFF AND PUSH1 0xE0 SHL DUP2 MSTORE PUSH1 0x4 ADD PUSH1 0x60 PUSH1 0x40 MLOAD DUP1 DUP4 SUB DUP2 PUSH0 DUP8 GAS CALL ISZERO DUP1 ISZERO PUSH2 0x2735 JUMPI RETURNDATASIZE PUSH0 DUP1 RETURNDATACOPY RETURNDATASIZE PUSH0 REVERT JUMPDEST POP POP POP POP PUSH1 0x40 MLOAD RETURNDATASIZE PUSH1 0x1F NOT PUSH1 0x1F DUP3 ADD AND DUP3 ADD DUP1 PUSH1 0x40 MSTORE POP DUP2 ADD SWAP1 PUSH2 0x2759 SWAP2 SWAP1 PUSH2 0x434C JUMP JUMPDEST PUSH1 0x1 PUSH1 0x1 PUSH1 0xA0 SHL SUB DUP8 AND PUSH0 DUP2 DUP2 MSTORE PUSH1 0xB PUSH1 0x20 SWAP1 DUP2 MSTORE PUSH1 0x40 SWAP2 DUP3 SWAP1 KECCAK256 TIMESTAMP PUSH1 0x4 SWAP1 SWAP2 ADD SSTORE DUP2 MLOAD DUP7 DUP2 MSTORE SWAP1 DUP2 ADD DUP6 SWAP1 MSTORE SWAP1 DUP2 ADD DUP4 SWAP1 MSTORE SWAP4 SWAP7 POP SWAP2 SWAP5 POP SWAP3 POP SWAP1 PUSH32 0x6FBDF847C78F04EAC7A7A77E1073AF6EEEC604EE0B495240579DCCF57FCF2D88 SWAP1 PUSH1 0x60 ADD PUSH2 0x180F JUMP JUMPDEST PUSH0 PUSH32 0x0 PUSH1 0x40 MLOAD PUSH4 0x70A08231 PUSH1 0xE0 SHL DUP2 MSTORE ADDRESS PUSH1 0x4 DUP3 ADD MSTORE PUSH1 0x1 PUSH1 0x1 PUSH1 0xA0 SHL SUB SWAP2 SWAP1 SWAP2 AND SWAP1 PUSH4 0x70A08231 SWAP1 PUSH1 0x24 ADD PUSH1 0x20 PUSH1 0x40 MLOAD DUP1 DUP4 SUB DUP2 DUP7 GAS STATICCALL ISZERO DUP1 ISZERO PUSH2 0x2825 JUMPI RETURNDATASIZE PUSH0 DUP1 RETURNDATACOPY RETURNDATASIZE PUSH0 REVERT JUMPDEST POP POP POP POP PUSH1 0x40 MLOAD RETURNDATASIZE PUSH1 0x1F NOT PUSH1 0x1F DUP3 ADD AND DUP3 ADD DUP1 PUSH1 0x40 MSTORE POP DUP2 ADD SWAP1 PUSH2 0xECD SWAP2 SWAP1 PUSH2 0x40F4 JUMP JUMPDEST PUSH2 0x2851 PUSH2 0x2E2F JUMP JUMPDEST PUSH1 0x1 PUSH1 0x1 PUSH1 0xA0 SHL SUB DUP2 AND PUSH2 0x287A JUMPI PUSH1 0x40 MLOAD PUSH4 0x1E4FBDF7 PUSH1 0xE0 SHL DUP2 MSTORE PUSH0 PUSH1 0x4 DUP3 ADD MSTORE PUSH1 0x24 ADD PUSH2 0xAF4 JUMP JUMPDEST PUSH2 0x2883 DUP2 PUSH2 0x300E JUMP JUMPDEST POP JUMP JUMPDEST CALLER PUSH0 SWAP1 DUP2 MSTORE PUSH1 0x8 PUSH1 0x20 MSTORE PUSH1 0x40 SWAP1 KECCAK256 SLOAD PUSH1 0xFF AND DUP1 PUSH2 0x28AD JUMPI POP PUSH1 0x5 SLOAD PUSH1 0x1 PUSH1 0x1 PUSH1 0xA0 SHL SUB AND CALLER EQ JUMPDEST PUSH2 0x28C9 JUMPI PUSH1 0x40 MLOAD PUSH3 0x461BCD PUSH1 0xE5 SHL DUP2 MSTORE PUSH1 0x4 ADD PUSH2 0xAF4 SWAP1 PUSH2 0x42DC JUMP JUMPDEST PUSH2 0x28D1 PUSH2 0x2F74 JUMP JUMPDEST PUSH1 0x1 PUSH1 0x1 PUSH1 0xA0 SHL SUB DUP3 DUP2 AND PUSH0 SWAP1 DUP2 MSTORE PUSH1 0xB PUSH1 0x20 MSTORE PUSH1 0x40 SWAP1 KECCAK256 SLOAD AND PUSH2 0x2907 JUMPI PUSH1 0x40 MLOAD PUSH3 0x461BCD PUSH1 0xE5 SHL DUP2 MSTORE PUSH1 0x4 ADD PUSH2 0xAF4 SWAP1 PUSH2 0x4190 JUMP JUMPDEST PUSH1 0x1 PUSH1 0x1 PUSH1 0x1 PUSH1 0xA0 SHL SUB DUP4 AND PUSH0 SWAP1 DUP2 MSTORE PUSH1 0xB PUSH1 0x20 MSTORE PUSH1 0x40 SWAP1 KECCAK256 PUSH1 0x2 ADD SLOAD PUSH1 0xFF AND PUSH1 0x3 DUP2 GT ISZERO PUSH2 0x2938 JUMPI PUSH2 0x2938 PUSH2 0x3EE3 JUMP JUMPDEST EQ PUSH2 0x2955 JUMPI PUSH1 0x40 MLOAD PUSH3 0x461BCD PUSH1 0xE5 SHL DUP2 MSTORE PUSH1 0x4 ADD PUSH2 0xAF4 SWAP1 PUSH2 0x431F JUMP JUMPDEST PUSH0 DUP2 GT PUSH2 0x299E JUMPI PUSH1 0x40 MLOAD PUSH3 0x461BCD PUSH1 0xE5 SHL DUP2 MSTORE PUSH1 0x20 PUSH1 0x4 DUP3 ADD MSTORE PUSH1 0x17 PUSH1 0x24 DUP3 ADD MSTORE PUSH23 0x416D6F756E74206D75737420626520706F736974697665 PUSH1 0x48 SHL PUSH1 0x44 DUP3 ADD MSTORE PUSH1 0x64 ADD PUSH2 0xAF4 JUMP JUMPDEST PUSH0 PUSH32 0x0 PUSH1 0x40 MLOAD PUSH4 0x70A08231 PUSH1 0xE0 SHL DUP2 MSTORE ADDRESS PUSH1 0x4 DUP3 ADD MSTORE SWAP1 SWAP2 POP PUSH0 SWAP1 PUSH1 0x1 PUSH1 0x1 PUSH1 0xA0 SHL SUB DUP4 AND SWAP1 PUSH4 0x70A08231 SWAP1 PUSH1 0x24 ADD PUSH1 0x20 PUSH1 0x40 MLOAD DUP1 DUP4 SUB DUP2 DUP7 GAS STATICCALL ISZERO DUP1 ISZERO PUSH2 0x2A07 JUMPI RETURNDATASIZE PUSH0 DUP1 RETURNDATACOPY RETURNDATASIZE PUSH0 REVERT JUMPDEST POP POP POP POP PUSH1 0x40 MLOAD RETURNDATASIZE PUSH1 0x1F NOT PUSH1 0x1F DUP3 ADD AND DUP3 ADD DUP1 PUSH1 0x40 MSTORE POP DUP2 ADD SWAP1 PUSH2 0x2A2B SWAP2 SWAP1 PUSH2 0x40F4 JUMP JUMPDEST SWAP1 POP DUP3 DUP2 LT ISZERO PUSH2 0x2A7D JUMPI PUSH1 0x40 MLOAD PUSH3 0x461BCD PUSH1 0xE5 SHL DUP2 MSTORE PUSH1 0x20 PUSH1 0x4 DUP3 ADD MSTORE PUSH1 0x1A PUSH1 0x24 DUP3 ADD MSTORE PUSH32 0x496E73756666696369656E74207661756C742062616C616E6365000000000000 PUSH1 0x44 DUP3 ADD MSTORE PUSH1 0x64 ADD PUSH2 0xAF4 JUMP JUMPDEST PUSH1 0x40 MLOAD PUSH4 0x95EA7B3 PUSH1 0xE0 SHL DUP2 MSTORE PUSH1 0x1 PUSH1 0x1 PUSH1 0xA0 SHL SUB DUP6 DUP2 AND PUSH1 0x4 DUP4 ADD MSTORE PUSH1 0x24 DUP3 ADD DUP6 SWAP1 MSTORE DUP4 AND SWAP1 PUSH4 0x95EA7B3 SWAP1 PUSH1 0x44 ADD PUSH1 0x20 PUSH1 0x40 MLOAD DUP1 DUP4 SUB DUP2 PUSH0 DUP8 GAS CALL ISZERO DUP1 ISZERO PUSH2 0x2AC9 JUMPI RETURNDATASIZE PUSH0 DUP1 RETURNDATACOPY RETURNDATASIZE PUSH0 REVERT JUMPDEST POP POP POP POP PUSH1 0x40 MLOAD RETURNDATASIZE PUSH1 0x1F NOT PUSH1 0x1F DUP3 ADD AND DUP3 ADD DUP1 PUSH1 0x40 MSTORE POP DUP2 ADD SWAP1 PUSH2 0x2AED SWAP2 SWAP1 PUSH2 0x4377 JUMP JUMPDEST POP PUSH1 0x40 MLOAD PUSH4 0xA5E38751 PUSH1 0xE0 SHL DUP2 MSTORE PUSH1 0x4 DUP2 ADD DUP5 SWAP1 MSTORE PUSH1 0x1 PUSH1 0x1 PUSH1 0xA0 SHL SUB DUP6 AND SWAP1 PUSH4 0xA5E38751 SWAP1 PUSH1 0x24 ADD PUSH0 PUSH1 0x40 MLOAD DUP1 DUP4 SUB DUP2 PUSH0 DUP8 DUP1 EXTCODESIZE ISZERO DUP1 ISZERO PUSH2 0x2B2D JUMPI PUSH0 DUP1 REVERT JUMPDEST POP GAS CALL ISZERO DUP1 ISZERO PUSH2 0x2B3F JUMPI RETURNDATASIZE PUSH0 DUP1 RETURNDATACOPY RETURNDATASIZE PUSH0 REVERT JUMPDEST POP POP PUSH1 0x40 MLOAD PUSH4 0x70A08231 PUSH1 0xE0 SHL DUP2 MSTORE ADDRESS PUSH1 0x4 DUP3 ADD MSTORE PUSH0 SWAP3 POP PUSH1 0x1 PUSH1 0x1 PUSH1 0xA0 SHL SUB DUP6 AND SWAP2 POP PUSH4 0x70A08231 SWAP1 PUSH1 0x24 ADD PUSH1 0x20 PUSH1 0x40 MLOAD DUP1 DUP4 SUB DUP2 DUP7 GAS STATICCALL ISZERO DUP1 ISZERO PUSH2 0x2B87 JUMPI RETURNDATASIZE PUSH0 DUP1 RETURNDATACOPY RETURNDATASIZE PUSH0 REVERT JUMPDEST POP POP POP POP PUSH1 0x40 MLOAD RETURNDATASIZE PUSH1 0x1F NOT PUSH1 0x1F DUP3 ADD AND DUP3 ADD DUP1 PUSH1 0x40 MSTORE POP DUP2 ADD SWAP1 PUSH2 0x2BAB SWAP2 SWAP1 PUSH2 0x40F4 JUMP JUMPDEST SWAP1 POP PUSH0 PUSH2 0x2BB8 DUP3 DUP5 PUSH2 0x41C7 JUMP JUMPDEST SWAP1 POP PUSH0 DUP2 GT PUSH2 0x2C09 JUMPI PUSH1 0x40 MLOAD PUSH3 0x461BCD PUSH1 0xE5 SHL DUP2 MSTORE PUSH1 0x20 PUSH1 0x4 DUP3 ADD MSTORE PUSH1 0x1B PUSH1 0x24 DUP3 ADD MSTORE PUSH32 0x537472617465677920646964206E6F742070756C6C2066756E64730000000000 PUSH1 0x44 DUP3 ADD MSTORE PUSH1 0x64 ADD PUSH2 0xAF4 JUMP JUMPDEST DUP5 DUP2 GT ISZERO PUSH2 0x2C64 JUMPI PUSH1 0x40 MLOAD PUSH3 0x461BCD PUSH1 0xE5 SHL DUP2 MSTORE PUSH1 0x20 PUSH1 0x4 DUP3 ADD MSTORE PUSH1 0x22 PUSH1 0x24 DUP3 ADD MSTORE PUSH32 0x53747261746567792070756C6C6564206D6F7265207468616E20617070726F76 PUSH1 0x44 DUP3 ADD MSTORE PUSH2 0x1959 PUSH1 0xF2 SHL PUSH1 0x64 DUP3 ADD MSTORE PUSH1 0x84 ADD PUSH2 0xAF4 JUMP JUMPDEST PUSH1 0x1 PUSH1 0x1 PUSH1 0xA0 SHL SUB DUP7 AND PUSH0 SWAP1 DUP2 MSTORE PUSH1 0xB PUSH1 0x20 MSTORE PUSH1 0x40 DUP2 KECCAK256 PUSH1 0x3 ADD DUP1 SLOAD DUP4 SWAP3 SWAP1 PUSH2 0x2C8E SWAP1 DUP5 SWAP1 PUSH2 0x4133 JUMP JUMPDEST SWAP1 SWAP2 SSTORE POP POP PUSH1 0x40 MLOAD PUSH4 0x6EB1769F PUSH1 0xE1 SHL DUP2 MSTORE ADDRESS PUSH1 0x4 DUP3 ADD MSTORE PUSH1 0x1 PUSH1 0x1 PUSH1 0xA0 SHL SUB DUP8 DUP2 AND PUSH1 0x24 DUP4 ADD MSTORE PUSH0 SWAP2 SWAP1 DUP7 AND SWAP1 PUSH4 0xDD62ED3E SWAP1 PUSH1 0x44 ADD PUSH1 0x20 PUSH1 0x40 MLOAD DUP1 DUP4 SUB DUP2 DUP7 GAS STATICCALL ISZERO DUP1 ISZERO PUSH2 0x2CE0 JUMPI RETURNDATASIZE PUSH0 DUP1 RETURNDATACOPY RETURNDATASIZE PUSH0 REVERT JUMPDEST POP POP POP POP PUSH1 0x40 MLOAD RETURNDATASIZE PUSH1 0x1F NOT PUSH1 0x1F DUP3 ADD AND DUP3 ADD DUP1 PUSH1 0x40 MSTORE POP DUP2 ADD SWAP1 PUSH2 0x2D04 SWAP2 SWAP1 PUSH2 0x40F4 JUMP JUMPDEST GT ISZERO PUSH2 0x2D7B JUMPI PUSH1 0x40 MLOAD PUSH4 0x95EA7B3 PUSH1 0xE0 SHL DUP2 MSTORE PUSH1 0x1 PUSH1 0x1 PUSH1 0xA0 SHL SUB DUP8 DUP2 AND PUSH1 0x4 DUP4 ADD MSTORE PUSH0 PUSH1 0x24 DUP4 ADD MSTORE DUP6 AND SWAP1 PUSH4 0x95EA7B3 SWAP1 PUSH1 0x44 ADD PUSH1 0x20 PUSH1 0x40 MLOAD DUP1 DUP4 SUB DUP2 PUSH0 DUP8 GAS CALL ISZERO DUP1 ISZERO PUSH2 0x2D55 JUMPI RETURNDATASIZE PUSH0 DUP1 RETURNDATACOPY RETURNDATASIZE PUSH0 REVERT JUMPDEST POP POP POP POP PUSH1 0x40 MLOAD RETURNDATASIZE PUSH1 0x1F NOT PUSH1 0x1F DUP3 ADD AND DUP3 ADD DUP1 PUSH1 0x40 MSTORE POP DUP2 ADD SWAP1 PUSH2 0x2D79 SWAP2 SWAP1 PUSH2 0x4377 JUMP JUMPDEST POP JUMPDEST DUP6 PUSH1 0x1 PUSH1 0x1 PUSH1 0xA0 SHL SUB AND PUSH32 0x118140C5F65D2D1239952F9FED523588C6B439A75344EE43CF01F74FBEE5E41F DUP3 PUSH1 0x40 MLOAD PUSH2 0x1F4C SWAP2 DUP2 MSTORE PUSH1 0x20 ADD SWAP1 JUMP JUMPDEST PUSH0 PUSH2 0xD31 PUSH2 0x2DC2 PUSH2 0x85B JUMP JUMPDEST PUSH2 0x2DCD SWAP1 PUSH1 0x1 PUSH2 0x4133 JUMP JUMPDEST PUSH2 0x2DD8 PUSH0 PUSH1 0xA PUSH2 0x4476 JUMP JUMPDEST PUSH1 0x2 SLOAD PUSH2 0x2DE5 SWAP2 SWAP1 PUSH2 0x4133 JUMP JUMPDEST DUP6 SWAP2 SWAP1 DUP6 PUSH2 0x318B JUMP JUMPDEST PUSH2 0x2DFB DUP4 DUP4 DUP4 PUSH1 0x1 PUSH2 0x31CD JUMP JUMPDEST POP POP POP JUMP JUMPDEST PUSH0 PUSH2 0xD31 PUSH2 0x2E0F DUP3 PUSH1 0xA PUSH2 0x4476 JUMP JUMPDEST PUSH1 0x2 SLOAD PUSH2 0x2E1C SWAP2 SWAP1 PUSH2 0x4133 JUMP JUMPDEST PUSH2 0x2E24 PUSH2 0x85B JUMP JUMPDEST PUSH2 0x2DE5 SWAP1 PUSH1 0x1 PUSH2 0x4133 JUMP JUMPDEST PUSH1 0x5 SLOAD PUSH1 0x1 PUSH1 0x1 PUSH1 0xA0 SHL SUB AND CALLER EQ PUSH2 0xF4B JUMPI PUSH1 0x40 MLOAD PUSH4 0x118CDAA7 PUSH1 0xE0 SHL DUP2 MSTORE CALLER PUSH1 0x4 DUP3 ADD MSTORE PUSH1 0x24 ADD PUSH2 0xAF4 JUMP JUMPDEST PUSH1 0x1 PUSH1 0x1 PUSH1 0xA0 SHL SUB DUP4 DUP2 AND PUSH0 SWAP1 DUP2 MSTORE PUSH1 0x1 PUSH1 0x20 SWAP1 DUP2 MSTORE PUSH1 0x40 DUP1 DUP4 KECCAK256 SWAP4 DUP7 AND DUP4 MSTORE SWAP3 SWAP1 MSTORE KECCAK256 SLOAD PUSH0 NOT DUP2 LT ISZERO PUSH2 0x2EBF JUMPI DUP2 DUP2 LT ISZERO PUSH2 0x2EB1 JUMPI DUP3 DUP2 DUP4 PUSH1 0x40 MLOAD PUSH4 0x7DC7A0D9 PUSH1 0xE1 SHL DUP2 MSTORE PUSH1 0x4 ADD PUSH2 0xAF4 SWAP4 SWAP3 SWAP2 SWAP1 PUSH2 0x4484 JUMP JUMPDEST PUSH2 0x2EBF DUP5 DUP5 DUP5 DUP5 SUB PUSH0 PUSH2 0x31CD JUMP JUMPDEST POP POP POP POP JUMP JUMPDEST PUSH1 0x1 PUSH1 0x1 PUSH1 0xA0 SHL SUB DUP4 AND PUSH2 0x2EEE JUMPI PUSH1 0x40 MLOAD PUSH4 0x4B637E8F PUSH1 0xE1 SHL DUP2 MSTORE PUSH0 PUSH1 0x4 DUP3 ADD MSTORE PUSH1 0x24 ADD PUSH2 0xAF4 JUMP JUMPDEST PUSH1 0x1 PUSH1 0x1 PUSH1 0xA0 SHL SUB DUP3 AND PUSH2 0x2F17 JUMPI PUSH1 0x40 MLOAD PUSH4 0xEC442F05 PUSH1 0xE0 SHL DUP2 MSTORE PUSH0 PUSH1 0x4 DUP3 ADD MSTORE PUSH1 0x24 ADD PUSH2 0xAF4 JUMP JUMPDEST PUSH2 0x2DFB DUP4 DUP4 DUP4 PUSH2 0x329F JUMP JUMPDEST PUSH2 0x2F2A PUSH2 0x33B2 JUMP JUMPDEST PUSH1 0x7 DUP1 SLOAD PUSH1 0xFF NOT AND SWAP1 SSTORE PUSH32 0x5DB9EE0A495BF2E6FF9C91A7834C1BA4FDD244A5E8AA4E537BD38AEAE4B073AA CALLER JUMPDEST PUSH1 0x40 MLOAD PUSH1 0x1 PUSH1 0x1 PUSH1 0xA0 SHL SUB SWAP1 SWAP2 AND DUP2 MSTORE PUSH1 0x20 ADD PUSH1 0x40 MLOAD DUP1 SWAP2 SUB SWAP1 LOG1 JUMP JUMPDEST PUSH1 0x2 PUSH1 0x6 SLOAD SUB PUSH2 0x2F97 JUMPI PUSH1 0x40 MLOAD PUSH4 0x3EE5AEB5 PUSH1 0xE0 SHL DUP2 MSTORE PUSH1 0x4 ADD PUSH1 0x40 MLOAD DUP1 SWAP2 SUB SWAP1 REVERT JUMPDEST PUSH1 0x2 PUSH1 0x6 SSTORE JUMP JUMPDEST PUSH1 0x7 SLOAD PUSH1 0xFF AND ISZERO PUSH2 0xF4B JUMPI PUSH1 0x40 MLOAD PUSH4 0xD93C0665 PUSH1 0xE0 SHL DUP2 MSTORE PUSH1 0x4 ADD PUSH1 0x40 MLOAD DUP1 SWAP2 SUB SWAP1 REVERT JUMPDEST PUSH0 DUP1 PUSH2 0x2FCD DUP4 PUSH2 0xF4D JUMP JUMPDEST SWAP1 POP DUP1 DUP5 GT ISZERO PUSH2 0x2FF6 JUMPI DUP3 DUP5 DUP3 PUSH1 0x40 MLOAD PUSH4 0x3C8097D9 PUSH1 0xE1 SHL DUP2 MSTORE PUSH1 0x4 ADD PUSH2 0xAF4 SWAP4 SWAP3 SWAP2 SWAP1 PUSH2 0x4484 JUMP JUMPDEST PUSH0 PUSH2 0x3000 DUP6 PUSH2 0x20C5 JUMP JUMPDEST SWAP1 POP PUSH2 0x20BD CALLER DUP6 DUP8 DUP5 PUSH2 0x33D5 JUMP JUMPDEST PUSH1 0x5 DUP1 SLOAD PUSH1 0x1 PUSH1 0x1 PUSH1 0xA0 SHL SUB DUP4 DUP2 AND PUSH1 0x1 PUSH1 0x1 PUSH1 0xA0 SHL SUB NOT DUP4 AND DUP2 OR SWAP1 SWAP4 SSTORE PUSH1 0x40 MLOAD SWAP2 AND SWAP2 SWAP1 DUP3 SWAP1 PUSH32 0x8BE0079C531659141344CD1FD0A4F28419497F9722A3DAAFE3B4186F6B6457E0 SWAP1 PUSH0 SWAP1 LOG3 POP POP JUMP JUMPDEST PUSH2 0x3067 PUSH2 0x2F9E JUMP JUMPDEST PUSH1 0x7 DUP1 SLOAD PUSH1 0xFF NOT AND PUSH1 0x1 OR SWAP1 SSTORE PUSH32 0x62E78CEA01BEE320CD4E420270B5EA74000D11B0C9F74754EBDBFC544B05A258 PUSH2 0x2F57 CALLER SWAP1 JUMP JUMPDEST PUSH0 DUP1 PUSH2 0x30A7 DUP4 PUSH2 0x206D JUMP JUMPDEST SWAP1 POP DUP1 DUP5 GT ISZERO PUSH2 0x30D0 JUMPI DUP3 DUP5 DUP3 PUSH1 0x40 MLOAD PUSH4 0x284FF667 PUSH1 0xE0 SHL DUP2 MSTORE PUSH1 0x4 ADD PUSH2 0xAF4 SWAP4 SWAP3 SWAP2 SWAP1 PUSH2 0x4484 JUMP JUMPDEST PUSH0 PUSH2 0x30DA DUP6 PUSH2 0x1B00 JUMP JUMPDEST SWAP1 POP PUSH2 0x20BD CALLER DUP6 DUP4 DUP9 PUSH2 0x33D5 JUMP JUMPDEST PUSH0 DUP1 PUSH2 0x30F3 DUP4 PUSH2 0x2464 JUMP JUMPDEST SWAP1 POP DUP1 DUP6 GT ISZERO PUSH2 0x311C JUMPI DUP3 DUP6 DUP3 PUSH1 0x40 MLOAD PUSH4 0x3FA733BB PUSH1 0xE2 SHL DUP2 MSTORE PUSH1 0x4 ADD PUSH2 0xAF4 SWAP4 SWAP3 SWAP2 SWAP1 PUSH2 0x4484 JUMP JUMPDEST PUSH0 PUSH2 0x3126 DUP7 PUSH2 0xAAA JUMP JUMPDEST SWAP1 POP PUSH2 0x3135 CALLER DUP7 DUP7 DUP10 DUP6 PUSH2 0x343E JUMP JUMPDEST SWAP6 SWAP5 POP POP POP POP POP JUMP JUMPDEST PUSH0 DUP1 PUSH2 0x3149 DUP4 PUSH2 0x2654 JUMP JUMPDEST SWAP1 POP DUP1 DUP6 GT ISZERO PUSH2 0x3172 JUMPI DUP3 DUP6 DUP3 PUSH1 0x40 MLOAD PUSH4 0x2E52AFBB PUSH1 0xE2 SHL DUP2 MSTORE PUSH1 0x4 ADD PUSH2 0xAF4 SWAP4 SWAP3 SWAP2 SWAP1 PUSH2 0x4484 JUMP JUMPDEST PUSH0 PUSH2 0x317C DUP7 PUSH2 0xA82 JUMP JUMPDEST SWAP1 POP PUSH2 0x3135 CALLER DUP7 DUP7 DUP5 DUP11 PUSH2 0x343E JUMP JUMPDEST PUSH0 PUSH2 0x31B8 PUSH2 0x3198 DUP4 PUSH2 0x35E4 JUMP JUMPDEST DUP1 ISZERO PUSH2 0x31B3 JUMPI POP PUSH0 DUP5 DUP1 PUSH2 0x31AE JUMPI PUSH2 0x31AE PUSH2 0x4247 JUMP JUMPDEST DUP7 DUP9 MULMOD GT JUMPDEST ISZERO ISZERO SWAP1 JUMP JUMPDEST PUSH2 0x31C3 DUP7 DUP7 DUP7 PUSH2 0x3610 JUMP JUMPDEST PUSH2 0x3135 SWAP2 SWAP1 PUSH2 0x4133 JUMP JUMPDEST PUSH1 0x1 PUSH1 0x1 PUSH1 0xA0 SHL SUB DUP5 AND PUSH2 0x31F6 JUMPI PUSH1 0x40 MLOAD PUSH4 0xE602DF05 PUSH1 0xE0 SHL DUP2 MSTORE PUSH0 PUSH1 0x4 DUP3 ADD MSTORE PUSH1 0x24 ADD PUSH2 0xAF4 JUMP JUMPDEST PUSH1 0x1 PUSH1 0x1 PUSH1 0xA0 SHL SUB DUP4 AND PUSH2 0x321F JUMPI PUSH1 0x40 MLOAD PUSH4 0x4A1406B1 PUSH1 0xE1 SHL DUP2 MSTORE PUSH0 PUSH1 0x4 DUP3 ADD MSTORE PUSH1 0x24 ADD PUSH2 0xAF4 JUMP JUMPDEST PUSH1 0x1 PUSH1 0x1 PUSH1 0xA0 SHL SUB DUP1 DUP6 AND PUSH0 SWAP1 DUP2 MSTORE PUSH1 0x1 PUSH1 0x20 SWAP1 DUP2 MSTORE PUSH1 0x40 DUP1 DUP4 KECCAK256 SWAP4 DUP8 AND DUP4 MSTORE SWAP3 SWAP1 MSTORE KECCAK256 DUP3 SWAP1 SSTORE DUP1 ISZERO PUSH2 0x2EBF JUMPI DUP3 PUSH1 0x1 PUSH1 0x1 PUSH1 0xA0 SHL SUB AND DUP5 PUSH1 0x1 PUSH1 0x1 PUSH1 0xA0 SHL SUB AND PUSH32 0x8C5BE1E5EBEC7D5BD14F71427D1E84F3DD0314C0F7B2291E5B200AC8C7C3B925 DUP5 PUSH1 0x40 MLOAD PUSH2 0x3291 SWAP2 DUP2 MSTORE PUSH1 0x20 ADD SWAP1 JUMP JUMPDEST PUSH1 0x40 MLOAD DUP1 SWAP2 SUB SWAP1 LOG3 POP POP POP POP JUMP JUMPDEST PUSH1 0x1 PUSH1 0x1 PUSH1 0xA0 SHL SUB DUP4 AND PUSH2 0x32C9 JUMPI DUP1 PUSH1 0x2 PUSH0 DUP3 DUP3 SLOAD PUSH2 0x32BE SWAP2 SWAP1 PUSH2 0x4133 JUMP JUMPDEST SWAP1 SWAP2 SSTORE POP PUSH2 0x3326 SWAP1 POP JUMP JUMPDEST PUSH1 0x1 PUSH1 0x1 PUSH1 0xA0 SHL SUB DUP4 AND PUSH0 SWAP1 DUP2 MSTORE PUSH1 0x20 DUP2 SWAP1 MSTORE PUSH1 0x40 SWAP1 KECCAK256 SLOAD DUP2 DUP2 LT ISZERO PUSH2 0x3308 JUMPI DUP4 DUP2 DUP4 PUSH1 0x40 MLOAD PUSH4 0x391434E3 PUSH1 0xE2 SHL DUP2 MSTORE PUSH1 0x4 ADD PUSH2 0xAF4 SWAP4 SWAP3 SWAP2 SWAP1 PUSH2 0x4484 JUMP JUMPDEST PUSH1 0x1 PUSH1 0x1 PUSH1 0xA0 SHL SUB DUP5 AND PUSH0 SWAP1 DUP2 MSTORE PUSH1 0x20 DUP2 SWAP1 MSTORE PUSH1 0x40 SWAP1 KECCAK256 SWAP1 DUP3 SWAP1 SUB SWAP1 SSTORE JUMPDEST PUSH1 0x1 PUSH1 0x1 PUSH1 0xA0 SHL SUB DUP3 AND PUSH2 0x3342 JUMPI PUSH1 0x2 DUP1 SLOAD DUP3 SWAP1 SUB SWAP1 SSTORE PUSH2 0x3360 JUMP JUMPDEST PUSH1 0x1 PUSH1 0x1 PUSH1 0xA0 SHL SUB DUP3 AND PUSH0 SWAP1 DUP2 MSTORE PUSH1 0x20 DUP2 SWAP1 MSTORE PUSH1 0x40 SWAP1 KECCAK256 DUP1 SLOAD DUP3 ADD SWAP1 SSTORE JUMPDEST DUP2 PUSH1 0x1 PUSH1 0x1 PUSH1 0xA0 SHL SUB AND DUP4 PUSH1 0x1 PUSH1 0x1 PUSH1 0xA0 SHL SUB AND PUSH32 0xDDF252AD1BE2C89B69C2B068FC378DAA952BA7F163C4A11628F55A4DF523B3EF DUP4 PUSH1 0x40 MLOAD PUSH2 0x33A5 SWAP2 DUP2 MSTORE PUSH1 0x20 ADD SWAP1 JUMP JUMPDEST PUSH1 0x40 MLOAD DUP1 SWAP2 SUB SWAP1 LOG3 POP POP POP JUMP JUMPDEST PUSH1 0x7 SLOAD PUSH1 0xFF AND PUSH2 0xF4B JUMPI PUSH1 0x40 MLOAD PUSH4 0x8DFC202B PUSH1 0xE0 SHL DUP2 MSTORE PUSH1 0x4 ADD PUSH1 0x40 MLOAD DUP1 SWAP2 SUB SWAP1 REVERT JUMPDEST PUSH1 0xA SLOAD DUP3 PUSH2 0x33E1 PUSH2 0x85B JUMP JUMPDEST PUSH2 0x33EB SWAP2 SWAP1 PUSH2 0x4133 JUMP JUMPDEST GT ISZERO PUSH2 0x3432 JUMPI PUSH1 0x40 MLOAD PUSH3 0x461BCD PUSH1 0xE5 SHL DUP2 MSTORE PUSH1 0x20 PUSH1 0x4 DUP3 ADD MSTORE PUSH1 0x16 PUSH1 0x24 DUP3 ADD MSTORE PUSH22 0x11195C1BDCDA5D081B1A5B5A5D08195E18D959591959 PUSH1 0x52 SHL PUSH1 0x44 DUP3 ADD MSTORE PUSH1 0x64 ADD PUSH2 0xAF4 JUMP JUMPDEST PUSH2 0x2EBF DUP5 DUP5 DUP5 DUP5 PUSH2 0x36C0 JUMP JUMPDEST PUSH0 PUSH32 0x0 PUSH1 0x40 MLOAD PUSH4 0x70A08231 PUSH1 0xE0 SHL DUP2 MSTORE ADDRESS PUSH1 0x4 DUP3 ADD MSTORE SWAP1 SWAP2 POP PUSH0 SWAP1 PUSH1 0x1 PUSH1 0x1 PUSH1 0xA0 SHL SUB DUP4 AND SWAP1 PUSH4 0x70A08231 SWAP1 PUSH1 0x24 ADD PUSH1 0x20 PUSH1 0x40 MLOAD DUP1 DUP4 SUB DUP2 DUP7 GAS STATICCALL ISZERO DUP1 ISZERO PUSH2 0x34A7 JUMPI RETURNDATASIZE PUSH0 DUP1 RETURNDATACOPY RETURNDATASIZE PUSH0 REVERT JUMPDEST POP POP POP POP PUSH1 0x40 MLOAD RETURNDATASIZE PUSH1 0x1F NOT PUSH1 0x1F DUP3 ADD AND DUP3 ADD DUP1 PUSH1 0x40 MSTORE POP DUP2 ADD SWAP1 PUSH2 0x34CB SWAP2 SWAP1 PUSH2 0x40F4 JUMP JUMPDEST SWAP1 POP DUP4 DUP2 LT PUSH2 0x34E8 JUMPI PUSH2 0x34E1 DUP8 DUP8 DUP8 DUP8 DUP8 PUSH2 0x3744 JUMP JUMPDEST POP POP PUSH2 0x35DD JUMP JUMPDEST PUSH0 PUSH2 0x34F3 DUP3 DUP7 PUSH2 0x41C7 JUMP JUMPDEST SWAP1 POP PUSH2 0x34FE DUP2 PUSH2 0x3804 JUMP JUMPDEST POP PUSH1 0x40 MLOAD PUSH4 0x70A08231 PUSH1 0xE0 SHL DUP2 MSTORE ADDRESS PUSH1 0x4 DUP3 ADD MSTORE DUP6 SWAP1 PUSH1 0x1 PUSH1 0x1 PUSH1 0xA0 SHL SUB DUP6 AND SWAP1 PUSH4 0x70A08231 SWAP1 PUSH1 0x24 ADD PUSH1 0x20 PUSH1 0x40 MLOAD DUP1 DUP4 SUB DUP2 DUP7 GAS STATICCALL ISZERO DUP1 ISZERO PUSH2 0x3543 JUMPI RETURNDATASIZE PUSH0 DUP1 RETURNDATACOPY RETURNDATASIZE PUSH0 REVERT JUMPDEST POP POP POP POP PUSH1 0x40 MLOAD RETURNDATASIZE PUSH1 0x1F NOT PUSH1 0x1F DUP3 ADD AND DUP3 ADD DUP1 PUSH1 0x40 MSTORE POP DUP2 ADD SWAP1 PUSH2 0x3567 SWAP2 SWAP1 PUSH2 0x40F4 JUMP JUMPDEST LT ISZERO PUSH2 0x35CC JUMPI PUSH1 0x40 MLOAD PUSH3 0x461BCD PUSH1 0xE5 SHL DUP2 MSTORE PUSH1 0x20 PUSH1 0x4 DUP3 ADD MSTORE PUSH1 0x2E PUSH1 0x24 DUP3 ADD MSTORE PUSH32 0x496E73756666696369656E74206C697175696469747920696E207661756C7420 PUSH1 0x44 DUP3 ADD MSTORE PUSH14 0x616E642073747261746567696573 PUSH1 0x90 SHL PUSH1 0x64 DUP3 ADD MSTORE PUSH1 0x84 ADD PUSH2 0xAF4 JUMP JUMPDEST PUSH2 0x35D9 DUP9 DUP9 DUP9 DUP9 DUP9 PUSH2 0x3744 JUMP JUMPDEST POP POP POP JUMPDEST POP POP POP POP POP JUMP JUMPDEST PUSH0 PUSH1 0x2 DUP3 PUSH1 0x3 DUP2 GT ISZERO PUSH2 0x35F9 JUMPI PUSH2 0x35F9 PUSH2 0x3EE3 JUMP JUMPDEST PUSH2 0x3603 SWAP2 SWAP1 PUSH2 0x44A5 JUMP JUMPDEST PUSH1 0xFF AND PUSH1 0x1 EQ SWAP1 POP SWAP2 SWAP1 POP JUMP JUMPDEST PUSH0 DUP1 PUSH0 PUSH2 0x361D DUP7 DUP7 PUSH2 0x3C51 JUMP JUMPDEST SWAP2 POP SWAP2 POP DUP2 PUSH0 SUB PUSH2 0x3641 JUMPI DUP4 DUP2 DUP2 PUSH2 0x3637 JUMPI PUSH2 0x3637 PUSH2 0x4247 JUMP JUMPDEST DIV SWAP3 POP POP POP PUSH2 0xD31 JUMP JUMPDEST DUP2 DUP5 GT PUSH2 0x3658 JUMPI PUSH2 0x3658 PUSH1 0x3 DUP6 ISZERO MUL PUSH1 0x11 XOR PUSH2 0x3C6D JUMP JUMPDEST PUSH0 DUP5 DUP7 DUP9 MULMOD PUSH0 DUP7 DUP2 SUB DUP8 AND SWAP7 DUP8 SWAP1 DIV SWAP7 PUSH1 0x2 PUSH1 0x3 DUP10 MUL DUP2 XOR DUP1 DUP11 MUL DUP3 SUB MUL DUP1 DUP11 MUL DUP3 SUB MUL DUP1 DUP11 MUL DUP3 SUB MUL DUP1 DUP11 MUL DUP3 SUB MUL DUP1 DUP11 MUL DUP3 SUB MUL DUP1 DUP11 MUL SWAP1 SWAP2 SUB MUL SWAP2 DUP2 SWAP1 SUB DUP2 SWAP1 DIV PUSH1 0x1 ADD DUP6 DUP5 GT SWAP1 SWAP7 SUB SWAP6 SWAP1 SWAP6 MUL SWAP2 SWAP1 SWAP4 SUB SWAP4 SWAP1 SWAP4 DIV SWAP3 SWAP1 SWAP3 OR MUL SWAP2 POP POP SWAP4 SWAP3 POP POP POP JUMP JUMPDEST PUSH2 0x36EC PUSH32 0x0 DUP6 ADDRESS DUP6 PUSH2 0x3C7E JUMP JUMPDEST PUSH2 0x36F6 DUP4 DUP3 PUSH2 0x3CE5 JUMP JUMPDEST DUP3 PUSH1 0x1 PUSH1 0x1 PUSH1 0xA0 SHL SUB AND DUP5 PUSH1 0x1 PUSH1 0x1 PUSH1 0xA0 SHL SUB AND PUSH32 0xDCBC1C05240F31FF3AD067EF1EE35CE4997762752E3A095284754544F4C709D7 DUP5 DUP5 PUSH1 0x40 MLOAD PUSH2 0x3291 SWAP3 SWAP2 SWAP1 SWAP2 DUP3 MSTORE PUSH1 0x20 DUP3 ADD MSTORE PUSH1 0x40 ADD SWAP1 JUMP JUMPDEST DUP3 PUSH1 0x1 PUSH1 0x1 PUSH1 0xA0 SHL SUB AND DUP6 PUSH1 0x1 PUSH1 0x1 PUSH1 0xA0 SHL SUB AND EQ PUSH2 0x3768 JUMPI PUSH2 0x3768 DUP4 DUP7 DUP4 PUSH2 0x2E5C JUMP JUMPDEST PUSH2 0x3772 DUP4 DUP3 PUSH2 0x3D19 JUMP JUMPDEST PUSH2 0x379D PUSH32 0x0 DUP6 DUP5 PUSH2 0x3D4D JUMP JUMPDEST DUP3 PUSH1 0x1 PUSH1 0x1 PUSH1 0xA0 SHL SUB AND DUP5 PUSH1 0x1 PUSH1 0x1 PUSH1 0xA0 SHL SUB AND DUP7 PUSH1 0x1 PUSH1 0x1 PUSH1 0xA0 SHL SUB AND PUSH32 0xFBDE797D201C681B91056529119E0B02407C7BB96A4A2C75C01FC9667232C8DB DUP6 DUP6 PUSH1 0x40 MLOAD PUSH2 0x37F5 SWAP3 SWAP2 SWAP1 SWAP2 DUP3 MSTORE PUSH1 0x20 DUP3 ADD MSTORE PUSH1 0x40 ADD SWAP1 JUMP JUMPDEST PUSH1 0x40 MLOAD DUP1 SWAP2 SUB SWAP1 LOG4 POP POP POP POP POP JUMP JUMPDEST PUSH1 0xC SLOAD PUSH0 SWAP1 DUP2 SWAP1 DUP2 SWAP1 PUSH8 0xFFFFFFFFFFFFFFFF DUP2 GT ISZERO PUSH2 0x3825 JUMPI PUSH2 0x3825 PUSH2 0x421C JUMP JUMPDEST PUSH1 0x40 MLOAD SWAP1 DUP1 DUP3 MSTORE DUP1 PUSH1 0x20 MUL PUSH1 0x20 ADD DUP3 ADD PUSH1 0x40 MSTORE DUP1 ISZERO PUSH2 0x384E JUMPI DUP2 PUSH1 0x20 ADD PUSH1 0x20 DUP3 MUL DUP1 CALLDATASIZE DUP4 CALLDATACOPY ADD SWAP1 POP JUMPDEST POP SWAP1 POP PUSH0 DUP1 JUMPDEST PUSH1 0xC SLOAD DUP2 LT ISZERO PUSH2 0x3949 JUMPI PUSH0 PUSH1 0xC DUP3 DUP2 SLOAD DUP2 LT PUSH2 0x3872 JUMPI PUSH2 0x3872 PUSH2 0x410B JUMP JUMPDEST PUSH0 SWAP2 DUP3 MSTORE PUSH1 0x20 DUP1 DUP4 KECCAK256 SWAP1 SWAP2 ADD SLOAD PUSH1 0x1 PUSH1 0x1 PUSH1 0xA0 SHL SUB AND DUP1 DUP4 MSTORE PUSH1 0xB SWAP1 SWAP2 MSTORE PUSH1 0x40 SWAP1 SWAP2 KECCAK256 SWAP1 SWAP2 POP PUSH1 0x1 PUSH1 0x2 DUP3 ADD SLOAD PUSH1 0xFF AND PUSH1 0x3 DUP2 GT ISZERO PUSH2 0x38B3 JUMPI PUSH2 0x38B3 PUSH2 0x3EE3 JUMP JUMPDEST EQ DUP1 PUSH2 0x38D6 JUMPI POP PUSH1 0x2 DUP1 DUP3 ADD SLOAD PUSH1 0xFF AND PUSH1 0x3 DUP2 GT ISZERO PUSH2 0x38D4 JUMPI PUSH2 0x38D4 PUSH2 0x3EE3 JUMP JUMPDEST EQ JUMPDEST DUP1 ISZERO PUSH2 0x38E5 JUMPI POP PUSH0 DUP2 PUSH1 0x3 ADD SLOAD GT JUMPDEST ISZERO PUSH2 0x3934 JUMPI PUSH1 0x3 DUP2 ADD SLOAD PUSH2 0x38F9 SWAP1 DUP8 PUSH2 0x4133 JUMP JUMPDEST SWAP6 POP DUP2 DUP6 DUP6 DUP2 MLOAD DUP2 LT PUSH2 0x390E JUMPI PUSH2 0x390E PUSH2 0x410B JUMP JUMPDEST PUSH1 0x1 PUSH1 0x1 PUSH1 0xA0 SHL SUB SWAP1 SWAP3 AND PUSH1 0x20 SWAP3 DUP4 MUL SWAP2 SWAP1 SWAP2 ADD SWAP1 SWAP2 ADD MSTORE DUP4 PUSH2 0x3930 DUP2 PUSH2 0x4146 JUMP JUMPDEST SWAP5 POP POP JUMPDEST POP POP DUP1 DUP1 PUSH2 0x3941 SWAP1 PUSH2 0x4146 JUMP JUMPDEST SWAP2 POP POP PUSH2 0x3854 JUMP JUMPDEST POP DUP3 ISZERO DUP1 PUSH2 0x3955 JUMPI POP DUP1 ISZERO JUMPDEST ISZERO PUSH2 0x3964 JUMPI POP PUSH0 SWAP5 SWAP4 POP POP POP POP JUMP JUMPDEST PUSH0 DUP6 PUSH32 0x0 DUP3 JUMPDEST DUP5 DUP2 LT ISZERO PUSH2 0x3C44 JUMPI PUSH0 DUP7 DUP3 DUP2 MLOAD DUP2 LT PUSH2 0x39A4 JUMPI PUSH2 0x39A4 PUSH2 0x410B JUMP JUMPDEST PUSH1 0x20 SWAP1 DUP2 MUL SWAP2 SWAP1 SWAP2 ADD DUP2 ADD MLOAD PUSH1 0x1 PUSH1 0x1 PUSH1 0xA0 SHL SUB DUP2 AND PUSH0 SWAP1 DUP2 MSTORE PUSH1 0xB SWAP1 SWAP3 MSTORE PUSH1 0x40 DUP3 KECCAK256 SWAP1 SWAP3 POP SWAP1 PUSH2 0x39D6 PUSH1 0x1 DUP10 PUSH2 0x41C7 JUMP JUMPDEST DUP5 SUB PUSH2 0x39E3 JUMPI POP DUP5 PUSH2 0x3A01 JUMP JUMPDEST DUP10 DUP13 DUP4 PUSH1 0x3 ADD SLOAD PUSH2 0x39F4 SWAP2 SWAP1 PUSH2 0x4230 JUMP JUMPDEST PUSH2 0x39FE SWAP2 SWAP1 PUSH2 0x425B JUMP JUMPDEST SWAP1 POP JUMPDEST DUP2 PUSH1 0x3 ADD SLOAD DUP2 GT ISZERO PUSH2 0x3A14 JUMPI POP PUSH1 0x3 DUP2 ADD SLOAD JUMPDEST DUP1 ISZERO DUP1 PUSH2 0x3A1F JUMPI POP DUP6 ISZERO JUMPDEST ISZERO PUSH2 0x3A2C JUMPI POP POP POP PUSH2 0x3C32 JUMP JUMPDEST PUSH1 0x40 MLOAD PUSH4 0x70A08231 PUSH1 0xE0 SHL DUP2 MSTORE ADDRESS PUSH1 0x4 DUP3 ADD MSTORE PUSH0 SWAP1 PUSH1 0x1 PUSH1 0x1 PUSH1 0xA0 SHL SUB DUP8 AND SWAP1 PUSH4 0x70A08231 SWAP1 PUSH1 0x24 ADD PUSH1 0x20 PUSH1 0x40 MLOAD DUP1 DUP4 SUB DUP2 DUP7 GAS STATICCALL ISZERO DUP1 ISZERO PUSH2 0x3A70 JUMPI RETURNDATASIZE PUSH0 DUP1 RETURNDATACOPY RETURNDATASIZE PUSH0 REVERT JUMPDEST POP POP POP POP PUSH1 0x40 MLOAD RETURNDATASIZE PUSH1 0x1F NOT PUSH1 0x1F DUP3 ADD AND DUP3 ADD DUP1 PUSH1 0x40 MSTORE POP DUP2 ADD SWAP1 PUSH2 0x3A94 SWAP2 SWAP1 PUSH2 0x40F4 JUMP JUMPDEST PUSH1 0x40 MLOAD PUSH3 0x7B8A67 PUSH1 0xE1 SHL DUP2 MSTORE PUSH1 0x4 DUP2 ADD DUP5 SWAP1 MSTORE ADDRESS PUSH1 0x24 DUP3 ADD MSTORE SWAP1 SWAP2 POP PUSH1 0x1 PUSH1 0x1 PUSH1 0xA0 SHL SUB DUP6 AND SWAP1 PUSH3 0xF714CE SWAP1 PUSH1 0x44 ADD PUSH1 0x20 PUSH1 0x40 MLOAD DUP1 DUP4 SUB DUP2 PUSH0 DUP8 GAS CALL SWAP3 POP POP POP DUP1 ISZERO PUSH2 0x3AFD JUMPI POP PUSH1 0x40 DUP1 MLOAD PUSH1 0x1F RETURNDATASIZE SWAP1 DUP2 ADD PUSH1 0x1F NOT AND DUP3 ADD SWAP1 SWAP3 MSTORE PUSH2 0x3AFA SWAP2 DUP2 ADD SWAP1 PUSH2 0x40F4 JUMP JUMPDEST PUSH1 0x1 JUMPDEST PUSH2 0x3B0A JUMPI POP POP POP POP PUSH2 0x3C32 JUMP JUMPDEST PUSH1 0x40 MLOAD PUSH4 0x70A08231 PUSH1 0xE0 SHL DUP2 MSTORE ADDRESS PUSH1 0x4 DUP3 ADD MSTORE PUSH0 SWAP1 PUSH1 0x1 PUSH1 0x1 PUSH1 0xA0 SHL SUB DUP10 AND SWAP1 PUSH4 0x70A08231 SWAP1 PUSH1 0x24 ADD PUSH1 0x20 PUSH1 0x40 MLOAD DUP1 DUP4 SUB DUP2 DUP7 GAS STATICCALL ISZERO DUP1 ISZERO PUSH2 0x3B4E JUMPI RETURNDATASIZE PUSH0 DUP1 RETURNDATACOPY RETURNDATASIZE PUSH0 REVERT JUMPDEST POP POP POP POP PUSH1 0x40 MLOAD RETURNDATASIZE PUSH1 0x1F NOT PUSH1 0x1F DUP3 ADD AND DUP3 ADD DUP1 PUSH1 0x40 MSTORE POP DUP2 ADD SWAP1 PUSH2 0x3B72 SWAP2 SWAP1 PUSH2 0x40F4 JUMP JUMPDEST SWAP1 POP DUP3 DUP2 GT ISZERO PUSH2 0x3C2B JUMPI PUSH0 PUSH2 0x3B87 DUP5 DUP4 PUSH2 0x41C7 JUMP JUMPDEST SWAP1 POP DUP1 DUP7 PUSH1 0x3 ADD SLOAD LT PUSH2 0x3BB2 JUMPI DUP1 DUP7 PUSH1 0x3 ADD PUSH0 DUP3 DUP3 SLOAD PUSH2 0x3BA7 SWAP2 SWAP1 PUSH2 0x41C7 JUMP JUMPDEST SWAP1 SWAP2 SSTORE POP PUSH2 0x3BB9 SWAP1 POP JUMP JUMPDEST PUSH0 PUSH1 0x3 DUP8 ADD SSTORE JUMPDEST PUSH2 0x3BC3 DUP2 DUP13 PUSH2 0x4133 JUMP JUMPDEST SWAP11 POP PUSH0 DUP11 DUP3 LT PUSH2 0x3BD3 JUMPI DUP11 PUSH2 0x3BD5 JUMP JUMPDEST DUP2 JUMPDEST SWAP1 POP PUSH2 0x3BE1 DUP2 DUP13 PUSH2 0x41C7 JUMP JUMPDEST PUSH1 0x40 DUP1 MLOAD DUP9 DUP2 MSTORE PUSH1 0x20 DUP2 ADD DUP8 SWAP1 MSTORE SWAP2 SWAP13 POP PUSH1 0x1 PUSH1 0x1 PUSH1 0xA0 SHL SUB DUP11 AND SWAP2 PUSH32 0x490DFB4CE52333704763AEE75EDBA596CEAAB548BCCAFC900F79C2B9F6381B08 SWAP2 ADD PUSH1 0x40 MLOAD DUP1 SWAP2 SUB SWAP1 LOG2 POP POP JUMPDEST POP POP POP POP POP POP JUMPDEST DUP1 PUSH2 0x3C3C DUP2 PUSH2 0x4146 JUMP JUMPDEST SWAP2 POP POP PUSH2 0x3989 JUMP JUMPDEST POP SWAP2 SWAP8 SWAP7 POP POP POP POP POP POP POP JUMP JUMPDEST PUSH0 DUP1 PUSH0 NOT DUP4 DUP6 MULMOD SWAP4 SWAP1 SWAP3 MUL DUP1 DUP5 LT SWAP4 DUP2 SWAP1 SUB SWAP4 SWAP1 SWAP4 SUB SWAP4 SWAP2 POP POP JUMP JUMPDEST PUSH4 0x4E487B71 PUSH0 MSTORE DUP1 PUSH1 0x20 MSTORE PUSH1 0x24 PUSH1 0x1C REVERT JUMPDEST PUSH1 0x40 MLOAD PUSH1 0x1 PUSH1 0x1 PUSH1 0xA0 SHL SUB DUP5 DUP2 AND PUSH1 0x24 DUP4 ADD MSTORE DUP4 DUP2 AND PUSH1 0x44 DUP4 ADD MSTORE PUSH1 0x64 DUP3 ADD DUP4 SWAP1 MSTORE PUSH2 0x2EBF SWAP2 DUP7 SWAP2 DUP3 AND SWAP1 PUSH4 0x23B872DD SWAP1 PUSH1 0x84 ADD JUMPDEST PUSH1 0x40 MLOAD PUSH1 0x20 DUP2 DUP4 SUB SUB DUP2 MSTORE SWAP1 PUSH1 0x40 MSTORE SWAP2 POP PUSH1 0xE0 SHL PUSH1 0x20 DUP3 ADD DUP1 MLOAD PUSH1 0x1 PUSH1 0x1 PUSH1 0xE0 SHL SUB DUP4 DUP2 DUP4 AND OR DUP4 MSTORE POP POP POP POP PUSH2 0x3D7E JUMP JUMPDEST PUSH1 0x1 PUSH1 0x1 PUSH1 0xA0 SHL SUB DUP3 AND PUSH2 0x3D0E JUMPI PUSH1 0x40 MLOAD PUSH4 0xEC442F05 PUSH1 0xE0 SHL DUP2 MSTORE PUSH0 PUSH1 0x4 DUP3 ADD MSTORE PUSH1 0x24 ADD PUSH2 0xAF4 JUMP JUMPDEST PUSH2 0x1F62 PUSH0 DUP4 DUP4 PUSH2 0x329F JUMP JUMPDEST PUSH1 0x1 PUSH1 0x1 PUSH1 0xA0 SHL SUB DUP3 AND PUSH2 0x3D42 JUMPI PUSH1 0x40 MLOAD PUSH4 0x4B637E8F PUSH1 0xE1 SHL DUP2 MSTORE PUSH0 PUSH1 0x4 DUP3 ADD MSTORE PUSH1 0x24 ADD PUSH2 0xAF4 JUMP JUMPDEST PUSH2 0x1F62 DUP3 PUSH0 DUP4 PUSH2 0x329F JUMP JUMPDEST PUSH1 0x40 MLOAD PUSH1 0x1 PUSH1 0x1 PUSH1 0xA0 SHL SUB DUP4 DUP2 AND PUSH1 0x24 DUP4 ADD MSTORE PUSH1 0x44 DUP3 ADD DUP4 SWAP1 MSTORE PUSH2 0x2DFB SWAP2 DUP6 SWAP2 DUP3 AND SWAP1 PUSH4 0xA9059CBB SWAP1 PUSH1 0x64 ADD PUSH2 0x3CB3 JUMP JUMPDEST PUSH0 DUP1 PUSH1 0x20 PUSH0 DUP5 MLOAD PUSH1 0x20 DUP7 ADD PUSH0 DUP9 GAS CALL DUP1 PUSH2 0x3D9D JUMPI PUSH1 0x40 MLOAD RETURNDATASIZE PUSH0 DUP3 RETURNDATACOPY RETURNDATASIZE DUP2 REVERT JUMPDEST POP POP PUSH0 MLOAD RETURNDATASIZE SWAP2 POP DUP2 ISZERO PUSH2 0x3DB4 JUMPI DUP1 PUSH1 0x1 EQ ISZERO PUSH2 0x3DC1 JUMP JUMPDEST PUSH1 0x1 PUSH1 0x1 PUSH1 0xA0 SHL SUB DUP5 AND EXTCODESIZE ISZERO JUMPDEST ISZERO PUSH2 0x2EBF JUMPI PUSH1 0x40 MLOAD PUSH4 0x5274AFE7 PUSH1 0xE0 SHL DUP2 MSTORE PUSH1 0x1 PUSH1 0x1 PUSH1 0xA0 SHL SUB DUP6 AND PUSH1 0x4 DUP3 ADD MSTORE PUSH1 0x24 ADD PUSH2 0xAF4 JUMP JUMPDEST PUSH0 PUSH1 0x20 DUP1 DUP4 MSTORE DUP4 MLOAD DUP1 DUP3 DUP6 ADD MSTORE PUSH0 JUMPDEST DUP2 DUP2 LT ISZERO PUSH2 0x3E15 JUMPI DUP6 DUP2 ADD DUP4 ADD MLOAD DUP6 DUP3 ADD PUSH1 0x40 ADD MSTORE DUP3 ADD PUSH2 0x3DF9 JUMP JUMPDEST POP PUSH0 PUSH1 0x40 DUP3 DUP7 ADD ADD MSTORE PUSH1 0x40 PUSH1 0x1F NOT PUSH1 0x1F DUP4 ADD AND DUP6 ADD ADD SWAP3 POP POP POP SWAP3 SWAP2 POP POP JUMP JUMPDEST PUSH0 PUSH1 0x20 DUP3 DUP5 SUB SLT ISZERO PUSH2 0x3E45 JUMPI PUSH0 DUP1 REVERT JUMPDEST POP CALLDATALOAD SWAP2 SWAP1 POP JUMP JUMPDEST PUSH1 0x1 PUSH1 0x1 PUSH1 0xA0 SHL SUB DUP2 AND DUP2 EQ PUSH2 0x2883 JUMPI PUSH0 DUP1 REVERT JUMPDEST PUSH0 DUP1 PUSH1 0x40 DUP4 DUP6 SUB SLT ISZERO PUSH2 0x3E71 JUMPI PUSH0 DUP1 REVERT JUMPDEST DUP3 CALLDATALOAD PUSH2 0x3E7C DUP2 PUSH2 0x3E4C JUMP JUMPDEST SWAP5 PUSH1 0x20 SWAP4 SWAP1 SWAP4 ADD CALLDATALOAD SWAP4 POP POP POP JUMP JUMPDEST PUSH0 PUSH1 0x20 DUP3 DUP5 SUB SLT ISZERO PUSH2 0x3E9A JUMPI PUSH0 DUP1 REVERT JUMPDEST DUP2 CALLDATALOAD PUSH2 0xD31 DUP2 PUSH2 0x3E4C JUMP JUMPDEST PUSH0 DUP1 PUSH0 PUSH1 0x60 DUP5 DUP7 SUB SLT ISZERO PUSH2 0x3EB7 JUMPI PUSH0 DUP1 REVERT JUMPDEST DUP4 CALLDATALOAD PUSH2 0x3EC2 DUP2 PUSH2 0x3E4C JUMP JUMPDEST SWAP3 POP PUSH1 0x20 DUP5 ADD CALLDATALOAD PUSH2 0x3ED2 DUP2 PUSH2 0x3E4C JUMP JUMPDEST SWAP3 SWAP6 SWAP3 SWAP5 POP POP POP PUSH1 0x40 SWAP2 SWAP1 SWAP2 ADD CALLDATALOAD SWAP1 JUMP JUMPDEST PUSH4 0x4E487B71 PUSH1 0xE0 SHL PUSH0 MSTORE PUSH1 0x21 PUSH1 0x4 MSTORE PUSH1 0x24 PUSH0 REVERT JUMPDEST PUSH1 0x4 DUP2 LT PUSH2 0x3F13 JUMPI PUSH4 0x4E487B71 PUSH1 0xE0 SHL PUSH0 MSTORE PUSH1 0x21 PUSH1 0x4 MSTORE PUSH1 0x24 PUSH0 REVERT JUMPDEST SWAP1 MSTORE JUMP JUMPDEST PUSH1 0x1 PUSH1 0x1 PUSH1 0xA0 SHL SUB DUP7 AND DUP2 MSTORE PUSH1 0x20 DUP2 ADD DUP6 SWAP1 MSTORE PUSH1 0xA0 DUP2 ADD PUSH2 0x3F3B PUSH1 0x40 DUP4 ADD DUP7 PUSH2 0x3EF7 JUMP JUMPDEST PUSH1 0x60 DUP3 ADD SWAP4 SWAP1 SWAP4 MSTORE PUSH1 0x80 ADD MSTORE SWAP4 SWAP3 POP POP POP JUMP JUMPDEST PUSH0 DUP2 MLOAD DUP1 DUP5 MSTORE PUSH1 0x20 DUP1 DUP6 ADD SWAP5 POP DUP1 DUP5 ADD PUSH0 JUMPDEST DUP4 DUP2 LT ISZERO PUSH2 0x3F85 JUMPI DUP2 MLOAD PUSH1 0x1 PUSH1 0x1 PUSH1 0xA0 SHL SUB AND DUP8 MSTORE SWAP6 DUP3 ADD SWAP6 SWAP1 DUP3 ADD SWAP1 PUSH1 0x1 ADD PUSH2 0x3F60 JUMP JUMPDEST POP SWAP5 SWAP6 SWAP5 POP POP POP POP POP JUMP JUMPDEST PUSH0 DUP2 MLOAD DUP1 DUP5 MSTORE PUSH1 0x20 DUP1 DUP6 ADD SWAP5 POP DUP1 DUP5 ADD PUSH0 JUMPDEST DUP4 DUP2 LT ISZERO PUSH2 0x3F85 JUMPI DUP2 MLOAD DUP8 MSTORE SWAP6 DUP3 ADD SWAP6 SWAP1 DUP3 ADD SWAP1 PUSH1 0x1 ADD PUSH2 0x3FA2 JUMP JUMPDEST PUSH1 0x60 DUP2 MSTORE PUSH0 PUSH2 0x3FD0 PUSH1 0x60 DUP4 ADD DUP7 PUSH2 0x3F4E JUMP JUMPDEST DUP3 DUP2 SUB PUSH1 0x20 DUP5 ADD MSTORE PUSH2 0x3FE2 DUP2 DUP7 PUSH2 0x3F90 JUMP JUMPDEST SWAP1 POP DUP3 DUP2 SUB PUSH1 0x40 DUP5 ADD MSTORE PUSH2 0x3FF6 DUP2 DUP6 PUSH2 0x3F90 JUMP JUMPDEST SWAP7 SWAP6 POP POP POP POP POP POP JUMP JUMPDEST DUP2 MLOAD PUSH1 0x1 PUSH1 0x1 PUSH1 0xA0 SHL SUB AND DUP2 MSTORE PUSH1 0x20 DUP1 DUP4 ADD MLOAD SWAP1 DUP3 ADD MSTORE PUSH1 0x40 DUP1 DUP4 ADD MLOAD PUSH1 0xA0 DUP4 ADD SWAP2 PUSH2 0x402E SWAP1 DUP5 ADD DUP3 PUSH2 0x3EF7 JUMP JUMPDEST POP PUSH1 0x60 DUP4 ADD MLOAD PUSH1 0x60 DUP4 ADD MSTORE PUSH1 0x80 DUP4 ADD MLOAD PUSH1 0x80 DUP4 ADD MSTORE SWAP3 SWAP2 POP POP JUMP JUMPDEST PUSH1 0x20 DUP2 MSTORE PUSH0 PUSH2 0xD31 PUSH1 0x20 DUP4 ADD DUP5 PUSH2 0x3F4E JUMP JUMPDEST PUSH0 DUP1 PUSH1 0x40 DUP4 DUP6 SUB SLT ISZERO PUSH2 0x406C JUMPI PUSH0 DUP1 REVERT JUMPDEST DUP3 CALLDATALOAD SWAP2 POP PUSH1 0x20 DUP4 ADD CALLDATALOAD PUSH2 0x407E DUP2 PUSH2 0x3E4C JUMP JUMPDEST DUP1 SWAP2 POP POP SWAP3 POP SWAP3 SWAP1 POP JUMP JUMPDEST PUSH0 DUP1 PUSH0 PUSH1 0x60 DUP5 DUP7 SUB SLT ISZERO PUSH2 0x409B JUMPI PUSH0 DUP1 REVERT JUMPDEST DUP4 CALLDATALOAD SWAP3 POP PUSH1 0x20 DUP5 ADD CALLDATALOAD PUSH2 0x40AD DUP2 PUSH2 0x3E4C JUMP JUMPDEST SWAP2 POP PUSH1 0x40 DUP5 ADD CALLDATALOAD PUSH2 0x40BD DUP2 PUSH2 0x3E4C JUMP JUMPDEST DUP1 SWAP2 POP POP SWAP3 POP SWAP3 POP SWAP3 JUMP JUMPDEST PUSH0 DUP1 PUSH1 0x40 DUP4 DUP6 SUB SLT ISZERO PUSH2 0x40D9 JUMPI PUSH0 DUP1 REVERT JUMPDEST DUP3 CALLDATALOAD PUSH2 0x40E4 DUP2 PUSH2 0x3E4C JUMP JUMPDEST SWAP2 POP PUSH1 0x20 DUP4 ADD CALLDATALOAD PUSH2 0x407E DUP2 PUSH2 0x3E4C JUMP JUMPDEST PUSH0 PUSH1 0x20 DUP3 DUP5 SUB SLT ISZERO PUSH2 0x4104 JUMPI PUSH0 DUP1 REVERT JUMPDEST POP MLOAD SWAP2 SWAP1 POP JUMP JUMPDEST PUSH4 0x4E487B71 PUSH1 0xE0 SHL PUSH0 MSTORE PUSH1 0x32 PUSH1 0x4 MSTORE PUSH1 0x24 PUSH0 REVERT JUMPDEST PUSH4 0x4E487B71 PUSH1 0xE0 SHL PUSH0 MSTORE PUSH1 0x11 PUSH1 0x4 MSTORE PUSH1 0x24 PUSH0 REVERT JUMPDEST DUP1 DUP3 ADD DUP1 DUP3 GT ISZERO PUSH2 0xA8D JUMPI PUSH2 0xA8D PUSH2 0x411F JUMP JUMPDEST PUSH0 PUSH1 0x1 DUP3 ADD PUSH2 0x4157 JUMPI PUSH2 0x4157 PUSH2 0x411F JUMP JUMPDEST POP PUSH1 0x1 ADD SWAP1 JUMP JUMPDEST PUSH1 0x1 DUP2 DUP2 SHR SWAP1 DUP3 AND DUP1 PUSH2 0x4172 JUMPI PUSH1 0x7F DUP3 AND SWAP2 POP JUMPDEST PUSH1 0x20 DUP3 LT DUP2 SUB PUSH2 0x9EC JUMPI PUSH4 0x4E487B71 PUSH1 0xE0 SHL PUSH0 MSTORE PUSH1 0x22 PUSH1 0x4 MSTORE PUSH1 0x24 PUSH0 REVERT JUMPDEST PUSH1 0x20 DUP1 DUP3 MSTORE PUSH1 0x17 SWAP1 DUP3 ADD MSTORE PUSH32 0x537472617465677920646F6573206E6F74206578697374000000000000000000 PUSH1 0x40 DUP3 ADD MSTORE PUSH1 0x60 ADD SWAP1 JUMP JUMPDEST DUP2 DUP2 SUB DUP2 DUP2 GT ISZERO PUSH2 0xA8D JUMPI PUSH2 0xA8D PUSH2 0x411F JUMP JUMPDEST PUSH4 0x4E487B71 PUSH1 0xE0 SHL PUSH0 MSTORE PUSH1 0x31 PUSH1 0x4 MSTORE PUSH1 0x24 PUSH0 REVERT JUMPDEST PUSH1 0x20 DUP2 ADD PUSH2 0xA8D DUP3 DUP5 PUSH2 0x3EF7 JUMP JUMPDEST PUSH0 PUSH1 0x20 DUP3 DUP5 SUB SLT ISZERO PUSH2 0x420C JUMPI PUSH0 DUP1 REVERT JUMPDEST DUP2 MLOAD PUSH1 0xFF DUP2 AND DUP2 EQ PUSH2 0xD31 JUMPI PUSH0 DUP1 REVERT JUMPDEST PUSH4 0x4E487B71 PUSH1 0xE0 SHL PUSH0 MSTORE PUSH1 0x41 PUSH1 0x4 MSTORE PUSH1 0x24 PUSH0 REVERT JUMPDEST DUP1 DUP3 MUL DUP2 ISZERO DUP3 DUP3 DIV DUP5 EQ OR PUSH2 0xA8D JUMPI PUSH2 0xA8D PUSH2 0x411F JUMP JUMPDEST PUSH4 0x4E487B71 PUSH1 0xE0 SHL PUSH0 MSTORE PUSH1 0x12 PUSH1 0x4 MSTORE PUSH1 0x24 PUSH0 REVERT JUMPDEST PUSH0 DUP3 PUSH2 0x4269 JUMPI PUSH2 0x4269 PUSH2 0x4247 JUMP JUMPDEST POP DIV SWAP1 JUMP JUMPDEST PUSH1 0x20 DUP1 DUP3 MSTORE PUSH1 0x19 SWAP1 DUP3 ADD MSTORE PUSH32 0x5461726765742063616E6E6F7420657863656564203130302500000000000000 PUSH1 0x40 DUP3 ADD MSTORE PUSH1 0x60 ADD SWAP1 JUMP JUMPDEST PUSH1 0x20 DUP1 DUP3 MSTORE PUSH1 0x19 SWAP1 DUP3 ADD MSTORE PUSH32 0x546F74616C207461726765747320657863656564203130302500000000000000 PUSH1 0x40 DUP3 ADD MSTORE PUSH1 0x60 ADD SWAP1 JUMP JUMPDEST PUSH1 0x20 DUP1 DUP3 MSTORE PUSH1 0xE SWAP1 DUP3 ADD MSTORE PUSH14 0x139BDD08185D5D1A1BDC9A5E9959 PUSH1 0x92 SHL PUSH1 0x40 DUP3 ADD MSTORE PUSH1 0x60 ADD SWAP1 JUMP JUMPDEST PUSH0 PUSH1 0x20 DUP3 DUP5 SUB SLT ISZERO PUSH2 0x4314 JUMPI PUSH0 DUP1 REVERT JUMPDEST DUP2 MLOAD PUSH2 0xD31 DUP2 PUSH2 0x3E4C JUMP JUMPDEST PUSH1 0x20 DUP1 DUP3 MSTORE PUSH1 0x13 SWAP1 DUP3 ADD MSTORE PUSH19 0x5374726174656779206E6F7420616374697665 PUSH1 0x68 SHL PUSH1 0x40 DUP3 ADD MSTORE PUSH1 0x60 ADD SWAP1 JUMP JUMPDEST PUSH0 DUP1 PUSH0 PUSH1 0x60 DUP5 DUP7 SUB SLT ISZERO PUSH2 0x435E JUMPI PUSH0 DUP1 REVERT JUMPDEST DUP4 MLOAD SWAP3 POP PUSH1 0x20 DUP5 ADD MLOAD SWAP2 POP PUSH1 0x40 DUP5 ADD MLOAD SWAP1 POP SWAP3 POP SWAP3 POP SWAP3 JUMP JUMPDEST PUSH0 PUSH1 0x20 DUP3 DUP5 SUB SLT ISZERO PUSH2 0x4387 JUMPI PUSH0 DUP1 REVERT JUMPDEST DUP2 MLOAD DUP1 ISZERO ISZERO DUP2 EQ PUSH2 0xD31 JUMPI PUSH0 DUP1 REVERT JUMPDEST PUSH1 0x1 DUP2 DUP2 JUMPDEST DUP1 DUP6 GT ISZERO PUSH2 0x43D0 JUMPI DUP2 PUSH0 NOT DIV DUP3 GT ISZERO PUSH2 0x43B6 JUMPI PUSH2 0x43B6 PUSH2 0x411F JUMP JUMPDEST DUP1 DUP6 AND ISZERO PUSH2 0x43C3 JUMPI SWAP2 DUP2 MUL SWAP2 JUMPDEST SWAP4 DUP5 SHR SWAP4 SWAP1 DUP1 MUL SWAP1 PUSH2 0x439B JUMP JUMPDEST POP SWAP3 POP SWAP3 SWAP1 POP JUMP JUMPDEST PUSH0 DUP3 PUSH2 0x43E6 JUMPI POP PUSH1 0x1 PUSH2 0xA8D JUMP JUMPDEST DUP2 PUSH2 0x43F2 JUMPI POP PUSH0 PUSH2 0xA8D JUMP JUMPDEST DUP2 PUSH1 0x1 DUP2 EQ PUSH2 0x4408 JUMPI PUSH1 0x2 DUP2 EQ PUSH2 0x4412 JUMPI PUSH2 0x442E JUMP JUMPDEST PUSH1 0x1 SWAP2 POP POP PUSH2 0xA8D JUMP JUMPDEST PUSH1 0xFF DUP5 GT ISZERO PUSH2 0x4423 JUMPI PUSH2 0x4423 PUSH2 0x411F JUMP JUMPDEST POP POP PUSH1 0x1 DUP3 SHL PUSH2 0xA8D JUMP JUMPDEST POP PUSH1 0x20 DUP4 LT PUSH2 0x133 DUP4 LT AND PUSH1 0x4E DUP5 LT PUSH1 0xB DUP5 LT AND OR ISZERO PUSH2 0x4451 JUMPI POP DUP2 DUP2 EXP PUSH2 0xA8D JUMP JUMPDEST PUSH2 0x445B DUP4 DUP4 PUSH2 0x4396 JUMP JUMPDEST DUP1 PUSH0 NOT DIV DUP3 GT ISZERO PUSH2 0x446E JUMPI PUSH2 0x446E PUSH2 0x411F JUMP JUMPDEST MUL SWAP4 SWAP3 POP POP POP JUMP JUMPDEST PUSH0 PUSH2 0xD31 PUSH1 0xFF DUP5 AND DUP4 PUSH2 0x43D8 JUMP JUMPDEST PUSH1 0x1 PUSH1 0x1 PUSH1 0xA0 SHL SUB SWAP4 SWAP1 SWAP4 AND DUP4 MSTORE PUSH1 0x20 DUP4 ADD SWAP2 SWAP1 SWAP2 MSTORE PUSH1 0x40 DUP3 ADD MSTORE PUSH1 0x60 ADD SWAP1 JUMP JUMPDEST PUSH0 PUSH1 0xFF DUP4 AND DUP1 PUSH2 0x44B7 JUMPI PUSH2 0x44B7 PUSH2 0x4247 JUMP JUMPDEST DUP1 PUSH1 0xFF DUP5 AND MOD SWAP2 POP POP SWAP3 SWAP2 POP POP JUMP INVALID LOG2 PUSH5 0x6970667358 0x22 SLT KECCAK256 0xB8 0xEE CALLER DUP5 0xCD 0xF7 PUSH10 0xC4F556BA22056B7D2A37 0xD PUSH15 0x82926B72FF91E52287BC87DD7A6473 PUSH16 0x6C634300081400330000000000000000 "},"methodIdentifiers":{"activateStrategy(address)":"d80ea5a0","addOperator(address)":"9870d7fe","addStrategy(address,uint256)":"c9411e22","allowance(address,address)":"dd62ed3e","approve(address,uint256)":"095ea7b3","asset()":"38d52e0f","balanceOf(address)":"70a08231","bufferTargetBps()":"af56b69f","convertToAssets(uint256)":"07a2d13a","convertToShares(uint256)":"c6e6f592","decimals()":"313ce567","deployToStrategy(address,uint256)":"f6c00db9","deposit(uint256,address)":"6e553f65","depositLimit()":"ecf70858","getActiveStrategies()":"587436e4","getAllStrategies()":"c3b28864","getBufferBalance()":"dc24fc07","getBufferStatus()":"a3603bca","getBufferTarget()":"acd17d5d","getCurrentAllocations()":"41826c2d","getStrategyInfo(address)":"54192ad5","getTotalDeployed()":"38f0ede9","maxDeposit(address)":"402d267d","maxMint(address)":"c63d75b6","maxRedeem(address)":"d905777e","maxWithdraw(address)":"ce96cb77","minDeposit()":"41b3d185","mint(uint256,address)":"94bf804d","name()":"06fdde03","operators(address)":"13e7c9d8","owner()":"8da5cb5b","pause()":"8456cb59","pauseStrategy(address)":"d3f6b598","paused()":"5c975abb","previewDeposit(uint256)":"ef8b30f7","previewMint(uint256)":"b3d7f6b9","previewRedeem(uint256)":"4cdad506","previewWithdraw(uint256)":"0a28a477","redeem(uint256,address,address)":"ba087652","removeOperator(address)":"ac8a584a","removeStrategy(address)":"175188e8","renounceOwnership()":"715018a6","reportStrategy(address)":"d9aba111","resumeStrategy(address)":"2a058cac","setBufferTarget(uint256)":"4e423181","setDepositLimit(uint256)":"bdc8144b","setMinDeposit(uint256)":"8fcc9cfb","strategies(address)":"39ebf823","strategyList(uint256)":"a267526b","symbol()":"95d89b41","totalAssets()":"01e1d114","totalStrategyTargetBps()":"3ede66f7","totalSupply()":"18160ddd","transfer(address,uint256)":"a9059cbb","transferFrom(address,address,uint256)":"23b872dd","transferOwnership(address)":"f2fde38b","unpause()":"3f4ba83a","updateAllocation(address,uint256)":"70851703","withdraw(uint256,address,address)":"b460af94","withdrawFromStrategy(address,uint256)":"b53d0958"}}}}}