{"project/contracts/VaultController.sol":{"VaultController":{"abi":[{"inputs":[],"stateMutability":"nonpayable","type":"constructor"},{"inputs":[],"name":"AccessControlBadConfirmation","type":"error"},{"inputs":[{"internalType":"address","name":"account","type":"address"},{"internalType":"bytes32","name":"neededRole","type":"bytes32"}],"name":"AccessControlUnauthorizedAccount","type":"error"},{"inputs":[],"name":"ReentrancyGuardReentrantCall","type":"error"},{"anonymous":false,"inputs":[{"indexed":true,"internalType":"bytes32","name":"requestId","type":"bytes32"},{"indexed":true,"internalType":"address","name":"user","type":"address"},{"indexed":false,"internalType":"uint256","name":"xrpAmount","type":"uint256"}],"name":"BridgeRequestCreated","type":"event"},{"anonymous":false,"inputs":[{"indexed":true,"internalType":"bytes32","name":"requestId","type":"bytes32"},{"indexed":false,"internalType":"enum VaultController.BridgeStatus","name":"newStatus","type":"uint8"}],"name":"BridgeStatusUpdated","type":"event"},{"anonymous":false,"inputs":[{"indexed":true,"internalType":"address","name":"vault","type":"address"},{"indexed":false,"internalType":"uint256","name":"yieldAmount","type":"uint256"}],"name":"CompoundExecuted","type":"event"},{"anonymous":false,"inputs":[{"indexed":true,"internalType":"address","name":"operator","type":"address"}],"name":"OperatorAdded","type":"event"},{"anonymous":false,"inputs":[{"indexed":true,"internalType":"address","name":"operator","type":"address"}],"name":"OperatorRemoved","type":"event"},{"anonymous":false,"inputs":[{"indexed":true,"internalType":"bytes32","name":"role","type":"bytes32"},{"indexed":true,"internalType":"bytes32","name":"previousAdminRole","type":"bytes32"},{"indexed":true,"internalType":"bytes32","name":"newAdminRole","type":"bytes32"}],"name":"RoleAdminChanged","type":"event"},{"anonymous":false,"inputs":[{"indexed":true,"internalType":"bytes32","name":"role","type":"bytes32"},{"indexed":true,"internalType":"address","name":"account","type":"address"},{"indexed":true,"internalType":"address","name":"sender","type":"address"}],"name":"RoleGranted","type":"event"},{"anonymous":false,"inputs":[{"indexed":true,"internalType":"bytes32","name":"role","type":"bytes32"},{"indexed":true,"internalType":"address","name":"account","type":"address"},{"indexed":true,"internalType":"address","name":"sender","type":"address"}],"name":"RoleRevoked","type":"event"},{"anonymous":false,"inputs":[{"indexed":true,"internalType":"address","name":"vault","type":"address"},{"indexed":true,"internalType":"address","name":"strategy","type":"address"},{"indexed":false,"internalType":"uint256","name":"amount","type":"uint256"}],"name":"StrategyDeployed","type":"event"},{"anonymous":false,"inputs":[{"indexed":true,"internalType":"address","name":"strategy","type":"address"}],"name":"StrategyDeregistered","type":"event"},{"anonymous":false,"inputs":[{"indexed":true,"internalType":"address","name":"strategy","type":"address"},{"indexed":false,"internalType":"string","name":"name","type":"string"}],"name":"StrategyRegistered","type":"event"},{"anonymous":false,"inputs":[{"indexed":true,"internalType":"address","name":"vault","type":"address"},{"indexed":true,"internalType":"address","name":"strategy","type":"address"},{"indexed":false,"internalType":"uint256","name":"amount","type":"uint256"}],"name":"StrategyWithdrawn","type":"event"},{"anonymous":false,"inputs":[{"indexed":true,"internalType":"address","name":"vault","type":"address"}],"name":"VaultDeregistered","type":"event"},{"anonymous":false,"inputs":[{"indexed":true,"internalType":"address","name":"vault","type":"address"},{"indexed":false,"internalType":"uint256","name":"bufferBefore","type":"uint256"},{"indexed":false,"internalType":"uint256","name":"bufferAfter","type":"uint256"},{"indexed":false,"internalType":"uint256","name":"kineticBefore","type":"uint256"},{"indexed":false,"internalType":"uint256","name":"kineticAfter","type":"uint256"},{"indexed":false,"internalType":"uint256","name":"firelightBefore","type":"uint256"},{"indexed":false,"internalType":"uint256","name":"firelightAfter","type":"uint256"}],"name":"VaultRebalanced","type":"event"},{"anonymous":false,"inputs":[{"indexed":true,"internalType":"address","name":"vault","type":"address"}],"name":"VaultRegistered","type":"event"},{"inputs":[],"name":"BUFFER_TARGET_BPS","outputs":[{"internalType":"uint256","name":"","type":"uint256"}],"stateMutability":"view","type":"function"},{"inputs":[],"name":"COMPOUNDER_ROLE","outputs":[{"internalType":"bytes32","name":"","type":"bytes32"}],"stateMutability":"view","type":"function"},{"inputs":[],"name":"DEFAULT_ADMIN_ROLE","outputs":[{"internalType":"bytes32","name":"","type":"bytes32"}],"stateMutability":"view","type":"function"},{"inputs":[],"name":"FIRELIGHT_TARGET_BPS","outputs":[{"internalType":"uint256","name":"","type":"uint256"}],"stateMutability":"view","type":"function"},{"inputs":[],"name":"KINETIC_TARGET_BPS","outputs":[{"internalType":"uint256","name":"","type":"uint256"}],"stateMutability":"view","type":"function"},{"inputs":[],"name":"OPERATOR_ROLE","outputs":[{"internalType":"bytes32","name":"","type":"bytes32"}],"stateMutability":"view","type":"function"},{"inputs":[{"internalType":"address","name":"vault","type":"address"},{"internalType":"uint256","name":"deployableAmount","type":"uint256"},{"internalType":"uint256","name":"kineticCurrent","type":"uint256"},{"internalType":"uint256","name":"firelightCurrent","type":"uint256"},{"internalType":"uint256","name":"totalAssets","type":"uint256"}],"name":"_calculateDeploymentAmountsExternal","outputs":[{"internalType":"uint256","name":"kineticAmount","type":"uint256"},{"internalType":"uint256","name":"firelightAmount","type":"uint256"}],"stateMutability":"view","type":"function"},{"inputs":[{"internalType":"address","name":"compounder","type":"address"}],"name":"addCompounder","outputs":[],"stateMutability":"nonpayable","type":"function"},{"inputs":[{"internalType":"address","name":"operator","type":"address"}],"name":"addOperator","outputs":[],"stateMutability":"nonpayable","type":"function"},{"inputs":[{"internalType":"bytes32","name":"","type":"bytes32"}],"name":"bridgeRequests","outputs":[{"internalType":"address","name":"user","type":"address"},{"internalType":"address","name":"vault","type":"address"},{"internalType":"uint256","name":"xrpAmount","type":"uint256"},{"internalType":"uint256","name":"fxrpExpected","type":"uint256"},{"internalType":"uint256","name":"timestamp","type":"uint256"},{"internalType":"enum VaultController.BridgeStatus","name":"status","type":"uint8"},{"internalType":"string","name":"xrplTxHash","type":"string"},{"internalType":"string","name":"flareTxHash","type":"string"}],"stateMutability":"view","type":"function"},{"inputs":[{"internalType":"address","name":"user","type":"address"},{"internalType":"address","name":"vault","type":"address"},{"internalType":"uint256","name":"xrpAmount","type":"uint256"},{"internalType":"string","name":"xrplTxHash","type":"string"}],"name":"createBridgeRequest","outputs":[{"internalType":"bytes32","name":"","type":"bytes32"}],"stateMutability":"nonpayable","type":"function"},{"inputs":[{"internalType":"address","name":"vault","type":"address"},{"internalType":"uint256","name":"amount","type":"uint256"}],"name":"deployToStrategies","outputs":[],"stateMutability":"nonpayable","type":"function"},{"inputs":[{"internalType":"address","name":"strategy","type":"address"}],"name":"deregisterStrategy","outputs":[],"stateMutability":"nonpayable","type":"function"},{"inputs":[{"internalType":"address","name":"vault","type":"address"}],"name":"deregisterVault","outputs":[],"stateMutability":"nonpayable","type":"function"},{"inputs":[{"internalType":"address","name":"vault","type":"address"}],"name":"executeCompound","outputs":[],"stateMutability":"nonpayable","type":"function"},{"inputs":[{"internalType":"bytes32","name":"requestId","type":"bytes32"}],"name":"getBridgeRequest","outputs":[{"components":[{"internalType":"address","name":"user","type":"address"},{"internalType":"address","name":"vault","type":"address"},{"internalType":"uint256","name":"xrpAmount","type":"uint256"},{"internalType":"uint256","name":"fxrpExpected","type":"uint256"},{"internalType":"uint256","name":"timestamp","type":"uint256"},{"internalType":"enum VaultController.BridgeStatus","name":"status","type":"uint8"},{"internalType":"string","name":"xrplTxHash","type":"string"},{"internalType":"string","name":"flareTxHash","type":"string"}],"internalType":"struct VaultController.BridgeRequest","name":"","type":"tuple"}],"stateMutability":"view","type":"function"},{"inputs":[{"internalType":"address","name":"vault","type":"address"}],"name":"getCurrentAllocation","outputs":[{"internalType":"uint256","name":"bufferAmount","type":"uint256"},{"internalType":"uint256","name":"kineticAmount","type":"uint256"},{"internalType":"uint256","name":"firelightAmount","type":"uint256"},{"internalType":"uint256","name":"totalAssets","type":"uint256"}],"stateMutability":"view","type":"function"},{"inputs":[{"internalType":"bytes32","name":"role","type":"bytes32"}],"name":"getRoleAdmin","outputs":[{"internalType":"bytes32","name":"","type":"bytes32"}],"stateMutability":"view","type":"function"},{"inputs":[],"name":"getStrategyCount","outputs":[{"internalType":"uint256","name":"","type":"uint256"}],"stateMutability":"view","type":"function"},{"inputs":[{"internalType":"address","name":"vault","type":"address"},{"internalType":"uint256","name":"totalAssets","type":"uint256"}],"name":"getTargetAllocation","outputs":[{"internalType":"uint256","name":"bufferTarget","type":"uint256"},{"internalType":"uint256","name":"kineticTarget","type":"uint256"},{"internalType":"uint256","name":"firelightTarget","type":"uint256"}],"stateMutability":"view","type":"function"},{"inputs":[],"name":"getVaultCount","outputs":[{"internalType":"uint256","name":"","type":"uint256"}],"stateMutability":"view","type":"function"},{"inputs":[{"internalType":"bytes32","name":"role","type":"bytes32"},{"internalType":"address","name":"account","type":"address"}],"name":"grantRole","outputs":[],"stateMutability":"nonpayable","type":"function"},{"inputs":[{"internalType":"bytes32","name":"role","type":"bytes32"},{"internalType":"address","name":"account","type":"address"}],"name":"hasRole","outputs":[{"internalType":"bool","name":"","type":"bool"}],"stateMutability":"view","type":"function"},{"inputs":[{"internalType":"address","name":"","type":"address"}],"name":"lastCompoundTime","outputs":[{"internalType":"uint256","name":"","type":"uint256"}],"stateMutability":"view","type":"function"},{"inputs":[],"name":"minCompoundInterval","outputs":[{"internalType":"uint256","name":"","type":"uint256"}],"stateMutability":"view","type":"function"},{"inputs":[{"internalType":"address","name":"vault","type":"address"},{"internalType":"uint256","name":"thresholdBps","type":"uint256"}],"name":"needsRebalancing","outputs":[{"internalType":"bool","name":"","type":"bool"}],"stateMutability":"view","type":"function"},{"inputs":[{"internalType":"address","name":"vault","type":"address"}],"name":"rebalanceVault","outputs":[],"stateMutability":"nonpayable","type":"function"},{"inputs":[{"internalType":"address","name":"strategy","type":"address"},{"internalType":"string","name":"name","type":"string"}],"name":"registerStrategy","outputs":[],"stateMutability":"nonpayable","type":"function"},{"inputs":[{"internalType":"address","name":"vault","type":"address"}],"name":"registerVault","outputs":[],"stateMutability":"nonpayable","type":"function"},{"inputs":[{"internalType":"address","name":"","type":"address"}],"name":"registeredStrategies","outputs":[{"internalType":"bool","name":"","type":"bool"}],"stateMutability":"view","type":"function"},{"inputs":[{"internalType":"address","name":"","type":"address"}],"name":"registeredVaults","outputs":[{"internalType":"bool","name":"","type":"bool"}],"stateMutability":"view","type":"function"},{"inputs":[{"internalType":"address","name":"compounder","type":"address"}],"name":"removeCompounder","outputs":[],"stateMutability":"nonpayable","type":"function"},{"inputs":[{"internalType":"address","name":"operator","type":"address"}],"name":"removeOperator","outputs":[],"stateMutability":"nonpayable","type":"function"},{"inputs":[{"internalType":"bytes32","name":"role","type":"bytes32"},{"internalType":"address","name":"callerConfirmation","type":"address"}],"name":"renounceRole","outputs":[],"stateMutability":"nonpayable","type":"function"},{"inputs":[{"internalType":"bytes32","name":"role","type":"bytes32"},{"internalType":"address","name":"account","type":"address"}],"name":"revokeRole","outputs":[],"stateMutability":"nonpayable","type":"function"},{"inputs":[{"internalType":"uint256","name":"interval","type":"uint256"}],"name":"setMinCompoundInterval","outputs":[],"stateMutability":"nonpayable","type":"function"},{"inputs":[{"internalType":"uint256","name":"","type":"uint256"}],"name":"strategyList","outputs":[{"internalType":"address","name":"","type":"address"}],"stateMutability":"view","type":"function"},{"inputs":[{"internalType":"address","name":"","type":"address"}],"name":"strategyNames","outputs":[{"internalType":"string","name":"","type":"string"}],"stateMutability":"view","type":"function"},{"inputs":[{"internalType":"bytes4","name":"interfaceId","type":"bytes4"}],"name":"supportsInterface","outputs":[{"internalType":"bool","name":"","type":"bool"}],"stateMutability":"view","type":"function"},{"inputs":[{"internalType":"bytes32","name":"requestId","type":"bytes32"},{"internalType":"enum VaultController.BridgeStatus","name":"newStatus","type":"uint8"},{"internalType":"string","name":"flareTxHash","type":"string"}],"name":"updateBridgeStatus","outputs":[],"stateMutability":"nonpayable","type":"function"},{"inputs":[{"internalType":"uint256","name":"","type":"uint256"}],"name":"vaultList","outputs":[{"internalType":"address","name":"","type":"address"}],"stateMutability":"view","type":"function"},{"inputs":[{"internalType":"address","name":"vault","type":"address"},{"internalType":"uint256","name":"amount","type":"uint256"}],"name":"withdrawFromStrategies","outputs":[],"stateMutability":"nonpayable","type":"function"}],"evm":{"bytecode":{"linkReferences":{},"object":"6080604052610e1060075534801562000016575f80fd5b5060018055620000275f3362000088565b50620000547f97667070c54ef182b0f5858b034beac1b6f3089aa2d3188bb1e8929f4fa9b9293362000088565b50620000817f29944e936a0f6e1cbaa227df218d7d6025c2a2785db840e42a3425f24e9e68ac3362000088565b5062000134565b5f828152602081815260408083206001600160a01b038516845290915281205460ff166200012b575f838152602081815260408083206001600160a01b03861684529091529020805460ff19166001179055620000e23390565b6001600160a01b0316826001600160a01b0316847f2f8788117e7eff1d82e926ec794901d17c78024a50270940304540a733656f0d60405160405180910390a45060016200012e565b505f5b92915050565b613c4d80620001425f395ff3fe608060405234801561000f575f80fd5b5060043610610255575f3560e01c806391d1485411610140578063c8f568c0116100bf578063e22486be11610084578063e22486be14610577578063e7844ec41461058a578063ef0f0ec3146105b8578063f5b541a6146105da578063fd35d886146105ee578063feb4a71d14610610575f80fd5b8063c8f568c0146104f6578063cfd8b4921461051e578063d4b5bbc814610531578063d547741f14610551578063e0b625f514610564575f80fd5b8063aa121dcb11610105578063aa121dcb14610494578063ac3fea331461049d578063ac8a584a146104bd578063b17e6e23146104d0578063bb9dd1e3146104e3575f80fd5b806391d148541461044b57806393a2a1081461045e5780639870d7fe14610467578063a217fddf1461047a578063a267526b14610481575f80fd5b806353040960116101d757806370ae305b1161019c57806370ae305b146103c4578063738d2e89146103d757806374d4e491146103ea5780637f17c58f146103f257806384824d761461040557806388b0e1fc14610418575f80fd5b8063530409601461035a57806360b414111461036d578063656ae5eb1461039457806367ccd1cb1461039d578063684cb274146103b0575f80fd5b80632f2ff15d1161021d5780632f2ff15d1461030457806331e19cfa1461031957806336568abe1461032157806338e270ed146103345780633e32e7ea14610347575f80fd5b806301ffc9a7146102595780630ec280ba14610281578063248a9ca314610298578063277d3d54146102ba5780632d8efbc5146102d9575b5f80fd5b61026c6102673660046132a6565b610623565b60405190151581526020015b60405180910390f35b61028a61138881565b604051908152602001610278565b61028a6102a63660046132cd565b5f9081526020819052604090206001015490565b61028a6102c83660046132f8565b60086020525f908152604090205481565b6102ec6102e73660046132cd565b610659565b6040516001600160a01b039091168152602001610278565b610317610312366004613313565b610681565b005b60055461028a565b61031761032f366004613313565b6106ab565b6103176103423660046132f8565b6106e3565b6103176103553660046132f8565b610776565b6103176103683660046132cd565b6109f6565b61038061037b3660046132cd565b610a06565b6040516102789897969594939291906133b8565b61028a610fa081565b6103176103ab3660046132f8565b610b67565b61028a5f80516020613bf883398151915281565b6103176103d23660046132f8565b610c65565b6103176103e53660046132f8565b610c86565b60035461028a565b61031761040036600461346c565b610ca7565b61028a6104133660046134bd565b610e2f565b61042b6104263660046132f8565b61103a565b604080519485526020850193909352918301526060820152608001610278565b61026c610459366004613313565b611382565b61028a6103e881565b6103176104753660046132f8565b6113aa565b61028a5f81565b6102ec61048f3660046132cd565b611402565b61028a60075481565b6104b06104ab3660046132f8565b611411565b604051610278919061352b565b6103176104cb3660046132f8565b6114a8565b6103176104de36600461353d565b611500565b61026c6104f136600461353d565b6119d3565b610509610504366004613567565b611b55565b60408051928352602083019190915201610278565b61031761052c3660046135a7565b611b72565b61054461053f3660046132cd565b611c58565b6040516102789190613602565b61031761055f366004613313565b611e52565b6103176105723660046132f8565b611e76565b61031761058536600461353d565b611f95565b61059d61059836600461353d565b612475565b60408051938452602084019290925290820152606001610278565b61026c6105c63660046132f8565b60026020525f908152604090205460ff1681565b61028a5f80516020613bd883398151915281565b61026c6105fc3660046132f8565b60046020525f908152604090205460ff1681565b61031761061e3660046132f8565b61260b565b5f6001600160e01b03198216637965db0b60e01b148061065357506301ffc9a760e01b6001600160e01b03198316145b92915050565b60038181548110610668575f80fd5b5f918252602090912001546001600160a01b0316905081565b5f8281526020819052604090206001015461069b816126e5565b6106a583836126f2565b50505050565b6001600160a01b03811633146106d45760405163334bd91960e11b815260040160405180910390fd5b6106de8282612781565b505050565b5f6106ed816126e5565b6001600160a01b0382165f9081526002602052604090205460ff1661072d5760405162461bcd60e51b8152600401610724906136a4565b60405180910390fd5b6001600160a01b0382165f81815260026020526040808220805460ff19169055517ff8769b01493238f5c26a42a7b690cb1ff2b53a7d89d9a57e6332458703db8b049190a25050565b5f80516020613bd883398151915261078d816126e5565b6107956127ea565b6001600160a01b0382165f9081526002602052604090205460ff166107cc5760405162461bcd60e51b8152600401610724906136a4565b60405163222c387f60e21b81526001600160a01b03831660048201525f9081908190819030906388b0e1fc90602401608060405180830381865afa158015610816573d5f803e3d5ffd5b505050506040513d601f19601f8201168201806040525081019061083a91906136d2565b9350935093509350805f0361085257505050506109e9565b5f6127106108626103e884613719565b61086c9190613730565b90505f610897604051806040016040528060078152602001664b696e6574696360c81b815250612814565b90505f6108c460405180604001604052806009815260200168119a5c995b1a59da1d60ba1b815250612814565b9050828711156108e8576108e3896108dc858a61374f565b848461290c565b610908565b8287101561090857610908896108fe898661374f565b888886868a612c8a565b60405163222c387f60e21b81526001600160a01b038a1660048201525f908190819030906388b0e1fc90602401608060405180830381865afa158015610950573d5f803e3d5ffd5b505050506040513d601f19601f8201168201806040525081019061097491906136d2565b50604080518e8152602081018590529081018d905260608101839052608081018c905260a0810182905292955090935091506001600160a01b038d16907fc7b04f8103feca14b7d0c3e7a285d289e882cadb1ff9506dce5ee59ec8b3110d9060c00160405180910390a2505050505050505050505b6109f260018055565b5050565b5f610a00816126e5565b50600755565b60096020525f908152604090208054600182015460028301546003840154600485015460058601546006870180546001600160a01b0397881698969097169694959394929360ff90921692610a5a90613762565b80601f0160208091040260200160405190810160405280929190818152602001828054610a8690613762565b8015610ad15780601f10610aa857610100808354040283529160200191610ad1565b820191905f5260205f20905b815481529060010190602001808311610ab457829003601f168201915b505050505090806007018054610ae690613762565b80601f0160208091040260200160405190810160405280929190818152602001828054610b1290613762565b8015610b5d5780601f10610b3457610100808354040283529160200191610b5d565b820191905f5260205f20905b815481529060010190602001808311610b4057829003601f168201915b5050505050905088565b5f610b71816126e5565b6001600160a01b0382165f9081526002602052604090205460ff1615610bd95760405162461bcd60e51b815260206004820152601860248201527f5661756c7420616c7265616479207265676973746572656400000000000000006044820152606401610724565b6001600160a01b0382165f81815260026020526040808220805460ff1916600190811790915560038054918201815583527fc2575a0e9e593c00f959f8c92f12db2869c3395a3b0502d05e2516446f71f85b0180546001600160a01b03191684179055517f8e0930709528779f1112249aac8fcca15dbb9c595db31092c7bc7f954b5679339190a25050565b5f610c6f816126e5565b6109f25f80516020613bf883398151915283611e52565b5f610c90816126e5565b6109f25f80516020613bf883398151915283610681565b5f610cb1816126e5565b6001600160a01b038416610d075760405162461bcd60e51b815260206004820152601860248201527f496e76616c6964207374726174656779206164647265737300000000000000006044820152606401610724565b6001600160a01b0384165f9081526004602052604090205460ff1615610d6f5760405162461bcd60e51b815260206004820152601b60248201527f537472617465677920616c7265616479207265676973746572656400000000006044820152606401610724565b6001600160a01b0384165f818152600460209081526040808320805460ff191660019081179091556005805491820190557f036b6384b5eca791c62761152d0c79bb0604c104a5fb6f4eb0703f3154bb3db00180546001600160a01b031916851790559282526006905220610de58385836137fb565b50836001600160a01b03167f10f21c9cf836093601e448ac3b2a1a0814d1b9251b2e30c7a50dc261449517488484604051610e219291906138b7565b60405180910390a250505050565b5f5f80516020613bd8833981519152610e47816126e5565b6040516bffffffffffffffffffffffff19606089811b8216602084015288901b166034820152604881018690524260688201525f90608801604051602081830303815290604052805190602001209050604051806101000160405280896001600160a01b03168152602001886001600160a01b031681526020018781526020018781526020014281526020015f6006811115610ee557610ee5613341565b815260200186868080601f0160208091040260200160405190810160405280939291908181526020018383808284375f92018290525093855250506040805160208181018352848252948501528583526009845291829020845181546001600160a01b039182166001600160a01b03199182161783559486015160018084018054929093169190961617905591840151600283015550606083015160038201556080830151600482015560a083015160058201805492939192909160ff1990911690836006811115610fb957610fb9613341565b021790555060c08201516006820190610fd290826138e5565b5060e08201516007820190610fe790826138e5565b50905050876001600160a01b0316817f1f0060bef00d471c887f1108b9bded19641191671c6b6dc19eb8103bce17f6fa8860405161102791815260200190565b60405180910390a3979650505050505050565b6001600160a01b0381165f9081526002602052604081205481908190819060ff166110775760405162461bcd60e51b8152600401610724906136a4565b5f8590505f816001600160a01b03166338d52e0f6040518163ffffffff1660e01b8152600401602060405180830381865afa1580156110b8573d5f803e3d5ffd5b505050506040513d601f19601f820116820180604052508101906110dc91906139a1565b6040516370a0823160e01b81526001600160a01b038481166004830152919250908216906370a0823190602401602060405180830381865afa158015611124573d5f803e3d5ffd5b505050506040513d601f19601f8201168201806040525081019061114891906139bc565b95505f5b600554811015611361575f6005828154811061116a5761116a6139d3565b5f9182526020808320909101546001600160a01b0316808352600490915260409091205490915060ff1661119e575061134f565b6001600160a01b0381165f90815260066020526040812080546111c090613762565b80601f01602080910402602001604051908101604052809291908181526020018280546111ec90613762565b80156112375780601f1061120e57610100808354040283529160200191611237565b820191905f5260205f20905b81548152906001019060200180831161121a57829003601f168201915b505050505090505f826001600160a01b03166301e1d1146040518163ffffffff1660e01b8152600401602060405180830381865afa925050508015611299575060408051601f3d908101601f19168201909252611296918101906139bc565b60015b6112a457505f6112a7565b90505b6040805180820190915260078152664b696e6574696360c81b6020918201528251908301207f803b973cde83d6b3fff0d52604b8c3080aa09a2cd882b962dd02b56167c1b7cf016112fa5780985061134b565b604080518082019091526009815268119a5c995b1a59da1d60ba1b6020918201528251908301207f9c8f4823b09f1db4212dd7d528b5c908da85f6e7320b005572ddca34a89f874c0161134b578097505b5050505b80611359816139e7565b91505061114c565b508361136d86886139ff565b61137791906139ff565b925050509193509193565b5f918252602082815260408084206001600160a01b0393909316845291905290205460ff1690565b5f6113b4816126e5565b6113cb5f80516020613bd883398151915283610681565b6040516001600160a01b038316907fac6fa858e9350a46cec16539926e0fde25b7629f84b5a72bffaae4df888ae86d905f90a25050565b60058181548110610668575f80fd5b60066020525f90815260409020805461142990613762565b80601f016020809104026020016040519081016040528092919081815260200182805461145590613762565b80156114a05780601f10611477576101008083540402835291602001916114a0565b820191905f5260205f20905b81548152906001019060200180831161148357829003601f168201915b505050505081565b5f6114b2816126e5565b6114c95f80516020613bd883398151915283611e52565b6040516001600160a01b038316907f80c0b871b97b595b16a7741c1b06fed0c6f6f558639f18ccbce50724325dc40d905f90a25050565b5f80516020613bd8833981519152611517816126e5565b61151f6127ea565b6001600160a01b0383165f9081526002602052604090205460ff166115565760405162461bcd60e51b8152600401610724906136a4565b5f82116115a55760405162461bcd60e51b815260206004820152601d60248201527f416d6f756e74206d7573742062652067726561746572207468616e20300000006044820152606401610724565b5f6115ce604051806040016040528060078152602001664b696e6574696360c81b815250612814565b90505f6115fb60405180604001604052806009815260200168119a5c995b1a59da1d60ba1b815250612814565b90506001600160a01b03821615158061161c57506001600160a01b03811615155b6116685760405162461bcd60e51b815260206004820152601860248201527f4e6f2073747261746567696573207265676973746572656400000000000000006044820152606401610724565b5f806001600160a01b038416156116db57836001600160a01b03166301e1d1146040518163ffffffff1660e01b8152600401602060405180830381865afa9250505080156116d3575060408051601f3d908101601f191682019092526116d0918101906139bc565b60015b156116db5791505b6001600160a01b0383161561174c57826001600160a01b03166301e1d1146040518163ffffffff1660e01b8152600401602060405180830381865afa925050508015611744575060408051601f3d908101601f19168201909252611741918101906139bc565b60015b1561174c5790505b5f61175782846139ff565b9050868110156117a95760405162461bcd60e51b815260206004820152601f60248201527f496e73756666696369656e74207374726174656779206c6971756964697479006044820152606401610724565b87876001600160a01b038616158015906117c257505f81115b15611885578315611885575f8482116117db57816117dd565b845b6040516316a7a12b60e31b81529091506001600160a01b0384169063b53d09589061180e908a908590600401613a12565b5f604051808303815f87803b158015611825575f80fd5b505af1158015611837573d5f803e3d5ffd5b505050508082611847919061374f565b9150866001600160a01b03168b6001600160a01b03165f80516020613b988339815191528360405161187b91815260200190565b60405180910390a3505b6001600160a01b0387161580159061189c57505f81115b1561195f57841561195f575f8582116118b557816118b7565b855b6040516316a7a12b60e31b81529091506001600160a01b0384169063b53d0958906118e8908b908590600401613a12565b5f604051808303815f87803b1580156118ff575f80fd5b505af1158015611911573d5f803e3d5ffd5b505050508082611921919061374f565b9150876001600160a01b03168b6001600160a01b03165f80516020613b988339815191528360405161195591815260200190565b60405180910390a3505b80158061196b57508881105b6119c35760405162461bcd60e51b8152602060048201526024808201527f496e73756666696369656e74206c697175696469747920696e207374726174656044820152636769657360e01b6064820152608401610724565b505050505050506106de60018055565b6001600160a01b0382165f9081526002602052604081205460ff16611a0a5760405162461bcd60e51b8152600401610724906136a4565b60405163222c387f60e21b81526001600160a01b03841660048201525f9081908190819030906388b0e1fc90602401608060405180830381865afa158015611a54573d5f803e3d5ffd5b505050506040513d601f19601f82011682018060405250810190611a7891906136d2565b9350935093509350805f03611a93575f945050505050610653565b6040516339e113b160e21b81525f9081908190309063e7844ec490611abe908d908890600401613a12565b606060405180830381865afa158015611ad9573d5f803e3d5ffd5b505050506040513d601f19601f82011682018060405250810190611afd9190613a2b565b9250925092505f611b0f888587612eb5565b90505f611b1d888588612eb5565b90505f611b2b888589612eb5565b90508b831180611b3a57508b82115b80611b4457508b81115b9d9c50505050505050505050505050565b5f80611b648787878787612f24565b915091509550959350505050565b5f80516020613bd8833981519152611b89816126e5565b5f8581526009602052604090206004810154611bdb5760405162461bcd60e51b815260206004820152601160248201527014995c5d595cdd081b9bdd08199bdd5b99607a1b6044820152606401610724565b60058101805486919060ff19166001836006811115611bfc57611bfc613341565b02179055508215611c185760078101611c168486836137fb565b505b857f97ed9d84b17cab14ff4200e765d9126d7274000fa00bbbac0621925331bc4abf86604051611c489190613a56565b60405180910390a2505050505050565b611c9f60408051610100810182525f8082526020820181905291810182905260608101829052608081018290529060a0820190815260200160608152602001606081525090565b5f8281526009602090815260409182902082516101008101845281546001600160a01b039081168252600183015416928101929092526002810154928201929092526003820154606082015260048201546080820152600582015490919060a083019060ff166006811115611d1657611d16613341565b6006811115611d2757611d27613341565b8152602001600682018054611d3b90613762565b80601f0160208091040260200160405190810160405280929190818152602001828054611d6790613762565b8015611db25780601f10611d8957610100808354040283529160200191611db2565b820191905f5260205f20905b815481529060010190602001808311611d9557829003601f168201915b50505050508152602001600782018054611dcb90613762565b80601f0160208091040260200160405190810160405280929190818152602001828054611df790613762565b8015611e425780601f10611e1957610100808354040283529160200191611e42565b820191905f5260205f20905b815481529060010190602001808311611e2557829003601f168201915b5050505050815250509050919050565b5f82815260208190526040902060010154611e6c816126e5565b6106a58383612781565b5f80516020613bf8833981519152611e8d816126e5565b611e956127ea565b6001600160a01b0382165f9081526002602052604090205460ff16611ecc5760405162461bcd60e51b8152600401610724906136a4565b6007546001600160a01b0383165f90815260086020526040902054611ef191906139ff565b421015611f405760405162461bcd60e51b815260206004820152601d60248201527f436f6d706f756e6420696e74657276616c206e6f7420726561636865640000006044820152606401610724565b6001600160a01b0382165f818152600860209081526040808320429055519182527fca542b171f04023bc049135ad0197f67f934173e08a75e9a19fd920097428baf910160405180910390a26109f260018055565b5f80516020613bd8833981519152611fac816126e5565b611fb46127ea565b6001600160a01b0383165f9081526002602052604090205460ff16611feb5760405162461bcd60e51b8152600401610724906136a4565b60405163222c387f60e21b81526001600160a01b03841660048201525f9081908190819030906388b0e1fc90602401608060405180830381865afa158015612035573d5f803e3d5ffd5b505050506040513d601f19601f8201168201806040525081019061205991906136d2565b6040516339e113b160e21b8152939750919550935091505f90309063e7844ec49061208a908b908690600401613a12565b606060405180830381865afa1580156120a5573d5f803e3d5ffd5b505050506040513d601f19601f820116820180604052508101906120c99190613a2b565b505090505f818611156120e7576120e0828761374f565b9050612149565b60405162461bcd60e51b815260206004820152603160248201527f42756666657220616c7265616479206174206f722062656c6f7720746172676560448201527074202d2063616e6e6f74206465706c6f7960781b6064820152608401610724565b5f8811801561215757508088105b1561215f5750865b5f81116121b85760405162461bcd60e51b815260206004820152602160248201527f4e6f2066756e647320617661696c61626c6520666f72206465706c6f796d656e6044820152601d60fa1b6064820152608401610724565b808610156122085760405162461bcd60e51b815260206004820152601c60248201527f496e73756666696369656e74207661756c74206c6971756964697479000000006044820152606401610724565b5f612231604051806040016040528060078152602001664b696e6574696360c81b815250612814565b90505f61225e60405180604001604052806009815260200168119a5c995b1a59da1d60ba1b815250612814565b90506001600160a01b0382166122b65760405162461bcd60e51b815260206004820152601f60248201527f4b696e65746963207374726174656779206e6f742072656769737465726564006044820152606401610724565b6001600160a01b0381166123165760405162461bcd60e51b815260206004820152602160248201527f466972656c69676874207374726174656779206e6f74207265676973746572656044820152601960fa1b6064820152608401610724565b5f806123258d868b8b8b612f24565b909250905081156123c65760405163f6c00db960e01b81526001600160a01b038e169063f6c00db99061235e9087908690600401613a12565b5f604051808303815f87803b158015612375575f80fd5b505af1158015612387573d5f803e3d5ffd5b50505050836001600160a01b03168d6001600160a01b03165f80516020613bb8833981519152846040516123bd91815260200190565b60405180910390a35b80156124625760405163f6c00db960e01b81526001600160a01b038e169063f6c00db9906123fa9086908590600401613a12565b5f604051808303815f87803b158015612411575f80fd5b505af1158015612423573d5f803e3d5ffd5b50505050826001600160a01b03168d6001600160a01b03165f80516020613bb88339815191528360405161245991815260200190565b60405180910390a35b505050505050505050506106de60018055565b6001600160a01b0382165f908152600260205260408120548190819060ff166124b05760405162461bcd60e51b8152600401610724906136a4565b5f6124da86604051806040016040528060078152602001664b696e6574696360c81b8152506130cb565b90505f6125088760405180604001604052806009815260200168119a5c995b1a59da1d60ba1b8152506130cb565b90505f612515888461316d565b90505f612522898461316d565b90506127106125336103e88a613719565b61253d9190613730565b96508180156125495750805b156125895761271061255d610fa08a613719565b6125679190613730565b95506127106125786113888a613719565b6125829190613730565b9450612600565b818015612594575080155b156125c8576127106125aa611388610fa06139ff565b6125b4908a613719565b6125be9190613730565b95505f9450612600565b811580156125d35750805b156125f6575f95506127106125ec611388610fa06139ff565b612578908a613719565b8796505f95505f94505b505050509250925092565b5f612615816126e5565b6001600160a01b0382165f9081526004602052604090205460ff1661267c5760405162461bcd60e51b815260206004820152601760248201527f5374726174656779206e6f7420726567697374657265640000000000000000006044820152606401610724565b6001600160a01b0382165f908152600460209081526040808320805460ff19169055600690915281206126ae9161325c565b6040516001600160a01b038316907fe06c76aaa899d6e50c29b6042203fd0da283c14440160adca192e845196a0419905f90a25050565b6126ef8133613231565b50565b5f6126fd8383611382565b61277a575f838152602081815260408083206001600160a01b03861684529091529020805460ff191660011790556127323390565b6001600160a01b0316826001600160a01b0316847f2f8788117e7eff1d82e926ec794901d17c78024a50270940304540a733656f0d60405160405180910390a4506001610653565b505f610653565b5f61278c8383611382565b1561277a575f838152602081815260408083206001600160a01b0386168085529252808320805460ff1916905551339286917ff6391f5c32d9c69d2a47ea670b442974b53935d1edc7fd64eb21e047a839171b9190a4506001610653565b60026001540361280d57604051633ee5aeb560e01b815260040160405180910390fd5b6002600155565b5f805b6005548110156129045760045f60058381548110612837576128376139d3565b5f9182526020808320909101546001600160a01b0316835282019290925260400190205460ff1680156128bf5750828051906020012060065f60058481548110612883576128836139d3565b5f9182526020808320909101546001600160a01b03168352820192909252604090810190912090516128b59190613a64565b6040518091039020145b156128f257600581815481106128d7576128d76139d3565b5f918252602090912001546001600160a01b03169392505050565b806128fc816139e7565b915050612817565b505f92915050565b60405163222c387f60e21b81526001600160a01b03851660048201525f9081908190819030906388b0e1fc90602401608060405180830381865afa158015612956573d5f803e3d5ffd5b505050506040513d601f19601f8201168201806040525081019061297a91906136d2565b6040516339e113b160e21b8152939750919550935091505f90309063e7844ec4906129ab908c908690600401613a12565b606060405180830381865afa1580156129c6573d5f803e3d5ffd5b505050506040513d601f19601f820116820180604052508101906129ea9190613a2b565b505090505f81861115612a0857612a01828761374f565b9050612a13565b5050505050506106a5565b80891015612a1e5750875b80861015612a835760405162461bcd60e51b815260206004820152602c60248201527f496e73756666696369656e74207661756c74206c697175696469747920666f7260448201526b20726562616c616e63696e6760a01b6064820152608401610724565b604051630323d5a360e61b81526001600160a01b038b166004820152602481018290526044810186905260648101859052608481018490525f908190309063c8f568c09060a4016040805180830381865afa925050508015612b02575060408051601f3d908101601f19168201909252612aff91810190613ad6565b60015b612b135750505050505050506106a5565b90925090506001600160a01b038a1615801590612b2f57505f82115b15612bca5760405163f6c00db960e01b81526001600160a01b038d169063f6c00db990612b62908d908690600401613a12565b5f604051808303815f87803b158015612b79575f80fd5b505af1158015612b8b573d5f803e3d5ffd5b50505050896001600160a01b03168c6001600160a01b03165f80516020613bb883398151915284604051612bc191815260200190565b60405180910390a35b6001600160a01b03891615801590612be157505f81115b15612c7c5760405163f6c00db960e01b81526001600160a01b038d169063f6c00db990612c14908c908590600401613a12565b5f604051808303815f87803b158015612c2b575f80fd5b505af1158015612c3d573d5f803e3d5ffd5b50505050886001600160a01b03168c6001600160a01b03165f80516020613bb883398151915283604051612c7391815260200190565b60405180910390a35b505050505050505050505050565b6040516339e113b160e21b815287905f908190309063e7844ec490612cb59086908890600401613a12565b606060405180830381865afa158015612cd0573d5f803e3d5ffd5b505050506040513d601f19601f82011682018060405250810190612cf49190613a2b565b9093509150506001600160a01b03851615801590612d1157508087115b15612dd3575f612d21828961374f565b905089811115612d2e5750885b6040516316a7a12b60e31b81526001600160a01b0385169063b53d095890612d5c9089908590600401613a12565b5f604051808303815f87803b158015612d73575f80fd5b505af1158015612d85573d5f803e3d5ffd5b50505050808a612d95919061374f565b9950856001600160a01b03168b6001600160a01b03165f80516020613b9883398151915283604051612dc991815260200190565b60405180910390a3505b6001600160a01b03861615801590612dea57505f89115b8015612df557508188115b15612ea9575f612e05838a61374f565b905089811115612e125750885b6040516316a7a12b60e31b81526001600160a01b0385169063b53d095890612e40908a908590600401613a12565b5f604051808303815f87803b158015612e57575f80fd5b505af1158015612e69573d5f803e3d5ffd5b50505050866001600160a01b03168b6001600160a01b03165f80516020613b9883398151915283604051612e9f91815260200190565b60405180910390a3505b50505050505050505050565b5f815f03612ec457505f612f1d565b5f82612ed286612710613719565b612edc9190613730565b90505f83612eec86612710613719565b612ef69190613730565b905080821115612f1357612f0a818361374f565b92505050612f1d565b612f0a828261374f565b9392505050565b5f805f80306001600160a01b031663e7844ec48a876040518363ffffffff1660e01b8152600401612f56929190613a12565b606060405180830381865afa158015612f71573d5f803e3d5ffd5b505050506040513d601f19601f82011682018060405250810190612f959190613a2b565b92509250505f8783612fa79190613af8565b90505f612fb48884613af8565b90505f82138015612fc457505f81135b156130165781815f612fd682846139ff565b9050808d10612fea5782985081975061300e565b80612ff5848f613719565b612fff9190613730565b985061300b898e61374f565b97505b5050506130bd565b5f8213156130395781808b1061302c578061302e565b8a5b96505f9550506130bd565b5f81131561305c575f955080808b106130525780613054565b8a5b9550506130bd565b60405162461bcd60e51b815260206004820152603060248201527f5374726174656769657320616c7265616479206174206f722061626f7665207460448201526f30b933b2ba1030b63637b1b0ba34b7b760811b6064820152608401610724565b505050509550959350505050565b5f806130d683612814565b90506001600160a01b0381166130ef575f915050610653565b6040516354192ad560e01b81526001600160a01b0382811660048301528516906354192ad59060240160a060405180830381865afa925050508015613151575060408051601f3d908101601f1916820190925261314e91810190613b17565b60015b61315e575f915050610653565b509050610653565b5092915050565b5f6001600160a01b03821661318357505f610653565b6040516354192ad560e01b81526001600160a01b0383811660048301528416906354192ad59060240160a060405180830381865afa9250505080156131e5575060408051601f3d908101601f191682019092526131e291810190613b17565b60015b6131f057505f610653565b60018160400151600381111561320857613208613341565b1480613229575060028160400151600381111561322757613227613341565b145b915050610653565b61323b8282611382565b6109f257808260405163e2517d3f60e01b8152600401610724929190613a12565b50805461326890613762565b5f825580601f10613277575050565b601f0160209004905f5260205f20908101906126ef91905b808211156132a2575f815560010161328f565b5090565b5f602082840312156132b6575f80fd5b81356001600160e01b031981168114612f1d575f80fd5b5f602082840312156132dd575f80fd5b5035919050565b6001600160a01b03811681146126ef575f80fd5b5f60208284031215613308575f80fd5b8135612f1d816132e4565b5f8060408385031215613324575f80fd5b823591506020830135613336816132e4565b809150509250929050565b634e487b7160e01b5f52602160045260245ffd5b6007811061337157634e487b7160e01b5f52602160045260245ffd5b9052565b5f81518084525f5b818110156133995760208185018101518683018201520161337d565b505f602082860101526020601f19601f83011685010191505092915050565b6001600160a01b038981168252881660208201526040810187905260608101869052608081018590525f6101006133f260a0840187613355565b8060c084015261340481840186613375565b905082810360e08401526134188185613375565b9b9a5050505050505050505050565b5f8083601f840112613437575f80fd5b50813567ffffffffffffffff81111561344e575f80fd5b602083019150836020828501011115613465575f80fd5b9250929050565b5f805f6040848603121561347e575f80fd5b8335613489816132e4565b9250602084013567ffffffffffffffff8111156134a4575f80fd5b6134b086828701613427565b9497909650939450505050565b5f805f805f608086880312156134d1575f80fd5b85356134dc816132e4565b945060208601356134ec816132e4565b935060408601359250606086013567ffffffffffffffff81111561350e575f80fd5b61351a88828901613427565b969995985093965092949392505050565b602081525f612f1d6020830184613375565b5f806040838503121561354e575f80fd5b8235613559816132e4565b946020939093013593505050565b5f805f805f60a0868803121561357b575f80fd5b8535613586816132e4565b97602087013597506040870135966060810135965060800135945092505050565b5f805f80606085870312156135ba575f80fd5b843593506020850135600781106135cf575f80fd5b9250604085013567ffffffffffffffff8111156135ea575f80fd5b6135f687828801613427565b95989497509550505050565b602080825282516001600160a01b0316828201528201515f9061363060408401826001600160a01b03169052565b506040830151606083015260608301516080830152608083015160a083015260a083015161366160c0840182613355565b5060c08301516101008060e085015261367e610120850183613375565b915060e0850151601f19858403018286015261369a8382613375565b9695505050505050565b60208082526014908201527315985d5b1d081b9bdd081c9959da5cdd195c995960621b604082015260600190565b5f805f80608085870312156136e5575f80fd5b505082516020840151604085015160609095015191969095509092509050565b634e487b7160e01b5f52601160045260245ffd5b808202811582820484141761065357610653613705565b5f8261374a57634e487b7160e01b5f52601260045260245ffd5b500490565b8181038181111561065357610653613705565b600181811c9082168061377657607f821691505b60208210810361379457634e487b7160e01b5f52602260045260245ffd5b50919050565b634e487b7160e01b5f52604160045260245ffd5b601f8211156106de575f81815260208120601f850160051c810160208610156137d45750805b601f850160051c820191505b818110156137f3578281556001016137e0565b505050505050565b67ffffffffffffffff8311156138135761381361379a565b613827836138218354613762565b836137ae565b5f601f841160018114613858575f85156138415750838201355b5f19600387901b1c1916600186901b1783556138b0565b5f83815260209020601f19861690835b828110156138885786850135825560209485019460019092019101613868565b50868210156138a4575f1960f88860031b161c19848701351681555b505060018560011b0183555b5050505050565b60208152816020820152818360408301375f818301604090810191909152601f909201601f19160101919050565b815167ffffffffffffffff8111156138ff576138ff61379a565b6139138161390d8454613762565b846137ae565b602080601f831160018114613946575f841561392f5750858301515b5f19600386901b1c1916600185901b1785556137f3565b5f85815260208120601f198616915b8281101561397457888601518255948401946001909101908401613955565b508582101561399157878501515f19600388901b60f8161c191681555b5050505050600190811b01905550565b5f602082840312156139b1575f80fd5b8151612f1d816132e4565b5f602082840312156139cc575f80fd5b5051919050565b634e487b7160e01b5f52603260045260245ffd5b5f600182016139f8576139f8613705565b5060010190565b8082018082111561065357610653613705565b6001600160a01b03929092168252602082015260400190565b5f805f60608486031215613a3d575f80fd5b8351925060208401519150604084015190509250925092565b602081016106538284613355565b5f808354613a7181613762565b60018281168015613a895760018114613a9e57613aca565b60ff1984168752821515830287019450613aca565b875f526020805f205f5b85811015613ac15781548a820152908401908201613aa8565b50505082870194505b50929695505050505050565b5f8060408385031215613ae7575f80fd5b505080516020909101519092909150565b8181035f83128015838313168383128216171561316657613166613705565b5f60a08284031215613b27575f80fd5b60405160a0810181811067ffffffffffffffff82111715613b4a57613b4a61379a565b6040528251613b58816132e4565b815260208381015190820152604083015160048110613b75575f80fd5b604082015260608381015190820152608092830151928101929092525091905056febabc8124ddaa11119abddcffd699924f857c9a15f1fc50be38069e96a47ae8c0b7ac28ede4873dc81919ca509f636bd6abb29ad51243fae38a59aea768729dde97667070c54ef182b0f5858b034beac1b6f3089aa2d3188bb1e8929f4fa9b92929944e936a0f6e1cbaa227df218d7d6025c2a2785db840e42a3425f24e9e68aca2646970667358221220442bbdb029f73888f25cb69fc025ed82f374ba87ab5649b3f2b19cbb0f25821964736f6c63430008140033","opcodes":"PUSH1 0x80 PUSH1 0x40 MSTORE PUSH2 0xE10 PUSH1 0x7 SSTORE CALLVALUE DUP1 ISZERO PUSH3 0x16 JUMPI PUSH0 DUP1 REVERT JUMPDEST POP PUSH1 0x1 DUP1 SSTORE PUSH3 0x27 PUSH0 CALLER PUSH3 0x88 JUMP JUMPDEST POP PUSH3 0x54 PUSH32 0x97667070C54EF182B0F5858B034BEAC1B6F3089AA2D3188BB1E8929F4FA9B929 CALLER PUSH3 0x88 JUMP JUMPDEST POP PUSH3 0x81 PUSH32 0x29944E936A0F6E1CBAA227DF218D7D6025C2A2785DB840E42A3425F24E9E68AC CALLER PUSH3 0x88 JUMP JUMPDEST POP PUSH3 0x134 JUMP JUMPDEST PUSH0 DUP3 DUP2 MSTORE PUSH1 0x20 DUP2 DUP2 MSTORE PUSH1 0x40 DUP1 DUP4 KECCAK256 PUSH1 0x1 PUSH1 0x1 PUSH1 0xA0 SHL SUB DUP6 AND DUP5 MSTORE SWAP1 SWAP2 MSTORE DUP2 KECCAK256 SLOAD PUSH1 0xFF AND PUSH3 0x12B JUMPI PUSH0 DUP4 DUP2 MSTORE PUSH1 0x20 DUP2 DUP2 MSTORE PUSH1 0x40 DUP1 DUP4 KECCAK256 PUSH1 0x1 PUSH1 0x1 PUSH1 0xA0 SHL SUB DUP7 AND DUP5 MSTORE SWAP1 SWAP2 MSTORE SWAP1 KECCAK256 DUP1 SLOAD PUSH1 0xFF NOT AND PUSH1 0x1 OR SWAP1 SSTORE PUSH3 0xE2 CALLER SWAP1 JUMP JUMPDEST PUSH1 0x1 PUSH1 0x1 PUSH1 0xA0 SHL SUB AND DUP3 PUSH1 0x1 PUSH1 0x1 PUSH1 0xA0 SHL SUB AND DUP5 PUSH32 0x2F8788117E7EFF1D82E926EC794901D17C78024A50270940304540A733656F0D PUSH1 0x40 MLOAD PUSH1 0x40 MLOAD DUP1 SWAP2 SUB SWAP1 LOG4 POP PUSH1 0x1 PUSH3 0x12E JUMP JUMPDEST POP PUSH0 JUMPDEST SWAP3 SWAP2 POP POP JUMP JUMPDEST PUSH2 0x3C4D DUP1 PUSH3 0x142 PUSH0 CODECOPY PUSH0 RETURN INVALID PUSH1 0x80 PUSH1 0x40 MSTORE CALLVALUE DUP1 ISZERO PUSH2 0xF JUMPI PUSH0 DUP1 REVERT JUMPDEST POP PUSH1 0x4 CALLDATASIZE LT PUSH2 0x255 JUMPI PUSH0 CALLDATALOAD PUSH1 0xE0 SHR DUP1 PUSH4 0x91D14854 GT PUSH2 0x140 JUMPI DUP1 PUSH4 0xC8F568C0 GT PUSH2 0xBF JUMPI DUP1 PUSH4 0xE22486BE GT PUSH2 0x84 JUMPI DUP1 PUSH4 0xE22486BE EQ PUSH2 0x577 JUMPI DUP1 PUSH4 0xE7844EC4 EQ PUSH2 0x58A JUMPI DUP1 PUSH4 0xEF0F0EC3 EQ PUSH2 0x5B8 JUMPI DUP1 PUSH4 0xF5B541A6 EQ PUSH2 0x5DA JUMPI DUP1 PUSH4 0xFD35D886 EQ PUSH2 0x5EE JUMPI DUP1 PUSH4 0xFEB4A71D EQ PUSH2 0x610 JUMPI PUSH0 DUP1 REVERT JUMPDEST DUP1 PUSH4 0xC8F568C0 EQ PUSH2 0x4F6 JUMPI DUP1 PUSH4 0xCFD8B492 EQ PUSH2 0x51E JUMPI DUP1 PUSH4 0xD4B5BBC8 EQ PUSH2 0x531 JUMPI DUP1 PUSH4 0xD547741F EQ PUSH2 0x551 JUMPI DUP1 PUSH4 0xE0B625F5 EQ PUSH2 0x564 JUMPI PUSH0 DUP1 REVERT JUMPDEST DUP1 PUSH4 0xAA121DCB GT PUSH2 0x105 JUMPI DUP1 PUSH4 0xAA121DCB EQ PUSH2 0x494 JUMPI DUP1 PUSH4 0xAC3FEA33 EQ PUSH2 0x49D JUMPI DUP1 PUSH4 0xAC8A584A EQ PUSH2 0x4BD JUMPI DUP1 PUSH4 0xB17E6E23 EQ PUSH2 0x4D0 JUMPI DUP1 PUSH4 0xBB9DD1E3 EQ PUSH2 0x4E3 JUMPI PUSH0 DUP1 REVERT JUMPDEST DUP1 PUSH4 0x91D14854 EQ PUSH2 0x44B JUMPI DUP1 PUSH4 0x93A2A108 EQ PUSH2 0x45E JUMPI DUP1 PUSH4 0x9870D7FE EQ PUSH2 0x467 JUMPI DUP1 PUSH4 0xA217FDDF EQ PUSH2 0x47A JUMPI DUP1 PUSH4 0xA267526B EQ PUSH2 0x481 JUMPI PUSH0 DUP1 REVERT JUMPDEST DUP1 PUSH4 0x53040960 GT PUSH2 0x1D7 JUMPI DUP1 PUSH4 0x70AE305B GT PUSH2 0x19C JUMPI DUP1 PUSH4 0x70AE305B EQ PUSH2 0x3C4 JUMPI DUP1 PUSH4 0x738D2E89 EQ PUSH2 0x3D7 JUMPI DUP1 PUSH4 0x74D4E491 EQ PUSH2 0x3EA JUMPI DUP1 PUSH4 0x7F17C58F EQ PUSH2 0x3F2 JUMPI DUP1 PUSH4 0x84824D76 EQ PUSH2 0x405 JUMPI DUP1 PUSH4 0x88B0E1FC EQ PUSH2 0x418 JUMPI PUSH0 DUP1 REVERT JUMPDEST DUP1 PUSH4 0x53040960 EQ PUSH2 0x35A JUMPI DUP1 PUSH4 0x60B41411 EQ PUSH2 0x36D JUMPI DUP1 PUSH4 0x656AE5EB EQ PUSH2 0x394 JUMPI DUP1 PUSH4 0x67CCD1CB EQ PUSH2 0x39D JUMPI DUP1 PUSH4 0x684CB274 EQ PUSH2 0x3B0 JUMPI PUSH0 DUP1 REVERT JUMPDEST DUP1 PUSH4 0x2F2FF15D GT PUSH2 0x21D JUMPI DUP1 PUSH4 0x2F2FF15D EQ PUSH2 0x304 JUMPI DUP1 PUSH4 0x31E19CFA EQ PUSH2 0x319 JUMPI DUP1 PUSH4 0x36568ABE EQ PUSH2 0x321 JUMPI DUP1 PUSH4 0x38E270ED EQ PUSH2 0x334 JUMPI DUP1 PUSH4 0x3E32E7EA EQ PUSH2 0x347 JUMPI PUSH0 DUP1 REVERT JUMPDEST DUP1 PUSH4 0x1FFC9A7 EQ PUSH2 0x259 JUMPI DUP1 PUSH4 0xEC280BA EQ PUSH2 0x281 JUMPI DUP1 PUSH4 0x248A9CA3 EQ PUSH2 0x298 JUMPI DUP1 PUSH4 0x277D3D54 EQ PUSH2 0x2BA JUMPI DUP1 PUSH4 0x2D8EFBC5 EQ PUSH2 0x2D9 JUMPI JUMPDEST PUSH0 DUP1 REVERT JUMPDEST PUSH2 0x26C PUSH2 0x267 CALLDATASIZE PUSH1 0x4 PUSH2 0x32A6 JUMP JUMPDEST PUSH2 0x623 JUMP JUMPDEST PUSH1 0x40 MLOAD SWAP1 ISZERO ISZERO DUP2 MSTORE PUSH1 0x20 ADD JUMPDEST PUSH1 0x40 MLOAD DUP1 SWAP2 SUB SWAP1 RETURN JUMPDEST PUSH2 0x28A PUSH2 0x1388 DUP2 JUMP JUMPDEST PUSH1 0x40 MLOAD SWAP1 DUP2 MSTORE PUSH1 0x20 ADD PUSH2 0x278 JUMP JUMPDEST PUSH2 0x28A PUSH2 0x2A6 CALLDATASIZE PUSH1 0x4 PUSH2 0x32CD JUMP JUMPDEST PUSH0 SWAP1 DUP2 MSTORE PUSH1 0x20 DUP2 SWAP1 MSTORE PUSH1 0x40 SWAP1 KECCAK256 PUSH1 0x1 ADD SLOAD SWAP1 JUMP JUMPDEST PUSH2 0x28A PUSH2 0x2C8 CALLDATASIZE PUSH1 0x4 PUSH2 0x32F8 JUMP JUMPDEST PUSH1 0x8 PUSH1 0x20 MSTORE PUSH0 SWAP1 DUP2 MSTORE PUSH1 0x40 SWAP1 KECCAK256 SLOAD DUP2 JUMP JUMPDEST PUSH2 0x2EC PUSH2 0x2E7 CALLDATASIZE PUSH1 0x4 PUSH2 0x32CD JUMP JUMPDEST PUSH2 0x659 JUMP JUMPDEST PUSH1 0x40 MLOAD PUSH1 0x1 PUSH1 0x1 PUSH1 0xA0 SHL SUB SWAP1 SWAP2 AND DUP2 MSTORE PUSH1 0x20 ADD PUSH2 0x278 JUMP JUMPDEST PUSH2 0x317 PUSH2 0x312 CALLDATASIZE PUSH1 0x4 PUSH2 0x3313 JUMP JUMPDEST PUSH2 0x681 JUMP JUMPDEST STOP JUMPDEST PUSH1 0x5 SLOAD PUSH2 0x28A JUMP JUMPDEST PUSH2 0x317 PUSH2 0x32F CALLDATASIZE PUSH1 0x4 PUSH2 0x3313 JUMP JUMPDEST PUSH2 0x6AB JUMP JUMPDEST PUSH2 0x317 PUSH2 0x342 CALLDATASIZE PUSH1 0x4 PUSH2 0x32F8 JUMP JUMPDEST PUSH2 0x6E3 JUMP JUMPDEST PUSH2 0x317 PUSH2 0x355 CALLDATASIZE PUSH1 0x4 PUSH2 0x32F8 JUMP JUMPDEST PUSH2 0x776 JUMP JUMPDEST PUSH2 0x317 PUSH2 0x368 CALLDATASIZE PUSH1 0x4 PUSH2 0x32CD JUMP JUMPDEST PUSH2 0x9F6 JUMP JUMPDEST PUSH2 0x380 PUSH2 0x37B CALLDATASIZE PUSH1 0x4 PUSH2 0x32CD JUMP JUMPDEST PUSH2 0xA06 JUMP JUMPDEST PUSH1 0x40 MLOAD PUSH2 0x278 SWAP9 SWAP8 SWAP7 SWAP6 SWAP5 SWAP4 SWAP3 SWAP2 SWAP1 PUSH2 0x33B8 JUMP JUMPDEST PUSH2 0x28A PUSH2 0xFA0 DUP2 JUMP JUMPDEST PUSH2 0x317 PUSH2 0x3AB CALLDATASIZE PUSH1 0x4 PUSH2 0x32F8 JUMP JUMPDEST PUSH2 0xB67 JUMP JUMPDEST PUSH2 0x28A PUSH0 DUP1 MLOAD PUSH1 0x20 PUSH2 0x3BF8 DUP4 CODECOPY DUP2 MLOAD SWAP2 MSTORE DUP2 JUMP JUMPDEST PUSH2 0x317 PUSH2 0x3D2 CALLDATASIZE PUSH1 0x4 PUSH2 0x32F8 JUMP JUMPDEST PUSH2 0xC65 JUMP JUMPDEST PUSH2 0x317 PUSH2 0x3E5 CALLDATASIZE PUSH1 0x4 PUSH2 0x32F8 JUMP JUMPDEST PUSH2 0xC86 JUMP JUMPDEST PUSH1 0x3 SLOAD PUSH2 0x28A JUMP JUMPDEST PUSH2 0x317 PUSH2 0x400 CALLDATASIZE PUSH1 0x4 PUSH2 0x346C JUMP JUMPDEST PUSH2 0xCA7 JUMP JUMPDEST PUSH2 0x28A PUSH2 0x413 CALLDATASIZE PUSH1 0x4 PUSH2 0x34BD JUMP JUMPDEST PUSH2 0xE2F JUMP JUMPDEST PUSH2 0x42B PUSH2 0x426 CALLDATASIZE PUSH1 0x4 PUSH2 0x32F8 JUMP JUMPDEST PUSH2 0x103A JUMP JUMPDEST PUSH1 0x40 DUP1 MLOAD SWAP5 DUP6 MSTORE PUSH1 0x20 DUP6 ADD SWAP4 SWAP1 SWAP4 MSTORE SWAP2 DUP4 ADD MSTORE PUSH1 0x60 DUP3 ADD MSTORE PUSH1 0x80 ADD PUSH2 0x278 JUMP JUMPDEST PUSH2 0x26C PUSH2 0x459 CALLDATASIZE PUSH1 0x4 PUSH2 0x3313 JUMP JUMPDEST PUSH2 0x1382 JUMP JUMPDEST PUSH2 0x28A PUSH2 0x3E8 DUP2 JUMP JUMPDEST PUSH2 0x317 PUSH2 0x475 CALLDATASIZE PUSH1 0x4 PUSH2 0x32F8 JUMP JUMPDEST PUSH2 0x13AA JUMP JUMPDEST PUSH2 0x28A PUSH0 DUP2 JUMP JUMPDEST PUSH2 0x2EC PUSH2 0x48F CALLDATASIZE PUSH1 0x4 PUSH2 0x32CD JUMP JUMPDEST PUSH2 0x1402 JUMP JUMPDEST PUSH2 0x28A PUSH1 0x7 SLOAD DUP2 JUMP JUMPDEST PUSH2 0x4B0 PUSH2 0x4AB CALLDATASIZE PUSH1 0x4 PUSH2 0x32F8 JUMP JUMPDEST PUSH2 0x1411 JUMP JUMPDEST PUSH1 0x40 MLOAD PUSH2 0x278 SWAP2 SWAP1 PUSH2 0x352B JUMP JUMPDEST PUSH2 0x317 PUSH2 0x4CB CALLDATASIZE PUSH1 0x4 PUSH2 0x32F8 JUMP JUMPDEST PUSH2 0x14A8 JUMP JUMPDEST PUSH2 0x317 PUSH2 0x4DE CALLDATASIZE PUSH1 0x4 PUSH2 0x353D JUMP JUMPDEST PUSH2 0x1500 JUMP JUMPDEST PUSH2 0x26C PUSH2 0x4F1 CALLDATASIZE PUSH1 0x4 PUSH2 0x353D JUMP JUMPDEST PUSH2 0x19D3 JUMP JUMPDEST PUSH2 0x509 PUSH2 0x504 CALLDATASIZE PUSH1 0x4 PUSH2 0x3567 JUMP JUMPDEST PUSH2 0x1B55 JUMP JUMPDEST PUSH1 0x40 DUP1 MLOAD SWAP3 DUP4 MSTORE PUSH1 0x20 DUP4 ADD SWAP2 SWAP1 SWAP2 MSTORE ADD PUSH2 0x278 JUMP JUMPDEST PUSH2 0x317 PUSH2 0x52C CALLDATASIZE PUSH1 0x4 PUSH2 0x35A7 JUMP JUMPDEST PUSH2 0x1B72 JUMP JUMPDEST PUSH2 0x544 PUSH2 0x53F CALLDATASIZE PUSH1 0x4 PUSH2 0x32CD JUMP JUMPDEST PUSH2 0x1C58 JUMP JUMPDEST PUSH1 0x40 MLOAD PUSH2 0x278 SWAP2 SWAP1 PUSH2 0x3602 JUMP JUMPDEST PUSH2 0x317 PUSH2 0x55F CALLDATASIZE PUSH1 0x4 PUSH2 0x3313 JUMP JUMPDEST PUSH2 0x1E52 JUMP JUMPDEST PUSH2 0x317 PUSH2 0x572 CALLDATASIZE PUSH1 0x4 PUSH2 0x32F8 JUMP JUMPDEST PUSH2 0x1E76 JUMP JUMPDEST PUSH2 0x317 PUSH2 0x585 CALLDATASIZE PUSH1 0x4 PUSH2 0x353D JUMP JUMPDEST PUSH2 0x1F95 JUMP JUMPDEST PUSH2 0x59D PUSH2 0x598 CALLDATASIZE PUSH1 0x4 PUSH2 0x353D JUMP JUMPDEST PUSH2 0x2475 JUMP JUMPDEST PUSH1 0x40 DUP1 MLOAD SWAP4 DUP5 MSTORE PUSH1 0x20 DUP5 ADD SWAP3 SWAP1 SWAP3 MSTORE SWAP1 DUP3 ADD MSTORE PUSH1 0x60 ADD PUSH2 0x278 JUMP JUMPDEST PUSH2 0x26C PUSH2 0x5C6 CALLDATASIZE PUSH1 0x4 PUSH2 0x32F8 JUMP JUMPDEST PUSH1 0x2 PUSH1 0x20 MSTORE PUSH0 SWAP1 DUP2 MSTORE PUSH1 0x40 SWAP1 KECCAK256 SLOAD PUSH1 0xFF AND DUP2 JUMP JUMPDEST PUSH2 0x28A PUSH0 DUP1 MLOAD PUSH1 0x20 PUSH2 0x3BD8 DUP4 CODECOPY DUP2 MLOAD SWAP2 MSTORE DUP2 JUMP JUMPDEST PUSH2 0x26C PUSH2 0x5FC CALLDATASIZE PUSH1 0x4 PUSH2 0x32F8 JUMP JUMPDEST PUSH1 0x4 PUSH1 0x20 MSTORE PUSH0 SWAP1 DUP2 MSTORE PUSH1 0x40 SWAP1 KECCAK256 SLOAD PUSH1 0xFF AND DUP2 JUMP JUMPDEST PUSH2 0x317 PUSH2 0x61E CALLDATASIZE PUSH1 0x4 PUSH2 0x32F8 JUMP JUMPDEST PUSH2 0x260B JUMP JUMPDEST PUSH0 PUSH1 0x1 PUSH1 0x1 PUSH1 0xE0 SHL SUB NOT DUP3 AND PUSH4 0x7965DB0B PUSH1 0xE0 SHL EQ DUP1 PUSH2 0x653 JUMPI POP PUSH4 0x1FFC9A7 PUSH1 0xE0 SHL PUSH1 0x1 PUSH1 0x1 PUSH1 0xE0 SHL SUB NOT DUP4 AND EQ JUMPDEST SWAP3 SWAP2 POP POP JUMP JUMPDEST PUSH1 0x3 DUP2 DUP2 SLOAD DUP2 LT PUSH2 0x668 JUMPI PUSH0 DUP1 REVERT JUMPDEST PUSH0 SWAP2 DUP3 MSTORE PUSH1 0x20 SWAP1 SWAP2 KECCAK256 ADD SLOAD PUSH1 0x1 PUSH1 0x1 PUSH1 0xA0 SHL SUB AND SWAP1 POP DUP2 JUMP JUMPDEST PUSH0 DUP3 DUP2 MSTORE PUSH1 0x20 DUP2 SWAP1 MSTORE PUSH1 0x40 SWAP1 KECCAK256 PUSH1 0x1 ADD SLOAD PUSH2 0x69B DUP2 PUSH2 0x26E5 JUMP JUMPDEST PUSH2 0x6A5 DUP4 DUP4 PUSH2 0x26F2 JUMP JUMPDEST POP POP POP POP JUMP JUMPDEST PUSH1 0x1 PUSH1 0x1 PUSH1 0xA0 SHL SUB DUP2 AND CALLER EQ PUSH2 0x6D4 JUMPI PUSH1 0x40 MLOAD PUSH4 0x334BD919 PUSH1 0xE1 SHL DUP2 MSTORE PUSH1 0x4 ADD PUSH1 0x40 MLOAD DUP1 SWAP2 SUB SWAP1 REVERT JUMPDEST PUSH2 0x6DE DUP3 DUP3 PUSH2 0x2781 JUMP JUMPDEST POP POP POP JUMP JUMPDEST PUSH0 PUSH2 0x6ED DUP2 PUSH2 0x26E5 JUMP JUMPDEST PUSH1 0x1 PUSH1 0x1 PUSH1 0xA0 SHL SUB DUP3 AND PUSH0 SWAP1 DUP2 MSTORE PUSH1 0x2 PUSH1 0x20 MSTORE PUSH1 0x40 SWAP1 KECCAK256 SLOAD PUSH1 0xFF AND PUSH2 0x72D JUMPI PUSH1 0x40 MLOAD PUSH3 0x461BCD PUSH1 0xE5 SHL DUP2 MSTORE PUSH1 0x4 ADD PUSH2 0x724 SWAP1 PUSH2 0x36A4 JUMP JUMPDEST PUSH1 0x40 MLOAD DUP1 SWAP2 SUB SWAP1 REVERT JUMPDEST PUSH1 0x1 PUSH1 0x1 PUSH1 0xA0 SHL SUB DUP3 AND PUSH0 DUP2 DUP2 MSTORE PUSH1 0x2 PUSH1 0x20 MSTORE PUSH1 0x40 DUP1 DUP3 KECCAK256 DUP1 SLOAD PUSH1 0xFF NOT AND SWAP1 SSTORE MLOAD PUSH32 0xF8769B01493238F5C26A42A7B690CB1FF2B53A7D89D9A57E6332458703DB8B04 SWAP2 SWAP1 LOG2 POP POP JUMP JUMPDEST PUSH0 DUP1 MLOAD PUSH1 0x20 PUSH2 0x3BD8 DUP4 CODECOPY DUP2 MLOAD SWAP2 MSTORE PUSH2 0x78D DUP2 PUSH2 0x26E5 JUMP JUMPDEST PUSH2 0x795 PUSH2 0x27EA JUMP JUMPDEST PUSH1 0x1 PUSH1 0x1 PUSH1 0xA0 SHL SUB DUP3 AND PUSH0 SWAP1 DUP2 MSTORE PUSH1 0x2 PUSH1 0x20 MSTORE PUSH1 0x40 SWAP1 KECCAK256 SLOAD PUSH1 0xFF AND PUSH2 0x7CC JUMPI PUSH1 0x40 MLOAD PUSH3 0x461BCD PUSH1 0xE5 SHL DUP2 MSTORE PUSH1 0x4 ADD PUSH2 0x724 SWAP1 PUSH2 0x36A4 JUMP JUMPDEST PUSH1 0x40 MLOAD PUSH4 0x222C387F PUSH1 0xE2 SHL DUP2 MSTORE PUSH1 0x1 PUSH1 0x1 PUSH1 0xA0 SHL SUB DUP4 AND PUSH1 0x4 DUP3 ADD MSTORE PUSH0 SWAP1 DUP2 SWAP1 DUP2 SWAP1 DUP2 SWAP1 ADDRESS SWAP1 PUSH4 0x88B0E1FC SWAP1 PUSH1 0x24 ADD PUSH1 0x80 PUSH1 0x40 MLOAD DUP1 DUP4 SUB DUP2 DUP7 GAS STATICCALL ISZERO DUP1 ISZERO PUSH2 0x816 JUMPI RETURNDATASIZE PUSH0 DUP1 RETURNDATACOPY RETURNDATASIZE PUSH0 REVERT JUMPDEST POP POP POP POP PUSH1 0x40 MLOAD RETURNDATASIZE PUSH1 0x1F NOT PUSH1 0x1F DUP3 ADD AND DUP3 ADD DUP1 PUSH1 0x40 MSTORE POP DUP2 ADD SWAP1 PUSH2 0x83A SWAP2 SWAP1 PUSH2 0x36D2 JUMP JUMPDEST SWAP4 POP SWAP4 POP SWAP4 POP SWAP4 POP DUP1 PUSH0 SUB PUSH2 0x852 JUMPI POP POP POP POP PUSH2 0x9E9 JUMP JUMPDEST PUSH0 PUSH2 0x2710 PUSH2 0x862 PUSH2 0x3E8 DUP5 PUSH2 0x3719 JUMP JUMPDEST PUSH2 0x86C SWAP2 SWAP1 PUSH2 0x3730 JUMP JUMPDEST SWAP1 POP PUSH0 PUSH2 0x897 PUSH1 0x40 MLOAD DUP1 PUSH1 0x40 ADD PUSH1 0x40 MSTORE DUP1 PUSH1 0x7 DUP2 MSTORE PUSH1 0x20 ADD PUSH7 0x4B696E65746963 PUSH1 0xC8 SHL DUP2 MSTORE POP PUSH2 0x2814 JUMP JUMPDEST SWAP1 POP PUSH0 PUSH2 0x8C4 PUSH1 0x40 MLOAD DUP1 PUSH1 0x40 ADD PUSH1 0x40 MSTORE DUP1 PUSH1 0x9 DUP2 MSTORE PUSH1 0x20 ADD PUSH9 0x119A5C995B1A59DA1D PUSH1 0xBA SHL DUP2 MSTORE POP PUSH2 0x2814 JUMP JUMPDEST SWAP1 POP DUP3 DUP8 GT ISZERO PUSH2 0x8E8 JUMPI PUSH2 0x8E3 DUP10 PUSH2 0x8DC DUP6 DUP11 PUSH2 0x374F JUMP JUMPDEST DUP5 DUP5 PUSH2 0x290C JUMP JUMPDEST PUSH2 0x908 JUMP JUMPDEST DUP3 DUP8 LT ISZERO PUSH2 0x908 JUMPI PUSH2 0x908 DUP10 PUSH2 0x8FE DUP10 DUP7 PUSH2 0x374F JUMP JUMPDEST DUP9 DUP9 DUP7 DUP7 DUP11 PUSH2 0x2C8A JUMP JUMPDEST PUSH1 0x40 MLOAD PUSH4 0x222C387F PUSH1 0xE2 SHL DUP2 MSTORE PUSH1 0x1 PUSH1 0x1 PUSH1 0xA0 SHL SUB DUP11 AND PUSH1 0x4 DUP3 ADD MSTORE PUSH0 SWAP1 DUP2 SWAP1 DUP2 SWAP1 ADDRESS SWAP1 PUSH4 0x88B0E1FC SWAP1 PUSH1 0x24 ADD PUSH1 0x80 PUSH1 0x40 MLOAD DUP1 DUP4 SUB DUP2 DUP7 GAS STATICCALL ISZERO DUP1 ISZERO PUSH2 0x950 JUMPI RETURNDATASIZE PUSH0 DUP1 RETURNDATACOPY RETURNDATASIZE PUSH0 REVERT JUMPDEST POP POP POP POP PUSH1 0x40 MLOAD RETURNDATASIZE PUSH1 0x1F NOT PUSH1 0x1F DUP3 ADD AND DUP3 ADD DUP1 PUSH1 0x40 MSTORE POP DUP2 ADD SWAP1 PUSH2 0x974 SWAP2 SWAP1 PUSH2 0x36D2 JUMP JUMPDEST POP PUSH1 0x40 DUP1 MLOAD DUP15 DUP2 MSTORE PUSH1 0x20 DUP2 ADD DUP6 SWAP1 MSTORE SWAP1 DUP2 ADD DUP14 SWAP1 MSTORE PUSH1 0x60 DUP2 ADD DUP4 SWAP1 MSTORE PUSH1 0x80 DUP2 ADD DUP13 SWAP1 MSTORE PUSH1 0xA0 DUP2 ADD DUP3 SWAP1 MSTORE SWAP3 SWAP6 POP SWAP1 SWAP4 POP SWAP2 POP PUSH1 0x1 PUSH1 0x1 PUSH1 0xA0 SHL SUB DUP14 AND SWAP1 PUSH32 0xC7B04F8103FECA14B7D0C3E7A285D289E882CADB1FF9506DCE5EE59EC8B3110D SWAP1 PUSH1 0xC0 ADD PUSH1 0x40 MLOAD DUP1 SWAP2 SUB SWAP1 LOG2 POP POP POP POP POP POP POP POP POP POP JUMPDEST PUSH2 0x9F2 PUSH1 0x1 DUP1 SSTORE JUMP JUMPDEST POP POP JUMP JUMPDEST PUSH0 PUSH2 0xA00 DUP2 PUSH2 0x26E5 JUMP JUMPDEST POP PUSH1 0x7 SSTORE JUMP JUMPDEST PUSH1 0x9 PUSH1 0x20 MSTORE PUSH0 SWAP1 DUP2 MSTORE PUSH1 0x40 SWAP1 KECCAK256 DUP1 SLOAD PUSH1 0x1 DUP3 ADD SLOAD PUSH1 0x2 DUP4 ADD SLOAD PUSH1 0x3 DUP5 ADD SLOAD PUSH1 0x4 DUP6 ADD SLOAD PUSH1 0x5 DUP7 ADD SLOAD PUSH1 0x6 DUP8 ADD DUP1 SLOAD PUSH1 0x1 PUSH1 0x1 PUSH1 0xA0 SHL SUB SWAP8 DUP9 AND SWAP9 SWAP7 SWAP1 SWAP8 AND SWAP7 SWAP5 SWAP6 SWAP4 SWAP5 SWAP3 SWAP4 PUSH1 0xFF SWAP1 SWAP3 AND SWAP3 PUSH2 0xA5A SWAP1 PUSH2 0x3762 JUMP JUMPDEST DUP1 PUSH1 0x1F ADD PUSH1 0x20 DUP1 SWAP2 DIV MUL PUSH1 0x20 ADD PUSH1 0x40 MLOAD SWAP1 DUP2 ADD PUSH1 0x40 MSTORE DUP1 SWAP3 SWAP2 SWAP1 DUP2 DUP2 MSTORE PUSH1 0x20 ADD DUP3 DUP1 SLOAD PUSH2 0xA86 SWAP1 PUSH2 0x3762 JUMP JUMPDEST DUP1 ISZERO PUSH2 0xAD1 JUMPI DUP1 PUSH1 0x1F LT PUSH2 0xAA8 JUMPI PUSH2 0x100 DUP1 DUP4 SLOAD DIV MUL DUP4 MSTORE SWAP2 PUSH1 0x20 ADD SWAP2 PUSH2 0xAD1 JUMP JUMPDEST DUP3 ADD SWAP2 SWAP1 PUSH0 MSTORE PUSH1 0x20 PUSH0 KECCAK256 SWAP1 JUMPDEST DUP2 SLOAD DUP2 MSTORE SWAP1 PUSH1 0x1 ADD SWAP1 PUSH1 0x20 ADD DUP1 DUP4 GT PUSH2 0xAB4 JUMPI DUP3 SWAP1 SUB PUSH1 0x1F AND DUP3 ADD SWAP2 JUMPDEST POP POP POP POP POP SWAP1 DUP1 PUSH1 0x7 ADD DUP1 SLOAD PUSH2 0xAE6 SWAP1 PUSH2 0x3762 JUMP JUMPDEST DUP1 PUSH1 0x1F ADD PUSH1 0x20 DUP1 SWAP2 DIV MUL PUSH1 0x20 ADD PUSH1 0x40 MLOAD SWAP1 DUP2 ADD PUSH1 0x40 MSTORE DUP1 SWAP3 SWAP2 SWAP1 DUP2 DUP2 MSTORE PUSH1 0x20 ADD DUP3 DUP1 SLOAD PUSH2 0xB12 SWAP1 PUSH2 0x3762 JUMP JUMPDEST DUP1 ISZERO PUSH2 0xB5D JUMPI DUP1 PUSH1 0x1F LT PUSH2 0xB34 JUMPI PUSH2 0x100 DUP1 DUP4 SLOAD DIV MUL DUP4 MSTORE SWAP2 PUSH1 0x20 ADD SWAP2 PUSH2 0xB5D JUMP JUMPDEST DUP3 ADD SWAP2 SWAP1 PUSH0 MSTORE PUSH1 0x20 PUSH0 KECCAK256 SWAP1 JUMPDEST DUP2 SLOAD DUP2 MSTORE SWAP1 PUSH1 0x1 ADD SWAP1 PUSH1 0x20 ADD DUP1 DUP4 GT PUSH2 0xB40 JUMPI DUP3 SWAP1 SUB PUSH1 0x1F AND DUP3 ADD SWAP2 JUMPDEST POP POP POP POP POP SWAP1 POP DUP9 JUMP JUMPDEST PUSH0 PUSH2 0xB71 DUP2 PUSH2 0x26E5 JUMP JUMPDEST PUSH1 0x1 PUSH1 0x1 PUSH1 0xA0 SHL SUB DUP3 AND PUSH0 SWAP1 DUP2 MSTORE PUSH1 0x2 PUSH1 0x20 MSTORE PUSH1 0x40 SWAP1 KECCAK256 SLOAD PUSH1 0xFF AND ISZERO PUSH2 0xBD9 JUMPI PUSH1 0x40 MLOAD PUSH3 0x461BCD PUSH1 0xE5 SHL DUP2 MSTORE PUSH1 0x20 PUSH1 0x4 DUP3 ADD MSTORE PUSH1 0x18 PUSH1 0x24 DUP3 ADD MSTORE PUSH32 0x5661756C7420616C726561647920726567697374657265640000000000000000 PUSH1 0x44 DUP3 ADD MSTORE PUSH1 0x64 ADD PUSH2 0x724 JUMP JUMPDEST PUSH1 0x1 PUSH1 0x1 PUSH1 0xA0 SHL SUB DUP3 AND PUSH0 DUP2 DUP2 MSTORE PUSH1 0x2 PUSH1 0x20 MSTORE PUSH1 0x40 DUP1 DUP3 KECCAK256 DUP1 SLOAD PUSH1 0xFF NOT AND PUSH1 0x1 SWAP1 DUP2 OR SWAP1 SWAP2 SSTORE PUSH1 0x3 DUP1 SLOAD SWAP2 DUP3 ADD DUP2 SSTORE DUP4 MSTORE PUSH32 0xC2575A0E9E593C00F959F8C92F12DB2869C3395A3B0502D05E2516446F71F85B ADD DUP1 SLOAD PUSH1 0x1 PUSH1 0x1 PUSH1 0xA0 SHL SUB NOT AND DUP5 OR SWAP1 SSTORE MLOAD PUSH32 0x8E0930709528779F1112249AAC8FCCA15DBB9C595DB31092C7BC7F954B567933 SWAP2 SWAP1 LOG2 POP POP JUMP JUMPDEST PUSH0 PUSH2 0xC6F DUP2 PUSH2 0x26E5 JUMP JUMPDEST PUSH2 0x9F2 PUSH0 DUP1 MLOAD PUSH1 0x20 PUSH2 0x3BF8 DUP4 CODECOPY DUP2 MLOAD SWAP2 MSTORE DUP4 PUSH2 0x1E52 JUMP JUMPDEST PUSH0 PUSH2 0xC90 DUP2 PUSH2 0x26E5 JUMP JUMPDEST PUSH2 0x9F2 PUSH0 DUP1 MLOAD PUSH1 0x20 PUSH2 0x3BF8 DUP4 CODECOPY DUP2 MLOAD SWAP2 MSTORE DUP4 PUSH2 0x681 JUMP JUMPDEST PUSH0 PUSH2 0xCB1 DUP2 PUSH2 0x26E5 JUMP JUMPDEST PUSH1 0x1 PUSH1 0x1 PUSH1 0xA0 SHL SUB DUP5 AND PUSH2 0xD07 JUMPI PUSH1 0x40 MLOAD PUSH3 0x461BCD PUSH1 0xE5 SHL DUP2 MSTORE PUSH1 0x20 PUSH1 0x4 DUP3 ADD MSTORE PUSH1 0x18 PUSH1 0x24 DUP3 ADD MSTORE PUSH32 0x496E76616C696420737472617465677920616464726573730000000000000000 PUSH1 0x44 DUP3 ADD MSTORE PUSH1 0x64 ADD PUSH2 0x724 JUMP JUMPDEST PUSH1 0x1 PUSH1 0x1 PUSH1 0xA0 SHL SUB DUP5 AND PUSH0 SWAP1 DUP2 MSTORE PUSH1 0x4 PUSH1 0x20 MSTORE PUSH1 0x40 SWAP1 KECCAK256 SLOAD PUSH1 0xFF AND ISZERO PUSH2 0xD6F JUMPI PUSH1 0x40 MLOAD PUSH3 0x461BCD PUSH1 0xE5 SHL DUP2 MSTORE PUSH1 0x20 PUSH1 0x4 DUP3 ADD MSTORE PUSH1 0x1B PUSH1 0x24 DUP3 ADD MSTORE PUSH32 0x537472617465677920616C726561647920726567697374657265640000000000 PUSH1 0x44 DUP3 ADD MSTORE PUSH1 0x64 ADD PUSH2 0x724 JUMP JUMPDEST PUSH1 0x1 PUSH1 0x1 PUSH1 0xA0 SHL SUB DUP5 AND PUSH0 DUP2 DUP2 MSTORE PUSH1 0x4 PUSH1 0x20 SWAP1 DUP2 MSTORE PUSH1 0x40 DUP1 DUP4 KECCAK256 DUP1 SLOAD PUSH1 0xFF NOT AND PUSH1 0x1 SWAP1 DUP2 OR SWAP1 SWAP2 SSTORE PUSH1 0x5 DUP1 SLOAD SWAP2 DUP3 ADD SWAP1 SSTORE PUSH32 0x36B6384B5ECA791C62761152D0C79BB0604C104A5FB6F4EB0703F3154BB3DB0 ADD DUP1 SLOAD PUSH1 0x1 PUSH1 0x1 PUSH1 0xA0 SHL SUB NOT AND DUP6 OR SWAP1 SSTORE SWAP3 DUP3 MSTORE PUSH1 0x6 SWAP1 MSTORE KECCAK256 PUSH2 0xDE5 DUP4 DUP6 DUP4 PUSH2 0x37FB JUMP JUMPDEST POP DUP4 PUSH1 0x1 PUSH1 0x1 PUSH1 0xA0 SHL SUB AND PUSH32 0x10F21C9CF836093601E448AC3B2A1A0814D1B9251B2E30C7A50DC26144951748 DUP5 DUP5 PUSH1 0x40 MLOAD PUSH2 0xE21 SWAP3 SWAP2 SWAP1 PUSH2 0x38B7 JUMP JUMPDEST PUSH1 0x40 MLOAD DUP1 SWAP2 SUB SWAP1 LOG2 POP POP POP POP JUMP JUMPDEST PUSH0 PUSH0 DUP1 MLOAD PUSH1 0x20 PUSH2 0x3BD8 DUP4 CODECOPY DUP2 MLOAD SWAP2 MSTORE PUSH2 0xE47 DUP2 PUSH2 0x26E5 JUMP JUMPDEST PUSH1 0x40 MLOAD PUSH12 0xFFFFFFFFFFFFFFFFFFFFFFFF NOT PUSH1 0x60 DUP10 DUP2 SHL DUP3 AND PUSH1 0x20 DUP5 ADD MSTORE DUP9 SWAP1 SHL AND PUSH1 0x34 DUP3 ADD MSTORE PUSH1 0x48 DUP2 ADD DUP7 SWAP1 MSTORE TIMESTAMP PUSH1 0x68 DUP3 ADD MSTORE PUSH0 SWAP1 PUSH1 0x88 ADD PUSH1 0x40 MLOAD PUSH1 0x20 DUP2 DUP4 SUB SUB DUP2 MSTORE SWAP1 PUSH1 0x40 MSTORE DUP1 MLOAD SWAP1 PUSH1 0x20 ADD KECCAK256 SWAP1 POP PUSH1 0x40 MLOAD DUP1 PUSH2 0x100 ADD PUSH1 0x40 MSTORE DUP1 DUP10 PUSH1 0x1 PUSH1 0x1 PUSH1 0xA0 SHL SUB AND DUP2 MSTORE PUSH1 0x20 ADD DUP9 PUSH1 0x1 PUSH1 0x1 PUSH1 0xA0 SHL SUB AND DUP2 MSTORE PUSH1 0x20 ADD DUP8 DUP2 MSTORE PUSH1 0x20 ADD DUP8 DUP2 MSTORE PUSH1 0x20 ADD TIMESTAMP DUP2 MSTORE PUSH1 0x20 ADD PUSH0 PUSH1 0x6 DUP2 GT ISZERO PUSH2 0xEE5 JUMPI PUSH2 0xEE5 PUSH2 0x3341 JUMP JUMPDEST DUP2 MSTORE PUSH1 0x20 ADD DUP7 DUP7 DUP1 DUP1 PUSH1 0x1F ADD PUSH1 0x20 DUP1 SWAP2 DIV MUL PUSH1 0x20 ADD PUSH1 0x40 MLOAD SWAP1 DUP2 ADD PUSH1 0x40 MSTORE DUP1 SWAP4 SWAP3 SWAP2 SWAP1 DUP2 DUP2 MSTORE PUSH1 0x20 ADD DUP4 DUP4 DUP1 DUP3 DUP5 CALLDATACOPY PUSH0 SWAP3 ADD DUP3 SWAP1 MSTORE POP SWAP4 DUP6 MSTORE POP POP PUSH1 0x40 DUP1 MLOAD PUSH1 0x20 DUP2 DUP2 ADD DUP4 MSTORE DUP5 DUP3 MSTORE SWAP5 DUP6 ADD MSTORE DUP6 DUP4 MSTORE PUSH1 0x9 DUP5 MSTORE SWAP2 DUP3 SWAP1 KECCAK256 DUP5 MLOAD DUP2 SLOAD PUSH1 0x1 PUSH1 0x1 PUSH1 0xA0 SHL SUB SWAP2 DUP3 AND PUSH1 0x1 PUSH1 0x1 PUSH1 0xA0 SHL SUB NOT SWAP2 DUP3 AND OR DUP4 SSTORE SWAP5 DUP7 ADD MLOAD PUSH1 0x1 DUP1 DUP5 ADD DUP1 SLOAD SWAP3 SWAP1 SWAP4 AND SWAP2 SWAP1 SWAP7 AND OR SWAP1 SSTORE SWAP2 DUP5 ADD MLOAD PUSH1 0x2 DUP4 ADD SSTORE POP PUSH1 0x60 DUP4 ADD MLOAD PUSH1 0x3 DUP3 ADD SSTORE PUSH1 0x80 DUP4 ADD MLOAD PUSH1 0x4 DUP3 ADD SSTORE PUSH1 0xA0 DUP4 ADD MLOAD PUSH1 0x5 DUP3 ADD DUP1 SLOAD SWAP3 SWAP4 SWAP2 SWAP3 SWAP1 SWAP2 PUSH1 0xFF NOT SWAP1 SWAP2 AND SWAP1 DUP4 PUSH1 0x6 DUP2 GT ISZERO PUSH2 0xFB9 JUMPI PUSH2 0xFB9 PUSH2 0x3341 JUMP JUMPDEST MUL OR SWAP1 SSTORE POP PUSH1 0xC0 DUP3 ADD MLOAD PUSH1 0x6 DUP3 ADD SWAP1 PUSH2 0xFD2 SWAP1 DUP3 PUSH2 0x38E5 JUMP JUMPDEST POP PUSH1 0xE0 DUP3 ADD MLOAD PUSH1 0x7 DUP3 ADD SWAP1 PUSH2 0xFE7 SWAP1 DUP3 PUSH2 0x38E5 JUMP JUMPDEST POP SWAP1 POP POP DUP8 PUSH1 0x1 PUSH1 0x1 PUSH1 0xA0 SHL SUB AND DUP2 PUSH32 0x1F0060BEF00D471C887F1108B9BDED19641191671C6B6DC19EB8103BCE17F6FA DUP9 PUSH1 0x40 MLOAD PUSH2 0x1027 SWAP2 DUP2 MSTORE PUSH1 0x20 ADD SWAP1 JUMP JUMPDEST PUSH1 0x40 MLOAD DUP1 SWAP2 SUB SWAP1 LOG3 SWAP8 SWAP7 POP POP POP POP POP POP POP JUMP JUMPDEST PUSH1 0x1 PUSH1 0x1 PUSH1 0xA0 SHL SUB DUP2 AND PUSH0 SWAP1 DUP2 MSTORE PUSH1 0x2 PUSH1 0x20 MSTORE PUSH1 0x40 DUP2 KECCAK256 SLOAD DUP2 SWAP1 DUP2 SWAP1 DUP2 SWAP1 PUSH1 0xFF AND PUSH2 0x1077 JUMPI PUSH1 0x40 MLOAD PUSH3 0x461BCD PUSH1 0xE5 SHL DUP2 MSTORE PUSH1 0x4 ADD PUSH2 0x724 SWAP1 PUSH2 0x36A4 JUMP JUMPDEST PUSH0 DUP6 SWAP1 POP PUSH0 DUP2 PUSH1 0x1 PUSH1 0x1 PUSH1 0xA0 SHL SUB AND PUSH4 0x38D52E0F PUSH1 0x40 MLOAD DUP2 PUSH4 0xFFFFFFFF AND PUSH1 0xE0 SHL DUP2 MSTORE PUSH1 0x4 ADD PUSH1 0x20 PUSH1 0x40 MLOAD DUP1 DUP4 SUB DUP2 DUP7 GAS STATICCALL ISZERO DUP1 ISZERO PUSH2 0x10B8 JUMPI RETURNDATASIZE PUSH0 DUP1 RETURNDATACOPY RETURNDATASIZE PUSH0 REVERT JUMPDEST POP POP POP POP PUSH1 0x40 MLOAD RETURNDATASIZE PUSH1 0x1F NOT PUSH1 0x1F DUP3 ADD AND DUP3 ADD DUP1 PUSH1 0x40 MSTORE POP DUP2 ADD SWAP1 PUSH2 0x10DC SWAP2 SWAP1 PUSH2 0x39A1 JUMP JUMPDEST PUSH1 0x40 MLOAD PUSH4 0x70A08231 PUSH1 0xE0 SHL DUP2 MSTORE PUSH1 0x1 PUSH1 0x1 PUSH1 0xA0 SHL SUB DUP5 DUP2 AND PUSH1 0x4 DUP4 ADD MSTORE SWAP2 SWAP3 POP SWAP1 DUP3 AND SWAP1 PUSH4 0x70A08231 SWAP1 PUSH1 0x24 ADD PUSH1 0x20 PUSH1 0x40 MLOAD DUP1 DUP4 SUB DUP2 DUP7 GAS STATICCALL ISZERO DUP1 ISZERO PUSH2 0x1124 JUMPI RETURNDATASIZE PUSH0 DUP1 RETURNDATACOPY RETURNDATASIZE PUSH0 REVERT JUMPDEST POP POP POP POP PUSH1 0x40 MLOAD RETURNDATASIZE PUSH1 0x1F NOT PUSH1 0x1F DUP3 ADD AND DUP3 ADD DUP1 PUSH1 0x40 MSTORE POP DUP2 ADD SWAP1 PUSH2 0x1148 SWAP2 SWAP1 PUSH2 0x39BC JUMP JUMPDEST SWAP6 POP PUSH0 JUMPDEST PUSH1 0x5 SLOAD DUP2 LT ISZERO PUSH2 0x1361 JUMPI PUSH0 PUSH1 0x5 DUP3 DUP2 SLOAD DUP2 LT PUSH2 0x116A JUMPI PUSH2 0x116A PUSH2 0x39D3 JUMP JUMPDEST PUSH0 SWAP2 DUP3 MSTORE PUSH1 0x20 DUP1 DUP4 KECCAK256 SWAP1 SWAP2 ADD SLOAD PUSH1 0x1 PUSH1 0x1 PUSH1 0xA0 SHL SUB AND DUP1 DUP4 MSTORE PUSH1 0x4 SWAP1 SWAP2 MSTORE PUSH1 0x40 SWAP1 SWAP2 KECCAK256 SLOAD SWAP1 SWAP2 POP PUSH1 0xFF AND PUSH2 0x119E JUMPI POP PUSH2 0x134F JUMP JUMPDEST PUSH1 0x1 PUSH1 0x1 PUSH1 0xA0 SHL SUB DUP2 AND PUSH0 SWAP1 DUP2 MSTORE PUSH1 0x6 PUSH1 0x20 MSTORE PUSH1 0x40 DUP2 KECCAK256 DUP1 SLOAD PUSH2 0x11C0 SWAP1 PUSH2 0x3762 JUMP JUMPDEST DUP1 PUSH1 0x1F ADD PUSH1 0x20 DUP1 SWAP2 DIV MUL PUSH1 0x20 ADD PUSH1 0x40 MLOAD SWAP1 DUP2 ADD PUSH1 0x40 MSTORE DUP1 SWAP3 SWAP2 SWAP1 DUP2 DUP2 MSTORE PUSH1 0x20 ADD DUP3 DUP1 SLOAD PUSH2 0x11EC SWAP1 PUSH2 0x3762 JUMP JUMPDEST DUP1 ISZERO PUSH2 0x1237 JUMPI DUP1 PUSH1 0x1F LT PUSH2 0x120E JUMPI PUSH2 0x100 DUP1 DUP4 SLOAD DIV MUL DUP4 MSTORE SWAP2 PUSH1 0x20 ADD SWAP2 PUSH2 0x1237 JUMP JUMPDEST DUP3 ADD SWAP2 SWAP1 PUSH0 MSTORE PUSH1 0x20 PUSH0 KECCAK256 SWAP1 JUMPDEST DUP2 SLOAD DUP2 MSTORE SWAP1 PUSH1 0x1 ADD SWAP1 PUSH1 0x20 ADD DUP1 DUP4 GT PUSH2 0x121A JUMPI DUP3 SWAP1 SUB PUSH1 0x1F AND DUP3 ADD SWAP2 JUMPDEST POP POP POP POP POP SWAP1 POP PUSH0 DUP3 PUSH1 0x1 PUSH1 0x1 PUSH1 0xA0 SHL SUB AND PUSH4 0x1E1D114 PUSH1 0x40 MLOAD DUP2 PUSH4 0xFFFFFFFF AND PUSH1 0xE0 SHL DUP2 MSTORE PUSH1 0x4 ADD PUSH1 0x20 PUSH1 0x40 MLOAD DUP1 DUP4 SUB DUP2 DUP7 GAS STATICCALL SWAP3 POP POP POP DUP1 ISZERO PUSH2 0x1299 JUMPI POP PUSH1 0x40 DUP1 MLOAD PUSH1 0x1F RETURNDATASIZE SWAP1 DUP2 ADD PUSH1 0x1F NOT AND DUP3 ADD SWAP1 SWAP3 MSTORE PUSH2 0x1296 SWAP2 DUP2 ADD SWAP1 PUSH2 0x39BC JUMP JUMPDEST PUSH1 0x1 JUMPDEST PUSH2 0x12A4 JUMPI POP PUSH0 PUSH2 0x12A7 JUMP JUMPDEST SWAP1 POP JUMPDEST PUSH1 0x40 DUP1 MLOAD DUP1 DUP3 ADD SWAP1 SWAP2 MSTORE PUSH1 0x7 DUP2 MSTORE PUSH7 0x4B696E65746963 PUSH1 0xC8 SHL PUSH1 0x20 SWAP2 DUP3 ADD MSTORE DUP3 MLOAD SWAP1 DUP4 ADD KECCAK256 PUSH32 0x803B973CDE83D6B3FFF0D52604B8C3080AA09A2CD882B962DD02B56167C1B7CF ADD PUSH2 0x12FA JUMPI DUP1 SWAP9 POP PUSH2 0x134B JUMP JUMPDEST PUSH1 0x40 DUP1 MLOAD DUP1 DUP3 ADD SWAP1 SWAP2 MSTORE PUSH1 0x9 DUP2 MSTORE PUSH9 0x119A5C995B1A59DA1D PUSH1 0xBA SHL PUSH1 0x20 SWAP2 DUP3 ADD MSTORE DUP3 MLOAD SWAP1 DUP4 ADD KECCAK256 PUSH32 0x9C8F4823B09F1DB4212DD7D528B5C908DA85F6E7320B005572DDCA34A89F874C ADD PUSH2 0x134B JUMPI DUP1 SWAP8 POP JUMPDEST POP POP POP JUMPDEST DUP1 PUSH2 0x1359 DUP2 PUSH2 0x39E7 JUMP JUMPDEST SWAP2 POP POP PUSH2 0x114C JUMP JUMPDEST POP DUP4 PUSH2 0x136D DUP7 DUP9 PUSH2 0x39FF JUMP JUMPDEST PUSH2 0x1377 SWAP2 SWAP1 PUSH2 0x39FF JUMP JUMPDEST SWAP3 POP POP POP SWAP2 SWAP4 POP SWAP2 SWAP4 JUMP JUMPDEST PUSH0 SWAP2 DUP3 MSTORE PUSH1 0x20 DUP3 DUP2 MSTORE PUSH1 0x40 DUP1 DUP5 KECCAK256 PUSH1 0x1 PUSH1 0x1 PUSH1 0xA0 SHL SUB SWAP4 SWAP1 SWAP4 AND DUP5 MSTORE SWAP2 SWAP1 MSTORE SWAP1 KECCAK256 SLOAD PUSH1 0xFF AND SWAP1 JUMP JUMPDEST PUSH0 PUSH2 0x13B4 DUP2 PUSH2 0x26E5 JUMP JUMPDEST PUSH2 0x13CB PUSH0 DUP1 MLOAD PUSH1 0x20 PUSH2 0x3BD8 DUP4 CODECOPY DUP2 MLOAD SWAP2 MSTORE DUP4 PUSH2 0x681 JUMP JUMPDEST PUSH1 0x40 MLOAD PUSH1 0x1 PUSH1 0x1 PUSH1 0xA0 SHL SUB DUP4 AND SWAP1 PUSH32 0xAC6FA858E9350A46CEC16539926E0FDE25B7629F84B5A72BFFAAE4DF888AE86D SWAP1 PUSH0 SWAP1 LOG2 POP POP JUMP JUMPDEST PUSH1 0x5 DUP2 DUP2 SLOAD DUP2 LT PUSH2 0x668 JUMPI PUSH0 DUP1 REVERT JUMPDEST PUSH1 0x6 PUSH1 0x20 MSTORE PUSH0 SWAP1 DUP2 MSTORE PUSH1 0x40 SWAP1 KECCAK256 DUP1 SLOAD PUSH2 0x1429 SWAP1 PUSH2 0x3762 JUMP JUMPDEST DUP1 PUSH1 0x1F ADD PUSH1 0x20 DUP1 SWAP2 DIV MUL PUSH1 0x20 ADD PUSH1 0x40 MLOAD SWAP1 DUP2 ADD PUSH1 0x40 MSTORE DUP1 SWAP3 SWAP2 SWAP1 DUP2 DUP2 MSTORE PUSH1 0x20 ADD DUP3 DUP1 SLOAD PUSH2 0x1455 SWAP1 PUSH2 0x3762 JUMP JUMPDEST DUP1 ISZERO PUSH2 0x14A0 JUMPI DUP1 PUSH1 0x1F LT PUSH2 0x1477 JUMPI PUSH2 0x100 DUP1 DUP4 SLOAD DIV MUL DUP4 MSTORE SWAP2 PUSH1 0x20 ADD SWAP2 PUSH2 0x14A0 JUMP JUMPDEST DUP3 ADD SWAP2 SWAP1 PUSH0 MSTORE PUSH1 0x20 PUSH0 KECCAK256 SWAP1 JUMPDEST DUP2 SLOAD DUP2 MSTORE SWAP1 PUSH1 0x1 ADD SWAP1 PUSH1 0x20 ADD DUP1 DUP4 GT PUSH2 0x1483 JUMPI DUP3 SWAP1 SUB PUSH1 0x1F AND DUP3 ADD SWAP2 JUMPDEST POP POP POP POP POP DUP2 JUMP JUMPDEST PUSH0 PUSH2 0x14B2 DUP2 PUSH2 0x26E5 JUMP JUMPDEST PUSH2 0x14C9 PUSH0 DUP1 MLOAD PUSH1 0x20 PUSH2 0x3BD8 DUP4 CODECOPY DUP2 MLOAD SWAP2 MSTORE DUP4 PUSH2 0x1E52 JUMP JUMPDEST PUSH1 0x40 MLOAD PUSH1 0x1 PUSH1 0x1 PUSH1 0xA0 SHL SUB DUP4 AND SWAP1 PUSH32 0x80C0B871B97B595B16A7741C1B06FED0C6F6F558639F18CCBCE50724325DC40D SWAP1 PUSH0 SWAP1 LOG2 POP POP JUMP JUMPDEST PUSH0 DUP1 MLOAD PUSH1 0x20 PUSH2 0x3BD8 DUP4 CODECOPY DUP2 MLOAD SWAP2 MSTORE PUSH2 0x1517 DUP2 PUSH2 0x26E5 JUMP JUMPDEST PUSH2 0x151F PUSH2 0x27EA JUMP JUMPDEST PUSH1 0x1 PUSH1 0x1 PUSH1 0xA0 SHL SUB DUP4 AND PUSH0 SWAP1 DUP2 MSTORE PUSH1 0x2 PUSH1 0x20 MSTORE PUSH1 0x40 SWAP1 KECCAK256 SLOAD PUSH1 0xFF AND PUSH2 0x1556 JUMPI PUSH1 0x40 MLOAD PUSH3 0x461BCD PUSH1 0xE5 SHL DUP2 MSTORE PUSH1 0x4 ADD PUSH2 0x724 SWAP1 PUSH2 0x36A4 JUMP JUMPDEST PUSH0 DUP3 GT PUSH2 0x15A5 JUMPI PUSH1 0x40 MLOAD PUSH3 0x461BCD PUSH1 0xE5 SHL DUP2 MSTORE PUSH1 0x20 PUSH1 0x4 DUP3 ADD MSTORE PUSH1 0x1D PUSH1 0x24 DUP3 ADD MSTORE PUSH32 0x416D6F756E74206D7573742062652067726561746572207468616E2030000000 PUSH1 0x44 DUP3 ADD MSTORE PUSH1 0x64 ADD PUSH2 0x724 JUMP JUMPDEST PUSH0 PUSH2 0x15CE PUSH1 0x40 MLOAD DUP1 PUSH1 0x40 ADD PUSH1 0x40 MSTORE DUP1 PUSH1 0x7 DUP2 MSTORE PUSH1 0x20 ADD PUSH7 0x4B696E65746963 PUSH1 0xC8 SHL DUP2 MSTORE POP PUSH2 0x2814 JUMP JUMPDEST SWAP1 POP PUSH0 PUSH2 0x15FB PUSH1 0x40 MLOAD DUP1 PUSH1 0x40 ADD PUSH1 0x40 MSTORE DUP1 PUSH1 0x9 DUP2 MSTORE PUSH1 0x20 ADD PUSH9 0x119A5C995B1A59DA1D PUSH1 0xBA SHL DUP2 MSTORE POP PUSH2 0x2814 JUMP JUMPDEST SWAP1 POP PUSH1 0x1 PUSH1 0x1 PUSH1 0xA0 SHL SUB DUP3 AND ISZERO ISZERO DUP1 PUSH2 0x161C JUMPI POP PUSH1 0x1 PUSH1 0x1 PUSH1 0xA0 SHL SUB DUP2 AND ISZERO ISZERO JUMPDEST PUSH2 0x1668 JUMPI PUSH1 0x40 MLOAD PUSH3 0x461BCD PUSH1 0xE5 SHL DUP2 MSTORE PUSH1 0x20 PUSH1 0x4 DUP3 ADD MSTORE PUSH1 0x18 PUSH1 0x24 DUP3 ADD MSTORE PUSH32 0x4E6F207374726174656769657320726567697374657265640000000000000000 PUSH1 0x44 DUP3 ADD MSTORE PUSH1 0x64 ADD PUSH2 0x724 JUMP JUMPDEST PUSH0 DUP1 PUSH1 0x1 PUSH1 0x1 PUSH1 0xA0 SHL SUB DUP5 AND ISZERO PUSH2 0x16DB JUMPI DUP4 PUSH1 0x1 PUSH1 0x1 PUSH1 0xA0 SHL SUB AND PUSH4 0x1E1D114 PUSH1 0x40 MLOAD DUP2 PUSH4 0xFFFFFFFF AND PUSH1 0xE0 SHL DUP2 MSTORE PUSH1 0x4 ADD PUSH1 0x20 PUSH1 0x40 MLOAD DUP1 DUP4 SUB DUP2 DUP7 GAS STATICCALL SWAP3 POP POP POP DUP1 ISZERO PUSH2 0x16D3 JUMPI POP PUSH1 0x40 DUP1 MLOAD PUSH1 0x1F RETURNDATASIZE SWAP1 DUP2 ADD PUSH1 0x1F NOT AND DUP3 ADD SWAP1 SWAP3 MSTORE PUSH2 0x16D0 SWAP2 DUP2 ADD SWAP1 PUSH2 0x39BC JUMP JUMPDEST PUSH1 0x1 JUMPDEST ISZERO PUSH2 0x16DB JUMPI SWAP2 POP JUMPDEST PUSH1 0x1 PUSH1 0x1 PUSH1 0xA0 SHL SUB DUP4 AND ISZERO PUSH2 0x174C JUMPI DUP3 PUSH1 0x1 PUSH1 0x1 PUSH1 0xA0 SHL SUB AND PUSH4 0x1E1D114 PUSH1 0x40 MLOAD DUP2 PUSH4 0xFFFFFFFF AND PUSH1 0xE0 SHL DUP2 MSTORE PUSH1 0x4 ADD PUSH1 0x20 PUSH1 0x40 MLOAD DUP1 DUP4 SUB DUP2 DUP7 GAS STATICCALL SWAP3 POP POP POP DUP1 ISZERO PUSH2 0x1744 JUMPI POP PUSH1 0x40 DUP1 MLOAD PUSH1 0x1F RETURNDATASIZE SWAP1 DUP2 ADD PUSH1 0x1F NOT AND DUP3 ADD SWAP1 SWAP3 MSTORE PUSH2 0x1741 SWAP2 DUP2 ADD SWAP1 PUSH2 0x39BC JUMP JUMPDEST PUSH1 0x1 JUMPDEST ISZERO PUSH2 0x174C JUMPI SWAP1 POP JUMPDEST PUSH0 PUSH2 0x1757 DUP3 DUP5 PUSH2 0x39FF JUMP JUMPDEST SWAP1 POP DUP7 DUP2 LT ISZERO PUSH2 0x17A9 JUMPI PUSH1 0x40 MLOAD PUSH3 0x461BCD PUSH1 0xE5 SHL DUP2 MSTORE PUSH1 0x20 PUSH1 0x4 DUP3 ADD MSTORE PUSH1 0x1F PUSH1 0x24 DUP3 ADD MSTORE PUSH32 0x496E73756666696369656E74207374726174656779206C697175696469747900 PUSH1 0x44 DUP3 ADD MSTORE PUSH1 0x64 ADD PUSH2 0x724 JUMP JUMPDEST DUP8 DUP8 PUSH1 0x1 PUSH1 0x1 PUSH1 0xA0 SHL SUB DUP7 AND ISZERO DUP1 ISZERO SWAP1 PUSH2 0x17C2 JUMPI POP PUSH0 DUP2 GT JUMPDEST ISZERO PUSH2 0x1885 JUMPI DUP4 ISZERO PUSH2 0x1885 JUMPI PUSH0 DUP5 DUP3 GT PUSH2 0x17DB JUMPI DUP2 PUSH2 0x17DD JUMP JUMPDEST DUP5 JUMPDEST PUSH1 0x40 MLOAD PUSH4 0x16A7A12B PUSH1 0xE3 SHL DUP2 MSTORE SWAP1 SWAP2 POP PUSH1 0x1 PUSH1 0x1 PUSH1 0xA0 SHL SUB DUP5 AND SWAP1 PUSH4 0xB53D0958 SWAP1 PUSH2 0x180E SWAP1 DUP11 SWAP1 DUP6 SWAP1 PUSH1 0x4 ADD PUSH2 0x3A12 JUMP JUMPDEST PUSH0 PUSH1 0x40 MLOAD DUP1 DUP4 SUB DUP2 PUSH0 DUP8 DUP1 EXTCODESIZE ISZERO DUP1 ISZERO PUSH2 0x1825 JUMPI PUSH0 DUP1 REVERT JUMPDEST POP GAS CALL ISZERO DUP1 ISZERO PUSH2 0x1837 JUMPI RETURNDATASIZE PUSH0 DUP1 RETURNDATACOPY RETURNDATASIZE PUSH0 REVERT JUMPDEST POP POP POP POP DUP1 DUP3 PUSH2 0x1847 SWAP2 SWAP1 PUSH2 0x374F JUMP JUMPDEST SWAP2 POP DUP7 PUSH1 0x1 PUSH1 0x1 PUSH1 0xA0 SHL SUB AND DUP12 PUSH1 0x1 PUSH1 0x1 PUSH1 0xA0 SHL SUB AND PUSH0 DUP1 MLOAD PUSH1 0x20 PUSH2 0x3B98 DUP4 CODECOPY DUP2 MLOAD SWAP2 MSTORE DUP4 PUSH1 0x40 MLOAD PUSH2 0x187B SWAP2 DUP2 MSTORE PUSH1 0x20 ADD SWAP1 JUMP JUMPDEST PUSH1 0x40 MLOAD DUP1 SWAP2 SUB SWAP1 LOG3 POP JUMPDEST PUSH1 0x1 PUSH1 0x1 PUSH1 0xA0 SHL SUB DUP8 AND ISZERO DUP1 ISZERO SWAP1 PUSH2 0x189C JUMPI POP PUSH0 DUP2 GT JUMPDEST ISZERO PUSH2 0x195F JUMPI DUP5 ISZERO PUSH2 0x195F JUMPI PUSH0 DUP6 DUP3 GT PUSH2 0x18B5 JUMPI DUP2 PUSH2 0x18B7 JUMP JUMPDEST DUP6 JUMPDEST PUSH1 0x40 MLOAD PUSH4 0x16A7A12B PUSH1 0xE3 SHL DUP2 MSTORE SWAP1 SWAP2 POP PUSH1 0x1 PUSH1 0x1 PUSH1 0xA0 SHL SUB DUP5 AND SWAP1 PUSH4 0xB53D0958 SWAP1 PUSH2 0x18E8 SWAP1 DUP12 SWAP1 DUP6 SWAP1 PUSH1 0x4 ADD PUSH2 0x3A12 JUMP JUMPDEST PUSH0 PUSH1 0x40 MLOAD DUP1 DUP4 SUB DUP2 PUSH0 DUP8 DUP1 EXTCODESIZE ISZERO DUP1 ISZERO PUSH2 0x18FF JUMPI PUSH0 DUP1 REVERT JUMPDEST POP GAS CALL ISZERO DUP1 ISZERO PUSH2 0x1911 JUMPI RETURNDATASIZE PUSH0 DUP1 RETURNDATACOPY RETURNDATASIZE PUSH0 REVERT JUMPDEST POP POP POP POP DUP1 DUP3 PUSH2 0x1921 SWAP2 SWAP1 PUSH2 0x374F JUMP JUMPDEST SWAP2 POP DUP8 PUSH1 0x1 PUSH1 0x1 PUSH1 0xA0 SHL SUB AND DUP12 PUSH1 0x1 PUSH1 0x1 PUSH1 0xA0 SHL SUB AND PUSH0 DUP1 MLOAD PUSH1 0x20 PUSH2 0x3B98 DUP4 CODECOPY DUP2 MLOAD SWAP2 MSTORE DUP4 PUSH1 0x40 MLOAD PUSH2 0x1955 SWAP2 DUP2 MSTORE PUSH1 0x20 ADD SWAP1 JUMP JUMPDEST PUSH1 0x40 MLOAD DUP1 SWAP2 SUB SWAP1 LOG3 POP JUMPDEST DUP1 ISZERO DUP1 PUSH2 0x196B JUMPI POP DUP9 DUP2 LT JUMPDEST PUSH2 0x19C3 JUMPI PUSH1 0x40 MLOAD PUSH3 0x461BCD PUSH1 0xE5 SHL DUP2 MSTORE PUSH1 0x20 PUSH1 0x4 DUP3 ADD MSTORE PUSH1 0x24 DUP1 DUP3 ADD MSTORE PUSH32 0x496E73756666696369656E74206C697175696469747920696E20737472617465 PUSH1 0x44 DUP3 ADD MSTORE PUSH4 0x67696573 PUSH1 0xE0 SHL PUSH1 0x64 DUP3 ADD MSTORE PUSH1 0x84 ADD PUSH2 0x724 JUMP JUMPDEST POP POP POP POP POP POP POP PUSH2 0x6DE PUSH1 0x1 DUP1 SSTORE JUMP JUMPDEST PUSH1 0x1 PUSH1 0x1 PUSH1 0xA0 SHL SUB DUP3 AND PUSH0 SWAP1 DUP2 MSTORE PUSH1 0x2 PUSH1 0x20 MSTORE PUSH1 0x40 DUP2 KECCAK256 SLOAD PUSH1 0xFF AND PUSH2 0x1A0A JUMPI PUSH1 0x40 MLOAD PUSH3 0x461BCD PUSH1 0xE5 SHL DUP2 MSTORE PUSH1 0x4 ADD PUSH2 0x724 SWAP1 PUSH2 0x36A4 JUMP JUMPDEST PUSH1 0x40 MLOAD PUSH4 0x222C387F PUSH1 0xE2 SHL DUP2 MSTORE PUSH1 0x1 PUSH1 0x1 PUSH1 0xA0 SHL SUB DUP5 AND PUSH1 0x4 DUP3 ADD MSTORE PUSH0 SWAP1 DUP2 SWAP1 DUP2 SWAP1 DUP2 SWAP1 ADDRESS SWAP1 PUSH4 0x88B0E1FC SWAP1 PUSH1 0x24 ADD PUSH1 0x80 PUSH1 0x40 MLOAD DUP1 DUP4 SUB DUP2 DUP7 GAS STATICCALL ISZERO DUP1 ISZERO PUSH2 0x1A54 JUMPI RETURNDATASIZE PUSH0 DUP1 RETURNDATACOPY RETURNDATASIZE PUSH0 REVERT JUMPDEST POP POP POP POP PUSH1 0x40 MLOAD RETURNDATASIZE PUSH1 0x1F NOT PUSH1 0x1F DUP3 ADD AND DUP3 ADD DUP1 PUSH1 0x40 MSTORE POP DUP2 ADD SWAP1 PUSH2 0x1A78 SWAP2 SWAP1 PUSH2 0x36D2 JUMP JUMPDEST SWAP4 POP SWAP4 POP SWAP4 POP SWAP4 POP DUP1 PUSH0 SUB PUSH2 0x1A93 JUMPI PUSH0 SWAP5 POP POP POP POP POP PUSH2 0x653 JUMP JUMPDEST PUSH1 0x40 MLOAD PUSH4 0x39E113B1 PUSH1 0xE2 SHL DUP2 MSTORE PUSH0 SWAP1 DUP2 SWAP1 DUP2 SWAP1 ADDRESS SWAP1 PUSH4 0xE7844EC4 SWAP1 PUSH2 0x1ABE SWAP1 DUP14 SWAP1 DUP9 SWAP1 PUSH1 0x4 ADD PUSH2 0x3A12 JUMP JUMPDEST PUSH1 0x60 PUSH1 0x40 MLOAD DUP1 DUP4 SUB DUP2 DUP7 GAS STATICCALL ISZERO DUP1 ISZERO PUSH2 0x1AD9 JUMPI RETURNDATASIZE PUSH0 DUP1 RETURNDATACOPY RETURNDATASIZE PUSH0 REVERT JUMPDEST POP POP POP POP PUSH1 0x40 MLOAD RETURNDATASIZE PUSH1 0x1F NOT PUSH1 0x1F DUP3 ADD AND DUP3 ADD DUP1 PUSH1 0x40 MSTORE POP DUP2 ADD SWAP1 PUSH2 0x1AFD SWAP2 SWAP1 PUSH2 0x3A2B JUMP JUMPDEST SWAP3 POP SWAP3 POP SWAP3 POP PUSH0 PUSH2 0x1B0F DUP9 DUP6 DUP8 PUSH2 0x2EB5 JUMP JUMPDEST SWAP1 POP PUSH0 PUSH2 0x1B1D DUP9 DUP6 DUP9 PUSH2 0x2EB5 JUMP JUMPDEST SWAP1 POP PUSH0 PUSH2 0x1B2B DUP9 DUP6 DUP10 PUSH2 0x2EB5 JUMP JUMPDEST SWAP1 POP DUP12 DUP4 GT DUP1 PUSH2 0x1B3A JUMPI POP DUP12 DUP3 GT JUMPDEST DUP1 PUSH2 0x1B44 JUMPI POP DUP12 DUP2 GT JUMPDEST SWAP14 SWAP13 POP POP POP POP POP POP POP POP POP POP POP POP POP JUMP JUMPDEST PUSH0 DUP1 PUSH2 0x1B64 DUP8 DUP8 DUP8 DUP8 DUP8 PUSH2 0x2F24 JUMP JUMPDEST SWAP2 POP SWAP2 POP SWAP6 POP SWAP6 SWAP4 POP POP POP POP JUMP JUMPDEST PUSH0 DUP1 MLOAD PUSH1 0x20 PUSH2 0x3BD8 DUP4 CODECOPY DUP2 MLOAD SWAP2 MSTORE PUSH2 0x1B89 DUP2 PUSH2 0x26E5 JUMP JUMPDEST PUSH0 DUP6 DUP2 MSTORE PUSH1 0x9 PUSH1 0x20 MSTORE PUSH1 0x40 SWAP1 KECCAK256 PUSH1 0x4 DUP2 ADD SLOAD PUSH2 0x1BDB JUMPI PUSH1 0x40 MLOAD PUSH3 0x461BCD PUSH1 0xE5 SHL DUP2 MSTORE PUSH1 0x20 PUSH1 0x4 DUP3 ADD MSTORE PUSH1 0x11 PUSH1 0x24 DUP3 ADD MSTORE PUSH17 0x14995C5D595CDD081B9BDD08199BDD5B99 PUSH1 0x7A SHL PUSH1 0x44 DUP3 ADD MSTORE PUSH1 0x64 ADD PUSH2 0x724 JUMP JUMPDEST PUSH1 0x5 DUP2 ADD DUP1 SLOAD DUP7 SWAP2 SWAP1 PUSH1 0xFF NOT AND PUSH1 0x1 DUP4 PUSH1 0x6 DUP2 GT ISZERO PUSH2 0x1BFC JUMPI PUSH2 0x1BFC PUSH2 0x3341 JUMP JUMPDEST MUL OR SWAP1 SSTORE POP DUP3 ISZERO PUSH2 0x1C18 JUMPI PUSH1 0x7 DUP2 ADD PUSH2 0x1C16 DUP5 DUP7 DUP4 PUSH2 0x37FB JUMP JUMPDEST POP JUMPDEST DUP6 PUSH32 0x97ED9D84B17CAB14FF4200E765D9126D7274000FA00BBBAC0621925331BC4ABF DUP7 PUSH1 0x40 MLOAD PUSH2 0x1C48 SWAP2 SWAP1 PUSH2 0x3A56 JUMP JUMPDEST PUSH1 0x40 MLOAD DUP1 SWAP2 SUB SWAP1 LOG2 POP POP POP POP POP POP JUMP JUMPDEST PUSH2 0x1C9F PUSH1 0x40 DUP1 MLOAD PUSH2 0x100 DUP2 ADD DUP3 MSTORE PUSH0 DUP1 DUP3 MSTORE PUSH1 0x20 DUP3 ADD DUP2 SWAP1 MSTORE SWAP2 DUP2 ADD DUP3 SWAP1 MSTORE PUSH1 0x60 DUP2 ADD DUP3 SWAP1 MSTORE PUSH1 0x80 DUP2 ADD DUP3 SWAP1 MSTORE SWAP1 PUSH1 0xA0 DUP3 ADD SWAP1 DUP2 MSTORE PUSH1 0x20 ADD PUSH1 0x60 DUP2 MSTORE PUSH1 0x20 ADD PUSH1 0x60 DUP2 MSTORE POP SWAP1 JUMP JUMPDEST PUSH0 DUP3 DUP2 MSTORE PUSH1 0x9 PUSH1 0x20 SWAP1 DUP2 MSTORE PUSH1 0x40 SWAP2 DUP3 SWAP1 KECCAK256 DUP3 MLOAD PUSH2 0x100 DUP2 ADD DUP5 MSTORE DUP2 SLOAD PUSH1 0x1 PUSH1 0x1 PUSH1 0xA0 SHL SUB SWAP1 DUP2 AND DUP3 MSTORE PUSH1 0x1 DUP4 ADD SLOAD AND SWAP3 DUP2 ADD SWAP3 SWAP1 SWAP3 MSTORE PUSH1 0x2 DUP2 ADD SLOAD SWAP3 DUP3 ADD SWAP3 SWAP1 SWAP3 MSTORE PUSH1 0x3 DUP3 ADD SLOAD PUSH1 0x60 DUP3 ADD MSTORE PUSH1 0x4 DUP3 ADD SLOAD PUSH1 0x80 DUP3 ADD MSTORE PUSH1 0x5 DUP3 ADD SLOAD SWAP1 SWAP2 SWAP1 PUSH1 0xA0 DUP4 ADD SWAP1 PUSH1 0xFF AND PUSH1 0x6 DUP2 GT ISZERO PUSH2 0x1D16 JUMPI PUSH2 0x1D16 PUSH2 0x3341 JUMP JUMPDEST PUSH1 0x6 DUP2 GT ISZERO PUSH2 0x1D27 JUMPI PUSH2 0x1D27 PUSH2 0x3341 JUMP JUMPDEST DUP2 MSTORE PUSH1 0x20 ADD PUSH1 0x6 DUP3 ADD DUP1 SLOAD PUSH2 0x1D3B SWAP1 PUSH2 0x3762 JUMP JUMPDEST DUP1 PUSH1 0x1F ADD PUSH1 0x20 DUP1 SWAP2 DIV MUL PUSH1 0x20 ADD PUSH1 0x40 MLOAD SWAP1 DUP2 ADD PUSH1 0x40 MSTORE DUP1 SWAP3 SWAP2 SWAP1 DUP2 DUP2 MSTORE PUSH1 0x20 ADD DUP3 DUP1 SLOAD PUSH2 0x1D67 SWAP1 PUSH2 0x3762 JUMP JUMPDEST DUP1 ISZERO PUSH2 0x1DB2 JUMPI DUP1 PUSH1 0x1F LT PUSH2 0x1D89 JUMPI PUSH2 0x100 DUP1 DUP4 SLOAD DIV MUL DUP4 MSTORE SWAP2 PUSH1 0x20 ADD SWAP2 PUSH2 0x1DB2 JUMP JUMPDEST DUP3 ADD SWAP2 SWAP1 PUSH0 MSTORE PUSH1 0x20 PUSH0 KECCAK256 SWAP1 JUMPDEST DUP2 SLOAD DUP2 MSTORE SWAP1 PUSH1 0x1 ADD SWAP1 PUSH1 0x20 ADD DUP1 DUP4 GT PUSH2 0x1D95 JUMPI DUP3 SWAP1 SUB PUSH1 0x1F AND DUP3 ADD SWAP2 JUMPDEST POP POP POP POP POP DUP2 MSTORE PUSH1 0x20 ADD PUSH1 0x7 DUP3 ADD DUP1 SLOAD PUSH2 0x1DCB SWAP1 PUSH2 0x3762 JUMP JUMPDEST DUP1 PUSH1 0x1F ADD PUSH1 0x20 DUP1 SWAP2 DIV MUL PUSH1 0x20 ADD PUSH1 0x40 MLOAD SWAP1 DUP2 ADD PUSH1 0x40 MSTORE DUP1 SWAP3 SWAP2 SWAP1 DUP2 DUP2 MSTORE PUSH1 0x20 ADD DUP3 DUP1 SLOAD PUSH2 0x1DF7 SWAP1 PUSH2 0x3762 JUMP JUMPDEST DUP1 ISZERO PUSH2 0x1E42 JUMPI DUP1 PUSH1 0x1F LT PUSH2 0x1E19 JUMPI PUSH2 0x100 DUP1 DUP4 SLOAD DIV MUL DUP4 MSTORE SWAP2 PUSH1 0x20 ADD SWAP2 PUSH2 0x1E42 JUMP JUMPDEST DUP3 ADD SWAP2 SWAP1 PUSH0 MSTORE PUSH1 0x20 PUSH0 KECCAK256 SWAP1 JUMPDEST DUP2 SLOAD DUP2 MSTORE SWAP1 PUSH1 0x1 ADD SWAP1 PUSH1 0x20 ADD DUP1 DUP4 GT PUSH2 0x1E25 JUMPI DUP3 SWAP1 SUB PUSH1 0x1F AND DUP3 ADD SWAP2 JUMPDEST POP POP POP POP POP DUP2 MSTORE POP POP SWAP1 POP SWAP2 SWAP1 POP JUMP JUMPDEST PUSH0 DUP3 DUP2 MSTORE PUSH1 0x20 DUP2 SWAP1 MSTORE PUSH1 0x40 SWAP1 KECCAK256 PUSH1 0x1 ADD SLOAD PUSH2 0x1E6C DUP2 PUSH2 0x26E5 JUMP JUMPDEST PUSH2 0x6A5 DUP4 DUP4 PUSH2 0x2781 JUMP JUMPDEST PUSH0 DUP1 MLOAD PUSH1 0x20 PUSH2 0x3BF8 DUP4 CODECOPY DUP2 MLOAD SWAP2 MSTORE PUSH2 0x1E8D DUP2 PUSH2 0x26E5 JUMP JUMPDEST PUSH2 0x1E95 PUSH2 0x27EA JUMP JUMPDEST PUSH1 0x1 PUSH1 0x1 PUSH1 0xA0 SHL SUB DUP3 AND PUSH0 SWAP1 DUP2 MSTORE PUSH1 0x2 PUSH1 0x20 MSTORE PUSH1 0x40 SWAP1 KECCAK256 SLOAD PUSH1 0xFF AND PUSH2 0x1ECC JUMPI PUSH1 0x40 MLOAD PUSH3 0x461BCD PUSH1 0xE5 SHL DUP2 MSTORE PUSH1 0x4 ADD PUSH2 0x724 SWAP1 PUSH2 0x36A4 JUMP JUMPDEST PUSH1 0x7 SLOAD PUSH1 0x1 PUSH1 0x1 PUSH1 0xA0 SHL SUB DUP4 AND PUSH0 SWAP1 DUP2 MSTORE PUSH1 0x8 PUSH1 0x20 MSTORE PUSH1 0x40 SWAP1 KECCAK256 SLOAD PUSH2 0x1EF1 SWAP2 SWAP1 PUSH2 0x39FF JUMP JUMPDEST TIMESTAMP LT ISZERO PUSH2 0x1F40 JUMPI PUSH1 0x40 MLOAD PUSH3 0x461BCD PUSH1 0xE5 SHL DUP2 MSTORE PUSH1 0x20 PUSH1 0x4 DUP3 ADD MSTORE PUSH1 0x1D PUSH1 0x24 DUP3 ADD MSTORE PUSH32 0x436F6D706F756E6420696E74657276616C206E6F742072656163686564000000 PUSH1 0x44 DUP3 ADD MSTORE PUSH1 0x64 ADD PUSH2 0x724 JUMP JUMPDEST PUSH1 0x1 PUSH1 0x1 PUSH1 0xA0 SHL SUB DUP3 AND PUSH0 DUP2 DUP2 MSTORE PUSH1 0x8 PUSH1 0x20 SWAP1 DUP2 MSTORE PUSH1 0x40 DUP1 DUP4 KECCAK256 TIMESTAMP SWAP1 SSTORE MLOAD SWAP2 DUP3 MSTORE PUSH32 0xCA542B171F04023BC049135AD0197F67F934173E08A75E9A19FD920097428BAF SWAP2 ADD PUSH1 0x40 MLOAD DUP1 SWAP2 SUB SWAP1 LOG2 PUSH2 0x9F2 PUSH1 0x1 DUP1 SSTORE JUMP JUMPDEST PUSH0 DUP1 MLOAD PUSH1 0x20 PUSH2 0x3BD8 DUP4 CODECOPY DUP2 MLOAD SWAP2 MSTORE PUSH2 0x1FAC DUP2 PUSH2 0x26E5 JUMP JUMPDEST PUSH2 0x1FB4 PUSH2 0x27EA JUMP JUMPDEST PUSH1 0x1 PUSH1 0x1 PUSH1 0xA0 SHL SUB DUP4 AND PUSH0 SWAP1 DUP2 MSTORE PUSH1 0x2 PUSH1 0x20 MSTORE PUSH1 0x40 SWAP1 KECCAK256 SLOAD PUSH1 0xFF AND PUSH2 0x1FEB JUMPI PUSH1 0x40 MLOAD PUSH3 0x461BCD PUSH1 0xE5 SHL DUP2 MSTORE PUSH1 0x4 ADD PUSH2 0x724 SWAP1 PUSH2 0x36A4 JUMP JUMPDEST PUSH1 0x40 MLOAD PUSH4 0x222C387F PUSH1 0xE2 SHL DUP2 MSTORE PUSH1 0x1 PUSH1 0x1 PUSH1 0xA0 SHL SUB DUP5 AND PUSH1 0x4 DUP3 ADD MSTORE PUSH0 SWAP1 DUP2 SWAP1 DUP2 SWAP1 DUP2 SWAP1 ADDRESS SWAP1 PUSH4 0x88B0E1FC SWAP1 PUSH1 0x24 ADD PUSH1 0x80 PUSH1 0x40 MLOAD DUP1 DUP4 SUB DUP2 DUP7 GAS STATICCALL ISZERO DUP1 ISZERO PUSH2 0x2035 JUMPI RETURNDATASIZE PUSH0 DUP1 RETURNDATACOPY RETURNDATASIZE PUSH0 REVERT JUMPDEST POP POP POP POP PUSH1 0x40 MLOAD RETURNDATASIZE PUSH1 0x1F NOT PUSH1 0x1F DUP3 ADD AND DUP3 ADD DUP1 PUSH1 0x40 MSTORE POP DUP2 ADD SWAP1 PUSH2 0x2059 SWAP2 SWAP1 PUSH2 0x36D2 JUMP JUMPDEST PUSH1 0x40 MLOAD PUSH4 0x39E113B1 PUSH1 0xE2 SHL DUP2 MSTORE SWAP4 SWAP8 POP SWAP2 SWAP6 POP SWAP4 POP SWAP2 POP PUSH0 SWAP1 ADDRESS SWAP1 PUSH4 0xE7844EC4 SWAP1 PUSH2 0x208A SWAP1 DUP12 SWAP1 DUP7 SWAP1 PUSH1 0x4 ADD PUSH2 0x3A12 JUMP JUMPDEST PUSH1 0x60 PUSH1 0x40 MLOAD DUP1 DUP4 SUB DUP2 DUP7 GAS STATICCALL ISZERO DUP1 ISZERO PUSH2 0x20A5 JUMPI RETURNDATASIZE PUSH0 DUP1 RETURNDATACOPY RETURNDATASIZE PUSH0 REVERT JUMPDEST POP POP POP POP PUSH1 0x40 MLOAD RETURNDATASIZE PUSH1 0x1F NOT PUSH1 0x1F DUP3 ADD AND DUP3 ADD DUP1 PUSH1 0x40 MSTORE POP DUP2 ADD SWAP1 PUSH2 0x20C9 SWAP2 SWAP1 PUSH2 0x3A2B JUMP JUMPDEST POP POP SWAP1 POP PUSH0 DUP2 DUP7 GT ISZERO PUSH2 0x20E7 JUMPI PUSH2 0x20E0 DUP3 DUP8 PUSH2 0x374F JUMP JUMPDEST SWAP1 POP PUSH2 0x2149 JUMP JUMPDEST PUSH1 0x40 MLOAD PUSH3 0x461BCD PUSH1 0xE5 SHL DUP2 MSTORE PUSH1 0x20 PUSH1 0x4 DUP3 ADD MSTORE PUSH1 0x31 PUSH1 0x24 DUP3 ADD MSTORE PUSH32 0x42756666657220616C7265616479206174206F722062656C6F77207461726765 PUSH1 0x44 DUP3 ADD MSTORE PUSH17 0x74202D2063616E6E6F74206465706C6F79 PUSH1 0x78 SHL PUSH1 0x64 DUP3 ADD MSTORE PUSH1 0x84 ADD PUSH2 0x724 JUMP JUMPDEST PUSH0 DUP9 GT DUP1 ISZERO PUSH2 0x2157 JUMPI POP DUP1 DUP9 LT JUMPDEST ISZERO PUSH2 0x215F JUMPI POP DUP7 JUMPDEST PUSH0 DUP2 GT PUSH2 0x21B8 JUMPI PUSH1 0x40 MLOAD PUSH3 0x461BCD PUSH1 0xE5 SHL DUP2 MSTORE PUSH1 0x20 PUSH1 0x4 DUP3 ADD MSTORE PUSH1 0x21 PUSH1 0x24 DUP3 ADD MSTORE PUSH32 0x4E6F2066756E647320617661696C61626C6520666F72206465706C6F796D656E PUSH1 0x44 DUP3 ADD MSTORE PUSH1 0x1D PUSH1 0xFA SHL PUSH1 0x64 DUP3 ADD MSTORE PUSH1 0x84 ADD PUSH2 0x724 JUMP JUMPDEST DUP1 DUP7 LT ISZERO PUSH2 0x2208 JUMPI PUSH1 0x40 MLOAD PUSH3 0x461BCD PUSH1 0xE5 SHL DUP2 MSTORE PUSH1 0x20 PUSH1 0x4 DUP3 ADD MSTORE PUSH1 0x1C PUSH1 0x24 DUP3 ADD MSTORE PUSH32 0x496E73756666696369656E74207661756C74206C697175696469747900000000 PUSH1 0x44 DUP3 ADD MSTORE PUSH1 0x64 ADD PUSH2 0x724 JUMP JUMPDEST PUSH0 PUSH2 0x2231 PUSH1 0x40 MLOAD DUP1 PUSH1 0x40 ADD PUSH1 0x40 MSTORE DUP1 PUSH1 0x7 DUP2 MSTORE PUSH1 0x20 ADD PUSH7 0x4B696E65746963 PUSH1 0xC8 SHL DUP2 MSTORE POP PUSH2 0x2814 JUMP JUMPDEST SWAP1 POP PUSH0 PUSH2 0x225E PUSH1 0x40 MLOAD DUP1 PUSH1 0x40 ADD PUSH1 0x40 MSTORE DUP1 PUSH1 0x9 DUP2 MSTORE PUSH1 0x20 ADD PUSH9 0x119A5C995B1A59DA1D PUSH1 0xBA SHL DUP2 MSTORE POP PUSH2 0x2814 JUMP JUMPDEST SWAP1 POP PUSH1 0x1 PUSH1 0x1 PUSH1 0xA0 SHL SUB DUP3 AND PUSH2 0x22B6 JUMPI PUSH1 0x40 MLOAD PUSH3 0x461BCD PUSH1 0xE5 SHL DUP2 MSTORE PUSH1 0x20 PUSH1 0x4 DUP3 ADD MSTORE PUSH1 0x1F PUSH1 0x24 DUP3 ADD MSTORE PUSH32 0x4B696E65746963207374726174656779206E6F74207265676973746572656400 PUSH1 0x44 DUP3 ADD MSTORE PUSH1 0x64 ADD PUSH2 0x724 JUMP JUMPDEST PUSH1 0x1 PUSH1 0x1 PUSH1 0xA0 SHL SUB DUP2 AND PUSH2 0x2316 JUMPI PUSH1 0x40 MLOAD PUSH3 0x461BCD PUSH1 0xE5 SHL DUP2 MSTORE PUSH1 0x20 PUSH1 0x4 DUP3 ADD MSTORE PUSH1 0x21 PUSH1 0x24 DUP3 ADD MSTORE PUSH32 0x466972656C69676874207374726174656779206E6F7420726567697374657265 PUSH1 0x44 DUP3 ADD MSTORE PUSH1 0x19 PUSH1 0xFA SHL PUSH1 0x64 DUP3 ADD MSTORE PUSH1 0x84 ADD PUSH2 0x724 JUMP JUMPDEST PUSH0 DUP1 PUSH2 0x2325 DUP14 DUP7 DUP12 DUP12 DUP12 PUSH2 0x2F24 JUMP JUMPDEST SWAP1 SWAP3 POP SWAP1 POP DUP2 ISZERO PUSH2 0x23C6 JUMPI PUSH1 0x40 MLOAD PUSH4 0xF6C00DB9 PUSH1 0xE0 SHL DUP2 MSTORE PUSH1 0x1 PUSH1 0x1 PUSH1 0xA0 SHL SUB DUP15 AND SWAP1 PUSH4 0xF6C00DB9 SWAP1 PUSH2 0x235E SWAP1 DUP8 SWAP1 DUP7 SWAP1 PUSH1 0x4 ADD PUSH2 0x3A12 JUMP JUMPDEST PUSH0 PUSH1 0x40 MLOAD DUP1 DUP4 SUB DUP2 PUSH0 DUP8 DUP1 EXTCODESIZE ISZERO DUP1 ISZERO PUSH2 0x2375 JUMPI PUSH0 DUP1 REVERT JUMPDEST POP GAS CALL ISZERO DUP1 ISZERO PUSH2 0x2387 JUMPI RETURNDATASIZE PUSH0 DUP1 RETURNDATACOPY RETURNDATASIZE PUSH0 REVERT JUMPDEST POP POP POP POP DUP4 PUSH1 0x1 PUSH1 0x1 PUSH1 0xA0 SHL SUB AND DUP14 PUSH1 0x1 PUSH1 0x1 PUSH1 0xA0 SHL SUB AND PUSH0 DUP1 MLOAD PUSH1 0x20 PUSH2 0x3BB8 DUP4 CODECOPY DUP2 MLOAD SWAP2 MSTORE DUP5 PUSH1 0x40 MLOAD PUSH2 0x23BD SWAP2 DUP2 MSTORE PUSH1 0x20 ADD SWAP1 JUMP JUMPDEST PUSH1 0x40 MLOAD DUP1 SWAP2 SUB SWAP1 LOG3 JUMPDEST DUP1 ISZERO PUSH2 0x2462 JUMPI PUSH1 0x40 MLOAD PUSH4 0xF6C00DB9 PUSH1 0xE0 SHL DUP2 MSTORE PUSH1 0x1 PUSH1 0x1 PUSH1 0xA0 SHL SUB DUP15 AND SWAP1 PUSH4 0xF6C00DB9 SWAP1 PUSH2 0x23FA SWAP1 DUP7 SWAP1 DUP6 SWAP1 PUSH1 0x4 ADD PUSH2 0x3A12 JUMP JUMPDEST PUSH0 PUSH1 0x40 MLOAD DUP1 DUP4 SUB DUP2 PUSH0 DUP8 DUP1 EXTCODESIZE ISZERO DUP1 ISZERO PUSH2 0x2411 JUMPI PUSH0 DUP1 REVERT JUMPDEST POP GAS CALL ISZERO DUP1 ISZERO PUSH2 0x2423 JUMPI RETURNDATASIZE PUSH0 DUP1 RETURNDATACOPY RETURNDATASIZE PUSH0 REVERT JUMPDEST POP POP POP POP DUP3 PUSH1 0x1 PUSH1 0x1 PUSH1 0xA0 SHL SUB AND DUP14 PUSH1 0x1 PUSH1 0x1 PUSH1 0xA0 SHL SUB AND PUSH0 DUP1 MLOAD PUSH1 0x20 PUSH2 0x3BB8 DUP4 CODECOPY DUP2 MLOAD SWAP2 MSTORE DUP4 PUSH1 0x40 MLOAD PUSH2 0x2459 SWAP2 DUP2 MSTORE PUSH1 0x20 ADD SWAP1 JUMP JUMPDEST PUSH1 0x40 MLOAD DUP1 SWAP2 SUB SWAP1 LOG3 JUMPDEST POP POP POP POP POP POP POP POP POP POP PUSH2 0x6DE PUSH1 0x1 DUP1 SSTORE JUMP JUMPDEST PUSH1 0x1 PUSH1 0x1 PUSH1 0xA0 SHL SUB DUP3 AND PUSH0 SWAP1 DUP2 MSTORE PUSH1 0x2 PUSH1 0x20 MSTORE PUSH1 0x40 DUP2 KECCAK256 SLOAD DUP2 SWAP1 DUP2 SWAP1 PUSH1 0xFF AND PUSH2 0x24B0 JUMPI PUSH1 0x40 MLOAD PUSH3 0x461BCD PUSH1 0xE5 SHL DUP2 MSTORE PUSH1 0x4 ADD PUSH2 0x724 SWAP1 PUSH2 0x36A4 JUMP JUMPDEST PUSH0 PUSH2 0x24DA DUP7 PUSH1 0x40 MLOAD DUP1 PUSH1 0x40 ADD PUSH1 0x40 MSTORE DUP1 PUSH1 0x7 DUP2 MSTORE PUSH1 0x20 ADD PUSH7 0x4B696E65746963 PUSH1 0xC8 SHL DUP2 MSTORE POP PUSH2 0x30CB JUMP JUMPDEST SWAP1 POP PUSH0 PUSH2 0x2508 DUP8 PUSH1 0x40 MLOAD DUP1 PUSH1 0x40 ADD PUSH1 0x40 MSTORE DUP1 PUSH1 0x9 DUP2 MSTORE PUSH1 0x20 ADD PUSH9 0x119A5C995B1A59DA1D PUSH1 0xBA SHL DUP2 MSTORE POP PUSH2 0x30CB JUMP JUMPDEST SWAP1 POP PUSH0 PUSH2 0x2515 DUP9 DUP5 PUSH2 0x316D JUMP JUMPDEST SWAP1 POP PUSH0 PUSH2 0x2522 DUP10 DUP5 PUSH2 0x316D JUMP JUMPDEST SWAP1 POP PUSH2 0x2710 PUSH2 0x2533 PUSH2 0x3E8 DUP11 PUSH2 0x3719 JUMP JUMPDEST PUSH2 0x253D SWAP2 SWAP1 PUSH2 0x3730 JUMP JUMPDEST SWAP7 POP DUP2 DUP1 ISZERO PUSH2 0x2549 JUMPI POP DUP1 JUMPDEST ISZERO PUSH2 0x2589 JUMPI PUSH2 0x2710 PUSH2 0x255D PUSH2 0xFA0 DUP11 PUSH2 0x3719 JUMP JUMPDEST PUSH2 0x2567 SWAP2 SWAP1 PUSH2 0x3730 JUMP JUMPDEST SWAP6 POP PUSH2 0x2710 PUSH2 0x2578 PUSH2 0x1388 DUP11 PUSH2 0x3719 JUMP JUMPDEST PUSH2 0x2582 SWAP2 SWAP1 PUSH2 0x3730 JUMP JUMPDEST SWAP5 POP PUSH2 0x2600 JUMP JUMPDEST DUP2 DUP1 ISZERO PUSH2 0x2594 JUMPI POP DUP1 ISZERO JUMPDEST ISZERO PUSH2 0x25C8 JUMPI PUSH2 0x2710 PUSH2 0x25AA PUSH2 0x1388 PUSH2 0xFA0 PUSH2 0x39FF JUMP JUMPDEST PUSH2 0x25B4 SWAP1 DUP11 PUSH2 0x3719 JUMP JUMPDEST PUSH2 0x25BE SWAP2 SWAP1 PUSH2 0x3730 JUMP JUMPDEST SWAP6 POP PUSH0 SWAP5 POP PUSH2 0x2600 JUMP JUMPDEST DUP2 ISZERO DUP1 ISZERO PUSH2 0x25D3 JUMPI POP DUP1 JUMPDEST ISZERO PUSH2 0x25F6 JUMPI PUSH0 SWAP6 POP PUSH2 0x2710 PUSH2 0x25EC PUSH2 0x1388 PUSH2 0xFA0 PUSH2 0x39FF JUMP JUMPDEST PUSH2 0x2578 SWAP1 DUP11 PUSH2 0x3719 JUMP JUMPDEST DUP8 SWAP7 POP PUSH0 SWAP6 POP PUSH0 SWAP5 POP JUMPDEST POP POP POP POP SWAP3 POP SWAP3 POP SWAP3 JUMP JUMPDEST PUSH0 PUSH2 0x2615 DUP2 PUSH2 0x26E5 JUMP JUMPDEST PUSH1 0x1 PUSH1 0x1 PUSH1 0xA0 SHL SUB DUP3 AND PUSH0 SWAP1 DUP2 MSTORE PUSH1 0x4 PUSH1 0x20 MSTORE PUSH1 0x40 SWAP1 KECCAK256 SLOAD PUSH1 0xFF AND PUSH2 0x267C JUMPI PUSH1 0x40 MLOAD PUSH3 0x461BCD PUSH1 0xE5 SHL DUP2 MSTORE PUSH1 0x20 PUSH1 0x4 DUP3 ADD MSTORE PUSH1 0x17 PUSH1 0x24 DUP3 ADD MSTORE PUSH32 0x5374726174656779206E6F742072656769737465726564000000000000000000 PUSH1 0x44 DUP3 ADD MSTORE PUSH1 0x64 ADD PUSH2 0x724 JUMP JUMPDEST PUSH1 0x1 PUSH1 0x1 PUSH1 0xA0 SHL SUB DUP3 AND PUSH0 SWAP1 DUP2 MSTORE PUSH1 0x4 PUSH1 0x20 SWAP1 DUP2 MSTORE PUSH1 0x40 DUP1 DUP4 KECCAK256 DUP1 SLOAD PUSH1 0xFF NOT AND SWAP1 SSTORE PUSH1 0x6 SWAP1 SWAP2 MSTORE DUP2 KECCAK256 PUSH2 0x26AE SWAP2 PUSH2 0x325C JUMP JUMPDEST PUSH1 0x40 MLOAD PUSH1 0x1 PUSH1 0x1 PUSH1 0xA0 SHL SUB DUP4 AND SWAP1 PUSH32 0xE06C76AAA899D6E50C29B6042203FD0DA283C14440160ADCA192E845196A0419 SWAP1 PUSH0 SWAP1 LOG2 POP POP JUMP JUMPDEST PUSH2 0x26EF DUP2 CALLER PUSH2 0x3231 JUMP JUMPDEST POP JUMP JUMPDEST PUSH0 PUSH2 0x26FD DUP4 DUP4 PUSH2 0x1382 JUMP JUMPDEST PUSH2 0x277A JUMPI PUSH0 DUP4 DUP2 MSTORE PUSH1 0x20 DUP2 DUP2 MSTORE PUSH1 0x40 DUP1 DUP4 KECCAK256 PUSH1 0x1 PUSH1 0x1 PUSH1 0xA0 SHL SUB DUP7 AND DUP5 MSTORE SWAP1 SWAP2 MSTORE SWAP1 KECCAK256 DUP1 SLOAD PUSH1 0xFF NOT AND PUSH1 0x1 OR SWAP1 SSTORE PUSH2 0x2732 CALLER SWAP1 JUMP JUMPDEST PUSH1 0x1 PUSH1 0x1 PUSH1 0xA0 SHL SUB AND DUP3 PUSH1 0x1 PUSH1 0x1 PUSH1 0xA0 SHL SUB AND DUP5 PUSH32 0x2F8788117E7EFF1D82E926EC794901D17C78024A50270940304540A733656F0D PUSH1 0x40 MLOAD PUSH1 0x40 MLOAD DUP1 SWAP2 SUB SWAP1 LOG4 POP PUSH1 0x1 PUSH2 0x653 JUMP JUMPDEST POP PUSH0 PUSH2 0x653 JUMP JUMPDEST PUSH0 PUSH2 0x278C DUP4 DUP4 PUSH2 0x1382 JUMP JUMPDEST ISZERO PUSH2 0x277A JUMPI PUSH0 DUP4 DUP2 MSTORE PUSH1 0x20 DUP2 DUP2 MSTORE PUSH1 0x40 DUP1 DUP4 KECCAK256 PUSH1 0x1 PUSH1 0x1 PUSH1 0xA0 SHL SUB DUP7 AND DUP1 DUP6 MSTORE SWAP3 MSTORE DUP1 DUP4 KECCAK256 DUP1 SLOAD PUSH1 0xFF NOT AND SWAP1 SSTORE MLOAD CALLER SWAP3 DUP7 SWAP2 PUSH32 0xF6391F5C32D9C69D2A47EA670B442974B53935D1EDC7FD64EB21E047A839171B SWAP2 SWAP1 LOG4 POP PUSH1 0x1 PUSH2 0x653 JUMP JUMPDEST PUSH1 0x2 PUSH1 0x1 SLOAD SUB PUSH2 0x280D JUMPI PUSH1 0x40 MLOAD PUSH4 0x3EE5AEB5 PUSH1 0xE0 SHL DUP2 MSTORE PUSH1 0x4 ADD PUSH1 0x40 MLOAD DUP1 SWAP2 SUB SWAP1 REVERT JUMPDEST PUSH1 0x2 PUSH1 0x1 SSTORE JUMP JUMPDEST PUSH0 DUP1 JUMPDEST PUSH1 0x5 SLOAD DUP2 LT ISZERO PUSH2 0x2904 JUMPI PUSH1 0x4 PUSH0 PUSH1 0x5 DUP4 DUP2 SLOAD DUP2 LT PUSH2 0x2837 JUMPI PUSH2 0x2837 PUSH2 0x39D3 JUMP JUMPDEST PUSH0 SWAP2 DUP3 MSTORE PUSH1 0x20 DUP1 DUP4 KECCAK256 SWAP1 SWAP2 ADD SLOAD PUSH1 0x1 PUSH1 0x1 PUSH1 0xA0 SHL SUB AND DUP4 MSTORE DUP3 ADD SWAP3 SWAP1 SWAP3 MSTORE PUSH1 0x40 ADD SWAP1 KECCAK256 SLOAD PUSH1 0xFF AND DUP1 ISZERO PUSH2 0x28BF JUMPI POP DUP3 DUP1 MLOAD SWAP1 PUSH1 0x20 ADD KECCAK256 PUSH1 0x6 PUSH0 PUSH1 0x5 DUP5 DUP2 SLOAD DUP2 LT PUSH2 0x2883 JUMPI PUSH2 0x2883 PUSH2 0x39D3 JUMP JUMPDEST PUSH0 SWAP2 DUP3 MSTORE PUSH1 0x20 DUP1 DUP4 KECCAK256 SWAP1 SWAP2 ADD SLOAD PUSH1 0x1 PUSH1 0x1 PUSH1 0xA0 SHL SUB AND DUP4 MSTORE DUP3 ADD SWAP3 SWAP1 SWAP3 MSTORE PUSH1 0x40 SWAP1 DUP2 ADD SWAP1 SWAP2 KECCAK256 SWAP1 MLOAD PUSH2 0x28B5 SWAP2 SWAP1 PUSH2 0x3A64 JUMP JUMPDEST PUSH1 0x40 MLOAD DUP1 SWAP2 SUB SWAP1 KECCAK256 EQ JUMPDEST ISZERO PUSH2 0x28F2 JUMPI PUSH1 0x5 DUP2 DUP2 SLOAD DUP2 LT PUSH2 0x28D7 JUMPI PUSH2 0x28D7 PUSH2 0x39D3 JUMP JUMPDEST PUSH0 SWAP2 DUP3 MSTORE PUSH1 0x20 SWAP1 SWAP2 KECCAK256 ADD SLOAD PUSH1 0x1 PUSH1 0x1 PUSH1 0xA0 SHL SUB AND SWAP4 SWAP3 POP POP POP JUMP JUMPDEST DUP1 PUSH2 0x28FC DUP2 PUSH2 0x39E7 JUMP JUMPDEST SWAP2 POP POP PUSH2 0x2817 JUMP JUMPDEST POP PUSH0 SWAP3 SWAP2 POP POP JUMP JUMPDEST PUSH1 0x40 MLOAD PUSH4 0x222C387F PUSH1 0xE2 SHL DUP2 MSTORE PUSH1 0x1 PUSH1 0x1 PUSH1 0xA0 SHL SUB DUP6 AND PUSH1 0x4 DUP3 ADD MSTORE PUSH0 SWAP1 DUP2 SWAP1 DUP2 SWAP1 DUP2 SWAP1 ADDRESS SWAP1 PUSH4 0x88B0E1FC SWAP1 PUSH1 0x24 ADD PUSH1 0x80 PUSH1 0x40 MLOAD DUP1 DUP4 SUB DUP2 DUP7 GAS STATICCALL ISZERO DUP1 ISZERO PUSH2 0x2956 JUMPI RETURNDATASIZE PUSH0 DUP1 RETURNDATACOPY RETURNDATASIZE PUSH0 REVERT JUMPDEST POP POP POP POP PUSH1 0x40 MLOAD RETURNDATASIZE PUSH1 0x1F NOT PUSH1 0x1F DUP3 ADD AND DUP3 ADD DUP1 PUSH1 0x40 MSTORE POP DUP2 ADD SWAP1 PUSH2 0x297A SWAP2 SWAP1 PUSH2 0x36D2 JUMP JUMPDEST PUSH1 0x40 MLOAD PUSH4 0x39E113B1 PUSH1 0xE2 SHL DUP2 MSTORE SWAP4 SWAP8 POP SWAP2 SWAP6 POP SWAP4 POP SWAP2 POP PUSH0 SWAP1 ADDRESS SWAP1 PUSH4 0xE7844EC4 SWAP1 PUSH2 0x29AB SWAP1 DUP13 SWAP1 DUP7 SWAP1 PUSH1 0x4 ADD PUSH2 0x3A12 JUMP JUMPDEST PUSH1 0x60 PUSH1 0x40 MLOAD DUP1 DUP4 SUB DUP2 DUP7 GAS STATICCALL ISZERO DUP1 ISZERO PUSH2 0x29C6 JUMPI RETURNDATASIZE PUSH0 DUP1 RETURNDATACOPY RETURNDATASIZE PUSH0 REVERT JUMPDEST POP POP POP POP PUSH1 0x40 MLOAD RETURNDATASIZE PUSH1 0x1F NOT PUSH1 0x1F DUP3 ADD AND DUP3 ADD DUP1 PUSH1 0x40 MSTORE POP DUP2 ADD SWAP1 PUSH2 0x29EA SWAP2 SWAP1 PUSH2 0x3A2B JUMP JUMPDEST POP POP SWAP1 POP PUSH0 DUP2 DUP7 GT ISZERO PUSH2 0x2A08 JUMPI PUSH2 0x2A01 DUP3 DUP8 PUSH2 0x374F JUMP JUMPDEST SWAP1 POP PUSH2 0x2A13 JUMP JUMPDEST POP POP POP POP POP POP PUSH2 0x6A5 JUMP JUMPDEST DUP1 DUP10 LT ISZERO PUSH2 0x2A1E JUMPI POP DUP8 JUMPDEST DUP1 DUP7 LT ISZERO PUSH2 0x2A83 JUMPI PUSH1 0x40 MLOAD PUSH3 0x461BCD PUSH1 0xE5 SHL DUP2 MSTORE PUSH1 0x20 PUSH1 0x4 DUP3 ADD MSTORE PUSH1 0x2C PUSH1 0x24 DUP3 ADD MSTORE PUSH32 0x496E73756666696369656E74207661756C74206C697175696469747920666F72 PUSH1 0x44 DUP3 ADD MSTORE PUSH12 0x20726562616C616E63696E67 PUSH1 0xA0 SHL PUSH1 0x64 DUP3 ADD MSTORE PUSH1 0x84 ADD PUSH2 0x724 JUMP JUMPDEST PUSH1 0x40 MLOAD PUSH4 0x323D5A3 PUSH1 0xE6 SHL DUP2 MSTORE PUSH1 0x1 PUSH1 0x1 PUSH1 0xA0 SHL SUB DUP12 AND PUSH1 0x4 DUP3 ADD MSTORE PUSH1 0x24 DUP2 ADD DUP3 SWAP1 MSTORE PUSH1 0x44 DUP2 ADD DUP7 SWAP1 MSTORE PUSH1 0x64 DUP2 ADD DUP6 SWAP1 MSTORE PUSH1 0x84 DUP2 ADD DUP5 SWAP1 MSTORE PUSH0 SWAP1 DUP2 SWAP1 ADDRESS SWAP1 PUSH4 0xC8F568C0 SWAP1 PUSH1 0xA4 ADD PUSH1 0x40 DUP1 MLOAD DUP1 DUP4 SUB DUP2 DUP7 GAS STATICCALL SWAP3 POP POP POP DUP1 ISZERO PUSH2 0x2B02 JUMPI POP PUSH1 0x40 DUP1 MLOAD PUSH1 0x1F RETURNDATASIZE SWAP1 DUP2 ADD PUSH1 0x1F NOT AND DUP3 ADD SWAP1 SWAP3 MSTORE PUSH2 0x2AFF SWAP2 DUP2 ADD SWAP1 PUSH2 0x3AD6 JUMP JUMPDEST PUSH1 0x1 JUMPDEST PUSH2 0x2B13 JUMPI POP POP POP POP POP POP POP POP PUSH2 0x6A5 JUMP JUMPDEST SWAP1 SWAP3 POP SWAP1 POP PUSH1 0x1 PUSH1 0x1 PUSH1 0xA0 SHL SUB DUP11 AND ISZERO DUP1 ISZERO SWAP1 PUSH2 0x2B2F JUMPI POP PUSH0 DUP3 GT JUMPDEST ISZERO PUSH2 0x2BCA JUMPI PUSH1 0x40 MLOAD PUSH4 0xF6C00DB9 PUSH1 0xE0 SHL DUP2 MSTORE PUSH1 0x1 PUSH1 0x1 PUSH1 0xA0 SHL SUB DUP14 AND SWAP1 PUSH4 0xF6C00DB9 SWAP1 PUSH2 0x2B62 SWAP1 DUP14 SWAP1 DUP7 SWAP1 PUSH1 0x4 ADD PUSH2 0x3A12 JUMP JUMPDEST PUSH0 PUSH1 0x40 MLOAD DUP1 DUP4 SUB DUP2 PUSH0 DUP8 DUP1 EXTCODESIZE ISZERO DUP1 ISZERO PUSH2 0x2B79 JUMPI PUSH0 DUP1 REVERT JUMPDEST POP GAS CALL ISZERO DUP1 ISZERO PUSH2 0x2B8B JUMPI RETURNDATASIZE PUSH0 DUP1 RETURNDATACOPY RETURNDATASIZE PUSH0 REVERT JUMPDEST POP POP POP POP DUP10 PUSH1 0x1 PUSH1 0x1 PUSH1 0xA0 SHL SUB AND DUP13 PUSH1 0x1 PUSH1 0x1 PUSH1 0xA0 SHL SUB AND PUSH0 DUP1 MLOAD PUSH1 0x20 PUSH2 0x3BB8 DUP4 CODECOPY DUP2 MLOAD SWAP2 MSTORE DUP5 PUSH1 0x40 MLOAD PUSH2 0x2BC1 SWAP2 DUP2 MSTORE PUSH1 0x20 ADD SWAP1 JUMP JUMPDEST PUSH1 0x40 MLOAD DUP1 SWAP2 SUB SWAP1 LOG3 JUMPDEST PUSH1 0x1 PUSH1 0x1 PUSH1 0xA0 SHL SUB DUP10 AND ISZERO DUP1 ISZERO SWAP1 PUSH2 0x2BE1 JUMPI POP PUSH0 DUP2 GT JUMPDEST ISZERO PUSH2 0x2C7C JUMPI PUSH1 0x40 MLOAD PUSH4 0xF6C00DB9 PUSH1 0xE0 SHL DUP2 MSTORE PUSH1 0x1 PUSH1 0x1 PUSH1 0xA0 SHL SUB DUP14 AND SWAP1 PUSH4 0xF6C00DB9 SWAP1 PUSH2 0x2C14 SWAP1 DUP13 SWAP1 DUP6 SWAP1 PUSH1 0x4 ADD PUSH2 0x3A12 JUMP JUMPDEST PUSH0 PUSH1 0x40 MLOAD DUP1 DUP4 SUB DUP2 PUSH0 DUP8 DUP1 EXTCODESIZE ISZERO DUP1 ISZERO PUSH2 0x2C2B JUMPI PUSH0 DUP1 REVERT JUMPDEST POP GAS CALL ISZERO DUP1 ISZERO PUSH2 0x2C3D JUMPI RETURNDATASIZE PUSH0 DUP1 RETURNDATACOPY RETURNDATASIZE PUSH0 REVERT JUMPDEST POP POP POP POP DUP9 PUSH1 0x1 PUSH1 0x1 PUSH1 0xA0 SHL SUB AND DUP13 PUSH1 0x1 PUSH1 0x1 PUSH1 0xA0 SHL SUB AND PUSH0 DUP1 MLOAD PUSH1 0x20 PUSH2 0x3BB8 DUP4 CODECOPY DUP2 MLOAD SWAP2 MSTORE DUP4 PUSH1 0x40 MLOAD PUSH2 0x2C73 SWAP2 DUP2 MSTORE PUSH1 0x20 ADD SWAP1 JUMP JUMPDEST PUSH1 0x40 MLOAD DUP1 SWAP2 SUB SWAP1 LOG3 JUMPDEST POP POP POP POP POP POP POP POP POP POP POP POP JUMP JUMPDEST PUSH1 0x40 MLOAD PUSH4 0x39E113B1 PUSH1 0xE2 SHL DUP2 MSTORE DUP8 SWAP1 PUSH0 SWAP1 DUP2 SWAP1 ADDRESS SWAP1 PUSH4 0xE7844EC4 SWAP1 PUSH2 0x2CB5 SWAP1 DUP7 SWAP1 DUP9 SWAP1 PUSH1 0x4 ADD PUSH2 0x3A12 JUMP JUMPDEST PUSH1 0x60 PUSH1 0x40 MLOAD DUP1 DUP4 SUB DUP2 DUP7 GAS STATICCALL ISZERO DUP1 ISZERO PUSH2 0x2CD0 JUMPI RETURNDATASIZE PUSH0 DUP1 RETURNDATACOPY RETURNDATASIZE PUSH0 REVERT JUMPDEST POP POP POP POP PUSH1 0x40 MLOAD RETURNDATASIZE PUSH1 0x1F NOT PUSH1 0x1F DUP3 ADD AND DUP3 ADD DUP1 PUSH1 0x40 MSTORE POP DUP2 ADD SWAP1 PUSH2 0x2CF4 SWAP2 SWAP1 PUSH2 0x3A2B JUMP JUMPDEST SWAP1 SWAP4 POP SWAP2 POP POP PUSH1 0x1 PUSH1 0x1 PUSH1 0xA0 SHL SUB DUP6 AND ISZERO DUP1 ISZERO SWAP1 PUSH2 0x2D11 JUMPI POP DUP1 DUP8 GT JUMPDEST ISZERO PUSH2 0x2DD3 JUMPI PUSH0 PUSH2 0x2D21 DUP3 DUP10 PUSH2 0x374F JUMP JUMPDEST SWAP1 POP DUP10 DUP2 GT ISZERO PUSH2 0x2D2E JUMPI POP DUP9 JUMPDEST PUSH1 0x40 MLOAD PUSH4 0x16A7A12B PUSH1 0xE3 SHL DUP2 MSTORE PUSH1 0x1 PUSH1 0x1 PUSH1 0xA0 SHL SUB DUP6 AND SWAP1 PUSH4 0xB53D0958 SWAP1 PUSH2 0x2D5C SWAP1 DUP10 SWAP1 DUP6 SWAP1 PUSH1 0x4 ADD PUSH2 0x3A12 JUMP JUMPDEST PUSH0 PUSH1 0x40 MLOAD DUP1 DUP4 SUB DUP2 PUSH0 DUP8 DUP1 EXTCODESIZE ISZERO DUP1 ISZERO PUSH2 0x2D73 JUMPI PUSH0 DUP1 REVERT JUMPDEST POP GAS CALL ISZERO DUP1 ISZERO PUSH2 0x2D85 JUMPI RETURNDATASIZE PUSH0 DUP1 RETURNDATACOPY RETURNDATASIZE PUSH0 REVERT JUMPDEST POP POP POP POP DUP1 DUP11 PUSH2 0x2D95 SWAP2 SWAP1 PUSH2 0x374F JUMP JUMPDEST SWAP10 POP DUP6 PUSH1 0x1 PUSH1 0x1 PUSH1 0xA0 SHL SUB AND DUP12 PUSH1 0x1 PUSH1 0x1 PUSH1 0xA0 SHL SUB AND PUSH0 DUP1 MLOAD PUSH1 0x20 PUSH2 0x3B98 DUP4 CODECOPY DUP2 MLOAD SWAP2 MSTORE DUP4 PUSH1 0x40 MLOAD PUSH2 0x2DC9 SWAP2 DUP2 MSTORE PUSH1 0x20 ADD SWAP1 JUMP JUMPDEST PUSH1 0x40 MLOAD DUP1 SWAP2 SUB SWAP1 LOG3 POP JUMPDEST PUSH1 0x1 PUSH1 0x1 PUSH1 0xA0 SHL SUB DUP7 AND ISZERO DUP1 ISZERO SWAP1 PUSH2 0x2DEA JUMPI POP PUSH0 DUP10 GT JUMPDEST DUP1 ISZERO PUSH2 0x2DF5 JUMPI POP DUP2 DUP9 GT JUMPDEST ISZERO PUSH2 0x2EA9 JUMPI PUSH0 PUSH2 0x2E05 DUP4 DUP11 PUSH2 0x374F JUMP JUMPDEST SWAP1 POP DUP10 DUP2 GT ISZERO PUSH2 0x2E12 JUMPI POP DUP9 JUMPDEST PUSH1 0x40 MLOAD PUSH4 0x16A7A12B PUSH1 0xE3 SHL DUP2 MSTORE PUSH1 0x1 PUSH1 0x1 PUSH1 0xA0 SHL SUB DUP6 AND SWAP1 PUSH4 0xB53D0958 SWAP1 PUSH2 0x2E40 SWAP1 DUP11 SWAP1 DUP6 SWAP1 PUSH1 0x4 ADD PUSH2 0x3A12 JUMP JUMPDEST PUSH0 PUSH1 0x40 MLOAD DUP1 DUP4 SUB DUP2 PUSH0 DUP8 DUP1 EXTCODESIZE ISZERO DUP1 ISZERO PUSH2 0x2E57 JUMPI PUSH0 DUP1 REVERT JUMPDEST POP GAS CALL ISZERO DUP1 ISZERO PUSH2 0x2E69 JUMPI RETURNDATASIZE PUSH0 DUP1 RETURNDATACOPY RETURNDATASIZE PUSH0 REVERT JUMPDEST POP POP POP POP DUP7 PUSH1 0x1 PUSH1 0x1 PUSH1 0xA0 SHL SUB AND DUP12 PUSH1 0x1 PUSH1 0x1 PUSH1 0xA0 SHL SUB AND PUSH0 DUP1 MLOAD PUSH1 0x20 PUSH2 0x3B98 DUP4 CODECOPY DUP2 MLOAD SWAP2 MSTORE DUP4 PUSH1 0x40 MLOAD PUSH2 0x2E9F SWAP2 DUP2 MSTORE PUSH1 0x20 ADD SWAP1 JUMP JUMPDEST PUSH1 0x40 MLOAD DUP1 SWAP2 SUB SWAP1 LOG3 POP JUMPDEST POP POP POP POP POP POP POP POP POP POP JUMP JUMPDEST PUSH0 DUP2 PUSH0 SUB PUSH2 0x2EC4 JUMPI POP PUSH0 PUSH2 0x2F1D JUMP JUMPDEST PUSH0 DUP3 PUSH2 0x2ED2 DUP7 PUSH2 0x2710 PUSH2 0x3719 JUMP JUMPDEST PUSH2 0x2EDC SWAP2 SWAP1 PUSH2 0x3730 JUMP JUMPDEST SWAP1 POP PUSH0 DUP4 PUSH2 0x2EEC DUP7 PUSH2 0x2710 PUSH2 0x3719 JUMP JUMPDEST PUSH2 0x2EF6 SWAP2 SWAP1 PUSH2 0x3730 JUMP JUMPDEST SWAP1 POP DUP1 DUP3 GT ISZERO PUSH2 0x2F13 JUMPI PUSH2 0x2F0A DUP2 DUP4 PUSH2 0x374F JUMP JUMPDEST SWAP3 POP POP POP PUSH2 0x2F1D JUMP JUMPDEST PUSH2 0x2F0A DUP3 DUP3 PUSH2 0x374F JUMP JUMPDEST SWAP4 SWAP3 POP POP POP JUMP JUMPDEST PUSH0 DUP1 PUSH0 DUP1 ADDRESS PUSH1 0x1 PUSH1 0x1 PUSH1 0xA0 SHL SUB AND PUSH4 0xE7844EC4 DUP11 DUP8 PUSH1 0x40 MLOAD DUP4 PUSH4 0xFFFFFFFF AND PUSH1 0xE0 SHL DUP2 MSTORE PUSH1 0x4 ADD PUSH2 0x2F56 SWAP3 SWAP2 SWAP1 PUSH2 0x3A12 JUMP JUMPDEST PUSH1 0x60 PUSH1 0x40 MLOAD DUP1 DUP4 SUB DUP2 DUP7 GAS STATICCALL ISZERO DUP1 ISZERO PUSH2 0x2F71 JUMPI RETURNDATASIZE PUSH0 DUP1 RETURNDATACOPY RETURNDATASIZE PUSH0 REVERT JUMPDEST POP POP POP POP PUSH1 0x40 MLOAD RETURNDATASIZE PUSH1 0x1F NOT PUSH1 0x1F DUP3 ADD AND DUP3 ADD DUP1 PUSH1 0x40 MSTORE POP DUP2 ADD SWAP1 PUSH2 0x2F95 SWAP2 SWAP1 PUSH2 0x3A2B JUMP JUMPDEST SWAP3 POP SWAP3 POP POP PUSH0 DUP8 DUP4 PUSH2 0x2FA7 SWAP2 SWAP1 PUSH2 0x3AF8 JUMP JUMPDEST SWAP1 POP PUSH0 PUSH2 0x2FB4 DUP9 DUP5 PUSH2 0x3AF8 JUMP JUMPDEST SWAP1 POP PUSH0 DUP3 SGT DUP1 ISZERO PUSH2 0x2FC4 JUMPI POP PUSH0 DUP2 SGT JUMPDEST ISZERO PUSH2 0x3016 JUMPI DUP2 DUP2 PUSH0 PUSH2 0x2FD6 DUP3 DUP5 PUSH2 0x39FF JUMP JUMPDEST SWAP1 POP DUP1 DUP14 LT PUSH2 0x2FEA JUMPI DUP3 SWAP9 POP DUP2 SWAP8 POP PUSH2 0x300E JUMP JUMPDEST DUP1 PUSH2 0x2FF5 DUP5 DUP16 PUSH2 0x3719 JUMP JUMPDEST PUSH2 0x2FFF SWAP2 SWAP1 PUSH2 0x3730 JUMP JUMPDEST SWAP9 POP PUSH2 0x300B DUP10 DUP15 PUSH2 0x374F JUMP JUMPDEST SWAP8 POP JUMPDEST POP POP POP PUSH2 0x30BD JUMP JUMPDEST PUSH0 DUP3 SGT ISZERO PUSH2 0x3039 JUMPI DUP2 DUP1 DUP12 LT PUSH2 0x302C JUMPI DUP1 PUSH2 0x302E JUMP JUMPDEST DUP11 JUMPDEST SWAP7 POP PUSH0 SWAP6 POP POP PUSH2 0x30BD JUMP JUMPDEST PUSH0 DUP2 SGT ISZERO PUSH2 0x305C JUMPI PUSH0 SWAP6 POP DUP1 DUP1 DUP12 LT PUSH2 0x3052 JUMPI DUP1 PUSH2 0x3054 JUMP JUMPDEST DUP11 JUMPDEST SWAP6 POP POP PUSH2 0x30BD JUMP JUMPDEST PUSH1 0x40 MLOAD PUSH3 0x461BCD PUSH1 0xE5 SHL DUP2 MSTORE PUSH1 0x20 PUSH1 0x4 DUP3 ADD MSTORE PUSH1 0x30 PUSH1 0x24 DUP3 ADD MSTORE PUSH32 0x5374726174656769657320616C7265616479206174206F722061626F76652074 PUSH1 0x44 DUP3 ADD MSTORE PUSH16 0x30B933B2BA1030B63637B1B0BA34B7B7 PUSH1 0x81 SHL PUSH1 0x64 DUP3 ADD MSTORE PUSH1 0x84 ADD PUSH2 0x724 JUMP JUMPDEST POP POP POP POP SWAP6 POP SWAP6 SWAP4 POP POP POP POP JUMP JUMPDEST PUSH0 DUP1 PUSH2 0x30D6 DUP4 PUSH2 0x2814 JUMP JUMPDEST SWAP1 POP PUSH1 0x1 PUSH1 0x1 PUSH1 0xA0 SHL SUB DUP2 AND PUSH2 0x30EF JUMPI PUSH0 SWAP2 POP POP PUSH2 0x653 JUMP JUMPDEST PUSH1 0x40 MLOAD PUSH4 0x54192AD5 PUSH1 0xE0 SHL DUP2 MSTORE PUSH1 0x1 PUSH1 0x1 PUSH1 0xA0 SHL SUB DUP3 DUP2 AND PUSH1 0x4 DUP4 ADD MSTORE DUP6 AND SWAP1 PUSH4 0x54192AD5 SWAP1 PUSH1 0x24 ADD PUSH1 0xA0 PUSH1 0x40 MLOAD DUP1 DUP4 SUB DUP2 DUP7 GAS STATICCALL SWAP3 POP POP POP DUP1 ISZERO PUSH2 0x3151 JUMPI POP PUSH1 0x40 DUP1 MLOAD PUSH1 0x1F RETURNDATASIZE SWAP1 DUP2 ADD PUSH1 0x1F NOT AND DUP3 ADD SWAP1 SWAP3 MSTORE PUSH2 0x314E SWAP2 DUP2 ADD SWAP1 PUSH2 0x3B17 JUMP JUMPDEST PUSH1 0x1 JUMPDEST PUSH2 0x315E JUMPI PUSH0 SWAP2 POP POP PUSH2 0x653 JUMP JUMPDEST POP SWAP1 POP PUSH2 0x653 JUMP JUMPDEST POP SWAP3 SWAP2 POP POP JUMP JUMPDEST PUSH0 PUSH1 0x1 PUSH1 0x1 PUSH1 0xA0 SHL SUB DUP3 AND PUSH2 0x3183 JUMPI POP PUSH0 PUSH2 0x653 JUMP JUMPDEST PUSH1 0x40 MLOAD PUSH4 0x54192AD5 PUSH1 0xE0 SHL DUP2 MSTORE PUSH1 0x1 PUSH1 0x1 PUSH1 0xA0 SHL SUB DUP4 DUP2 AND PUSH1 0x4 DUP4 ADD MSTORE DUP5 AND SWAP1 PUSH4 0x54192AD5 SWAP1 PUSH1 0x24 ADD PUSH1 0xA0 PUSH1 0x40 MLOAD DUP1 DUP4 SUB DUP2 DUP7 GAS STATICCALL SWAP3 POP POP POP DUP1 ISZERO PUSH2 0x31E5 JUMPI POP PUSH1 0x40 DUP1 MLOAD PUSH1 0x1F RETURNDATASIZE SWAP1 DUP2 ADD PUSH1 0x1F NOT AND DUP3 ADD SWAP1 SWAP3 MSTORE PUSH2 0x31E2 SWAP2 DUP2 ADD SWAP1 PUSH2 0x3B17 JUMP JUMPDEST PUSH1 0x1 JUMPDEST PUSH2 0x31F0 JUMPI POP PUSH0 PUSH2 0x653 JUMP JUMPDEST PUSH1 0x1 DUP2 PUSH1 0x40 ADD MLOAD PUSH1 0x3 DUP2 GT ISZERO PUSH2 0x3208 JUMPI PUSH2 0x3208 PUSH2 0x3341 JUMP JUMPDEST EQ DUP1 PUSH2 0x3229 JUMPI POP PUSH1 0x2 DUP2 PUSH1 0x40 ADD MLOAD PUSH1 0x3 DUP2 GT ISZERO PUSH2 0x3227 JUMPI PUSH2 0x3227 PUSH2 0x3341 JUMP JUMPDEST EQ JUMPDEST SWAP2 POP POP PUSH2 0x653 JUMP JUMPDEST PUSH2 0x323B DUP3 DUP3 PUSH2 0x1382 JUMP JUMPDEST PUSH2 0x9F2 JUMPI DUP1 DUP3 PUSH1 0x40 MLOAD PUSH4 0xE2517D3F PUSH1 0xE0 SHL DUP2 MSTORE PUSH1 0x4 ADD PUSH2 0x724 SWAP3 SWAP2 SWAP1 PUSH2 0x3A12 JUMP JUMPDEST POP DUP1 SLOAD PUSH2 0x3268 SWAP1 PUSH2 0x3762 JUMP JUMPDEST PUSH0 DUP3 SSTORE DUP1 PUSH1 0x1F LT PUSH2 0x3277 JUMPI POP POP JUMP JUMPDEST PUSH1 0x1F ADD PUSH1 0x20 SWAP1 DIV SWAP1 PUSH0 MSTORE PUSH1 0x20 PUSH0 KECCAK256 SWAP1 DUP2 ADD SWAP1 PUSH2 0x26EF SWAP2 SWAP1 JUMPDEST DUP1 DUP3 GT ISZERO PUSH2 0x32A2 JUMPI PUSH0 DUP2 SSTORE PUSH1 0x1 ADD PUSH2 0x328F JUMP JUMPDEST POP SWAP1 JUMP JUMPDEST PUSH0 PUSH1 0x20 DUP3 DUP5 SUB SLT ISZERO PUSH2 0x32B6 JUMPI PUSH0 DUP1 REVERT JUMPDEST DUP2 CALLDATALOAD PUSH1 0x1 PUSH1 0x1 PUSH1 0xE0 SHL SUB NOT DUP2 AND DUP2 EQ PUSH2 0x2F1D JUMPI PUSH0 DUP1 REVERT JUMPDEST PUSH0 PUSH1 0x20 DUP3 DUP5 SUB SLT ISZERO PUSH2 0x32DD JUMPI PUSH0 DUP1 REVERT JUMPDEST POP CALLDATALOAD SWAP2 SWAP1 POP JUMP JUMPDEST PUSH1 0x1 PUSH1 0x1 PUSH1 0xA0 SHL SUB DUP2 AND DUP2 EQ PUSH2 0x26EF JUMPI PUSH0 DUP1 REVERT JUMPDEST PUSH0 PUSH1 0x20 DUP3 DUP5 SUB SLT ISZERO PUSH2 0x3308 JUMPI PUSH0 DUP1 REVERT JUMPDEST DUP2 CALLDATALOAD PUSH2 0x2F1D DUP2 PUSH2 0x32E4 JUMP JUMPDEST PUSH0 DUP1 PUSH1 0x40 DUP4 DUP6 SUB SLT ISZERO PUSH2 0x3324 JUMPI PUSH0 DUP1 REVERT JUMPDEST DUP3 CALLDATALOAD SWAP2 POP PUSH1 0x20 DUP4 ADD CALLDATALOAD PUSH2 0x3336 DUP2 PUSH2 0x32E4 JUMP JUMPDEST DUP1 SWAP2 POP POP SWAP3 POP SWAP3 SWAP1 POP JUMP JUMPDEST PUSH4 0x4E487B71 PUSH1 0xE0 SHL PUSH0 MSTORE PUSH1 0x21 PUSH1 0x4 MSTORE PUSH1 0x24 PUSH0 REVERT JUMPDEST PUSH1 0x7 DUP2 LT PUSH2 0x3371 JUMPI PUSH4 0x4E487B71 PUSH1 0xE0 SHL PUSH0 MSTORE PUSH1 0x21 PUSH1 0x4 MSTORE PUSH1 0x24 PUSH0 REVERT JUMPDEST SWAP1 MSTORE JUMP JUMPDEST PUSH0 DUP2 MLOAD DUP1 DUP5 MSTORE PUSH0 JUMPDEST DUP2 DUP2 LT ISZERO PUSH2 0x3399 JUMPI PUSH1 0x20 DUP2 DUP6 ADD DUP2 ADD MLOAD DUP7 DUP4 ADD DUP3 ADD MSTORE ADD PUSH2 0x337D JUMP JUMPDEST POP PUSH0 PUSH1 0x20 DUP3 DUP7 ADD ADD MSTORE PUSH1 0x20 PUSH1 0x1F NOT PUSH1 0x1F DUP4 ADD AND DUP6 ADD ADD SWAP2 POP POP SWAP3 SWAP2 POP POP JUMP JUMPDEST PUSH1 0x1 PUSH1 0x1 PUSH1 0xA0 SHL SUB DUP10 DUP2 AND DUP3 MSTORE DUP9 AND PUSH1 0x20 DUP3 ADD MSTORE PUSH1 0x40 DUP2 ADD DUP8 SWAP1 MSTORE PUSH1 0x60 DUP2 ADD DUP7 SWAP1 MSTORE PUSH1 0x80 DUP2 ADD DUP6 SWAP1 MSTORE PUSH0 PUSH2 0x100 PUSH2 0x33F2 PUSH1 0xA0 DUP5 ADD DUP8 PUSH2 0x3355 JUMP JUMPDEST DUP1 PUSH1 0xC0 DUP5 ADD MSTORE PUSH2 0x3404 DUP2 DUP5 ADD DUP7 PUSH2 0x3375 JUMP JUMPDEST SWAP1 POP DUP3 DUP2 SUB PUSH1 0xE0 DUP5 ADD MSTORE PUSH2 0x3418 DUP2 DUP6 PUSH2 0x3375 JUMP JUMPDEST SWAP12 SWAP11 POP POP POP POP POP POP POP POP POP POP POP JUMP JUMPDEST PUSH0 DUP1 DUP4 PUSH1 0x1F DUP5 ADD SLT PUSH2 0x3437 JUMPI PUSH0 DUP1 REVERT JUMPDEST POP DUP2 CALLDATALOAD PUSH8 0xFFFFFFFFFFFFFFFF DUP2 GT ISZERO PUSH2 0x344E JUMPI PUSH0 DUP1 REVERT JUMPDEST PUSH1 0x20 DUP4 ADD SWAP2 POP DUP4 PUSH1 0x20 DUP3 DUP6 ADD ADD GT ISZERO PUSH2 0x3465 JUMPI PUSH0 DUP1 REVERT JUMPDEST SWAP3 POP SWAP3 SWAP1 POP JUMP JUMPDEST PUSH0 DUP1 PUSH0 PUSH1 0x40 DUP5 DUP7 SUB SLT ISZERO PUSH2 0x347E JUMPI PUSH0 DUP1 REVERT JUMPDEST DUP4 CALLDATALOAD PUSH2 0x3489 DUP2 PUSH2 0x32E4 JUMP JUMPDEST SWAP3 POP PUSH1 0x20 DUP5 ADD CALLDATALOAD PUSH8 0xFFFFFFFFFFFFFFFF DUP2 GT ISZERO PUSH2 0x34A4 JUMPI PUSH0 DUP1 REVERT JUMPDEST PUSH2 0x34B0 DUP7 DUP3 DUP8 ADD PUSH2 0x3427 JUMP JUMPDEST SWAP5 SWAP8 SWAP1 SWAP7 POP SWAP4 SWAP5 POP POP POP POP JUMP JUMPDEST PUSH0 DUP1 PUSH0 DUP1 PUSH0 PUSH1 0x80 DUP7 DUP9 SUB SLT ISZERO PUSH2 0x34D1 JUMPI PUSH0 DUP1 REVERT JUMPDEST DUP6 CALLDATALOAD PUSH2 0x34DC DUP2 PUSH2 0x32E4 JUMP JUMPDEST SWAP5 POP PUSH1 0x20 DUP7 ADD CALLDATALOAD PUSH2 0x34EC DUP2 PUSH2 0x32E4 JUMP JUMPDEST SWAP4 POP PUSH1 0x40 DUP7 ADD CALLDATALOAD SWAP3 POP PUSH1 0x60 DUP7 ADD CALLDATALOAD PUSH8 0xFFFFFFFFFFFFFFFF DUP2 GT ISZERO PUSH2 0x350E JUMPI PUSH0 DUP1 REVERT JUMPDEST PUSH2 0x351A DUP9 DUP3 DUP10 ADD PUSH2 0x3427 JUMP JUMPDEST SWAP7 SWAP10 SWAP6 SWAP9 POP SWAP4 SWAP7 POP SWAP3 SWAP5 SWAP4 SWAP3 POP POP POP JUMP JUMPDEST PUSH1 0x20 DUP2 MSTORE PUSH0 PUSH2 0x2F1D PUSH1 0x20 DUP4 ADD DUP5 PUSH2 0x3375 JUMP JUMPDEST PUSH0 DUP1 PUSH1 0x40 DUP4 DUP6 SUB SLT ISZERO PUSH2 0x354E JUMPI PUSH0 DUP1 REVERT JUMPDEST DUP3 CALLDATALOAD PUSH2 0x3559 DUP2 PUSH2 0x32E4 JUMP JUMPDEST SWAP5 PUSH1 0x20 SWAP4 SWAP1 SWAP4 ADD CALLDATALOAD SWAP4 POP POP POP JUMP JUMPDEST PUSH0 DUP1 PUSH0 DUP1 PUSH0 PUSH1 0xA0 DUP7 DUP9 SUB SLT ISZERO PUSH2 0x357B JUMPI PUSH0 DUP1 REVERT JUMPDEST DUP6 CALLDATALOAD PUSH2 0x3586 DUP2 PUSH2 0x32E4 JUMP JUMPDEST SWAP8 PUSH1 0x20 DUP8 ADD CALLDATALOAD SWAP8 POP PUSH1 0x40 DUP8 ADD CALLDATALOAD SWAP7 PUSH1 0x60 DUP2 ADD CALLDATALOAD SWAP7 POP PUSH1 0x80 ADD CALLDATALOAD SWAP5 POP SWAP3 POP POP POP JUMP JUMPDEST PUSH0 DUP1 PUSH0 DUP1 PUSH1 0x60 DUP6 DUP8 SUB SLT ISZERO PUSH2 0x35BA JUMPI PUSH0 DUP1 REVERT JUMPDEST DUP5 CALLDATALOAD SWAP4 POP PUSH1 0x20 DUP6 ADD CALLDATALOAD PUSH1 0x7 DUP2 LT PUSH2 0x35CF JUMPI PUSH0 DUP1 REVERT JUMPDEST SWAP3 POP PUSH1 0x40 DUP6 ADD CALLDATALOAD PUSH8 0xFFFFFFFFFFFFFFFF DUP2 GT ISZERO PUSH2 0x35EA JUMPI PUSH0 DUP1 REVERT JUMPDEST PUSH2 0x35F6 DUP8 DUP3 DUP9 ADD PUSH2 0x3427 JUMP JUMPDEST SWAP6 SWAP9 SWAP5 SWAP8 POP SWAP6 POP POP POP POP JUMP JUMPDEST PUSH1 0x20 DUP1 DUP3 MSTORE DUP3 MLOAD PUSH1 0x1 PUSH1 0x1 PUSH1 0xA0 SHL SUB AND DUP3 DUP3 ADD MSTORE DUP3 ADD MLOAD PUSH0 SWAP1 PUSH2 0x3630 PUSH1 0x40 DUP5 ADD DUP3 PUSH1 0x1 PUSH1 0x1 PUSH1 0xA0 SHL SUB AND SWAP1 MSTORE JUMP JUMPDEST POP PUSH1 0x40 DUP4 ADD MLOAD PUSH1 0x60 DUP4 ADD MSTORE PUSH1 0x60 DUP4 ADD MLOAD PUSH1 0x80 DUP4 ADD MSTORE PUSH1 0x80 DUP4 ADD MLOAD PUSH1 0xA0 DUP4 ADD MSTORE PUSH1 0xA0 DUP4 ADD MLOAD PUSH2 0x3661 PUSH1 0xC0 DUP5 ADD DUP3 PUSH2 0x3355 JUMP JUMPDEST POP PUSH1 0xC0 DUP4 ADD MLOAD PUSH2 0x100 DUP1 PUSH1 0xE0 DUP6 ADD MSTORE PUSH2 0x367E PUSH2 0x120 DUP6 ADD DUP4 PUSH2 0x3375 JUMP JUMPDEST SWAP2 POP PUSH1 0xE0 DUP6 ADD MLOAD PUSH1 0x1F NOT DUP6 DUP5 SUB ADD DUP3 DUP7 ADD MSTORE PUSH2 0x369A DUP4 DUP3 PUSH2 0x3375 JUMP JUMPDEST SWAP7 SWAP6 POP POP POP POP POP POP JUMP JUMPDEST PUSH1 0x20 DUP1 DUP3 MSTORE PUSH1 0x14 SWAP1 DUP3 ADD MSTORE PUSH20 0x15985D5B1D081B9BDD081C9959DA5CDD195C9959 PUSH1 0x62 SHL PUSH1 0x40 DUP3 ADD MSTORE PUSH1 0x60 ADD SWAP1 JUMP JUMPDEST PUSH0 DUP1 PUSH0 DUP1 PUSH1 0x80 DUP6 DUP8 SUB SLT ISZERO PUSH2 0x36E5 JUMPI PUSH0 DUP1 REVERT JUMPDEST POP POP DUP3 MLOAD PUSH1 0x20 DUP5 ADD MLOAD PUSH1 0x40 DUP6 ADD MLOAD PUSH1 0x60 SWAP1 SWAP6 ADD MLOAD SWAP2 SWAP7 SWAP1 SWAP6 POP SWAP1 SWAP3 POP SWAP1 POP JUMP JUMPDEST PUSH4 0x4E487B71 PUSH1 0xE0 SHL PUSH0 MSTORE PUSH1 0x11 PUSH1 0x4 MSTORE PUSH1 0x24 PUSH0 REVERT JUMPDEST DUP1 DUP3 MUL DUP2 ISZERO DUP3 DUP3 DIV DUP5 EQ OR PUSH2 0x653 JUMPI PUSH2 0x653 PUSH2 0x3705 JUMP JUMPDEST PUSH0 DUP3 PUSH2 0x374A JUMPI PUSH4 0x4E487B71 PUSH1 0xE0 SHL PUSH0 MSTORE PUSH1 0x12 PUSH1 0x4 MSTORE PUSH1 0x24 PUSH0 REVERT JUMPDEST POP DIV SWAP1 JUMP JUMPDEST DUP2 DUP2 SUB DUP2 DUP2 GT ISZERO PUSH2 0x653 JUMPI PUSH2 0x653 PUSH2 0x3705 JUMP JUMPDEST PUSH1 0x1 DUP2 DUP2 SHR SWAP1 DUP3 AND DUP1 PUSH2 0x3776 JUMPI PUSH1 0x7F DUP3 AND SWAP2 POP JUMPDEST PUSH1 0x20 DUP3 LT DUP2 SUB PUSH2 0x3794 JUMPI PUSH4 0x4E487B71 PUSH1 0xE0 SHL PUSH0 MSTORE PUSH1 0x22 PUSH1 0x4 MSTORE PUSH1 0x24 PUSH0 REVERT JUMPDEST POP SWAP2 SWAP1 POP JUMP JUMPDEST PUSH4 0x4E487B71 PUSH1 0xE0 SHL PUSH0 MSTORE PUSH1 0x41 PUSH1 0x4 MSTORE PUSH1 0x24 PUSH0 REVERT JUMPDEST PUSH1 0x1F DUP3 GT ISZERO PUSH2 0x6DE JUMPI PUSH0 DUP2 DUP2 MSTORE PUSH1 0x20 DUP2 KECCAK256 PUSH1 0x1F DUP6 ADD PUSH1 0x5 SHR DUP2 ADD PUSH1 0x20 DUP7 LT ISZERO PUSH2 0x37D4 JUMPI POP DUP1 JUMPDEST PUSH1 0x1F DUP6 ADD PUSH1 0x5 SHR DUP3 ADD SWAP2 POP JUMPDEST DUP2 DUP2 LT ISZERO PUSH2 0x37F3 JUMPI DUP3 DUP2 SSTORE PUSH1 0x1 ADD PUSH2 0x37E0 JUMP JUMPDEST POP POP POP POP POP POP JUMP JUMPDEST PUSH8 0xFFFFFFFFFFFFFFFF DUP4 GT ISZERO PUSH2 0x3813 JUMPI PUSH2 0x3813 PUSH2 0x379A JUMP JUMPDEST PUSH2 0x3827 DUP4 PUSH2 0x3821 DUP4 SLOAD PUSH2 0x3762 JUMP JUMPDEST DUP4 PUSH2 0x37AE JUMP JUMPDEST PUSH0 PUSH1 0x1F DUP5 GT PUSH1 0x1 DUP2 EQ PUSH2 0x3858 JUMPI PUSH0 DUP6 ISZERO PUSH2 0x3841 JUMPI POP DUP4 DUP3 ADD CALLDATALOAD JUMPDEST PUSH0 NOT PUSH1 0x3 DUP8 SWAP1 SHL SHR NOT AND PUSH1 0x1 DUP7 SWAP1 SHL OR DUP4 SSTORE PUSH2 0x38B0 JUMP JUMPDEST PUSH0 DUP4 DUP2 MSTORE PUSH1 0x20 SWAP1 KECCAK256 PUSH1 0x1F NOT DUP7 AND SWAP1 DUP4 JUMPDEST DUP3 DUP2 LT ISZERO PUSH2 0x3888 JUMPI DUP7 DUP6 ADD CALLDATALOAD DUP3 SSTORE PUSH1 0x20 SWAP5 DUP6 ADD SWAP5 PUSH1 0x1 SWAP1 SWAP3 ADD SWAP2 ADD PUSH2 0x3868 JUMP JUMPDEST POP DUP7 DUP3 LT ISZERO PUSH2 0x38A4 JUMPI PUSH0 NOT PUSH1 0xF8 DUP9 PUSH1 0x3 SHL AND SHR NOT DUP5 DUP8 ADD CALLDATALOAD AND DUP2 SSTORE JUMPDEST POP POP PUSH1 0x1 DUP6 PUSH1 0x1 SHL ADD DUP4 SSTORE JUMPDEST POP POP POP POP POP JUMP JUMPDEST PUSH1 0x20 DUP2 MSTORE DUP2 PUSH1 0x20 DUP3 ADD MSTORE DUP2 DUP4 PUSH1 0x40 DUP4 ADD CALLDATACOPY PUSH0 DUP2 DUP4 ADD PUSH1 0x40 SWAP1 DUP2 ADD SWAP2 SWAP1 SWAP2 MSTORE PUSH1 0x1F SWAP1 SWAP3 ADD PUSH1 0x1F NOT AND ADD ADD SWAP2 SWAP1 POP JUMP JUMPDEST DUP2 MLOAD PUSH8 0xFFFFFFFFFFFFFFFF DUP2 GT ISZERO PUSH2 0x38FF JUMPI PUSH2 0x38FF PUSH2 0x379A JUMP JUMPDEST PUSH2 0x3913 DUP2 PUSH2 0x390D DUP5 SLOAD PUSH2 0x3762 JUMP JUMPDEST DUP5 PUSH2 0x37AE JUMP JUMPDEST PUSH1 0x20 DUP1 PUSH1 0x1F DUP4 GT PUSH1 0x1 DUP2 EQ PUSH2 0x3946 JUMPI PUSH0 DUP5 ISZERO PUSH2 0x392F JUMPI POP DUP6 DUP4 ADD MLOAD JUMPDEST PUSH0 NOT PUSH1 0x3 DUP7 SWAP1 SHL SHR NOT AND PUSH1 0x1 DUP6 SWAP1 SHL OR DUP6 SSTORE PUSH2 0x37F3 JUMP JUMPDEST PUSH0 DUP6 DUP2 MSTORE PUSH1 0x20 DUP2 KECCAK256 PUSH1 0x1F NOT DUP7 AND SWAP2 JUMPDEST DUP3 DUP2 LT ISZERO PUSH2 0x3974 JUMPI DUP9 DUP7 ADD MLOAD DUP3 SSTORE SWAP5 DUP5 ADD SWAP5 PUSH1 0x1 SWAP1 SWAP2 ADD SWAP1 DUP5 ADD PUSH2 0x3955 JUMP JUMPDEST POP DUP6 DUP3 LT ISZERO PUSH2 0x3991 JUMPI DUP8 DUP6 ADD MLOAD PUSH0 NOT PUSH1 0x3 DUP9 SWAP1 SHL PUSH1 0xF8 AND SHR NOT AND DUP2 SSTORE JUMPDEST POP POP POP POP POP PUSH1 0x1 SWAP1 DUP2 SHL ADD SWAP1 SSTORE POP JUMP JUMPDEST PUSH0 PUSH1 0x20 DUP3 DUP5 SUB SLT ISZERO PUSH2 0x39B1 JUMPI PUSH0 DUP1 REVERT JUMPDEST DUP2 MLOAD PUSH2 0x2F1D DUP2 PUSH2 0x32E4 JUMP JUMPDEST PUSH0 PUSH1 0x20 DUP3 DUP5 SUB SLT ISZERO PUSH2 0x39CC JUMPI PUSH0 DUP1 REVERT JUMPDEST POP MLOAD SWAP2 SWAP1 POP JUMP JUMPDEST PUSH4 0x4E487B71 PUSH1 0xE0 SHL PUSH0 MSTORE PUSH1 0x32 PUSH1 0x4 MSTORE PUSH1 0x24 PUSH0 REVERT JUMPDEST PUSH0 PUSH1 0x1 DUP3 ADD PUSH2 0x39F8 JUMPI PUSH2 0x39F8 PUSH2 0x3705 JUMP JUMPDEST POP PUSH1 0x1 ADD SWAP1 JUMP JUMPDEST DUP1 DUP3 ADD DUP1 DUP3 GT ISZERO PUSH2 0x653 JUMPI PUSH2 0x653 PUSH2 0x3705 JUMP JUMPDEST PUSH1 0x1 PUSH1 0x1 PUSH1 0xA0 SHL SUB SWAP3 SWAP1 SWAP3 AND DUP3 MSTORE PUSH1 0x20 DUP3 ADD MSTORE PUSH1 0x40 ADD SWAP1 JUMP JUMPDEST PUSH0 DUP1 PUSH0 PUSH1 0x60 DUP5 DUP7 SUB SLT ISZERO PUSH2 0x3A3D JUMPI PUSH0 DUP1 REVERT JUMPDEST DUP4 MLOAD SWAP3 POP PUSH1 0x20 DUP5 ADD MLOAD SWAP2 POP PUSH1 0x40 DUP5 ADD MLOAD SWAP1 POP SWAP3 POP SWAP3 POP SWAP3 JUMP JUMPDEST PUSH1 0x20 DUP2 ADD PUSH2 0x653 DUP3 DUP5 PUSH2 0x3355 JUMP JUMPDEST PUSH0 DUP1 DUP4 SLOAD PUSH2 0x3A71 DUP2 PUSH2 0x3762 JUMP JUMPDEST PUSH1 0x1 DUP3 DUP2 AND DUP1 ISZERO PUSH2 0x3A89 JUMPI PUSH1 0x1 DUP2 EQ PUSH2 0x3A9E JUMPI PUSH2 0x3ACA JUMP JUMPDEST PUSH1 0xFF NOT DUP5 AND DUP8 MSTORE DUP3 ISZERO ISZERO DUP4 MUL DUP8 ADD SWAP5 POP PUSH2 0x3ACA JUMP JUMPDEST DUP8 PUSH0 MSTORE PUSH1 0x20 DUP1 PUSH0 KECCAK256 PUSH0 JUMPDEST DUP6 DUP2 LT ISZERO PUSH2 0x3AC1 JUMPI DUP2 SLOAD DUP11 DUP3 ADD MSTORE SWAP1 DUP5 ADD SWAP1 DUP3 ADD PUSH2 0x3AA8 JUMP JUMPDEST POP POP POP DUP3 DUP8 ADD SWAP5 POP JUMPDEST POP SWAP3 SWAP7 SWAP6 POP POP POP POP POP POP JUMP JUMPDEST PUSH0 DUP1 PUSH1 0x40 DUP4 DUP6 SUB SLT ISZERO PUSH2 0x3AE7 JUMPI PUSH0 DUP1 REVERT JUMPDEST POP POP DUP1 MLOAD PUSH1 0x20 SWAP1 SWAP2 ADD MLOAD SWAP1 SWAP3 SWAP1 SWAP2 POP JUMP JUMPDEST DUP2 DUP2 SUB PUSH0 DUP4 SLT DUP1 ISZERO DUP4 DUP4 SGT AND DUP4 DUP4 SLT DUP3 AND OR ISZERO PUSH2 0x3166 JUMPI PUSH2 0x3166 PUSH2 0x3705 JUMP JUMPDEST PUSH0 PUSH1 0xA0 DUP3 DUP5 SUB SLT ISZERO PUSH2 0x3B27 JUMPI PUSH0 DUP1 REVERT JUMPDEST PUSH1 0x40 MLOAD PUSH1 0xA0 DUP2 ADD DUP2 DUP2 LT PUSH8 0xFFFFFFFFFFFFFFFF DUP3 GT OR ISZERO PUSH2 0x3B4A JUMPI PUSH2 0x3B4A PUSH2 0x379A JUMP JUMPDEST PUSH1 0x40 MSTORE DUP3 MLOAD PUSH2 0x3B58 DUP2 PUSH2 0x32E4 JUMP JUMPDEST DUP2 MSTORE PUSH1 0x20 DUP4 DUP2 ADD MLOAD SWAP1 DUP3 ADD MSTORE PUSH1 0x40 DUP4 ADD MLOAD PUSH1 0x4 DUP2 LT PUSH2 0x3B75 JUMPI PUSH0 DUP1 REVERT JUMPDEST PUSH1 0x40 DUP3 ADD MSTORE PUSH1 0x60 DUP4 DUP2 ADD MLOAD SWAP1 DUP3 ADD MSTORE PUSH1 0x80 SWAP3 DUP4 ADD MLOAD SWAP3 DUP2 ADD SWAP3 SWAP1 SWAP3 MSTORE POP SWAP2 SWAP1 POP JUMP INVALID 0xBA 0xBC DUP2 0x24 0xDD 0xAA GT GT SWAP11 0xBD 0xDC SELFDESTRUCT 0xD6 SWAP10 SWAP3 0x4F DUP6 PUSH29 0x9A15F1FC50BE38069E96A47AE8C0B7AC28EDE4873DC81919CA509F636B 0xD6 0xAB 0xB2 SWAP11 0xD5 SLT NUMBER STATICCALL 0xE3 DUP11 MSIZE 0xAE 0xA7 PUSH9 0x729DDE97667070C54E CALL DUP3 0xB0 CREATE2 DUP6 DUP12 SUB 0x4B 0xEA 0xC1 0xB6 RETURN ADDMOD SWAP11 LOG2 0xD3 XOR DUP12 0xB1 0xE8 SWAP3 SWAP16 0x4F 0xA9 0xB9 0x29 0x29 SWAP5 0x4E SWAP4 PUSH11 0xF6E1CBAA227DF218D7D60 0x25 0xC2 LOG2 PUSH25 0x5DB840E42A3425F24E9E68ACA2646970667358221220442BBD 0xB0 0x29 0xF7 CODESIZE DUP9 CALLCODE 0x5C 0xB6 SWAP16 0xC0 0x25 0xED DUP3 RETURN PUSH21 0xBA87AB5649B3F2B19CBB0F25821964736F6C634300 ADDMOD EQ STOP CALLER "},"methodIdentifiers":{"BUFFER_TARGET_BPS()":"93a2a108","COMPOUNDER_ROLE()":"684cb274","DEFAULT_ADMIN_ROLE()":"a217fddf","FIRELIGHT_TARGET_BPS()":"0ec280ba","KINETIC_TARGET_BPS()":"656ae5eb","OPERATOR_ROLE()":"f5b541a6","_calculateDeploymentAmountsExternal(address,uint256,uint256,uint256,uint256)":"c8f568c0","addCompounder(address)":"738d2e89","addOperator(address)":"9870d7fe","bridgeRequests(bytes32)":"60b41411","createBridgeRequest(address,address,uint256,string)":"84824d76","deployToStrategies(address,uint256)":"e22486be","deregisterStrategy(address)":"feb4a71d","deregisterVault(address)":"38e270ed","executeCompound(address)":"e0b625f5","getBridgeRequest(bytes32)":"d4b5bbc8","getCurrentAllocation(address)":"88b0e1fc","getRoleAdmin(bytes32)":"248a9ca3","getStrategyCount()":"31e19cfa","getTargetAllocation(address,uint256)":"e7844ec4","getVaultCount()":"74d4e491","grantRole(bytes32,address)":"2f2ff15d","hasRole(bytes32,address)":"91d14854","lastCompoundTime(address)":"277d3d54","minCompoundInterval()":"aa121dcb","needsRebalancing(address,uint256)":"bb9dd1e3","rebalanceVault(address)":"3e32e7ea","registerStrategy(address,string)":"7f17c58f","registerVault(address)":"67ccd1cb","registeredStrategies(address)":"fd35d886","registeredVaults(address)":"ef0f0ec3","removeCompounder(address)":"70ae305b","removeOperator(address)":"ac8a584a","renounceRole(bytes32,address)":"36568abe","revokeRole(bytes32,address)":"d547741f","setMinCompoundInterval(uint256)":"53040960","strategyList(uint256)":"a267526b","strategyNames(address)":"ac3fea33","supportsInterface(bytes4)":"01ffc9a7","updateBridgeStatus(bytes32,uint8,string)":"cfd8b492","vaultList(uint256)":"2d8efbc5","withdrawFromStrategies(address,uint256)":"b17e6e23"}}}}}