{"project/contracts/ShXRPVault.sol":{"ShXRPVault":{"abi":[{"inputs":[{"internalType":"address","name":"_fxrpToken","type":"address"},{"internalType":"address","name":"_sparkRouter","type":"address"},{"internalType":"address","name":"_wflrToken","type":"address"}],"stateMutability":"nonpayable","type":"constructor"},{"inputs":[{"internalType":"address","name":"spender","type":"address"},{"internalType":"uint256","name":"allowance","type":"uint256"},{"internalType":"uint256","name":"needed","type":"uint256"}],"name":"ERC20InsufficientAllowance","type":"error"},{"inputs":[{"internalType":"address","name":"sender","type":"address"},{"internalType":"uint256","name":"balance","type":"uint256"},{"internalType":"uint256","name":"needed","type":"uint256"}],"name":"ERC20InsufficientBalance","type":"error"},{"inputs":[{"internalType":"address","name":"approver","type":"address"}],"name":"ERC20InvalidApprover","type":"error"},{"inputs":[{"internalType":"address","name":"receiver","type":"address"}],"name":"ERC20InvalidReceiver","type":"error"},{"inputs":[{"internalType":"address","name":"sender","type":"address"}],"name":"ERC20InvalidSender","type":"error"},{"inputs":[{"internalType":"address","name":"spender","type":"address"}],"name":"ERC20InvalidSpender","type":"error"},{"inputs":[{"internalType":"address","name":"owner","type":"address"}],"name":"OwnableInvalidOwner","type":"error"},{"inputs":[{"internalType":"address","name":"account","type":"address"}],"name":"OwnableUnauthorizedAccount","type":"error"},{"inputs":[],"name":"ReentrancyGuardReentrantCall","type":"error"},{"inputs":[{"internalType":"address","name":"token","type":"address"}],"name":"SafeERC20FailedOperation","type":"error"},{"anonymous":false,"inputs":[{"indexed":true,"internalType":"address","name":"owner","type":"address"},{"indexed":true,"internalType":"address","name":"spender","type":"address"},{"indexed":false,"internalType":"uint256","name":"value","type":"uint256"}],"name":"Approval","type":"event"},{"anonymous":false,"inputs":[{"indexed":false,"internalType":"uint256","name":"newRate","type":"uint256"}],"name":"ExchangeRateUpdated","type":"event"},{"anonymous":false,"inputs":[{"indexed":true,"internalType":"address","name":"operator","type":"address"},{"indexed":false,"internalType":"uint256","name":"amount","type":"uint256"}],"name":"FXRPDeposited","type":"event"},{"anonymous":false,"inputs":[{"indexed":false,"internalType":"uint256","name":"fxrpAmount","type":"uint256"},{"indexed":false,"internalType":"uint256","name":"flrAmount","type":"uint256"},{"indexed":false,"internalType":"uint256","name":"lpTokens","type":"uint256"}],"name":"FXRPStaked","type":"event"},{"anonymous":false,"inputs":[{"indexed":true,"internalType":"address","name":"lpToken","type":"address"}],"name":"LPTokenSet","type":"event"},{"anonymous":false,"inputs":[{"indexed":false,"internalType":"uint256","name":"lpAmount","type":"uint256"},{"indexed":false,"internalType":"uint256","name":"fxrpReceived","type":"uint256"},{"indexed":false,"internalType":"uint256","name":"wflrReceived","type":"uint256"}],"name":"LPWithdrawn","type":"event"},{"anonymous":false,"inputs":[{"indexed":false,"internalType":"uint256","name":"newMinDeposit","type":"uint256"}],"name":"MinDepositUpdated","type":"event"},{"anonymous":false,"inputs":[{"indexed":true,"internalType":"address","name":"operator","type":"address"}],"name":"OperatorAdded","type":"event"},{"anonymous":false,"inputs":[{"indexed":true,"internalType":"address","name":"operator","type":"address"}],"name":"OperatorRemoved","type":"event"},{"anonymous":false,"inputs":[{"indexed":true,"internalType":"address","name":"previousOwner","type":"address"},{"indexed":true,"internalType":"address","name":"newOwner","type":"address"}],"name":"OwnershipTransferred","type":"event"},{"anonymous":false,"inputs":[{"indexed":false,"internalType":"uint256","name":"rewardAmount","type":"uint256"},{"indexed":false,"internalType":"uint256","name":"newExchangeRate","type":"uint256"}],"name":"RewardsCompounded","type":"event"},{"anonymous":false,"inputs":[{"indexed":false,"internalType":"uint256","name":"rewardAmount","type":"uint256"},{"indexed":false,"internalType":"uint256","name":"newExchangeRate","type":"uint256"}],"name":"RewardsDistributed","type":"event"},{"anonymous":false,"inputs":[{"indexed":false,"internalType":"uint256","name":"rewardAmount","type":"uint256"},{"indexed":false,"internalType":"uint256","name":"newExchangeRate","type":"uint256"}],"name":"RewardsSimulated","type":"event"},{"anonymous":false,"inputs":[{"indexed":true,"internalType":"address","name":"user","type":"address"},{"indexed":false,"internalType":"uint256","name":"shXRPAmount","type":"uint256"},{"indexed":false,"internalType":"uint256","name":"xrpAmount","type":"uint256"}],"name":"ShXRPBurned","type":"event"},{"anonymous":false,"inputs":[{"indexed":true,"internalType":"address","name":"user","type":"address"},{"indexed":false,"internalType":"uint256","name":"xrpAmount","type":"uint256"},{"indexed":false,"internalType":"uint256","name":"shXRPAmount","type":"uint256"},{"indexed":false,"internalType":"string","name":"xrplTxHash","type":"string"}],"name":"ShXRPMinted","type":"event"},{"anonymous":false,"inputs":[{"indexed":true,"internalType":"address","name":"tokenIn","type":"address"},{"indexed":false,"internalType":"uint256","name":"amountIn","type":"uint256"},{"indexed":true,"internalType":"address","name":"tokenOut","type":"address"},{"indexed":false,"internalType":"uint256","name":"amountOut","type":"uint256"}],"name":"TokensSwapped","type":"event"},{"anonymous":false,"inputs":[{"indexed":true,"internalType":"address","name":"from","type":"address"},{"indexed":true,"internalType":"address","name":"to","type":"address"},{"indexed":false,"internalType":"uint256","name":"value","type":"uint256"}],"name":"Transfer","type":"event"},{"anonymous":false,"inputs":[{"indexed":false,"internalType":"bool","name":"enabled","type":"bool"}],"name":"YieldEnabledUpdated","type":"event"},{"inputs":[{"internalType":"address","name":"operator","type":"address"}],"name":"addOperator","outputs":[],"stateMutability":"nonpayable","type":"function"},{"inputs":[{"internalType":"address","name":"owner","type":"address"},{"internalType":"address","name":"spender","type":"address"}],"name":"allowance","outputs":[{"internalType":"uint256","name":"","type":"uint256"}],"stateMutability":"view","type":"function"},{"inputs":[{"internalType":"address","name":"spender","type":"address"},{"internalType":"uint256","name":"value","type":"uint256"}],"name":"approve","outputs":[{"internalType":"bool","name":"","type":"bool"}],"stateMutability":"nonpayable","type":"function"},{"inputs":[{"internalType":"address","name":"account","type":"address"}],"name":"balanceOf","outputs":[{"internalType":"uint256","name":"","type":"uint256"}],"stateMutability":"view","type":"function"},{"inputs":[{"internalType":"uint256","name":"value","type":"uint256"}],"name":"burn","outputs":[],"stateMutability":"nonpayable","type":"function"},{"inputs":[{"internalType":"address","name":"account","type":"address"},{"internalType":"uint256","name":"value","type":"uint256"}],"name":"burnFrom","outputs":[],"stateMutability":"nonpayable","type":"function"},{"inputs":[{"internalType":"uint256","name":"shXRPAmount","type":"uint256"}],"name":"burnShXRP","outputs":[{"internalType":"uint256","name":"xrpAmount","type":"uint256"}],"stateMutability":"nonpayable","type":"function"},{"inputs":[{"internalType":"uint256","name":"xrpAmount","type":"uint256"}],"name":"calculateShXRPAmount","outputs":[{"internalType":"uint256","name":"","type":"uint256"}],"stateMutability":"view","type":"function"},{"inputs":[{"internalType":"uint256","name":"shXRPAmount","type":"uint256"}],"name":"calculateXRPAmount","outputs":[{"internalType":"uint256","name":"","type":"uint256"}],"stateMutability":"view","type":"function"},{"inputs":[],"name":"claimAndCompound","outputs":[],"stateMutability":"nonpayable","type":"function"},{"inputs":[],"name":"decimals","outputs":[{"internalType":"uint8","name":"","type":"uint8"}],"stateMutability":"pure","type":"function"},{"inputs":[{"internalType":"uint256","name":"amount","type":"uint256"}],"name":"depositFXRP","outputs":[],"stateMutability":"nonpayable","type":"function"},{"inputs":[{"internalType":"uint256","name":"rewardAmount","type":"uint256"}],"name":"distributeRewards","outputs":[],"stateMutability":"nonpayable","type":"function"},{"inputs":[],"name":"exchangeRate","outputs":[{"internalType":"uint256","name":"","type":"uint256"}],"stateMutability":"view","type":"function"},{"inputs":[],"name":"fxrpToken","outputs":[{"internalType":"contract IERC20","name":"","type":"address"}],"stateMutability":"view","type":"function"},{"inputs":[],"name":"getExchangeRate","outputs":[{"internalType":"uint256","name":"","type":"uint256"}],"stateMutability":"view","type":"function"},{"inputs":[],"name":"lpToken","outputs":[{"internalType":"address","name":"","type":"address"}],"stateMutability":"view","type":"function"},{"inputs":[],"name":"minDeposit","outputs":[{"internalType":"uint256","name":"","type":"uint256"}],"stateMutability":"view","type":"function"},{"inputs":[{"internalType":"address","name":"user","type":"address"},{"internalType":"uint256","name":"xrpAmount","type":"uint256"},{"internalType":"string","name":"xrplTxHash","type":"string"}],"name":"mintShXRP","outputs":[],"stateMutability":"nonpayable","type":"function"},{"inputs":[],"name":"name","outputs":[{"internalType":"string","name":"","type":"string"}],"stateMutability":"view","type":"function"},{"inputs":[{"internalType":"address","name":"","type":"address"}],"name":"operators","outputs":[{"internalType":"bool","name":"","type":"bool"}],"stateMutability":"view","type":"function"},{"inputs":[],"name":"owner","outputs":[{"internalType":"address","name":"","type":"address"}],"stateMutability":"view","type":"function"},{"inputs":[{"internalType":"address","name":"operator","type":"address"}],"name":"removeOperator","outputs":[],"stateMutability":"nonpayable","type":"function"},{"inputs":[],"name":"renounceOwnership","outputs":[],"stateMutability":"nonpayable","type":"function"},{"inputs":[{"internalType":"address","name":"_lpToken","type":"address"}],"name":"setLPToken","outputs":[],"stateMutability":"nonpayable","type":"function"},{"inputs":[{"internalType":"uint256","name":"newMinDeposit","type":"uint256"}],"name":"setMinDeposit","outputs":[],"stateMutability":"nonpayable","type":"function"},{"inputs":[{"internalType":"bool","name":"enabled","type":"bool"}],"name":"setYieldEnabled","outputs":[],"stateMutability":"nonpayable","type":"function"},{"inputs":[{"internalType":"uint256","name":"rewardAmount","type":"uint256"}],"name":"simulateRewards","outputs":[],"stateMutability":"nonpayable","type":"function"},{"inputs":[],"name":"sparkRouter","outputs":[{"internalType":"address","name":"","type":"address"}],"stateMutability":"view","type":"function"},{"inputs":[{"internalType":"uint256","name":"fxrpAmount","type":"uint256"},{"internalType":"uint256","name":"flrAmount","type":"uint256"}],"name":"stakeInDeFi","outputs":[],"stateMutability":"nonpayable","type":"function"},{"inputs":[{"internalType":"address","name":"tokenIn","type":"address"},{"internalType":"uint256","name":"amountIn","type":"uint256"}],"name":"swapToFXRP","outputs":[{"internalType":"uint256","name":"amountOut","type":"uint256"}],"stateMutability":"nonpayable","type":"function"},{"inputs":[],"name":"symbol","outputs":[{"internalType":"string","name":"","type":"string"}],"stateMutability":"view","type":"function"},{"inputs":[],"name":"totalFXRPDeposited","outputs":[{"internalType":"uint256","name":"","type":"uint256"}],"stateMutability":"view","type":"function"},{"inputs":[],"name":"totalFXRPInVault","outputs":[{"internalType":"uint256","name":"","type":"uint256"}],"stateMutability":"view","type":"function"},{"inputs":[],"name":"totalLPStaked","outputs":[{"internalType":"uint256","name":"","type":"uint256"}],"stateMutability":"view","type":"function"},{"inputs":[],"name":"totalSupply","outputs":[{"internalType":"uint256","name":"","type":"uint256"}],"stateMutability":"view","type":"function"},{"inputs":[],"name":"totalXRPLocked","outputs":[{"internalType":"uint256","name":"","type":"uint256"}],"stateMutability":"view","type":"function"},{"inputs":[{"internalType":"address","name":"to","type":"address"},{"internalType":"uint256","name":"value","type":"uint256"}],"name":"transfer","outputs":[{"internalType":"bool","name":"","type":"bool"}],"stateMutability":"nonpayable","type":"function"},{"inputs":[{"internalType":"address","name":"from","type":"address"},{"internalType":"address","name":"to","type":"address"},{"internalType":"uint256","name":"value","type":"uint256"}],"name":"transferFrom","outputs":[{"internalType":"bool","name":"","type":"bool"}],"stateMutability":"nonpayable","type":"function"},{"inputs":[{"internalType":"address","name":"newOwner","type":"address"}],"name":"transferOwnership","outputs":[],"stateMutability":"nonpayable","type":"function"},{"inputs":[],"name":"wflrToken","outputs":[{"internalType":"address","name":"","type":"address"}],"stateMutability":"view","type":"function"},{"inputs":[{"internalType":"uint256","name":"lpAmount","type":"uint256"}],"name":"withdrawFromLP","outputs":[{"internalType":"uint256","name":"amountFXRP","type":"uint256"},{"internalType":"uint256","name":"amountWFLR","type":"uint256"}],"stateMutability":"nonpayable","type":"function"},{"inputs":[],"name":"yieldEnabled","outputs":[{"internalType":"bool","name":"","type":"bool"}],"stateMutability":"view","type":"function"}],"evm":{"bytecode":{"linkReferences":{},"object":"6080604052662386f26fc10000600855670de0b6b3a7640000600a5534801562000027575f80fd5b5060405162002aba38038062002aba8339810160408190526200004a91620002f8565b336040518060400160405280600a8152602001690536869656c64205852560b41b81525060405180604001604052806005815260200164073685852560dc1b81525081600390816200009d9190620003df565b506004620000ac8282620003df565b5050506001600160a01b038116620000de57604051631e4fbdf760e01b81525f60048201526024015b60405180910390fd5b620000e9816200028b565b5060016006556001600160a01b038316620001475760405162461bcd60e51b815260206004820152601a60248201527f496e76616c6964204658525020746f6b656e20616464726573730000000000006044820152606401620000d5565b6001600160a01b0382166200019f5760405162461bcd60e51b815260206004820152601b60248201527f496e76616c696420537061726b526f75746572206164647265737300000000006044820152606401620000d5565b6001600160a01b038116620001f75760405162461bcd60e51b815260206004820152601a60248201527f496e76616c69642057464c5220746f6b656e20616464726573730000000000006044820152606401620000d5565b600b80546001600160a01b038086166001600160a01b031992831617909255600c8054858416908316179055600d8054928416929091169190911790556012805460ff19908116909155335f818152600760205260408082208054909416600117909355915190917fac6fa858e9350a46cec16539926e0fde25b7629f84b5a72bffaae4df888ae86d91a2505050620004a7565b600580546001600160a01b038381166001600160a01b0319831681179093556040519116919082907f8be0079c531659141344cd1fd0a4f28419497f9722a3daafe3b4186f6b6457e0905f90a35050565b80516001600160a01b0381168114620002f3575f80fd5b919050565b5f805f606084860312156200030b575f80fd5b6200031684620002dc565b92506200032660208501620002dc565b91506200033660408501620002dc565b90509250925092565b634e487b7160e01b5f52604160045260245ffd5b600181811c908216806200036857607f821691505b6020821081036200038757634e487b7160e01b5f52602260045260245ffd5b50919050565b601f821115620003da575f81815260208120601f850160051c81016020861015620003b55750805b601f850160051c820191505b81811015620003d657828155600101620003c1565b5050505b505050565b81516001600160401b03811115620003fb57620003fb6200033f565b62000413816200040c845462000353565b846200038d565b602080601f83116001811462000449575f8415620004315750858301515b5f19600386901b1c1916600185901b178555620003d6565b5f85815260208120601f198616915b82811015620004795788860151825594840194600190910190840162000458565b50858210156200049757878501515f19600388901b60f8161c191681555b5050505050600190811b01905550565b61260580620004b55f395ff3fe608060405234801561000f575f80fd5b5060043610610260575f3560e01c8063715018a61161014b578063a9059cbb116100bf578063dd62ed3e11610084578063dd62ed3e14610516578063e6aa216c1461054e578063ea27f7de14610556578063f2fde38b1461057e578063f734bd6e14610591578063fd0a4875146105a4575f80fd5b8063a9059cbb146104d1578063ac8a584a146104e4578063c2752e43146104f7578063d33a508814610504578063d5fc617e1461050d575f80fd5b80638fcc9cfb116101105780638fcc9cfb146104755780639245b2281461048857806395d89b411461049b5780639870d7fe146104a35780639b1650e3146104b6578063a5854a3e146104be575f80fd5b8063715018a61461042d57806379cc6790146104355780638575837c1461044857806388342673146104515780638da5cb5b14610464575f80fd5b8063326bf23f116101e257806342966c68116101a757806342966c68146103a657806359974e38146103b95780635fcbd285146103cc5780636a678a9c146103df5780636e131a7c146103f257806370a0823114610405575f80fd5b8063326bf23f14610365578063346fe52c1461037857806339129162146103815780633ba0b9a91461039457806341b3d1851461039d575f80fd5b806313e7c9d81161022857806313e7c9d8146102ee57806318160ddd1461031057806323b872dd14610318578063313ce5671461032b57806332609af51461033a575f80fd5b806306fdde0314610264578063095ea7b3146102825780630cb3abc8146102a55780631358bc82146102ba578063135986b4146102db575b5f80fd5b61026c6105b7565b60405161027991906120ee565b60405180910390f35b61029561029036600461214f565b610647565b6040519015158152602001610279565b6102b86102b3366004612177565b610660565b005b6102cd6102c8366004612177565b6107ae565b604051908152602001610279565b6102b86102e936600461218e565b6107cf565b6102956102fc3660046121b4565b60076020525f908152604090205460ff1681565b6002546102cd565b6102956103263660046121cd565b610818565b60405160128152602001610279565b600c5461034d906001600160a01b031681565b6040516001600160a01b039091168152602001610279565b6102b8610373366004612177565b61083b565b6102cd600e5481565b6102cd61038f366004612177565b61091b565b6102cd600a5481565b6102cd60085481565b6102b86103b4366004612177565b610ab1565b6102b86103c7366004612177565b610abe565b60105461034d906001600160a01b031681565b6102b86103ed3660046121b4565b610c11565b600b5461034d906001600160a01b031681565b6102cd6104133660046121b4565b6001600160a01b03165f9081526020819052604090205490565b6102b8610cfb565b6102b861044336600461214f565b610d0e565b6102cd60115481565b6102b861045f366004612206565b610d27565b6005546001600160a01b031661034d565b6102b8610483366004612177565b6110a5565b6102cd61049636600461214f565b611131565b61026c611492565b6102b86104b13660046121b4565b6114a1565b6102b861154a565b6102b86104cc366004612226565b61166b565b6102956104df36600461214f565b611835565b6102b86104f23660046121b4565b611842565b6012546102959060ff1681565b6102cd600f5481565b6102cd60095481565b6102cd6105243660046122a6565b6001600160a01b039182165f90815260016020908152604080832093909416825291909152205490565b600a546102cd565b610569610564366004612177565b611892565b60408051928352602083019190915201610279565b6102b861058c3660046121b4565b611b04565b6102cd61059f366004612177565b611b3e565b600d5461034d906001600160a01b031681565b6060600380546105c6906122d7565b80601f01602080910402602001604051908101604052809291908181526020018280546105f2906122d7565b801561063d5780601f106106145761010080835404028352916020019161063d565b820191905f5260205f20905b81548152906001019060200180831161062057829003601f168201915b5050505050905090565b5f33610654818585611b56565b60019150505b92915050565b335f9081526007602052604090205460ff168061068757506005546001600160a01b031633145b6106ac5760405162461bcd60e51b81526004016106a39061230f565b60405180910390fd5b5f81116106fb5760405162461bcd60e51b815260206004820152601760248201527f526577617264206d75737420626520706f73697469766500000000000000000060448201526064016106a3565b600b54610713906001600160a01b0316333084611b68565b80600f5f828254610724919061234c565b90915550506002541561076d578060095f828254610742919061234c565b909155505060025460095461075f90670de0b6b3a764000061235f565b6107699190612376565b600a555b600a546040805183815260208101929092527fecb9ddc640281670bd3c3977a1089dc39bcf4c70afe4d3263fa53dcdc321943691015b60405180910390a150565b600a545f906107c583670de0b6b3a764000061235f565b61065a9190612376565b6107d7611bcf565b6012805460ff19168215159081179091556040519081527f8c4947dd3dc73344e27124f38de946c5fe5a4b59b8c9259241bc11376140267b906020016107a3565b5f33610825858285611bfc565b610830858585611c72565b506001949350505050565b335f9081526007602052604090205460ff168061086257506005546001600160a01b031633145b61087e5760405162461bcd60e51b81526004016106a39061230f565b5f811161089d5760405162461bcd60e51b81526004016106a390612395565b600b546108b5906001600160a01b0316333084611b68565b80600f5f8282546108c6919061234c565b9250508190555080600e5f8282546108de919061234c565b909155505060405181815233907f9face92c6813909d4c19d9f5ec41f2a1e6a7020bc7f39fcd129da46dd63d53d39060200160405180910390a250565b5f610924611ccf565b5f82116109735760405162461bcd60e51b815260206004820152601760248201527f43616e6e6f74206275726e207a65726f20616d6f756e7400000000000000000060448201526064016106a3565b335f908152602081905260409020548211156109d15760405162461bcd60e51b815260206004820152601a60248201527f496e73756666696369656e742073685852502062616c616e636500000000000060448201526064016106a3565b670de0b6b3a7640000600a54836109e8919061235f565b6109f29190612376565b9050806009541015610a465760405162461bcd60e51b815260206004820152601760248201527f496e73756666696369656e7420585250206c6f636b656400000000000000000060448201526064016106a3565b8060095f828254610a5791906123cc565b90915550610a6790503383611cf9565b604080518381526020810183905233917f3687d72e72fd694708710d576afa7f8afe38a09a6812c73c5f94c97b605507ff910160405180910390a2610aac6001600655565b919050565b610abb3382611cf9565b50565b335f9081526007602052604090205460ff1680610ae557506005546001600160a01b031633145b610b015760405162461bcd60e51b81526004016106a39061230f565b5f8111610b505760405162461bcd60e51b815260206004820152601e60248201527f52657761726420616d6f756e74206d75737420626520706f736974697665000060448201526064016106a3565b5f610b5a60025490565b11610b9d5760405162461bcd60e51b8152602060048201526013602482015272139bc81cda161494081b5a5b9d1959081e595d606a1b60448201526064016106a3565b8060095f828254610bae919061234c565b9091555050600254600954610bcb90670de0b6b3a764000061235f565b610bd59190612376565b600a8190556040805183815260208101929092527f29e98ba00d07f171959c4ddcd2f3020debc7c52cf537a034d7e664340d098c6c91016107a3565b610c19611bcf565b6001600160a01b038116610c625760405162461bcd60e51b815260206004820152601060248201526f24b73b30b634b2102628103a37b5b2b760811b60448201526064016106a3565b6010546001600160a01b031615610cb25760405162461bcd60e51b81526020600482015260146024820152731314081d1bdad95b88185b1c9958591e481cd95d60621b60448201526064016106a3565b601080546001600160a01b0319166001600160a01b0383169081179091556040517fc905967aaba4b9e1a69c16183e43f35d63ca99daf679be5e45512688ebdbd86a905f90a250565b610d03611bcf565b610d0c5f611d2d565b565b610d19823383611bfc565b610d238282611cf9565b5050565b335f9081526007602052604090205460ff1680610d4e57506005546001600160a01b031633145b610d6a5760405162461bcd60e51b81526004016106a39061230f565b60125460ff16610db05760405162461bcd60e51b8152602060048201526011602482015270165a595b19081b9bdd08195b98589b1959607a1b60448201526064016106a3565b5f82118015610dbe57505f81115b610e0a5760405162461bcd60e51b815260206004820152601860248201527f416d6f756e7473206d75737420626520706f736974697665000000000000000060448201526064016106a3565b600b546040516370a0823160e01b815230600482015283916001600160a01b0316906370a0823190602401602060405180830381865afa158015610e50573d5f803e3d5ffd5b505050506040513d601f19601f82011682018060405250810190610e7491906123df565b1015610eb65760405162461bcd60e51b81526020600482015260116024820152700496e73756666696369656e74204658525607c1b60448201526064016106a3565b600c54600b54610ed3916001600160a01b03918216911684611d7e565b600c54600d54610ef0916001600160a01b03918216911683611d7e565b600c54600b54600d545f92839283926001600160a01b039283169263e8e33700928116911688886064610f2483605f61235f565b610f2e9190612376565b6064610f3b8c605f61235f565b610f459190612376565b30610f524261012c61234c565b60405160e08a901b6001600160e01b03191681526001600160a01b039889166004820152968816602488015260448701959095526064860193909352608485019190915260a484015290921660c482015260e4810191909152610104016060604051808303815f875af1158015610fcb573d5f803e3d5ffd5b505050506040513d601f19601f82011682018060405250810190610fef91906123f6565b9250925092508060115f828254611006919061234c565b9250508190555082600f5f82825461101e91906123cc565b9091555050600c54600b54611040916001600160a01b0391821691165f611d7e565b600c54600d5461105d916001600160a01b0391821691165f611d7e565b60408051848152602081018490529081018290527fa77184af3f44664d41c8d355f6d43d20dda9b5d7887d239bd304eff8117303739060600160405180910390a15050505050565b6110ad611bcf565b5f81116110fc5760405162461bcd60e51b815260206004820152601c60248201527f4d696e206465706f736974206d75737420626520706f7369746976650000000060448201526064016106a3565b60088190556040518181527f96a008f96f1c0ab9fa3d9ddd43cdfc614848c4d054d51f43662ed900e9d094c8906020016107a3565b335f9081526007602052604081205460ff168061115857506005546001600160a01b031633145b6111745760405162461bcd60e51b81526004016106a39061230f565b5f82116111935760405162461bcd60e51b81526004016106a390612395565b600b546001600160a01b03908116908416036111e05760405162461bcd60e51b815260206004820152600c60248201526b0416c726561647920465852560a41b60448201526064016106a3565b600c546111fa906001600160a01b03858116911684611d7e565b600d546060906001600160a01b03908116908516036112a85760408051600280825260608201835290916020830190803683375050600d5482519293506001600160a01b0316918391505f9061125257611252612435565b6001600160a01b039283166020918202929092010152600b5482519116908290600190811061128357611283612435565b60200260200101906001600160a01b031690816001600160a01b03168152505061135f565b60408051600380825260808201909252906020820160608036833701905050905083815f815181106112dc576112dc612435565b6001600160a01b039283166020918202929092010152600d5482519116908290600190811061130d5761130d612435565b6001600160a01b039283166020918202929092010152600b5482519116908290600290811061133e5761133e612435565b60200260200101906001600160a01b031690816001600160a01b0316815250505b600c545f906001600160a01b03166338ed1739858385306113824261012c61234c565b6040518663ffffffff1660e01b81526004016113a2959493929190612449565b5f604051808303815f875af11580156113bd573d5f803e3d5ffd5b505050506040513d5f823e601f3d908101601f191682016040526113e491908101906124b8565b905080600182516113f591906123cc565b8151811061140557611405612435565b6020026020010151925082600f5f828254611420919061234c565b9091555050600c5461143f906001600160a01b0387811691165f611d7e565b600b5460408051868152602081018690526001600160a01b03928316928816917f34d9da274cc86ddbafef4468ce8c5f585c7c846f96319498450e21c2f254db15910160405180910390a3505092915050565b6060600480546105c6906122d7565b6114a9611bcf565b6001600160a01b0381166114ff5760405162461bcd60e51b815260206004820152601860248201527f496e76616c6964206f70657261746f722061646472657373000000000000000060448201526064016106a3565b6001600160a01b0381165f81815260076020526040808220805460ff19166001179055517fac6fa858e9350a46cec16539926e0fde25b7629f84b5a72bffaae4df888ae86d9190a250565b335f9081526007602052604090205460ff168061157157506005546001600160a01b031633145b61158d5760405162461bcd60e51b81526004016106a39061230f565b600b546040516370a0823160e01b81523060048201525f916001600160a01b0316906370a0823190602401602060405180830381865afa1580156115d3573d5f803e3d5ffd5b505050506040513d601f19601f820116820180604052508101906115f791906123df565b9050600f54811115610abb575f600f548261161291906123cc565b905080600f5f828254611625919061234c565b9091555050600a546040805183815260208101929092527faffc64dd767dc9d20ee587a46cfdd6a221c4fef6b51ae557b3ad7dfe82dc503a910160405180910390a15050565b335f9081526007602052604090205460ff168061169257506005546001600160a01b031633145b6116ae5760405162461bcd60e51b81526004016106a39061230f565b6116b6611ccf565b6001600160a01b0384166117035760405162461bcd60e51b8152602060048201526014602482015273496e76616c69642075736572206164647265737360601b60448201526064016106a3565b6008548310156117555760405162461bcd60e51b815260206004820152601c60248201527f416d6f756e742062656c6f77206d696e696d756d206465706f7369740000000060448201526064016106a3565b806117995760405162461bcd60e51b8152602060048201526014602482015273092dcecc2d8d2c840b0a4a09840e8f040d0c2e6d60631b60448201526064016106a3565b600a545f906117b085670de0b6b3a764000061235f565b6117ba9190612376565b90508360095f8282546117cd919061234c565b909155506117dd90508582611e0d565b846001600160a01b03167f5dc23eace1418c630429a4639fadf2bd4b20187833ad6968b869e9e9be652e338583868660405161181c9493929190612571565b60405180910390a25061182f6001600655565b50505050565b5f33610654818585611c72565b61184a611bcf565b6001600160a01b0381165f81815260076020526040808220805460ff19169055517f80c0b871b97b595b16a7741c1b06fed0c6f6f558639f18ccbce50724325dc40d9190a250565b335f90815260076020526040812054819060ff16806118bb57506005546001600160a01b031633145b6118d75760405162461bcd60e51b81526004016106a39061230f565b5f83116118f65760405162461bcd60e51b81526004016106a390612395565b6011548311156119415760405162461bcd60e51b8152602060048201526016602482015275496e73756666696369656e74204c5020746f6b656e7360501b60448201526064016106a3565b6010546001600160a01b031661198c5760405162461bcd60e51b815260206004820152601060248201526f1314081d1bdad95b881b9bdd081cd95d60821b60448201526064016106a3565b600c546010546119a9916001600160a01b03918216911685611d7e565b600c54600b54600d546001600160a01b039283169263baa2abde9281169116865f80306119d84261012c61234c565b60405160e089901b6001600160e01b03191681526001600160a01b039788166004820152958716602487015260448601949094526064850192909252608484015290921660a482015260c481019190915260e40160408051808303815f875af1158015611a47573d5f803e3d5ffd5b505050506040513d601f19601f82011682018060405250810190611a6b91906125ad565b80925081935050508260115f828254611a8491906123cc565b9250508190555081600f5f828254611a9c919061234c565b9091555050600c54601054611abe916001600160a01b0391821691165f611d7e565b60408051848152602081018490529081018290527fa83d4e58497297a930236359f801d31b4f909dd2f005680f2f6868e4596ff7719060600160405180910390a1915091565b611b0c611bcf565b6001600160a01b038116611b3557604051631e4fbdf760e01b81525f60048201526024016106a3565b610abb81611d2d565b5f670de0b6b3a7640000600a54836107c5919061235f565b611b638383836001611e41565b505050565b6040516001600160a01b03848116602483015283811660448301526064820183905261182f9186918216906323b872dd906084015b604051602081830303815290604052915060e01b6020820180516001600160e01b038381831617835250505050611f13565b6005546001600160a01b03163314610d0c5760405163118cdaa760e01b81523360048201526024016106a3565b6001600160a01b038381165f908152600160209081526040808320938616835292905220545f1981101561182f5781811015611c6457604051637dc7a0d960e11b81526001600160a01b038416600482015260248101829052604481018390526064016106a3565b61182f84848484035f611e41565b6001600160a01b038316611c9b57604051634b637e8f60e11b81525f60048201526024016106a3565b6001600160a01b038216611cc45760405163ec442f0560e01b81525f60048201526024016106a3565b611b63838383611f7f565b600260065403611cf257604051633ee5aeb560e01b815260040160405180910390fd5b6002600655565b6001600160a01b038216611d2257604051634b637e8f60e11b81525f60048201526024016106a3565b610d23825f83611f7f565b600580546001600160a01b038381166001600160a01b0319831681179093556040519116919082907f8be0079c531659141344cd1fd0a4f28419497f9722a3daafe3b4186f6b6457e0905f90a35050565b604080516001600160a01b038416602482015260448082018490528251808303909101815260649091019091526020810180516001600160e01b031663095ea7b360e01b179052611dcf84826120a5565b61182f576040516001600160a01b0384811660248301525f6044830152611e0391869182169063095ea7b390606401611b9d565b61182f8482611f13565b6001600160a01b038216611e365760405163ec442f0560e01b81525f60048201526024016106a3565b610d235f8383611f7f565b6001600160a01b038416611e6a5760405163e602df0560e01b81525f60048201526024016106a3565b6001600160a01b038316611e9357604051634a1406b160e11b81525f60048201526024016106a3565b6001600160a01b038085165f908152600160209081526040808320938716835292905220829055801561182f57826001600160a01b0316846001600160a01b03167f8c5be1e5ebec7d5bd14f71427d1e84f3dd0314c0f7b2291e5b200ac8c7c3b92584604051611f0591815260200190565b60405180910390a350505050565b5f8060205f8451602086015f885af180611f32576040513d5f823e3d81fd5b50505f513d91508115611f49578060011415611f56565b6001600160a01b0384163b155b1561182f57604051635274afe760e01b81526001600160a01b03851660048201526024016106a3565b6001600160a01b038316611fa9578060025f828254611f9e919061234c565b909155506120199050565b6001600160a01b0383165f9081526020819052604090205481811015611ffb5760405163391434e360e21b81526001600160a01b038516600482015260248101829052604481018390526064016106a3565b6001600160a01b0384165f9081526020819052604090209082900390555b6001600160a01b03821661203557600280548290039055612053565b6001600160a01b0382165f9081526020819052604090208054820190555b816001600160a01b0316836001600160a01b03167fddf252ad1be2c89b69c2b068fc378daa952ba7f163c4a11628f55a4df523b3ef8360405161209891815260200190565b60405180910390a3505050565b5f805f8060205f8651602088015f8a5af192503d91505f5190508280156120e4575081156120d657806001146120e4565b5f866001600160a01b03163b115b9695505050505050565b5f6020808352835180828501525f5b81811015612119578581018301518582016040015282016120fd565b505f604082860101526040601f19601f8301168501019250505092915050565b80356001600160a01b0381168114610aac575f80fd5b5f8060408385031215612160575f80fd5b61216983612139565b946020939093013593505050565b5f60208284031215612187575f80fd5b5035919050565b5f6020828403121561219e575f80fd5b813580151581146121ad575f80fd5b9392505050565b5f602082840312156121c4575f80fd5b6121ad82612139565b5f805f606084860312156121df575f80fd5b6121e884612139565b92506121f660208501612139565b9150604084013590509250925092565b5f8060408385031215612217575f80fd5b50508035926020909101359150565b5f805f8060608587031215612239575f80fd5b61224285612139565b935060208501359250604085013567ffffffffffffffff80821115612265575f80fd5b818701915087601f830112612278575f80fd5b813581811115612286575f80fd5b886020828501011115612297575f80fd5b95989497505060200194505050565b5f80604083850312156122b7575f80fd5b6122c083612139565b91506122ce60208401612139565b90509250929050565b600181811c908216806122eb57607f821691505b60208210810361230957634e487b7160e01b5f52602260045260245ffd5b50919050565b6020808252600f908201526e2737ba1030b71037b832b930ba37b960891b604082015260600190565b634e487b7160e01b5f52601160045260245ffd5b8082018082111561065a5761065a612338565b808202811582820484141761065a5761065a612338565b5f8261239057634e487b7160e01b5f52601260045260245ffd5b500490565b60208082526017908201527f416d6f756e74206d75737420626520706f736974697665000000000000000000604082015260600190565b8181038181111561065a5761065a612338565b5f602082840312156123ef575f80fd5b5051919050565b5f805f60608486031215612408575f80fd5b8351925060208401519150604084015190509250925092565b634e487b7160e01b5f52604160045260245ffd5b634e487b7160e01b5f52603260045260245ffd5b5f60a082018783526020878185015260a0604085015281875180845260c08601915082890193505f5b818110156124975784516001600160a01b031683529383019391830191600101612472565b50506001600160a01b03969096166060850152505050608001529392505050565b5f60208083850312156124c9575f80fd5b825167ffffffffffffffff808211156124e0575f80fd5b818501915085601f8301126124f3575f80fd5b81518181111561250557612505612421565b8060051b604051601f19603f8301168101818110858211171561252a5761252a612421565b604052918252848201925083810185019188831115612547575f80fd5b938501935b828510156125655784518452938501939285019261254c565b98975050505050505050565b84815283602082015260606040820152816060820152818360808301375f818301608090810191909152601f909201601f191601019392505050565b5f80604083850312156125be575f80fd5b50508051602090910151909290915056fea264697066735822122027c4f1359dc3f091d7213aaf486d87ec815a530f091a4b1bfc4d3ca5628178d064736f6c63430008140033","opcodes":"PUSH1 0x80 PUSH1 0x40 MSTORE PUSH7 0x2386F26FC10000 PUSH1 0x8 SSTORE PUSH8 0xDE0B6B3A7640000 PUSH1 0xA SSTORE CALLVALUE DUP1 ISZERO PUSH3 0x27 JUMPI PUSH0 DUP1 REVERT JUMPDEST POP PUSH1 0x40 MLOAD PUSH3 0x2ABA CODESIZE SUB DUP1 PUSH3 0x2ABA DUP4 CODECOPY DUP2 ADD PUSH1 0x40 DUP2 SWAP1 MSTORE PUSH3 0x4A SWAP2 PUSH3 0x2F8 JUMP JUMPDEST CALLER PUSH1 0x40 MLOAD DUP1 PUSH1 0x40 ADD PUSH1 0x40 MSTORE DUP1 PUSH1 0xA DUP2 MSTORE PUSH1 0x20 ADD PUSH10 0x536869656C642058525 PUSH1 0xB4 SHL DUP2 MSTORE POP PUSH1 0x40 MLOAD DUP1 PUSH1 0x40 ADD PUSH1 0x40 MSTORE DUP1 PUSH1 0x5 DUP2 MSTORE PUSH1 0x20 ADD PUSH5 0x736858525 PUSH1 0xDC SHL DUP2 MSTORE POP DUP2 PUSH1 0x3 SWAP1 DUP2 PUSH3 0x9D SWAP2 SWAP1 PUSH3 0x3DF JUMP JUMPDEST POP PUSH1 0x4 PUSH3 0xAC DUP3 DUP3 PUSH3 0x3DF JUMP JUMPDEST POP POP POP PUSH1 0x1 PUSH1 0x1 PUSH1 0xA0 SHL SUB DUP2 AND PUSH3 0xDE JUMPI PUSH1 0x40 MLOAD PUSH4 0x1E4FBDF7 PUSH1 0xE0 SHL DUP2 MSTORE PUSH0 PUSH1 0x4 DUP3 ADD MSTORE PUSH1 0x24 ADD JUMPDEST PUSH1 0x40 MLOAD DUP1 SWAP2 SUB SWAP1 REVERT JUMPDEST PUSH3 0xE9 DUP2 PUSH3 0x28B JUMP JUMPDEST POP PUSH1 0x1 PUSH1 0x6 SSTORE PUSH1 0x1 PUSH1 0x1 PUSH1 0xA0 SHL SUB DUP4 AND PUSH3 0x147 JUMPI PUSH1 0x40 MLOAD PUSH3 0x461BCD PUSH1 0xE5 SHL DUP2 MSTORE PUSH1 0x20 PUSH1 0x4 DUP3 ADD MSTORE PUSH1 0x1A PUSH1 0x24 DUP3 ADD MSTORE PUSH32 0x496E76616C6964204658525020746F6B656E2061646472657373000000000000 PUSH1 0x44 DUP3 ADD MSTORE PUSH1 0x64 ADD PUSH3 0xD5 JUMP JUMPDEST PUSH1 0x1 PUSH1 0x1 PUSH1 0xA0 SHL SUB DUP3 AND PUSH3 0x19F JUMPI PUSH1 0x40 MLOAD PUSH3 0x461BCD PUSH1 0xE5 SHL DUP2 MSTORE PUSH1 0x20 PUSH1 0x4 DUP3 ADD MSTORE PUSH1 0x1B PUSH1 0x24 DUP3 ADD MSTORE PUSH32 0x496E76616C696420537061726B526F7574657220616464726573730000000000 PUSH1 0x44 DUP3 ADD MSTORE PUSH1 0x64 ADD PUSH3 0xD5 JUMP JUMPDEST PUSH1 0x1 PUSH1 0x1 PUSH1 0xA0 SHL SUB DUP2 AND PUSH3 0x1F7 JUMPI PUSH1 0x40 MLOAD PUSH3 0x461BCD PUSH1 0xE5 SHL DUP2 MSTORE PUSH1 0x20 PUSH1 0x4 DUP3 ADD MSTORE PUSH1 0x1A PUSH1 0x24 DUP3 ADD MSTORE PUSH32 0x496E76616C69642057464C5220746F6B656E2061646472657373000000000000 PUSH1 0x44 DUP3 ADD MSTORE PUSH1 0x64 ADD PUSH3 0xD5 JUMP JUMPDEST PUSH1 0xB DUP1 SLOAD PUSH1 0x1 PUSH1 0x1 PUSH1 0xA0 SHL SUB DUP1 DUP7 AND PUSH1 0x1 PUSH1 0x1 PUSH1 0xA0 SHL SUB NOT SWAP3 DUP4 AND OR SWAP1 SWAP3 SSTORE PUSH1 0xC DUP1 SLOAD DUP6 DUP5 AND SWAP1 DUP4 AND OR SWAP1 SSTORE PUSH1 0xD DUP1 SLOAD SWAP3 DUP5 AND SWAP3 SWAP1 SWAP2 AND SWAP2 SWAP1 SWAP2 OR SWAP1 SSTORE PUSH1 0x12 DUP1 SLOAD PUSH1 0xFF NOT SWAP1 DUP2 AND SWAP1 SWAP2 SSTORE CALLER PUSH0 DUP2 DUP2 MSTORE PUSH1 0x7 PUSH1 0x20 MSTORE PUSH1 0x40 DUP1 DUP3 KECCAK256 DUP1 SLOAD SWAP1 SWAP5 AND PUSH1 0x1 OR SWAP1 SWAP4 SSTORE SWAP2 MLOAD SWAP1 SWAP2 PUSH32 0xAC6FA858E9350A46CEC16539926E0FDE25B7629F84B5A72BFFAAE4DF888AE86D SWAP2 LOG2 POP POP POP PUSH3 0x4A7 JUMP JUMPDEST PUSH1 0x5 DUP1 SLOAD PUSH1 0x1 PUSH1 0x1 PUSH1 0xA0 SHL SUB DUP4 DUP2 AND PUSH1 0x1 PUSH1 0x1 PUSH1 0xA0 SHL SUB NOT DUP4 AND DUP2 OR SWAP1 SWAP4 SSTORE PUSH1 0x40 MLOAD SWAP2 AND SWAP2 SWAP1 DUP3 SWAP1 PUSH32 0x8BE0079C531659141344CD1FD0A4F28419497F9722A3DAAFE3B4186F6B6457E0 SWAP1 PUSH0 SWAP1 LOG3 POP POP JUMP JUMPDEST DUP1 MLOAD PUSH1 0x1 PUSH1 0x1 PUSH1 0xA0 SHL SUB DUP2 AND DUP2 EQ PUSH3 0x2F3 JUMPI PUSH0 DUP1 REVERT JUMPDEST SWAP2 SWAP1 POP JUMP JUMPDEST PUSH0 DUP1 PUSH0 PUSH1 0x60 DUP5 DUP7 SUB SLT ISZERO PUSH3 0x30B JUMPI PUSH0 DUP1 REVERT JUMPDEST PUSH3 0x316 DUP5 PUSH3 0x2DC JUMP JUMPDEST SWAP3 POP PUSH3 0x326 PUSH1 0x20 DUP6 ADD PUSH3 0x2DC JUMP JUMPDEST SWAP2 POP PUSH3 0x336 PUSH1 0x40 DUP6 ADD PUSH3 0x2DC JUMP JUMPDEST SWAP1 POP SWAP3 POP SWAP3 POP SWAP3 JUMP JUMPDEST PUSH4 0x4E487B71 PUSH1 0xE0 SHL PUSH0 MSTORE PUSH1 0x41 PUSH1 0x4 MSTORE PUSH1 0x24 PUSH0 REVERT JUMPDEST PUSH1 0x1 DUP2 DUP2 SHR SWAP1 DUP3 AND DUP1 PUSH3 0x368 JUMPI PUSH1 0x7F DUP3 AND SWAP2 POP JUMPDEST PUSH1 0x20 DUP3 LT DUP2 SUB PUSH3 0x387 JUMPI PUSH4 0x4E487B71 PUSH1 0xE0 SHL PUSH0 MSTORE PUSH1 0x22 PUSH1 0x4 MSTORE PUSH1 0x24 PUSH0 REVERT JUMPDEST POP SWAP2 SWAP1 POP JUMP JUMPDEST PUSH1 0x1F DUP3 GT ISZERO PUSH3 0x3DA JUMPI PUSH0 DUP2 DUP2 MSTORE PUSH1 0x20 DUP2 KECCAK256 PUSH1 0x1F DUP6 ADD PUSH1 0x5 SHR DUP2 ADD PUSH1 0x20 DUP7 LT ISZERO PUSH3 0x3B5 JUMPI POP DUP1 JUMPDEST PUSH1 0x1F DUP6 ADD PUSH1 0x5 SHR DUP3 ADD SWAP2 POP JUMPDEST DUP2 DUP2 LT ISZERO PUSH3 0x3D6 JUMPI DUP3 DUP2 SSTORE PUSH1 0x1 ADD PUSH3 0x3C1 JUMP JUMPDEST POP POP POP JUMPDEST POP POP POP JUMP JUMPDEST DUP2 MLOAD PUSH1 0x1 PUSH1 0x1 PUSH1 0x40 SHL SUB DUP2 GT ISZERO PUSH3 0x3FB JUMPI PUSH3 0x3FB PUSH3 0x33F JUMP JUMPDEST PUSH3 0x413 DUP2 PUSH3 0x40C DUP5 SLOAD PUSH3 0x353 JUMP JUMPDEST DUP5 PUSH3 0x38D JUMP JUMPDEST PUSH1 0x20 DUP1 PUSH1 0x1F DUP4 GT PUSH1 0x1 DUP2 EQ PUSH3 0x449 JUMPI PUSH0 DUP5 ISZERO PUSH3 0x431 JUMPI POP DUP6 DUP4 ADD MLOAD JUMPDEST PUSH0 NOT PUSH1 0x3 DUP7 SWAP1 SHL SHR NOT AND PUSH1 0x1 DUP6 SWAP1 SHL OR DUP6 SSTORE PUSH3 0x3D6 JUMP JUMPDEST PUSH0 DUP6 DUP2 MSTORE PUSH1 0x20 DUP2 KECCAK256 PUSH1 0x1F NOT DUP7 AND SWAP2 JUMPDEST DUP3 DUP2 LT ISZERO PUSH3 0x479 JUMPI DUP9 DUP7 ADD MLOAD DUP3 SSTORE SWAP5 DUP5 ADD SWAP5 PUSH1 0x1 SWAP1 SWAP2 ADD SWAP1 DUP5 ADD PUSH3 0x458 JUMP JUMPDEST POP DUP6 DUP3 LT ISZERO PUSH3 0x497 JUMPI DUP8 DUP6 ADD MLOAD PUSH0 NOT PUSH1 0x3 DUP9 SWAP1 SHL PUSH1 0xF8 AND SHR NOT AND DUP2 SSTORE JUMPDEST POP POP POP POP POP PUSH1 0x1 SWAP1 DUP2 SHL ADD SWAP1 SSTORE POP JUMP JUMPDEST PUSH2 0x2605 DUP1 PUSH3 0x4B5 PUSH0 CODECOPY PUSH0 RETURN INVALID PUSH1 0x80 PUSH1 0x40 MSTORE CALLVALUE DUP1 ISZERO PUSH2 0xF JUMPI PUSH0 DUP1 REVERT JUMPDEST POP PUSH1 0x4 CALLDATASIZE LT PUSH2 0x260 JUMPI PUSH0 CALLDATALOAD PUSH1 0xE0 SHR DUP1 PUSH4 0x715018A6 GT PUSH2 0x14B JUMPI DUP1 PUSH4 0xA9059CBB GT PUSH2 0xBF JUMPI DUP1 PUSH4 0xDD62ED3E GT PUSH2 0x84 JUMPI DUP1 PUSH4 0xDD62ED3E EQ PUSH2 0x516 JUMPI DUP1 PUSH4 0xE6AA216C EQ PUSH2 0x54E JUMPI DUP1 PUSH4 0xEA27F7DE EQ PUSH2 0x556 JUMPI DUP1 PUSH4 0xF2FDE38B EQ PUSH2 0x57E JUMPI DUP1 PUSH4 0xF734BD6E EQ PUSH2 0x591 JUMPI DUP1 PUSH4 0xFD0A4875 EQ PUSH2 0x5A4 JUMPI PUSH0 DUP1 REVERT JUMPDEST DUP1 PUSH4 0xA9059CBB EQ PUSH2 0x4D1 JUMPI DUP1 PUSH4 0xAC8A584A EQ PUSH2 0x4E4 JUMPI DUP1 PUSH4 0xC2752E43 EQ PUSH2 0x4F7 JUMPI DUP1 PUSH4 0xD33A5088 EQ PUSH2 0x504 JUMPI DUP1 PUSH4 0xD5FC617E EQ PUSH2 0x50D JUMPI PUSH0 DUP1 REVERT JUMPDEST DUP1 PUSH4 0x8FCC9CFB GT PUSH2 0x110 JUMPI DUP1 PUSH4 0x8FCC9CFB EQ PUSH2 0x475 JUMPI DUP1 PUSH4 0x9245B228 EQ PUSH2 0x488 JUMPI DUP1 PUSH4 0x95D89B41 EQ PUSH2 0x49B JUMPI DUP1 PUSH4 0x9870D7FE EQ PUSH2 0x4A3 JUMPI DUP1 PUSH4 0x9B1650E3 EQ PUSH2 0x4B6 JUMPI DUP1 PUSH4 0xA5854A3E EQ PUSH2 0x4BE JUMPI PUSH0 DUP1 REVERT JUMPDEST DUP1 PUSH4 0x715018A6 EQ PUSH2 0x42D JUMPI DUP1 PUSH4 0x79CC6790 EQ PUSH2 0x435 JUMPI DUP1 PUSH4 0x8575837C EQ PUSH2 0x448 JUMPI DUP1 PUSH4 0x88342673 EQ PUSH2 0x451 JUMPI DUP1 PUSH4 0x8DA5CB5B EQ PUSH2 0x464 JUMPI PUSH0 DUP1 REVERT JUMPDEST DUP1 PUSH4 0x326BF23F GT PUSH2 0x1E2 JUMPI DUP1 PUSH4 0x42966C68 GT PUSH2 0x1A7 JUMPI DUP1 PUSH4 0x42966C68 EQ PUSH2 0x3A6 JUMPI DUP1 PUSH4 0x59974E38 EQ PUSH2 0x3B9 JUMPI DUP1 PUSH4 0x5FCBD285 EQ PUSH2 0x3CC JUMPI DUP1 PUSH4 0x6A678A9C EQ PUSH2 0x3DF JUMPI DUP1 PUSH4 0x6E131A7C EQ PUSH2 0x3F2 JUMPI DUP1 PUSH4 0x70A08231 EQ PUSH2 0x405 JUMPI PUSH0 DUP1 REVERT JUMPDEST DUP1 PUSH4 0x326BF23F EQ PUSH2 0x365 JUMPI DUP1 PUSH4 0x346FE52C EQ PUSH2 0x378 JUMPI DUP1 PUSH4 0x39129162 EQ PUSH2 0x381 JUMPI DUP1 PUSH4 0x3BA0B9A9 EQ PUSH2 0x394 JUMPI DUP1 PUSH4 0x41B3D185 EQ PUSH2 0x39D JUMPI PUSH0 DUP1 REVERT JUMPDEST DUP1 PUSH4 0x13E7C9D8 GT PUSH2 0x228 JUMPI DUP1 PUSH4 0x13E7C9D8 EQ PUSH2 0x2EE JUMPI DUP1 PUSH4 0x18160DDD EQ PUSH2 0x310 JUMPI DUP1 PUSH4 0x23B872DD EQ PUSH2 0x318 JUMPI DUP1 PUSH4 0x313CE567 EQ PUSH2 0x32B JUMPI DUP1 PUSH4 0x32609AF5 EQ PUSH2 0x33A JUMPI PUSH0 DUP1 REVERT JUMPDEST DUP1 PUSH4 0x6FDDE03 EQ PUSH2 0x264 JUMPI DUP1 PUSH4 0x95EA7B3 EQ PUSH2 0x282 JUMPI DUP1 PUSH4 0xCB3ABC8 EQ PUSH2 0x2A5 JUMPI DUP1 PUSH4 0x1358BC82 EQ PUSH2 0x2BA JUMPI DUP1 PUSH4 0x135986B4 EQ PUSH2 0x2DB JUMPI JUMPDEST PUSH0 DUP1 REVERT JUMPDEST PUSH2 0x26C PUSH2 0x5B7 JUMP JUMPDEST PUSH1 0x40 MLOAD PUSH2 0x279 SWAP2 SWAP1 PUSH2 0x20EE JUMP JUMPDEST PUSH1 0x40 MLOAD DUP1 SWAP2 SUB SWAP1 RETURN JUMPDEST PUSH2 0x295 PUSH2 0x290 CALLDATASIZE PUSH1 0x4 PUSH2 0x214F JUMP JUMPDEST PUSH2 0x647 JUMP JUMPDEST PUSH1 0x40 MLOAD SWAP1 ISZERO ISZERO DUP2 MSTORE PUSH1 0x20 ADD PUSH2 0x279 JUMP JUMPDEST PUSH2 0x2B8 PUSH2 0x2B3 CALLDATASIZE PUSH1 0x4 PUSH2 0x2177 JUMP JUMPDEST PUSH2 0x660 JUMP JUMPDEST STOP JUMPDEST PUSH2 0x2CD PUSH2 0x2C8 CALLDATASIZE PUSH1 0x4 PUSH2 0x2177 JUMP JUMPDEST PUSH2 0x7AE JUMP JUMPDEST PUSH1 0x40 MLOAD SWAP1 DUP2 MSTORE PUSH1 0x20 ADD PUSH2 0x279 JUMP JUMPDEST PUSH2 0x2B8 PUSH2 0x2E9 CALLDATASIZE PUSH1 0x4 PUSH2 0x218E JUMP JUMPDEST PUSH2 0x7CF JUMP JUMPDEST PUSH2 0x295 PUSH2 0x2FC CALLDATASIZE PUSH1 0x4 PUSH2 0x21B4 JUMP JUMPDEST PUSH1 0x7 PUSH1 0x20 MSTORE PUSH0 SWAP1 DUP2 MSTORE PUSH1 0x40 SWAP1 KECCAK256 SLOAD PUSH1 0xFF AND DUP2 JUMP JUMPDEST PUSH1 0x2 SLOAD PUSH2 0x2CD JUMP JUMPDEST PUSH2 0x295 PUSH2 0x326 CALLDATASIZE PUSH1 0x4 PUSH2 0x21CD JUMP JUMPDEST PUSH2 0x818 JUMP JUMPDEST PUSH1 0x40 MLOAD PUSH1 0x12 DUP2 MSTORE PUSH1 0x20 ADD PUSH2 0x279 JUMP JUMPDEST PUSH1 0xC SLOAD PUSH2 0x34D SWAP1 PUSH1 0x1 PUSH1 0x1 PUSH1 0xA0 SHL SUB AND DUP2 JUMP JUMPDEST PUSH1 0x40 MLOAD PUSH1 0x1 PUSH1 0x1 PUSH1 0xA0 SHL SUB SWAP1 SWAP2 AND DUP2 MSTORE PUSH1 0x20 ADD PUSH2 0x279 JUMP JUMPDEST PUSH2 0x2B8 PUSH2 0x373 CALLDATASIZE PUSH1 0x4 PUSH2 0x2177 JUMP JUMPDEST PUSH2 0x83B JUMP JUMPDEST PUSH2 0x2CD PUSH1 0xE SLOAD DUP2 JUMP JUMPDEST PUSH2 0x2CD PUSH2 0x38F CALLDATASIZE PUSH1 0x4 PUSH2 0x2177 JUMP JUMPDEST PUSH2 0x91B JUMP JUMPDEST PUSH2 0x2CD PUSH1 0xA SLOAD DUP2 JUMP JUMPDEST PUSH2 0x2CD PUSH1 0x8 SLOAD DUP2 JUMP JUMPDEST PUSH2 0x2B8 PUSH2 0x3B4 CALLDATASIZE PUSH1 0x4 PUSH2 0x2177 JUMP JUMPDEST PUSH2 0xAB1 JUMP JUMPDEST PUSH2 0x2B8 PUSH2 0x3C7 CALLDATASIZE PUSH1 0x4 PUSH2 0x2177 JUMP JUMPDEST PUSH2 0xABE JUMP JUMPDEST PUSH1 0x10 SLOAD PUSH2 0x34D SWAP1 PUSH1 0x1 PUSH1 0x1 PUSH1 0xA0 SHL SUB AND DUP2 JUMP JUMPDEST PUSH2 0x2B8 PUSH2 0x3ED CALLDATASIZE PUSH1 0x4 PUSH2 0x21B4 JUMP JUMPDEST PUSH2 0xC11 JUMP JUMPDEST PUSH1 0xB SLOAD PUSH2 0x34D SWAP1 PUSH1 0x1 PUSH1 0x1 PUSH1 0xA0 SHL SUB AND DUP2 JUMP JUMPDEST PUSH2 0x2CD PUSH2 0x413 CALLDATASIZE PUSH1 0x4 PUSH2 0x21B4 JUMP JUMPDEST PUSH1 0x1 PUSH1 0x1 PUSH1 0xA0 SHL SUB AND PUSH0 SWAP1 DUP2 MSTORE PUSH1 0x20 DUP2 SWAP1 MSTORE PUSH1 0x40 SWAP1 KECCAK256 SLOAD SWAP1 JUMP JUMPDEST PUSH2 0x2B8 PUSH2 0xCFB JUMP JUMPDEST PUSH2 0x2B8 PUSH2 0x443 CALLDATASIZE PUSH1 0x4 PUSH2 0x214F JUMP JUMPDEST PUSH2 0xD0E JUMP JUMPDEST PUSH2 0x2CD PUSH1 0x11 SLOAD DUP2 JUMP JUMPDEST PUSH2 0x2B8 PUSH2 0x45F CALLDATASIZE PUSH1 0x4 PUSH2 0x2206 JUMP JUMPDEST PUSH2 0xD27 JUMP JUMPDEST PUSH1 0x5 SLOAD PUSH1 0x1 PUSH1 0x1 PUSH1 0xA0 SHL SUB AND PUSH2 0x34D JUMP JUMPDEST PUSH2 0x2B8 PUSH2 0x483 CALLDATASIZE PUSH1 0x4 PUSH2 0x2177 JUMP JUMPDEST PUSH2 0x10A5 JUMP JUMPDEST PUSH2 0x2CD PUSH2 0x496 CALLDATASIZE PUSH1 0x4 PUSH2 0x214F JUMP JUMPDEST PUSH2 0x1131 JUMP JUMPDEST PUSH2 0x26C PUSH2 0x1492 JUMP JUMPDEST PUSH2 0x2B8 PUSH2 0x4B1 CALLDATASIZE PUSH1 0x4 PUSH2 0x21B4 JUMP JUMPDEST PUSH2 0x14A1 JUMP JUMPDEST PUSH2 0x2B8 PUSH2 0x154A JUMP JUMPDEST PUSH2 0x2B8 PUSH2 0x4CC CALLDATASIZE PUSH1 0x4 PUSH2 0x2226 JUMP JUMPDEST PUSH2 0x166B JUMP JUMPDEST PUSH2 0x295 PUSH2 0x4DF CALLDATASIZE PUSH1 0x4 PUSH2 0x214F JUMP JUMPDEST PUSH2 0x1835 JUMP JUMPDEST PUSH2 0x2B8 PUSH2 0x4F2 CALLDATASIZE PUSH1 0x4 PUSH2 0x21B4 JUMP JUMPDEST PUSH2 0x1842 JUMP JUMPDEST PUSH1 0x12 SLOAD PUSH2 0x295 SWAP1 PUSH1 0xFF AND DUP2 JUMP JUMPDEST PUSH2 0x2CD PUSH1 0xF SLOAD DUP2 JUMP JUMPDEST PUSH2 0x2CD PUSH1 0x9 SLOAD DUP2 JUMP JUMPDEST PUSH2 0x2CD PUSH2 0x524 CALLDATASIZE PUSH1 0x4 PUSH2 0x22A6 JUMP JUMPDEST PUSH1 0x1 PUSH1 0x1 PUSH1 0xA0 SHL SUB SWAP2 DUP3 AND PUSH0 SWAP1 DUP2 MSTORE PUSH1 0x1 PUSH1 0x20 SWAP1 DUP2 MSTORE PUSH1 0x40 DUP1 DUP4 KECCAK256 SWAP4 SWAP1 SWAP5 AND DUP3 MSTORE SWAP2 SWAP1 SWAP2 MSTORE KECCAK256 SLOAD SWAP1 JUMP JUMPDEST PUSH1 0xA SLOAD PUSH2 0x2CD JUMP JUMPDEST PUSH2 0x569 PUSH2 0x564 CALLDATASIZE PUSH1 0x4 PUSH2 0x2177 JUMP JUMPDEST PUSH2 0x1892 JUMP JUMPDEST PUSH1 0x40 DUP1 MLOAD SWAP3 DUP4 MSTORE PUSH1 0x20 DUP4 ADD SWAP2 SWAP1 SWAP2 MSTORE ADD PUSH2 0x279 JUMP JUMPDEST PUSH2 0x2B8 PUSH2 0x58C CALLDATASIZE PUSH1 0x4 PUSH2 0x21B4 JUMP JUMPDEST PUSH2 0x1B04 JUMP JUMPDEST PUSH2 0x2CD PUSH2 0x59F CALLDATASIZE PUSH1 0x4 PUSH2 0x2177 JUMP JUMPDEST PUSH2 0x1B3E JUMP JUMPDEST PUSH1 0xD SLOAD PUSH2 0x34D SWAP1 PUSH1 0x1 PUSH1 0x1 PUSH1 0xA0 SHL SUB AND DUP2 JUMP JUMPDEST PUSH1 0x60 PUSH1 0x3 DUP1 SLOAD PUSH2 0x5C6 SWAP1 PUSH2 0x22D7 JUMP JUMPDEST DUP1 PUSH1 0x1F ADD PUSH1 0x20 DUP1 SWAP2 DIV MUL PUSH1 0x20 ADD PUSH1 0x40 MLOAD SWAP1 DUP2 ADD PUSH1 0x40 MSTORE DUP1 SWAP3 SWAP2 SWAP1 DUP2 DUP2 MSTORE PUSH1 0x20 ADD DUP3 DUP1 SLOAD PUSH2 0x5F2 SWAP1 PUSH2 0x22D7 JUMP JUMPDEST DUP1 ISZERO PUSH2 0x63D JUMPI DUP1 PUSH1 0x1F LT PUSH2 0x614 JUMPI PUSH2 0x100 DUP1 DUP4 SLOAD DIV MUL DUP4 MSTORE SWAP2 PUSH1 0x20 ADD SWAP2 PUSH2 0x63D JUMP JUMPDEST DUP3 ADD SWAP2 SWAP1 PUSH0 MSTORE PUSH1 0x20 PUSH0 KECCAK256 SWAP1 JUMPDEST DUP2 SLOAD DUP2 MSTORE SWAP1 PUSH1 0x1 ADD SWAP1 PUSH1 0x20 ADD DUP1 DUP4 GT PUSH2 0x620 JUMPI DUP3 SWAP1 SUB PUSH1 0x1F AND DUP3 ADD SWAP2 JUMPDEST POP POP POP POP POP SWAP1 POP SWAP1 JUMP JUMPDEST PUSH0 CALLER PUSH2 0x654 DUP2 DUP6 DUP6 PUSH2 0x1B56 JUMP JUMPDEST PUSH1 0x1 SWAP2 POP POP JUMPDEST SWAP3 SWAP2 POP POP JUMP JUMPDEST CALLER PUSH0 SWAP1 DUP2 MSTORE PUSH1 0x7 PUSH1 0x20 MSTORE PUSH1 0x40 SWAP1 KECCAK256 SLOAD PUSH1 0xFF AND DUP1 PUSH2 0x687 JUMPI POP PUSH1 0x5 SLOAD PUSH1 0x1 PUSH1 0x1 PUSH1 0xA0 SHL SUB AND CALLER EQ JUMPDEST PUSH2 0x6AC JUMPI PUSH1 0x40 MLOAD PUSH3 0x461BCD PUSH1 0xE5 SHL DUP2 MSTORE PUSH1 0x4 ADD PUSH2 0x6A3 SWAP1 PUSH2 0x230F JUMP JUMPDEST PUSH1 0x40 MLOAD DUP1 SWAP2 SUB SWAP1 REVERT JUMPDEST PUSH0 DUP2 GT PUSH2 0x6FB JUMPI PUSH1 0x40 MLOAD PUSH3 0x461BCD PUSH1 0xE5 SHL DUP2 MSTORE PUSH1 0x20 PUSH1 0x4 DUP3 ADD MSTORE PUSH1 0x17 PUSH1 0x24 DUP3 ADD MSTORE PUSH32 0x526577617264206D75737420626520706F736974697665000000000000000000 PUSH1 0x44 DUP3 ADD MSTORE PUSH1 0x64 ADD PUSH2 0x6A3 JUMP JUMPDEST PUSH1 0xB SLOAD PUSH2 0x713 SWAP1 PUSH1 0x1 PUSH1 0x1 PUSH1 0xA0 SHL SUB AND CALLER ADDRESS DUP5 PUSH2 0x1B68 JUMP JUMPDEST DUP1 PUSH1 0xF PUSH0 DUP3 DUP3 SLOAD PUSH2 0x724 SWAP2 SWAP1 PUSH2 0x234C JUMP JUMPDEST SWAP1 SWAP2 SSTORE POP POP PUSH1 0x2 SLOAD ISZERO PUSH2 0x76D JUMPI DUP1 PUSH1 0x9 PUSH0 DUP3 DUP3 SLOAD PUSH2 0x742 SWAP2 SWAP1 PUSH2 0x234C JUMP JUMPDEST SWAP1 SWAP2 SSTORE POP POP PUSH1 0x2 SLOAD PUSH1 0x9 SLOAD PUSH2 0x75F SWAP1 PUSH8 0xDE0B6B3A7640000 PUSH2 0x235F JUMP JUMPDEST PUSH2 0x769 SWAP2 SWAP1 PUSH2 0x2376 JUMP JUMPDEST PUSH1 0xA SSTORE JUMPDEST PUSH1 0xA SLOAD PUSH1 0x40 DUP1 MLOAD DUP4 DUP2 MSTORE PUSH1 0x20 DUP2 ADD SWAP3 SWAP1 SWAP3 MSTORE PUSH32 0xECB9DDC640281670BD3C3977A1089DC39BCF4C70AFE4D3263FA53DCDC3219436 SWAP2 ADD JUMPDEST PUSH1 0x40 MLOAD DUP1 SWAP2 SUB SWAP1 LOG1 POP JUMP JUMPDEST PUSH1 0xA SLOAD PUSH0 SWAP1 PUSH2 0x7C5 DUP4 PUSH8 0xDE0B6B3A7640000 PUSH2 0x235F JUMP JUMPDEST PUSH2 0x65A SWAP2 SWAP1 PUSH2 0x2376 JUMP JUMPDEST PUSH2 0x7D7 PUSH2 0x1BCF JUMP JUMPDEST PUSH1 0x12 DUP1 SLOAD PUSH1 0xFF NOT AND DUP3 ISZERO ISZERO SWAP1 DUP2 OR SWAP1 SWAP2 SSTORE PUSH1 0x40 MLOAD SWAP1 DUP2 MSTORE PUSH32 0x8C4947DD3DC73344E27124F38DE946C5FE5A4B59B8C9259241BC11376140267B SWAP1 PUSH1 0x20 ADD PUSH2 0x7A3 JUMP JUMPDEST PUSH0 CALLER PUSH2 0x825 DUP6 DUP3 DUP6 PUSH2 0x1BFC JUMP JUMPDEST PUSH2 0x830 DUP6 DUP6 DUP6 PUSH2 0x1C72 JUMP JUMPDEST POP PUSH1 0x1 SWAP5 SWAP4 POP POP POP POP JUMP JUMPDEST CALLER PUSH0 SWAP1 DUP2 MSTORE PUSH1 0x7 PUSH1 0x20 MSTORE PUSH1 0x40 SWAP1 KECCAK256 SLOAD PUSH1 0xFF AND DUP1 PUSH2 0x862 JUMPI POP PUSH1 0x5 SLOAD PUSH1 0x1 PUSH1 0x1 PUSH1 0xA0 SHL SUB AND CALLER EQ JUMPDEST PUSH2 0x87E JUMPI PUSH1 0x40 MLOAD PUSH3 0x461BCD PUSH1 0xE5 SHL DUP2 MSTORE PUSH1 0x4 ADD PUSH2 0x6A3 SWAP1 PUSH2 0x230F JUMP JUMPDEST PUSH0 DUP2 GT PUSH2 0x89D JUMPI PUSH1 0x40 MLOAD PUSH3 0x461BCD PUSH1 0xE5 SHL DUP2 MSTORE PUSH1 0x4 ADD PUSH2 0x6A3 SWAP1 PUSH2 0x2395 JUMP JUMPDEST PUSH1 0xB SLOAD PUSH2 0x8B5 SWAP1 PUSH1 0x1 PUSH1 0x1 PUSH1 0xA0 SHL SUB AND CALLER ADDRESS DUP5 PUSH2 0x1B68 JUMP JUMPDEST DUP1 PUSH1 0xF PUSH0 DUP3 DUP3 SLOAD PUSH2 0x8C6 SWAP2 SWAP1 PUSH2 0x234C JUMP JUMPDEST SWAP3 POP POP DUP2 SWAP1 SSTORE POP DUP1 PUSH1 0xE PUSH0 DUP3 DUP3 SLOAD PUSH2 0x8DE SWAP2 SWAP1 PUSH2 0x234C JUMP JUMPDEST SWAP1 SWAP2 SSTORE POP POP PUSH1 0x40 MLOAD DUP2 DUP2 MSTORE CALLER SWAP1 PUSH32 0x9FACE92C6813909D4C19D9F5EC41F2A1E6A7020BC7F39FCD129DA46DD63D53D3 SWAP1 PUSH1 0x20 ADD PUSH1 0x40 MLOAD DUP1 SWAP2 SUB SWAP1 LOG2 POP JUMP JUMPDEST PUSH0 PUSH2 0x924 PUSH2 0x1CCF JUMP JUMPDEST PUSH0 DUP3 GT PUSH2 0x973 JUMPI PUSH1 0x40 MLOAD PUSH3 0x461BCD PUSH1 0xE5 SHL DUP2 MSTORE PUSH1 0x20 PUSH1 0x4 DUP3 ADD MSTORE PUSH1 0x17 PUSH1 0x24 DUP3 ADD MSTORE PUSH32 0x43616E6E6F74206275726E207A65726F20616D6F756E74000000000000000000 PUSH1 0x44 DUP3 ADD MSTORE PUSH1 0x64 ADD PUSH2 0x6A3 JUMP JUMPDEST CALLER PUSH0 SWAP1 DUP2 MSTORE PUSH1 0x20 DUP2 SWAP1 MSTORE PUSH1 0x40 SWAP1 KECCAK256 SLOAD DUP3 GT ISZERO PUSH2 0x9D1 JUMPI PUSH1 0x40 MLOAD PUSH3 0x461BCD PUSH1 0xE5 SHL DUP2 MSTORE PUSH1 0x20 PUSH1 0x4 DUP3 ADD MSTORE PUSH1 0x1A PUSH1 0x24 DUP3 ADD MSTORE PUSH32 0x496E73756666696369656E742073685852502062616C616E6365000000000000 PUSH1 0x44 DUP3 ADD MSTORE PUSH1 0x64 ADD PUSH2 0x6A3 JUMP JUMPDEST PUSH8 0xDE0B6B3A7640000 PUSH1 0xA SLOAD DUP4 PUSH2 0x9E8 SWAP2 SWAP1 PUSH2 0x235F JUMP JUMPDEST PUSH2 0x9F2 SWAP2 SWAP1 PUSH2 0x2376 JUMP JUMPDEST SWAP1 POP DUP1 PUSH1 0x9 SLOAD LT ISZERO PUSH2 0xA46 JUMPI PUSH1 0x40 MLOAD PUSH3 0x461BCD PUSH1 0xE5 SHL DUP2 MSTORE PUSH1 0x20 PUSH1 0x4 DUP3 ADD MSTORE PUSH1 0x17 PUSH1 0x24 DUP3 ADD MSTORE PUSH32 0x496E73756666696369656E7420585250206C6F636B6564000000000000000000 PUSH1 0x44 DUP3 ADD MSTORE PUSH1 0x64 ADD PUSH2 0x6A3 JUMP JUMPDEST DUP1 PUSH1 0x9 PUSH0 DUP3 DUP3 SLOAD PUSH2 0xA57 SWAP2 SWAP1 PUSH2 0x23CC JUMP JUMPDEST SWAP1 SWAP2 SSTORE POP PUSH2 0xA67 SWAP1 POP CALLER DUP4 PUSH2 0x1CF9 JUMP JUMPDEST PUSH1 0x40 DUP1 MLOAD DUP4 DUP2 MSTORE PUSH1 0x20 DUP2 ADD DUP4 SWAP1 MSTORE CALLER SWAP2 PUSH32 0x3687D72E72FD694708710D576AFA7F8AFE38A09A6812C73C5F94C97B605507FF SWAP2 ADD PUSH1 0x40 MLOAD DUP1 SWAP2 SUB SWAP1 LOG2 PUSH2 0xAAC PUSH1 0x1 PUSH1 0x6 SSTORE JUMP JUMPDEST SWAP2 SWAP1 POP JUMP JUMPDEST PUSH2 0xABB CALLER DUP3 PUSH2 0x1CF9 JUMP JUMPDEST POP JUMP JUMPDEST CALLER PUSH0 SWAP1 DUP2 MSTORE PUSH1 0x7 PUSH1 0x20 MSTORE PUSH1 0x40 SWAP1 KECCAK256 SLOAD PUSH1 0xFF AND DUP1 PUSH2 0xAE5 JUMPI POP PUSH1 0x5 SLOAD PUSH1 0x1 PUSH1 0x1 PUSH1 0xA0 SHL SUB AND CALLER EQ JUMPDEST PUSH2 0xB01 JUMPI PUSH1 0x40 MLOAD PUSH3 0x461BCD PUSH1 0xE5 SHL DUP2 MSTORE PUSH1 0x4 ADD PUSH2 0x6A3 SWAP1 PUSH2 0x230F JUMP JUMPDEST PUSH0 DUP2 GT PUSH2 0xB50 JUMPI PUSH1 0x40 MLOAD PUSH3 0x461BCD PUSH1 0xE5 SHL DUP2 MSTORE PUSH1 0x20 PUSH1 0x4 DUP3 ADD MSTORE PUSH1 0x1E PUSH1 0x24 DUP3 ADD MSTORE PUSH32 0x52657761726420616D6F756E74206D75737420626520706F7369746976650000 PUSH1 0x44 DUP3 ADD MSTORE PUSH1 0x64 ADD PUSH2 0x6A3 JUMP JUMPDEST PUSH0 PUSH2 0xB5A PUSH1 0x2 SLOAD SWAP1 JUMP JUMPDEST GT PUSH2 0xB9D JUMPI PUSH1 0x40 MLOAD PUSH3 0x461BCD PUSH1 0xE5 SHL DUP2 MSTORE PUSH1 0x20 PUSH1 0x4 DUP3 ADD MSTORE PUSH1 0x13 PUSH1 0x24 DUP3 ADD MSTORE PUSH19 0x139BC81CDA161494081B5A5B9D1959081E595D PUSH1 0x6A SHL PUSH1 0x44 DUP3 ADD MSTORE PUSH1 0x64 ADD PUSH2 0x6A3 JUMP JUMPDEST DUP1 PUSH1 0x9 PUSH0 DUP3 DUP3 SLOAD PUSH2 0xBAE SWAP2 SWAP1 PUSH2 0x234C JUMP JUMPDEST SWAP1 SWAP2 SSTORE POP POP PUSH1 0x2 SLOAD PUSH1 0x9 SLOAD PUSH2 0xBCB SWAP1 PUSH8 0xDE0B6B3A7640000 PUSH2 0x235F JUMP JUMPDEST PUSH2 0xBD5 SWAP2 SWAP1 PUSH2 0x2376 JUMP JUMPDEST PUSH1 0xA DUP2 SWAP1 SSTORE PUSH1 0x40 DUP1 MLOAD DUP4 DUP2 MSTORE PUSH1 0x20 DUP2 ADD SWAP3 SWAP1 SWAP3 MSTORE PUSH32 0x29E98BA00D07F171959C4DDCD2F3020DEBC7C52CF537A034D7E664340D098C6C SWAP2 ADD PUSH2 0x7A3 JUMP JUMPDEST PUSH2 0xC19 PUSH2 0x1BCF JUMP JUMPDEST PUSH1 0x1 PUSH1 0x1 PUSH1 0xA0 SHL SUB DUP2 AND PUSH2 0xC62 JUMPI PUSH1 0x40 MLOAD PUSH3 0x461BCD PUSH1 0xE5 SHL DUP2 MSTORE PUSH1 0x20 PUSH1 0x4 DUP3 ADD MSTORE PUSH1 0x10 PUSH1 0x24 DUP3 ADD MSTORE PUSH16 0x24B73B30B634B2102628103A37B5B2B7 PUSH1 0x81 SHL PUSH1 0x44 DUP3 ADD MSTORE PUSH1 0x64 ADD PUSH2 0x6A3 JUMP JUMPDEST PUSH1 0x10 SLOAD PUSH1 0x1 PUSH1 0x1 PUSH1 0xA0 SHL SUB AND ISZERO PUSH2 0xCB2 JUMPI PUSH1 0x40 MLOAD PUSH3 0x461BCD PUSH1 0xE5 SHL DUP2 MSTORE PUSH1 0x20 PUSH1 0x4 DUP3 ADD MSTORE PUSH1 0x14 PUSH1 0x24 DUP3 ADD MSTORE PUSH20 0x1314081D1BDAD95B88185B1C9958591E481CD95D PUSH1 0x62 SHL PUSH1 0x44 DUP3 ADD MSTORE PUSH1 0x64 ADD PUSH2 0x6A3 JUMP JUMPDEST PUSH1 0x10 DUP1 SLOAD PUSH1 0x1 PUSH1 0x1 PUSH1 0xA0 SHL SUB NOT AND PUSH1 0x1 PUSH1 0x1 PUSH1 0xA0 SHL SUB DUP4 AND SWAP1 DUP2 OR SWAP1 SWAP2 SSTORE PUSH1 0x40 MLOAD PUSH32 0xC905967AABA4B9E1A69C16183E43F35D63CA99DAF679BE5E45512688EBDBD86A SWAP1 PUSH0 SWAP1 LOG2 POP JUMP JUMPDEST PUSH2 0xD03 PUSH2 0x1BCF JUMP JUMPDEST PUSH2 0xD0C PUSH0 PUSH2 0x1D2D JUMP JUMPDEST JUMP JUMPDEST PUSH2 0xD19 DUP3 CALLER DUP4 PUSH2 0x1BFC JUMP JUMPDEST PUSH2 0xD23 DUP3 DUP3 PUSH2 0x1CF9 JUMP JUMPDEST POP POP JUMP JUMPDEST CALLER PUSH0 SWAP1 DUP2 MSTORE PUSH1 0x7 PUSH1 0x20 MSTORE PUSH1 0x40 SWAP1 KECCAK256 SLOAD PUSH1 0xFF AND DUP1 PUSH2 0xD4E JUMPI POP PUSH1 0x5 SLOAD PUSH1 0x1 PUSH1 0x1 PUSH1 0xA0 SHL SUB AND CALLER EQ JUMPDEST PUSH2 0xD6A JUMPI PUSH1 0x40 MLOAD PUSH3 0x461BCD PUSH1 0xE5 SHL DUP2 MSTORE PUSH1 0x4 ADD PUSH2 0x6A3 SWAP1 PUSH2 0x230F JUMP JUMPDEST PUSH1 0x12 SLOAD PUSH1 0xFF AND PUSH2 0xDB0 JUMPI PUSH1 0x40 MLOAD PUSH3 0x461BCD PUSH1 0xE5 SHL DUP2 MSTORE PUSH1 0x20 PUSH1 0x4 DUP3 ADD MSTORE PUSH1 0x11 PUSH1 0x24 DUP3 ADD MSTORE PUSH17 0x165A595B19081B9BDD08195B98589B1959 PUSH1 0x7A SHL PUSH1 0x44 DUP3 ADD MSTORE PUSH1 0x64 ADD PUSH2 0x6A3 JUMP JUMPDEST PUSH0 DUP3 GT DUP1 ISZERO PUSH2 0xDBE JUMPI POP PUSH0 DUP2 GT JUMPDEST PUSH2 0xE0A JUMPI PUSH1 0x40 MLOAD PUSH3 0x461BCD PUSH1 0xE5 SHL DUP2 MSTORE PUSH1 0x20 PUSH1 0x4 DUP3 ADD MSTORE PUSH1 0x18 PUSH1 0x24 DUP3 ADD MSTORE PUSH32 0x416D6F756E7473206D75737420626520706F7369746976650000000000000000 PUSH1 0x44 DUP3 ADD MSTORE PUSH1 0x64 ADD PUSH2 0x6A3 JUMP JUMPDEST PUSH1 0xB SLOAD PUSH1 0x40 MLOAD PUSH4 0x70A08231 PUSH1 0xE0 SHL DUP2 MSTORE ADDRESS PUSH1 0x4 DUP3 ADD MSTORE DUP4 SWAP2 PUSH1 0x1 PUSH1 0x1 PUSH1 0xA0 SHL SUB AND SWAP1 PUSH4 0x70A08231 SWAP1 PUSH1 0x24 ADD PUSH1 0x20 PUSH1 0x40 MLOAD DUP1 DUP4 SUB DUP2 DUP7 GAS STATICCALL ISZERO DUP1 ISZERO PUSH2 0xE50 JUMPI RETURNDATASIZE PUSH0 DUP1 RETURNDATACOPY RETURNDATASIZE PUSH0 REVERT JUMPDEST POP POP POP POP PUSH1 0x40 MLOAD RETURNDATASIZE PUSH1 0x1F NOT PUSH1 0x1F DUP3 ADD AND DUP3 ADD DUP1 PUSH1 0x40 MSTORE POP DUP2 ADD SWAP1 PUSH2 0xE74 SWAP2 SWAP1 PUSH2 0x23DF JUMP JUMPDEST LT ISZERO PUSH2 0xEB6 JUMPI PUSH1 0x40 MLOAD PUSH3 0x461BCD PUSH1 0xE5 SHL DUP2 MSTORE PUSH1 0x20 PUSH1 0x4 DUP3 ADD MSTORE PUSH1 0x11 PUSH1 0x24 DUP3 ADD MSTORE PUSH17 0x496E73756666696369656E74204658525 PUSH1 0x7C SHL PUSH1 0x44 DUP3 ADD MSTORE PUSH1 0x64 ADD PUSH2 0x6A3 JUMP JUMPDEST PUSH1 0xC SLOAD PUSH1 0xB SLOAD PUSH2 0xED3 SWAP2 PUSH1 0x1 PUSH1 0x1 PUSH1 0xA0 SHL SUB SWAP2 DUP3 AND SWAP2 AND DUP5 PUSH2 0x1D7E JUMP JUMPDEST PUSH1 0xC SLOAD PUSH1 0xD SLOAD PUSH2 0xEF0 SWAP2 PUSH1 0x1 PUSH1 0x1 PUSH1 0xA0 SHL SUB SWAP2 DUP3 AND SWAP2 AND DUP4 PUSH2 0x1D7E JUMP JUMPDEST PUSH1 0xC SLOAD PUSH1 0xB SLOAD PUSH1 0xD SLOAD PUSH0 SWAP3 DUP4 SWAP3 DUP4 SWAP3 PUSH1 0x1 PUSH1 0x1 PUSH1 0xA0 SHL SUB SWAP3 DUP4 AND SWAP3 PUSH4 0xE8E33700 SWAP3 DUP2 AND SWAP2 AND DUP9 DUP9 PUSH1 0x64 PUSH2 0xF24 DUP4 PUSH1 0x5F PUSH2 0x235F JUMP JUMPDEST PUSH2 0xF2E SWAP2 SWAP1 PUSH2 0x2376 JUMP JUMPDEST PUSH1 0x64 PUSH2 0xF3B DUP13 PUSH1 0x5F PUSH2 0x235F JUMP JUMPDEST PUSH2 0xF45 SWAP2 SWAP1 PUSH2 0x2376 JUMP JUMPDEST ADDRESS PUSH2 0xF52 TIMESTAMP PUSH2 0x12C PUSH2 0x234C JUMP JUMPDEST PUSH1 0x40 MLOAD PUSH1 0xE0 DUP11 SWAP1 SHL PUSH1 0x1 PUSH1 0x1 PUSH1 0xE0 SHL SUB NOT AND DUP2 MSTORE PUSH1 0x1 PUSH1 0x1 PUSH1 0xA0 SHL SUB SWAP9 DUP10 AND PUSH1 0x4 DUP3 ADD MSTORE SWAP7 DUP9 AND PUSH1 0x24 DUP9 ADD MSTORE PUSH1 0x44 DUP8 ADD SWAP6 SWAP1 SWAP6 MSTORE PUSH1 0x64 DUP7 ADD SWAP4 SWAP1 SWAP4 MSTORE PUSH1 0x84 DUP6 ADD SWAP2 SWAP1 SWAP2 MSTORE PUSH1 0xA4 DUP5 ADD MSTORE SWAP1 SWAP3 AND PUSH1 0xC4 DUP3 ADD MSTORE PUSH1 0xE4 DUP2 ADD SWAP2 SWAP1 SWAP2 MSTORE PUSH2 0x104 ADD PUSH1 0x60 PUSH1 0x40 MLOAD DUP1 DUP4 SUB DUP2 PUSH0 DUP8 GAS CALL ISZERO DUP1 ISZERO PUSH2 0xFCB JUMPI RETURNDATASIZE PUSH0 DUP1 RETURNDATACOPY RETURNDATASIZE PUSH0 REVERT JUMPDEST POP POP POP POP PUSH1 0x40 MLOAD RETURNDATASIZE PUSH1 0x1F NOT PUSH1 0x1F DUP3 ADD AND DUP3 ADD DUP1 PUSH1 0x40 MSTORE POP DUP2 ADD SWAP1 PUSH2 0xFEF SWAP2 SWAP1 PUSH2 0x23F6 JUMP JUMPDEST SWAP3 POP SWAP3 POP SWAP3 POP DUP1 PUSH1 0x11 PUSH0 DUP3 DUP3 SLOAD PUSH2 0x1006 SWAP2 SWAP1 PUSH2 0x234C JUMP JUMPDEST SWAP3 POP POP DUP2 SWAP1 SSTORE POP DUP3 PUSH1 0xF PUSH0 DUP3 DUP3 SLOAD PUSH2 0x101E SWAP2 SWAP1 PUSH2 0x23CC JUMP JUMPDEST SWAP1 SWAP2 SSTORE POP POP PUSH1 0xC SLOAD PUSH1 0xB SLOAD PUSH2 0x1040 SWAP2 PUSH1 0x1 PUSH1 0x1 PUSH1 0xA0 SHL SUB SWAP2 DUP3 AND SWAP2 AND PUSH0 PUSH2 0x1D7E JUMP JUMPDEST PUSH1 0xC SLOAD PUSH1 0xD SLOAD PUSH2 0x105D SWAP2 PUSH1 0x1 PUSH1 0x1 PUSH1 0xA0 SHL SUB SWAP2 DUP3 AND SWAP2 AND PUSH0 PUSH2 0x1D7E JUMP JUMPDEST PUSH1 0x40 DUP1 MLOAD DUP5 DUP2 MSTORE PUSH1 0x20 DUP2 ADD DUP5 SWAP1 MSTORE SWAP1 DUP2 ADD DUP3 SWAP1 MSTORE PUSH32 0xA77184AF3F44664D41C8D355F6D43D20DDA9B5D7887D239BD304EFF811730373 SWAP1 PUSH1 0x60 ADD PUSH1 0x40 MLOAD DUP1 SWAP2 SUB SWAP1 LOG1 POP POP POP POP POP JUMP JUMPDEST PUSH2 0x10AD PUSH2 0x1BCF JUMP JUMPDEST PUSH0 DUP2 GT PUSH2 0x10FC JUMPI PUSH1 0x40 MLOAD PUSH3 0x461BCD PUSH1 0xE5 SHL DUP2 MSTORE PUSH1 0x20 PUSH1 0x4 DUP3 ADD MSTORE PUSH1 0x1C PUSH1 0x24 DUP3 ADD MSTORE PUSH32 0x4D696E206465706F736974206D75737420626520706F73697469766500000000 PUSH1 0x44 DUP3 ADD MSTORE PUSH1 0x64 ADD PUSH2 0x6A3 JUMP JUMPDEST PUSH1 0x8 DUP2 SWAP1 SSTORE PUSH1 0x40 MLOAD DUP2 DUP2 MSTORE PUSH32 0x96A008F96F1C0AB9FA3D9DDD43CDFC614848C4D054D51F43662ED900E9D094C8 SWAP1 PUSH1 0x20 ADD PUSH2 0x7A3 JUMP JUMPDEST CALLER PUSH0 SWAP1 DUP2 MSTORE PUSH1 0x7 PUSH1 0x20 MSTORE PUSH1 0x40 DUP2 KECCAK256 SLOAD PUSH1 0xFF AND DUP1 PUSH2 0x1158 JUMPI POP PUSH1 0x5 SLOAD PUSH1 0x1 PUSH1 0x1 PUSH1 0xA0 SHL SUB AND CALLER EQ JUMPDEST PUSH2 0x1174 JUMPI PUSH1 0x40 MLOAD PUSH3 0x461BCD PUSH1 0xE5 SHL DUP2 MSTORE PUSH1 0x4 ADD PUSH2 0x6A3 SWAP1 PUSH2 0x230F JUMP JUMPDEST PUSH0 DUP3 GT PUSH2 0x1193 JUMPI PUSH1 0x40 MLOAD PUSH3 0x461BCD PUSH1 0xE5 SHL DUP2 MSTORE PUSH1 0x4 ADD PUSH2 0x6A3 SWAP1 PUSH2 0x2395 JUMP JUMPDEST PUSH1 0xB SLOAD PUSH1 0x1 PUSH1 0x1 PUSH1 0xA0 SHL SUB SWAP1 DUP2 AND SWAP1 DUP5 AND SUB PUSH2 0x11E0 JUMPI PUSH1 0x40 MLOAD PUSH3 0x461BCD PUSH1 0xE5 SHL DUP2 MSTORE PUSH1 0x20 PUSH1 0x4 DUP3 ADD MSTORE PUSH1 0xC PUSH1 0x24 DUP3 ADD MSTORE PUSH12 0x416C7265616479204658525 PUSH1 0xA4 SHL PUSH1 0x44 DUP3 ADD MSTORE PUSH1 0x64 ADD PUSH2 0x6A3 JUMP JUMPDEST PUSH1 0xC SLOAD PUSH2 0x11FA SWAP1 PUSH1 0x1 PUSH1 0x1 PUSH1 0xA0 SHL SUB DUP6 DUP2 AND SWAP2 AND DUP5 PUSH2 0x1D7E JUMP JUMPDEST PUSH1 0xD SLOAD PUSH1 0x60 SWAP1 PUSH1 0x1 PUSH1 0x1 PUSH1 0xA0 SHL SUB SWAP1 DUP2 AND SWAP1 DUP6 AND SUB PUSH2 0x12A8 JUMPI PUSH1 0x40 DUP1 MLOAD PUSH1 0x2 DUP1 DUP3 MSTORE PUSH1 0x60 DUP3 ADD DUP4 MSTORE SWAP1 SWAP2 PUSH1 0x20 DUP4 ADD SWAP1 DUP1 CALLDATASIZE DUP4 CALLDATACOPY POP POP PUSH1 0xD SLOAD DUP3 MLOAD SWAP3 SWAP4 POP PUSH1 0x1 PUSH1 0x1 PUSH1 0xA0 SHL SUB AND SWAP2 DUP4 SWAP2 POP PUSH0 SWAP1 PUSH2 0x1252 JUMPI PUSH2 0x1252 PUSH2 0x2435 JUMP JUMPDEST PUSH1 0x1 PUSH1 0x1 PUSH1 0xA0 SHL SUB SWAP3 DUP4 AND PUSH1 0x20 SWAP2 DUP3 MUL SWAP3 SWAP1 SWAP3 ADD ADD MSTORE PUSH1 0xB SLOAD DUP3 MLOAD SWAP2 AND SWAP1 DUP3 SWAP1 PUSH1 0x1 SWAP1 DUP2 LT PUSH2 0x1283 JUMPI PUSH2 0x1283 PUSH2 0x2435 JUMP JUMPDEST PUSH1 0x20 MUL PUSH1 0x20 ADD ADD SWAP1 PUSH1 0x1 PUSH1 0x1 PUSH1 0xA0 SHL SUB AND SWAP1 DUP2 PUSH1 0x1 PUSH1 0x1 PUSH1 0xA0 SHL SUB AND DUP2 MSTORE POP POP PUSH2 0x135F JUMP JUMPDEST PUSH1 0x40 DUP1 MLOAD PUSH1 0x3 DUP1 DUP3 MSTORE PUSH1 0x80 DUP3 ADD SWAP1 SWAP3 MSTORE SWAP1 PUSH1 0x20 DUP3 ADD PUSH1 0x60 DUP1 CALLDATASIZE DUP4 CALLDATACOPY ADD SWAP1 POP POP SWAP1 POP DUP4 DUP2 PUSH0 DUP2 MLOAD DUP2 LT PUSH2 0x12DC JUMPI PUSH2 0x12DC PUSH2 0x2435 JUMP JUMPDEST PUSH1 0x1 PUSH1 0x1 PUSH1 0xA0 SHL SUB SWAP3 DUP4 AND PUSH1 0x20 SWAP2 DUP3 MUL SWAP3 SWAP1 SWAP3 ADD ADD MSTORE PUSH1 0xD SLOAD DUP3 MLOAD SWAP2 AND SWAP1 DUP3 SWAP1 PUSH1 0x1 SWAP1 DUP2 LT PUSH2 0x130D JUMPI PUSH2 0x130D PUSH2 0x2435 JUMP JUMPDEST PUSH1 0x1 PUSH1 0x1 PUSH1 0xA0 SHL SUB SWAP3 DUP4 AND PUSH1 0x20 SWAP2 DUP3 MUL SWAP3 SWAP1 SWAP3 ADD ADD MSTORE PUSH1 0xB SLOAD DUP3 MLOAD SWAP2 AND SWAP1 DUP3 SWAP1 PUSH1 0x2 SWAP1 DUP2 LT PUSH2 0x133E JUMPI PUSH2 0x133E PUSH2 0x2435 JUMP JUMPDEST PUSH1 0x20 MUL PUSH1 0x20 ADD ADD SWAP1 PUSH1 0x1 PUSH1 0x1 PUSH1 0xA0 SHL SUB AND SWAP1 DUP2 PUSH1 0x1 PUSH1 0x1 PUSH1 0xA0 SHL SUB AND DUP2 MSTORE POP POP JUMPDEST PUSH1 0xC SLOAD PUSH0 SWAP1 PUSH1 0x1 PUSH1 0x1 PUSH1 0xA0 SHL SUB AND PUSH4 0x38ED1739 DUP6 DUP4 DUP6 ADDRESS PUSH2 0x1382 TIMESTAMP PUSH2 0x12C PUSH2 0x234C JUMP JUMPDEST PUSH1 0x40 MLOAD DUP7 PUSH4 0xFFFFFFFF AND PUSH1 0xE0 SHL DUP2 MSTORE PUSH1 0x4 ADD PUSH2 0x13A2 SWAP6 SWAP5 SWAP4 SWAP3 SWAP2 SWAP1 PUSH2 0x2449 JUMP JUMPDEST PUSH0 PUSH1 0x40 MLOAD DUP1 DUP4 SUB DUP2 PUSH0 DUP8 GAS CALL ISZERO DUP1 ISZERO PUSH2 0x13BD JUMPI RETURNDATASIZE PUSH0 DUP1 RETURNDATACOPY RETURNDATASIZE PUSH0 REVERT JUMPDEST POP POP POP POP PUSH1 0x40 MLOAD RETURNDATASIZE PUSH0 DUP3 RETURNDATACOPY PUSH1 0x1F RETURNDATASIZE SWAP1 DUP2 ADD PUSH1 0x1F NOT AND DUP3 ADD PUSH1 0x40 MSTORE PUSH2 0x13E4 SWAP2 SWAP1 DUP2 ADD SWAP1 PUSH2 0x24B8 JUMP JUMPDEST SWAP1 POP DUP1 PUSH1 0x1 DUP3 MLOAD PUSH2 0x13F5 SWAP2 SWAP1 PUSH2 0x23CC JUMP JUMPDEST DUP2 MLOAD DUP2 LT PUSH2 0x1405 JUMPI PUSH2 0x1405 PUSH2 0x2435 JUMP JUMPDEST PUSH1 0x20 MUL PUSH1 0x20 ADD ADD MLOAD SWAP3 POP DUP3 PUSH1 0xF PUSH0 DUP3 DUP3 SLOAD PUSH2 0x1420 SWAP2 SWAP1 PUSH2 0x234C JUMP JUMPDEST SWAP1 SWAP2 SSTORE POP POP PUSH1 0xC SLOAD PUSH2 0x143F SWAP1 PUSH1 0x1 PUSH1 0x1 PUSH1 0xA0 SHL SUB DUP8 DUP2 AND SWAP2 AND PUSH0 PUSH2 0x1D7E JUMP JUMPDEST PUSH1 0xB SLOAD PUSH1 0x40 DUP1 MLOAD DUP7 DUP2 MSTORE PUSH1 0x20 DUP2 ADD DUP7 SWAP1 MSTORE PUSH1 0x1 PUSH1 0x1 PUSH1 0xA0 SHL SUB SWAP3 DUP4 AND SWAP3 DUP9 AND SWAP2 PUSH32 0x34D9DA274CC86DDBAFEF4468CE8C5F585C7C846F96319498450E21C2F254DB15 SWAP2 ADD PUSH1 0x40 MLOAD DUP1 SWAP2 SUB SWAP1 LOG3 POP POP SWAP3 SWAP2 POP POP JUMP JUMPDEST PUSH1 0x60 PUSH1 0x4 DUP1 SLOAD PUSH2 0x5C6 SWAP1 PUSH2 0x22D7 JUMP JUMPDEST PUSH2 0x14A9 PUSH2 0x1BCF JUMP JUMPDEST PUSH1 0x1 PUSH1 0x1 PUSH1 0xA0 SHL SUB DUP2 AND PUSH2 0x14FF JUMPI PUSH1 0x40 MLOAD PUSH3 0x461BCD PUSH1 0xE5 SHL DUP2 MSTORE PUSH1 0x20 PUSH1 0x4 DUP3 ADD MSTORE PUSH1 0x18 PUSH1 0x24 DUP3 ADD MSTORE PUSH32 0x496E76616C6964206F70657261746F7220616464726573730000000000000000 PUSH1 0x44 DUP3 ADD MSTORE PUSH1 0x64 ADD PUSH2 0x6A3 JUMP JUMPDEST PUSH1 0x1 PUSH1 0x1 PUSH1 0xA0 SHL SUB DUP2 AND PUSH0 DUP2 DUP2 MSTORE PUSH1 0x7 PUSH1 0x20 MSTORE PUSH1 0x40 DUP1 DUP3 KECCAK256 DUP1 SLOAD PUSH1 0xFF NOT AND PUSH1 0x1 OR SWAP1 SSTORE MLOAD PUSH32 0xAC6FA858E9350A46CEC16539926E0FDE25B7629F84B5A72BFFAAE4DF888AE86D SWAP2 SWAP1 LOG2 POP JUMP JUMPDEST CALLER PUSH0 SWAP1 DUP2 MSTORE PUSH1 0x7 PUSH1 0x20 MSTORE PUSH1 0x40 SWAP1 KECCAK256 SLOAD PUSH1 0xFF AND DUP1 PUSH2 0x1571 JUMPI POP PUSH1 0x5 SLOAD PUSH1 0x1 PUSH1 0x1 PUSH1 0xA0 SHL SUB AND CALLER EQ JUMPDEST PUSH2 0x158D JUMPI PUSH1 0x40 MLOAD PUSH3 0x461BCD PUSH1 0xE5 SHL DUP2 MSTORE PUSH1 0x4 ADD PUSH2 0x6A3 SWAP1 PUSH2 0x230F JUMP JUMPDEST PUSH1 0xB SLOAD PUSH1 0x40 MLOAD PUSH4 0x70A08231 PUSH1 0xE0 SHL DUP2 MSTORE ADDRESS PUSH1 0x4 DUP3 ADD MSTORE PUSH0 SWAP2 PUSH1 0x1 PUSH1 0x1 PUSH1 0xA0 SHL SUB AND SWAP1 PUSH4 0x70A08231 SWAP1 PUSH1 0x24 ADD PUSH1 0x20 PUSH1 0x40 MLOAD DUP1 DUP4 SUB DUP2 DUP7 GAS STATICCALL ISZERO DUP1 ISZERO PUSH2 0x15D3 JUMPI RETURNDATASIZE PUSH0 DUP1 RETURNDATACOPY RETURNDATASIZE PUSH0 REVERT JUMPDEST POP POP POP POP PUSH1 0x40 MLOAD RETURNDATASIZE PUSH1 0x1F NOT PUSH1 0x1F DUP3 ADD AND DUP3 ADD DUP1 PUSH1 0x40 MSTORE POP DUP2 ADD SWAP1 PUSH2 0x15F7 SWAP2 SWAP1 PUSH2 0x23DF JUMP JUMPDEST SWAP1 POP PUSH1 0xF SLOAD DUP2 GT ISZERO PUSH2 0xABB JUMPI PUSH0 PUSH1 0xF SLOAD DUP3 PUSH2 0x1612 SWAP2 SWAP1 PUSH2 0x23CC JUMP JUMPDEST SWAP1 POP DUP1 PUSH1 0xF PUSH0 DUP3 DUP3 SLOAD PUSH2 0x1625 SWAP2 SWAP1 PUSH2 0x234C JUMP JUMPDEST SWAP1 SWAP2 SSTORE POP POP PUSH1 0xA SLOAD PUSH1 0x40 DUP1 MLOAD DUP4 DUP2 MSTORE PUSH1 0x20 DUP2 ADD SWAP3 SWAP1 SWAP3 MSTORE PUSH32 0xAFFC64DD767DC9D20EE587A46CFDD6A221C4FEF6B51AE557B3AD7DFE82DC503A SWAP2 ADD PUSH1 0x40 MLOAD DUP1 SWAP2 SUB SWAP1 LOG1 POP POP JUMP JUMPDEST CALLER PUSH0 SWAP1 DUP2 MSTORE PUSH1 0x7 PUSH1 0x20 MSTORE PUSH1 0x40 SWAP1 KECCAK256 SLOAD PUSH1 0xFF AND DUP1 PUSH2 0x1692 JUMPI POP PUSH1 0x5 SLOAD PUSH1 0x1 PUSH1 0x1 PUSH1 0xA0 SHL SUB AND CALLER EQ JUMPDEST PUSH2 0x16AE JUMPI PUSH1 0x40 MLOAD PUSH3 0x461BCD PUSH1 0xE5 SHL DUP2 MSTORE PUSH1 0x4 ADD PUSH2 0x6A3 SWAP1 PUSH2 0x230F JUMP JUMPDEST PUSH2 0x16B6 PUSH2 0x1CCF JUMP JUMPDEST PUSH1 0x1 PUSH1 0x1 PUSH1 0xA0 SHL SUB DUP5 AND PUSH2 0x1703 JUMPI PUSH1 0x40 MLOAD PUSH3 0x461BCD PUSH1 0xE5 SHL DUP2 MSTORE PUSH1 0x20 PUSH1 0x4 DUP3 ADD MSTORE PUSH1 0x14 PUSH1 0x24 DUP3 ADD MSTORE PUSH20 0x496E76616C696420757365722061646472657373 PUSH1 0x60 SHL PUSH1 0x44 DUP3 ADD MSTORE PUSH1 0x64 ADD PUSH2 0x6A3 JUMP JUMPDEST PUSH1 0x8 SLOAD DUP4 LT ISZERO PUSH2 0x1755 JUMPI PUSH1 0x40 MLOAD PUSH3 0x461BCD PUSH1 0xE5 SHL DUP2 MSTORE PUSH1 0x20 PUSH1 0x4 DUP3 ADD MSTORE PUSH1 0x1C PUSH1 0x24 DUP3 ADD MSTORE PUSH32 0x416D6F756E742062656C6F77206D696E696D756D206465706F73697400000000 PUSH1 0x44 DUP3 ADD MSTORE PUSH1 0x64 ADD PUSH2 0x6A3 JUMP JUMPDEST DUP1 PUSH2 0x1799 JUMPI PUSH1 0x40 MLOAD PUSH3 0x461BCD PUSH1 0xE5 SHL DUP2 MSTORE PUSH1 0x20 PUSH1 0x4 DUP3 ADD MSTORE PUSH1 0x14 PUSH1 0x24 DUP3 ADD MSTORE PUSH20 0x92DCECC2D8D2C840B0A4A09840E8F040D0C2E6D PUSH1 0x63 SHL PUSH1 0x44 DUP3 ADD MSTORE PUSH1 0x64 ADD PUSH2 0x6A3 JUMP JUMPDEST PUSH1 0xA SLOAD PUSH0 SWAP1 PUSH2 0x17B0 DUP6 PUSH8 0xDE0B6B3A7640000 PUSH2 0x235F JUMP JUMPDEST PUSH2 0x17BA SWAP2 SWAP1 PUSH2 0x2376 JUMP JUMPDEST SWAP1 POP DUP4 PUSH1 0x9 PUSH0 DUP3 DUP3 SLOAD PUSH2 0x17CD SWAP2 SWAP1 PUSH2 0x234C JUMP JUMPDEST SWAP1 SWAP2 SSTORE POP PUSH2 0x17DD SWAP1 POP DUP6 DUP3 PUSH2 0x1E0D JUMP JUMPDEST DUP5 PUSH1 0x1 PUSH1 0x1 PUSH1 0xA0 SHL SUB AND PUSH32 0x5DC23EACE1418C630429A4639FADF2BD4B20187833AD6968B869E9E9BE652E33 DUP6 DUP4 DUP7 DUP7 PUSH1 0x40 MLOAD PUSH2 0x181C SWAP5 SWAP4 SWAP3 SWAP2 SWAP1 PUSH2 0x2571 JUMP JUMPDEST PUSH1 0x40 MLOAD DUP1 SWAP2 SUB SWAP1 LOG2 POP PUSH2 0x182F PUSH1 0x1 PUSH1 0x6 SSTORE JUMP JUMPDEST POP POP POP POP JUMP JUMPDEST PUSH0 CALLER PUSH2 0x654 DUP2 DUP6 DUP6 PUSH2 0x1C72 JUMP JUMPDEST PUSH2 0x184A PUSH2 0x1BCF JUMP JUMPDEST PUSH1 0x1 PUSH1 0x1 PUSH1 0xA0 SHL SUB DUP2 AND PUSH0 DUP2 DUP2 MSTORE PUSH1 0x7 PUSH1 0x20 MSTORE PUSH1 0x40 DUP1 DUP3 KECCAK256 DUP1 SLOAD PUSH1 0xFF NOT AND SWAP1 SSTORE MLOAD PUSH32 0x80C0B871B97B595B16A7741C1B06FED0C6F6F558639F18CCBCE50724325DC40D SWAP2 SWAP1 LOG2 POP JUMP JUMPDEST CALLER PUSH0 SWAP1 DUP2 MSTORE PUSH1 0x7 PUSH1 0x20 MSTORE PUSH1 0x40 DUP2 KECCAK256 SLOAD DUP2 SWAP1 PUSH1 0xFF AND DUP1 PUSH2 0x18BB JUMPI POP PUSH1 0x5 SLOAD PUSH1 0x1 PUSH1 0x1 PUSH1 0xA0 SHL SUB AND CALLER EQ JUMPDEST PUSH2 0x18D7 JUMPI PUSH1 0x40 MLOAD PUSH3 0x461BCD PUSH1 0xE5 SHL DUP2 MSTORE PUSH1 0x4 ADD PUSH2 0x6A3 SWAP1 PUSH2 0x230F JUMP JUMPDEST PUSH0 DUP4 GT PUSH2 0x18F6 JUMPI PUSH1 0x40 MLOAD PUSH3 0x461BCD PUSH1 0xE5 SHL DUP2 MSTORE PUSH1 0x4 ADD PUSH2 0x6A3 SWAP1 PUSH2 0x2395 JUMP JUMPDEST PUSH1 0x11 SLOAD DUP4 GT ISZERO PUSH2 0x1941 JUMPI PUSH1 0x40 MLOAD PUSH3 0x461BCD PUSH1 0xE5 SHL DUP2 MSTORE PUSH1 0x20 PUSH1 0x4 DUP3 ADD MSTORE PUSH1 0x16 PUSH1 0x24 DUP3 ADD MSTORE PUSH22 0x496E73756666696369656E74204C5020746F6B656E73 PUSH1 0x50 SHL PUSH1 0x44 DUP3 ADD MSTORE PUSH1 0x64 ADD PUSH2 0x6A3 JUMP JUMPDEST PUSH1 0x10 SLOAD PUSH1 0x1 PUSH1 0x1 PUSH1 0xA0 SHL SUB AND PUSH2 0x198C JUMPI PUSH1 0x40 MLOAD PUSH3 0x461BCD PUSH1 0xE5 SHL DUP2 MSTORE PUSH1 0x20 PUSH1 0x4 DUP3 ADD MSTORE PUSH1 0x10 PUSH1 0x24 DUP3 ADD MSTORE PUSH16 0x1314081D1BDAD95B881B9BDD081CD95D PUSH1 0x82 SHL PUSH1 0x44 DUP3 ADD MSTORE PUSH1 0x64 ADD PUSH2 0x6A3 JUMP JUMPDEST PUSH1 0xC SLOAD PUSH1 0x10 SLOAD PUSH2 0x19A9 SWAP2 PUSH1 0x1 PUSH1 0x1 PUSH1 0xA0 SHL SUB SWAP2 DUP3 AND SWAP2 AND DUP6 PUSH2 0x1D7E JUMP JUMPDEST PUSH1 0xC SLOAD PUSH1 0xB SLOAD PUSH1 0xD SLOAD PUSH1 0x1 PUSH1 0x1 PUSH1 0xA0 SHL SUB SWAP3 DUP4 AND SWAP3 PUSH4 0xBAA2ABDE SWAP3 DUP2 AND SWAP2 AND DUP7 PUSH0 DUP1 ADDRESS PUSH2 0x19D8 TIMESTAMP PUSH2 0x12C PUSH2 0x234C JUMP JUMPDEST PUSH1 0x40 MLOAD PUSH1 0xE0 DUP10 SWAP1 SHL PUSH1 0x1 PUSH1 0x1 PUSH1 0xE0 SHL SUB NOT AND DUP2 MSTORE PUSH1 0x1 PUSH1 0x1 PUSH1 0xA0 SHL SUB SWAP8 DUP9 AND PUSH1 0x4 DUP3 ADD MSTORE SWAP6 DUP8 AND PUSH1 0x24 DUP8 ADD MSTORE PUSH1 0x44 DUP7 ADD SWAP5 SWAP1 SWAP5 MSTORE PUSH1 0x64 DUP6 ADD SWAP3 SWAP1 SWAP3 MSTORE PUSH1 0x84 DUP5 ADD MSTORE SWAP1 SWAP3 AND PUSH1 0xA4 DUP3 ADD MSTORE PUSH1 0xC4 DUP2 ADD SWAP2 SWAP1 SWAP2 MSTORE PUSH1 0xE4 ADD PUSH1 0x40 DUP1 MLOAD DUP1 DUP4 SUB DUP2 PUSH0 DUP8 GAS CALL ISZERO DUP1 ISZERO PUSH2 0x1A47 JUMPI RETURNDATASIZE PUSH0 DUP1 RETURNDATACOPY RETURNDATASIZE PUSH0 REVERT JUMPDEST POP POP POP POP PUSH1 0x40 MLOAD RETURNDATASIZE PUSH1 0x1F NOT PUSH1 0x1F DUP3 ADD AND DUP3 ADD DUP1 PUSH1 0x40 MSTORE POP DUP2 ADD SWAP1 PUSH2 0x1A6B SWAP2 SWAP1 PUSH2 0x25AD JUMP JUMPDEST DUP1 SWAP3 POP DUP2 SWAP4 POP POP POP DUP3 PUSH1 0x11 PUSH0 DUP3 DUP3 SLOAD PUSH2 0x1A84 SWAP2 SWAP1 PUSH2 0x23CC JUMP JUMPDEST SWAP3 POP POP DUP2 SWAP1 SSTORE POP DUP2 PUSH1 0xF PUSH0 DUP3 DUP3 SLOAD PUSH2 0x1A9C SWAP2 SWAP1 PUSH2 0x234C JUMP JUMPDEST SWAP1 SWAP2 SSTORE POP POP PUSH1 0xC SLOAD PUSH1 0x10 SLOAD PUSH2 0x1ABE SWAP2 PUSH1 0x1 PUSH1 0x1 PUSH1 0xA0 SHL SUB SWAP2 DUP3 AND SWAP2 AND PUSH0 PUSH2 0x1D7E JUMP JUMPDEST PUSH1 0x40 DUP1 MLOAD DUP5 DUP2 MSTORE PUSH1 0x20 DUP2 ADD DUP5 SWAP1 MSTORE SWAP1 DUP2 ADD DUP3 SWAP1 MSTORE PUSH32 0xA83D4E58497297A930236359F801D31B4F909DD2F005680F2F6868E4596FF771 SWAP1 PUSH1 0x60 ADD PUSH1 0x40 MLOAD DUP1 SWAP2 SUB SWAP1 LOG1 SWAP2 POP SWAP2 JUMP JUMPDEST PUSH2 0x1B0C PUSH2 0x1BCF JUMP JUMPDEST PUSH1 0x1 PUSH1 0x1 PUSH1 0xA0 SHL SUB DUP2 AND PUSH2 0x1B35 JUMPI PUSH1 0x40 MLOAD PUSH4 0x1E4FBDF7 PUSH1 0xE0 SHL DUP2 MSTORE PUSH0 PUSH1 0x4 DUP3 ADD MSTORE PUSH1 0x24 ADD PUSH2 0x6A3 JUMP JUMPDEST PUSH2 0xABB DUP2 PUSH2 0x1D2D JUMP JUMPDEST PUSH0 PUSH8 0xDE0B6B3A7640000 PUSH1 0xA SLOAD DUP4 PUSH2 0x7C5 SWAP2 SWAP1 PUSH2 0x235F JUMP JUMPDEST PUSH2 0x1B63 DUP4 DUP4 DUP4 PUSH1 0x1 PUSH2 0x1E41 JUMP JUMPDEST POP POP POP JUMP JUMPDEST PUSH1 0x40 MLOAD PUSH1 0x1 PUSH1 0x1 PUSH1 0xA0 SHL SUB DUP5 DUP2 AND PUSH1 0x24 DUP4 ADD MSTORE DUP4 DUP2 AND PUSH1 0x44 DUP4 ADD MSTORE PUSH1 0x64 DUP3 ADD DUP4 SWAP1 MSTORE PUSH2 0x182F SWAP2 DUP7 SWAP2 DUP3 AND SWAP1 PUSH4 0x23B872DD SWAP1 PUSH1 0x84 ADD JUMPDEST PUSH1 0x40 MLOAD PUSH1 0x20 DUP2 DUP4 SUB SUB DUP2 MSTORE SWAP1 PUSH1 0x40 MSTORE SWAP2 POP PUSH1 0xE0 SHL PUSH1 0x20 DUP3 ADD DUP1 MLOAD PUSH1 0x1 PUSH1 0x1 PUSH1 0xE0 SHL SUB DUP4 DUP2 DUP4 AND OR DUP4 MSTORE POP POP POP POP PUSH2 0x1F13 JUMP JUMPDEST PUSH1 0x5 SLOAD PUSH1 0x1 PUSH1 0x1 PUSH1 0xA0 SHL SUB AND CALLER EQ PUSH2 0xD0C JUMPI PUSH1 0x40 MLOAD PUSH4 0x118CDAA7 PUSH1 0xE0 SHL DUP2 MSTORE CALLER PUSH1 0x4 DUP3 ADD MSTORE PUSH1 0x24 ADD PUSH2 0x6A3 JUMP JUMPDEST PUSH1 0x1 PUSH1 0x1 PUSH1 0xA0 SHL SUB DUP4 DUP2 AND PUSH0 SWAP1 DUP2 MSTORE PUSH1 0x1 PUSH1 0x20 SWAP1 DUP2 MSTORE PUSH1 0x40 DUP1 DUP4 KECCAK256 SWAP4 DUP7 AND DUP4 MSTORE SWAP3 SWAP1 MSTORE KECCAK256 SLOAD PUSH0 NOT DUP2 LT ISZERO PUSH2 0x182F JUMPI DUP2 DUP2 LT ISZERO PUSH2 0x1C64 JUMPI PUSH1 0x40 MLOAD PUSH4 0x7DC7A0D9 PUSH1 0xE1 SHL DUP2 MSTORE PUSH1 0x1 PUSH1 0x1 PUSH1 0xA0 SHL SUB DUP5 AND PUSH1 0x4 DUP3 ADD MSTORE PUSH1 0x24 DUP2 ADD DUP3 SWAP1 MSTORE PUSH1 0x44 DUP2 ADD DUP4 SWAP1 MSTORE PUSH1 0x64 ADD PUSH2 0x6A3 JUMP JUMPDEST PUSH2 0x182F DUP5 DUP5 DUP5 DUP5 SUB PUSH0 PUSH2 0x1E41 JUMP JUMPDEST PUSH1 0x1 PUSH1 0x1 PUSH1 0xA0 SHL SUB DUP4 AND PUSH2 0x1C9B JUMPI PUSH1 0x40 MLOAD PUSH4 0x4B637E8F PUSH1 0xE1 SHL DUP2 MSTORE PUSH0 PUSH1 0x4 DUP3 ADD MSTORE PUSH1 0x24 ADD PUSH2 0x6A3 JUMP JUMPDEST PUSH1 0x1 PUSH1 0x1 PUSH1 0xA0 SHL SUB DUP3 AND PUSH2 0x1CC4 JUMPI PUSH1 0x40 MLOAD PUSH4 0xEC442F05 PUSH1 0xE0 SHL DUP2 MSTORE PUSH0 PUSH1 0x4 DUP3 ADD MSTORE PUSH1 0x24 ADD PUSH2 0x6A3 JUMP JUMPDEST PUSH2 0x1B63 DUP4 DUP4 DUP4 PUSH2 0x1F7F JUMP JUMPDEST PUSH1 0x2 PUSH1 0x6 SLOAD SUB PUSH2 0x1CF2 JUMPI PUSH1 0x40 MLOAD PUSH4 0x3EE5AEB5 PUSH1 0xE0 SHL DUP2 MSTORE PUSH1 0x4 ADD PUSH1 0x40 MLOAD DUP1 SWAP2 SUB SWAP1 REVERT JUMPDEST PUSH1 0x2 PUSH1 0x6 SSTORE JUMP JUMPDEST PUSH1 0x1 PUSH1 0x1 PUSH1 0xA0 SHL SUB DUP3 AND PUSH2 0x1D22 JUMPI PUSH1 0x40 MLOAD PUSH4 0x4B637E8F PUSH1 0xE1 SHL DUP2 MSTORE PUSH0 PUSH1 0x4 DUP3 ADD MSTORE PUSH1 0x24 ADD PUSH2 0x6A3 JUMP JUMPDEST PUSH2 0xD23 DUP3 PUSH0 DUP4 PUSH2 0x1F7F JUMP JUMPDEST PUSH1 0x5 DUP1 SLOAD PUSH1 0x1 PUSH1 0x1 PUSH1 0xA0 SHL SUB DUP4 DUP2 AND PUSH1 0x1 PUSH1 0x1 PUSH1 0xA0 SHL SUB NOT DUP4 AND DUP2 OR SWAP1 SWAP4 SSTORE PUSH1 0x40 MLOAD SWAP2 AND SWAP2 SWAP1 DUP3 SWAP1 PUSH32 0x8BE0079C531659141344CD1FD0A4F28419497F9722A3DAAFE3B4186F6B6457E0 SWAP1 PUSH0 SWAP1 LOG3 POP POP JUMP JUMPDEST PUSH1 0x40 DUP1 MLOAD PUSH1 0x1 PUSH1 0x1 PUSH1 0xA0 SHL SUB DUP5 AND PUSH1 0x24 DUP3 ADD MSTORE PUSH1 0x44 DUP1 DUP3 ADD DUP5 SWAP1 MSTORE DUP3 MLOAD DUP1 DUP4 SUB SWAP1 SWAP2 ADD DUP2 MSTORE PUSH1 0x64 SWAP1 SWAP2 ADD SWAP1 SWAP2 MSTORE PUSH1 0x20 DUP2 ADD DUP1 MLOAD PUSH1 0x1 PUSH1 0x1 PUSH1 0xE0 SHL SUB AND PUSH4 0x95EA7B3 PUSH1 0xE0 SHL OR SWAP1 MSTORE PUSH2 0x1DCF DUP5 DUP3 PUSH2 0x20A5 JUMP JUMPDEST PUSH2 0x182F JUMPI PUSH1 0x40 MLOAD PUSH1 0x1 PUSH1 0x1 PUSH1 0xA0 SHL SUB DUP5 DUP2 AND PUSH1 0x24 DUP4 ADD MSTORE PUSH0 PUSH1 0x44 DUP4 ADD MSTORE PUSH2 0x1E03 SWAP2 DUP7 SWAP2 DUP3 AND SWAP1 PUSH4 0x95EA7B3 SWAP1 PUSH1 0x64 ADD PUSH2 0x1B9D JUMP JUMPDEST PUSH2 0x182F DUP5 DUP3 PUSH2 0x1F13 JUMP JUMPDEST PUSH1 0x1 PUSH1 0x1 PUSH1 0xA0 SHL SUB DUP3 AND PUSH2 0x1E36 JUMPI PUSH1 0x40 MLOAD PUSH4 0xEC442F05 PUSH1 0xE0 SHL DUP2 MSTORE PUSH0 PUSH1 0x4 DUP3 ADD MSTORE PUSH1 0x24 ADD PUSH2 0x6A3 JUMP JUMPDEST PUSH2 0xD23 PUSH0 DUP4 DUP4 PUSH2 0x1F7F JUMP JUMPDEST PUSH1 0x1 PUSH1 0x1 PUSH1 0xA0 SHL SUB DUP5 AND PUSH2 0x1E6A JUMPI PUSH1 0x40 MLOAD PUSH4 0xE602DF05 PUSH1 0xE0 SHL DUP2 MSTORE PUSH0 PUSH1 0x4 DUP3 ADD MSTORE PUSH1 0x24 ADD PUSH2 0x6A3 JUMP JUMPDEST PUSH1 0x1 PUSH1 0x1 PUSH1 0xA0 SHL SUB DUP4 AND PUSH2 0x1E93 JUMPI PUSH1 0x40 MLOAD PUSH4 0x4A1406B1 PUSH1 0xE1 SHL DUP2 MSTORE PUSH0 PUSH1 0x4 DUP3 ADD MSTORE PUSH1 0x24 ADD PUSH2 0x6A3 JUMP JUMPDEST PUSH1 0x1 PUSH1 0x1 PUSH1 0xA0 SHL SUB DUP1 DUP6 AND PUSH0 SWAP1 DUP2 MSTORE PUSH1 0x1 PUSH1 0x20 SWAP1 DUP2 MSTORE PUSH1 0x40 DUP1 DUP4 KECCAK256 SWAP4 DUP8 AND DUP4 MSTORE SWAP3 SWAP1 MSTORE KECCAK256 DUP3 SWAP1 SSTORE DUP1 ISZERO PUSH2 0x182F JUMPI DUP3 PUSH1 0x1 PUSH1 0x1 PUSH1 0xA0 SHL SUB AND DUP5 PUSH1 0x1 PUSH1 0x1 PUSH1 0xA0 SHL SUB AND PUSH32 0x8C5BE1E5EBEC7D5BD14F71427D1E84F3DD0314C0F7B2291E5B200AC8C7C3B925 DUP5 PUSH1 0x40 MLOAD PUSH2 0x1F05 SWAP2 DUP2 MSTORE PUSH1 0x20 ADD SWAP1 JUMP JUMPDEST PUSH1 0x40 MLOAD DUP1 SWAP2 SUB SWAP1 LOG3 POP POP POP POP JUMP JUMPDEST PUSH0 DUP1 PUSH1 0x20 PUSH0 DUP5 MLOAD PUSH1 0x20 DUP7 ADD PUSH0 DUP9 GAS CALL DUP1 PUSH2 0x1F32 JUMPI PUSH1 0x40 MLOAD RETURNDATASIZE PUSH0 DUP3 RETURNDATACOPY RETURNDATASIZE DUP2 REVERT JUMPDEST POP POP PUSH0 MLOAD RETURNDATASIZE SWAP2 POP DUP2 ISZERO PUSH2 0x1F49 JUMPI DUP1 PUSH1 0x1 EQ ISZERO PUSH2 0x1F56 JUMP JUMPDEST PUSH1 0x1 PUSH1 0x1 PUSH1 0xA0 SHL SUB DUP5 AND EXTCODESIZE ISZERO JUMPDEST ISZERO PUSH2 0x182F JUMPI PUSH1 0x40 MLOAD PUSH4 0x5274AFE7 PUSH1 0xE0 SHL DUP2 MSTORE PUSH1 0x1 PUSH1 0x1 PUSH1 0xA0 SHL SUB DUP6 AND PUSH1 0x4 DUP3 ADD MSTORE PUSH1 0x24 ADD PUSH2 0x6A3 JUMP JUMPDEST PUSH1 0x1 PUSH1 0x1 PUSH1 0xA0 SHL SUB DUP4 AND PUSH2 0x1FA9 JUMPI DUP1 PUSH1 0x2 PUSH0 DUP3 DUP3 SLOAD PUSH2 0x1F9E SWAP2 SWAP1 PUSH2 0x234C JUMP JUMPDEST SWAP1 SWAP2 SSTORE POP PUSH2 0x2019 SWAP1 POP JUMP JUMPDEST PUSH1 0x1 PUSH1 0x1 PUSH1 0xA0 SHL SUB DUP4 AND PUSH0 SWAP1 DUP2 MSTORE PUSH1 0x20 DUP2 SWAP1 MSTORE PUSH1 0x40 SWAP1 KECCAK256 SLOAD DUP2 DUP2 LT ISZERO PUSH2 0x1FFB JUMPI PUSH1 0x40 MLOAD PUSH4 0x391434E3 PUSH1 0xE2 SHL DUP2 MSTORE PUSH1 0x1 PUSH1 0x1 PUSH1 0xA0 SHL SUB DUP6 AND PUSH1 0x4 DUP3 ADD MSTORE PUSH1 0x24 DUP2 ADD DUP3 SWAP1 MSTORE PUSH1 0x44 DUP2 ADD DUP4 SWAP1 MSTORE PUSH1 0x64 ADD PUSH2 0x6A3 JUMP JUMPDEST PUSH1 0x1 PUSH1 0x1 PUSH1 0xA0 SHL SUB DUP5 AND PUSH0 SWAP1 DUP2 MSTORE PUSH1 0x20 DUP2 SWAP1 MSTORE PUSH1 0x40 SWAP1 KECCAK256 SWAP1 DUP3 SWAP1 SUB SWAP1 SSTORE JUMPDEST PUSH1 0x1 PUSH1 0x1 PUSH1 0xA0 SHL SUB DUP3 AND PUSH2 0x2035 JUMPI PUSH1 0x2 DUP1 SLOAD DUP3 SWAP1 SUB SWAP1 SSTORE PUSH2 0x2053 JUMP JUMPDEST PUSH1 0x1 PUSH1 0x1 PUSH1 0xA0 SHL SUB DUP3 AND PUSH0 SWAP1 DUP2 MSTORE PUSH1 0x20 DUP2 SWAP1 MSTORE PUSH1 0x40 SWAP1 KECCAK256 DUP1 SLOAD DUP3 ADD SWAP1 SSTORE JUMPDEST DUP2 PUSH1 0x1 PUSH1 0x1 PUSH1 0xA0 SHL SUB AND DUP4 PUSH1 0x1 PUSH1 0x1 PUSH1 0xA0 SHL SUB AND PUSH32 0xDDF252AD1BE2C89B69C2B068FC378DAA952BA7F163C4A11628F55A4DF523B3EF DUP4 PUSH1 0x40 MLOAD PUSH2 0x2098 SWAP2 DUP2 MSTORE PUSH1 0x20 ADD SWAP1 JUMP JUMPDEST PUSH1 0x40 MLOAD DUP1 SWAP2 SUB SWAP1 LOG3 POP POP POP JUMP JUMPDEST PUSH0 DUP1 PUSH0 DUP1 PUSH1 0x20 PUSH0 DUP7 MLOAD PUSH1 0x20 DUP9 ADD PUSH0 DUP11 GAS CALL SWAP3 POP RETURNDATASIZE SWAP2 POP PUSH0 MLOAD SWAP1 POP DUP3 DUP1 ISZERO PUSH2 0x20E4 JUMPI POP DUP2 ISZERO PUSH2 0x20D6 JUMPI DUP1 PUSH1 0x1 EQ PUSH2 0x20E4 JUMP JUMPDEST PUSH0 DUP7 PUSH1 0x1 PUSH1 0x1 PUSH1 0xA0 SHL SUB AND EXTCODESIZE GT JUMPDEST SWAP7 SWAP6 POP POP POP POP POP POP JUMP JUMPDEST PUSH0 PUSH1 0x20 DUP1 DUP4 MSTORE DUP4 MLOAD DUP1 DUP3 DUP6 ADD MSTORE PUSH0 JUMPDEST DUP2 DUP2 LT ISZERO PUSH2 0x2119 JUMPI DUP6 DUP2 ADD DUP4 ADD MLOAD DUP6 DUP3 ADD PUSH1 0x40 ADD MSTORE DUP3 ADD PUSH2 0x20FD JUMP JUMPDEST POP PUSH0 PUSH1 0x40 DUP3 DUP7 ADD ADD MSTORE PUSH1 0x40 PUSH1 0x1F NOT PUSH1 0x1F DUP4 ADD AND DUP6 ADD ADD SWAP3 POP POP POP SWAP3 SWAP2 POP POP JUMP JUMPDEST DUP1 CALLDATALOAD PUSH1 0x1 PUSH1 0x1 PUSH1 0xA0 SHL SUB DUP2 AND DUP2 EQ PUSH2 0xAAC JUMPI PUSH0 DUP1 REVERT JUMPDEST PUSH0 DUP1 PUSH1 0x40 DUP4 DUP6 SUB SLT ISZERO PUSH2 0x2160 JUMPI PUSH0 DUP1 REVERT JUMPDEST PUSH2 0x2169 DUP4 PUSH2 0x2139 JUMP JUMPDEST SWAP5 PUSH1 0x20 SWAP4 SWAP1 SWAP4 ADD CALLDATALOAD SWAP4 POP POP POP JUMP JUMPDEST PUSH0 PUSH1 0x20 DUP3 DUP5 SUB SLT ISZERO PUSH2 0x2187 JUMPI PUSH0 DUP1 REVERT JUMPDEST POP CALLDATALOAD SWAP2 SWAP1 POP JUMP JUMPDEST PUSH0 PUSH1 0x20 DUP3 DUP5 SUB SLT ISZERO PUSH2 0x219E JUMPI PUSH0 DUP1 REVERT JUMPDEST DUP2 CALLDATALOAD DUP1 ISZERO ISZERO DUP2 EQ PUSH2 0x21AD JUMPI PUSH0 DUP1 REVERT JUMPDEST SWAP4 SWAP3 POP POP POP JUMP JUMPDEST PUSH0 PUSH1 0x20 DUP3 DUP5 SUB SLT ISZERO PUSH2 0x21C4 JUMPI PUSH0 DUP1 REVERT JUMPDEST PUSH2 0x21AD DUP3 PUSH2 0x2139 JUMP JUMPDEST PUSH0 DUP1 PUSH0 PUSH1 0x60 DUP5 DUP7 SUB SLT ISZERO PUSH2 0x21DF JUMPI PUSH0 DUP1 REVERT JUMPDEST PUSH2 0x21E8 DUP5 PUSH2 0x2139 JUMP JUMPDEST SWAP3 POP PUSH2 0x21F6 PUSH1 0x20 DUP6 ADD PUSH2 0x2139 JUMP JUMPDEST SWAP2 POP PUSH1 0x40 DUP5 ADD CALLDATALOAD SWAP1 POP SWAP3 POP SWAP3 POP SWAP3 JUMP JUMPDEST PUSH0 DUP1 PUSH1 0x40 DUP4 DUP6 SUB SLT ISZERO PUSH2 0x2217 JUMPI PUSH0 DUP1 REVERT JUMPDEST POP POP DUP1 CALLDATALOAD SWAP3 PUSH1 0x20 SWAP1 SWAP2 ADD CALLDATALOAD SWAP2 POP JUMP JUMPDEST PUSH0 DUP1 PUSH0 DUP1 PUSH1 0x60 DUP6 DUP8 SUB SLT ISZERO PUSH2 0x2239 JUMPI PUSH0 DUP1 REVERT JUMPDEST PUSH2 0x2242 DUP6 PUSH2 0x2139 JUMP JUMPDEST SWAP4 POP PUSH1 0x20 DUP6 ADD CALLDATALOAD SWAP3 POP PUSH1 0x40 DUP6 ADD CALLDATALOAD PUSH8 0xFFFFFFFFFFFFFFFF DUP1 DUP3 GT ISZERO PUSH2 0x2265 JUMPI PUSH0 DUP1 REVERT JUMPDEST DUP2 DUP8 ADD SWAP2 POP DUP8 PUSH1 0x1F DUP4 ADD SLT PUSH2 0x2278 JUMPI PUSH0 DUP1 REVERT JUMPDEST DUP2 CALLDATALOAD DUP2 DUP2 GT ISZERO PUSH2 0x2286 JUMPI PUSH0 DUP1 REVERT JUMPDEST DUP9 PUSH1 0x20 DUP3 DUP6 ADD ADD GT ISZERO PUSH2 0x2297 JUMPI PUSH0 DUP1 REVERT JUMPDEST SWAP6 SWAP9 SWAP5 SWAP8 POP POP PUSH1 0x20 ADD SWAP5 POP POP POP JUMP JUMPDEST PUSH0 DUP1 PUSH1 0x40 DUP4 DUP6 SUB SLT ISZERO PUSH2 0x22B7 JUMPI PUSH0 DUP1 REVERT JUMPDEST PUSH2 0x22C0 DUP4 PUSH2 0x2139 JUMP JUMPDEST SWAP2 POP PUSH2 0x22CE PUSH1 0x20 DUP5 ADD PUSH2 0x2139 JUMP JUMPDEST SWAP1 POP SWAP3 POP SWAP3 SWAP1 POP JUMP JUMPDEST PUSH1 0x1 DUP2 DUP2 SHR SWAP1 DUP3 AND DUP1 PUSH2 0x22EB JUMPI PUSH1 0x7F DUP3 AND SWAP2 POP JUMPDEST PUSH1 0x20 DUP3 LT DUP2 SUB PUSH2 0x2309 JUMPI PUSH4 0x4E487B71 PUSH1 0xE0 SHL PUSH0 MSTORE PUSH1 0x22 PUSH1 0x4 MSTORE PUSH1 0x24 PUSH0 REVERT JUMPDEST POP SWAP2 SWAP1 POP JUMP JUMPDEST PUSH1 0x20 DUP1 DUP3 MSTORE PUSH1 0xF SWAP1 DUP3 ADD MSTORE PUSH15 0x2737BA1030B71037B832B930BA37B9 PUSH1 0x89 SHL PUSH1 0x40 DUP3 ADD MSTORE PUSH1 0x60 ADD SWAP1 JUMP JUMPDEST PUSH4 0x4E487B71 PUSH1 0xE0 SHL PUSH0 MSTORE PUSH1 0x11 PUSH1 0x4 MSTORE PUSH1 0x24 PUSH0 REVERT JUMPDEST DUP1 DUP3 ADD DUP1 DUP3 GT ISZERO PUSH2 0x65A JUMPI PUSH2 0x65A PUSH2 0x2338 JUMP JUMPDEST DUP1 DUP3 MUL DUP2 ISZERO DUP3 DUP3 DIV DUP5 EQ OR PUSH2 0x65A JUMPI PUSH2 0x65A PUSH2 0x2338 JUMP JUMPDEST PUSH0 DUP3 PUSH2 0x2390 JUMPI PUSH4 0x4E487B71 PUSH1 0xE0 SHL PUSH0 MSTORE PUSH1 0x12 PUSH1 0x4 MSTORE PUSH1 0x24 PUSH0 REVERT JUMPDEST POP DIV SWAP1 JUMP JUMPDEST PUSH1 0x20 DUP1 DUP3 MSTORE PUSH1 0x17 SWAP1 DUP3 ADD MSTORE PUSH32 0x416D6F756E74206D75737420626520706F736974697665000000000000000000 PUSH1 0x40 DUP3 ADD MSTORE PUSH1 0x60 ADD SWAP1 JUMP JUMPDEST DUP2 DUP2 SUB DUP2 DUP2 GT ISZERO PUSH2 0x65A JUMPI PUSH2 0x65A PUSH2 0x2338 JUMP JUMPDEST PUSH0 PUSH1 0x20 DUP3 DUP5 SUB SLT ISZERO PUSH2 0x23EF JUMPI PUSH0 DUP1 REVERT JUMPDEST POP MLOAD SWAP2 SWAP1 POP JUMP JUMPDEST PUSH0 DUP1 PUSH0 PUSH1 0x60 DUP5 DUP7 SUB SLT ISZERO PUSH2 0x2408 JUMPI PUSH0 DUP1 REVERT JUMPDEST DUP4 MLOAD SWAP3 POP PUSH1 0x20 DUP5 ADD MLOAD SWAP2 POP PUSH1 0x40 DUP5 ADD MLOAD SWAP1 POP SWAP3 POP SWAP3 POP SWAP3 JUMP JUMPDEST PUSH4 0x4E487B71 PUSH1 0xE0 SHL PUSH0 MSTORE PUSH1 0x41 PUSH1 0x4 MSTORE PUSH1 0x24 PUSH0 REVERT JUMPDEST PUSH4 0x4E487B71 PUSH1 0xE0 SHL PUSH0 MSTORE PUSH1 0x32 PUSH1 0x4 MSTORE PUSH1 0x24 PUSH0 REVERT JUMPDEST PUSH0 PUSH1 0xA0 DUP3 ADD DUP8 DUP4 MSTORE PUSH1 0x20 DUP8 DUP2 DUP6 ADD MSTORE PUSH1 0xA0 PUSH1 0x40 DUP6 ADD MSTORE DUP2 DUP8 MLOAD DUP1 DUP5 MSTORE PUSH1 0xC0 DUP7 ADD SWAP2 POP DUP3 DUP10 ADD SWAP4 POP PUSH0 JUMPDEST DUP2 DUP2 LT ISZERO PUSH2 0x2497 JUMPI DUP5 MLOAD PUSH1 0x1 PUSH1 0x1 PUSH1 0xA0 SHL SUB AND DUP4 MSTORE SWAP4 DUP4 ADD SWAP4 SWAP2 DUP4 ADD SWAP2 PUSH1 0x1 ADD PUSH2 0x2472 JUMP JUMPDEST POP POP PUSH1 0x1 PUSH1 0x1 PUSH1 0xA0 SHL SUB SWAP7 SWAP1 SWAP7 AND PUSH1 0x60 DUP6 ADD MSTORE POP POP POP PUSH1 0x80 ADD MSTORE SWAP4 SWAP3 POP POP POP JUMP JUMPDEST PUSH0 PUSH1 0x20 DUP1 DUP4 DUP6 SUB SLT ISZERO PUSH2 0x24C9 JUMPI PUSH0 DUP1 REVERT JUMPDEST DUP3 MLOAD PUSH8 0xFFFFFFFFFFFFFFFF DUP1 DUP3 GT ISZERO PUSH2 0x24E0 JUMPI PUSH0 DUP1 REVERT JUMPDEST DUP2 DUP6 ADD SWAP2 POP DUP6 PUSH1 0x1F DUP4 ADD SLT PUSH2 0x24F3 JUMPI PUSH0 DUP1 REVERT JUMPDEST DUP2 MLOAD DUP2 DUP2 GT ISZERO PUSH2 0x2505 JUMPI PUSH2 0x2505 PUSH2 0x2421 JUMP JUMPDEST DUP1 PUSH1 0x5 SHL PUSH1 0x40 MLOAD PUSH1 0x1F NOT PUSH1 0x3F DUP4 ADD AND DUP2 ADD DUP2 DUP2 LT DUP6 DUP3 GT OR ISZERO PUSH2 0x252A JUMPI PUSH2 0x252A PUSH2 0x2421 JUMP JUMPDEST PUSH1 0x40 MSTORE SWAP2 DUP3 MSTORE DUP5 DUP3 ADD SWAP3 POP DUP4 DUP2 ADD DUP6 ADD SWAP2 DUP9 DUP4 GT ISZERO PUSH2 0x2547 JUMPI PUSH0 DUP1 REVERT JUMPDEST SWAP4 DUP6 ADD SWAP4 JUMPDEST DUP3 DUP6 LT ISZERO PUSH2 0x2565 JUMPI DUP5 MLOAD DUP5 MSTORE SWAP4 DUP6 ADD SWAP4 SWAP3 DUP6 ADD SWAP3 PUSH2 0x254C JUMP JUMPDEST SWAP9 SWAP8 POP POP POP POP POP POP POP POP JUMP JUMPDEST DUP5 DUP2 MSTORE DUP4 PUSH1 0x20 DUP3 ADD MSTORE PUSH1 0x60 PUSH1 0x40 DUP3 ADD MSTORE DUP2 PUSH1 0x60 DUP3 ADD MSTORE DUP2 DUP4 PUSH1 0x80 DUP4 ADD CALLDATACOPY PUSH0 DUP2 DUP4 ADD PUSH1 0x80 SWAP1 DUP2 ADD SWAP2 SWAP1 SWAP2 MSTORE PUSH1 0x1F SWAP1 SWAP3 ADD PUSH1 0x1F NOT AND ADD ADD SWAP4 SWAP3 POP POP POP JUMP JUMPDEST PUSH0 DUP1 PUSH1 0x40 DUP4 DUP6 SUB SLT ISZERO PUSH2 0x25BE JUMPI PUSH0 DUP1 REVERT JUMPDEST POP POP DUP1 MLOAD PUSH1 0x20 SWAP1 SWAP2 ADD MLOAD SWAP1 SWAP3 SWAP1 SWAP2 POP JUMP INVALID LOG2 PUSH5 0x6970667358 0x22 SLT KECCAK256 0x27 0xC4 CALL CALLDATALOAD SWAP14 0xC3 CREATE SWAP2 0xD7 0x21 GASPRICE 0xAF BASEFEE PUSH14 0x87EC815A530F091A4B1BFC4D3CA5 PUSH3 0x8178D0 PUSH5 0x736F6C6343 STOP ADDMOD EQ STOP CALLER "},"methodIdentifiers":{"addOperator(address)":"9870d7fe","allowance(address,address)":"dd62ed3e","approve(address,uint256)":"095ea7b3","balanceOf(address)":"70a08231","burn(uint256)":"42966c68","burnFrom(address,uint256)":"79cc6790","burnShXRP(uint256)":"39129162","calculateShXRPAmount(uint256)":"1358bc82","calculateXRPAmount(uint256)":"f734bd6e","claimAndCompound()":"9b1650e3","decimals()":"313ce567","depositFXRP(uint256)":"326bf23f","distributeRewards(uint256)":"59974e38","exchangeRate()":"3ba0b9a9","fxrpToken()":"6e131a7c","getExchangeRate()":"e6aa216c","lpToken()":"5fcbd285","minDeposit()":"41b3d185","mintShXRP(address,uint256,string)":"a5854a3e","name()":"06fdde03","operators(address)":"13e7c9d8","owner()":"8da5cb5b","removeOperator(address)":"ac8a584a","renounceOwnership()":"715018a6","setLPToken(address)":"6a678a9c","setMinDeposit(uint256)":"8fcc9cfb","setYieldEnabled(bool)":"135986b4","simulateRewards(uint256)":"0cb3abc8","sparkRouter()":"32609af5","stakeInDeFi(uint256,uint256)":"88342673","swapToFXRP(address,uint256)":"9245b228","symbol()":"95d89b41","totalFXRPDeposited()":"346fe52c","totalFXRPInVault()":"d33a5088","totalLPStaked()":"8575837c","totalSupply()":"18160ddd","totalXRPLocked()":"d5fc617e","transfer(address,uint256)":"a9059cbb","transferFrom(address,address,uint256)":"23b872dd","transferOwnership(address)":"f2fde38b","wflrToken()":"fd0a4875","withdrawFromLP(uint256)":"ea27f7de","yieldEnabled()":"c2752e43"}}}}}