{
  "_format": "hh3-artifact-1",
  "contractName": "StakingBoost",
  "sourceName": "contracts/StakingBoost.sol",
  "abi": [
    {
      "inputs": [
        {
          "internalType": "address",
          "name": "_shieldToken",
          "type": "address"
        }
      ],
      "stateMutability": "nonpayable",
      "type": "constructor"
    },
    {
      "inputs": [],
      "name": "ReentrancyGuardReentrantCall",
      "type": "error"
    },
    {
      "inputs": [
        {
          "internalType": "address",
          "name": "token",
          "type": "address"
        }
      ],
      "name": "SafeERC20FailedOperation",
      "type": "error"
    },
    {
      "anonymous": false,
      "inputs": [
        {
          "indexed": true,
          "internalType": "address",
          "name": "user",
          "type": "address"
        },
        {
          "indexed": false,
          "internalType": "uint256",
          "name": "amount",
          "type": "uint256"
        }
      ],
      "name": "Staked",
      "type": "event"
    },
    {
      "anonymous": false,
      "inputs": [
        {
          "indexed": true,
          "internalType": "address",
          "name": "user",
          "type": "address"
        },
        {
          "indexed": false,
          "internalType": "uint256",
          "name": "amount",
          "type": "uint256"
        }
      ],
      "name": "Withdrawn",
      "type": "event"
    },
    {
      "inputs": [],
      "name": "BOOST_PER_TOKENS",
      "outputs": [
        {
          "internalType": "uint256",
          "name": "",
          "type": "uint256"
        }
      ],
      "stateMutability": "view",
      "type": "function"
    },
    {
      "inputs": [],
      "name": "LOCK_PERIOD",
      "outputs": [
        {
          "internalType": "uint256",
          "name": "",
          "type": "uint256"
        }
      ],
      "stateMutability": "view",
      "type": "function"
    },
    {
      "inputs": [
        {
          "internalType": "address",
          "name": "user",
          "type": "address"
        }
      ],
      "name": "getBoost",
      "outputs": [
        {
          "internalType": "uint256",
          "name": "",
          "type": "uint256"
        }
      ],
      "stateMutability": "view",
      "type": "function"
    },
    {
      "inputs": [
        {
          "internalType": "address",
          "name": "user",
          "type": "address"
        }
      ],
      "name": "getStakeInfo",
      "outputs": [
        {
          "internalType": "uint256",
          "name": "amount",
          "type": "uint256"
        },
        {
          "internalType": "uint256",
          "name": "stakedAt",
          "type": "uint256"
        },
        {
          "internalType": "uint256",
          "name": "unlockTime",
          "type": "uint256"
        }
      ],
      "stateMutability": "view",
      "type": "function"
    },
    {
      "inputs": [],
      "name": "shieldToken",
      "outputs": [
        {
          "internalType": "contract IERC20",
          "name": "",
          "type": "address"
        }
      ],
      "stateMutability": "view",
      "type": "function"
    },
    {
      "inputs": [
        {
          "internalType": "uint256",
          "name": "amount",
          "type": "uint256"
        }
      ],
      "name": "stake",
      "outputs": [],
      "stateMutability": "nonpayable",
      "type": "function"
    },
    {
      "inputs": [
        {
          "internalType": "address",
          "name": "",
          "type": "address"
        }
      ],
      "name": "stakes",
      "outputs": [
        {
          "internalType": "uint256",
          "name": "amount",
          "type": "uint256"
        },
        {
          "internalType": "uint256",
          "name": "stakedAt",
          "type": "uint256"
        }
      ],
      "stateMutability": "view",
      "type": "function"
    },
    {
      "inputs": [],
      "name": "totalStaked",
      "outputs": [
        {
          "internalType": "uint256",
          "name": "",
          "type": "uint256"
        }
      ],
      "stateMutability": "view",
      "type": "function"
    },
    {
      "inputs": [
        {
          "internalType": "uint256",
          "name": "amount",
          "type": "uint256"
        }
      ],
      "name": "withdraw",
      "outputs": [],
      "stateMutability": "nonpayable",
      "type": "function"
    }
  ],
  "bytecode": "0x60a060405234801561000f575f80fd5b506040516107bb3803806107bb83398101604081905261002e9161009d565b60015f556001600160a01b03811661008c5760405162461bcd60e51b815260206004820152601560248201527f496e76616c696420746f6b656e20616464726573730000000000000000000000604482015260640160405180910390fd5b6001600160a01b03166080526100ca565b5f602082840312156100ad575f80fd5b81516001600160a01b03811681146100c3575f80fd5b9392505050565b6080516106cb6100f05f395f8181610173015281816102b001526103b401526106cb5ff3fe608060405234801561000f575f80fd5b5060043610610090575f3560e01c8063817b1cd211610063578063817b1cd214610114578063a694fc3a1461011d578063ab53211214610130578063c345315314610140578063ee8ba5c51461016e575f80fd5b806316934fc4146100945780631820cabb146100d45780632e1a7d4d146100ec57806367ba3d9014610101575b5f80fd5b6100ba6100a23660046105e1565b600160208190525f9182526040909120805491015482565b604080519283526020830191909152015b60405180910390f35b6100de62278d0081565b6040519081526020016100cb565b6100ff6100fa36600461060e565b6101ad565b005b6100de61010f3660046105e1565b61031a565b6100de60025481565b6100ff61012b36600461060e565b610357565b6100de68056bc75e2d6310000081565b61015361014e3660046105e1565b610455565b604080519384526020840192909252908201526060016100cb565b6101957f000000000000000000000000000000000000000000000000000000000000000081565b6040516001600160a01b0390911681526020016100cb565b6101b56104aa565b335f908152600160205260409020805482111561020e5760405162461bcd60e51b8152602060048201526012602482015271496e73756666696369656e74207374616b6560701b60448201526064015b60405180910390fd5b62278d0081600101546102219190610639565b4210156102665760405162461bcd60e51b8152602060048201526013602482015272151bdad95b9cc81cdd1a5b1b081b1bd8dad959606a1b6044820152606401610205565b81815f015f828254610278919061064c565b909155505080545f0361028c575f60018201555b8160025f82825461029d919061064c565b909155506102d790506001600160a01b037f00000000000000000000000000000000000000000000000000000000000000001633846104d2565b60405182815233907f7084f5476618d8e60b11ef0d7d3f06914655adb8793e28ff7f018d4c76d505d5906020015b60405180910390a25061031760015f55565b50565b6001600160a01b0381165f908152600160205260408120546103469068056bc75e2d631000009061065f565b61035190606461067e565b92915050565b61035f6104aa565b5f811161039f5760405162461bcd60e51b815260206004820152600e60248201526d043616e6e6f74207374616b6520360941b6044820152606401610205565b335f818152600160205260409020906103e4907f00000000000000000000000000000000000000000000000000000000000000006001600160a01b0316903085610536565b81815f015f8282546103f69190610639565b909155505060018101545f0361040d574260018201555b8160025f82825461041e9190610639565b909155505060405182815233907f9e71bc8eea02a63969f509818f2dafb9254532904319f9dbda79b67bd34a5f3d90602001610305565b6001600160a01b0381165f908152600160208181526040808420815180830190925280548083529301549181018290529192909182610494575f6104a1565b6104a162278d0084610639565b93959294505050565b60025f54036104cc57604051633ee5aeb560e01b815260040160405180910390fd5b60025f55565b6040516001600160a01b0383811660248301526044820183905261053191859182169063a9059cbb906064015b604051602081830303815290604052915060e01b6020820180516001600160e01b038381831617835250505050610575565b505050565b6040516001600160a01b03848116602483015283811660448301526064820183905261056f9186918216906323b872dd906084016104ff565b50505050565b5f8060205f8451602086015f885af180610594576040513d5f823e3d81fd5b50505f513d915081156105ab5780600114156105b8565b6001600160a01b0384163b155b1561056f57604051635274afe760e01b81526001600160a01b0385166004820152602401610205565b5f602082840312156105f1575f80fd5b81356001600160a01b0381168114610607575f80fd5b9392505050565b5f6020828403121561061e575f80fd5b5035919050565b634e487b7160e01b5f52601160045260245ffd5b8082018082111561035157610351610625565b8181038181111561035157610351610625565b5f8261067957634e487b7160e01b5f52601260045260245ffd5b500490565b80820281158282048414176103515761035161062556fea2646970667358221220987707c1dac179abbf245deaac7095bac59382c016b47b018d1878f75c6d2e0664736f6c63430008140033",
  "linkReferences": {},
  "deployedLinkReferences": {},
  "immutableReferences": {
    "8985": [
      {
        "length": 32,
        "start": 371
      },
      {
        "length": 32,
        "start": 688
      },
      {
        "length": 32,
        "start": 948
      }
    ]
  },
  "inputSourceName": "project/contracts/StakingBoost.sol",
  "buildInfoId": "solc-0_8_20-ed548b2f25ea9ee192b1e4a670b2f13b5304a506"
}