{
  "_format": "hh3-artifact-1",
  "contractName": "VaultController",
  "sourceName": "contracts/VaultController.sol",
  "abi": [
    {
      "inputs": [],
      "stateMutability": "nonpayable",
      "type": "constructor"
    },
    {
      "inputs": [],
      "name": "AccessControlBadConfirmation",
      "type": "error"
    },
    {
      "inputs": [
        {
          "internalType": "address",
          "name": "account",
          "type": "address"
        },
        {
          "internalType": "bytes32",
          "name": "neededRole",
          "type": "bytes32"
        }
      ],
      "name": "AccessControlUnauthorizedAccount",
      "type": "error"
    },
    {
      "inputs": [],
      "name": "ReentrancyGuardReentrantCall",
      "type": "error"
    },
    {
      "anonymous": false,
      "inputs": [
        {
          "indexed": true,
          "internalType": "bytes32",
          "name": "requestId",
          "type": "bytes32"
        },
        {
          "indexed": true,
          "internalType": "address",
          "name": "user",
          "type": "address"
        },
        {
          "indexed": false,
          "internalType": "uint256",
          "name": "xrpAmount",
          "type": "uint256"
        }
      ],
      "name": "BridgeRequestCreated",
      "type": "event"
    },
    {
      "anonymous": false,
      "inputs": [
        {
          "indexed": true,
          "internalType": "bytes32",
          "name": "requestId",
          "type": "bytes32"
        },
        {
          "indexed": false,
          "internalType": "enum VaultController.BridgeStatus",
          "name": "newStatus",
          "type": "uint8"
        }
      ],
      "name": "BridgeStatusUpdated",
      "type": "event"
    },
    {
      "anonymous": false,
      "inputs": [
        {
          "indexed": true,
          "internalType": "address",
          "name": "vault",
          "type": "address"
        },
        {
          "indexed": false,
          "internalType": "uint256",
          "name": "yieldAmount",
          "type": "uint256"
        }
      ],
      "name": "CompoundExecuted",
      "type": "event"
    },
    {
      "anonymous": false,
      "inputs": [
        {
          "indexed": true,
          "internalType": "address",
          "name": "operator",
          "type": "address"
        }
      ],
      "name": "OperatorAdded",
      "type": "event"
    },
    {
      "anonymous": false,
      "inputs": [
        {
          "indexed": true,
          "internalType": "address",
          "name": "operator",
          "type": "address"
        }
      ],
      "name": "OperatorRemoved",
      "type": "event"
    },
    {
      "anonymous": false,
      "inputs": [
        {
          "indexed": true,
          "internalType": "bytes32",
          "name": "role",
          "type": "bytes32"
        },
        {
          "indexed": true,
          "internalType": "bytes32",
          "name": "previousAdminRole",
          "type": "bytes32"
        },
        {
          "indexed": true,
          "internalType": "bytes32",
          "name": "newAdminRole",
          "type": "bytes32"
        }
      ],
      "name": "RoleAdminChanged",
      "type": "event"
    },
    {
      "anonymous": false,
      "inputs": [
        {
          "indexed": true,
          "internalType": "bytes32",
          "name": "role",
          "type": "bytes32"
        },
        {
          "indexed": true,
          "internalType": "address",
          "name": "account",
          "type": "address"
        },
        {
          "indexed": true,
          "internalType": "address",
          "name": "sender",
          "type": "address"
        }
      ],
      "name": "RoleGranted",
      "type": "event"
    },
    {
      "anonymous": false,
      "inputs": [
        {
          "indexed": true,
          "internalType": "bytes32",
          "name": "role",
          "type": "bytes32"
        },
        {
          "indexed": true,
          "internalType": "address",
          "name": "account",
          "type": "address"
        },
        {
          "indexed": true,
          "internalType": "address",
          "name": "sender",
          "type": "address"
        }
      ],
      "name": "RoleRevoked",
      "type": "event"
    },
    {
      "anonymous": false,
      "inputs": [
        {
          "indexed": true,
          "internalType": "address",
          "name": "vault",
          "type": "address"
        }
      ],
      "name": "VaultDeregistered",
      "type": "event"
    },
    {
      "anonymous": false,
      "inputs": [
        {
          "indexed": true,
          "internalType": "address",
          "name": "vault",
          "type": "address"
        }
      ],
      "name": "VaultRegistered",
      "type": "event"
    },
    {
      "inputs": [],
      "name": "COMPOUNDER_ROLE",
      "outputs": [
        {
          "internalType": "bytes32",
          "name": "",
          "type": "bytes32"
        }
      ],
      "stateMutability": "view",
      "type": "function"
    },
    {
      "inputs": [],
      "name": "DEFAULT_ADMIN_ROLE",
      "outputs": [
        {
          "internalType": "bytes32",
          "name": "",
          "type": "bytes32"
        }
      ],
      "stateMutability": "view",
      "type": "function"
    },
    {
      "inputs": [],
      "name": "OPERATOR_ROLE",
      "outputs": [
        {
          "internalType": "bytes32",
          "name": "",
          "type": "bytes32"
        }
      ],
      "stateMutability": "view",
      "type": "function"
    },
    {
      "inputs": [
        {
          "internalType": "address",
          "name": "compounder",
          "type": "address"
        }
      ],
      "name": "addCompounder",
      "outputs": [],
      "stateMutability": "nonpayable",
      "type": "function"
    },
    {
      "inputs": [
        {
          "internalType": "address",
          "name": "operator",
          "type": "address"
        }
      ],
      "name": "addOperator",
      "outputs": [],
      "stateMutability": "nonpayable",
      "type": "function"
    },
    {
      "inputs": [
        {
          "internalType": "bytes32",
          "name": "",
          "type": "bytes32"
        }
      ],
      "name": "bridgeRequests",
      "outputs": [
        {
          "internalType": "address",
          "name": "user",
          "type": "address"
        },
        {
          "internalType": "address",
          "name": "vault",
          "type": "address"
        },
        {
          "internalType": "uint256",
          "name": "xrpAmount",
          "type": "uint256"
        },
        {
          "internalType": "uint256",
          "name": "fxrpExpected",
          "type": "uint256"
        },
        {
          "internalType": "uint256",
          "name": "timestamp",
          "type": "uint256"
        },
        {
          "internalType": "enum VaultController.BridgeStatus",
          "name": "status",
          "type": "uint8"
        },
        {
          "internalType": "string",
          "name": "xrplTxHash",
          "type": "string"
        },
        {
          "internalType": "string",
          "name": "flareTxHash",
          "type": "string"
        }
      ],
      "stateMutability": "view",
      "type": "function"
    },
    {
      "inputs": [
        {
          "internalType": "address",
          "name": "user",
          "type": "address"
        },
        {
          "internalType": "address",
          "name": "vault",
          "type": "address"
        },
        {
          "internalType": "uint256",
          "name": "xrpAmount",
          "type": "uint256"
        },
        {
          "internalType": "string",
          "name": "xrplTxHash",
          "type": "string"
        }
      ],
      "name": "createBridgeRequest",
      "outputs": [
        {
          "internalType": "bytes32",
          "name": "",
          "type": "bytes32"
        }
      ],
      "stateMutability": "nonpayable",
      "type": "function"
    },
    {
      "inputs": [
        {
          "internalType": "address",
          "name": "vault",
          "type": "address"
        }
      ],
      "name": "deregisterVault",
      "outputs": [],
      "stateMutability": "nonpayable",
      "type": "function"
    },
    {
      "inputs": [
        {
          "internalType": "address",
          "name": "vault",
          "type": "address"
        }
      ],
      "name": "executeCompound",
      "outputs": [],
      "stateMutability": "nonpayable",
      "type": "function"
    },
    {
      "inputs": [
        {
          "internalType": "bytes32",
          "name": "requestId",
          "type": "bytes32"
        }
      ],
      "name": "getBridgeRequest",
      "outputs": [
        {
          "components": [
            {
              "internalType": "address",
              "name": "user",
              "type": "address"
            },
            {
              "internalType": "address",
              "name": "vault",
              "type": "address"
            },
            {
              "internalType": "uint256",
              "name": "xrpAmount",
              "type": "uint256"
            },
            {
              "internalType": "uint256",
              "name": "fxrpExpected",
              "type": "uint256"
            },
            {
              "internalType": "uint256",
              "name": "timestamp",
              "type": "uint256"
            },
            {
              "internalType": "enum VaultController.BridgeStatus",
              "name": "status",
              "type": "uint8"
            },
            {
              "internalType": "string",
              "name": "xrplTxHash",
              "type": "string"
            },
            {
              "internalType": "string",
              "name": "flareTxHash",
              "type": "string"
            }
          ],
          "internalType": "struct VaultController.BridgeRequest",
          "name": "",
          "type": "tuple"
        }
      ],
      "stateMutability": "view",
      "type": "function"
    },
    {
      "inputs": [
        {
          "internalType": "bytes32",
          "name": "role",
          "type": "bytes32"
        }
      ],
      "name": "getRoleAdmin",
      "outputs": [
        {
          "internalType": "bytes32",
          "name": "",
          "type": "bytes32"
        }
      ],
      "stateMutability": "view",
      "type": "function"
    },
    {
      "inputs": [],
      "name": "getVaultCount",
      "outputs": [
        {
          "internalType": "uint256",
          "name": "",
          "type": "uint256"
        }
      ],
      "stateMutability": "view",
      "type": "function"
    },
    {
      "inputs": [
        {
          "internalType": "bytes32",
          "name": "role",
          "type": "bytes32"
        },
        {
          "internalType": "address",
          "name": "account",
          "type": "address"
        }
      ],
      "name": "grantRole",
      "outputs": [],
      "stateMutability": "nonpayable",
      "type": "function"
    },
    {
      "inputs": [
        {
          "internalType": "bytes32",
          "name": "role",
          "type": "bytes32"
        },
        {
          "internalType": "address",
          "name": "account",
          "type": "address"
        }
      ],
      "name": "hasRole",
      "outputs": [
        {
          "internalType": "bool",
          "name": "",
          "type": "bool"
        }
      ],
      "stateMutability": "view",
      "type": "function"
    },
    {
      "inputs": [
        {
          "internalType": "address",
          "name": "",
          "type": "address"
        }
      ],
      "name": "lastCompoundTime",
      "outputs": [
        {
          "internalType": "uint256",
          "name": "",
          "type": "uint256"
        }
      ],
      "stateMutability": "view",
      "type": "function"
    },
    {
      "inputs": [],
      "name": "minCompoundInterval",
      "outputs": [
        {
          "internalType": "uint256",
          "name": "",
          "type": "uint256"
        }
      ],
      "stateMutability": "view",
      "type": "function"
    },
    {
      "inputs": [
        {
          "internalType": "address",
          "name": "vault",
          "type": "address"
        }
      ],
      "name": "registerVault",
      "outputs": [],
      "stateMutability": "nonpayable",
      "type": "function"
    },
    {
      "inputs": [
        {
          "internalType": "address",
          "name": "",
          "type": "address"
        }
      ],
      "name": "registeredVaults",
      "outputs": [
        {
          "internalType": "bool",
          "name": "",
          "type": "bool"
        }
      ],
      "stateMutability": "view",
      "type": "function"
    },
    {
      "inputs": [
        {
          "internalType": "address",
          "name": "compounder",
          "type": "address"
        }
      ],
      "name": "removeCompounder",
      "outputs": [],
      "stateMutability": "nonpayable",
      "type": "function"
    },
    {
      "inputs": [
        {
          "internalType": "address",
          "name": "operator",
          "type": "address"
        }
      ],
      "name": "removeOperator",
      "outputs": [],
      "stateMutability": "nonpayable",
      "type": "function"
    },
    {
      "inputs": [
        {
          "internalType": "bytes32",
          "name": "role",
          "type": "bytes32"
        },
        {
          "internalType": "address",
          "name": "callerConfirmation",
          "type": "address"
        }
      ],
      "name": "renounceRole",
      "outputs": [],
      "stateMutability": "nonpayable",
      "type": "function"
    },
    {
      "inputs": [
        {
          "internalType": "bytes32",
          "name": "role",
          "type": "bytes32"
        },
        {
          "internalType": "address",
          "name": "account",
          "type": "address"
        }
      ],
      "name": "revokeRole",
      "outputs": [],
      "stateMutability": "nonpayable",
      "type": "function"
    },
    {
      "inputs": [
        {
          "internalType": "uint256",
          "name": "interval",
          "type": "uint256"
        }
      ],
      "name": "setMinCompoundInterval",
      "outputs": [],
      "stateMutability": "nonpayable",
      "type": "function"
    },
    {
      "inputs": [
        {
          "internalType": "bytes4",
          "name": "interfaceId",
          "type": "bytes4"
        }
      ],
      "name": "supportsInterface",
      "outputs": [
        {
          "internalType": "bool",
          "name": "",
          "type": "bool"
        }
      ],
      "stateMutability": "view",
      "type": "function"
    },
    {
      "inputs": [
        {
          "internalType": "bytes32",
          "name": "requestId",
          "type": "bytes32"
        },
        {
          "internalType": "enum VaultController.BridgeStatus",
          "name": "newStatus",
          "type": "uint8"
        },
        {
          "internalType": "string",
          "name": "flareTxHash",
          "type": "string"
        }
      ],
      "name": "updateBridgeStatus",
      "outputs": [],
      "stateMutability": "nonpayable",
      "type": "function"
    },
    {
      "inputs": [
        {
          "internalType": "uint256",
          "name": "",
          "type": "uint256"
        }
      ],
      "name": "vaultList",
      "outputs": [
        {
          "internalType": "address",
          "name": "",
          "type": "address"
        }
      ],
      "stateMutability": "view",
      "type": "function"
    }
  ],
  "bytecode": "0x6080604052610e1060045534801562000016575f80fd5b5060018055620000275f3362000088565b50620000547f97667070c54ef182b0f5858b034beac1b6f3089aa2d3188bb1e8929f4fa9b9293362000088565b50620000817f29944e936a0f6e1cbaa227df218d7d6025c2a2785db840e42a3425f24e9e68ac3362000088565b5062000134565b5f828152602081815260408083206001600160a01b038516845290915281205460ff166200012b575f838152602081815260408083206001600160a01b03861684529091529020805460ff19166001179055620000e23390565b6001600160a01b0316826001600160a01b0316847f2f8788117e7eff1d82e926ec794901d17c78024a50270940304540a733656f0d60405160405180910390a45060016200012e565b505f5b92915050565b61168c80620001425f395ff3fe608060405234801561000f575f80fd5b5060043610610187575f3560e01c806374d4e491116100d9578063ac8a584a11610093578063d547741f1161006e578063d547741f14610386578063e0b625f514610399578063ef0f0ec3146103ac578063f5b541a6146103ce575f80fd5b8063ac8a584a14610340578063cfd8b49214610353578063d4b5bbc814610366575f80fd5b806374d4e491146102ef57806384824d76146102f757806391d148541461030a5780639870d7fe1461031d578063a217fddf14610330578063aa121dcb14610337575f80fd5b806338e270ed1161014457806367ccd1cb1161011f57806367ccd1cb146102a2578063684cb274146102b557806370ae305b146102c9578063738d2e89146102dc575f80fd5b806338e270ed14610255578063530409601461026857806360b414111461027b575f80fd5b806301ffc9a71461018b578063248a9ca3146101b3578063277d3d54146101e35780632d8efbc5146102025780632f2ff15d1461022d57806336568abe14610242575b5f80fd5b61019e6101993660046110a3565b6103e2565b60405190151581526020015b60405180910390f35b6101d56101c13660046110d1565b5f9081526020819052604090206001015490565b6040519081526020016101aa565b6101d56101f1366004611103565b60056020525f908152604090205481565b6102156102103660046110d1565b610418565b6040516001600160a01b0390911681526020016101aa565b61024061023b36600461111c565b610440565b005b61024061025036600461111c565b61046a565b610240610263366004611103565b6104a2565b6102406102763660046110d1565b610558565b61028e6102893660046110d1565b610568565b6040516101aa9897969594939291906111bd565b6102406102b0366004611103565b6106cb565b6101d55f8051602061163783398151915281565b6102406102d7366004611103565b6107c9565b6102406102ea366004611103565b6107ee565b6003546101d5565b6101d5610305366004611271565b61080f565b61019e61031836600461111c565b610a1a565b61024061032b366004611103565b610a42565b6101d55f81565b6101d560045481565b61024061034e366004611103565b610a9a565b6102406103613660046112db565b610af2565b6103796103743660046110d1565b610bd8565b6040516101aa9190611336565b61024061039436600461111c565b610dd1565b6102406103a7366004611103565b610df5565b61019e6103ba366004611103565b60026020525f908152604090205460ff1681565b6101d55f8051602061161783398151915281565b5f6001600160e01b03198216637965db0b60e01b148061041257506301ffc9a760e01b6001600160e01b03198316145b92915050565b60038181548110610427575f80fd5b5f918252602090912001546001600160a01b0316905081565b5f8281526020819052604090206001015461045a81610f3b565b6104648383610f48565b50505050565b6001600160a01b03811633146104935760405163334bd91960e11b815260040160405180910390fd5b61049d8282610fd7565b505050565b5f6104ac81610f3b565b6001600160a01b0382165f9081526002602052604090205460ff1661050f5760405162461bcd60e51b815260206004820152601460248201527315985d5b1d081b9bdd081c9959da5cdd195c995960621b60448201526064015b60405180910390fd5b6001600160a01b0382165f81815260026020526040808220805460ff19169055517ff8769b01493238f5c26a42a7b690cb1ff2b53a7d89d9a57e6332458703db8b049190a25050565b5f61056281610f3b565b50600455565b600660208190525f918252604090912080546001820154600283015460038401546004850154600586015496860180546001600160a01b0396871698959096169693959294919360ff909216926105be906113d8565b80601f01602080910402602001604051908101604052809291908181526020018280546105ea906113d8565b80156106355780601f1061060c57610100808354040283529160200191610635565b820191905f5260205f20905b81548152906001019060200180831161061857829003601f168201915b50505050509080600701805461064a906113d8565b80601f0160208091040260200160405190810160405280929190818152602001828054610676906113d8565b80156106c15780601f10610698576101008083540402835291602001916106c1565b820191905f5260205f20905b8154815290600101906020018083116106a457829003601f168201915b5050505050905088565b5f6106d581610f3b565b6001600160a01b0382165f9081526002602052604090205460ff161561073d5760405162461bcd60e51b815260206004820152601860248201527f5661756c7420616c7265616479207265676973746572656400000000000000006044820152606401610506565b6001600160a01b0382165f81815260026020526040808220805460ff1916600190811790915560038054918201815583527fc2575a0e9e593c00f959f8c92f12db2869c3395a3b0502d05e2516446f71f85b0180546001600160a01b03191684179055517f8e0930709528779f1112249aac8fcca15dbb9c595db31092c7bc7f954b5679339190a25050565b5f6107d381610f3b565b6107ea5f8051602061163783398151915283610dd1565b5050565b5f6107f881610f3b565b6107ea5f8051602061163783398151915283610440565b5f5f8051602061161783398151915261082781610f3b565b6040516bffffffffffffffffffffffff19606089811b8216602084015288901b166034820152604881018690524260688201525f90608801604051602081830303815290604052805190602001209050604051806101000160405280896001600160a01b03168152602001886001600160a01b031681526020018781526020018781526020014281526020015f60068111156108c5576108c5611146565b815260200186868080601f0160208091040260200160405190810160405280939291908181526020018383808284375f9201829052509385525050604080516020818101835284825294850152858352600680855292819020855181546001600160a01b039182166001600160a01b031991821617835595870151600180840180549290931691909716179055908501516002820155606085015160038201556080850151600482015560a08501516005820180549295919490935060ff1990921691849081111561099957610999611146565b021790555060c082015160068201906109b29082611471565b5060e082015160078201906109c79082611471565b50905050876001600160a01b0316817f1f0060bef00d471c887f1108b9bded19641191671c6b6dc19eb8103bce17f6fa88604051610a0791815260200190565b60405180910390a3979650505050505050565b5f918252602082815260408084206001600160a01b0393909316845291905290205460ff1690565b5f610a4c81610f3b565b610a635f8051602061161783398151915283610440565b6040516001600160a01b038316907fac6fa858e9350a46cec16539926e0fde25b7629f84b5a72bffaae4df888ae86d905f90a25050565b5f610aa481610f3b565b610abb5f8051602061161783398151915283610dd1565b6040516001600160a01b038316907f80c0b871b97b595b16a7741c1b06fed0c6f6f558639f18ccbce50724325dc40d905f90a25050565b5f80516020611617833981519152610b0981610f3b565b5f8581526006602052604090206004810154610b5b5760405162461bcd60e51b815260206004820152601160248201527014995c5d595cdd081b9bdd08199bdd5b99607a1b6044820152606401610506565b60058101805486919060ff19166001836006811115610b7c57610b7c611146565b02179055508215610b985760078101610b9684868361152d565b505b857f97ed9d84b17cab14ff4200e765d9126d7274000fa00bbbac0621925331bc4abf86604051610bc891906115e9565b60405180910390a2505050505050565b610c1f60408051610100810182525f8082526020820181905291810182905260608101829052608081018290529060a0820190815260200160608152602001606081525090565b5f8281526006602081815260409283902083516101008101855281546001600160a01b039081168252600183015416928101929092526002810154938201939093526003830154606082015260048301546080820152600583015490929160a084019160ff1690811115610c9557610c95611146565b6006811115610ca657610ca6611146565b8152602001600682018054610cba906113d8565b80601f0160208091040260200160405190810160405280929190818152602001828054610ce6906113d8565b8015610d315780601f10610d0857610100808354040283529160200191610d31565b820191905f5260205f20905b815481529060010190602001808311610d1457829003601f168201915b50505050508152602001600782018054610d4a906113d8565b80601f0160208091040260200160405190810160405280929190818152602001828054610d76906113d8565b8015610dc15780601f10610d9857610100808354040283529160200191610dc1565b820191905f5260205f20905b815481529060010190602001808311610da457829003601f168201915b5050505050815250509050919050565b5f82815260208190526040902060010154610deb81610f3b565b6104648383610fd7565b5f80516020611637833981519152610e0c81610f3b565b610e14611040565b6001600160a01b0382165f9081526002602052604090205460ff16610e725760405162461bcd60e51b815260206004820152601460248201527315985d5b1d081b9bdd081c9959da5cdd195c995960621b6044820152606401610506565b6004546001600160a01b0383165f90815260056020526040902054610e9791906115f7565b421015610ee65760405162461bcd60e51b815260206004820152601d60248201527f436f6d706f756e6420696e74657276616c206e6f7420726561636865640000006044820152606401610506565b6001600160a01b0382165f818152600560209081526040808320429055519182527fca542b171f04023bc049135ad0197f67f934173e08a75e9a19fd920097428baf910160405180910390a26107ea60018055565b610f45813361106a565b50565b5f610f538383610a1a565b610fd0575f838152602081815260408083206001600160a01b03861684529091529020805460ff19166001179055610f883390565b6001600160a01b0316826001600160a01b0316847f2f8788117e7eff1d82e926ec794901d17c78024a50270940304540a733656f0d60405160405180910390a4506001610412565b505f610412565b5f610fe28383610a1a565b15610fd0575f838152602081815260408083206001600160a01b0386168085529252808320805460ff1916905551339286917ff6391f5c32d9c69d2a47ea670b442974b53935d1edc7fd64eb21e047a839171b9190a4506001610412565b60026001540361106357604051633ee5aeb560e01b815260040160405180910390fd5b6002600155565b6110748282610a1a565b6107ea5760405163e2517d3f60e01b81526001600160a01b038216600482015260248101839052604401610506565b5f602082840312156110b3575f80fd5b81356001600160e01b0319811681146110ca575f80fd5b9392505050565b5f602082840312156110e1575f80fd5b5035919050565b80356001600160a01b03811681146110fe575f80fd5b919050565b5f60208284031215611113575f80fd5b6110ca826110e8565b5f806040838503121561112d575f80fd5b8235915061113d602084016110e8565b90509250929050565b634e487b7160e01b5f52602160045260245ffd5b6007811061117657634e487b7160e01b5f52602160045260245ffd5b9052565b5f81518084525f5b8181101561119e57602081850181015186830182015201611182565b505f602082860101526020601f19601f83011685010191505092915050565b6001600160a01b038981168252881660208201526040810187905260608101869052608081018590525f6101006111f760a084018761115a565b8060c08401526112098184018661117a565b905082810360e084015261121d818561117a565b9b9a5050505050505050505050565b5f8083601f84011261123c575f80fd5b50813567ffffffffffffffff811115611253575f80fd5b60208301915083602082850101111561126a575f80fd5b9250929050565b5f805f805f60808688031215611285575f80fd5b61128e866110e8565b945061129c602087016110e8565b935060408601359250606086013567ffffffffffffffff8111156112be575f80fd5b6112ca8882890161122c565b969995985093965092949392505050565b5f805f80606085870312156112ee575f80fd5b84359350602085013560078110611303575f80fd5b9250604085013567ffffffffffffffff81111561131e575f80fd5b61132a8782880161122c565b95989497509550505050565b602080825282516001600160a01b0316828201528201515f9061136460408401826001600160a01b03169052565b506040830151606083015260608301516080830152608083015160a083015260a083015161139560c084018261115a565b5060c08301516101008060e08501526113b261012085018361117a565b915060e0850151601f1985840301828601526113ce838261117a565b9695505050505050565b600181811c908216806113ec57607f821691505b60208210810361140a57634e487b7160e01b5f52602260045260245ffd5b50919050565b634e487b7160e01b5f52604160045260245ffd5b601f82111561049d575f81815260208120601f850160051c8101602086101561144a5750805b601f850160051c820191505b8181101561146957828155600101611456565b505050505050565b815167ffffffffffffffff81111561148b5761148b611410565b61149f8161149984546113d8565b84611424565b602080601f8311600181146114d2575f84156114bb5750858301515b5f19600386901b1c1916600185901b178555611469565b5f85815260208120601f198616915b82811015611500578886015182559484019460019091019084016114e1565b508582101561151d57878501515f19600388901b60f8161c191681555b5050505050600190811b01905550565b67ffffffffffffffff83111561154557611545611410565b6115598361155383546113d8565b83611424565b5f601f84116001811461158a575f85156115735750838201355b5f19600387901b1c1916600186901b1783556115e2565b5f83815260209020601f19861690835b828110156115ba578685013582556020948501946001909201910161159a565b50868210156115d6575f1960f88860031b161c19848701351681555b505060018560011b0183555b5050505050565b60208101610412828461115a565b8082018082111561041257634e487b7160e01b5f52601160045260245ffdfe97667070c54ef182b0f5858b034beac1b6f3089aa2d3188bb1e8929f4fa9b92929944e936a0f6e1cbaa227df218d7d6025c2a2785db840e42a3425f24e9e68aca2646970667358221220c5b1a860f3907e28aa8fc7b1e68da49465a3ce2d46279ccc1616f0e12e30852364736f6c63430008140033",
  "linkReferences": {},
  "deployedLinkReferences": {},
  "immutableReferences": {},
  "inputSourceName": "project/contracts/VaultController.sol",
  "buildInfoId": "solc-0_8_20-26f1b69c124958ff16329cda09de31ff54a70822"
}