{
  "_format": "hh3-artifact-1",
  "contractName": "StXRPVault",
  "sourceName": "contracts/StXRPVault.sol",
  "abi": [
    {
      "inputs": [],
      "stateMutability": "nonpayable",
      "type": "constructor"
    },
    {
      "inputs": [
        {
          "internalType": "address",
          "name": "spender",
          "type": "address"
        },
        {
          "internalType": "uint256",
          "name": "allowance",
          "type": "uint256"
        },
        {
          "internalType": "uint256",
          "name": "needed",
          "type": "uint256"
        }
      ],
      "name": "ERC20InsufficientAllowance",
      "type": "error"
    },
    {
      "inputs": [
        {
          "internalType": "address",
          "name": "sender",
          "type": "address"
        },
        {
          "internalType": "uint256",
          "name": "balance",
          "type": "uint256"
        },
        {
          "internalType": "uint256",
          "name": "needed",
          "type": "uint256"
        }
      ],
      "name": "ERC20InsufficientBalance",
      "type": "error"
    },
    {
      "inputs": [
        {
          "internalType": "address",
          "name": "approver",
          "type": "address"
        }
      ],
      "name": "ERC20InvalidApprover",
      "type": "error"
    },
    {
      "inputs": [
        {
          "internalType": "address",
          "name": "receiver",
          "type": "address"
        }
      ],
      "name": "ERC20InvalidReceiver",
      "type": "error"
    },
    {
      "inputs": [
        {
          "internalType": "address",
          "name": "sender",
          "type": "address"
        }
      ],
      "name": "ERC20InvalidSender",
      "type": "error"
    },
    {
      "inputs": [
        {
          "internalType": "address",
          "name": "spender",
          "type": "address"
        }
      ],
      "name": "ERC20InvalidSpender",
      "type": "error"
    },
    {
      "inputs": [
        {
          "internalType": "address",
          "name": "owner",
          "type": "address"
        }
      ],
      "name": "OwnableInvalidOwner",
      "type": "error"
    },
    {
      "inputs": [
        {
          "internalType": "address",
          "name": "account",
          "type": "address"
        }
      ],
      "name": "OwnableUnauthorizedAccount",
      "type": "error"
    },
    {
      "inputs": [],
      "name": "ReentrancyGuardReentrantCall",
      "type": "error"
    },
    {
      "anonymous": false,
      "inputs": [
        {
          "indexed": true,
          "internalType": "address",
          "name": "owner",
          "type": "address"
        },
        {
          "indexed": true,
          "internalType": "address",
          "name": "spender",
          "type": "address"
        },
        {
          "indexed": false,
          "internalType": "uint256",
          "name": "value",
          "type": "uint256"
        }
      ],
      "name": "Approval",
      "type": "event"
    },
    {
      "anonymous": false,
      "inputs": [
        {
          "indexed": false,
          "internalType": "uint256",
          "name": "newRate",
          "type": "uint256"
        }
      ],
      "name": "ExchangeRateUpdated",
      "type": "event"
    },
    {
      "anonymous": false,
      "inputs": [
        {
          "indexed": false,
          "internalType": "uint256",
          "name": "newMinDeposit",
          "type": "uint256"
        }
      ],
      "name": "MinDepositUpdated",
      "type": "event"
    },
    {
      "anonymous": false,
      "inputs": [
        {
          "indexed": true,
          "internalType": "address",
          "name": "operator",
          "type": "address"
        }
      ],
      "name": "OperatorAdded",
      "type": "event"
    },
    {
      "anonymous": false,
      "inputs": [
        {
          "indexed": true,
          "internalType": "address",
          "name": "operator",
          "type": "address"
        }
      ],
      "name": "OperatorRemoved",
      "type": "event"
    },
    {
      "anonymous": false,
      "inputs": [
        {
          "indexed": true,
          "internalType": "address",
          "name": "previousOwner",
          "type": "address"
        },
        {
          "indexed": true,
          "internalType": "address",
          "name": "newOwner",
          "type": "address"
        }
      ],
      "name": "OwnershipTransferred",
      "type": "event"
    },
    {
      "anonymous": false,
      "inputs": [
        {
          "indexed": false,
          "internalType": "uint256",
          "name": "rewardAmount",
          "type": "uint256"
        },
        {
          "indexed": false,
          "internalType": "uint256",
          "name": "newExchangeRate",
          "type": "uint256"
        }
      ],
      "name": "RewardsDistributed",
      "type": "event"
    },
    {
      "anonymous": false,
      "inputs": [
        {
          "indexed": true,
          "internalType": "address",
          "name": "user",
          "type": "address"
        },
        {
          "indexed": false,
          "internalType": "uint256",
          "name": "shXRPAmount",
          "type": "uint256"
        },
        {
          "indexed": false,
          "internalType": "uint256",
          "name": "xrpAmount",
          "type": "uint256"
        }
      ],
      "name": "ShXRPBurned",
      "type": "event"
    },
    {
      "anonymous": false,
      "inputs": [
        {
          "indexed": true,
          "internalType": "address",
          "name": "user",
          "type": "address"
        },
        {
          "indexed": false,
          "internalType": "uint256",
          "name": "xrpAmount",
          "type": "uint256"
        },
        {
          "indexed": false,
          "internalType": "uint256",
          "name": "shXRPAmount",
          "type": "uint256"
        },
        {
          "indexed": false,
          "internalType": "string",
          "name": "xrplTxHash",
          "type": "string"
        }
      ],
      "name": "ShXRPMinted",
      "type": "event"
    },
    {
      "anonymous": false,
      "inputs": [
        {
          "indexed": true,
          "internalType": "address",
          "name": "from",
          "type": "address"
        },
        {
          "indexed": true,
          "internalType": "address",
          "name": "to",
          "type": "address"
        },
        {
          "indexed": false,
          "internalType": "uint256",
          "name": "value",
          "type": "uint256"
        }
      ],
      "name": "Transfer",
      "type": "event"
    },
    {
      "inputs": [
        {
          "internalType": "address",
          "name": "operator",
          "type": "address"
        }
      ],
      "name": "addOperator",
      "outputs": [],
      "stateMutability": "nonpayable",
      "type": "function"
    },
    {
      "inputs": [
        {
          "internalType": "address",
          "name": "owner",
          "type": "address"
        },
        {
          "internalType": "address",
          "name": "spender",
          "type": "address"
        }
      ],
      "name": "allowance",
      "outputs": [
        {
          "internalType": "uint256",
          "name": "",
          "type": "uint256"
        }
      ],
      "stateMutability": "view",
      "type": "function"
    },
    {
      "inputs": [
        {
          "internalType": "address",
          "name": "spender",
          "type": "address"
        },
        {
          "internalType": "uint256",
          "name": "value",
          "type": "uint256"
        }
      ],
      "name": "approve",
      "outputs": [
        {
          "internalType": "bool",
          "name": "",
          "type": "bool"
        }
      ],
      "stateMutability": "nonpayable",
      "type": "function"
    },
    {
      "inputs": [
        {
          "internalType": "address",
          "name": "account",
          "type": "address"
        }
      ],
      "name": "balanceOf",
      "outputs": [
        {
          "internalType": "uint256",
          "name": "",
          "type": "uint256"
        }
      ],
      "stateMutability": "view",
      "type": "function"
    },
    {
      "inputs": [
        {
          "internalType": "uint256",
          "name": "value",
          "type": "uint256"
        }
      ],
      "name": "burn",
      "outputs": [],
      "stateMutability": "nonpayable",
      "type": "function"
    },
    {
      "inputs": [
        {
          "internalType": "address",
          "name": "account",
          "type": "address"
        },
        {
          "internalType": "uint256",
          "name": "value",
          "type": "uint256"
        }
      ],
      "name": "burnFrom",
      "outputs": [],
      "stateMutability": "nonpayable",
      "type": "function"
    },
    {
      "inputs": [
        {
          "internalType": "uint256",
          "name": "shXRPAmount",
          "type": "uint256"
        }
      ],
      "name": "burnShXRP",
      "outputs": [
        {
          "internalType": "uint256",
          "name": "xrpAmount",
          "type": "uint256"
        }
      ],
      "stateMutability": "nonpayable",
      "type": "function"
    },
    {
      "inputs": [
        {
          "internalType": "uint256",
          "name": "xrpAmount",
          "type": "uint256"
        }
      ],
      "name": "calculateShXRPAmount",
      "outputs": [
        {
          "internalType": "uint256",
          "name": "",
          "type": "uint256"
        }
      ],
      "stateMutability": "view",
      "type": "function"
    },
    {
      "inputs": [
        {
          "internalType": "uint256",
          "name": "shXRPAmount",
          "type": "uint256"
        }
      ],
      "name": "calculateXRPAmount",
      "outputs": [
        {
          "internalType": "uint256",
          "name": "",
          "type": "uint256"
        }
      ],
      "stateMutability": "view",
      "type": "function"
    },
    {
      "inputs": [],
      "name": "decimals",
      "outputs": [
        {
          "internalType": "uint8",
          "name": "",
          "type": "uint8"
        }
      ],
      "stateMutability": "pure",
      "type": "function"
    },
    {
      "inputs": [
        {
          "internalType": "uint256",
          "name": "rewardAmount",
          "type": "uint256"
        }
      ],
      "name": "distributeRewards",
      "outputs": [],
      "stateMutability": "nonpayable",
      "type": "function"
    },
    {
      "inputs": [],
      "name": "exchangeRate",
      "outputs": [
        {
          "internalType": "uint256",
          "name": "",
          "type": "uint256"
        }
      ],
      "stateMutability": "view",
      "type": "function"
    },
    {
      "inputs": [],
      "name": "getExchangeRate",
      "outputs": [
        {
          "internalType": "uint256",
          "name": "",
          "type": "uint256"
        }
      ],
      "stateMutability": "view",
      "type": "function"
    },
    {
      "inputs": [],
      "name": "minDeposit",
      "outputs": [
        {
          "internalType": "uint256",
          "name": "",
          "type": "uint256"
        }
      ],
      "stateMutability": "view",
      "type": "function"
    },
    {
      "inputs": [
        {
          "internalType": "address",
          "name": "user",
          "type": "address"
        },
        {
          "internalType": "uint256",
          "name": "xrpAmount",
          "type": "uint256"
        },
        {
          "internalType": "string",
          "name": "xrplTxHash",
          "type": "string"
        }
      ],
      "name": "mintShXRP",
      "outputs": [],
      "stateMutability": "nonpayable",
      "type": "function"
    },
    {
      "inputs": [],
      "name": "name",
      "outputs": [
        {
          "internalType": "string",
          "name": "",
          "type": "string"
        }
      ],
      "stateMutability": "view",
      "type": "function"
    },
    {
      "inputs": [
        {
          "internalType": "address",
          "name": "",
          "type": "address"
        }
      ],
      "name": "operators",
      "outputs": [
        {
          "internalType": "bool",
          "name": "",
          "type": "bool"
        }
      ],
      "stateMutability": "view",
      "type": "function"
    },
    {
      "inputs": [],
      "name": "owner",
      "outputs": [
        {
          "internalType": "address",
          "name": "",
          "type": "address"
        }
      ],
      "stateMutability": "view",
      "type": "function"
    },
    {
      "inputs": [
        {
          "internalType": "address",
          "name": "operator",
          "type": "address"
        }
      ],
      "name": "removeOperator",
      "outputs": [],
      "stateMutability": "nonpayable",
      "type": "function"
    },
    {
      "inputs": [],
      "name": "renounceOwnership",
      "outputs": [],
      "stateMutability": "nonpayable",
      "type": "function"
    },
    {
      "inputs": [
        {
          "internalType": "uint256",
          "name": "newMinDeposit",
          "type": "uint256"
        }
      ],
      "name": "setMinDeposit",
      "outputs": [],
      "stateMutability": "nonpayable",
      "type": "function"
    },
    {
      "inputs": [],
      "name": "symbol",
      "outputs": [
        {
          "internalType": "string",
          "name": "",
          "type": "string"
        }
      ],
      "stateMutability": "view",
      "type": "function"
    },
    {
      "inputs": [],
      "name": "totalSupply",
      "outputs": [
        {
          "internalType": "uint256",
          "name": "",
          "type": "uint256"
        }
      ],
      "stateMutability": "view",
      "type": "function"
    },
    {
      "inputs": [],
      "name": "totalXRPLocked",
      "outputs": [
        {
          "internalType": "uint256",
          "name": "",
          "type": "uint256"
        }
      ],
      "stateMutability": "view",
      "type": "function"
    },
    {
      "inputs": [
        {
          "internalType": "address",
          "name": "to",
          "type": "address"
        },
        {
          "internalType": "uint256",
          "name": "value",
          "type": "uint256"
        }
      ],
      "name": "transfer",
      "outputs": [
        {
          "internalType": "bool",
          "name": "",
          "type": "bool"
        }
      ],
      "stateMutability": "nonpayable",
      "type": "function"
    },
    {
      "inputs": [
        {
          "internalType": "address",
          "name": "from",
          "type": "address"
        },
        {
          "internalType": "address",
          "name": "to",
          "type": "address"
        },
        {
          "internalType": "uint256",
          "name": "value",
          "type": "uint256"
        }
      ],
      "name": "transferFrom",
      "outputs": [
        {
          "internalType": "bool",
          "name": "",
          "type": "bool"
        }
      ],
      "stateMutability": "nonpayable",
      "type": "function"
    },
    {
      "inputs": [
        {
          "internalType": "address",
          "name": "newOwner",
          "type": "address"
        }
      ],
      "name": "transferOwnership",
      "outputs": [],
      "stateMutability": "nonpayable",
      "type": "function"
    }
  ],
  "bytecode": "0x6080604052662386f26fc10000600855670de0b6b3a7640000600a5534801562000027575f80fd5b50336040518060400160405280600a8152602001690536869656c64205852560b41b81525060405180604001604052806005815260200164073685852560dc1b81525081600390816200007b919062000207565b5060046200008a828262000207565b5050506001600160a01b038116620000bb57604051631e4fbdf760e01b81525f600482015260240160405180910390fd5b620000c68162000116565b5060016006819055335f81815260076020526040808220805460ff1916909417909355915190917fac6fa858e9350a46cec16539926e0fde25b7629f84b5a72bffaae4df888ae86d91a2620002cf565b600580546001600160a01b038381166001600160a01b0319831681179093556040519116919082907f8be0079c531659141344cd1fd0a4f28419497f9722a3daafe3b4186f6b6457e0905f90a35050565b634e487b7160e01b5f52604160045260245ffd5b600181811c908216806200019057607f821691505b602082108103620001af57634e487b7160e01b5f52602260045260245ffd5b50919050565b601f82111562000202575f81815260208120601f850160051c81016020861015620001dd5750805b601f850160051c820191505b81811015620001fe57828155600101620001e9565b5050505b505050565b81516001600160401b0381111562000223576200022362000167565b6200023b816200023484546200017b565b84620001b5565b602080601f83116001811462000271575f8415620002595750858301515b5f19600386901b1c1916600185901b178555620001fe565b5f85815260208120601f198616915b82811015620002a15788860151825594840194600190910190840162000280565b5085821015620002bf57878501515f19600388901b60f8161c191681555b5050505050600190811b01905550565b6112a180620002dd5f395ff3fe608060405234801561000f575f80fd5b50600436106101a1575f3560e01c8063715018a6116100f3578063a9059cbb11610093578063dd62ed3e1161006e578063dd62ed3e1461036e578063e6aa216c146103a6578063f2fde38b146103ae578063f734bd6e146103c1575f80fd5b8063a9059cbb1461033f578063ac8a584a14610352578063d5fc617e14610365575f80fd5b80638fcc9cfb116100ce5780638fcc9cfb146102fe57806395d89b41146103115780639870d7fe14610319578063a5854a3e1461032c575f80fd5b8063715018a6146102c857806379cc6790146102d05780638da5cb5b146102e3575f80fd5b8063313ce5671161015e57806341b3d1851161013957806341b3d1851461026f57806342966c681461027857806359974e381461028d57806370a08231146102a0575f80fd5b8063313ce5671461024457806339129162146102535780633ba0b9a914610266575f80fd5b806306fdde03146101a5578063095ea7b3146101c35780631358bc82146101e657806313e7c9d81461020757806318160ddd1461022957806323b872dd14610231575b5f80fd5b6101ad6103d4565b6040516101ba9190610fdd565b60405180910390f35b6101d66101d136600461103e565b610464565b60405190151581526020016101ba565b6101f96101f4366004611066565b61047d565b6040519081526020016101ba565b6101d661021536600461107d565b60076020525f908152604090205460ff1681565b6002546101f9565b6101d661023f36600461109d565b61049e565b604051601281526020016101ba565b6101f9610261366004611066565b6104c1565b6101f9600a5481565b6101f960085481565b61028b610286366004611066565b61065c565b005b61028b61029b366004611066565b610669565b6101f96102ae36600461107d565b6001600160a01b03165f9081526020819052604090205490565b61028b6107e5565b61028b6102de36600461103e565b6107f8565b6005546040516001600160a01b0390911681526020016101ba565b61028b61030c366004611066565b610811565b6101ad61089d565b61028b61032736600461107d565b6108ac565b61028b61033a3660046110d6565b610955565b6101d661034d36600461103e565b610b41565b61028b61036036600461107d565b610b4e565b6101f960095481565b6101f961037c366004611156565b6001600160a01b039182165f90815260016020908152604080832093909416825291909152205490565b600a546101f9565b61028b6103bc36600461107d565b610b9e565b6101f96103cf366004611066565b610bd8565b6060600380546103e390611187565b80601f016020809104026020016040519081016040528092919081815260200182805461040f90611187565b801561045a5780601f106104315761010080835404028352916020019161045a565b820191905f5260205f20905b81548152906001019060200180831161043d57829003601f168201915b5050505050905090565b5f33610471818585610bf0565b60019150505b92915050565b600a545f9061049483670de0b6b3a76400006111d3565b61047791906111ea565b5f336104ab858285610c02565b6104b6858585610c78565b506001949350505050565b5f6104ca610cd5565b5f821161051e5760405162461bcd60e51b815260206004820152601760248201527f43616e6e6f74206275726e207a65726f20616d6f756e7400000000000000000060448201526064015b60405180910390fd5b335f9081526020819052604090205482111561057c5760405162461bcd60e51b815260206004820152601a60248201527f496e73756666696369656e742073685852502062616c616e63650000000000006044820152606401610515565b670de0b6b3a7640000600a548361059391906111d3565b61059d91906111ea565b90508060095410156105f15760405162461bcd60e51b815260206004820152601760248201527f496e73756666696369656e7420585250206c6f636b65640000000000000000006044820152606401610515565b8060095f8282546106029190611209565b9091555061061290503383610cff565b604080518381526020810183905233917f3687d72e72fd694708710d576afa7f8afe38a09a6812c73c5f94c97b605507ff910160405180910390a26106576001600655565b919050565b6106663382610cff565b50565b335f9081526007602052604090205460ff168061069057506005546001600160a01b031633145b6106ce5760405162461bcd60e51b815260206004820152600f60248201526e2737ba1030b71037b832b930ba37b960891b6044820152606401610515565b5f811161071d5760405162461bcd60e51b815260206004820152601e60248201527f52657761726420616d6f756e74206d75737420626520706f73697469766500006044820152606401610515565b5f61072760025490565b1161076a5760405162461bcd60e51b8152602060048201526013602482015272139bc81cda161494081b5a5b9d1959081e595d606a1b6044820152606401610515565b8060095f82825461077b919061121c565b909155505060025460095461079890670de0b6b3a76400006111d3565b6107a291906111ea565b600a8190556040805183815260208101929092527f29e98ba00d07f171959c4ddcd2f3020debc7c52cf537a034d7e664340d098c6c91015b60405180910390a150565b6107ed610d33565b6107f65f610d60565b565b610803823383610c02565b61080d8282610cff565b5050565b610819610d33565b5f81116108685760405162461bcd60e51b815260206004820152601c60248201527f4d696e206465706f736974206d75737420626520706f736974697665000000006044820152606401610515565b60088190556040518181527f96a008f96f1c0ab9fa3d9ddd43cdfc614848c4d054d51f43662ed900e9d094c8906020016107da565b6060600480546103e390611187565b6108b4610d33565b6001600160a01b03811661090a5760405162461bcd60e51b815260206004820152601860248201527f496e76616c6964206f70657261746f72206164647265737300000000000000006044820152606401610515565b6001600160a01b0381165f81815260076020526040808220805460ff19166001179055517fac6fa858e9350a46cec16539926e0fde25b7629f84b5a72bffaae4df888ae86d9190a250565b335f9081526007602052604090205460ff168061097c57506005546001600160a01b031633145b6109ba5760405162461bcd60e51b815260206004820152600f60248201526e2737ba1030b71037b832b930ba37b960891b6044820152606401610515565b6109c2610cd5565b6001600160a01b038416610a0f5760405162461bcd60e51b8152602060048201526014602482015273496e76616c69642075736572206164647265737360601b6044820152606401610515565b600854831015610a615760405162461bcd60e51b815260206004820152601c60248201527f416d6f756e742062656c6f77206d696e696d756d206465706f736974000000006044820152606401610515565b80610aa55760405162461bcd60e51b8152602060048201526014602482015273092dcecc2d8d2c840b0a4a09840e8f040d0c2e6d60631b6044820152606401610515565b600a545f90610abc85670de0b6b3a76400006111d3565b610ac691906111ea565b90508360095f828254610ad9919061121c565b90915550610ae990508582610db1565b846001600160a01b03167f5dc23eace1418c630429a4639fadf2bd4b20187833ad6968b869e9e9be652e3385838686604051610b28949392919061122f565b60405180910390a250610b3b6001600655565b50505050565b5f33610471818585610c78565b610b56610d33565b6001600160a01b0381165f81815260076020526040808220805460ff19169055517f80c0b871b97b595b16a7741c1b06fed0c6f6f558639f18ccbce50724325dc40d9190a250565b610ba6610d33565b6001600160a01b038116610bcf57604051631e4fbdf760e01b81525f6004820152602401610515565b61066681610d60565b5f670de0b6b3a7640000600a548361049491906111d3565b610bfd8383836001610de5565b505050565b6001600160a01b038381165f908152600160209081526040808320938616835292905220545f19811015610b3b5781811015610c6a57604051637dc7a0d960e11b81526001600160a01b03841660048201526024810182905260448101839052606401610515565b610b3b84848484035f610de5565b6001600160a01b038316610ca157604051634b637e8f60e11b81525f6004820152602401610515565b6001600160a01b038216610cca5760405163ec442f0560e01b81525f6004820152602401610515565b610bfd838383610eb7565b600260065403610cf857604051633ee5aeb560e01b815260040160405180910390fd5b6002600655565b6001600160a01b038216610d2857604051634b637e8f60e11b81525f6004820152602401610515565b61080d825f83610eb7565b6005546001600160a01b031633146107f65760405163118cdaa760e01b8152336004820152602401610515565b600580546001600160a01b038381166001600160a01b0319831681179093556040519116919082907f8be0079c531659141344cd1fd0a4f28419497f9722a3daafe3b4186f6b6457e0905f90a35050565b6001600160a01b038216610dda5760405163ec442f0560e01b81525f6004820152602401610515565b61080d5f8383610eb7565b6001600160a01b038416610e0e5760405163e602df0560e01b81525f6004820152602401610515565b6001600160a01b038316610e3757604051634a1406b160e11b81525f6004820152602401610515565b6001600160a01b038085165f9081526001602090815260408083209387168352929052208290558015610b3b57826001600160a01b0316846001600160a01b03167f8c5be1e5ebec7d5bd14f71427d1e84f3dd0314c0f7b2291e5b200ac8c7c3b92584604051610ea991815260200190565b60405180910390a350505050565b6001600160a01b038316610ee1578060025f828254610ed6919061121c565b90915550610f519050565b6001600160a01b0383165f9081526020819052604090205481811015610f335760405163391434e360e21b81526001600160a01b03851660048201526024810182905260448101839052606401610515565b6001600160a01b0384165f9081526020819052604090209082900390555b6001600160a01b038216610f6d57600280548290039055610f8b565b6001600160a01b0382165f9081526020819052604090208054820190555b816001600160a01b0316836001600160a01b03167fddf252ad1be2c89b69c2b068fc378daa952ba7f163c4a11628f55a4df523b3ef83604051610fd091815260200190565b60405180910390a3505050565b5f6020808352835180828501525f5b8181101561100857858101830151858201604001528201610fec565b505f604082860101526040601f19601f8301168501019250505092915050565b80356001600160a01b0381168114610657575f80fd5b5f806040838503121561104f575f80fd5b61105883611028565b946020939093013593505050565b5f60208284031215611076575f80fd5b5035919050565b5f6020828403121561108d575f80fd5b61109682611028565b9392505050565b5f805f606084860312156110af575f80fd5b6110b884611028565b92506110c660208501611028565b9150604084013590509250925092565b5f805f80606085870312156110e9575f80fd5b6110f285611028565b935060208501359250604085013567ffffffffffffffff80821115611115575f80fd5b818701915087601f830112611128575f80fd5b813581811115611136575f80fd5b886020828501011115611147575f80fd5b95989497505060200194505050565b5f8060408385031215611167575f80fd5b61117083611028565b915061117e60208401611028565b90509250929050565b600181811c9082168061119b57607f821691505b6020821081036111b957634e487b7160e01b5f52602260045260245ffd5b50919050565b634e487b7160e01b5f52601160045260245ffd5b8082028115828204841417610477576104776111bf565b5f8261120457634e487b7160e01b5f52601260045260245ffd5b500490565b81810381811115610477576104776111bf565b80820180821115610477576104776111bf565b84815283602082015260606040820152816060820152818360808301375f818301608090810191909152601f909201601f19160101939250505056fea2646970667358221220e2b96beaa20694caa218fc6fa9d4a0e62b3577c27b8c84f62e326ec329a7d92e64736f6c63430008140033",
  "linkReferences": {},
  "deployedLinkReferences": {},
  "immutableReferences": {},
  "inputSourceName": "project/contracts/StXRPVault.sol",
  "buildInfoId": "solc-0_8_20-cf3b349119cbacb27619724ab6e037dd3d6d65e4"
}