{
  "_format": "hh3-artifact-1",
  "contractName": "RevenueRouter",
  "sourceName": "contracts/RevenueRouter.sol",
  "abi": [
    {
      "inputs": [
        {
          "internalType": "address",
          "name": "_shieldToken",
          "type": "address"
        },
        {
          "internalType": "address",
          "name": "_wflr",
          "type": "address"
        },
        {
          "internalType": "address",
          "name": "_router",
          "type": "address"
        }
      ],
      "stateMutability": "nonpayable",
      "type": "constructor"
    },
    {
      "inputs": [
        {
          "internalType": "address",
          "name": "owner",
          "type": "address"
        }
      ],
      "name": "OwnableInvalidOwner",
      "type": "error"
    },
    {
      "inputs": [
        {
          "internalType": "address",
          "name": "account",
          "type": "address"
        }
      ],
      "name": "OwnableUnauthorizedAccount",
      "type": "error"
    },
    {
      "inputs": [
        {
          "internalType": "address",
          "name": "token",
          "type": "address"
        }
      ],
      "name": "SafeERC20FailedOperation",
      "type": "error"
    },
    {
      "anonymous": false,
      "inputs": [
        {
          "indexed": true,
          "internalType": "address",
          "name": "previousOwner",
          "type": "address"
        },
        {
          "indexed": true,
          "internalType": "address",
          "name": "newOwner",
          "type": "address"
        }
      ],
      "name": "OwnershipTransferred",
      "type": "event"
    },
    {
      "anonymous": false,
      "inputs": [
        {
          "indexed": true,
          "internalType": "address",
          "name": "to",
          "type": "address"
        },
        {
          "indexed": false,
          "internalType": "uint256",
          "name": "amount",
          "type": "uint256"
        }
      ],
      "name": "ReservesWithdrawn",
      "type": "event"
    },
    {
      "anonymous": false,
      "inputs": [
        {
          "indexed": false,
          "internalType": "uint256",
          "name": "wflrAmount",
          "type": "uint256"
        },
        {
          "indexed": false,
          "internalType": "uint256",
          "name": "shieldBurned",
          "type": "uint256"
        }
      ],
      "name": "RevenueDistributed",
      "type": "event"
    },
    {
      "inputs": [],
      "name": "POOL_FEE",
      "outputs": [
        {
          "internalType": "uint24",
          "name": "",
          "type": "uint24"
        }
      ],
      "stateMutability": "view",
      "type": "function"
    },
    {
      "inputs": [],
      "name": "distribute",
      "outputs": [],
      "stateMutability": "nonpayable",
      "type": "function"
    },
    {
      "inputs": [],
      "name": "owner",
      "outputs": [
        {
          "internalType": "address",
          "name": "",
          "type": "address"
        }
      ],
      "stateMutability": "view",
      "type": "function"
    },
    {
      "inputs": [],
      "name": "renounceOwnership",
      "outputs": [],
      "stateMutability": "nonpayable",
      "type": "function"
    },
    {
      "inputs": [],
      "name": "router",
      "outputs": [
        {
          "internalType": "contract IUniswapV3Router",
          "name": "",
          "type": "address"
        }
      ],
      "stateMutability": "view",
      "type": "function"
    },
    {
      "inputs": [],
      "name": "shieldToken",
      "outputs": [
        {
          "internalType": "contract IShieldToken",
          "name": "",
          "type": "address"
        }
      ],
      "stateMutability": "view",
      "type": "function"
    },
    {
      "inputs": [
        {
          "internalType": "address",
          "name": "newOwner",
          "type": "address"
        }
      ],
      "name": "transferOwnership",
      "outputs": [],
      "stateMutability": "nonpayable",
      "type": "function"
    },
    {
      "inputs": [],
      "name": "wflr",
      "outputs": [
        {
          "internalType": "contract IWFLR",
          "name": "",
          "type": "address"
        }
      ],
      "stateMutability": "view",
      "type": "function"
    },
    {
      "inputs": [
        {
          "internalType": "address",
          "name": "to",
          "type": "address"
        },
        {
          "internalType": "uint256",
          "name": "amount",
          "type": "uint256"
        }
      ],
      "name": "withdrawReserves",
      "outputs": [],
      "stateMutability": "nonpayable",
      "type": "function"
    },
    {
      "stateMutability": "payable",
      "type": "receive"
    }
  ],
  "bytecode": "0x60e060405234801561000f575f80fd5b50604051610be3380380610be383398101604081905261002e916101e7565b338061005457604051631e4fbdf760e01b81525f60048201526024015b60405180910390fd5b61005d8161017d565b506001600160a01b0383166100b45760405162461bcd60e51b815260206004820152601660248201527f496e76616c696420534849454c44206164647265737300000000000000000000604482015260640161004b565b6001600160a01b03821661010a5760405162461bcd60e51b815260206004820152601460248201527f496e76616c69642077464c522061646472657373000000000000000000000000604482015260640161004b565b6001600160a01b0381166101605760405162461bcd60e51b815260206004820152601660248201527f496e76616c696420726f75746572206164647265737300000000000000000000604482015260640161004b565b6001600160a01b0392831660805290821660a0521660c052610227565b5f80546001600160a01b038381166001600160a01b0319831681178455604051919092169283917f8be0079c531659141344cd1fd0a4f28419497f9722a3daafe3b4186f6b6457e09190a35050565b80516001600160a01b03811681146101e2575f80fd5b919050565b5f805f606084860312156101f9575f80fd5b610202846101cc565b9250610210602085016101cc565b915061021e604085016101cc565b90509250925092565b60805160a05160c05161095461028f5f395f81816102380152818161043b01526105c001525f8181608e01528181610157015281816102d1015281816103560152818161046d01526104ef01525f81816101e601528181610514015261064601526109545ff3fe608060405260043610610087575f3560e01c8063e478795d11610057578063e478795d146101a2578063e4fc6b6d146101c1578063ee8ba5c5146101d5578063f2fde38b14610208578063f887ea4014610227575f80fd5b8063715018a6146100fd5780638da5cb5b146101115780639ab83a4114610146578063dd1b9c4a14610179575f80fd5b366100f9577f00000000000000000000000000000000000000000000000000000000000000006001600160a01b031663d0e30db0346040518263ffffffff1660e01b81526004015f604051808303818588803b1580156100e5575f80fd5b505af11580156100f7573d5f803e3d5ffd5b005b5f80fd5b348015610108575f80fd5b506100f761025a565b34801561011c575f80fd5b505f546001600160a01b03165b6040516001600160a01b0390911681526020015b60405180910390f35b348015610151575f80fd5b506101297f000000000000000000000000000000000000000000000000000000000000000081565b348015610184575f80fd5b5061018e610bb881565b60405162ffffff909116815260200161013d565b3480156101ad575f80fd5b506100f76101bc366004610881565b61026d565b3480156101cc575f80fd5b506100f761033f565b3480156101e0575f80fd5b506101297f000000000000000000000000000000000000000000000000000000000000000081565b348015610213575f80fd5b506100f76102223660046108a9565b6106e5565b348015610232575f80fd5b506101297f000000000000000000000000000000000000000000000000000000000000000081565b610262610722565b61026b5f61074e565b565b610275610722565b6001600160a01b0382166102c45760405162461bcd60e51b8152602060048201526011602482015270125b9d985b1a59081c9958da5c1a595b9d607a1b60448201526064015b60405180910390fd5b6102f86001600160a01b037f000000000000000000000000000000000000000000000000000000000000000016838361079d565b816001600160a01b03167fc08dc172be702645aed16b77bdd6b526b8be4dab30d20b4caf5285fd59712fe98260405161033391815260200190565b60405180910390a25050565b6040516370a0823160e01b81523060048201525f907f00000000000000000000000000000000000000000000000000000000000000006001600160a01b0316906370a0823190602401602060405180830381865afa1580156103a3573d5f803e3d5ffd5b505050506040513d601f19601f820116820180604052508101906103c791906108c9565b90505f81116104185760405162461bcd60e51b815260206004820152601860248201527f4e6f20726576656e756520746f2064697374726962757465000000000000000060448201526064016102bb565b5f6104246002836108e0565b60405163095ea7b360e01b81526001600160a01b037f000000000000000000000000000000000000000000000000000000000000000081166004830152602482018390529192507f00000000000000000000000000000000000000000000000000000000000000009091169063095ea7b3906044016020604051808303815f875af11580156104b5573d5f803e3d5ffd5b505050506040513d601f19601f820116820180604052508101906104d991906108ff565b5060408051610100810182526001600160a01b037f0000000000000000000000000000000000000000000000000000000000000000811682527f0000000000000000000000000000000000000000000000000000000000000000811660208301908152610bb88385019081523060608501908152426080860190815260a086018881525f60c0880181815260e08901828152995163414bf38960e01b8152895189166004820152965188166024880152945162ffffff166044870152925186166064860152905160848501525160a4840152905160c48301529351821660e48201529192917f00000000000000000000000000000000000000000000000000000000000000009091169063414bf38990610104016020604051808303815f875af1158015610609573d5f803e3d5ffd5b505050506040513d601f19601f8201168201806040525081019061062d91906108c9565b604051630852cd8d60e31b8152600481018290529091507f00000000000000000000000000000000000000000000000000000000000000006001600160a01b0316906342966c68906024015f604051808303815f87803b15801561068f575f80fd5b505af11580156106a1573d5f803e3d5ffd5b505060408051868152602081018590527ff2838e4b541f90d41a1076a560d75e948f7d1008e72118a655568626a30b451f935001905060405180910390a150505050565b6106ed610722565b6001600160a01b03811661071657604051631e4fbdf760e01b81525f60048201526024016102bb565b61071f8161074e565b50565b5f546001600160a01b0316331461026b5760405163118cdaa760e01b81523360048201526024016102bb565b5f80546001600160a01b038381166001600160a01b0319831681178455604051919092169283917f8be0079c531659141344cd1fd0a4f28419497f9722a3daafe3b4186f6b6457e09190a35050565b604080516001600160a01b038416602482015260448082018490528251808303909101815260649091019091526020810180516001600160e01b031663a9059cbb60e01b1790526107ef9084906107f4565b505050565b5f8060205f8451602086015f885af180610813576040513d5f823e3d81fd5b50505f513d9150811561082a578060011415610837565b6001600160a01b0384163b155b1561086057604051635274afe760e01b81526001600160a01b03851660048201526024016102bb565b50505050565b80356001600160a01b038116811461087c575f80fd5b919050565b5f8060408385031215610892575f80fd5b61089b83610866565b946020939093013593505050565b5f602082840312156108b9575f80fd5b6108c282610866565b9392505050565b5f602082840312156108d9575f80fd5b5051919050565b5f826108fa57634e487b7160e01b5f52601260045260245ffd5b500490565b5f6020828403121561090f575f80fd5b815180151581146108c2575f80fdfea2646970667358221220152880a5815ec5b9866adbf7f8136a2931f3717ea596aa21ee46bb9dc7c47f2f64736f6c63430008140033",
  "linkReferences": {},
  "deployedLinkReferences": {},
  "immutableReferences": {
    "1095": [
      {
        "length": 32,
        "start": 486
      },
      {
        "length": 32,
        "start": 1300
      },
      {
        "length": 32,
        "start": 1606
      }
    ],
    "1098": [
      {
        "length": 32,
        "start": 142
      },
      {
        "length": 32,
        "start": 343
      },
      {
        "length": 32,
        "start": 721
      },
      {
        "length": 32,
        "start": 854
      },
      {
        "length": 32,
        "start": 1133
      },
      {
        "length": 32,
        "start": 1263
      }
    ],
    "1101": [
      {
        "length": 32,
        "start": 568
      },
      {
        "length": 32,
        "start": 1083
      },
      {
        "length": 32,
        "start": 1472
      }
    ]
  },
  "inputSourceName": "project/contracts/RevenueRouter.sol",
  "buildInfoId": "solc-0_8_20-54a70d20a3b3d63da73573ec100123e56e20f7ff"
}